{
	"contracts/AnotherToken.sol": {
		"AnotherToken": {
			"abi": [
				{
					"inputs": [
						{
							"internalType": "uint256",
							"name": "_initialSupply",
							"type": "uint256"
						}
					],
					"stateMutability": "nonpayable",
					"type": "constructor"
				},
				{
					"inputs": [
						{
							"internalType": "address",
							"name": "",
							"type": "address"
						},
						{
							"internalType": "address",
							"name": "",
							"type": "address"
						}
					],
					"name": "allowed",
					"outputs": [
						{
							"internalType": "uint256",
							"name": "",
							"type": "uint256"
						}
					],
					"stateMutability": "view",
					"type": "function"
				},
				{
					"inputs": [
						{
							"internalType": "address",
							"name": "spender",
							"type": "address"
						},
						{
							"internalType": "uint256",
							"name": "amount",
							"type": "uint256"
						}
					],
					"name": "approve",
					"outputs": [
						{
							"internalType": "bool",
							"name": "",
							"type": "bool"
						}
					],
					"stateMutability": "nonpayable",
					"type": "function"
				},
				{
					"inputs": [
						{
							"internalType": "address",
							"name": "account",
							"type": "address"
						}
					],
					"name": "balanceOf",
					"outputs": [
						{
							"internalType": "uint256",
							"name": "",
							"type": "uint256"
						}
					],
					"stateMutability": "view",
					"type": "function"
				},
				{
					"inputs": [
						{
							"internalType": "address",
							"name": "",
							"type": "address"
						}
					],
					"name": "balances",
					"outputs": [
						{
							"internalType": "uint256",
							"name": "",
							"type": "uint256"
						}
					],
					"stateMutability": "view",
					"type": "function"
				},
				{
					"inputs": [],
					"name": "decimals",
					"outputs": [
						{
							"internalType": "uint8",
							"name": "",
							"type": "uint8"
						}
					],
					"stateMutability": "view",
					"type": "function"
				},
				{
					"inputs": [],
					"name": "name",
					"outputs": [
						{
							"internalType": "string",
							"name": "",
							"type": "string"
						}
					],
					"stateMutability": "view",
					"type": "function"
				},
				{
					"inputs": [],
					"name": "symbol",
					"outputs": [
						{
							"internalType": "string",
							"name": "",
							"type": "string"
						}
					],
					"stateMutability": "view",
					"type": "function"
				},
				{
					"inputs": [],
					"name": "totalSupply",
					"outputs": [
						{
							"internalType": "uint256",
							"name": "",
							"type": "uint256"
						}
					],
					"stateMutability": "view",
					"type": "function"
				},
				{
					"inputs": [
						{
							"internalType": "address",
							"name": "recipient",
							"type": "address"
						},
						{
							"internalType": "uint256",
							"name": "amount",
							"type": "uint256"
						}
					],
					"name": "transfer",
					"outputs": [
						{
							"internalType": "bool",
							"name": "",
							"type": "bool"
						}
					],
					"stateMutability": "nonpayable",
					"type": "function"
				},
				{
					"inputs": [
						{
							"internalType": "address",
							"name": "sender",
							"type": "address"
						},
						{
							"internalType": "address",
							"name": "recipient",
							"type": "address"
						},
						{
							"internalType": "uint256",
							"name": "amount",
							"type": "uint256"
						}
					],
					"name": "transferFrom",
					"outputs": [
						{
							"internalType": "bool",
							"name": "",
							"type": "bool"
						}
					],
					"stateMutability": "nonpayable",
					"type": "function"
				}
			],
			"devdoc": {
				"kind": "dev",
				"methods": {},
				"version": 1
			},
			"evm": {
				"assembly": "    /* \"contracts/AnotherToken.sol\":86:1535  contract AnotherToken is IERC20 {... */\n  mstore(0x40, 0x80)\n    /* \"contracts/AnotherToken.sol\":125:154  string public name = \"MilhaY\" */\n  mload(0x40)\n  dup1\n  0x40\n  add\n  0x40\n  mstore\n  dup1\n  0x06\n  dup2\n  mstore\n  0x20\n  add\n  0x4d696c6861590000000000000000000000000000000000000000000000000000\n  dup2\n  mstore\n  pop\n  0x00\n  swap1\n  dup2\n  tag_1\n  swap2\n  swap1\n  tag_2\n  jump\t// in\ntag_1:\n  pop\n    /* \"contracts/AnotherToken.sol\":161:190  string public symbol = \"MILY\" */\n  mload(0x40)\n  dup1\n  0x40\n  add\n  0x40\n  mstore\n  dup1\n  0x04\n  dup2\n  mstore\n  0x20\n  add\n  0x4d494c5900000000000000000000000000000000000000000000000000000000\n  dup2\n  mstore\n  pop\n  0x01\n  swap1\n  dup2\n  tag_3\n  swap2\n  swap1\n  tag_2\n  jump\t// in\ntag_3:\n  pop\n    /* \"contracts/AnotherToken.sol\":221:223  18 */\n  0x12\n    /* \"contracts/AnotherToken.sol\":197:223  uint8 public decimals = 18 */\n  0x02\n  exp(0x0100, 0x00)\n  dup2\n  sload\n  dup2\n  0xff\n  mul\n  not\n  and\n  swap1\n  dup4\n  0xff\n  and\n  mul\n  or\n  swap1\n  sstore\n  pop\n    /* \"contracts/AnotherToken.sol\":384:538  constructor(uint256 _initialSupply) {... */\n  callvalue\n  dup1\n  iszero\n  tag_4\n  jumpi\n  0x00\n  dup1\n  revert\ntag_4:\n  pop\n  mload(0x40)\n  sub(codesize, bytecodeSize)\n  dup1\n  bytecodeSize\n  dup4\n  codecopy\n  dup2\n  dup2\n  add\n  0x40\n  mstore\n  dup2\n  add\n  swap1\n  tag_5\n  swap2\n  swap1\n  tag_6\n  jump\t// in\ntag_5:\n    /* \"contracts/AnotherToken.sol\":476:484  decimals */\n  0x02\n  0x00\n  swap1\n  sload\n  swap1\n  0x0100\n  exp\n  swap1\n  div\n  0xff\n  and\n    /* \"contracts/AnotherToken.sol\":468:485  uint256(decimals) */\n  0xff\n  and\n    /* \"contracts/AnotherToken.sol\":462:464  10 */\n  0x0a\n    /* \"contracts/AnotherToken.sol\":462:485  10 ** uint256(decimals) */\n  tag_9\n  swap2\n  swap1\n  tag_10\n  jump\t// in\ntag_9:\n    /* \"contracts/AnotherToken.sol\":445:459  _initialSupply */\n  dup2\n    /* \"contracts/AnotherToken.sol\":445:485  _initialSupply * 10 ** uint256(decimals) */\n  tag_11\n  swap2\n  swap1\n  tag_12\n  jump\t// in\ntag_11:\n    /* \"contracts/AnotherToken.sol\":431:442  totalSupply */\n  0x03\n    /* \"contracts/AnotherToken.sol\":431:485  totalSupply = _initialSupply * 10 ** uint256(decimals) */\n  dup2\n  swap1\n  sstore\n  pop\n    /* \"contracts/AnotherToken.sol\":519:530  totalSupply */\n  sload(0x03)\n    /* \"contracts/AnotherToken.sol\":496:504  balances */\n  0x04\n    /* \"contracts/AnotherToken.sol\":496:516  balances[msg.sender] */\n  0x00\n    /* \"contracts/AnotherToken.sol\":505:515  msg.sender */\n  caller\n    /* \"contracts/AnotherToken.sol\":496:516  balances[msg.sender] */\n  0xffffffffffffffffffffffffffffffffffffffff\n  and\n  0xffffffffffffffffffffffffffffffffffffffff\n  and\n  dup2\n  mstore\n  0x20\n  add\n  swap1\n  dup2\n  mstore\n  0x20\n  add\n  0x00\n  keccak256\n    /* \"contracts/AnotherToken.sol\":496:530  balances[msg.sender] = totalSupply */\n  dup2\n  swap1\n  sstore\n  pop\n    /* \"contracts/AnotherToken.sol\":384:538  constructor(uint256 _initialSupply) {... */\n  pop\n    /* \"contracts/AnotherToken.sol\":86:1535  contract AnotherToken is IERC20 {... */\n  jump(tag_13)\n    /* \"#utility.yul\":7:106   */\ntag_14:\n    /* \"#utility.yul\":59:65   */\n  0x00\n    /* \"#utility.yul\":93:98   */\n  dup2\n    /* \"#utility.yul\":87:99   */\n  mload\n    /* \"#utility.yul\":77:99   */\n  swap1\n  pop\n    /* \"#utility.yul\":7:106   */\n  swap2\n  swap1\n  pop\n  jump\t// out\n    /* \"#utility.yul\":112:292   */\ntag_15:\n    /* \"#utility.yul\":160:237   */\n  0x4e487b7100000000000000000000000000000000000000000000000000000000\n    /* \"#utility.yul\":157:158   */\n  0x00\n    /* \"#utility.yul\":150:238   */\n  mstore\n    /* \"#utility.yul\":257:261   */\n  0x41\n    /* \"#utility.yul\":254:255   */\n  0x04\n    /* \"#utility.yul\":247:262   */\n  mstore\n    /* \"#utility.yul\":281:285   */\n  0x24\n    /* \"#utility.yul\":278:279   */\n  0x00\n    /* \"#utility.yul\":271:286   */\n  revert\n    /* \"#utility.yul\":298:478   */\ntag_16:\n    /* \"#utility.yul\":346:423   */\n  0x4e487b7100000000000000000000000000000000000000000000000000000000\n    /* \"#utility.yul\":343:344   */\n  0x00\n    /* \"#utility.yul\":336:424   */\n  mstore\n    /* \"#utility.yul\":443:447   */\n  0x22\n    /* \"#utility.yul\":440:441   */\n  0x04\n    /* \"#utility.yul\":433:448   */\n  mstore\n    /* \"#utility.yul\":467:471   */\n  0x24\n    /* \"#utility.yul\":464:465   */\n  0x00\n    /* \"#utility.yul\":457:472   */\n  revert\n    /* \"#utility.yul\":484:804   */\ntag_17:\n    /* \"#utility.yul\":528:534   */\n  0x00\n    /* \"#utility.yul\":565:566   */\n  0x02\n    /* \"#utility.yul\":559:563   */\n  dup3\n    /* \"#utility.yul\":555:567   */\n  div\n    /* \"#utility.yul\":545:567   */\n  swap1\n  pop\n    /* \"#utility.yul\":612:613   */\n  0x01\n    /* \"#utility.yul\":606:610   */\n  dup3\n    /* \"#utility.yul\":602:614   */\n  and\n    /* \"#utility.yul\":633:651   */\n  dup1\n    /* \"#utility.yul\":623:704   */\n  tag_48\n  jumpi\n    /* \"#utility.yul\":689:693   */\n  0x7f\n    /* \"#utility.yul\":681:687   */\n  dup3\n    /* \"#utility.yul\":677:694   */\n  and\n    /* \"#utility.yul\":667:694   */\n  swap2\n  pop\n    /* \"#utility.yul\":623:704   */\ntag_48:\n    /* \"#utility.yul\":751:753   */\n  0x20\n    /* \"#utility.yul\":743:749   */\n  dup3\n    /* \"#utility.yul\":740:754   */\n  lt\n    /* \"#utility.yul\":720:738   */\n  dup2\n    /* \"#utility.yul\":717:755   */\n  sub\n    /* \"#utility.yul\":714:798   */\n  tag_49\n  jumpi\n    /* \"#utility.yul\":770:788   */\n  tag_50\n  tag_16\n  jump\t// in\ntag_50:\n    /* \"#utility.yul\":714:798   */\ntag_49:\n    /* \"#utility.yul\":535:804   */\n  pop\n    /* \"#utility.yul\":484:804   */\n  swap2\n  swap1\n  pop\n  jump\t// out\n    /* \"#utility.yul\":810:951   */\ntag_18:\n    /* \"#utility.yul\":859:863   */\n  0x00\n    /* \"#utility.yul\":882:885   */\n  dup2\n    /* \"#utility.yul\":874:885   */\n  swap1\n  pop\n    /* \"#utility.yul\":905:908   */\n  dup2\n    /* \"#utility.yul\":902:903   */\n  0x00\n    /* \"#utility.yul\":895:909   */\n  mstore\n    /* \"#utility.yul\":939:943   */\n  0x20\n    /* \"#utility.yul\":936:937   */\n  0x00\n    /* \"#utility.yul\":926:944   */\n  keccak256\n    /* \"#utility.yul\":918:944   */\n  swap1\n  pop\n    /* \"#utility.yul\":810:951   */\n  swap2\n  swap1\n  pop\n  jump\t// out\n    /* \"#utility.yul\":957:1050   */\ntag_19:\n    /* \"#utility.yul\":994:1000   */\n  0x00\n    /* \"#utility.yul\":1041:1043   */\n  0x20\n    /* \"#utility.yul\":1036:1038   */\n  0x1f\n    /* \"#utility.yul\":1029:1034   */\n  dup4\n    /* \"#utility.yul\":1025:1039   */\n  add\n    /* \"#utility.yul\":1021:1044   */\n  div\n    /* \"#utility.yul\":1011:1044   */\n  swap1\n  pop\n    /* \"#utility.yul\":957:1050   */\n  swap2\n  swap1\n  pop\n  jump\t// out\n    /* \"#utility.yul\":1056:1163   */\ntag_20:\n    /* \"#utility.yul\":1100:1108   */\n  0x00\n    /* \"#utility.yul\":1150:1155   */\n  dup3\n    /* \"#utility.yul\":1144:1148   */\n  dup3\n    /* \"#utility.yul\":1140:1156   */\n  shl\n    /* \"#utility.yul\":1119:1156   */\n  swap1\n  pop\n    /* \"#utility.yul\":1056:1163   */\n  swap3\n  swap2\n  pop\n  pop\n  jump\t// out\n    /* \"#utility.yul\":1169:1562   */\ntag_21:\n    /* \"#utility.yul\":1238:1244   */\n  0x00\n    /* \"#utility.yul\":1288:1289   */\n  0x08\n    /* \"#utility.yul\":1276:1286   */\n  dup4\n    /* \"#utility.yul\":1272:1290   */\n  mul\n    /* \"#utility.yul\":1311:1408   */\n  tag_55\n    /* \"#utility.yul\":1341:1407   */\n  0xffffffffffffffffffffffffffffffffffffffffffffffffffffffffffffffff\n    /* \"#utility.yul\":1330:1339   */\n  dup3\n    /* \"#utility.yul\":1311:1408   */\n  tag_20\n  jump\t// in\ntag_55:\n    /* \"#utility.yul\":1429:1468   */\n  tag_56\n    /* \"#utility.yul\":1459:1467   */\n  dup7\n    /* \"#utility.yul\":1448:1457   */\n  dup4\n    /* \"#utility.yul\":1429:1468   */\n  tag_20\n  jump\t// in\ntag_56:\n    /* \"#utility.yul\":1417:1468   */\n  swap6\n  pop\n    /* \"#utility.yul\":1501:1505   */\n  dup1\n    /* \"#utility.yul\":1497:1506   */\n  not\n    /* \"#utility.yul\":1490:1495   */\n  dup5\n    /* \"#utility.yul\":1486:1507   */\n  and\n    /* \"#utility.yul\":1477:1507   */\n  swap4\n  pop\n    /* \"#utility.yul\":1550:1554   */\n  dup1\n    /* \"#utility.yul\":1540:1548   */\n  dup7\n    /* \"#utility.yul\":1536:1555   */\n  and\n    /* \"#utility.yul\":1529:1534   */\n  dup5\n    /* \"#utility.yul\":1526:1556   */\n  or\n    /* \"#utility.yul\":1516:1556   */\n  swap3\n  pop\n    /* \"#utility.yul\":1245:1562   */\n  pop\n  pop\n    /* \"#utility.yul\":1169:1562   */\n  swap4\n  swap3\n  pop\n  pop\n  pop\n  jump\t// out\n    /* \"#utility.yul\":1568:1645   */\ntag_22:\n    /* \"#utility.yul\":1605:1612   */\n  0x00\n    /* \"#utility.yul\":1634:1639   */\n  dup2\n    /* \"#utility.yul\":1623:1639   */\n  swap1\n  pop\n    /* \"#utility.yul\":1568:1645   */\n  swap2\n  swap1\n  pop\n  jump\t// out\n    /* \"#utility.yul\":1651:1711   */\ntag_23:\n    /* \"#utility.yul\":1679:1682   */\n  0x00\n    /* \"#utility.yul\":1700:1705   */\n  dup2\n    /* \"#utility.yul\":1693:1705   */\n  swap1\n  pop\n    /* \"#utility.yul\":1651:1711   */\n  swap2\n  swap1\n  pop\n  jump\t// out\n    /* \"#utility.yul\":1717:1859   */\ntag_24:\n    /* \"#utility.yul\":1767:1776   */\n  0x00\n    /* \"#utility.yul\":1800:1853   */\n  tag_60\n    /* \"#utility.yul\":1818:1852   */\n  tag_61\n    /* \"#utility.yul\":1827:1851   */\n  tag_62\n    /* \"#utility.yul\":1845:1850   */\n  dup5\n    /* \"#utility.yul\":1827:1851   */\n  tag_22\n  jump\t// in\ntag_62:\n    /* \"#utility.yul\":1818:1852   */\n  tag_23\n  jump\t// in\ntag_61:\n    /* \"#utility.yul\":1800:1853   */\n  tag_22\n  jump\t// in\ntag_60:\n    /* \"#utility.yul\":1787:1853   */\n  swap1\n  pop\n    /* \"#utility.yul\":1717:1859   */\n  swap2\n  swap1\n  pop\n  jump\t// out\n    /* \"#utility.yul\":1865:1940   */\ntag_25:\n    /* \"#utility.yul\":1908:1911   */\n  0x00\n    /* \"#utility.yul\":1929:1934   */\n  dup2\n    /* \"#utility.yul\":1922:1934   */\n  swap1\n  pop\n    /* \"#utility.yul\":1865:1940   */\n  swap2\n  swap1\n  pop\n  jump\t// out\n    /* \"#utility.yul\":1946:2215   */\ntag_26:\n    /* \"#utility.yul\":2056:2095   */\n  tag_65\n    /* \"#utility.yul\":2087:2094   */\n  dup4\n    /* \"#utility.yul\":2056:2095   */\n  tag_24\n  jump\t// in\ntag_65:\n    /* \"#utility.yul\":2117:2208   */\n  tag_66\n    /* \"#utility.yul\":2166:2207   */\n  tag_67\n    /* \"#utility.yul\":2190:2206   */\n  dup3\n    /* \"#utility.yul\":2166:2207   */\n  tag_25\n  jump\t// in\ntag_67:\n    /* \"#utility.yul\":2158:2164   */\n  dup5\n    /* \"#utility.yul\":2151:2155   */\n  dup5\n    /* \"#utility.yul\":2145:2156   */\n  sload\n    /* \"#utility.yul\":2117:2208   */\n  tag_21\n  jump\t// in\ntag_66:\n    /* \"#utility.yul\":2111:2115   */\n  dup3\n    /* \"#utility.yul\":2104:2209   */\n  sstore\n    /* \"#utility.yul\":2022:2215   */\n  pop\n    /* \"#utility.yul\":1946:2215   */\n  pop\n  pop\n  pop\n  jump\t// out\n    /* \"#utility.yul\":2221:2294   */\ntag_27:\n    /* \"#utility.yul\":2266:2269   */\n  0x00\n    /* \"#utility.yul\":2221:2294   */\n  swap1\n  jump\t// out\n    /* \"#utility.yul\":2300:2489   */\ntag_28:\n    /* \"#utility.yul\":2377:2409   */\n  tag_70\n  tag_27\n  jump\t// in\ntag_70:\n    /* \"#utility.yul\":2418:2483   */\n  tag_71\n    /* \"#utility.yul\":2476:2482   */\n  dup2\n    /* \"#utility.yul\":2468:2474   */\n  dup5\n    /* \"#utility.yul\":2462:2466   */\n  dup5\n    /* \"#utility.yul\":2418:2483   */\n  tag_26\n  jump\t// in\ntag_71:\n    /* \"#utility.yul\":2353:2489   */\n  pop\n    /* \"#utility.yul\":2300:2489   */\n  pop\n  pop\n  jump\t// out\n    /* \"#utility.yul\":2495:2681   */\ntag_29:\n    /* \"#utility.yul\":2555:2675   */\ntag_73:\n    /* \"#utility.yul\":2572:2575   */\n  dup2\n    /* \"#utility.yul\":2565:2570   */\n  dup2\n    /* \"#utility.yul\":2562:2576   */\n  lt\n    /* \"#utility.yul\":2555:2675   */\n  iszero\n  tag_75\n  jumpi\n    /* \"#utility.yul\":2626:2665   */\n  tag_76\n    /* \"#utility.yul\":2663:2664   */\n  0x00\n    /* \"#utility.yul\":2656:2661   */\n  dup3\n    /* \"#utility.yul\":2626:2665   */\n  tag_28\n  jump\t// in\ntag_76:\n    /* \"#utility.yul\":2599:2600   */\n  0x01\n    /* \"#utility.yul\":2592:2597   */\n  dup2\n    /* \"#utility.yul\":2588:2601   */\n  add\n    /* \"#utility.yul\":2579:2601   */\n  swap1\n  pop\n    /* \"#utility.yul\":2555:2675   */\n  jump(tag_73)\ntag_75:\n    /* \"#utility.yul\":2495:2681   */\n  pop\n  pop\n  jump\t// out\n    /* \"#utility.yul\":2687:3230   */\ntag_30:\n    /* \"#utility.yul\":2788:2790   */\n  0x1f\n    /* \"#utility.yul\":2783:2786   */\n  dup3\n    /* \"#utility.yul\":2780:2791   */\n  gt\n    /* \"#utility.yul\":2777:3223   */\n  iszero\n  tag_78\n  jumpi\n    /* \"#utility.yul\":2822:2860   */\n  tag_79\n    /* \"#utility.yul\":2854:2859   */\n  dup2\n    /* \"#utility.yul\":2822:2860   */\n  tag_18\n  jump\t// in\ntag_79:\n    /* \"#utility.yul\":2906:2935   */\n  tag_80\n    /* \"#utility.yul\":2924:2934   */\n  dup5\n    /* \"#utility.yul\":2906:2935   */\n  tag_19\n  jump\t// in\ntag_80:\n    /* \"#utility.yul\":2896:2904   */\n  dup2\n    /* \"#utility.yul\":2892:2936   */\n  add\n    /* \"#utility.yul\":3089:3091   */\n  0x20\n    /* \"#utility.yul\":3077:3087   */\n  dup6\n    /* \"#utility.yul\":3074:3092   */\n  lt\n    /* \"#utility.yul\":3071:3120   */\n  iszero\n  tag_81\n  jumpi\n    /* \"#utility.yul\":3110:3118   */\n  dup2\n    /* \"#utility.yul\":3095:3118   */\n  swap1\n  pop\n    /* \"#utility.yul\":3071:3120   */\ntag_81:\n    /* \"#utility.yul\":3133:3213   */\n  tag_82\n    /* \"#utility.yul\":3189:3211   */\n  tag_83\n    /* \"#utility.yul\":3207:3210   */\n  dup6\n    /* \"#utility.yul\":3189:3211   */\n  tag_19\n  jump\t// in\ntag_83:\n    /* \"#utility.yul\":3179:3187   */\n  dup4\n    /* \"#utility.yul\":3175:3212   */\n  add\n    /* \"#utility.yul\":3162:3173   */\n  dup3\n    /* \"#utility.yul\":3133:3213   */\n  tag_29\n  jump\t// in\ntag_82:\n    /* \"#utility.yul\":2792:3223   */\n  pop\n  pop\n    /* \"#utility.yul\":2777:3223   */\ntag_78:\n    /* \"#utility.yul\":2687:3230   */\n  pop\n  pop\n  pop\n  jump\t// out\n    /* \"#utility.yul\":3236:3353   */\ntag_31:\n    /* \"#utility.yul\":3290:3298   */\n  0x00\n    /* \"#utility.yul\":3340:3345   */\n  dup3\n    /* \"#utility.yul\":3334:3338   */\n  dup3\n    /* \"#utility.yul\":3330:3346   */\n  shr\n    /* \"#utility.yul\":3309:3346   */\n  swap1\n  pop\n    /* \"#utility.yul\":3236:3353   */\n  swap3\n  swap2\n  pop\n  pop\n  jump\t// out\n    /* \"#utility.yul\":3359:3528   */\ntag_32:\n    /* \"#utility.yul\":3403:3409   */\n  0x00\n    /* \"#utility.yul\":3436:3487   */\n  tag_86\n    /* \"#utility.yul\":3484:3485   */\n  0x00\n    /* \"#utility.yul\":3480:3486   */\n  not\n    /* \"#utility.yul\":3472:3477   */\n  dup5\n    /* \"#utility.yul\":3469:3470   */\n  0x08\n    /* \"#utility.yul\":3465:3478   */\n  mul\n    /* \"#utility.yul\":3436:3487   */\n  tag_31\n  jump\t// in\ntag_86:\n    /* \"#utility.yul\":3432:3488   */\n  not\n    /* \"#utility.yul\":3517:3521   */\n  dup1\n    /* \"#utility.yul\":3511:3515   */\n  dup4\n    /* \"#utility.yul\":3507:3522   */\n  and\n    /* \"#utility.yul\":3497:3522   */\n  swap2\n  pop\n    /* \"#utility.yul\":3410:3528   */\n  pop\n    /* \"#utility.yul\":3359:3528   */\n  swap3\n  swap2\n  pop\n  pop\n  jump\t// out\n    /* \"#utility.yul\":3533:3828   */\ntag_33:\n    /* \"#utility.yul\":3609:3613   */\n  0x00\n    /* \"#utility.yul\":3755:3784   */\n  tag_88\n    /* \"#utility.yul\":3780:3783   */\n  dup4\n    /* \"#utility.yul\":3774:3778   */\n  dup4\n    /* \"#utility.yul\":3755:3784   */\n  tag_32\n  jump\t// in\ntag_88:\n    /* \"#utility.yul\":3747:3784   */\n  swap2\n  pop\n    /* \"#utility.yul\":3817:3820   */\n  dup3\n    /* \"#utility.yul\":3814:3815   */\n  0x02\n    /* \"#utility.yul\":3810:3821   */\n  mul\n    /* \"#utility.yul\":3804:3808   */\n  dup3\n    /* \"#utility.yul\":3801:3822   */\n  or\n    /* \"#utility.yul\":3793:3822   */\n  swap1\n  pop\n    /* \"#utility.yul\":3533:3828   */\n  swap3\n  swap2\n  pop\n  pop\n  jump\t// out\n    /* \"#utility.yul\":3833:5228   */\ntag_2:\n    /* \"#utility.yul\":3950:3987   */\n  tag_90\n    /* \"#utility.yul\":3983:3986   */\n  dup3\n    /* \"#utility.yul\":3950:3987   */\n  tag_14\n  jump\t// in\ntag_90:\n    /* \"#utility.yul\":4052:4070   */\n  0xffffffffffffffff\n    /* \"#utility.yul\":4044:4050   */\n  dup2\n    /* \"#utility.yul\":4041:4071   */\n  gt\n    /* \"#utility.yul\":4038:4094   */\n  iszero\n  tag_91\n  jumpi\n    /* \"#utility.yul\":4074:4092   */\n  tag_92\n  tag_15\n  jump\t// in\ntag_92:\n    /* \"#utility.yul\":4038:4094   */\ntag_91:\n    /* \"#utility.yul\":4118:4156   */\n  tag_93\n    /* \"#utility.yul\":4150:4154   */\n  dup3\n    /* \"#utility.yul\":4144:4155   */\n  sload\n    /* \"#utility.yul\":4118:4156   */\n  tag_17\n  jump\t// in\ntag_93:\n    /* \"#utility.yul\":4203:4270   */\n  tag_94\n    /* \"#utility.yul\":4263:4269   */\n  dup3\n    /* \"#utility.yul\":4255:4261   */\n  dup3\n    /* \"#utility.yul\":4249:4253   */\n  dup6\n    /* \"#utility.yul\":4203:4270   */\n  tag_30\n  jump\t// in\ntag_94:\n    /* \"#utility.yul\":4297:4298   */\n  0x00\n    /* \"#utility.yul\":4321:4325   */\n  0x20\n    /* \"#utility.yul\":4308:4325   */\n  swap1\n  pop\n    /* \"#utility.yul\":4353:4355   */\n  0x1f\n    /* \"#utility.yul\":4345:4351   */\n  dup4\n    /* \"#utility.yul\":4342:4356   */\n  gt\n    /* \"#utility.yul\":4370:4371   */\n  0x01\n    /* \"#utility.yul\":4365:4983   */\n  dup2\n  eq\n  tag_96\n  jumpi\n    /* \"#utility.yul\":5027:5028   */\n  0x00\n    /* \"#utility.yul\":5044:5050   */\n  dup5\n    /* \"#utility.yul\":5041:5118   */\n  iszero\n  tag_97\n  jumpi\n    /* \"#utility.yul\":5093:5102   */\n  dup3\n    /* \"#utility.yul\":5088:5091   */\n  dup8\n    /* \"#utility.yul\":5084:5103   */\n  add\n    /* \"#utility.yul\":5078:5104   */\n  mload\n    /* \"#utility.yul\":5069:5104   */\n  swap1\n  pop\n    /* \"#utility.yul\":5041:5118   */\ntag_97:\n    /* \"#utility.yul\":5144:5211   */\n  tag_98\n    /* \"#utility.yul\":5204:5210   */\n  dup6\n    /* \"#utility.yul\":5197:5202   */\n  dup3\n    /* \"#utility.yul\":5144:5211   */\n  tag_33\n  jump\t// in\ntag_98:\n    /* \"#utility.yul\":5138:5142   */\n  dup7\n    /* \"#utility.yul\":5131:5212   */\n  sstore\n    /* \"#utility.yul\":5000:5222   */\n  pop\n    /* \"#utility.yul\":4335:5222   */\n  jump(tag_95)\n    /* \"#utility.yul\":4365:4983   */\ntag_96:\n    /* \"#utility.yul\":4417:4421   */\n  0x1f\n    /* \"#utility.yul\":4413:4422   */\n  not\n    /* \"#utility.yul\":4405:4411   */\n  dup5\n    /* \"#utility.yul\":4401:4423   */\n  and\n    /* \"#utility.yul\":4451:4488   */\n  tag_99\n    /* \"#utility.yul\":4483:4487   */\n  dup7\n    /* \"#utility.yul\":4451:4488   */\n  tag_18\n  jump\t// in\ntag_99:\n    /* \"#utility.yul\":4510:4511   */\n  0x00\n    /* \"#utility.yul\":4524:4732   */\ntag_100:\n    /* \"#utility.yul\":4538:4545   */\n  dup3\n    /* \"#utility.yul\":4535:4536   */\n  dup2\n    /* \"#utility.yul\":4532:4546   */\n  lt\n    /* \"#utility.yul\":4524:4732   */\n  iszero\n  tag_102\n  jumpi\n    /* \"#utility.yul\":4617:4626   */\n  dup5\n    /* \"#utility.yul\":4612:4615   */\n  dup10\n    /* \"#utility.yul\":4608:4627   */\n  add\n    /* \"#utility.yul\":4602:4628   */\n  mload\n    /* \"#utility.yul\":4594:4600   */\n  dup3\n    /* \"#utility.yul\":4587:4629   */\n  sstore\n    /* \"#utility.yul\":4668:4669   */\n  0x01\n    /* \"#utility.yul\":4660:4666   */\n  dup3\n    /* \"#utility.yul\":4656:4670   */\n  add\n    /* \"#utility.yul\":4646:4670   */\n  swap2\n  pop\n    /* \"#utility.yul\":4715:4717   */\n  0x20\n    /* \"#utility.yul\":4704:4713   */\n  dup6\n    /* \"#utility.yul\":4700:4718   */\n  add\n    /* \"#utility.yul\":4687:4718   */\n  swap5\n  pop\n    /* \"#utility.yul\":4561:4565   */\n  0x20\n    /* \"#utility.yul\":4558:4559   */\n  dup2\n    /* \"#utility.yul\":4554:4566   */\n  add\n    /* \"#utility.yul\":4549:4566   */\n  swap1\n  pop\n    /* \"#utility.yul\":4524:4732   */\n  jump(tag_100)\ntag_102:\n    /* \"#utility.yul\":4760:4766   */\n  dup7\n    /* \"#utility.yul\":4751:4758   */\n  dup4\n    /* \"#utility.yul\":4748:4767   */\n  lt\n    /* \"#utility.yul\":4745:4924   */\n  iszero\n  tag_103\n  jumpi\n    /* \"#utility.yul\":4818:4827   */\n  dup5\n    /* \"#utility.yul\":4813:4816   */\n  dup10\n    /* \"#utility.yul\":4809:4828   */\n  add\n    /* \"#utility.yul\":4803:4829   */\n  mload\n    /* \"#utility.yul\":4861:4909   */\n  tag_104\n    /* \"#utility.yul\":4903:4907   */\n  0x1f\n    /* \"#utility.yul\":4895:4901   */\n  dup10\n    /* \"#utility.yul\":4891:4908   */\n  and\n    /* \"#utility.yul\":4880:4889   */\n  dup3\n    /* \"#utility.yul\":4861:4909   */\n  tag_32\n  jump\t// in\ntag_104:\n    /* \"#utility.yul\":4853:4859   */\n  dup4\n    /* \"#utility.yul\":4846:4910   */\n  sstore\n    /* \"#utility.yul\":4768:4924   */\n  pop\n    /* \"#utility.yul\":4745:4924   */\ntag_103:\n    /* \"#utility.yul\":4970:4971   */\n  0x01\n    /* \"#utility.yul\":4966:4967   */\n  0x02\n    /* \"#utility.yul\":4958:4964   */\n  dup9\n    /* \"#utility.yul\":4954:4968   */\n  mul\n    /* \"#utility.yul\":4950:4972   */\n  add\n    /* \"#utility.yul\":4944:4948   */\n  dup9\n    /* \"#utility.yul\":4937:4973   */\n  sstore\n    /* \"#utility.yul\":4372:4983   */\n  pop\n  pop\n  pop\n    /* \"#utility.yul\":4335:5222   */\ntag_95:\n  pop\n    /* \"#utility.yul\":3925:5228   */\n  pop\n  pop\n  pop\n    /* \"#utility.yul\":3833:5228   */\n  pop\n  pop\n  jump\t// out\n    /* \"#utility.yul\":5315:5432   */\ntag_35:\n    /* \"#utility.yul\":5424:5425   */\n  0x00\n    /* \"#utility.yul\":5421:5422   */\n  dup1\n    /* \"#utility.yul\":5414:5426   */\n  revert\n    /* \"#utility.yul\":5561:5683   */\ntag_37:\n    /* \"#utility.yul\":5634:5658   */\n  tag_109\n    /* \"#utility.yul\":5652:5657   */\n  dup2\n    /* \"#utility.yul\":5634:5658   */\n  tag_22\n  jump\t// in\ntag_109:\n    /* \"#utility.yul\":5627:5632   */\n  dup2\n    /* \"#utility.yul\":5624:5659   */\n  eq\n    /* \"#utility.yul\":5614:5677   */\n  tag_110\n  jumpi\n    /* \"#utility.yul\":5673:5674   */\n  0x00\n    /* \"#utility.yul\":5670:5671   */\n  dup1\n    /* \"#utility.yul\":5663:5675   */\n  revert\n    /* \"#utility.yul\":5614:5677   */\ntag_110:\n    /* \"#utility.yul\":5561:5683   */\n  pop\n  jump\t// out\n    /* \"#utility.yul\":5689:5832   */\ntag_38:\n    /* \"#utility.yul\":5746:5751   */\n  0x00\n    /* \"#utility.yul\":5777:5783   */\n  dup2\n    /* \"#utility.yul\":5771:5784   */\n  mload\n    /* \"#utility.yul\":5762:5784   */\n  swap1\n  pop\n    /* \"#utility.yul\":5793:5826   */\n  tag_112\n    /* \"#utility.yul\":5820:5825   */\n  dup2\n    /* \"#utility.yul\":5793:5826   */\n  tag_37\n  jump\t// in\ntag_112:\n    /* \"#utility.yul\":5689:5832   */\n  swap3\n  swap2\n  pop\n  pop\n  jump\t// out\n    /* \"#utility.yul\":5838:6189   */\ntag_6:\n    /* \"#utility.yul\":5908:5914   */\n  0x00\n    /* \"#utility.yul\":5957:5959   */\n  0x20\n    /* \"#utility.yul\":5945:5954   */\n  dup3\n    /* \"#utility.yul\":5936:5943   */\n  dup5\n    /* \"#utility.yul\":5932:5955   */\n  sub\n    /* \"#utility.yul\":5928:5960   */\n  slt\n    /* \"#utility.yul\":5925:6044   */\n  iszero\n  tag_114\n  jumpi\n    /* \"#utility.yul\":5963:6042   */\n  tag_115\n  tag_35\n  jump\t// in\ntag_115:\n    /* \"#utility.yul\":5925:6044   */\ntag_114:\n    /* \"#utility.yul\":6083:6084   */\n  0x00\n    /* \"#utility.yul\":6108:6172   */\n  tag_116\n    /* \"#utility.yul\":6164:6171   */\n  dup5\n    /* \"#utility.yul\":6155:6161   */\n  dup3\n    /* \"#utility.yul\":6144:6153   */\n  dup6\n    /* \"#utility.yul\":6140:6162   */\n  add\n    /* \"#utility.yul\":6108:6172   */\n  tag_38\n  jump\t// in\ntag_116:\n    /* \"#utility.yul\":6098:6172   */\n  swap2\n  pop\n    /* \"#utility.yul\":6054:6182   */\n  pop\n    /* \"#utility.yul\":5838:6189   */\n  swap3\n  swap2\n  pop\n  pop\n  jump\t// out\n    /* \"#utility.yul\":6195:6375   */\ntag_39:\n    /* \"#utility.yul\":6243:6320   */\n  0x4e487b7100000000000000000000000000000000000000000000000000000000\n    /* \"#utility.yul\":6240:6241   */\n  0x00\n    /* \"#utility.yul\":6233:6321   */\n  mstore\n    /* \"#utility.yul\":6340:6344   */\n  0x11\n    /* \"#utility.yul\":6337:6338   */\n  0x04\n    /* \"#utility.yul\":6330:6345   */\n  mstore\n    /* \"#utility.yul\":6364:6368   */\n  0x24\n    /* \"#utility.yul\":6361:6362   */\n  0x00\n    /* \"#utility.yul\":6354:6369   */\n  revert\n    /* \"#utility.yul\":6381:6483   */\ntag_40:\n    /* \"#utility.yul\":6423:6431   */\n  0x00\n    /* \"#utility.yul\":6470:6475   */\n  dup2\n    /* \"#utility.yul\":6467:6468   */\n  0x01\n    /* \"#utility.yul\":6463:6476   */\n  shr\n    /* \"#utility.yul\":6442:6476   */\n  swap1\n  pop\n    /* \"#utility.yul\":6381:6483   */\n  swap2\n  swap1\n  pop\n  jump\t// out\n    /* \"#utility.yul\":6489:7337   */\ntag_41:\n    /* \"#utility.yul\":6550:6555   */\n  0x00\n    /* \"#utility.yul\":6557:6561   */\n  dup1\n    /* \"#utility.yul\":6581:6587   */\n  dup3\n    /* \"#utility.yul\":6572:6587   */\n  swap2\n  pop\n    /* \"#utility.yul\":6605:6610   */\n  dup4\n    /* \"#utility.yul\":6596:6610   */\n  swap1\n  pop\n    /* \"#utility.yul\":6619:7331   */\ntag_120:\n    /* \"#utility.yul\":6640:6641   */\n  0x01\n    /* \"#utility.yul\":6630:6638   */\n  dup6\n    /* \"#utility.yul\":6627:6642   */\n  gt\n    /* \"#utility.yul\":6619:7331   */\n  iszero\n  tag_122\n  jumpi\n    /* \"#utility.yul\":6735:6739   */\n  dup1\n    /* \"#utility.yul\":6730:6733   */\n  dup7\n    /* \"#utility.yul\":6726:6740   */\n  div\n    /* \"#utility.yul\":6720:6724   */\n  dup2\n    /* \"#utility.yul\":6717:6741   */\n  gt\n    /* \"#utility.yul\":6714:6764   */\n  iszero\n  tag_123\n  jumpi\n    /* \"#utility.yul\":6744:6762   */\n  tag_124\n  tag_39\n  jump\t// in\ntag_124:\n    /* \"#utility.yul\":6714:6764   */\ntag_123:\n    /* \"#utility.yul\":6794:6795   */\n  0x01\n    /* \"#utility.yul\":6784:6792   */\n  dup6\n    /* \"#utility.yul\":6780:6796   */\n  and\n    /* \"#utility.yul\":6777:7228   */\n  iszero\n  tag_125\n  jumpi\n    /* \"#utility.yul\":7209:7213   */\n  dup1\n    /* \"#utility.yul\":7202:7207   */\n  dup3\n    /* \"#utility.yul\":7198:7214   */\n  mul\n    /* \"#utility.yul\":7189:7214   */\n  swap2\n  pop\n    /* \"#utility.yul\":6777:7228   */\ntag_125:\n    /* \"#utility.yul\":7259:7263   */\n  dup1\n    /* \"#utility.yul\":7253:7257   */\n  dup2\n    /* \"#utility.yul\":7249:7264   */\n  mul\n    /* \"#utility.yul\":7241:7264   */\n  swap1\n  pop\n    /* \"#utility.yul\":7289:7321   */\n  tag_126\n    /* \"#utility.yul\":7312:7320   */\n  dup6\n    /* \"#utility.yul\":7289:7321   */\n  tag_40\n  jump\t// in\ntag_126:\n    /* \"#utility.yul\":7277:7321   */\n  swap5\n  pop\n    /* \"#utility.yul\":6619:7331   */\n  jump(tag_120)\ntag_122:\n    /* \"#utility.yul\":6489:7337   */\n  swap5\n  pop\n  swap5\n  swap3\n  pop\n  pop\n  pop\n  jump\t// out\n    /* \"#utility.yul\":7343:8416   */\ntag_42:\n    /* \"#utility.yul\":7397:7402   */\n  0x00\n    /* \"#utility.yul\":7588:7596   */\n  dup3\n    /* \"#utility.yul\":7578:7618   */\n  tag_128\n  jumpi\n    /* \"#utility.yul\":7609:7610   */\n  0x01\n    /* \"#utility.yul\":7600:7610   */\n  swap1\n  pop\n    /* \"#utility.yul\":7611:7616   */\n  jump(tag_127)\n    /* \"#utility.yul\":7578:7618   */\ntag_128:\n    /* \"#utility.yul\":7637:7641   */\n  dup2\n    /* \"#utility.yul\":7627:7663   */\n  tag_129\n  jumpi\n    /* \"#utility.yul\":7654:7655   */\n  0x00\n    /* \"#utility.yul\":7645:7655   */\n  swap1\n  pop\n    /* \"#utility.yul\":7656:7661   */\n  jump(tag_127)\n    /* \"#utility.yul\":7627:7663   */\ntag_129:\n    /* \"#utility.yul\":7723:7727   */\n  dup2\n    /* \"#utility.yul\":7771:7772   */\n  0x01\n    /* \"#utility.yul\":7766:7793   */\n  dup2\n  eq\n  tag_131\n  jumpi\n    /* \"#utility.yul\":7807:7808   */\n  0x02\n    /* \"#utility.yul\":7802:7993   */\n  dup2\n  eq\n  tag_132\n  jumpi\n    /* \"#utility.yul\":7716:7993   */\n  jump(tag_130)\n    /* \"#utility.yul\":7766:7793   */\ntag_131:\n    /* \"#utility.yul\":7784:7785   */\n  0x01\n    /* \"#utility.yul\":7775:7785   */\n  swap2\n  pop\n    /* \"#utility.yul\":7786:7791   */\n  pop\n  jump(tag_127)\n    /* \"#utility.yul\":7802:7993   */\ntag_132:\n    /* \"#utility.yul\":7847:7850   */\n  0xff\n    /* \"#utility.yul\":7837:7845   */\n  dup5\n    /* \"#utility.yul\":7834:7851   */\n  gt\n    /* \"#utility.yul\":7831:7874   */\n  iszero\n  tag_133\n  jumpi\n    /* \"#utility.yul\":7854:7872   */\n  tag_134\n  tag_39\n  jump\t// in\ntag_134:\n    /* \"#utility.yul\":7831:7874   */\ntag_133:\n    /* \"#utility.yul\":7903:7911   */\n  dup4\n    /* \"#utility.yul\":7900:7901   */\n  0x02\n    /* \"#utility.yul\":7896:7912   */\n  exp\n    /* \"#utility.yul\":7887:7912   */\n  swap2\n  pop\n    /* \"#utility.yul\":7938:7941   */\n  dup5\n    /* \"#utility.yul\":7931:7936   */\n  dup3\n    /* \"#utility.yul\":7928:7942   */\n  gt\n    /* \"#utility.yul\":7925:7965   */\n  iszero\n  tag_135\n  jumpi\n    /* \"#utility.yul\":7945:7963   */\n  tag_136\n  tag_39\n  jump\t// in\ntag_136:\n    /* \"#utility.yul\":7925:7965   */\ntag_135:\n    /* \"#utility.yul\":7978:7983   */\n  pop\n  jump(tag_127)\n    /* \"#utility.yul\":7716:7993   */\ntag_130:\n  pop\n    /* \"#utility.yul\":8102:8104   */\n  0x20\n    /* \"#utility.yul\":8092:8100   */\n  dup4\n    /* \"#utility.yul\":8089:8105   */\n  lt\n    /* \"#utility.yul\":8083:8086   */\n  0x0133\n    /* \"#utility.yul\":8077:8081   */\n  dup4\n    /* \"#utility.yul\":8074:8087   */\n  lt\n    /* \"#utility.yul\":8070:8106   */\n  and\n    /* \"#utility.yul\":8052:8054   */\n  0x4e\n    /* \"#utility.yul\":8042:8050   */\n  dup5\n    /* \"#utility.yul\":8039:8055   */\n  lt\n    /* \"#utility.yul\":8034:8036   */\n  0x0b\n    /* \"#utility.yul\":8028:8032   */\n  dup5\n    /* \"#utility.yul\":8025:8037   */\n  lt\n    /* \"#utility.yul\":8021:8056   */\n  and\n    /* \"#utility.yul\":8005:8116   */\n  or\n    /* \"#utility.yul\":8002:8248   */\n  iszero\n  tag_137\n  jumpi\n    /* \"#utility.yul\":8158:8166   */\n  dup3\n    /* \"#utility.yul\":8152:8156   */\n  dup3\n    /* \"#utility.yul\":8148:8167   */\n  exp\n    /* \"#utility.yul\":8139:8167   */\n  swap1\n  pop\n    /* \"#utility.yul\":8193:8196   */\n  dup4\n    /* \"#utility.yul\":8186:8191   */\n  dup2\n    /* \"#utility.yul\":8183:8197   */\n  gt\n    /* \"#utility.yul\":8180:8220   */\n  iszero\n  tag_138\n  jumpi\n    /* \"#utility.yul\":8200:8218   */\n  tag_139\n  tag_39\n  jump\t// in\ntag_139:\n    /* \"#utility.yul\":8180:8220   */\ntag_138:\n    /* \"#utility.yul\":8233:8238   */\n  jump(tag_127)\n    /* \"#utility.yul\":8002:8248   */\ntag_137:\n    /* \"#utility.yul\":8273:8315   */\n  tag_140\n    /* \"#utility.yul\":8311:8314   */\n  dup5\n    /* \"#utility.yul\":8301:8309   */\n  dup5\n    /* \"#utility.yul\":8295:8299   */\n  dup5\n    /* \"#utility.yul\":8292:8293   */\n  0x01\n    /* \"#utility.yul\":8273:8315   */\n  tag_41\n  jump\t// in\ntag_140:\n    /* \"#utility.yul\":8258:8315   */\n  swap3\n  pop\n  swap1\n  pop\n    /* \"#utility.yul\":8347:8351   */\n  dup2\n    /* \"#utility.yul\":8342:8345   */\n  dup5\n    /* \"#utility.yul\":8338:8352   */\n  div\n    /* \"#utility.yul\":8331:8336   */\n  dup2\n    /* \"#utility.yul\":8328:8353   */\n  gt\n    /* \"#utility.yul\":8325:8376   */\n  iszero\n  tag_141\n  jumpi\n    /* \"#utility.yul\":8356:8374   */\n  tag_142\n  tag_39\n  jump\t// in\ntag_142:\n    /* \"#utility.yul\":8325:8376   */\ntag_141:\n    /* \"#utility.yul\":8405:8409   */\n  dup2\n    /* \"#utility.yul\":8398:8403   */\n  dup2\n    /* \"#utility.yul\":8394:8410   */\n  mul\n    /* \"#utility.yul\":8385:8410   */\n  swap1\n  pop\n    /* \"#utility.yul\":7343:8416   */\ntag_127:\n  swap4\n  swap3\n  pop\n  pop\n  pop\n  jump\t// out\n    /* \"#utility.yul\":8422:8707   */\ntag_10:\n    /* \"#utility.yul\":8482:8487   */\n  0x00\n    /* \"#utility.yul\":8506:8529   */\n  tag_144\n    /* \"#utility.yul\":8524:8528   */\n  dup3\n    /* \"#utility.yul\":8506:8529   */\n  tag_22\n  jump\t// in\ntag_144:\n    /* \"#utility.yul\":8498:8529   */\n  swap2\n  pop\n    /* \"#utility.yul\":8550:8577   */\n  tag_145\n    /* \"#utility.yul\":8568:8576   */\n  dup4\n    /* \"#utility.yul\":8550:8577   */\n  tag_22\n  jump\t// in\ntag_145:\n    /* \"#utility.yul\":8538:8577   */\n  swap3\n  pop\n    /* \"#utility.yul\":8596:8700   */\n  tag_146\n    /* \"#utility.yul\":8633:8699   */\n  0xffffffffffffffffffffffffffffffffffffffffffffffffffffffffffffffff\n    /* \"#utility.yul\":8623:8631   */\n  dup5\n    /* \"#utility.yul\":8617:8621   */\n  dup5\n    /* \"#utility.yul\":8596:8700   */\n  tag_42\n  jump\t// in\ntag_146:\n    /* \"#utility.yul\":8587:8700   */\n  swap1\n  pop\n    /* \"#utility.yul\":8422:8707   */\n  swap3\n  swap2\n  pop\n  pop\n  jump\t// out\n    /* \"#utility.yul\":8713:9123   */\ntag_12:\n    /* \"#utility.yul\":8753:8760   */\n  0x00\n    /* \"#utility.yul\":8776:8796   */\n  tag_148\n    /* \"#utility.yul\":8794:8795   */\n  dup3\n    /* \"#utility.yul\":8776:8796   */\n  tag_22\n  jump\t// in\ntag_148:\n    /* \"#utility.yul\":8771:8796   */\n  swap2\n  pop\n    /* \"#utility.yul\":8810:8830   */\n  tag_149\n    /* \"#utility.yul\":8828:8829   */\n  dup4\n    /* \"#utility.yul\":8810:8830   */\n  tag_22\n  jump\t// in\ntag_149:\n    /* \"#utility.yul\":8805:8830   */\n  swap3\n  pop\n    /* \"#utility.yul\":8865:8866   */\n  dup3\n    /* \"#utility.yul\":8862:8863   */\n  dup3\n    /* \"#utility.yul\":8858:8867   */\n  mul\n    /* \"#utility.yul\":8887:8917   */\n  tag_150\n    /* \"#utility.yul\":8905:8916   */\n  dup2\n    /* \"#utility.yul\":8887:8917   */\n  tag_22\n  jump\t// in\ntag_150:\n    /* \"#utility.yul\":8876:8917   */\n  swap2\n  pop\n    /* \"#utility.yul\":9066:9067   */\n  dup3\n    /* \"#utility.yul\":9057:9064   */\n  dup3\n    /* \"#utility.yul\":9053:9068   */\n  div\n    /* \"#utility.yul\":9050:9051   */\n  dup5\n    /* \"#utility.yul\":9047:9069   */\n  eq\n    /* \"#utility.yul\":9027:9028   */\n  dup4\n    /* \"#utility.yul\":9020:9029   */\n  iszero\n    /* \"#utility.yul\":9000:9083   */\n  or\n    /* \"#utility.yul\":8977:9116   */\n  tag_151\n  jumpi\n    /* \"#utility.yul\":9096:9114   */\n  tag_152\n  tag_39\n  jump\t// in\ntag_152:\n    /* \"#utility.yul\":8977:9116   */\ntag_151:\n    /* \"#utility.yul\":8761:9123   */\n  pop\n    /* \"#utility.yul\":8713:9123   */\n  swap3\n  swap2\n  pop\n  pop\n  jump\t// out\n    /* \"contracts/AnotherToken.sol\":86:1535  contract AnotherToken is IERC20 {... */\ntag_13:\n  dataSize(sub_0)\n  dup1\n  dataOffset(sub_0)\n  0x00\n  codecopy\n  0x00\n  return\nstop\n\nsub_0: assembly {\n        /* \"contracts/AnotherToken.sol\":86:1535  contract AnotherToken is IERC20 {... */\n      mstore(0x40, 0x80)\n      callvalue\n      dup1\n      iszero\n      tag_1\n      jumpi\n      0x00\n      dup1\n      revert\n    tag_1:\n      pop\n      jumpi(tag_2, lt(calldatasize, 0x04))\n      shr(0xe0, calldataload(0x00))\n      dup1\n      0x313ce567\n      gt\n      tag_13\n      jumpi\n      dup1\n      0x313ce567\n      eq\n      tag_8\n      jumpi\n      dup1\n      0x5c658165\n      eq\n      tag_9\n      jumpi\n      dup1\n      0x70a08231\n      eq\n      tag_10\n      jumpi\n      dup1\n      0x95d89b41\n      eq\n      tag_11\n      jumpi\n      dup1\n      0xa9059cbb\n      eq\n      tag_12\n      jumpi\n      jump(tag_2)\n    tag_13:\n      dup1\n      0x06fdde03\n      eq\n      tag_3\n      jumpi\n      dup1\n      0x095ea7b3\n      eq\n      tag_4\n      jumpi\n      dup1\n      0x18160ddd\n      eq\n      tag_5\n      jumpi\n      dup1\n      0x23b872dd\n      eq\n      tag_6\n      jumpi\n      dup1\n      0x27e235e3\n      eq\n      tag_7\n      jumpi\n    tag_2:\n      0x00\n      dup1\n      revert\n        /* \"contracts/AnotherToken.sol\":125:154  string public name = \"MilhaY\" */\n    tag_3:\n      tag_14\n      tag_15\n      jump\t// in\n    tag_14:\n      mload(0x40)\n      tag_16\n      swap2\n      swap1\n      tag_17\n      jump\t// in\n    tag_16:\n      mload(0x40)\n      dup1\n      swap2\n      sub\n      swap1\n      return\n        /* \"contracts/AnotherToken.sol\":953:1114  function approve(address spender, uint256 amount) external override returns (bool) {... */\n    tag_4:\n      tag_18\n      0x04\n      dup1\n      calldatasize\n      sub\n      dup2\n      add\n      swap1\n      tag_19\n      swap2\n      swap1\n      tag_20\n      jump\t// in\n    tag_19:\n      tag_21\n      jump\t// in\n    tag_18:\n      mload(0x40)\n      tag_22\n      swap2\n      swap1\n      tag_23\n      jump\t// in\n    tag_22:\n      mload(0x40)\n      dup1\n      swap2\n      sub\n      swap1\n      return\n        /* \"contracts/AnotherToken.sol\":230:256  uint256 public totalSupply */\n    tag_5:\n      tag_24\n      tag_25\n      jump\t// in\n    tag_24:\n      mload(0x40)\n      tag_26\n      swap2\n      swap1\n      tag_27\n      jump\t// in\n    tag_26:\n      mload(0x40)\n      dup1\n      swap2\n      sub\n      swap1\n      return\n        /* \"contracts/AnotherToken.sol\":1122:1532  function transferFrom(address sender, address recipient, uint256 amount) external override returns (bool) {... */\n    tag_6:\n      tag_28\n      0x04\n      dup1\n      calldatasize\n      sub\n      dup2\n      add\n      swap1\n      tag_29\n      swap2\n      swap1\n      tag_30\n      jump\t// in\n    tag_29:\n      tag_31\n      jump\t// in\n    tag_28:\n      mload(0x40)\n      tag_32\n      swap2\n      swap1\n      tag_23\n      jump\t// in\n    tag_32:\n      mload(0x40)\n      dup1\n      swap2\n      sub\n      swap1\n      return\n        /* \"contracts/AnotherToken.sol\":263:306  mapping(address => uint256) public balances */\n    tag_7:\n      tag_33\n      0x04\n      dup1\n      calldatasize\n      sub\n      dup2\n      add\n      swap1\n      tag_34\n      swap2\n      swap1\n      tag_35\n      jump\t// in\n    tag_34:\n      tag_36\n      jump\t// in\n    tag_33:\n      mload(0x40)\n      tag_37\n      swap2\n      swap1\n      tag_27\n      jump\t// in\n    tag_37:\n      mload(0x40)\n      dup1\n      swap2\n      sub\n      swap1\n      return\n        /* \"contracts/AnotherToken.sol\":197:223  uint8 public decimals = 18 */\n    tag_8:\n      tag_38\n      tag_39\n      jump\t// in\n    tag_38:\n      mload(0x40)\n      tag_40\n      swap2\n      swap1\n      tag_41\n      jump\t// in\n    tag_40:\n      mload(0x40)\n      dup1\n      swap2\n      sub\n      swap1\n      return\n        /* \"contracts/AnotherToken.sol\":313:375  mapping(address => mapping(address => uint256)) public allowed */\n    tag_9:\n      tag_42\n      0x04\n      dup1\n      calldatasize\n      sub\n      dup2\n      add\n      swap1\n      tag_43\n      swap2\n      swap1\n      tag_44\n      jump\t// in\n    tag_43:\n      tag_45\n      jump\t// in\n    tag_42:\n      mload(0x40)\n      tag_46\n      swap2\n      swap1\n      tag_27\n      jump\t// in\n    tag_46:\n      mload(0x40)\n      dup1\n      swap2\n      sub\n      swap1\n      return\n        /* \"contracts/AnotherToken.sol\":546:666  function balanceOf(address account) external view override returns (uint256) {... */\n    tag_10:\n      tag_47\n      0x04\n      dup1\n      calldatasize\n      sub\n      dup2\n      add\n      swap1\n      tag_48\n      swap2\n      swap1\n      tag_35\n      jump\t// in\n    tag_48:\n      tag_49\n      jump\t// in\n    tag_47:\n      mload(0x40)\n      tag_50\n      swap2\n      swap1\n      tag_27\n      jump\t// in\n    tag_50:\n      mload(0x40)\n      dup1\n      swap2\n      sub\n      swap1\n      return\n        /* \"contracts/AnotherToken.sol\":161:190  string public symbol = \"MILY\" */\n    tag_11:\n      tag_51\n      tag_52\n      jump\t// in\n    tag_51:\n      mload(0x40)\n      tag_53\n      swap2\n      swap1\n      tag_17\n      jump\t// in\n    tag_53:\n      mload(0x40)\n      dup1\n      swap2\n      sub\n      swap1\n      return\n        /* \"contracts/AnotherToken.sol\":674:945  function transfer(address recipient, uint256 amount) external override returns (bool) {... */\n    tag_12:\n      tag_54\n      0x04\n      dup1\n      calldatasize\n      sub\n      dup2\n      add\n      swap1\n      tag_55\n      swap2\n      swap1\n      tag_20\n      jump\t// in\n    tag_55:\n      tag_56\n      jump\t// in\n    tag_54:\n      mload(0x40)\n      tag_57\n      swap2\n      swap1\n      tag_23\n      jump\t// in\n    tag_57:\n      mload(0x40)\n      dup1\n      swap2\n      sub\n      swap1\n      return\n        /* \"contracts/AnotherToken.sol\":125:154  string public name = \"MilhaY\" */\n    tag_15:\n      0x00\n      dup1\n      sload\n      tag_58\n      swap1\n      tag_59\n      jump\t// in\n    tag_58:\n      dup1\n      0x1f\n      add\n      0x20\n      dup1\n      swap2\n      div\n      mul\n      0x20\n      add\n      mload(0x40)\n      swap1\n      dup2\n      add\n      0x40\n      mstore\n      dup1\n      swap3\n      swap2\n      swap1\n      dup2\n      dup2\n      mstore\n      0x20\n      add\n      dup3\n      dup1\n      sload\n      tag_60\n      swap1\n      tag_59\n      jump\t// in\n    tag_60:\n      dup1\n      iszero\n      tag_61\n      jumpi\n      dup1\n      0x1f\n      lt\n      tag_62\n      jumpi\n      0x0100\n      dup1\n      dup4\n      sload\n      div\n      mul\n      dup4\n      mstore\n      swap2\n      0x20\n      add\n      swap2\n      jump(tag_61)\n    tag_62:\n      dup3\n      add\n      swap2\n      swap1\n      0x00\n      mstore\n      keccak256(0x00, 0x20)\n      swap1\n    tag_63:\n      dup2\n      sload\n      dup2\n      mstore\n      swap1\n      0x01\n      add\n      swap1\n      0x20\n      add\n      dup1\n      dup4\n      gt\n      tag_63\n      jumpi\n      dup3\n      swap1\n      sub\n      0x1f\n      and\n      dup3\n      add\n      swap2\n    tag_61:\n      pop\n      pop\n      pop\n      pop\n      pop\n      dup2\n      jump\t// out\n        /* \"contracts/AnotherToken.sol\":953:1114  function approve(address spender, uint256 amount) external override returns (bool) {... */\n    tag_21:\n        /* \"contracts/AnotherToken.sol\":1030:1034  bool */\n      0x00\n        /* \"contracts/AnotherToken.sol\":1078:1084  amount */\n      dup2\n        /* \"contracts/AnotherToken.sol\":1047:1054  allowed */\n      0x05\n        /* \"contracts/AnotherToken.sol\":1047:1066  allowed[msg.sender] */\n      0x00\n        /* \"contracts/AnotherToken.sol\":1055:1065  msg.sender */\n      caller\n        /* \"contracts/AnotherToken.sol\":1047:1066  allowed[msg.sender] */\n      0xffffffffffffffffffffffffffffffffffffffff\n      and\n      0xffffffffffffffffffffffffffffffffffffffff\n      and\n      dup2\n      mstore\n      0x20\n      add\n      swap1\n      dup2\n      mstore\n      0x20\n      add\n      0x00\n      keccak256\n        /* \"contracts/AnotherToken.sol\":1047:1075  allowed[msg.sender][spender] */\n      0x00\n        /* \"contracts/AnotherToken.sol\":1067:1074  spender */\n      dup6\n        /* \"contracts/AnotherToken.sol\":1047:1075  allowed[msg.sender][spender] */\n      0xffffffffffffffffffffffffffffffffffffffff\n      and\n      0xffffffffffffffffffffffffffffffffffffffff\n      and\n      dup2\n      mstore\n      0x20\n      add\n      swap1\n      dup2\n      mstore\n      0x20\n      add\n      0x00\n      keccak256\n        /* \"contracts/AnotherToken.sol\":1047:1084  allowed[msg.sender][spender] = amount */\n      dup2\n      swap1\n      sstore\n      pop\n        /* \"contracts/AnotherToken.sol\":1102:1106  true */\n      0x01\n        /* \"contracts/AnotherToken.sol\":1095:1106  return true */\n      swap1\n      pop\n        /* \"contracts/AnotherToken.sol\":953:1114  function approve(address spender, uint256 amount) external override returns (bool) {... */\n      swap3\n      swap2\n      pop\n      pop\n      jump\t// out\n        /* \"contracts/AnotherToken.sol\":230:256  uint256 public totalSupply */\n    tag_25:\n      sload(0x03)\n      dup2\n      jump\t// out\n        /* \"contracts/AnotherToken.sol\":1122:1532  function transferFrom(address sender, address recipient, uint256 amount) external override returns (bool) {... */\n    tag_31:\n        /* \"contracts/AnotherToken.sol\":1222:1226  bool */\n      0x00\n        /* \"contracts/AnotherToken.sol\":1267:1273  amount */\n      dup2\n        /* \"contracts/AnotherToken.sol\":1247:1255  balances */\n      0x04\n        /* \"contracts/AnotherToken.sol\":1247:1263  balances[sender] */\n      0x00\n        /* \"contracts/AnotherToken.sol\":1256:1262  sender */\n      dup7\n        /* \"contracts/AnotherToken.sol\":1247:1263  balances[sender] */\n      0xffffffffffffffffffffffffffffffffffffffff\n      and\n      0xffffffffffffffffffffffffffffffffffffffff\n      and\n      dup2\n      mstore\n      0x20\n      add\n      swap1\n      dup2\n      mstore\n      0x20\n      add\n      0x00\n      keccak256\n      sload\n        /* \"contracts/AnotherToken.sol\":1247:1273  balances[sender] >= amount */\n      lt\n      iszero\n        /* \"contracts/AnotherToken.sol\":1239:1298  require(balances[sender] >= amount, \"Insufficient balance\") */\n      tag_66\n      jumpi\n      mload(0x40)\n      0x08c379a000000000000000000000000000000000000000000000000000000000\n      dup2\n      mstore\n      0x04\n      add\n      tag_67\n      swap1\n      tag_68\n      jump\t// in\n    tag_67:\n      mload(0x40)\n      dup1\n      swap2\n      sub\n      swap1\n      revert\n    tag_66:\n        /* \"contracts/AnotherToken.sol\":1348:1354  amount */\n      dup2\n        /* \"contracts/AnotherToken.sol\":1317:1324  allowed */\n      0x05\n        /* \"contracts/AnotherToken.sol\":1317:1332  allowed[sender] */\n      0x00\n        /* \"contracts/AnotherToken.sol\":1325:1331  sender */\n      dup7\n        /* \"contracts/AnotherToken.sol\":1317:1332  allowed[sender] */\n      0xffffffffffffffffffffffffffffffffffffffff\n      and\n      0xffffffffffffffffffffffffffffffffffffffff\n      and\n      dup2\n      mstore\n      0x20\n      add\n      swap1\n      dup2\n      mstore\n      0x20\n      add\n      0x00\n      keccak256\n        /* \"contracts/AnotherToken.sol\":1317:1344  allowed[sender][msg.sender] */\n      0x00\n        /* \"contracts/AnotherToken.sol\":1333:1343  msg.sender */\n      caller\n        /* \"contracts/AnotherToken.sol\":1317:1344  allowed[sender][msg.sender] */\n      0xffffffffffffffffffffffffffffffffffffffff\n      and\n      0xffffffffffffffffffffffffffffffffffffffff\n      and\n      dup2\n      mstore\n      0x20\n      add\n      swap1\n      dup2\n      mstore\n      0x20\n      add\n      0x00\n      keccak256\n      sload\n        /* \"contracts/AnotherToken.sol\":1317:1354  allowed[sender][msg.sender] >= amount */\n      lt\n      iszero\n        /* \"contracts/AnotherToken.sol\":1309:1377  require(allowed[sender][msg.sender] >= amount, \"Allowance exceeded\") */\n      tag_69\n      jumpi\n      mload(0x40)\n      0x08c379a000000000000000000000000000000000000000000000000000000000\n      dup2\n      mstore\n      0x04\n      add\n      tag_70\n      swap1\n      tag_71\n      jump\t// in\n    tag_70:\n      mload(0x40)\n      dup1\n      swap2\n      sub\n      swap1\n      revert\n    tag_69:\n        /* \"contracts/AnotherToken.sol\":1408:1414  amount */\n      dup2\n        /* \"contracts/AnotherToken.sol\":1388:1396  balances */\n      0x04\n        /* \"contracts/AnotherToken.sol\":1388:1404  balances[sender] */\n      0x00\n        /* \"contracts/AnotherToken.sol\":1397:1403  sender */\n      dup7\n        /* \"contracts/AnotherToken.sol\":1388:1404  balances[sender] */\n      0xffffffffffffffffffffffffffffffffffffffff\n      and\n      0xffffffffffffffffffffffffffffffffffffffff\n      and\n      dup2\n      mstore\n      0x20\n      add\n      swap1\n      dup2\n      mstore\n      0x20\n      add\n      0x00\n      keccak256\n      0x00\n        /* \"contracts/AnotherToken.sol\":1388:1414  balances[sender] -= amount */\n      dup3\n      dup3\n      sload\n      tag_72\n      swap2\n      swap1\n      tag_73\n      jump\t// in\n    tag_72:\n      swap3\n      pop\n      pop\n      dup2\n      swap1\n      sstore\n      pop\n        /* \"contracts/AnotherToken.sol\":1448:1454  amount */\n      dup2\n        /* \"contracts/AnotherToken.sol\":1425:1433  balances */\n      0x04\n        /* \"contracts/AnotherToken.sol\":1425:1444  balances[recipient] */\n      0x00\n        /* \"contracts/AnotherToken.sol\":1434:1443  recipient */\n      dup6\n        /* \"contracts/AnotherToken.sol\":1425:1444  balances[recipient] */\n      0xffffffffffffffffffffffffffffffffffffffff\n      and\n      0xffffffffffffffffffffffffffffffffffffffff\n      and\n      dup2\n      mstore\n      0x20\n      add\n      swap1\n      dup2\n      mstore\n      0x20\n      add\n      0x00\n      keccak256\n      0x00\n        /* \"contracts/AnotherToken.sol\":1425:1454  balances[recipient] += amount */\n      dup3\n      dup3\n      sload\n      tag_74\n      swap2\n      swap1\n      tag_75\n      jump\t// in\n    tag_74:\n      swap3\n      pop\n      pop\n      dup2\n      swap1\n      sstore\n      pop\n        /* \"contracts/AnotherToken.sol\":1496:1502  amount */\n      dup2\n        /* \"contracts/AnotherToken.sol\":1465:1472  allowed */\n      0x05\n        /* \"contracts/AnotherToken.sol\":1465:1480  allowed[sender] */\n      0x00\n        /* \"contracts/AnotherToken.sol\":1473:1479  sender */\n      dup7\n        /* \"contracts/AnotherToken.sol\":1465:1480  allowed[sender] */\n      0xffffffffffffffffffffffffffffffffffffffff\n      and\n      0xffffffffffffffffffffffffffffffffffffffff\n      and\n      dup2\n      mstore\n      0x20\n      add\n      swap1\n      dup2\n      mstore\n      0x20\n      add\n      0x00\n      keccak256\n        /* \"contracts/AnotherToken.sol\":1465:1492  allowed[sender][msg.sender] */\n      0x00\n        /* \"contracts/AnotherToken.sol\":1481:1491  msg.sender */\n      caller\n        /* \"contracts/AnotherToken.sol\":1465:1492  allowed[sender][msg.sender] */\n      0xffffffffffffffffffffffffffffffffffffffff\n      and\n      0xffffffffffffffffffffffffffffffffffffffff\n      and\n      dup2\n      mstore\n      0x20\n      add\n      swap1\n      dup2\n      mstore\n      0x20\n      add\n      0x00\n      keccak256\n      0x00\n        /* \"contracts/AnotherToken.sol\":1465:1502  allowed[sender][msg.sender] -= amount */\n      dup3\n      dup3\n      sload\n      tag_76\n      swap2\n      swap1\n      tag_73\n      jump\t// in\n    tag_76:\n      swap3\n      pop\n      pop\n      dup2\n      swap1\n      sstore\n      pop\n        /* \"contracts/AnotherToken.sol\":1520:1524  true */\n      0x01\n        /* \"contracts/AnotherToken.sol\":1513:1524  return true */\n      swap1\n      pop\n        /* \"contracts/AnotherToken.sol\":1122:1532  function transferFrom(address sender, address recipient, uint256 amount) external override returns (bool) {... */\n      swap4\n      swap3\n      pop\n      pop\n      pop\n      jump\t// out\n        /* \"contracts/AnotherToken.sol\":263:306  mapping(address => uint256) public balances */\n    tag_36:\n      mstore(0x20, 0x04)\n      dup1\n      0x00\n      mstore\n      keccak256(0x00, 0x40)\n      0x00\n      swap2\n      pop\n      swap1\n      pop\n      sload\n      dup2\n      jump\t// out\n        /* \"contracts/AnotherToken.sol\":197:223  uint8 public decimals = 18 */\n    tag_39:\n      0x02\n      0x00\n      swap1\n      sload\n      swap1\n      0x0100\n      exp\n      swap1\n      div\n      0xff\n      and\n      dup2\n      jump\t// out\n        /* \"contracts/AnotherToken.sol\":313:375  mapping(address => mapping(address => uint256)) public allowed */\n    tag_45:\n      mstore(0x20, 0x05)\n      dup2\n      0x00\n      mstore\n      mstore(0x20, keccak256(0x00, 0x40))\n      dup1\n      0x00\n      mstore\n      keccak256(0x00, 0x40)\n      0x00\n      swap2\n      pop\n      swap2\n      pop\n      pop\n      sload\n      dup2\n      jump\t// out\n        /* \"contracts/AnotherToken.sol\":546:666  function balanceOf(address account) external view override returns (uint256) {... */\n    tag_49:\n        /* \"contracts/AnotherToken.sol\":614:621  uint256 */\n      0x00\n        /* \"contracts/AnotherToken.sol\":641:649  balances */\n      0x04\n        /* \"contracts/AnotherToken.sol\":641:658  balances[account] */\n      0x00\n        /* \"contracts/AnotherToken.sol\":650:657  account */\n      dup4\n        /* \"contracts/AnotherToken.sol\":641:658  balances[account] */\n      0xffffffffffffffffffffffffffffffffffffffff\n      and\n      0xffffffffffffffffffffffffffffffffffffffff\n      and\n      dup2\n      mstore\n      0x20\n      add\n      swap1\n      dup2\n      mstore\n      0x20\n      add\n      0x00\n      keccak256\n      sload\n        /* \"contracts/AnotherToken.sol\":634:658  return balances[account] */\n      swap1\n      pop\n        /* \"contracts/AnotherToken.sol\":546:666  function balanceOf(address account) external view override returns (uint256) {... */\n      swap2\n      swap1\n      pop\n      jump\t// out\n        /* \"contracts/AnotherToken.sol\":161:190  string public symbol = \"MILY\" */\n    tag_52:\n      0x01\n      dup1\n      sload\n      tag_78\n      swap1\n      tag_59\n      jump\t// in\n    tag_78:\n      dup1\n      0x1f\n      add\n      0x20\n      dup1\n      swap2\n      div\n      mul\n      0x20\n      add\n      mload(0x40)\n      swap1\n      dup2\n      add\n      0x40\n      mstore\n      dup1\n      swap3\n      swap2\n      swap1\n      dup2\n      dup2\n      mstore\n      0x20\n      add\n      dup3\n      dup1\n      sload\n      tag_79\n      swap1\n      tag_59\n      jump\t// in\n    tag_79:\n      dup1\n      iszero\n      tag_80\n      jumpi\n      dup1\n      0x1f\n      lt\n      tag_81\n      jumpi\n      0x0100\n      dup1\n      dup4\n      sload\n      div\n      mul\n      dup4\n      mstore\n      swap2\n      0x20\n      add\n      swap2\n      jump(tag_80)\n    tag_81:\n      dup3\n      add\n      swap2\n      swap1\n      0x00\n      mstore\n      keccak256(0x00, 0x20)\n      swap1\n    tag_82:\n      dup2\n      sload\n      dup2\n      mstore\n      swap1\n      0x01\n      add\n      swap1\n      0x20\n      add\n      dup1\n      dup4\n      gt\n      tag_82\n      jumpi\n      dup3\n      swap1\n      sub\n      0x1f\n      and\n      dup3\n      add\n      swap2\n    tag_80:\n      pop\n      pop\n      pop\n      pop\n      pop\n      dup2\n      jump\t// out\n        /* \"contracts/AnotherToken.sol\":674:945  function transfer(address recipient, uint256 amount) external override returns (bool) {... */\n    tag_56:\n        /* \"contracts/AnotherToken.sol\":754:758  bool */\n      0x00\n        /* \"contracts/AnotherToken.sol\":803:809  amount */\n      dup2\n        /* \"contracts/AnotherToken.sol\":779:787  balances */\n      0x04\n        /* \"contracts/AnotherToken.sol\":779:799  balances[msg.sender] */\n      0x00\n        /* \"contracts/AnotherToken.sol\":788:798  msg.sender */\n      caller\n        /* \"contracts/AnotherToken.sol\":779:799  balances[msg.sender] */\n      0xffffffffffffffffffffffffffffffffffffffff\n      and\n      0xffffffffffffffffffffffffffffffffffffffff\n      and\n      dup2\n      mstore\n      0x20\n      add\n      swap1\n      dup2\n      mstore\n      0x20\n      add\n      0x00\n      keccak256\n      sload\n        /* \"contracts/AnotherToken.sol\":779:809  balances[msg.sender] >= amount */\n      lt\n      iszero\n        /* \"contracts/AnotherToken.sol\":771:834  require(balances[msg.sender] >= amount, \"Insufficient balance\") */\n      tag_84\n      jumpi\n      mload(0x40)\n      0x08c379a000000000000000000000000000000000000000000000000000000000\n      dup2\n      mstore\n      0x04\n      add\n      tag_85\n      swap1\n      tag_68\n      jump\t// in\n    tag_85:\n      mload(0x40)\n      dup1\n      swap2\n      sub\n      swap1\n      revert\n    tag_84:\n        /* \"contracts/AnotherToken.sol\":869:875  amount */\n      dup2\n        /* \"contracts/AnotherToken.sol\":845:853  balances */\n      0x04\n        /* \"contracts/AnotherToken.sol\":845:865  balances[msg.sender] */\n      0x00\n        /* \"contracts/AnotherToken.sol\":854:864  msg.sender */\n      caller\n        /* \"contracts/AnotherToken.sol\":845:865  balances[msg.sender] */\n      0xffffffffffffffffffffffffffffffffffffffff\n      and\n      0xffffffffffffffffffffffffffffffffffffffff\n      and\n      dup2\n      mstore\n      0x20\n      add\n      swap1\n      dup2\n      mstore\n      0x20\n      add\n      0x00\n      keccak256\n      0x00\n        /* \"contracts/AnotherToken.sol\":845:875  balances[msg.sender] -= amount */\n      dup3\n      dup3\n      sload\n      tag_86\n      swap2\n      swap1\n      tag_73\n      jump\t// in\n    tag_86:\n      swap3\n      pop\n      pop\n      dup2\n      swap1\n      sstore\n      pop\n        /* \"contracts/AnotherToken.sol\":909:915  amount */\n      dup2\n        /* \"contracts/AnotherToken.sol\":886:894  balances */\n      0x04\n        /* \"contracts/AnotherToken.sol\":886:905  balances[recipient] */\n      0x00\n        /* \"contracts/AnotherToken.sol\":895:904  recipient */\n      dup6\n        /* \"contracts/AnotherToken.sol\":886:905  balances[recipient] */\n      0xffffffffffffffffffffffffffffffffffffffff\n      and\n      0xffffffffffffffffffffffffffffffffffffffff\n      and\n      dup2\n      mstore\n      0x20\n      add\n      swap1\n      dup2\n      mstore\n      0x20\n      add\n      0x00\n      keccak256\n      0x00\n        /* \"contracts/AnotherToken.sol\":886:915  balances[recipient] += amount */\n      dup3\n      dup3\n      sload\n      tag_87\n      swap2\n      swap1\n      tag_75\n      jump\t// in\n    tag_87:\n      swap3\n      pop\n      pop\n      dup2\n      swap1\n      sstore\n      pop\n        /* \"contracts/AnotherToken.sol\":933:937  true */\n      0x01\n        /* \"contracts/AnotherToken.sol\":926:937  return true */\n      swap1\n      pop\n        /* \"contracts/AnotherToken.sol\":674:945  function transfer(address recipient, uint256 amount) external override returns (bool) {... */\n      swap3\n      swap2\n      pop\n      pop\n      jump\t// out\n        /* \"#utility.yul\":7:106   */\n    tag_88:\n        /* \"#utility.yul\":59:65   */\n      0x00\n        /* \"#utility.yul\":93:98   */\n      dup2\n        /* \"#utility.yul\":87:99   */\n      mload\n        /* \"#utility.yul\":77:99   */\n      swap1\n      pop\n        /* \"#utility.yul\":7:106   */\n      swap2\n      swap1\n      pop\n      jump\t// out\n        /* \"#utility.yul\":112:281   */\n    tag_89:\n        /* \"#utility.yul\":196:207   */\n      0x00\n        /* \"#utility.yul\":230:236   */\n      dup3\n        /* \"#utility.yul\":225:228   */\n      dup3\n        /* \"#utility.yul\":218:237   */\n      mstore\n        /* \"#utility.yul\":270:274   */\n      0x20\n        /* \"#utility.yul\":265:268   */\n      dup3\n        /* \"#utility.yul\":261:275   */\n      add\n        /* \"#utility.yul\":246:275   */\n      swap1\n      pop\n        /* \"#utility.yul\":112:281   */\n      swap3\n      swap2\n      pop\n      pop\n      jump\t// out\n        /* \"#utility.yul\":287:426   */\n    tag_90:\n        /* \"#utility.yul\":376:382   */\n      dup3\n        /* \"#utility.yul\":371:374   */\n      dup2\n        /* \"#utility.yul\":366:369   */\n      dup4\n        /* \"#utility.yul\":360:383   */\n      mcopy\n        /* \"#utility.yul\":417:418   */\n      0x00\n        /* \"#utility.yul\":408:414   */\n      dup4\n        /* \"#utility.yul\":403:406   */\n      dup4\n        /* \"#utility.yul\":399:415   */\n      add\n        /* \"#utility.yul\":392:419   */\n      mstore\n        /* \"#utility.yul\":287:426   */\n      pop\n      pop\n      pop\n      jump\t// out\n        /* \"#utility.yul\":432:534   */\n    tag_91:\n        /* \"#utility.yul\":473:479   */\n      0x00\n        /* \"#utility.yul\":524:526   */\n      0x1f\n        /* \"#utility.yul\":520:527   */\n      not\n        /* \"#utility.yul\":515:517   */\n      0x1f\n        /* \"#utility.yul\":508:513   */\n      dup4\n        /* \"#utility.yul\":504:518   */\n      add\n        /* \"#utility.yul\":500:528   */\n      and\n        /* \"#utility.yul\":490:528   */\n      swap1\n      pop\n        /* \"#utility.yul\":432:534   */\n      swap2\n      swap1\n      pop\n      jump\t// out\n        /* \"#utility.yul\":540:917   */\n    tag_92:\n        /* \"#utility.yul\":628:631   */\n      0x00\n        /* \"#utility.yul\":656:695   */\n      tag_120\n        /* \"#utility.yul\":689:694   */\n      dup3\n        /* \"#utility.yul\":656:695   */\n      tag_88\n      jump\t// in\n    tag_120:\n        /* \"#utility.yul\":711:782   */\n      tag_121\n        /* \"#utility.yul\":775:781   */\n      dup2\n        /* \"#utility.yul\":770:773   */\n      dup6\n        /* \"#utility.yul\":711:782   */\n      tag_89\n      jump\t// in\n    tag_121:\n        /* \"#utility.yul\":704:782   */\n      swap4\n      pop\n        /* \"#utility.yul\":791:856   */\n      tag_122\n        /* \"#utility.yul\":849:855   */\n      dup2\n        /* \"#utility.yul\":844:847   */\n      dup6\n        /* \"#utility.yul\":837:841   */\n      0x20\n        /* \"#utility.yul\":830:835   */\n      dup7\n        /* \"#utility.yul\":826:842   */\n      add\n        /* \"#utility.yul\":791:856   */\n      tag_90\n      jump\t// in\n    tag_122:\n        /* \"#utility.yul\":881:910   */\n      tag_123\n        /* \"#utility.yul\":903:909   */\n      dup2\n        /* \"#utility.yul\":881:910   */\n      tag_91\n      jump\t// in\n    tag_123:\n        /* \"#utility.yul\":876:879   */\n      dup5\n        /* \"#utility.yul\":872:911   */\n      add\n        /* \"#utility.yul\":865:911   */\n      swap2\n      pop\n        /* \"#utility.yul\":632:917   */\n      pop\n        /* \"#utility.yul\":540:917   */\n      swap3\n      swap2\n      pop\n      pop\n      jump\t// out\n        /* \"#utility.yul\":923:1236   */\n    tag_17:\n        /* \"#utility.yul\":1036:1040   */\n      0x00\n        /* \"#utility.yul\":1074:1076   */\n      0x20\n        /* \"#utility.yul\":1063:1072   */\n      dup3\n        /* \"#utility.yul\":1059:1077   */\n      add\n        /* \"#utility.yul\":1051:1077   */\n      swap1\n      pop\n        /* \"#utility.yul\":1123:1132   */\n      dup2\n        /* \"#utility.yul\":1117:1121   */\n      dup2\n        /* \"#utility.yul\":1113:1133   */\n      sub\n        /* \"#utility.yul\":1109:1110   */\n      0x00\n        /* \"#utility.yul\":1098:1107   */\n      dup4\n        /* \"#utility.yul\":1094:1111   */\n      add\n        /* \"#utility.yul\":1087:1134   */\n      mstore\n        /* \"#utility.yul\":1151:1229   */\n      tag_125\n        /* \"#utility.yul\":1224:1228   */\n      dup2\n        /* \"#utility.yul\":1215:1221   */\n      dup5\n        /* \"#utility.yul\":1151:1229   */\n      tag_92\n      jump\t// in\n    tag_125:\n        /* \"#utility.yul\":1143:1229   */\n      swap1\n      pop\n        /* \"#utility.yul\":923:1236   */\n      swap3\n      swap2\n      pop\n      pop\n      jump\t// out\n        /* \"#utility.yul\":1323:1440   */\n    tag_94:\n        /* \"#utility.yul\":1432:1433   */\n      0x00\n        /* \"#utility.yul\":1429:1430   */\n      dup1\n        /* \"#utility.yul\":1422:1434   */\n      revert\n        /* \"#utility.yul\":1569:1695   */\n    tag_96:\n        /* \"#utility.yul\":1606:1613   */\n      0x00\n        /* \"#utility.yul\":1646:1688   */\n      0xffffffffffffffffffffffffffffffffffffffff\n        /* \"#utility.yul\":1639:1644   */\n      dup3\n        /* \"#utility.yul\":1635:1689   */\n      and\n        /* \"#utility.yul\":1624:1689   */\n      swap1\n      pop\n        /* \"#utility.yul\":1569:1695   */\n      swap2\n      swap1\n      pop\n      jump\t// out\n        /* \"#utility.yul\":1701:1797   */\n    tag_97:\n        /* \"#utility.yul\":1738:1745   */\n      0x00\n        /* \"#utility.yul\":1767:1791   */\n      tag_131\n        /* \"#utility.yul\":1785:1790   */\n      dup3\n        /* \"#utility.yul\":1767:1791   */\n      tag_96\n      jump\t// in\n    tag_131:\n        /* \"#utility.yul\":1756:1791   */\n      swap1\n      pop\n        /* \"#utility.yul\":1701:1797   */\n      swap2\n      swap1\n      pop\n      jump\t// out\n        /* \"#utility.yul\":1803:1925   */\n    tag_98:\n        /* \"#utility.yul\":1876:1900   */\n      tag_133\n        /* \"#utility.yul\":1894:1899   */\n      dup2\n        /* \"#utility.yul\":1876:1900   */\n      tag_97\n      jump\t// in\n    tag_133:\n        /* \"#utility.yul\":1869:1874   */\n      dup2\n        /* \"#utility.yul\":1866:1901   */\n      eq\n        /* \"#utility.yul\":1856:1919   */\n      tag_134\n      jumpi\n        /* \"#utility.yul\":1915:1916   */\n      0x00\n        /* \"#utility.yul\":1912:1913   */\n      dup1\n        /* \"#utility.yul\":1905:1917   */\n      revert\n        /* \"#utility.yul\":1856:1919   */\n    tag_134:\n        /* \"#utility.yul\":1803:1925   */\n      pop\n      jump\t// out\n        /* \"#utility.yul\":1931:2070   */\n    tag_99:\n        /* \"#utility.yul\":1977:1982   */\n      0x00\n        /* \"#utility.yul\":2015:2021   */\n      dup2\n        /* \"#utility.yul\":2002:2022   */\n      calldataload\n        /* \"#utility.yul\":1993:2022   */\n      swap1\n      pop\n        /* \"#utility.yul\":2031:2064   */\n      tag_136\n        /* \"#utility.yul\":2058:2063   */\n      dup2\n        /* \"#utility.yul\":2031:2064   */\n      tag_98\n      jump\t// in\n    tag_136:\n        /* \"#utility.yul\":1931:2070   */\n      swap3\n      swap2\n      pop\n      pop\n      jump\t// out\n        /* \"#utility.yul\":2076:2153   */\n    tag_100:\n        /* \"#utility.yul\":2113:2120   */\n      0x00\n        /* \"#utility.yul\":2142:2147   */\n      dup2\n        /* \"#utility.yul\":2131:2147   */\n      swap1\n      pop\n        /* \"#utility.yul\":2076:2153   */\n      swap2\n      swap1\n      pop\n      jump\t// out\n        /* \"#utility.yul\":2159:2281   */\n    tag_101:\n        /* \"#utility.yul\":2232:2256   */\n      tag_139\n        /* \"#utility.yul\":2250:2255   */\n      dup2\n        /* \"#utility.yul\":2232:2256   */\n      tag_100\n      jump\t// in\n    tag_139:\n        /* \"#utility.yul\":2225:2230   */\n      dup2\n        /* \"#utility.yul\":2222:2257   */\n      eq\n        /* \"#utility.yul\":2212:2275   */\n      tag_140\n      jumpi\n        /* \"#utility.yul\":2271:2272   */\n      0x00\n        /* \"#utility.yul\":2268:2269   */\n      dup1\n        /* \"#utility.yul\":2261:2273   */\n      revert\n        /* \"#utility.yul\":2212:2275   */\n    tag_140:\n        /* \"#utility.yul\":2159:2281   */\n      pop\n      jump\t// out\n        /* \"#utility.yul\":2287:2426   */\n    tag_102:\n        /* \"#utility.yul\":2333:2338   */\n      0x00\n        /* \"#utility.yul\":2371:2377   */\n      dup2\n        /* \"#utility.yul\":2358:2378   */\n      calldataload\n        /* \"#utility.yul\":2349:2378   */\n      swap1\n      pop\n        /* \"#utility.yul\":2387:2420   */\n      tag_142\n        /* \"#utility.yul\":2414:2419   */\n      dup2\n        /* \"#utility.yul\":2387:2420   */\n      tag_101\n      jump\t// in\n    tag_142:\n        /* \"#utility.yul\":2287:2426   */\n      swap3\n      swap2\n      pop\n      pop\n      jump\t// out\n        /* \"#utility.yul\":2432:2906   */\n    tag_20:\n        /* \"#utility.yul\":2500:2506   */\n      0x00\n        /* \"#utility.yul\":2508:2514   */\n      dup1\n        /* \"#utility.yul\":2557:2559   */\n      0x40\n        /* \"#utility.yul\":2545:2554   */\n      dup4\n        /* \"#utility.yul\":2536:2543   */\n      dup6\n        /* \"#utility.yul\":2532:2555   */\n      sub\n        /* \"#utility.yul\":2528:2560   */\n      slt\n        /* \"#utility.yul\":2525:2644   */\n      iszero\n      tag_144\n      jumpi\n        /* \"#utility.yul\":2563:2642   */\n      tag_145\n      tag_94\n      jump\t// in\n    tag_145:\n        /* \"#utility.yul\":2525:2644   */\n    tag_144:\n        /* \"#utility.yul\":2683:2684   */\n      0x00\n        /* \"#utility.yul\":2708:2761   */\n      tag_146\n        /* \"#utility.yul\":2753:2760   */\n      dup6\n        /* \"#utility.yul\":2744:2750   */\n      dup3\n        /* \"#utility.yul\":2733:2742   */\n      dup7\n        /* \"#utility.yul\":2729:2751   */\n      add\n        /* \"#utility.yul\":2708:2761   */\n      tag_99\n      jump\t// in\n    tag_146:\n        /* \"#utility.yul\":2698:2761   */\n      swap3\n      pop\n        /* \"#utility.yul\":2654:2771   */\n      pop\n        /* \"#utility.yul\":2810:2812   */\n      0x20\n        /* \"#utility.yul\":2836:2889   */\n      tag_147\n        /* \"#utility.yul\":2881:2888   */\n      dup6\n        /* \"#utility.yul\":2872:2878   */\n      dup3\n        /* \"#utility.yul\":2861:2870   */\n      dup7\n        /* \"#utility.yul\":2857:2879   */\n      add\n        /* \"#utility.yul\":2836:2889   */\n      tag_102\n      jump\t// in\n    tag_147:\n        /* \"#utility.yul\":2826:2889   */\n      swap2\n      pop\n        /* \"#utility.yul\":2781:2899   */\n      pop\n        /* \"#utility.yul\":2432:2906   */\n      swap3\n      pop\n      swap3\n      swap1\n      pop\n      jump\t// out\n        /* \"#utility.yul\":2912:3002   */\n    tag_103:\n        /* \"#utility.yul\":2946:2953   */\n      0x00\n        /* \"#utility.yul\":2989:2994   */\n      dup2\n        /* \"#utility.yul\":2982:2995   */\n      iszero\n        /* \"#utility.yul\":2975:2996   */\n      iszero\n        /* \"#utility.yul\":2964:2996   */\n      swap1\n      pop\n        /* \"#utility.yul\":2912:3002   */\n      swap2\n      swap1\n      pop\n      jump\t// out\n        /* \"#utility.yul\":3008:3117   */\n    tag_104:\n        /* \"#utility.yul\":3089:3110   */\n      tag_150\n        /* \"#utility.yul\":3104:3109   */\n      dup2\n        /* \"#utility.yul\":3089:3110   */\n      tag_103\n      jump\t// in\n    tag_150:\n        /* \"#utility.yul\":3084:3087   */\n      dup3\n        /* \"#utility.yul\":3077:3111   */\n      mstore\n        /* \"#utility.yul\":3008:3117   */\n      pop\n      pop\n      jump\t// out\n        /* \"#utility.yul\":3123:3333   */\n    tag_23:\n        /* \"#utility.yul\":3210:3214   */\n      0x00\n        /* \"#utility.yul\":3248:3250   */\n      0x20\n        /* \"#utility.yul\":3237:3246   */\n      dup3\n        /* \"#utility.yul\":3233:3251   */\n      add\n        /* \"#utility.yul\":3225:3251   */\n      swap1\n      pop\n        /* \"#utility.yul\":3261:3326   */\n      tag_152\n        /* \"#utility.yul\":3323:3324   */\n      0x00\n        /* \"#utility.yul\":3312:3321   */\n      dup4\n        /* \"#utility.yul\":3308:3325   */\n      add\n        /* \"#utility.yul\":3299:3305   */\n      dup5\n        /* \"#utility.yul\":3261:3326   */\n      tag_104\n      jump\t// in\n    tag_152:\n        /* \"#utility.yul\":3123:3333   */\n      swap3\n      swap2\n      pop\n      pop\n      jump\t// out\n        /* \"#utility.yul\":3339:3457   */\n    tag_105:\n        /* \"#utility.yul\":3426:3450   */\n      tag_154\n        /* \"#utility.yul\":3444:3449   */\n      dup2\n        /* \"#utility.yul\":3426:3450   */\n      tag_100\n      jump\t// in\n    tag_154:\n        /* \"#utility.yul\":3421:3424   */\n      dup3\n        /* \"#utility.yul\":3414:3451   */\n      mstore\n        /* \"#utility.yul\":3339:3457   */\n      pop\n      pop\n      jump\t// out\n        /* \"#utility.yul\":3463:3685   */\n    tag_27:\n        /* \"#utility.yul\":3556:3560   */\n      0x00\n        /* \"#utility.yul\":3594:3596   */\n      0x20\n        /* \"#utility.yul\":3583:3592   */\n      dup3\n        /* \"#utility.yul\":3579:3597   */\n      add\n        /* \"#utility.yul\":3571:3597   */\n      swap1\n      pop\n        /* \"#utility.yul\":3607:3678   */\n      tag_156\n        /* \"#utility.yul\":3675:3676   */\n      0x00\n        /* \"#utility.yul\":3664:3673   */\n      dup4\n        /* \"#utility.yul\":3660:3677   */\n      add\n        /* \"#utility.yul\":3651:3657   */\n      dup5\n        /* \"#utility.yul\":3607:3678   */\n      tag_105\n      jump\t// in\n    tag_156:\n        /* \"#utility.yul\":3463:3685   */\n      swap3\n      swap2\n      pop\n      pop\n      jump\t// out\n        /* \"#utility.yul\":3691:4310   */\n    tag_30:\n        /* \"#utility.yul\":3768:3774   */\n      0x00\n        /* \"#utility.yul\":3776:3782   */\n      dup1\n        /* \"#utility.yul\":3784:3790   */\n      0x00\n        /* \"#utility.yul\":3833:3835   */\n      0x60\n        /* \"#utility.yul\":3821:3830   */\n      dup5\n        /* \"#utility.yul\":3812:3819   */\n      dup7\n        /* \"#utility.yul\":3808:3831   */\n      sub\n        /* \"#utility.yul\":3804:3836   */\n      slt\n        /* \"#utility.yul\":3801:3920   */\n      iszero\n      tag_158\n      jumpi\n        /* \"#utility.yul\":3839:3918   */\n      tag_159\n      tag_94\n      jump\t// in\n    tag_159:\n        /* \"#utility.yul\":3801:3920   */\n    tag_158:\n        /* \"#utility.yul\":3959:3960   */\n      0x00\n        /* \"#utility.yul\":3984:4037   */\n      tag_160\n        /* \"#utility.yul\":4029:4036   */\n      dup7\n        /* \"#utility.yul\":4020:4026   */\n      dup3\n        /* \"#utility.yul\":4009:4018   */\n      dup8\n        /* \"#utility.yul\":4005:4027   */\n      add\n        /* \"#utility.yul\":3984:4037   */\n      tag_99\n      jump\t// in\n    tag_160:\n        /* \"#utility.yul\":3974:4037   */\n      swap4\n      pop\n        /* \"#utility.yul\":3930:4047   */\n      pop\n        /* \"#utility.yul\":4086:4088   */\n      0x20\n        /* \"#utility.yul\":4112:4165   */\n      tag_161\n        /* \"#utility.yul\":4157:4164   */\n      dup7\n        /* \"#utility.yul\":4148:4154   */\n      dup3\n        /* \"#utility.yul\":4137:4146   */\n      dup8\n        /* \"#utility.yul\":4133:4155   */\n      add\n        /* \"#utility.yul\":4112:4165   */\n      tag_99\n      jump\t// in\n    tag_161:\n        /* \"#utility.yul\":4102:4165   */\n      swap3\n      pop\n        /* \"#utility.yul\":4057:4175   */\n      pop\n        /* \"#utility.yul\":4214:4216   */\n      0x40\n        /* \"#utility.yul\":4240:4293   */\n      tag_162\n        /* \"#utility.yul\":4285:4292   */\n      dup7\n        /* \"#utility.yul\":4276:4282   */\n      dup3\n        /* \"#utility.yul\":4265:4274   */\n      dup8\n        /* \"#utility.yul\":4261:4283   */\n      add\n        /* \"#utility.yul\":4240:4293   */\n      tag_102\n      jump\t// in\n    tag_162:\n        /* \"#utility.yul\":4230:4293   */\n      swap2\n      pop\n        /* \"#utility.yul\":4185:4303   */\n      pop\n        /* \"#utility.yul\":3691:4310   */\n      swap3\n      pop\n      swap3\n      pop\n      swap3\n      jump\t// out\n        /* \"#utility.yul\":4316:4645   */\n    tag_35:\n        /* \"#utility.yul\":4375:4381   */\n      0x00\n        /* \"#utility.yul\":4424:4426   */\n      0x20\n        /* \"#utility.yul\":4412:4421   */\n      dup3\n        /* \"#utility.yul\":4403:4410   */\n      dup5\n        /* \"#utility.yul\":4399:4422   */\n      sub\n        /* \"#utility.yul\":4395:4427   */\n      slt\n        /* \"#utility.yul\":4392:4511   */\n      iszero\n      tag_164\n      jumpi\n        /* \"#utility.yul\":4430:4509   */\n      tag_165\n      tag_94\n      jump\t// in\n    tag_165:\n        /* \"#utility.yul\":4392:4511   */\n    tag_164:\n        /* \"#utility.yul\":4550:4551   */\n      0x00\n        /* \"#utility.yul\":4575:4628   */\n      tag_166\n        /* \"#utility.yul\":4620:4627   */\n      dup5\n        /* \"#utility.yul\":4611:4617   */\n      dup3\n        /* \"#utility.yul\":4600:4609   */\n      dup6\n        /* \"#utility.yul\":4596:4618   */\n      add\n        /* \"#utility.yul\":4575:4628   */\n      tag_99\n      jump\t// in\n    tag_166:\n        /* \"#utility.yul\":4565:4628   */\n      swap2\n      pop\n        /* \"#utility.yul\":4521:4638   */\n      pop\n        /* \"#utility.yul\":4316:4645   */\n      swap3\n      swap2\n      pop\n      pop\n      jump\t// out\n        /* \"#utility.yul\":4651:4737   */\n    tag_106:\n        /* \"#utility.yul\":4686:4693   */\n      0x00\n        /* \"#utility.yul\":4726:4730   */\n      0xff\n        /* \"#utility.yul\":4719:4724   */\n      dup3\n        /* \"#utility.yul\":4715:4731   */\n      and\n        /* \"#utility.yul\":4704:4731   */\n      swap1\n      pop\n        /* \"#utility.yul\":4651:4737   */\n      swap2\n      swap1\n      pop\n      jump\t// out\n        /* \"#utility.yul\":4743:4855   */\n    tag_107:\n        /* \"#utility.yul\":4826:4848   */\n      tag_169\n        /* \"#utility.yul\":4842:4847   */\n      dup2\n        /* \"#utility.yul\":4826:4848   */\n      tag_106\n      jump\t// in\n    tag_169:\n        /* \"#utility.yul\":4821:4824   */\n      dup3\n        /* \"#utility.yul\":4814:4849   */\n      mstore\n        /* \"#utility.yul\":4743:4855   */\n      pop\n      pop\n      jump\t// out\n        /* \"#utility.yul\":4861:5075   */\n    tag_41:\n        /* \"#utility.yul\":4950:4954   */\n      0x00\n        /* \"#utility.yul\":4988:4990   */\n      0x20\n        /* \"#utility.yul\":4977:4986   */\n      dup3\n        /* \"#utility.yul\":4973:4991   */\n      add\n        /* \"#utility.yul\":4965:4991   */\n      swap1\n      pop\n        /* \"#utility.yul\":5001:5068   */\n      tag_171\n        /* \"#utility.yul\":5065:5066   */\n      0x00\n        /* \"#utility.yul\":5054:5063   */\n      dup4\n        /* \"#utility.yul\":5050:5067   */\n      add\n        /* \"#utility.yul\":5041:5047   */\n      dup5\n        /* \"#utility.yul\":5001:5068   */\n      tag_107\n      jump\t// in\n    tag_171:\n        /* \"#utility.yul\":4861:5075   */\n      swap3\n      swap2\n      pop\n      pop\n      jump\t// out\n        /* \"#utility.yul\":5081:5555   */\n    tag_44:\n        /* \"#utility.yul\":5149:5155   */\n      0x00\n        /* \"#utility.yul\":5157:5163   */\n      dup1\n        /* \"#utility.yul\":5206:5208   */\n      0x40\n        /* \"#utility.yul\":5194:5203   */\n      dup4\n        /* \"#utility.yul\":5185:5192   */\n      dup6\n        /* \"#utility.yul\":5181:5204   */\n      sub\n        /* \"#utility.yul\":5177:5209   */\n      slt\n        /* \"#utility.yul\":5174:5293   */\n      iszero\n      tag_173\n      jumpi\n        /* \"#utility.yul\":5212:5291   */\n      tag_174\n      tag_94\n      jump\t// in\n    tag_174:\n        /* \"#utility.yul\":5174:5293   */\n    tag_173:\n        /* \"#utility.yul\":5332:5333   */\n      0x00\n        /* \"#utility.yul\":5357:5410   */\n      tag_175\n        /* \"#utility.yul\":5402:5409   */\n      dup6\n        /* \"#utility.yul\":5393:5399   */\n      dup3\n        /* \"#utility.yul\":5382:5391   */\n      dup7\n        /* \"#utility.yul\":5378:5400   */\n      add\n        /* \"#utility.yul\":5357:5410   */\n      tag_99\n      jump\t// in\n    tag_175:\n        /* \"#utility.yul\":5347:5410   */\n      swap3\n      pop\n        /* \"#utility.yul\":5303:5420   */\n      pop\n        /* \"#utility.yul\":5459:5461   */\n      0x20\n        /* \"#utility.yul\":5485:5538   */\n      tag_176\n        /* \"#utility.yul\":5530:5537   */\n      dup6\n        /* \"#utility.yul\":5521:5527   */\n      dup3\n        /* \"#utility.yul\":5510:5519   */\n      dup7\n        /* \"#utility.yul\":5506:5528   */\n      add\n        /* \"#utility.yul\":5485:5538   */\n      tag_99\n      jump\t// in\n    tag_176:\n        /* \"#utility.yul\":5475:5538   */\n      swap2\n      pop\n        /* \"#utility.yul\":5430:5548   */\n      pop\n        /* \"#utility.yul\":5081:5555   */\n      swap3\n      pop\n      swap3\n      swap1\n      pop\n      jump\t// out\n        /* \"#utility.yul\":5561:5741   */\n    tag_108:\n        /* \"#utility.yul\":5609:5686   */\n      0x4e487b7100000000000000000000000000000000000000000000000000000000\n        /* \"#utility.yul\":5606:5607   */\n      0x00\n        /* \"#utility.yul\":5599:5687   */\n      mstore\n        /* \"#utility.yul\":5706:5710   */\n      0x22\n        /* \"#utility.yul\":5703:5704   */\n      0x04\n        /* \"#utility.yul\":5696:5711   */\n      mstore\n        /* \"#utility.yul\":5730:5734   */\n      0x24\n        /* \"#utility.yul\":5727:5728   */\n      0x00\n        /* \"#utility.yul\":5720:5735   */\n      revert\n        /* \"#utility.yul\":5747:6067   */\n    tag_59:\n        /* \"#utility.yul\":5791:5797   */\n      0x00\n        /* \"#utility.yul\":5828:5829   */\n      0x02\n        /* \"#utility.yul\":5822:5826   */\n      dup3\n        /* \"#utility.yul\":5818:5830   */\n      div\n        /* \"#utility.yul\":5808:5830   */\n      swap1\n      pop\n        /* \"#utility.yul\":5875:5876   */\n      0x01\n        /* \"#utility.yul\":5869:5873   */\n      dup3\n        /* \"#utility.yul\":5865:5877   */\n      and\n        /* \"#utility.yul\":5896:5914   */\n      dup1\n        /* \"#utility.yul\":5886:5967   */\n      tag_179\n      jumpi\n        /* \"#utility.yul\":5952:5956   */\n      0x7f\n        /* \"#utility.yul\":5944:5950   */\n      dup3\n        /* \"#utility.yul\":5940:5957   */\n      and\n        /* \"#utility.yul\":5930:5957   */\n      swap2\n      pop\n        /* \"#utility.yul\":5886:5967   */\n    tag_179:\n        /* \"#utility.yul\":6014:6016   */\n      0x20\n        /* \"#utility.yul\":6006:6012   */\n      dup3\n        /* \"#utility.yul\":6003:6017   */\n      lt\n        /* \"#utility.yul\":5983:6001   */\n      dup2\n        /* \"#utility.yul\":5980:6018   */\n      sub\n        /* \"#utility.yul\":5977:6061   */\n      tag_180\n      jumpi\n        /* \"#utility.yul\":6033:6051   */\n      tag_181\n      tag_108\n      jump\t// in\n    tag_181:\n        /* \"#utility.yul\":5977:6061   */\n    tag_180:\n        /* \"#utility.yul\":5798:6067   */\n      pop\n        /* \"#utility.yul\":5747:6067   */\n      swap2\n      swap1\n      pop\n      jump\t// out\n        /* \"#utility.yul\":6073:6243   */\n    tag_109:\n        /* \"#utility.yul\":6213:6235   */\n      0x496e73756666696369656e742062616c616e6365000000000000000000000000\n        /* \"#utility.yul\":6209:6210   */\n      0x00\n        /* \"#utility.yul\":6201:6207   */\n      dup3\n        /* \"#utility.yul\":6197:6211   */\n      add\n        /* \"#utility.yul\":6190:6236   */\n      mstore\n        /* \"#utility.yul\":6073:6243   */\n      pop\n      jump\t// out\n        /* \"#utility.yul\":6249:6615   */\n    tag_110:\n        /* \"#utility.yul\":6391:6394   */\n      0x00\n        /* \"#utility.yul\":6412:6479   */\n      tag_184\n        /* \"#utility.yul\":6476:6478   */\n      0x14\n        /* \"#utility.yul\":6471:6474   */\n      dup4\n        /* \"#utility.yul\":6412:6479   */\n      tag_89\n      jump\t// in\n    tag_184:\n        /* \"#utility.yul\":6405:6479   */\n      swap2\n      pop\n        /* \"#utility.yul\":6488:6581   */\n      tag_185\n        /* \"#utility.yul\":6577:6580   */\n      dup3\n        /* \"#utility.yul\":6488:6581   */\n      tag_109\n      jump\t// in\n    tag_185:\n        /* \"#utility.yul\":6606:6608   */\n      0x20\n        /* \"#utility.yul\":6601:6604   */\n      dup3\n        /* \"#utility.yul\":6597:6609   */\n      add\n        /* \"#utility.yul\":6590:6609   */\n      swap1\n      pop\n        /* \"#utility.yul\":6249:6615   */\n      swap2\n      swap1\n      pop\n      jump\t// out\n        /* \"#utility.yul\":6621:7040   */\n    tag_68:\n        /* \"#utility.yul\":6787:6791   */\n      0x00\n        /* \"#utility.yul\":6825:6827   */\n      0x20\n        /* \"#utility.yul\":6814:6823   */\n      dup3\n        /* \"#utility.yul\":6810:6828   */\n      add\n        /* \"#utility.yul\":6802:6828   */\n      swap1\n      pop\n        /* \"#utility.yul\":6874:6883   */\n      dup2\n        /* \"#utility.yul\":6868:6872   */\n      dup2\n        /* \"#utility.yul\":6864:6884   */\n      sub\n        /* \"#utility.yul\":6860:6861   */\n      0x00\n        /* \"#utility.yul\":6849:6858   */\n      dup4\n        /* \"#utility.yul\":6845:6862   */\n      add\n        /* \"#utility.yul\":6838:6885   */\n      mstore\n        /* \"#utility.yul\":6902:7033   */\n      tag_187\n        /* \"#utility.yul\":7028:7032   */\n      dup2\n        /* \"#utility.yul\":6902:7033   */\n      tag_110\n      jump\t// in\n    tag_187:\n        /* \"#utility.yul\":6894:7033   */\n      swap1\n      pop\n        /* \"#utility.yul\":6621:7040   */\n      swap2\n      swap1\n      pop\n      jump\t// out\n        /* \"#utility.yul\":7046:7214   */\n    tag_111:\n        /* \"#utility.yul\":7186:7206   */\n      0x416c6c6f77616e63652065786365656465640000000000000000000000000000\n        /* \"#utility.yul\":7182:7183   */\n      0x00\n        /* \"#utility.yul\":7174:7180   */\n      dup3\n        /* \"#utility.yul\":7170:7184   */\n      add\n        /* \"#utility.yul\":7163:7207   */\n      mstore\n        /* \"#utility.yul\":7046:7214   */\n      pop\n      jump\t// out\n        /* \"#utility.yul\":7220:7586   */\n    tag_112:\n        /* \"#utility.yul\":7362:7365   */\n      0x00\n        /* \"#utility.yul\":7383:7450   */\n      tag_190\n        /* \"#utility.yul\":7447:7449   */\n      0x12\n        /* \"#utility.yul\":7442:7445   */\n      dup4\n        /* \"#utility.yul\":7383:7450   */\n      tag_89\n      jump\t// in\n    tag_190:\n        /* \"#utility.yul\":7376:7450   */\n      swap2\n      pop\n        /* \"#utility.yul\":7459:7552   */\n      tag_191\n        /* \"#utility.yul\":7548:7551   */\n      dup3\n        /* \"#utility.yul\":7459:7552   */\n      tag_111\n      jump\t// in\n    tag_191:\n        /* \"#utility.yul\":7577:7579   */\n      0x20\n        /* \"#utility.yul\":7572:7575   */\n      dup3\n        /* \"#utility.yul\":7568:7580   */\n      add\n        /* \"#utility.yul\":7561:7580   */\n      swap1\n      pop\n        /* \"#utility.yul\":7220:7586   */\n      swap2\n      swap1\n      pop\n      jump\t// out\n        /* \"#utility.yul\":7592:8011   */\n    tag_71:\n        /* \"#utility.yul\":7758:7762   */\n      0x00\n        /* \"#utility.yul\":7796:7798   */\n      0x20\n        /* \"#utility.yul\":7785:7794   */\n      dup3\n        /* \"#utility.yul\":7781:7799   */\n      add\n        /* \"#utility.yul\":7773:7799   */\n      swap1\n      pop\n        /* \"#utility.yul\":7845:7854   */\n      dup2\n        /* \"#utility.yul\":7839:7843   */\n      dup2\n        /* \"#utility.yul\":7835:7855   */\n      sub\n        /* \"#utility.yul\":7831:7832   */\n      0x00\n        /* \"#utility.yul\":7820:7829   */\n      dup4\n        /* \"#utility.yul\":7816:7833   */\n      add\n        /* \"#utility.yul\":7809:7856   */\n      mstore\n        /* \"#utility.yul\":7873:8004   */\n      tag_193\n        /* \"#utility.yul\":7999:8003   */\n      dup2\n        /* \"#utility.yul\":7873:8004   */\n      tag_112\n      jump\t// in\n    tag_193:\n        /* \"#utility.yul\":7865:8004   */\n      swap1\n      pop\n        /* \"#utility.yul\":7592:8011   */\n      swap2\n      swap1\n      pop\n      jump\t// out\n        /* \"#utility.yul\":8017:8197   */\n    tag_113:\n        /* \"#utility.yul\":8065:8142   */\n      0x4e487b7100000000000000000000000000000000000000000000000000000000\n        /* \"#utility.yul\":8062:8063   */\n      0x00\n        /* \"#utility.yul\":8055:8143   */\n      mstore\n        /* \"#utility.yul\":8162:8166   */\n      0x11\n        /* \"#utility.yul\":8159:8160   */\n      0x04\n        /* \"#utility.yul\":8152:8167   */\n      mstore\n        /* \"#utility.yul\":8186:8190   */\n      0x24\n        /* \"#utility.yul\":8183:8184   */\n      0x00\n        /* \"#utility.yul\":8176:8191   */\n      revert\n        /* \"#utility.yul\":8203:8397   */\n    tag_73:\n        /* \"#utility.yul\":8243:8247   */\n      0x00\n        /* \"#utility.yul\":8263:8283   */\n      tag_196\n        /* \"#utility.yul\":8281:8282   */\n      dup3\n        /* \"#utility.yul\":8263:8283   */\n      tag_100\n      jump\t// in\n    tag_196:\n        /* \"#utility.yul\":8258:8283   */\n      swap2\n      pop\n        /* \"#utility.yul\":8297:8317   */\n      tag_197\n        /* \"#utility.yul\":8315:8316   */\n      dup4\n        /* \"#utility.yul\":8297:8317   */\n      tag_100\n      jump\t// in\n    tag_197:\n        /* \"#utility.yul\":8292:8317   */\n      swap3\n      pop\n        /* \"#utility.yul\":8341:8342   */\n      dup3\n        /* \"#utility.yul\":8338:8339   */\n      dup3\n        /* \"#utility.yul\":8334:8343   */\n      sub\n        /* \"#utility.yul\":8326:8343   */\n      swap1\n      pop\n        /* \"#utility.yul\":8365:8366   */\n      dup2\n        /* \"#utility.yul\":8359:8363   */\n      dup2\n        /* \"#utility.yul\":8356:8367   */\n      gt\n        /* \"#utility.yul\":8353:8390   */\n      iszero\n      tag_198\n      jumpi\n        /* \"#utility.yul\":8370:8388   */\n      tag_199\n      tag_113\n      jump\t// in\n    tag_199:\n        /* \"#utility.yul\":8353:8390   */\n    tag_198:\n        /* \"#utility.yul\":8203:8397   */\n      swap3\n      swap2\n      pop\n      pop\n      jump\t// out\n        /* \"#utility.yul\":8403:8594   */\n    tag_75:\n        /* \"#utility.yul\":8443:8446   */\n      0x00\n        /* \"#utility.yul\":8462:8482   */\n      tag_201\n        /* \"#utility.yul\":8480:8481   */\n      dup3\n        /* \"#utility.yul\":8462:8482   */\n      tag_100\n      jump\t// in\n    tag_201:\n        /* \"#utility.yul\":8457:8482   */\n      swap2\n      pop\n        /* \"#utility.yul\":8496:8516   */\n      tag_202\n        /* \"#utility.yul\":8514:8515   */\n      dup4\n        /* \"#utility.yul\":8496:8516   */\n      tag_100\n      jump\t// in\n    tag_202:\n        /* \"#utility.yul\":8491:8516   */\n      swap3\n      pop\n        /* \"#utility.yul\":8539:8540   */\n      dup3\n        /* \"#utility.yul\":8536:8537   */\n      dup3\n        /* \"#utility.yul\":8532:8541   */\n      add\n        /* \"#utility.yul\":8525:8541   */\n      swap1\n      pop\n        /* \"#utility.yul\":8560:8563   */\n      dup1\n        /* \"#utility.yul\":8557:8558   */\n      dup3\n        /* \"#utility.yul\":8554:8564   */\n      gt\n        /* \"#utility.yul\":8551:8587   */\n      iszero\n      tag_203\n      jumpi\n        /* \"#utility.yul\":8567:8585   */\n      tag_204\n      tag_113\n      jump\t// in\n    tag_204:\n        /* \"#utility.yul\":8551:8587   */\n    tag_203:\n        /* \"#utility.yul\":8403:8594   */\n      swap3\n      swap2\n      pop\n      pop\n      jump\t// out\n\n    auxdata: 0xa26469706673582212204b8bbce910cd5aa9f33c4e239a21cb8c6eaa0aff73437a99308d5b539ea6c5ab64736f6c634300081a0033\n}\n",
				"bytecode": {
					"linkReferences": {},
					"object": "60806040526040518060400160405280600681526020017f4d696c68615900000000000000000000000000000000000000000000000000008152505f90816100479190610388565b506040518060400160405280600481526020017f4d494c59000000000000000000000000000000000000000000000000000000008152506001908161008c9190610388565b50601260025f6101000a81548160ff021916908360ff1602179055503480156100b3575f80fd5b5060405161135738038061135783398181016040528101906100d59190610485565b60025f9054906101000a900460ff1660ff16600a6100f3919061060c565b816100fe9190610656565b60038190555060035460045f3373ffffffffffffffffffffffffffffffffffffffff1673ffffffffffffffffffffffffffffffffffffffff1681526020019081526020015f208190555050610697565b5f81519050919050565b7f4e487b71000000000000000000000000000000000000000000000000000000005f52604160045260245ffd5b7f4e487b71000000000000000000000000000000000000000000000000000000005f52602260045260245ffd5b5f60028204905060018216806101c957607f821691505b6020821081036101dc576101db610185565b5b50919050565b5f819050815f5260205f209050919050565b5f6020601f8301049050919050565b5f82821b905092915050565b5f6008830261023e7fffffffffffffffffffffffffffffffffffffffffffffffffffffffffffffffff82610203565b6102488683610203565b95508019841693508086168417925050509392505050565b5f819050919050565b5f819050919050565b5f61028c61028761028284610260565b610269565b610260565b9050919050565b5f819050919050565b6102a583610272565b6102b96102b182610293565b84845461020f565b825550505050565b5f90565b6102cd6102c1565b6102d881848461029c565b505050565b5b818110156102fb576102f05f826102c5565b6001810190506102de565b5050565b601f82111561034057610311816101e2565b61031a846101f4565b81016020851015610329578190505b61033d610335856101f4565b8301826102dd565b50505b505050565b5f82821c905092915050565b5f6103605f1984600802610345565b1980831691505092915050565b5f6103788383610351565b9150826002028217905092915050565b6103918261014e565b67ffffffffffffffff8111156103aa576103a9610158565b5b6103b482546101b2565b6103bf8282856102ff565b5f60209050601f8311600181146103f0575f84156103de578287015190505b6103e8858261036d565b86555061044f565b601f1984166103fe866101e2565b5f5b8281101561042557848901518255600182019150602085019450602081019050610400565b86831015610442578489015161043e601f891682610351565b8355505b6001600288020188555050505b505050505050565b5f80fd5b61046481610260565b811461046e575f80fd5b50565b5f8151905061047f8161045b565b92915050565b5f6020828403121561049a57610499610457565b5b5f6104a784828501610471565b91505092915050565b7f4e487b71000000000000000000000000000000000000000000000000000000005f52601160045260245ffd5b5f8160011c9050919050565b5f808291508390505b60018511156105325780860481111561050e5761050d6104b0565b5b600185161561051d5780820291505b808102905061052b856104dd565b94506104f2565b94509492505050565b5f8261054a5760019050610605565b81610557575f9050610605565b816001811461056d5760028114610577576105a6565b6001915050610605565b60ff841115610589576105886104b0565b5b8360020a9150848211156105a05761059f6104b0565b5b50610605565b5060208310610133831016604e8410600b84101617156105db5782820a9050838111156105d6576105d56104b0565b5b610605565b6105e884848460016104e9565b925090508184048111156105ff576105fe6104b0565b5b81810290505b9392505050565b5f61061682610260565b915061062183610260565b925061064e7fffffffffffffffffffffffffffffffffffffffffffffffffffffffffffffffff848461053b565b905092915050565b5f61066082610260565b915061066b83610260565b925082820261067981610260565b915082820484148315176106905761068f6104b0565b5b5092915050565b610cb3806106a45f395ff3fe608060405234801561000f575f80fd5b506004361061009c575f3560e01c8063313ce56711610064578063313ce5671461016c5780635c6581651461018a57806370a08231146101ba57806395d89b41146101ea578063a9059cbb146102085761009c565b806306fdde03146100a0578063095ea7b3146100be57806318160ddd146100ee57806323b872dd1461010c57806327e235e31461013c575b5f80fd5b6100a8610238565b6040516100b59190610886565b60405180910390f35b6100d860048036038101906100d39190610937565b6102c3565b6040516100e5919061098f565b60405180910390f35b6100f661034b565b60405161010391906109b7565b60405180910390f35b610126600480360381019061012191906109d0565b610351565b604051610133919061098f565b60405180910390f35b61015660048036038101906101519190610a20565b6105cc565b60405161016391906109b7565b60405180910390f35b6101746105e1565b6040516101819190610a66565b60405180910390f35b6101a4600480360381019061019f9190610a7f565b6105f3565b6040516101b191906109b7565b60405180910390f35b6101d460048036038101906101cf9190610a20565b610613565b6040516101e191906109b7565b60405180910390f35b6101f2610659565b6040516101ff9190610886565b60405180910390f35b610222600480360381019061021d9190610937565b6106e5565b60405161022f919061098f565b60405180910390f35b5f805461024490610aea565b80601f016020809104026020016040519081016040528092919081815260200182805461027090610aea565b80156102bb5780601f10610292576101008083540402835291602001916102bb565b820191905f5260205f20905b81548152906001019060200180831161029e57829003601f168201915b505050505081565b5f8160055f3373ffffffffffffffffffffffffffffffffffffffff1673ffffffffffffffffffffffffffffffffffffffff1681526020019081526020015f205f8573ffffffffffffffffffffffffffffffffffffffff1673ffffffffffffffffffffffffffffffffffffffff1681526020019081526020015f20819055506001905092915050565b60035481565b5f8160045f8673ffffffffffffffffffffffffffffffffffffffff1673ffffffffffffffffffffffffffffffffffffffff1681526020019081526020015f205410156103d2576040517f08c379a00000000000000000000000000000000000000000000000000000000081526004016103c990610b64565b60405180910390fd5b8160055f8673ffffffffffffffffffffffffffffffffffffffff1673ffffffffffffffffffffffffffffffffffffffff1681526020019081526020015f205f3373ffffffffffffffffffffffffffffffffffffffff1673ffffffffffffffffffffffffffffffffffffffff1681526020019081526020015f2054101561048d576040517f08c379a000000000000000000000000000000000000000000000000000000000815260040161048490610bcc565b60405180910390fd5b8160045f8673ffffffffffffffffffffffffffffffffffffffff1673ffffffffffffffffffffffffffffffffffffffff1681526020019081526020015f205f8282546104d99190610c17565b925050819055508160045f8573ffffffffffffffffffffffffffffffffffffffff1673ffffffffffffffffffffffffffffffffffffffff1681526020019081526020015f205f82825461052c9190610c4a565b925050819055508160055f8673ffffffffffffffffffffffffffffffffffffffff1673ffffffffffffffffffffffffffffffffffffffff1681526020019081526020015f205f3373ffffffffffffffffffffffffffffffffffffffff1673ffffffffffffffffffffffffffffffffffffffff1681526020019081526020015f205f8282546105ba9190610c17565b92505081905550600190509392505050565b6004602052805f5260405f205f915090505481565b60025f9054906101000a900460ff1681565b6005602052815f5260405f20602052805f5260405f205f91509150505481565b5f60045f8373ffffffffffffffffffffffffffffffffffffffff1673ffffffffffffffffffffffffffffffffffffffff1681526020019081526020015f20549050919050565b6001805461066690610aea565b80601f016020809104026020016040519081016040528092919081815260200182805461069290610aea565b80156106dd5780601f106106b4576101008083540402835291602001916106dd565b820191905f5260205f20905b8154815290600101906020018083116106c057829003601f168201915b505050505081565b5f8160045f3373ffffffffffffffffffffffffffffffffffffffff1673ffffffffffffffffffffffffffffffffffffffff1681526020019081526020015f20541015610766576040517f08c379a000000000000000000000000000000000000000000000000000000000815260040161075d90610b64565b60405180910390fd5b8160045f3373ffffffffffffffffffffffffffffffffffffffff1673ffffffffffffffffffffffffffffffffffffffff1681526020019081526020015f205f8282546107b29190610c17565b925050819055508160045f8573ffffffffffffffffffffffffffffffffffffffff1673ffffffffffffffffffffffffffffffffffffffff1681526020019081526020015f205f8282546108059190610c4a565b925050819055506001905092915050565b5f81519050919050565b5f82825260208201905092915050565b8281835e5f83830152505050565b5f601f19601f8301169050919050565b5f61085882610816565b6108628185610820565b9350610872818560208601610830565b61087b8161083e565b840191505092915050565b5f6020820190508181035f83015261089e818461084e565b905092915050565b5f80fd5b5f73ffffffffffffffffffffffffffffffffffffffff82169050919050565b5f6108d3826108aa565b9050919050565b6108e3816108c9565b81146108ed575f80fd5b50565b5f813590506108fe816108da565b92915050565b5f819050919050565b61091681610904565b8114610920575f80fd5b50565b5f813590506109318161090d565b92915050565b5f806040838503121561094d5761094c6108a6565b5b5f61095a858286016108f0565b925050602061096b85828601610923565b9150509250929050565b5f8115159050919050565b61098981610975565b82525050565b5f6020820190506109a25f830184610980565b92915050565b6109b181610904565b82525050565b5f6020820190506109ca5f8301846109a8565b92915050565b5f805f606084860312156109e7576109e66108a6565b5b5f6109f4868287016108f0565b9350506020610a05868287016108f0565b9250506040610a1686828701610923565b9150509250925092565b5f60208284031215610a3557610a346108a6565b5b5f610a42848285016108f0565b91505092915050565b5f60ff82169050919050565b610a6081610a4b565b82525050565b5f602082019050610a795f830184610a57565b92915050565b5f8060408385031215610a9557610a946108a6565b5b5f610aa2858286016108f0565b9250506020610ab3858286016108f0565b9150509250929050565b7f4e487b71000000000000000000000000000000000000000000000000000000005f52602260045260245ffd5b5f6002820490506001821680610b0157607f821691505b602082108103610b1457610b13610abd565b5b50919050565b7f496e73756666696369656e742062616c616e63650000000000000000000000005f82015250565b5f610b4e601483610820565b9150610b5982610b1a565b602082019050919050565b5f6020820190508181035f830152610b7b81610b42565b9050919050565b7f416c6c6f77616e636520657863656564656400000000000000000000000000005f82015250565b5f610bb6601283610820565b9150610bc182610b82565b602082019050919050565b5f6020820190508181035f830152610be381610baa565b9050919050565b7f4e487b71000000000000000000000000000000000000000000000000000000005f52601160045260245ffd5b5f610c2182610904565b9150610c2c83610904565b9250828203905081811115610c4457610c43610bea565b5b92915050565b5f610c5482610904565b9150610c5f83610904565b9250828201905080821115610c7757610c76610bea565b5b9291505056fea26469706673582212204b8bbce910cd5aa9f33c4e239a21cb8c6eaa0aff73437a99308d5b539ea6c5ab64736f6c634300081a0033",
					"opcodes": "PUSH1 0x80 PUSH1 0x40 MSTORE PUSH1 0x40 MLOAD DUP1 PUSH1 0x40 ADD PUSH1 0x40 MSTORE DUP1 PUSH1 0x6 DUP2 MSTORE PUSH1 0x20 ADD PUSH32 0x4D696C6861590000000000000000000000000000000000000000000000000000 DUP2 MSTORE POP PUSH0 SWAP1 DUP2 PUSH2 0x47 SWAP2 SWAP1 PUSH2 0x388 JUMP JUMPDEST POP PUSH1 0x40 MLOAD DUP1 PUSH1 0x40 ADD PUSH1 0x40 MSTORE DUP1 PUSH1 0x4 DUP2 MSTORE PUSH1 0x20 ADD PUSH32 0x4D494C5900000000000000000000000000000000000000000000000000000000 DUP2 MSTORE POP PUSH1 0x1 SWAP1 DUP2 PUSH2 0x8C SWAP2 SWAP1 PUSH2 0x388 JUMP JUMPDEST POP PUSH1 0x12 PUSH1 0x2 PUSH0 PUSH2 0x100 EXP DUP2 SLOAD DUP2 PUSH1 0xFF MUL NOT AND SWAP1 DUP4 PUSH1 0xFF AND MUL OR SWAP1 SSTORE POP CALLVALUE DUP1 ISZERO PUSH2 0xB3 JUMPI PUSH0 DUP1 REVERT JUMPDEST POP PUSH1 0x40 MLOAD PUSH2 0x1357 CODESIZE SUB DUP1 PUSH2 0x1357 DUP4 CODECOPY DUP2 DUP2 ADD PUSH1 0x40 MSTORE DUP2 ADD SWAP1 PUSH2 0xD5 SWAP2 SWAP1 PUSH2 0x485 JUMP JUMPDEST PUSH1 0x2 PUSH0 SWAP1 SLOAD SWAP1 PUSH2 0x100 EXP SWAP1 DIV PUSH1 0xFF AND PUSH1 0xFF AND PUSH1 0xA PUSH2 0xF3 SWAP2 SWAP1 PUSH2 0x60C JUMP JUMPDEST DUP2 PUSH2 0xFE SWAP2 SWAP1 PUSH2 0x656 JUMP JUMPDEST PUSH1 0x3 DUP2 SWAP1 SSTORE POP PUSH1 0x3 SLOAD PUSH1 0x4 PUSH0 CALLER PUSH20 0xFFFFFFFFFFFFFFFFFFFFFFFFFFFFFFFFFFFFFFFF AND PUSH20 0xFFFFFFFFFFFFFFFFFFFFFFFFFFFFFFFFFFFFFFFF AND DUP2 MSTORE PUSH1 0x20 ADD SWAP1 DUP2 MSTORE PUSH1 0x20 ADD PUSH0 KECCAK256 DUP2 SWAP1 SSTORE POP POP PUSH2 0x697 JUMP JUMPDEST PUSH0 DUP2 MLOAD SWAP1 POP SWAP2 SWAP1 POP JUMP JUMPDEST PUSH32 0x4E487B7100000000000000000000000000000000000000000000000000000000 PUSH0 MSTORE PUSH1 0x41 PUSH1 0x4 MSTORE PUSH1 0x24 PUSH0 REVERT JUMPDEST PUSH32 0x4E487B7100000000000000000000000000000000000000000000000000000000 PUSH0 MSTORE PUSH1 0x22 PUSH1 0x4 MSTORE PUSH1 0x24 PUSH0 REVERT JUMPDEST PUSH0 PUSH1 0x2 DUP3 DIV SWAP1 POP PUSH1 0x1 DUP3 AND DUP1 PUSH2 0x1C9 JUMPI PUSH1 0x7F DUP3 AND SWAP2 POP JUMPDEST PUSH1 0x20 DUP3 LT DUP2 SUB PUSH2 0x1DC JUMPI PUSH2 0x1DB PUSH2 0x185 JUMP JUMPDEST JUMPDEST POP SWAP2 SWAP1 POP JUMP JUMPDEST PUSH0 DUP2 SWAP1 POP DUP2 PUSH0 MSTORE PUSH1 0x20 PUSH0 KECCAK256 SWAP1 POP SWAP2 SWAP1 POP JUMP JUMPDEST PUSH0 PUSH1 0x20 PUSH1 0x1F DUP4 ADD DIV SWAP1 POP SWAP2 SWAP1 POP JUMP JUMPDEST PUSH0 DUP3 DUP3 SHL SWAP1 POP SWAP3 SWAP2 POP POP JUMP JUMPDEST PUSH0 PUSH1 0x8 DUP4 MUL PUSH2 0x23E PUSH32 0xFFFFFFFFFFFFFFFFFFFFFFFFFFFFFFFFFFFFFFFFFFFFFFFFFFFFFFFFFFFFFFFF DUP3 PUSH2 0x203 JUMP JUMPDEST PUSH2 0x248 DUP7 DUP4 PUSH2 0x203 JUMP JUMPDEST SWAP6 POP DUP1 NOT DUP5 AND SWAP4 POP DUP1 DUP7 AND DUP5 OR SWAP3 POP POP POP SWAP4 SWAP3 POP POP POP JUMP JUMPDEST PUSH0 DUP2 SWAP1 POP SWAP2 SWAP1 POP JUMP JUMPDEST PUSH0 DUP2 SWAP1 POP SWAP2 SWAP1 POP JUMP JUMPDEST PUSH0 PUSH2 0x28C PUSH2 0x287 PUSH2 0x282 DUP5 PUSH2 0x260 JUMP JUMPDEST PUSH2 0x269 JUMP JUMPDEST PUSH2 0x260 JUMP JUMPDEST SWAP1 POP SWAP2 SWAP1 POP JUMP JUMPDEST PUSH0 DUP2 SWAP1 POP SWAP2 SWAP1 POP JUMP JUMPDEST PUSH2 0x2A5 DUP4 PUSH2 0x272 JUMP JUMPDEST PUSH2 0x2B9 PUSH2 0x2B1 DUP3 PUSH2 0x293 JUMP JUMPDEST DUP5 DUP5 SLOAD PUSH2 0x20F JUMP JUMPDEST DUP3 SSTORE POP POP POP POP JUMP JUMPDEST PUSH0 SWAP1 JUMP JUMPDEST PUSH2 0x2CD PUSH2 0x2C1 JUMP JUMPDEST PUSH2 0x2D8 DUP2 DUP5 DUP5 PUSH2 0x29C JUMP JUMPDEST POP POP POP JUMP JUMPDEST JUMPDEST DUP2 DUP2 LT ISZERO PUSH2 0x2FB JUMPI PUSH2 0x2F0 PUSH0 DUP3 PUSH2 0x2C5 JUMP JUMPDEST PUSH1 0x1 DUP2 ADD SWAP1 POP PUSH2 0x2DE JUMP JUMPDEST POP POP JUMP JUMPDEST PUSH1 0x1F DUP3 GT ISZERO PUSH2 0x340 JUMPI PUSH2 0x311 DUP2 PUSH2 0x1E2 JUMP JUMPDEST PUSH2 0x31A DUP5 PUSH2 0x1F4 JUMP JUMPDEST DUP2 ADD PUSH1 0x20 DUP6 LT ISZERO PUSH2 0x329 JUMPI DUP2 SWAP1 POP JUMPDEST PUSH2 0x33D PUSH2 0x335 DUP6 PUSH2 0x1F4 JUMP JUMPDEST DUP4 ADD DUP3 PUSH2 0x2DD JUMP JUMPDEST POP POP JUMPDEST POP POP POP JUMP JUMPDEST PUSH0 DUP3 DUP3 SHR SWAP1 POP SWAP3 SWAP2 POP POP JUMP JUMPDEST PUSH0 PUSH2 0x360 PUSH0 NOT DUP5 PUSH1 0x8 MUL PUSH2 0x345 JUMP JUMPDEST NOT DUP1 DUP4 AND SWAP2 POP POP SWAP3 SWAP2 POP POP JUMP JUMPDEST PUSH0 PUSH2 0x378 DUP4 DUP4 PUSH2 0x351 JUMP JUMPDEST SWAP2 POP DUP3 PUSH1 0x2 MUL DUP3 OR SWAP1 POP SWAP3 SWAP2 POP POP JUMP JUMPDEST PUSH2 0x391 DUP3 PUSH2 0x14E JUMP JUMPDEST PUSH8 0xFFFFFFFFFFFFFFFF DUP2 GT ISZERO PUSH2 0x3AA JUMPI PUSH2 0x3A9 PUSH2 0x158 JUMP JUMPDEST JUMPDEST PUSH2 0x3B4 DUP3 SLOAD PUSH2 0x1B2 JUMP JUMPDEST PUSH2 0x3BF DUP3 DUP3 DUP6 PUSH2 0x2FF JUMP JUMPDEST PUSH0 PUSH1 0x20 SWAP1 POP PUSH1 0x1F DUP4 GT PUSH1 0x1 DUP2 EQ PUSH2 0x3F0 JUMPI PUSH0 DUP5 ISZERO PUSH2 0x3DE JUMPI DUP3 DUP8 ADD MLOAD SWAP1 POP JUMPDEST PUSH2 0x3E8 DUP6 DUP3 PUSH2 0x36D JUMP JUMPDEST DUP7 SSTORE POP PUSH2 0x44F JUMP JUMPDEST PUSH1 0x1F NOT DUP5 AND PUSH2 0x3FE DUP7 PUSH2 0x1E2 JUMP JUMPDEST PUSH0 JUMPDEST DUP3 DUP2 LT ISZERO PUSH2 0x425 JUMPI DUP5 DUP10 ADD MLOAD DUP3 SSTORE PUSH1 0x1 DUP3 ADD SWAP2 POP PUSH1 0x20 DUP6 ADD SWAP5 POP PUSH1 0x20 DUP2 ADD SWAP1 POP PUSH2 0x400 JUMP JUMPDEST DUP7 DUP4 LT ISZERO PUSH2 0x442 JUMPI DUP5 DUP10 ADD MLOAD PUSH2 0x43E PUSH1 0x1F DUP10 AND DUP3 PUSH2 0x351 JUMP JUMPDEST DUP4 SSTORE POP JUMPDEST PUSH1 0x1 PUSH1 0x2 DUP9 MUL ADD DUP9 SSTORE POP POP POP JUMPDEST POP POP POP POP POP POP JUMP JUMPDEST PUSH0 DUP1 REVERT JUMPDEST PUSH2 0x464 DUP2 PUSH2 0x260 JUMP JUMPDEST DUP2 EQ PUSH2 0x46E JUMPI PUSH0 DUP1 REVERT JUMPDEST POP JUMP JUMPDEST PUSH0 DUP2 MLOAD SWAP1 POP PUSH2 0x47F DUP2 PUSH2 0x45B JUMP JUMPDEST SWAP3 SWAP2 POP POP JUMP JUMPDEST PUSH0 PUSH1 0x20 DUP3 DUP5 SUB SLT ISZERO PUSH2 0x49A JUMPI PUSH2 0x499 PUSH2 0x457 JUMP JUMPDEST JUMPDEST PUSH0 PUSH2 0x4A7 DUP5 DUP3 DUP6 ADD PUSH2 0x471 JUMP JUMPDEST SWAP2 POP POP SWAP3 SWAP2 POP POP JUMP JUMPDEST PUSH32 0x4E487B7100000000000000000000000000000000000000000000000000000000 PUSH0 MSTORE PUSH1 0x11 PUSH1 0x4 MSTORE PUSH1 0x24 PUSH0 REVERT JUMPDEST PUSH0 DUP2 PUSH1 0x1 SHR SWAP1 POP SWAP2 SWAP1 POP JUMP JUMPDEST PUSH0 DUP1 DUP3 SWAP2 POP DUP4 SWAP1 POP JUMPDEST PUSH1 0x1 DUP6 GT ISZERO PUSH2 0x532 JUMPI DUP1 DUP7 DIV DUP2 GT ISZERO PUSH2 0x50E JUMPI PUSH2 0x50D PUSH2 0x4B0 JUMP JUMPDEST JUMPDEST PUSH1 0x1 DUP6 AND ISZERO PUSH2 0x51D JUMPI DUP1 DUP3 MUL SWAP2 POP JUMPDEST DUP1 DUP2 MUL SWAP1 POP PUSH2 0x52B DUP6 PUSH2 0x4DD JUMP JUMPDEST SWAP5 POP PUSH2 0x4F2 JUMP JUMPDEST SWAP5 POP SWAP5 SWAP3 POP POP POP JUMP JUMPDEST PUSH0 DUP3 PUSH2 0x54A JUMPI PUSH1 0x1 SWAP1 POP PUSH2 0x605 JUMP JUMPDEST DUP2 PUSH2 0x557 JUMPI PUSH0 SWAP1 POP PUSH2 0x605 JUMP JUMPDEST DUP2 PUSH1 0x1 DUP2 EQ PUSH2 0x56D JUMPI PUSH1 0x2 DUP2 EQ PUSH2 0x577 JUMPI PUSH2 0x5A6 JUMP JUMPDEST PUSH1 0x1 SWAP2 POP POP PUSH2 0x605 JUMP JUMPDEST PUSH1 0xFF DUP5 GT ISZERO PUSH2 0x589 JUMPI PUSH2 0x588 PUSH2 0x4B0 JUMP JUMPDEST JUMPDEST DUP4 PUSH1 0x2 EXP SWAP2 POP DUP5 DUP3 GT ISZERO PUSH2 0x5A0 JUMPI PUSH2 0x59F PUSH2 0x4B0 JUMP JUMPDEST JUMPDEST POP PUSH2 0x605 JUMP JUMPDEST POP PUSH1 0x20 DUP4 LT PUSH2 0x133 DUP4 LT AND PUSH1 0x4E DUP5 LT PUSH1 0xB DUP5 LT AND OR ISZERO PUSH2 0x5DB JUMPI DUP3 DUP3 EXP SWAP1 POP DUP4 DUP2 GT ISZERO PUSH2 0x5D6 JUMPI PUSH2 0x5D5 PUSH2 0x4B0 JUMP JUMPDEST JUMPDEST PUSH2 0x605 JUMP JUMPDEST PUSH2 0x5E8 DUP5 DUP5 DUP5 PUSH1 0x1 PUSH2 0x4E9 JUMP JUMPDEST SWAP3 POP SWAP1 POP DUP2 DUP5 DIV DUP2 GT ISZERO PUSH2 0x5FF JUMPI PUSH2 0x5FE PUSH2 0x4B0 JUMP JUMPDEST JUMPDEST DUP2 DUP2 MUL SWAP1 POP JUMPDEST SWAP4 SWAP3 POP POP POP JUMP JUMPDEST PUSH0 PUSH2 0x616 DUP3 PUSH2 0x260 JUMP JUMPDEST SWAP2 POP PUSH2 0x621 DUP4 PUSH2 0x260 JUMP JUMPDEST SWAP3 POP PUSH2 0x64E PUSH32 0xFFFFFFFFFFFFFFFFFFFFFFFFFFFFFFFFFFFFFFFFFFFFFFFFFFFFFFFFFFFFFFFF DUP5 DUP5 PUSH2 0x53B JUMP JUMPDEST SWAP1 POP SWAP3 SWAP2 POP POP JUMP JUMPDEST PUSH0 PUSH2 0x660 DUP3 PUSH2 0x260 JUMP JUMPDEST SWAP2 POP PUSH2 0x66B DUP4 PUSH2 0x260 JUMP JUMPDEST SWAP3 POP DUP3 DUP3 MUL PUSH2 0x679 DUP2 PUSH2 0x260 JUMP JUMPDEST SWAP2 POP DUP3 DUP3 DIV DUP5 EQ DUP4 ISZERO OR PUSH2 0x690 JUMPI PUSH2 0x68F PUSH2 0x4B0 JUMP JUMPDEST JUMPDEST POP SWAP3 SWAP2 POP POP JUMP JUMPDEST PUSH2 0xCB3 DUP1 PUSH2 0x6A4 PUSH0 CODECOPY PUSH0 RETURN INVALID PUSH1 0x80 PUSH1 0x40 MSTORE CALLVALUE DUP1 ISZERO PUSH2 0xF JUMPI PUSH0 DUP1 REVERT JUMPDEST POP PUSH1 0x4 CALLDATASIZE LT PUSH2 0x9C JUMPI PUSH0 CALLDATALOAD PUSH1 0xE0 SHR DUP1 PUSH4 0x313CE567 GT PUSH2 0x64 JUMPI DUP1 PUSH4 0x313CE567 EQ PUSH2 0x16C JUMPI DUP1 PUSH4 0x5C658165 EQ PUSH2 0x18A JUMPI DUP1 PUSH4 0x70A08231 EQ PUSH2 0x1BA JUMPI DUP1 PUSH4 0x95D89B41 EQ PUSH2 0x1EA JUMPI DUP1 PUSH4 0xA9059CBB EQ PUSH2 0x208 JUMPI PUSH2 0x9C JUMP JUMPDEST DUP1 PUSH4 0x6FDDE03 EQ PUSH2 0xA0 JUMPI DUP1 PUSH4 0x95EA7B3 EQ PUSH2 0xBE JUMPI DUP1 PUSH4 0x18160DDD EQ PUSH2 0xEE JUMPI DUP1 PUSH4 0x23B872DD EQ PUSH2 0x10C JUMPI DUP1 PUSH4 0x27E235E3 EQ PUSH2 0x13C JUMPI JUMPDEST PUSH0 DUP1 REVERT JUMPDEST PUSH2 0xA8 PUSH2 0x238 JUMP JUMPDEST PUSH1 0x40 MLOAD PUSH2 0xB5 SWAP2 SWAP1 PUSH2 0x886 JUMP JUMPDEST PUSH1 0x40 MLOAD DUP1 SWAP2 SUB SWAP1 RETURN JUMPDEST PUSH2 0xD8 PUSH1 0x4 DUP1 CALLDATASIZE SUB DUP2 ADD SWAP1 PUSH2 0xD3 SWAP2 SWAP1 PUSH2 0x937 JUMP JUMPDEST PUSH2 0x2C3 JUMP JUMPDEST PUSH1 0x40 MLOAD PUSH2 0xE5 SWAP2 SWAP1 PUSH2 0x98F JUMP JUMPDEST PUSH1 0x40 MLOAD DUP1 SWAP2 SUB SWAP1 RETURN JUMPDEST PUSH2 0xF6 PUSH2 0x34B JUMP JUMPDEST PUSH1 0x40 MLOAD PUSH2 0x103 SWAP2 SWAP1 PUSH2 0x9B7 JUMP JUMPDEST PUSH1 0x40 MLOAD DUP1 SWAP2 SUB SWAP1 RETURN JUMPDEST PUSH2 0x126 PUSH1 0x4 DUP1 CALLDATASIZE SUB DUP2 ADD SWAP1 PUSH2 0x121 SWAP2 SWAP1 PUSH2 0x9D0 JUMP JUMPDEST PUSH2 0x351 JUMP JUMPDEST PUSH1 0x40 MLOAD PUSH2 0x133 SWAP2 SWAP1 PUSH2 0x98F JUMP JUMPDEST PUSH1 0x40 MLOAD DUP1 SWAP2 SUB SWAP1 RETURN JUMPDEST PUSH2 0x156 PUSH1 0x4 DUP1 CALLDATASIZE SUB DUP2 ADD SWAP1 PUSH2 0x151 SWAP2 SWAP1 PUSH2 0xA20 JUMP JUMPDEST PUSH2 0x5CC JUMP JUMPDEST PUSH1 0x40 MLOAD PUSH2 0x163 SWAP2 SWAP1 PUSH2 0x9B7 JUMP JUMPDEST PUSH1 0x40 MLOAD DUP1 SWAP2 SUB SWAP1 RETURN JUMPDEST PUSH2 0x174 PUSH2 0x5E1 JUMP JUMPDEST PUSH1 0x40 MLOAD PUSH2 0x181 SWAP2 SWAP1 PUSH2 0xA66 JUMP JUMPDEST PUSH1 0x40 MLOAD DUP1 SWAP2 SUB SWAP1 RETURN JUMPDEST PUSH2 0x1A4 PUSH1 0x4 DUP1 CALLDATASIZE SUB DUP2 ADD SWAP1 PUSH2 0x19F SWAP2 SWAP1 PUSH2 0xA7F JUMP JUMPDEST PUSH2 0x5F3 JUMP JUMPDEST PUSH1 0x40 MLOAD PUSH2 0x1B1 SWAP2 SWAP1 PUSH2 0x9B7 JUMP JUMPDEST PUSH1 0x40 MLOAD DUP1 SWAP2 SUB SWAP1 RETURN JUMPDEST PUSH2 0x1D4 PUSH1 0x4 DUP1 CALLDATASIZE SUB DUP2 ADD SWAP1 PUSH2 0x1CF SWAP2 SWAP1 PUSH2 0xA20 JUMP JUMPDEST PUSH2 0x613 JUMP JUMPDEST PUSH1 0x40 MLOAD PUSH2 0x1E1 SWAP2 SWAP1 PUSH2 0x9B7 JUMP JUMPDEST PUSH1 0x40 MLOAD DUP1 SWAP2 SUB SWAP1 RETURN JUMPDEST PUSH2 0x1F2 PUSH2 0x659 JUMP JUMPDEST PUSH1 0x40 MLOAD PUSH2 0x1FF SWAP2 SWAP1 PUSH2 0x886 JUMP JUMPDEST PUSH1 0x40 MLOAD DUP1 SWAP2 SUB SWAP1 RETURN JUMPDEST PUSH2 0x222 PUSH1 0x4 DUP1 CALLDATASIZE SUB DUP2 ADD SWAP1 PUSH2 0x21D SWAP2 SWAP1 PUSH2 0x937 JUMP JUMPDEST PUSH2 0x6E5 JUMP JUMPDEST PUSH1 0x40 MLOAD PUSH2 0x22F SWAP2 SWAP1 PUSH2 0x98F JUMP JUMPDEST PUSH1 0x40 MLOAD DUP1 SWAP2 SUB SWAP1 RETURN JUMPDEST PUSH0 DUP1 SLOAD PUSH2 0x244 SWAP1 PUSH2 0xAEA JUMP JUMPDEST DUP1 PUSH1 0x1F ADD PUSH1 0x20 DUP1 SWAP2 DIV MUL PUSH1 0x20 ADD PUSH1 0x40 MLOAD SWAP1 DUP2 ADD PUSH1 0x40 MSTORE DUP1 SWAP3 SWAP2 SWAP1 DUP2 DUP2 MSTORE PUSH1 0x20 ADD DUP3 DUP1 SLOAD PUSH2 0x270 SWAP1 PUSH2 0xAEA JUMP JUMPDEST DUP1 ISZERO PUSH2 0x2BB JUMPI DUP1 PUSH1 0x1F LT PUSH2 0x292 JUMPI PUSH2 0x100 DUP1 DUP4 SLOAD DIV MUL DUP4 MSTORE SWAP2 PUSH1 0x20 ADD SWAP2 PUSH2 0x2BB JUMP JUMPDEST DUP3 ADD SWAP2 SWAP1 PUSH0 MSTORE PUSH1 0x20 PUSH0 KECCAK256 SWAP1 JUMPDEST DUP2 SLOAD DUP2 MSTORE SWAP1 PUSH1 0x1 ADD SWAP1 PUSH1 0x20 ADD DUP1 DUP4 GT PUSH2 0x29E JUMPI DUP3 SWAP1 SUB PUSH1 0x1F AND DUP3 ADD SWAP2 JUMPDEST POP POP POP POP POP DUP2 JUMP JUMPDEST PUSH0 DUP2 PUSH1 0x5 PUSH0 CALLER PUSH20 0xFFFFFFFFFFFFFFFFFFFFFFFFFFFFFFFFFFFFFFFF AND PUSH20 0xFFFFFFFFFFFFFFFFFFFFFFFFFFFFFFFFFFFFFFFF AND DUP2 MSTORE PUSH1 0x20 ADD SWAP1 DUP2 MSTORE PUSH1 0x20 ADD PUSH0 KECCAK256 PUSH0 DUP6 PUSH20 0xFFFFFFFFFFFFFFFFFFFFFFFFFFFFFFFFFFFFFFFF AND PUSH20 0xFFFFFFFFFFFFFFFFFFFFFFFFFFFFFFFFFFFFFFFF AND DUP2 MSTORE PUSH1 0x20 ADD SWAP1 DUP2 MSTORE PUSH1 0x20 ADD PUSH0 KECCAK256 DUP2 SWAP1 SSTORE POP PUSH1 0x1 SWAP1 POP SWAP3 SWAP2 POP POP JUMP JUMPDEST PUSH1 0x3 SLOAD DUP2 JUMP JUMPDEST PUSH0 DUP2 PUSH1 0x4 PUSH0 DUP7 PUSH20 0xFFFFFFFFFFFFFFFFFFFFFFFFFFFFFFFFFFFFFFFF AND PUSH20 0xFFFFFFFFFFFFFFFFFFFFFFFFFFFFFFFFFFFFFFFF AND DUP2 MSTORE PUSH1 0x20 ADD SWAP1 DUP2 MSTORE PUSH1 0x20 ADD PUSH0 KECCAK256 SLOAD LT ISZERO PUSH2 0x3D2 JUMPI PUSH1 0x40 MLOAD PUSH32 0x8C379A000000000000000000000000000000000000000000000000000000000 DUP2 MSTORE PUSH1 0x4 ADD PUSH2 0x3C9 SWAP1 PUSH2 0xB64 JUMP JUMPDEST PUSH1 0x40 MLOAD DUP1 SWAP2 SUB SWAP1 REVERT JUMPDEST DUP2 PUSH1 0x5 PUSH0 DUP7 PUSH20 0xFFFFFFFFFFFFFFFFFFFFFFFFFFFFFFFFFFFFFFFF AND PUSH20 0xFFFFFFFFFFFFFFFFFFFFFFFFFFFFFFFFFFFFFFFF AND DUP2 MSTORE PUSH1 0x20 ADD SWAP1 DUP2 MSTORE PUSH1 0x20 ADD PUSH0 KECCAK256 PUSH0 CALLER PUSH20 0xFFFFFFFFFFFFFFFFFFFFFFFFFFFFFFFFFFFFFFFF AND PUSH20 0xFFFFFFFFFFFFFFFFFFFFFFFFFFFFFFFFFFFFFFFF AND DUP2 MSTORE PUSH1 0x20 ADD SWAP1 DUP2 MSTORE PUSH1 0x20 ADD PUSH0 KECCAK256 SLOAD LT ISZERO PUSH2 0x48D JUMPI PUSH1 0x40 MLOAD PUSH32 0x8C379A000000000000000000000000000000000000000000000000000000000 DUP2 MSTORE PUSH1 0x4 ADD PUSH2 0x484 SWAP1 PUSH2 0xBCC JUMP JUMPDEST PUSH1 0x40 MLOAD DUP1 SWAP2 SUB SWAP1 REVERT JUMPDEST DUP2 PUSH1 0x4 PUSH0 DUP7 PUSH20 0xFFFFFFFFFFFFFFFFFFFFFFFFFFFFFFFFFFFFFFFF AND PUSH20 0xFFFFFFFFFFFFFFFFFFFFFFFFFFFFFFFFFFFFFFFF AND DUP2 MSTORE PUSH1 0x20 ADD SWAP1 DUP2 MSTORE PUSH1 0x20 ADD PUSH0 KECCAK256 PUSH0 DUP3 DUP3 SLOAD PUSH2 0x4D9 SWAP2 SWAP1 PUSH2 0xC17 JUMP JUMPDEST SWAP3 POP POP DUP2 SWAP1 SSTORE POP DUP2 PUSH1 0x4 PUSH0 DUP6 PUSH20 0xFFFFFFFFFFFFFFFFFFFFFFFFFFFFFFFFFFFFFFFF AND PUSH20 0xFFFFFFFFFFFFFFFFFFFFFFFFFFFFFFFFFFFFFFFF AND DUP2 MSTORE PUSH1 0x20 ADD SWAP1 DUP2 MSTORE PUSH1 0x20 ADD PUSH0 KECCAK256 PUSH0 DUP3 DUP3 SLOAD PUSH2 0x52C SWAP2 SWAP1 PUSH2 0xC4A JUMP JUMPDEST SWAP3 POP POP DUP2 SWAP1 SSTORE POP DUP2 PUSH1 0x5 PUSH0 DUP7 PUSH20 0xFFFFFFFFFFFFFFFFFFFFFFFFFFFFFFFFFFFFFFFF AND PUSH20 0xFFFFFFFFFFFFFFFFFFFFFFFFFFFFFFFFFFFFFFFF AND DUP2 MSTORE PUSH1 0x20 ADD SWAP1 DUP2 MSTORE PUSH1 0x20 ADD PUSH0 KECCAK256 PUSH0 CALLER PUSH20 0xFFFFFFFFFFFFFFFFFFFFFFFFFFFFFFFFFFFFFFFF AND PUSH20 0xFFFFFFFFFFFFFFFFFFFFFFFFFFFFFFFFFFFFFFFF AND DUP2 MSTORE PUSH1 0x20 ADD SWAP1 DUP2 MSTORE PUSH1 0x20 ADD PUSH0 KECCAK256 PUSH0 DUP3 DUP3 SLOAD PUSH2 0x5BA SWAP2 SWAP1 PUSH2 0xC17 JUMP JUMPDEST SWAP3 POP POP DUP2 SWAP1 SSTORE POP PUSH1 0x1 SWAP1 POP SWAP4 SWAP3 POP POP POP JUMP JUMPDEST PUSH1 0x4 PUSH1 0x20 MSTORE DUP1 PUSH0 MSTORE PUSH1 0x40 PUSH0 KECCAK256 PUSH0 SWAP2 POP SWAP1 POP SLOAD DUP2 JUMP JUMPDEST PUSH1 0x2 PUSH0 SWAP1 SLOAD SWAP1 PUSH2 0x100 EXP SWAP1 DIV PUSH1 0xFF AND DUP2 JUMP JUMPDEST PUSH1 0x5 PUSH1 0x20 MSTORE DUP2 PUSH0 MSTORE PUSH1 0x40 PUSH0 KECCAK256 PUSH1 0x20 MSTORE DUP1 PUSH0 MSTORE PUSH1 0x40 PUSH0 KECCAK256 PUSH0 SWAP2 POP SWAP2 POP POP SLOAD DUP2 JUMP JUMPDEST PUSH0 PUSH1 0x4 PUSH0 DUP4 PUSH20 0xFFFFFFFFFFFFFFFFFFFFFFFFFFFFFFFFFFFFFFFF AND PUSH20 0xFFFFFFFFFFFFFFFFFFFFFFFFFFFFFFFFFFFFFFFF AND DUP2 MSTORE PUSH1 0x20 ADD SWAP1 DUP2 MSTORE PUSH1 0x20 ADD PUSH0 KECCAK256 SLOAD SWAP1 POP SWAP2 SWAP1 POP JUMP JUMPDEST PUSH1 0x1 DUP1 SLOAD PUSH2 0x666 SWAP1 PUSH2 0xAEA JUMP JUMPDEST DUP1 PUSH1 0x1F ADD PUSH1 0x20 DUP1 SWAP2 DIV MUL PUSH1 0x20 ADD PUSH1 0x40 MLOAD SWAP1 DUP2 ADD PUSH1 0x40 MSTORE DUP1 SWAP3 SWAP2 SWAP1 DUP2 DUP2 MSTORE PUSH1 0x20 ADD DUP3 DUP1 SLOAD PUSH2 0x692 SWAP1 PUSH2 0xAEA JUMP JUMPDEST DUP1 ISZERO PUSH2 0x6DD JUMPI DUP1 PUSH1 0x1F LT PUSH2 0x6B4 JUMPI PUSH2 0x100 DUP1 DUP4 SLOAD DIV MUL DUP4 MSTORE SWAP2 PUSH1 0x20 ADD SWAP2 PUSH2 0x6DD JUMP JUMPDEST DUP3 ADD SWAP2 SWAP1 PUSH0 MSTORE PUSH1 0x20 PUSH0 KECCAK256 SWAP1 JUMPDEST DUP2 SLOAD DUP2 MSTORE SWAP1 PUSH1 0x1 ADD SWAP1 PUSH1 0x20 ADD DUP1 DUP4 GT PUSH2 0x6C0 JUMPI DUP3 SWAP1 SUB PUSH1 0x1F AND DUP3 ADD SWAP2 JUMPDEST POP POP POP POP POP DUP2 JUMP JUMPDEST PUSH0 DUP2 PUSH1 0x4 PUSH0 CALLER PUSH20 0xFFFFFFFFFFFFFFFFFFFFFFFFFFFFFFFFFFFFFFFF AND PUSH20 0xFFFFFFFFFFFFFFFFFFFFFFFFFFFFFFFFFFFFFFFF AND DUP2 MSTORE PUSH1 0x20 ADD SWAP1 DUP2 MSTORE PUSH1 0x20 ADD PUSH0 KECCAK256 SLOAD LT ISZERO PUSH2 0x766 JUMPI PUSH1 0x40 MLOAD PUSH32 0x8C379A000000000000000000000000000000000000000000000000000000000 DUP2 MSTORE PUSH1 0x4 ADD PUSH2 0x75D SWAP1 PUSH2 0xB64 JUMP JUMPDEST PUSH1 0x40 MLOAD DUP1 SWAP2 SUB SWAP1 REVERT JUMPDEST DUP2 PUSH1 0x4 PUSH0 CALLER PUSH20 0xFFFFFFFFFFFFFFFFFFFFFFFFFFFFFFFFFFFFFFFF AND PUSH20 0xFFFFFFFFFFFFFFFFFFFFFFFFFFFFFFFFFFFFFFFF AND DUP2 MSTORE PUSH1 0x20 ADD SWAP1 DUP2 MSTORE PUSH1 0x20 ADD PUSH0 KECCAK256 PUSH0 DUP3 DUP3 SLOAD PUSH2 0x7B2 SWAP2 SWAP1 PUSH2 0xC17 JUMP JUMPDEST SWAP3 POP POP DUP2 SWAP1 SSTORE POP DUP2 PUSH1 0x4 PUSH0 DUP6 PUSH20 0xFFFFFFFFFFFFFFFFFFFFFFFFFFFFFFFFFFFFFFFF AND PUSH20 0xFFFFFFFFFFFFFFFFFFFFFFFFFFFFFFFFFFFFFFFF AND DUP2 MSTORE PUSH1 0x20 ADD SWAP1 DUP2 MSTORE PUSH1 0x20 ADD PUSH0 KECCAK256 PUSH0 DUP3 DUP3 SLOAD PUSH2 0x805 SWAP2 SWAP1 PUSH2 0xC4A JUMP JUMPDEST SWAP3 POP POP DUP2 SWAP1 SSTORE POP PUSH1 0x1 SWAP1 POP SWAP3 SWAP2 POP POP JUMP JUMPDEST PUSH0 DUP2 MLOAD SWAP1 POP SWAP2 SWAP1 POP JUMP JUMPDEST PUSH0 DUP3 DUP3 MSTORE PUSH1 0x20 DUP3 ADD SWAP1 POP SWAP3 SWAP2 POP POP JUMP JUMPDEST DUP3 DUP2 DUP4 MCOPY PUSH0 DUP4 DUP4 ADD MSTORE POP POP POP JUMP JUMPDEST PUSH0 PUSH1 0x1F NOT PUSH1 0x1F DUP4 ADD AND SWAP1 POP SWAP2 SWAP1 POP JUMP JUMPDEST PUSH0 PUSH2 0x858 DUP3 PUSH2 0x816 JUMP JUMPDEST PUSH2 0x862 DUP2 DUP6 PUSH2 0x820 JUMP JUMPDEST SWAP4 POP PUSH2 0x872 DUP2 DUP6 PUSH1 0x20 DUP7 ADD PUSH2 0x830 JUMP JUMPDEST PUSH2 0x87B DUP2 PUSH2 0x83E JUMP JUMPDEST DUP5 ADD SWAP2 POP POP SWAP3 SWAP2 POP POP JUMP JUMPDEST PUSH0 PUSH1 0x20 DUP3 ADD SWAP1 POP DUP2 DUP2 SUB PUSH0 DUP4 ADD MSTORE PUSH2 0x89E DUP2 DUP5 PUSH2 0x84E JUMP JUMPDEST SWAP1 POP SWAP3 SWAP2 POP POP JUMP JUMPDEST PUSH0 DUP1 REVERT JUMPDEST PUSH0 PUSH20 0xFFFFFFFFFFFFFFFFFFFFFFFFFFFFFFFFFFFFFFFF DUP3 AND SWAP1 POP SWAP2 SWAP1 POP JUMP JUMPDEST PUSH0 PUSH2 0x8D3 DUP3 PUSH2 0x8AA JUMP JUMPDEST SWAP1 POP SWAP2 SWAP1 POP JUMP JUMPDEST PUSH2 0x8E3 DUP2 PUSH2 0x8C9 JUMP JUMPDEST DUP2 EQ PUSH2 0x8ED JUMPI PUSH0 DUP1 REVERT JUMPDEST POP JUMP JUMPDEST PUSH0 DUP2 CALLDATALOAD SWAP1 POP PUSH2 0x8FE DUP2 PUSH2 0x8DA JUMP JUMPDEST SWAP3 SWAP2 POP POP JUMP JUMPDEST PUSH0 DUP2 SWAP1 POP SWAP2 SWAP1 POP JUMP JUMPDEST PUSH2 0x916 DUP2 PUSH2 0x904 JUMP JUMPDEST DUP2 EQ PUSH2 0x920 JUMPI PUSH0 DUP1 REVERT JUMPDEST POP JUMP JUMPDEST PUSH0 DUP2 CALLDATALOAD SWAP1 POP PUSH2 0x931 DUP2 PUSH2 0x90D JUMP JUMPDEST SWAP3 SWAP2 POP POP JUMP JUMPDEST PUSH0 DUP1 PUSH1 0x40 DUP4 DUP6 SUB SLT ISZERO PUSH2 0x94D JUMPI PUSH2 0x94C PUSH2 0x8A6 JUMP JUMPDEST JUMPDEST PUSH0 PUSH2 0x95A DUP6 DUP3 DUP7 ADD PUSH2 0x8F0 JUMP JUMPDEST SWAP3 POP POP PUSH1 0x20 PUSH2 0x96B DUP6 DUP3 DUP7 ADD PUSH2 0x923 JUMP JUMPDEST SWAP2 POP POP SWAP3 POP SWAP3 SWAP1 POP JUMP JUMPDEST PUSH0 DUP2 ISZERO ISZERO SWAP1 POP SWAP2 SWAP1 POP JUMP JUMPDEST PUSH2 0x989 DUP2 PUSH2 0x975 JUMP JUMPDEST DUP3 MSTORE POP POP JUMP JUMPDEST PUSH0 PUSH1 0x20 DUP3 ADD SWAP1 POP PUSH2 0x9A2 PUSH0 DUP4 ADD DUP5 PUSH2 0x980 JUMP JUMPDEST SWAP3 SWAP2 POP POP JUMP JUMPDEST PUSH2 0x9B1 DUP2 PUSH2 0x904 JUMP JUMPDEST DUP3 MSTORE POP POP JUMP JUMPDEST PUSH0 PUSH1 0x20 DUP3 ADD SWAP1 POP PUSH2 0x9CA PUSH0 DUP4 ADD DUP5 PUSH2 0x9A8 JUMP JUMPDEST SWAP3 SWAP2 POP POP JUMP JUMPDEST PUSH0 DUP1 PUSH0 PUSH1 0x60 DUP5 DUP7 SUB SLT ISZERO PUSH2 0x9E7 JUMPI PUSH2 0x9E6 PUSH2 0x8A6 JUMP JUMPDEST JUMPDEST PUSH0 PUSH2 0x9F4 DUP7 DUP3 DUP8 ADD PUSH2 0x8F0 JUMP JUMPDEST SWAP4 POP POP PUSH1 0x20 PUSH2 0xA05 DUP7 DUP3 DUP8 ADD PUSH2 0x8F0 JUMP JUMPDEST SWAP3 POP POP PUSH1 0x40 PUSH2 0xA16 DUP7 DUP3 DUP8 ADD PUSH2 0x923 JUMP JUMPDEST SWAP2 POP POP SWAP3 POP SWAP3 POP SWAP3 JUMP JUMPDEST PUSH0 PUSH1 0x20 DUP3 DUP5 SUB SLT ISZERO PUSH2 0xA35 JUMPI PUSH2 0xA34 PUSH2 0x8A6 JUMP JUMPDEST JUMPDEST PUSH0 PUSH2 0xA42 DUP5 DUP3 DUP6 ADD PUSH2 0x8F0 JUMP JUMPDEST SWAP2 POP POP SWAP3 SWAP2 POP POP JUMP JUMPDEST PUSH0 PUSH1 0xFF DUP3 AND SWAP1 POP SWAP2 SWAP1 POP JUMP JUMPDEST PUSH2 0xA60 DUP2 PUSH2 0xA4B JUMP JUMPDEST DUP3 MSTORE POP POP JUMP JUMPDEST PUSH0 PUSH1 0x20 DUP3 ADD SWAP1 POP PUSH2 0xA79 PUSH0 DUP4 ADD DUP5 PUSH2 0xA57 JUMP JUMPDEST SWAP3 SWAP2 POP POP JUMP JUMPDEST PUSH0 DUP1 PUSH1 0x40 DUP4 DUP6 SUB SLT ISZERO PUSH2 0xA95 JUMPI PUSH2 0xA94 PUSH2 0x8A6 JUMP JUMPDEST JUMPDEST PUSH0 PUSH2 0xAA2 DUP6 DUP3 DUP7 ADD PUSH2 0x8F0 JUMP JUMPDEST SWAP3 POP POP PUSH1 0x20 PUSH2 0xAB3 DUP6 DUP3 DUP7 ADD PUSH2 0x8F0 JUMP JUMPDEST SWAP2 POP POP SWAP3 POP SWAP3 SWAP1 POP JUMP JUMPDEST PUSH32 0x4E487B7100000000000000000000000000000000000000000000000000000000 PUSH0 MSTORE PUSH1 0x22 PUSH1 0x4 MSTORE PUSH1 0x24 PUSH0 REVERT JUMPDEST PUSH0 PUSH1 0x2 DUP3 DIV SWAP1 POP PUSH1 0x1 DUP3 AND DUP1 PUSH2 0xB01 JUMPI PUSH1 0x7F DUP3 AND SWAP2 POP JUMPDEST PUSH1 0x20 DUP3 LT DUP2 SUB PUSH2 0xB14 JUMPI PUSH2 0xB13 PUSH2 0xABD JUMP JUMPDEST JUMPDEST POP SWAP2 SWAP1 POP JUMP JUMPDEST PUSH32 0x496E73756666696369656E742062616C616E6365000000000000000000000000 PUSH0 DUP3 ADD MSTORE POP JUMP JUMPDEST PUSH0 PUSH2 0xB4E PUSH1 0x14 DUP4 PUSH2 0x820 JUMP JUMPDEST SWAP2 POP PUSH2 0xB59 DUP3 PUSH2 0xB1A JUMP JUMPDEST PUSH1 0x20 DUP3 ADD SWAP1 POP SWAP2 SWAP1 POP JUMP JUMPDEST PUSH0 PUSH1 0x20 DUP3 ADD SWAP1 POP DUP2 DUP2 SUB PUSH0 DUP4 ADD MSTORE PUSH2 0xB7B DUP2 PUSH2 0xB42 JUMP JUMPDEST SWAP1 POP SWAP2 SWAP1 POP JUMP JUMPDEST PUSH32 0x416C6C6F77616E63652065786365656465640000000000000000000000000000 PUSH0 DUP3 ADD MSTORE POP JUMP JUMPDEST PUSH0 PUSH2 0xBB6 PUSH1 0x12 DUP4 PUSH2 0x820 JUMP JUMPDEST SWAP2 POP PUSH2 0xBC1 DUP3 PUSH2 0xB82 JUMP JUMPDEST PUSH1 0x20 DUP3 ADD SWAP1 POP SWAP2 SWAP1 POP JUMP JUMPDEST PUSH0 PUSH1 0x20 DUP3 ADD SWAP1 POP DUP2 DUP2 SUB PUSH0 DUP4 ADD MSTORE PUSH2 0xBE3 DUP2 PUSH2 0xBAA JUMP JUMPDEST SWAP1 POP SWAP2 SWAP1 POP JUMP JUMPDEST PUSH32 0x4E487B7100000000000000000000000000000000000000000000000000000000 PUSH0 MSTORE PUSH1 0x11 PUSH1 0x4 MSTORE PUSH1 0x24 PUSH0 REVERT JUMPDEST PUSH0 PUSH2 0xC21 DUP3 PUSH2 0x904 JUMP JUMPDEST SWAP2 POP PUSH2 0xC2C DUP4 PUSH2 0x904 JUMP JUMPDEST SWAP3 POP DUP3 DUP3 SUB SWAP1 POP DUP2 DUP2 GT ISZERO PUSH2 0xC44 JUMPI PUSH2 0xC43 PUSH2 0xBEA JUMP JUMPDEST JUMPDEST SWAP3 SWAP2 POP POP JUMP JUMPDEST PUSH0 PUSH2 0xC54 DUP3 PUSH2 0x904 JUMP JUMPDEST SWAP2 POP PUSH2 0xC5F DUP4 PUSH2 0x904 JUMP JUMPDEST SWAP3 POP DUP3 DUP3 ADD SWAP1 POP DUP1 DUP3 GT ISZERO PUSH2 0xC77 JUMPI PUSH2 0xC76 PUSH2 0xBEA JUMP JUMPDEST JUMPDEST SWAP3 SWAP2 POP POP JUMP INVALID LOG2 PUSH5 0x6970667358 0x22 SLT KECCAK256 0x4B DUP12 0xBC 0xE9 LT 0xCD GAS 0xA9 RETURN EXTCODECOPY 0x4E 0x23 SWAP11 0x21 0xCB DUP13 PUSH15 0xAA0AFF73437A99308D5B539EA6C5AB PUSH5 0x736F6C6343 STOP ADDMOD BYTE STOP CALLER "
				},
				"gasEstimates": {
					"creation": {
						"codeDepositCost": "650200",
						"executionCost": "infinite",
						"totalCost": "infinite"
					},
					"external": {
						"allowed(address,address)": "infinite",
						"approve(address,uint256)": "23130",
						"balanceOf(address)": "2873",
						"balances(address)": "2891",
						"decimals()": "2466",
						"name()": "infinite",
						"symbol()": "infinite",
						"totalSupply()": "2470",
						"transfer(address,uint256)": "infinite",
						"transferFrom(address,address,uint256)": "infinite"
					}
				},
				"methodIdentifiers": {
					"allowed(address,address)": "5c658165",
					"approve(address,uint256)": "095ea7b3",
					"balanceOf(address)": "70a08231",
					"balances(address)": "27e235e3",
					"decimals()": "313ce567",
					"name()": "06fdde03",
					"symbol()": "95d89b41",
					"totalSupply()": "18160ddd",
					"transfer(address,uint256)": "a9059cbb",
					"transferFrom(address,address,uint256)": "23b872dd"
				}
			},
			"storageLayout": {
				"storage": [
					{
						"astId": 7,
						"contract": "contracts/AnotherToken.sol:AnotherToken",
						"label": "name",
						"offset": 0,
						"slot": "0",
						"type": "t_string_storage"
					},
					{
						"astId": 10,
						"contract": "contracts/AnotherToken.sol:AnotherToken",
						"label": "symbol",
						"offset": 0,
						"slot": "1",
						"type": "t_string_storage"
					},
					{
						"astId": 13,
						"contract": "contracts/AnotherToken.sol:AnotherToken",
						"label": "decimals",
						"offset": 0,
						"slot": "2",
						"type": "t_uint8"
					},
					{
						"astId": 15,
						"contract": "contracts/AnotherToken.sol:AnotherToken",
						"label": "totalSupply",
						"offset": 0,
						"slot": "3",
						"type": "t_uint256"
					},
					{
						"astId": 19,
						"contract": "contracts/AnotherToken.sol:AnotherToken",
						"label": "balances",
						"offset": 0,
						"slot": "4",
						"type": "t_mapping(t_address,t_uint256)"
					},
					{
						"astId": 25,
						"contract": "contracts/AnotherToken.sol:AnotherToken",
						"label": "allowed",
						"offset": 0,
						"slot": "5",
						"type": "t_mapping(t_address,t_mapping(t_address,t_uint256))"
					}
				],
				"types": {
					"t_address": {
						"encoding": "inplace",
						"label": "address",
						"numberOfBytes": "20"
					},
					"t_mapping(t_address,t_mapping(t_address,t_uint256))": {
						"encoding": "mapping",
						"key": "t_address",
						"label": "mapping(address => mapping(address => uint256))",
						"numberOfBytes": "32",
						"value": "t_mapping(t_address,t_uint256)"
					},
					"t_mapping(t_address,t_uint256)": {
						"encoding": "mapping",
						"key": "t_address",
						"label": "mapping(address => uint256)",
						"numberOfBytes": "32",
						"value": "t_uint256"
					},
					"t_string_storage": {
						"encoding": "bytes",
						"label": "string",
						"numberOfBytes": "32"
					},
					"t_uint256": {
						"encoding": "inplace",
						"label": "uint256",
						"numberOfBytes": "32"
					},
					"t_uint8": {
						"encoding": "inplace",
						"label": "uint8",
						"numberOfBytes": "1"
					}
				}
			},
			"userdoc": {
				"kind": "user",
				"methods": {},
				"version": 1
			}
		}
	}
}