{
	"contracts/MileExchangeBetweenUsers.sol": {
		"MileExchangeBetweenUsers": {
			"abi": [
				{
					"inputs": [
						{
							"internalType": "contract MileSystem",
							"name": "_mileSystem",
							"type": "address"
						}
					],
					"stateMutability": "nonpayable",
					"type": "constructor"
				},
				{
					"anonymous": false,
					"inputs": [
						{
							"indexed": false,
							"internalType": "uint256",
							"name": "offerId",
							"type": "uint256"
						},
						{
							"indexed": true,
							"internalType": "address",
							"name": "offerer",
							"type": "address"
						},
						{
							"indexed": true,
							"internalType": "address",
							"name": "acceptor",
							"type": "address"
						},
						{
							"indexed": false,
							"internalType": "uint256",
							"name": "amount",
							"type": "uint256"
						}
					],
					"name": "OfferAccepted",
					"type": "event"
				},
				{
					"anonymous": false,
					"inputs": [
						{
							"indexed": false,
							"internalType": "uint256",
							"name": "offerId",
							"type": "uint256"
						},
						{
							"indexed": true,
							"internalType": "address",
							"name": "offerer",
							"type": "address"
						}
					],
					"name": "OfferCancelled",
					"type": "event"
				},
				{
					"anonymous": false,
					"inputs": [
						{
							"indexed": false,
							"internalType": "uint256",
							"name": "offerId",
							"type": "uint256"
						},
						{
							"indexed": true,
							"internalType": "address",
							"name": "offerer",
							"type": "address"
						},
						{
							"indexed": false,
							"internalType": "uint256",
							"name": "amount",
							"type": "uint256"
						},
						{
							"indexed": true,
							"internalType": "address",
							"name": "requestedFrom",
							"type": "address"
						}
					],
					"name": "OfferCreated",
					"type": "event"
				},
				{
					"inputs": [
						{
							"internalType": "uint256",
							"name": "_offerId",
							"type": "uint256"
						}
					],
					"name": "acceptOffer",
					"outputs": [],
					"stateMutability": "nonpayable",
					"type": "function"
				},
				{
					"inputs": [
						{
							"internalType": "uint256",
							"name": "_offerId",
							"type": "uint256"
						}
					],
					"name": "cancelOffer",
					"outputs": [],
					"stateMutability": "nonpayable",
					"type": "function"
				},
				{
					"inputs": [
						{
							"internalType": "uint256",
							"name": "_amount",
							"type": "uint256"
						},
						{
							"internalType": "address",
							"name": "_requestedFrom",
							"type": "address"
						}
					],
					"name": "createOffer",
					"outputs": [],
					"stateMutability": "nonpayable",
					"type": "function"
				},
				{
					"inputs": [],
					"name": "getOffers",
					"outputs": [
						{
							"components": [
								{
									"internalType": "address",
									"name": "offerer",
									"type": "address"
								},
								{
									"internalType": "uint256",
									"name": "amount",
									"type": "uint256"
								},
								{
									"internalType": "address",
									"name": "requestedFrom",
									"type": "address"
								}
							],
							"internalType": "struct MileExchangeBetweenUsers.Offer[]",
							"name": "",
							"type": "tuple[]"
						}
					],
					"stateMutability": "view",
					"type": "function"
				},
				{
					"inputs": [],
					"name": "mileSystem",
					"outputs": [
						{
							"internalType": "contract MileSystem",
							"name": "",
							"type": "address"
						}
					],
					"stateMutability": "view",
					"type": "function"
				},
				{
					"inputs": [
						{
							"internalType": "uint256",
							"name": "",
							"type": "uint256"
						}
					],
					"name": "offers",
					"outputs": [
						{
							"internalType": "address",
							"name": "offerer",
							"type": "address"
						},
						{
							"internalType": "uint256",
							"name": "amount",
							"type": "uint256"
						},
						{
							"internalType": "address",
							"name": "requestedFrom",
							"type": "address"
						}
					],
					"stateMutability": "view",
					"type": "function"
				}
			],
			"devdoc": {
				"kind": "dev",
				"methods": {},
				"version": 1
			},
			"evm": {
				"assembly": "    /* \"contracts/MileExchangeBetweenUsers.sol\":1841:4044  contract MileExchangeBetweenUsers {\r... */\n  mstore(0x40, 0x80)\n    /* \"contracts/MileExchangeBetweenUsers.sol\":2356:2435  constructor(MileSystem _mileSystem) {\r... */\n  callvalue\n  dup1\n  iszero\n  tag_1\n  jumpi\n  0x00\n  dup1\n  revert\ntag_1:\n  pop\n  mload(0x40)\n  sub(codesize, bytecodeSize)\n  dup1\n  bytecodeSize\n  dup4\n  codecopy\n  dup2\n  dup2\n  add\n  0x40\n  mstore\n  dup2\n  add\n  swap1\n  tag_2\n  swap2\n  swap1\n  tag_3\n  jump\t// in\ntag_2:\n    /* \"contracts/MileExchangeBetweenUsers.sol\":2416:2427  _mileSystem */\n  dup1\n    /* \"contracts/MileExchangeBetweenUsers.sol\":2403:2413  mileSystem */\n  0x00\n  dup1\n    /* \"contracts/MileExchangeBetweenUsers.sol\":2403:2427  mileSystem = _mileSystem */\n  0x0100\n  exp\n  dup2\n  sload\n  dup2\n  0xffffffffffffffffffffffffffffffffffffffff\n  mul\n  not\n  and\n  swap1\n  dup4\n  0xffffffffffffffffffffffffffffffffffffffff\n  and\n  mul\n  or\n  swap1\n  sstore\n  pop\n    /* \"contracts/MileExchangeBetweenUsers.sol\":2356:2435  constructor(MileSystem _mileSystem) {\r... */\n  pop\n    /* \"contracts/MileExchangeBetweenUsers.sol\":1841:4044  contract MileExchangeBetweenUsers {\r... */\n  jump(tag_6)\n    /* \"#utility.yul\":7:186   */\ntag_8:\n    /* \"#utility.yul\":82:87   */\n  0x00\n    /* \"#utility.yul\":113:119   */\n  dup2\n    /* \"#utility.yul\":107:120   */\n  mload\n    /* \"#utility.yul\":98:120   */\n  swap1\n  pop\n    /* \"#utility.yul\":129:180   */\n  tag_10\n    /* \"#utility.yul\":174:179   */\n  dup2\n    /* \"#utility.yul\":129:180   */\n  tag_11\n  jump\t// in\ntag_10:\n    /* \"#utility.yul\":7:186   */\n  swap3\n  swap2\n  pop\n  pop\n  jump\t// out\n    /* \"#utility.yul\":192:579   */\ntag_3:\n    /* \"#utility.yul\":280:286   */\n  0x00\n    /* \"#utility.yul\":329:331   */\n  0x20\n    /* \"#utility.yul\":317:326   */\n  dup3\n    /* \"#utility.yul\":308:315   */\n  dup5\n    /* \"#utility.yul\":304:327   */\n  sub\n    /* \"#utility.yul\":300:332   */\n  slt\n    /* \"#utility.yul\":297:416   */\n  iszero\n  tag_13\n  jumpi\n    /* \"#utility.yul\":335:414   */\n  tag_14\n  tag_15\n  jump\t// in\ntag_14:\n    /* \"#utility.yul\":297:416   */\ntag_13:\n    /* \"#utility.yul\":455:456   */\n  0x00\n    /* \"#utility.yul\":480:562   */\n  tag_16\n    /* \"#utility.yul\":554:561   */\n  dup5\n    /* \"#utility.yul\":545:551   */\n  dup3\n    /* \"#utility.yul\":534:543   */\n  dup6\n    /* \"#utility.yul\":530:552   */\n  add\n    /* \"#utility.yul\":480:562   */\n  tag_8\n  jump\t// in\ntag_16:\n    /* \"#utility.yul\":470:562   */\n  swap2\n  pop\n    /* \"#utility.yul\":426:572   */\n  pop\n    /* \"#utility.yul\":192:579   */\n  swap3\n  swap2\n  pop\n  pop\n  jump\t// out\n    /* \"#utility.yul\":666:762   */\ntag_19:\n    /* \"#utility.yul\":703:710   */\n  0x00\n    /* \"#utility.yul\":732:756   */\n  tag_21\n    /* \"#utility.yul\":750:755   */\n  dup3\n    /* \"#utility.yul\":732:756   */\n  tag_22\n  jump\t// in\ntag_21:\n    /* \"#utility.yul\":721:756   */\n  swap1\n  pop\n    /* \"#utility.yul\":666:762   */\n  swap2\n  swap1\n  pop\n  jump\t// out\n    /* \"#utility.yul\":768:882   */\ntag_23:\n    /* \"#utility.yul\":823:830   */\n  0x00\n    /* \"#utility.yul\":852:876   */\n  tag_25\n    /* \"#utility.yul\":870:875   */\n  dup3\n    /* \"#utility.yul\":852:876   */\n  tag_19\n  jump\t// in\ntag_25:\n    /* \"#utility.yul\":841:876   */\n  swap1\n  pop\n    /* \"#utility.yul\":768:882   */\n  swap2\n  swap1\n  pop\n  jump\t// out\n    /* \"#utility.yul\":888:1014   */\ntag_22:\n    /* \"#utility.yul\":925:932   */\n  0x00\n    /* \"#utility.yul\":965:1007   */\n  0xffffffffffffffffffffffffffffffffffffffff\n    /* \"#utility.yul\":958:963   */\n  dup3\n    /* \"#utility.yul\":954:1008   */\n  and\n    /* \"#utility.yul\":943:1008   */\n  swap1\n  pop\n    /* \"#utility.yul\":888:1014   */\n  swap2\n  swap1\n  pop\n  jump\t// out\n    /* \"#utility.yul\":1143:1260   */\ntag_15:\n    /* \"#utility.yul\":1252:1253   */\n  0x00\n    /* \"#utility.yul\":1249:1250   */\n  dup1\n    /* \"#utility.yul\":1242:1254   */\n  revert\n    /* \"#utility.yul\":1266:1424   */\ntag_11:\n    /* \"#utility.yul\":1357:1399   */\n  tag_31\n    /* \"#utility.yul\":1393:1398   */\n  dup2\n    /* \"#utility.yul\":1357:1399   */\n  tag_23\n  jump\t// in\ntag_31:\n    /* \"#utility.yul\":1350:1355   */\n  dup2\n    /* \"#utility.yul\":1347:1400   */\n  eq\n    /* \"#utility.yul\":1337:1418   */\n  tag_32\n  jumpi\n    /* \"#utility.yul\":1414:1415   */\n  0x00\n    /* \"#utility.yul\":1411:1412   */\n  dup1\n    /* \"#utility.yul\":1404:1416   */\n  revert\n    /* \"#utility.yul\":1337:1418   */\ntag_32:\n    /* \"#utility.yul\":1266:1424   */\n  pop\n  jump\t// out\n    /* \"contracts/MileExchangeBetweenUsers.sol\":1841:4044  contract MileExchangeBetweenUsers {\r... */\ntag_6:\n  dataSize(sub_0)\n  dup1\n  dataOffset(sub_0)\n  0x00\n  codecopy\n  0x00\n  return\nstop\n\nsub_0: assembly {\n        /* \"contracts/MileExchangeBetweenUsers.sol\":1841:4044  contract MileExchangeBetweenUsers {\r... */\n      mstore(0x40, 0x80)\n      callvalue\n      dup1\n      iszero\n      tag_1\n      jumpi\n      0x00\n      dup1\n      revert\n    tag_1:\n      pop\n      jumpi(tag_2, lt(calldatasize, 0x04))\n      shr(0xe0, calldataload(0x00))\n      dup1\n      0x283eddaf\n      eq\n      tag_3\n      jumpi\n      dup1\n      0x36fabbc2\n      eq\n      tag_4\n      jumpi\n      dup1\n      0x3ee992ee\n      eq\n      tag_5\n      jumpi\n      dup1\n      0x8a72ea6a\n      eq\n      tag_6\n      jumpi\n      dup1\n      0xc815729d\n      eq\n      tag_7\n      jumpi\n      dup1\n      0xef706adf\n      eq\n      tag_8\n      jumpi\n    tag_2:\n      0x00\n      dup1\n      revert\n        /* \"contracts/MileExchangeBetweenUsers.sol\":2443:2827  function createOffer(uint256 _amount, address _requestedFrom) public {\r... */\n    tag_3:\n      tag_9\n      0x04\n      dup1\n      calldatasize\n      sub\n      dup2\n      add\n      swap1\n      tag_10\n      swap2\n      swap1\n      tag_11\n      jump\t// in\n    tag_10:\n      tag_12\n      jump\t// in\n    tag_9:\n      stop\n        /* \"contracts/MileExchangeBetweenUsers.sol\":1882:1910  MileSystem public mileSystem */\n    tag_4:\n      tag_13\n      tag_14\n      jump\t// in\n    tag_13:\n      mload(0x40)\n      tag_15\n      swap2\n      swap1\n      tag_16\n      jump\t// in\n    tag_15:\n      mload(0x40)\n      dup1\n      swap2\n      sub\n      swap1\n      return\n        /* \"contracts/MileExchangeBetweenUsers.sol\":3951:4041  function getOffers() public view returns (Offer[] memory) {\r... */\n    tag_5:\n      tag_17\n      tag_18\n      jump\t// in\n    tag_17:\n      mload(0x40)\n      tag_19\n      swap2\n      swap1\n      tag_20\n      jump\t// in\n    tag_19:\n      mload(0x40)\n      dup1\n      swap2\n      sub\n      swap1\n      return\n        /* \"contracts/MileExchangeBetweenUsers.sol\":2031:2052  Offer[] public offers */\n    tag_6:\n      tag_21\n      0x04\n      dup1\n      calldatasize\n      sub\n      dup2\n      add\n      swap1\n      tag_22\n      swap2\n      swap1\n      tag_23\n      jump\t// in\n    tag_22:\n      tag_24\n      jump\t// in\n    tag_21:\n      mload(0x40)\n      tag_25\n      swap4\n      swap3\n      swap2\n      swap1\n      tag_26\n      jump\t// in\n    tag_25:\n      mload(0x40)\n      dup1\n      swap2\n      sub\n      swap1\n      return\n        /* \"contracts/MileExchangeBetweenUsers.sol\":2835:3530  function acceptOffer(uint256 _offerId) public {\r... */\n    tag_7:\n      tag_27\n      0x04\n      dup1\n      calldatasize\n      sub\n      dup2\n      add\n      swap1\n      tag_28\n      swap2\n      swap1\n      tag_23\n      jump\t// in\n    tag_28:\n      tag_29\n      jump\t// in\n    tag_27:\n      stop\n        /* \"contracts/MileExchangeBetweenUsers.sol\":3538:3943  function cancelOffer(uint256 _offerId) public {\r... */\n    tag_8:\n      tag_30\n      0x04\n      dup1\n      calldatasize\n      sub\n      dup2\n      add\n      swap1\n      tag_31\n      swap2\n      swap1\n      tag_23\n      jump\t// in\n    tag_31:\n      tag_32\n      jump\t// in\n    tag_30:\n      stop\n        /* \"contracts/MileExchangeBetweenUsers.sol\":2443:2827  function createOffer(uint256 _amount, address _requestedFrom) public {\r... */\n    tag_12:\n        /* \"contracts/MileExchangeBetweenUsers.sol\":2567:2574  _amount */\n      dup2\n        /* \"contracts/MileExchangeBetweenUsers.sol\":2531:2541  mileSystem */\n      0x00\n      dup1\n      sload\n      swap1\n      0x0100\n      exp\n      swap1\n      div\n      0xffffffffffffffffffffffffffffffffffffffff\n      and\n        /* \"contracts/MileExchangeBetweenUsers.sol\":2531:2551  mileSystem.balanceOf */\n      0xffffffffffffffffffffffffffffffffffffffff\n      and\n      0x70a08231\n        /* \"contracts/MileExchangeBetweenUsers.sol\":2552:2562  msg.sender */\n      caller\n        /* \"contracts/MileExchangeBetweenUsers.sol\":2531:2563  mileSystem.balanceOf(msg.sender) */\n      mload(0x40)\n      dup3\n      0xffffffff\n      and\n      0xe0\n      shl\n      dup2\n      mstore\n      0x04\n      add\n      tag_34\n      swap2\n      swap1\n      tag_35\n      jump\t// in\n    tag_34:\n      0x20\n      mload(0x40)\n      dup1\n      dup4\n      sub\n      dup2\n      dup7\n      dup1\n      extcodesize\n      iszero\n      dup1\n      iszero\n      tag_36\n      jumpi\n      0x00\n      dup1\n      revert\n    tag_36:\n      pop\n      gas\n      staticcall\n      iszero\n      dup1\n      iszero\n      tag_38\n      jumpi\n      returndatasize\n      0x00\n      dup1\n      returndatacopy\n      revert(0x00, returndatasize)\n    tag_38:\n      pop\n      pop\n      pop\n      pop\n      mload(0x40)\n      returndatasize\n      not(0x1f)\n      0x1f\n      dup3\n      add\n      and\n      dup3\n      add\n      dup1\n      0x40\n      mstore\n      pop\n      dup2\n      add\n      swap1\n      tag_39\n      swap2\n      swap1\n      tag_40\n      jump\t// in\n    tag_39:\n        /* \"contracts/MileExchangeBetweenUsers.sol\":2531:2574  mileSystem.balanceOf(msg.sender) >= _amount */\n      lt\n      iszero\n        /* \"contracts/MileExchangeBetweenUsers.sol\":2523:2599  require(mileSystem.balanceOf(msg.sender) >= _amount, \"Insufficient balance\") */\n      tag_41\n      jumpi\n      mload(0x40)\n      0x08c379a000000000000000000000000000000000000000000000000000000000\n      dup2\n      mstore\n      0x04\n      add\n      tag_42\n      swap1\n      tag_43\n      jump\t// in\n    tag_42:\n      mload(0x40)\n      dup1\n      swap2\n      sub\n      swap1\n      revert\n    tag_41:\n        /* \"contracts/MileExchangeBetweenUsers.sol\":2610:2616  offers */\n      0x01\n        /* \"contracts/MileExchangeBetweenUsers.sol\":2622:2698  Offer({offerer: msg.sender, amount: _amount, requestedFrom: _requestedFrom}) */\n      mload(0x40)\n      dup1\n      0x60\n      add\n      0x40\n      mstore\n      dup1\n        /* \"contracts/MileExchangeBetweenUsers.sol\":2638:2648  msg.sender */\n      caller\n        /* \"contracts/MileExchangeBetweenUsers.sol\":2622:2698  Offer({offerer: msg.sender, amount: _amount, requestedFrom: _requestedFrom}) */\n      0xffffffffffffffffffffffffffffffffffffffff\n      and\n      dup2\n      mstore\n      0x20\n      add\n        /* \"contracts/MileExchangeBetweenUsers.sol\":2658:2665  _amount */\n      dup5\n        /* \"contracts/MileExchangeBetweenUsers.sol\":2622:2698  Offer({offerer: msg.sender, amount: _amount, requestedFrom: _requestedFrom}) */\n      dup2\n      mstore\n      0x20\n      add\n        /* \"contracts/MileExchangeBetweenUsers.sol\":2682:2696  _requestedFrom */\n      dup4\n        /* \"contracts/MileExchangeBetweenUsers.sol\":2622:2698  Offer({offerer: msg.sender, amount: _amount, requestedFrom: _requestedFrom}) */\n      0xffffffffffffffffffffffffffffffffffffffff\n      and\n      dup2\n      mstore\n      pop\n        /* \"contracts/MileExchangeBetweenUsers.sol\":2610:2699  offers.push(Offer({offerer: msg.sender, amount: _amount, requestedFrom: _requestedFrom})) */\n      swap1\n      dup1\n      0x01\n      dup2\n      sload\n      add\n      dup1\n      dup3\n      sstore\n      dup1\n      swap2\n      pop\n      pop\n      0x01\n      swap1\n      sub\n      swap1\n      0x00\n      mstore\n      keccak256(0x00, 0x20)\n      swap1\n      0x03\n      mul\n      add\n      0x00\n      swap1\n      swap2\n      swap1\n      swap2\n      swap1\n      swap2\n      pop\n      0x00\n      dup3\n      add\n      mload\n      dup2\n      0x00\n      add\n      exp(0x0100, 0x00)\n      dup2\n      sload\n      dup2\n      0xffffffffffffffffffffffffffffffffffffffff\n      mul\n      not\n      and\n      swap1\n      dup4\n      0xffffffffffffffffffffffffffffffffffffffff\n      and\n      mul\n      or\n      swap1\n      sstore\n      pop\n      0x20\n      dup3\n      add\n      mload\n      dup2\n      0x01\n      add\n      sstore\n      0x40\n      dup3\n      add\n      mload\n      dup2\n      0x02\n      add\n      exp(0x0100, 0x00)\n      dup2\n      sload\n      dup2\n      0xffffffffffffffffffffffffffffffffffffffff\n      mul\n      not\n      and\n      swap1\n      dup4\n      0xffffffffffffffffffffffffffffffffffffffff\n      and\n      mul\n      or\n      swap1\n      sstore\n      pop\n      pop\n      pop\n        /* \"contracts/MileExchangeBetweenUsers.sol\":2710:2725  uint256 offerId */\n      0x00\n        /* \"contracts/MileExchangeBetweenUsers.sol\":2744:2745  1 */\n      0x01\n        /* \"contracts/MileExchangeBetweenUsers.sol\":2728:2734  offers */\n      dup1\n        /* \"contracts/MileExchangeBetweenUsers.sol\":2728:2741  offers.length */\n      dup1\n      sload\n      swap1\n      pop\n        /* \"contracts/MileExchangeBetweenUsers.sol\":2728:2745  offers.length - 1 */\n      tag_45\n      swap2\n      swap1\n      tag_46\n      jump\t// in\n    tag_45:\n        /* \"contracts/MileExchangeBetweenUsers.sol\":2710:2745  uint256 offerId = offers.length - 1 */\n      swap1\n      pop\n        /* \"contracts/MileExchangeBetweenUsers.sol\":2804:2818  _requestedFrom */\n      dup2\n        /* \"contracts/MileExchangeBetweenUsers.sol\":2761:2819  OfferCreated(offerId, msg.sender, _amount, _requestedFrom) */\n      0xffffffffffffffffffffffffffffffffffffffff\n      and\n        /* \"contracts/MileExchangeBetweenUsers.sol\":2783:2793  msg.sender */\n      caller\n        /* \"contracts/MileExchangeBetweenUsers.sol\":2761:2819  OfferCreated(offerId, msg.sender, _amount, _requestedFrom) */\n      0xffffffffffffffffffffffffffffffffffffffff\n      and\n      0x38cf54506b5343346b95a1a1019c97c32eb01a3d0db0e12d4122434b1bb63705\n        /* \"contracts/MileExchangeBetweenUsers.sol\":2774:2781  offerId */\n      dup4\n        /* \"contracts/MileExchangeBetweenUsers.sol\":2795:2802  _amount */\n      dup7\n        /* \"contracts/MileExchangeBetweenUsers.sol\":2761:2819  OfferCreated(offerId, msg.sender, _amount, _requestedFrom) */\n      mload(0x40)\n      tag_47\n      swap3\n      swap2\n      swap1\n      tag_48\n      jump\t// in\n    tag_47:\n      mload(0x40)\n      dup1\n      swap2\n      sub\n      swap1\n      log3\n        /* \"contracts/MileExchangeBetweenUsers.sol\":2512:2827  {\r... */\n      pop\n        /* \"contracts/MileExchangeBetweenUsers.sol\":2443:2827  function createOffer(uint256 _amount, address _requestedFrom) public {\r... */\n      pop\n      pop\n      jump\t// out\n        /* \"contracts/MileExchangeBetweenUsers.sol\":1882:1910  MileSystem public mileSystem */\n    tag_14:\n      0x00\n      dup1\n      sload\n      swap1\n      0x0100\n      exp\n      swap1\n      div\n      0xffffffffffffffffffffffffffffffffffffffff\n      and\n      dup2\n      jump\t// out\n        /* \"contracts/MileExchangeBetweenUsers.sol\":3951:4041  function getOffers() public view returns (Offer[] memory) {\r... */\n    tag_18:\n        /* \"contracts/MileExchangeBetweenUsers.sol\":3993:4007  Offer[] memory */\n      0x60\n        /* \"contracts/MileExchangeBetweenUsers.sol\":4027:4033  offers */\n      0x01\n        /* \"contracts/MileExchangeBetweenUsers.sol\":4020:4033  return offers */\n      dup1\n      sload\n      dup1\n      0x20\n      mul\n      0x20\n      add\n      mload(0x40)\n      swap1\n      dup2\n      add\n      0x40\n      mstore\n      dup1\n      swap3\n      swap2\n      swap1\n      dup2\n      dup2\n      mstore\n      0x20\n      add\n      0x00\n      swap1\n    tag_50:\n      dup3\n      dup3\n      lt\n      iszero\n      tag_51\n      jumpi\n      dup4\n      dup3\n      swap1\n      0x00\n      mstore\n      keccak256(0x00, 0x20)\n      swap1\n      0x03\n      mul\n      add\n      mload(0x40)\n      dup1\n      0x60\n      add\n      0x40\n      mstore\n      swap1\n      dup2\n      0x00\n      dup3\n      add\n      0x00\n      swap1\n      sload\n      swap1\n      0x0100\n      exp\n      swap1\n      div\n      0xffffffffffffffffffffffffffffffffffffffff\n      and\n      0xffffffffffffffffffffffffffffffffffffffff\n      and\n      0xffffffffffffffffffffffffffffffffffffffff\n      and\n      dup2\n      mstore\n      0x20\n      add\n      0x01\n      dup3\n      add\n      sload\n      dup2\n      mstore\n      0x20\n      add\n      0x02\n      dup3\n      add\n      0x00\n      swap1\n      sload\n      swap1\n      0x0100\n      exp\n      swap1\n      div\n      0xffffffffffffffffffffffffffffffffffffffff\n      and\n      0xffffffffffffffffffffffffffffffffffffffff\n      and\n      0xffffffffffffffffffffffffffffffffffffffff\n      and\n      dup2\n      mstore\n      pop\n      pop\n      dup2\n      mstore\n      0x20\n      add\n      swap1\n      0x01\n      add\n      swap1\n      jump(tag_50)\n    tag_51:\n      pop\n      pop\n      pop\n      pop\n      swap1\n      pop\n        /* \"contracts/MileExchangeBetweenUsers.sol\":3951:4041  function getOffers() public view returns (Offer[] memory) {\r... */\n      swap1\n      jump\t// out\n        /* \"contracts/MileExchangeBetweenUsers.sol\":2031:2052  Offer[] public offers */\n    tag_24:\n      0x01\n      dup2\n      dup2\n      sload\n      dup2\n      lt\n      tag_53\n      jumpi\n      0x00\n      dup1\n      revert\n    tag_53:\n      swap1\n      0x00\n      mstore\n      keccak256(0x00, 0x20)\n      swap1\n      0x03\n      mul\n      add\n      0x00\n      swap2\n      pop\n      swap1\n      pop\n      dup1\n      0x00\n      add\n      0x00\n      swap1\n      sload\n      swap1\n      0x0100\n      exp\n      swap1\n      div\n      0xffffffffffffffffffffffffffffffffffffffff\n      and\n      swap1\n      dup1\n      0x01\n      add\n      sload\n      swap1\n      dup1\n      0x02\n      add\n      0x00\n      swap1\n      sload\n      swap1\n      0x0100\n      exp\n      swap1\n      div\n      0xffffffffffffffffffffffffffffffffffffffff\n      and\n      swap1\n      pop\n      dup4\n      jump\t// out\n        /* \"contracts/MileExchangeBetweenUsers.sol\":2835:3530  function acceptOffer(uint256 _offerId) public {\r... */\n    tag_29:\n        /* \"contracts/MileExchangeBetweenUsers.sol\":2911:2917  offers */\n      0x01\n        /* \"contracts/MileExchangeBetweenUsers.sol\":2911:2924  offers.length */\n      dup1\n      sload\n      swap1\n      pop\n        /* \"contracts/MileExchangeBetweenUsers.sol\":2900:2908  _offerId */\n      dup2\n        /* \"contracts/MileExchangeBetweenUsers.sol\":2900:2924  _offerId < offers.length */\n      lt\n        /* \"contracts/MileExchangeBetweenUsers.sol\":2892:2944  require(_offerId < offers.length, \"Offer not found\") */\n      tag_56\n      jumpi\n      mload(0x40)\n      0x08c379a000000000000000000000000000000000000000000000000000000000\n      dup2\n      mstore\n      0x04\n      add\n      tag_57\n      swap1\n      tag_58\n      jump\t// in\n    tag_57:\n      mload(0x40)\n      dup1\n      swap2\n      sub\n      swap1\n      revert\n    tag_56:\n        /* \"contracts/MileExchangeBetweenUsers.sol\":2955:2974  Offer storage offer */\n      0x00\n        /* \"contracts/MileExchangeBetweenUsers.sol\":2977:2983  offers */\n      0x01\n        /* \"contracts/MileExchangeBetweenUsers.sol\":2984:2992  _offerId */\n      dup3\n        /* \"contracts/MileExchangeBetweenUsers.sol\":2977:2993  offers[_offerId] */\n      dup2\n      sload\n      dup2\n      lt\n      tag_59\n      jumpi\n      tag_60\n      tag_61\n      jump\t// in\n    tag_60:\n    tag_59:\n      swap1\n      0x00\n      mstore\n      keccak256(0x00, 0x20)\n      swap1\n      0x03\n      mul\n      add\n        /* \"contracts/MileExchangeBetweenUsers.sol\":2955:2993  Offer storage offer = offers[_offerId] */\n      swap1\n      pop\n        /* \"contracts/MileExchangeBetweenUsers.sol\":3035:3045  msg.sender */\n      caller\n        /* \"contracts/MileExchangeBetweenUsers.sol\":3012:3045  offer.requestedFrom == msg.sender */\n      0xffffffffffffffffffffffffffffffffffffffff\n      and\n        /* \"contracts/MileExchangeBetweenUsers.sol\":3012:3017  offer */\n      dup2\n        /* \"contracts/MileExchangeBetweenUsers.sol\":3012:3031  offer.requestedFrom */\n      0x02\n      add\n      0x00\n      swap1\n      sload\n      swap1\n      0x0100\n      exp\n      swap1\n      div\n      0xffffffffffffffffffffffffffffffffffffffff\n      and\n        /* \"contracts/MileExchangeBetweenUsers.sol\":3012:3045  offer.requestedFrom == msg.sender */\n      0xffffffffffffffffffffffffffffffffffffffff\n      and\n      eq\n        /* \"contracts/MileExchangeBetweenUsers.sol\":3004:3077  require(offer.requestedFrom == msg.sender, \"Not the requested recipient\") */\n      tag_63\n      jumpi\n      mload(0x40)\n      0x08c379a000000000000000000000000000000000000000000000000000000000\n      dup2\n      mstore\n      0x04\n      add\n      tag_64\n      swap1\n      tag_65\n      jump\t// in\n    tag_64:\n      mload(0x40)\n      dup1\n      swap2\n      sub\n      swap1\n      revert\n    tag_63:\n        /* \"contracts/MileExchangeBetweenUsers.sol\":3212:3217  offer */\n      dup1\n        /* \"contracts/MileExchangeBetweenUsers.sol\":3212:3224  offer.amount */\n      0x01\n      add\n      sload\n        /* \"contracts/MileExchangeBetweenUsers.sol\":3158:3168  mileSystem */\n      0x00\n      dup1\n      sload\n      swap1\n      0x0100\n      exp\n      swap1\n      div\n      0xffffffffffffffffffffffffffffffffffffffff\n      and\n        /* \"contracts/MileExchangeBetweenUsers.sol\":3158:3178  mileSystem.allowance */\n      0xffffffffffffffffffffffffffffffffffffffff\n      and\n      0xdd62ed3e\n        /* \"contracts/MileExchangeBetweenUsers.sol\":3179:3184  offer */\n      dup4\n        /* \"contracts/MileExchangeBetweenUsers.sol\":3179:3192  offer.offerer */\n      0x00\n      add\n      0x00\n      swap1\n      sload\n      swap1\n      0x0100\n      exp\n      swap1\n      div\n      0xffffffffffffffffffffffffffffffffffffffff\n      and\n        /* \"contracts/MileExchangeBetweenUsers.sol\":3202:3206  this */\n      address\n        /* \"contracts/MileExchangeBetweenUsers.sol\":3158:3208  mileSystem.allowance(offer.offerer, address(this)) */\n      mload(0x40)\n      dup4\n      0xffffffff\n      and\n      0xe0\n      shl\n      dup2\n      mstore\n      0x04\n      add\n      tag_66\n      swap3\n      swap2\n      swap1\n      tag_67\n      jump\t// in\n    tag_66:\n      0x20\n      mload(0x40)\n      dup1\n      dup4\n      sub\n      dup2\n      dup7\n      dup1\n      extcodesize\n      iszero\n      dup1\n      iszero\n      tag_68\n      jumpi\n      0x00\n      dup1\n      revert\n    tag_68:\n      pop\n      gas\n      staticcall\n      iszero\n      dup1\n      iszero\n      tag_70\n      jumpi\n      returndatasize\n      0x00\n      dup1\n      returndatacopy\n      revert(0x00, returndatasize)\n    tag_70:\n      pop\n      pop\n      pop\n      pop\n      mload(0x40)\n      returndatasize\n      not(0x1f)\n      0x1f\n      dup3\n      add\n      and\n      dup3\n      add\n      dup1\n      0x40\n      mstore\n      pop\n      dup2\n      add\n      swap1\n      tag_71\n      swap2\n      swap1\n      tag_40\n      jump\t// in\n    tag_71:\n        /* \"contracts/MileExchangeBetweenUsers.sol\":3158:3224  mileSystem.allowance(offer.offerer, address(this)) >= offer.amount */\n      lt\n      iszero\n        /* \"contracts/MileExchangeBetweenUsers.sol\":3150:3247  require(mileSystem.allowance(offer.offerer, address(this)) >= offer.amount, \"Allowance exceeded\") */\n      tag_72\n      jumpi\n      mload(0x40)\n      0x08c379a000000000000000000000000000000000000000000000000000000000\n      dup2\n      mstore\n      0x04\n      add\n      tag_73\n      swap1\n      tag_74\n      jump\t// in\n    tag_73:\n      mload(0x40)\n      dup1\n      swap2\n      sub\n      swap1\n      revert\n    tag_72:\n        /* \"contracts/MileExchangeBetweenUsers.sol\":3258:3268  mileSystem */\n      0x00\n      dup1\n      sload\n      swap1\n      0x0100\n      exp\n      swap1\n      div\n      0xffffffffffffffffffffffffffffffffffffffff\n      and\n        /* \"contracts/MileExchangeBetweenUsers.sol\":3258:3281  mileSystem.transferFrom */\n      0xffffffffffffffffffffffffffffffffffffffff\n      and\n      0x23b872dd\n        /* \"contracts/MileExchangeBetweenUsers.sol\":3282:3287  offer */\n      dup3\n        /* \"contracts/MileExchangeBetweenUsers.sol\":3282:3295  offer.offerer */\n      0x00\n      add\n      0x00\n      swap1\n      sload\n      swap1\n      0x0100\n      exp\n      swap1\n      div\n      0xffffffffffffffffffffffffffffffffffffffff\n      and\n        /* \"contracts/MileExchangeBetweenUsers.sol\":3297:3307  msg.sender */\n      caller\n        /* \"contracts/MileExchangeBetweenUsers.sol\":3309:3314  offer */\n      dup5\n        /* \"contracts/MileExchangeBetweenUsers.sol\":3309:3321  offer.amount */\n      0x01\n      add\n      sload\n        /* \"contracts/MileExchangeBetweenUsers.sol\":3258:3322  mileSystem.transferFrom(offer.offerer, msg.sender, offer.amount) */\n      mload(0x40)\n      dup5\n      0xffffffff\n      and\n      0xe0\n      shl\n      dup2\n      mstore\n      0x04\n      add\n      tag_75\n      swap4\n      swap3\n      swap2\n      swap1\n      tag_76\n      jump\t// in\n    tag_75:\n      0x20\n      mload(0x40)\n      dup1\n      dup4\n      sub\n      dup2\n      0x00\n      dup8\n      dup1\n      extcodesize\n      iszero\n      dup1\n      iszero\n      tag_77\n      jumpi\n      0x00\n      dup1\n      revert\n    tag_77:\n      pop\n      gas\n      call\n      iszero\n      dup1\n      iszero\n      tag_79\n      jumpi\n      returndatasize\n      0x00\n      dup1\n      returndatacopy\n      revert(0x00, returndatasize)\n    tag_79:\n      pop\n      pop\n      pop\n      pop\n      mload(0x40)\n      returndatasize\n      not(0x1f)\n      0x1f\n      dup3\n      add\n      and\n      dup3\n      add\n      dup1\n      0x40\n      mstore\n      pop\n      dup2\n      add\n      swap1\n      tag_80\n      swap2\n      swap1\n      tag_81\n      jump\t// in\n    tag_80:\n      pop\n        /* \"contracts/MileExchangeBetweenUsers.sol\":3392:3398  offers */\n      0x01\n        /* \"contracts/MileExchangeBetweenUsers.sol\":3415:3416  1 */\n      dup1\n        /* \"contracts/MileExchangeBetweenUsers.sol\":3399:3405  offers */\n      dup1\n        /* \"contracts/MileExchangeBetweenUsers.sol\":3399:3412  offers.length */\n      dup1\n      sload\n      swap1\n      pop\n        /* \"contracts/MileExchangeBetweenUsers.sol\":3399:3416  offers.length - 1 */\n      tag_82\n      swap2\n      swap1\n      tag_46\n      jump\t// in\n    tag_82:\n        /* \"contracts/MileExchangeBetweenUsers.sol\":3392:3417  offers[offers.length - 1] */\n      dup2\n      sload\n      dup2\n      lt\n      tag_83\n      jumpi\n      tag_84\n      tag_61\n      jump\t// in\n    tag_84:\n    tag_83:\n      swap1\n      0x00\n      mstore\n      keccak256(0x00, 0x20)\n      swap1\n      0x03\n      mul\n      add\n        /* \"contracts/MileExchangeBetweenUsers.sol\":3373:3379  offers */\n      0x01\n        /* \"contracts/MileExchangeBetweenUsers.sol\":3380:3388  _offerId */\n      dup4\n        /* \"contracts/MileExchangeBetweenUsers.sol\":3373:3389  offers[_offerId] */\n      dup2\n      sload\n      dup2\n      lt\n      tag_86\n      jumpi\n      tag_87\n      tag_61\n      jump\t// in\n    tag_87:\n    tag_86:\n      swap1\n      0x00\n      mstore\n      keccak256(0x00, 0x20)\n      swap1\n      0x03\n      mul\n      add\n        /* \"contracts/MileExchangeBetweenUsers.sol\":3373:3417  offers[_offerId] = offers[offers.length - 1] */\n      0x00\n      dup3\n      add\n      0x00\n      swap1\n      sload\n      swap1\n      0x0100\n      exp\n      swap1\n      div\n      0xffffffffffffffffffffffffffffffffffffffff\n      and\n      dup2\n      0x00\n      add\n      exp(0x0100, 0x00)\n      dup2\n      sload\n      dup2\n      0xffffffffffffffffffffffffffffffffffffffff\n      mul\n      not\n      and\n      swap1\n      dup4\n      0xffffffffffffffffffffffffffffffffffffffff\n      and\n      mul\n      or\n      swap1\n      sstore\n      pop\n      0x01\n      dup3\n      add\n      sload\n      dup2\n      0x01\n      add\n      sstore\n      0x02\n      dup3\n      add\n      0x00\n      swap1\n      sload\n      swap1\n      0x0100\n      exp\n      swap1\n      div\n      0xffffffffffffffffffffffffffffffffffffffff\n      and\n      dup2\n      0x02\n      add\n      exp(0x0100, 0x00)\n      dup2\n      sload\n      dup2\n      0xffffffffffffffffffffffffffffffffffffffff\n      mul\n      not\n      and\n      swap1\n      dup4\n      0xffffffffffffffffffffffffffffffffffffffff\n      and\n      mul\n      or\n      swap1\n      sstore\n      pop\n      swap1\n      pop\n      pop\n        /* \"contracts/MileExchangeBetweenUsers.sol\":3428:3434  offers */\n      0x01\n        /* \"contracts/MileExchangeBetweenUsers.sol\":3428:3440  offers.pop() */\n      dup1\n      sload\n      dup1\n      tag_89\n      jumpi\n      tag_90\n      tag_91\n      jump\t// in\n    tag_90:\n    tag_89:\n      0x01\n      swap1\n      sub\n      dup2\n      dup2\n      swap1\n      0x00\n      mstore\n      keccak256(0x00, 0x20)\n      swap1\n      0x03\n      mul\n      add\n      0x00\n      dup1\n      dup3\n      add\n      exp(0x0100, 0x00)\n      dup2\n      sload\n      swap1\n      0xffffffffffffffffffffffffffffffffffffffff\n      mul\n      not\n      and\n      swap1\n      sstore\n      0x01\n      dup3\n      add\n      0x00\n      swap1\n      sstore\n      0x02\n      dup3\n      add\n      exp(0x0100, 0x00)\n      dup2\n      sload\n      swap1\n      0xffffffffffffffffffffffffffffffffffffffff\n      mul\n      not\n      and\n      swap1\n      sstore\n      pop\n      pop\n      swap1\n      sstore\n        /* \"contracts/MileExchangeBetweenUsers.sol\":3497:3507  msg.sender */\n      caller\n        /* \"contracts/MileExchangeBetweenUsers.sol\":3458:3522  OfferAccepted(_offerId, offer.offerer, msg.sender, offer.amount) */\n      0xffffffffffffffffffffffffffffffffffffffff\n      and\n        /* \"contracts/MileExchangeBetweenUsers.sol\":3482:3487  offer */\n      dup2\n        /* \"contracts/MileExchangeBetweenUsers.sol\":3482:3495  offer.offerer */\n      0x00\n      add\n      0x00\n      swap1\n      sload\n      swap1\n      0x0100\n      exp\n      swap1\n      div\n      0xffffffffffffffffffffffffffffffffffffffff\n      and\n        /* \"contracts/MileExchangeBetweenUsers.sol\":3458:3522  OfferAccepted(_offerId, offer.offerer, msg.sender, offer.amount) */\n      0xffffffffffffffffffffffffffffffffffffffff\n      and\n      0xc67f49229cab3f614ad390c12432e0e671552dcfd15e24ddc005cf5a01a02135\n        /* \"contracts/MileExchangeBetweenUsers.sol\":3472:3480  _offerId */\n      dup5\n        /* \"contracts/MileExchangeBetweenUsers.sol\":3509:3514  offer */\n      dup5\n        /* \"contracts/MileExchangeBetweenUsers.sol\":3509:3521  offer.amount */\n      0x01\n      add\n      sload\n        /* \"contracts/MileExchangeBetweenUsers.sol\":3458:3522  OfferAccepted(_offerId, offer.offerer, msg.sender, offer.amount) */\n      mload(0x40)\n      tag_93\n      swap3\n      swap2\n      swap1\n      tag_48\n      jump\t// in\n    tag_93:\n      mload(0x40)\n      dup1\n      swap2\n      sub\n      swap1\n      log3\n        /* \"contracts/MileExchangeBetweenUsers.sol\":2881:3530  {\r... */\n      pop\n        /* \"contracts/MileExchangeBetweenUsers.sol\":2835:3530  function acceptOffer(uint256 _offerId) public {\r... */\n      pop\n      jump\t// out\n        /* \"contracts/MileExchangeBetweenUsers.sol\":3538:3943  function cancelOffer(uint256 _offerId) public {\r... */\n    tag_32:\n        /* \"contracts/MileExchangeBetweenUsers.sol\":3614:3620  offers */\n      0x01\n        /* \"contracts/MileExchangeBetweenUsers.sol\":3614:3627  offers.length */\n      dup1\n      sload\n      swap1\n      pop\n        /* \"contracts/MileExchangeBetweenUsers.sol\":3603:3611  _offerId */\n      dup2\n        /* \"contracts/MileExchangeBetweenUsers.sol\":3603:3627  _offerId < offers.length */\n      lt\n        /* \"contracts/MileExchangeBetweenUsers.sol\":3595:3647  require(_offerId < offers.length, \"Offer not found\") */\n      tag_95\n      jumpi\n      mload(0x40)\n      0x08c379a000000000000000000000000000000000000000000000000000000000\n      dup2\n      mstore\n      0x04\n      add\n      tag_96\n      swap1\n      tag_58\n      jump\t// in\n    tag_96:\n      mload(0x40)\n      dup1\n      swap2\n      sub\n      swap1\n      revert\n    tag_95:\n        /* \"contracts/MileExchangeBetweenUsers.sol\":3658:3677  Offer storage offer */\n      0x00\n        /* \"contracts/MileExchangeBetweenUsers.sol\":3680:3686  offers */\n      0x01\n        /* \"contracts/MileExchangeBetweenUsers.sol\":3687:3695  _offerId */\n      dup3\n        /* \"contracts/MileExchangeBetweenUsers.sol\":3680:3696  offers[_offerId] */\n      dup2\n      sload\n      dup2\n      lt\n      tag_97\n      jumpi\n      tag_98\n      tag_61\n      jump\t// in\n    tag_98:\n    tag_97:\n      swap1\n      0x00\n      mstore\n      keccak256(0x00, 0x20)\n      swap1\n      0x03\n      mul\n      add\n        /* \"contracts/MileExchangeBetweenUsers.sol\":3658:3696  Offer storage offer = offers[_offerId] */\n      swap1\n      pop\n        /* \"contracts/MileExchangeBetweenUsers.sol\":3732:3742  msg.sender */\n      caller\n        /* \"contracts/MileExchangeBetweenUsers.sol\":3715:3742  offer.offerer == msg.sender */\n      0xffffffffffffffffffffffffffffffffffffffff\n      and\n        /* \"contracts/MileExchangeBetweenUsers.sol\":3715:3720  offer */\n      dup2\n        /* \"contracts/MileExchangeBetweenUsers.sol\":3715:3728  offer.offerer */\n      0x00\n      add\n      0x00\n      swap1\n      sload\n      swap1\n      0x0100\n      exp\n      swap1\n      div\n      0xffffffffffffffffffffffffffffffffffffffff\n      and\n        /* \"contracts/MileExchangeBetweenUsers.sol\":3715:3742  offer.offerer == msg.sender */\n      0xffffffffffffffffffffffffffffffffffffffff\n      and\n      eq\n        /* \"contracts/MileExchangeBetweenUsers.sol\":3707:3762  require(offer.offerer == msg.sender, \"Not the offerer\") */\n      tag_100\n      jumpi\n      mload(0x40)\n      0x08c379a000000000000000000000000000000000000000000000000000000000\n      dup2\n      mstore\n      0x04\n      add\n      tag_101\n      swap1\n      tag_102\n      jump\t// in\n    tag_101:\n      mload(0x40)\n      dup1\n      swap2\n      sub\n      swap1\n      revert\n    tag_100:\n        /* \"contracts/MileExchangeBetweenUsers.sol\":3833:3839  offers */\n      0x01\n        /* \"contracts/MileExchangeBetweenUsers.sol\":3856:3857  1 */\n      dup1\n        /* \"contracts/MileExchangeBetweenUsers.sol\":3840:3846  offers */\n      dup1\n        /* \"contracts/MileExchangeBetweenUsers.sol\":3840:3853  offers.length */\n      dup1\n      sload\n      swap1\n      pop\n        /* \"contracts/MileExchangeBetweenUsers.sol\":3840:3857  offers.length - 1 */\n      tag_103\n      swap2\n      swap1\n      tag_46\n      jump\t// in\n    tag_103:\n        /* \"contracts/MileExchangeBetweenUsers.sol\":3833:3858  offers[offers.length - 1] */\n      dup2\n      sload\n      dup2\n      lt\n      tag_104\n      jumpi\n      tag_105\n      tag_61\n      jump\t// in\n    tag_105:\n    tag_104:\n      swap1\n      0x00\n      mstore\n      keccak256(0x00, 0x20)\n      swap1\n      0x03\n      mul\n      add\n        /* \"contracts/MileExchangeBetweenUsers.sol\":3814:3820  offers */\n      0x01\n        /* \"contracts/MileExchangeBetweenUsers.sol\":3821:3829  _offerId */\n      dup4\n        /* \"contracts/MileExchangeBetweenUsers.sol\":3814:3830  offers[_offerId] */\n      dup2\n      sload\n      dup2\n      lt\n      tag_107\n      jumpi\n      tag_108\n      tag_61\n      jump\t// in\n    tag_108:\n    tag_107:\n      swap1\n      0x00\n      mstore\n      keccak256(0x00, 0x20)\n      swap1\n      0x03\n      mul\n      add\n        /* \"contracts/MileExchangeBetweenUsers.sol\":3814:3858  offers[_offerId] = offers[offers.length - 1] */\n      0x00\n      dup3\n      add\n      0x00\n      swap1\n      sload\n      swap1\n      0x0100\n      exp\n      swap1\n      div\n      0xffffffffffffffffffffffffffffffffffffffff\n      and\n      dup2\n      0x00\n      add\n      exp(0x0100, 0x00)\n      dup2\n      sload\n      dup2\n      0xffffffffffffffffffffffffffffffffffffffff\n      mul\n      not\n      and\n      swap1\n      dup4\n      0xffffffffffffffffffffffffffffffffffffffff\n      and\n      mul\n      or\n      swap1\n      sstore\n      pop\n      0x01\n      dup3\n      add\n      sload\n      dup2\n      0x01\n      add\n      sstore\n      0x02\n      dup3\n      add\n      0x00\n      swap1\n      sload\n      swap1\n      0x0100\n      exp\n      swap1\n      div\n      0xffffffffffffffffffffffffffffffffffffffff\n      and\n      dup2\n      0x02\n      add\n      exp(0x0100, 0x00)\n      dup2\n      sload\n      dup2\n      0xffffffffffffffffffffffffffffffffffffffff\n      mul\n      not\n      and\n      swap1\n      dup4\n      0xffffffffffffffffffffffffffffffffffffffff\n      and\n      mul\n      or\n      swap1\n      sstore\n      pop\n      swap1\n      pop\n      pop\n        /* \"contracts/MileExchangeBetweenUsers.sol\":3869:3875  offers */\n      0x01\n        /* \"contracts/MileExchangeBetweenUsers.sol\":3869:3881  offers.pop() */\n      dup1\n      sload\n      dup1\n      tag_110\n      jumpi\n      tag_111\n      tag_91\n      jump\t// in\n    tag_111:\n    tag_110:\n      0x01\n      swap1\n      sub\n      dup2\n      dup2\n      swap1\n      0x00\n      mstore\n      keccak256(0x00, 0x20)\n      swap1\n      0x03\n      mul\n      add\n      0x00\n      dup1\n      dup3\n      add\n      exp(0x0100, 0x00)\n      dup2\n      sload\n      swap1\n      0xffffffffffffffffffffffffffffffffffffffff\n      mul\n      not\n      and\n      swap1\n      sstore\n      0x01\n      dup3\n      add\n      0x00\n      swap1\n      sstore\n      0x02\n      dup3\n      add\n      exp(0x0100, 0x00)\n      dup2\n      sload\n      swap1\n      0xffffffffffffffffffffffffffffffffffffffff\n      mul\n      not\n      and\n      swap1\n      sstore\n      pop\n      pop\n      swap1\n      sstore\n        /* \"contracts/MileExchangeBetweenUsers.sol\":3924:3934  msg.sender */\n      caller\n        /* \"contracts/MileExchangeBetweenUsers.sol\":3899:3935  OfferCancelled(_offerId, msg.sender) */\n      0xffffffffffffffffffffffffffffffffffffffff\n      and\n      0x1f51377b3e685a0e2419f9bb4ba7c07ec54936353ba3d0fb3c6538dab6766222\n        /* \"contracts/MileExchangeBetweenUsers.sol\":3914:3922  _offerId */\n      dup4\n        /* \"contracts/MileExchangeBetweenUsers.sol\":3899:3935  OfferCancelled(_offerId, msg.sender) */\n      mload(0x40)\n      tag_113\n      swap2\n      swap1\n      tag_114\n      jump\t// in\n    tag_113:\n      mload(0x40)\n      dup1\n      swap2\n      sub\n      swap1\n      log2\n        /* \"contracts/MileExchangeBetweenUsers.sol\":3584:3943  {\r... */\n      pop\n        /* \"contracts/MileExchangeBetweenUsers.sol\":3538:3943  function cancelOffer(uint256 _offerId) public {\r... */\n      pop\n      jump\t// out\n        /* \"#utility.yul\":7:146   */\n    tag_116:\n        /* \"#utility.yul\":53:58   */\n      0x00\n        /* \"#utility.yul\":91:97   */\n      dup2\n        /* \"#utility.yul\":78:98   */\n      calldataload\n        /* \"#utility.yul\":69:98   */\n      swap1\n      pop\n        /* \"#utility.yul\":107:140   */\n      tag_118\n        /* \"#utility.yul\":134:139   */\n      dup2\n        /* \"#utility.yul\":107:140   */\n      tag_119\n      jump\t// in\n    tag_118:\n        /* \"#utility.yul\":7:146   */\n      swap3\n      swap2\n      pop\n      pop\n      jump\t// out\n        /* \"#utility.yul\":152:289   */\n    tag_120:\n        /* \"#utility.yul\":206:211   */\n      0x00\n        /* \"#utility.yul\":237:243   */\n      dup2\n        /* \"#utility.yul\":231:244   */\n      mload\n        /* \"#utility.yul\":222:244   */\n      swap1\n      pop\n        /* \"#utility.yul\":253:283   */\n      tag_122\n        /* \"#utility.yul\":277:282   */\n      dup2\n        /* \"#utility.yul\":253:283   */\n      tag_123\n      jump\t// in\n    tag_122:\n        /* \"#utility.yul\":152:289   */\n      swap3\n      swap2\n      pop\n      pop\n      jump\t// out\n        /* \"#utility.yul\":295:434   */\n    tag_124:\n        /* \"#utility.yul\":341:346   */\n      0x00\n        /* \"#utility.yul\":379:385   */\n      dup2\n        /* \"#utility.yul\":366:386   */\n      calldataload\n        /* \"#utility.yul\":357:386   */\n      swap1\n      pop\n        /* \"#utility.yul\":395:428   */\n      tag_126\n        /* \"#utility.yul\":422:427   */\n      dup2\n        /* \"#utility.yul\":395:428   */\n      tag_127\n      jump\t// in\n    tag_126:\n        /* \"#utility.yul\":295:434   */\n      swap3\n      swap2\n      pop\n      pop\n      jump\t// out\n        /* \"#utility.yul\":440:583   */\n    tag_128:\n        /* \"#utility.yul\":497:502   */\n      0x00\n        /* \"#utility.yul\":528:534   */\n      dup2\n        /* \"#utility.yul\":522:535   */\n      mload\n        /* \"#utility.yul\":513:535   */\n      swap1\n      pop\n        /* \"#utility.yul\":544:577   */\n      tag_130\n        /* \"#utility.yul\":571:576   */\n      dup2\n        /* \"#utility.yul\":544:577   */\n      tag_127\n      jump\t// in\n    tag_130:\n        /* \"#utility.yul\":440:583   */\n      swap3\n      swap2\n      pop\n      pop\n      jump\t// out\n        /* \"#utility.yul\":589:934   */\n    tag_81:\n        /* \"#utility.yul\":656:662   */\n      0x00\n        /* \"#utility.yul\":705:707   */\n      0x20\n        /* \"#utility.yul\":693:702   */\n      dup3\n        /* \"#utility.yul\":684:691   */\n      dup5\n        /* \"#utility.yul\":680:703   */\n      sub\n        /* \"#utility.yul\":676:708   */\n      slt\n        /* \"#utility.yul\":673:792   */\n      iszero\n      tag_132\n      jumpi\n        /* \"#utility.yul\":711:790   */\n      tag_133\n      tag_134\n      jump\t// in\n    tag_133:\n        /* \"#utility.yul\":673:792   */\n    tag_132:\n        /* \"#utility.yul\":831:832   */\n      0x00\n        /* \"#utility.yul\":856:917   */\n      tag_135\n        /* \"#utility.yul\":909:916   */\n      dup5\n        /* \"#utility.yul\":900:906   */\n      dup3\n        /* \"#utility.yul\":889:898   */\n      dup6\n        /* \"#utility.yul\":885:907   */\n      add\n        /* \"#utility.yul\":856:917   */\n      tag_120\n      jump\t// in\n    tag_135:\n        /* \"#utility.yul\":846:917   */\n      swap2\n      pop\n        /* \"#utility.yul\":802:927   */\n      pop\n        /* \"#utility.yul\":589:934   */\n      swap3\n      swap2\n      pop\n      pop\n      jump\t// out\n        /* \"#utility.yul\":940:1269   */\n    tag_23:\n        /* \"#utility.yul\":999:1005   */\n      0x00\n        /* \"#utility.yul\":1048:1050   */\n      0x20\n        /* \"#utility.yul\":1036:1045   */\n      dup3\n        /* \"#utility.yul\":1027:1034   */\n      dup5\n        /* \"#utility.yul\":1023:1046   */\n      sub\n        /* \"#utility.yul\":1019:1051   */\n      slt\n        /* \"#utility.yul\":1016:1135   */\n      iszero\n      tag_137\n      jumpi\n        /* \"#utility.yul\":1054:1133   */\n      tag_138\n      tag_134\n      jump\t// in\n    tag_138:\n        /* \"#utility.yul\":1016:1135   */\n    tag_137:\n        /* \"#utility.yul\":1174:1175   */\n      0x00\n        /* \"#utility.yul\":1199:1252   */\n      tag_139\n        /* \"#utility.yul\":1244:1251   */\n      dup5\n        /* \"#utility.yul\":1235:1241   */\n      dup3\n        /* \"#utility.yul\":1224:1233   */\n      dup6\n        /* \"#utility.yul\":1220:1242   */\n      add\n        /* \"#utility.yul\":1199:1252   */\n      tag_124\n      jump\t// in\n    tag_139:\n        /* \"#utility.yul\":1189:1252   */\n      swap2\n      pop\n        /* \"#utility.yul\":1145:1262   */\n      pop\n        /* \"#utility.yul\":940:1269   */\n      swap3\n      swap2\n      pop\n      pop\n      jump\t// out\n        /* \"#utility.yul\":1275:1626   */\n    tag_40:\n        /* \"#utility.yul\":1345:1351   */\n      0x00\n        /* \"#utility.yul\":1394:1396   */\n      0x20\n        /* \"#utility.yul\":1382:1391   */\n      dup3\n        /* \"#utility.yul\":1373:1380   */\n      dup5\n        /* \"#utility.yul\":1369:1392   */\n      sub\n        /* \"#utility.yul\":1365:1397   */\n      slt\n        /* \"#utility.yul\":1362:1481   */\n      iszero\n      tag_141\n      jumpi\n        /* \"#utility.yul\":1400:1479   */\n      tag_142\n      tag_134\n      jump\t// in\n    tag_142:\n        /* \"#utility.yul\":1362:1481   */\n    tag_141:\n        /* \"#utility.yul\":1520:1521   */\n      0x00\n        /* \"#utility.yul\":1545:1609   */\n      tag_143\n        /* \"#utility.yul\":1601:1608   */\n      dup5\n        /* \"#utility.yul\":1592:1598   */\n      dup3\n        /* \"#utility.yul\":1581:1590   */\n      dup6\n        /* \"#utility.yul\":1577:1599   */\n      add\n        /* \"#utility.yul\":1545:1609   */\n      tag_128\n      jump\t// in\n    tag_143:\n        /* \"#utility.yul\":1535:1609   */\n      swap2\n      pop\n        /* \"#utility.yul\":1491:1619   */\n      pop\n        /* \"#utility.yul\":1275:1626   */\n      swap3\n      swap2\n      pop\n      pop\n      jump\t// out\n        /* \"#utility.yul\":1632:2106   */\n    tag_11:\n        /* \"#utility.yul\":1700:1706   */\n      0x00\n        /* \"#utility.yul\":1708:1714   */\n      dup1\n        /* \"#utility.yul\":1757:1759   */\n      0x40\n        /* \"#utility.yul\":1745:1754   */\n      dup4\n        /* \"#utility.yul\":1736:1743   */\n      dup6\n        /* \"#utility.yul\":1732:1755   */\n      sub\n        /* \"#utility.yul\":1728:1760   */\n      slt\n        /* \"#utility.yul\":1725:1844   */\n      iszero\n      tag_145\n      jumpi\n        /* \"#utility.yul\":1763:1842   */\n      tag_146\n      tag_134\n      jump\t// in\n    tag_146:\n        /* \"#utility.yul\":1725:1844   */\n    tag_145:\n        /* \"#utility.yul\":1883:1884   */\n      0x00\n        /* \"#utility.yul\":1908:1961   */\n      tag_147\n        /* \"#utility.yul\":1953:1960   */\n      dup6\n        /* \"#utility.yul\":1944:1950   */\n      dup3\n        /* \"#utility.yul\":1933:1942   */\n      dup7\n        /* \"#utility.yul\":1929:1951   */\n      add\n        /* \"#utility.yul\":1908:1961   */\n      tag_124\n      jump\t// in\n    tag_147:\n        /* \"#utility.yul\":1898:1961   */\n      swap3\n      pop\n        /* \"#utility.yul\":1854:1971   */\n      pop\n        /* \"#utility.yul\":2010:2012   */\n      0x20\n        /* \"#utility.yul\":2036:2089   */\n      tag_148\n        /* \"#utility.yul\":2081:2088   */\n      dup6\n        /* \"#utility.yul\":2072:2078   */\n      dup3\n        /* \"#utility.yul\":2061:2070   */\n      dup7\n        /* \"#utility.yul\":2057:2079   */\n      add\n        /* \"#utility.yul\":2036:2089   */\n      tag_116\n      jump\t// in\n    tag_148:\n        /* \"#utility.yul\":2026:2089   */\n      swap2\n      pop\n        /* \"#utility.yul\":1981:2099   */\n      pop\n        /* \"#utility.yul\":1632:2106   */\n      swap3\n      pop\n      swap3\n      swap1\n      pop\n      jump\t// out\n        /* \"#utility.yul\":2112:2379   */\n    tag_149:\n        /* \"#utility.yul\":2225:2235   */\n      0x00\n        /* \"#utility.yul\":2246:2336   */\n      tag_151\n        /* \"#utility.yul\":2332:2335   */\n      dup4\n        /* \"#utility.yul\":2324:2330   */\n      dup4\n        /* \"#utility.yul\":2246:2336   */\n      tag_152\n      jump\t// in\n    tag_151:\n        /* \"#utility.yul\":2368:2372   */\n      0x60\n        /* \"#utility.yul\":2363:2366   */\n      dup4\n        /* \"#utility.yul\":2359:2373   */\n      add\n        /* \"#utility.yul\":2345:2373   */\n      swap1\n      pop\n        /* \"#utility.yul\":2112:2379   */\n      swap3\n      swap2\n      pop\n      pop\n      jump\t// out\n        /* \"#utility.yul\":2385:2493   */\n    tag_153:\n        /* \"#utility.yul\":2462:2486   */\n      tag_155\n        /* \"#utility.yul\":2480:2485   */\n      dup2\n        /* \"#utility.yul\":2462:2486   */\n      tag_156\n      jump\t// in\n    tag_155:\n        /* \"#utility.yul\":2457:2460   */\n      dup3\n        /* \"#utility.yul\":2450:2487   */\n      mstore\n        /* \"#utility.yul\":2385:2493   */\n      pop\n      pop\n      jump\t// out\n        /* \"#utility.yul\":2499:2617   */\n    tag_157:\n        /* \"#utility.yul\":2586:2610   */\n      tag_159\n        /* \"#utility.yul\":2604:2609   */\n      dup2\n        /* \"#utility.yul\":2586:2610   */\n      tag_156\n      jump\t// in\n    tag_159:\n        /* \"#utility.yul\":2581:2584   */\n      dup3\n        /* \"#utility.yul\":2574:2611   */\n      mstore\n        /* \"#utility.yul\":2499:2617   */\n      pop\n      pop\n      jump\t// out\n        /* \"#utility.yul\":2713:3621   */\n    tag_160:\n        /* \"#utility.yul\":2876:2879   */\n      0x00\n        /* \"#utility.yul\":2905:2981   */\n      tag_162\n        /* \"#utility.yul\":2975:2980   */\n      dup3\n        /* \"#utility.yul\":2905:2981   */\n      tag_163\n      jump\t// in\n    tag_162:\n        /* \"#utility.yul\":2997:3105   */\n      tag_164\n        /* \"#utility.yul\":3098:3104   */\n      dup2\n        /* \"#utility.yul\":3093:3096   */\n      dup6\n        /* \"#utility.yul\":2997:3105   */\n      tag_165\n      jump\t// in\n    tag_164:\n        /* \"#utility.yul\":2990:3105   */\n      swap4\n      pop\n        /* \"#utility.yul\":3129:3207   */\n      tag_166\n        /* \"#utility.yul\":3201:3206   */\n      dup4\n        /* \"#utility.yul\":3129:3207   */\n      tag_167\n      jump\t// in\n    tag_166:\n        /* \"#utility.yul\":3230:3237   */\n      dup1\n        /* \"#utility.yul\":3261:3262   */\n      0x00\n        /* \"#utility.yul\":3246:3596   */\n    tag_168:\n        /* \"#utility.yul\":3271:3277   */\n      dup4\n        /* \"#utility.yul\":3268:3269   */\n      dup2\n        /* \"#utility.yul\":3265:3278   */\n      lt\n        /* \"#utility.yul\":3246:3596   */\n      iszero\n      tag_170\n      jumpi\n        /* \"#utility.yul\":3347:3353   */\n      dup2\n        /* \"#utility.yul\":3341:3354   */\n      mload\n        /* \"#utility.yul\":3374:3481   */\n      tag_171\n        /* \"#utility.yul\":3477:3480   */\n      dup9\n        /* \"#utility.yul\":3462:3475   */\n      dup3\n        /* \"#utility.yul\":3374:3481   */\n      tag_149\n      jump\t// in\n    tag_171:\n        /* \"#utility.yul\":3367:3481   */\n      swap8\n      pop\n        /* \"#utility.yul\":3504:3586   */\n      tag_172\n        /* \"#utility.yul\":3579:3585   */\n      dup4\n        /* \"#utility.yul\":3504:3586   */\n      tag_173\n      jump\t// in\n    tag_172:\n        /* \"#utility.yul\":3494:3586   */\n      swap3\n      pop\n        /* \"#utility.yul\":3306:3596   */\n      pop\n        /* \"#utility.yul\":3293:3294   */\n      0x01\n        /* \"#utility.yul\":3290:3291   */\n      dup2\n        /* \"#utility.yul\":3286:3295   */\n      add\n        /* \"#utility.yul\":3281:3295   */\n      swap1\n      pop\n        /* \"#utility.yul\":3246:3596   */\n      jump(tag_168)\n    tag_170:\n        /* \"#utility.yul\":3250:3264   */\n      pop\n        /* \"#utility.yul\":3612:3615   */\n      dup6\n        /* \"#utility.yul\":3605:3615   */\n      swap4\n      pop\n        /* \"#utility.yul\":2881:3621   */\n      pop\n      pop\n      pop\n        /* \"#utility.yul\":2713:3621   */\n      swap3\n      swap2\n      pop\n      pop\n      jump\t// out\n        /* \"#utility.yul\":3627:3794   */\n    tag_174:\n        /* \"#utility.yul\":3732:3787   */\n      tag_176\n        /* \"#utility.yul\":3781:3786   */\n      dup2\n        /* \"#utility.yul\":3732:3787   */\n      tag_177\n      jump\t// in\n    tag_176:\n        /* \"#utility.yul\":3727:3730   */\n      dup3\n        /* \"#utility.yul\":3720:3788   */\n      mstore\n        /* \"#utility.yul\":3627:3794   */\n      pop\n      pop\n      jump\t// out\n        /* \"#utility.yul\":3800:4166   */\n    tag_178:\n        /* \"#utility.yul\":3942:3945   */\n      0x00\n        /* \"#utility.yul\":3963:4030   */\n      tag_180\n        /* \"#utility.yul\":4027:4029   */\n      0x12\n        /* \"#utility.yul\":4022:4025   */\n      dup4\n        /* \"#utility.yul\":3963:4030   */\n      tag_181\n      jump\t// in\n    tag_180:\n        /* \"#utility.yul\":3956:4030   */\n      swap2\n      pop\n        /* \"#utility.yul\":4039:4132   */\n      tag_182\n        /* \"#utility.yul\":4128:4131   */\n      dup3\n        /* \"#utility.yul\":4039:4132   */\n      tag_183\n      jump\t// in\n    tag_182:\n        /* \"#utility.yul\":4157:4159   */\n      0x20\n        /* \"#utility.yul\":4152:4155   */\n      dup3\n        /* \"#utility.yul\":4148:4160   */\n      add\n        /* \"#utility.yul\":4141:4160   */\n      swap1\n      pop\n        /* \"#utility.yul\":3800:4166   */\n      swap2\n      swap1\n      pop\n      jump\t// out\n        /* \"#utility.yul\":4172:4538   */\n    tag_184:\n        /* \"#utility.yul\":4314:4317   */\n      0x00\n        /* \"#utility.yul\":4335:4402   */\n      tag_186\n        /* \"#utility.yul\":4399:4401   */\n      0x0f\n        /* \"#utility.yul\":4394:4397   */\n      dup4\n        /* \"#utility.yul\":4335:4402   */\n      tag_181\n      jump\t// in\n    tag_186:\n        /* \"#utility.yul\":4328:4402   */\n      swap2\n      pop\n        /* \"#utility.yul\":4411:4504   */\n      tag_187\n        /* \"#utility.yul\":4500:4503   */\n      dup3\n        /* \"#utility.yul\":4411:4504   */\n      tag_188\n      jump\t// in\n    tag_187:\n        /* \"#utility.yul\":4529:4531   */\n      0x20\n        /* \"#utility.yul\":4524:4527   */\n      dup3\n        /* \"#utility.yul\":4520:4532   */\n      add\n        /* \"#utility.yul\":4513:4532   */\n      swap1\n      pop\n        /* \"#utility.yul\":4172:4538   */\n      swap2\n      swap1\n      pop\n      jump\t// out\n        /* \"#utility.yul\":4544:4910   */\n    tag_189:\n        /* \"#utility.yul\":4686:4689   */\n      0x00\n        /* \"#utility.yul\":4707:4774   */\n      tag_191\n        /* \"#utility.yul\":4771:4773   */\n      0x14\n        /* \"#utility.yul\":4766:4769   */\n      dup4\n        /* \"#utility.yul\":4707:4774   */\n      tag_181\n      jump\t// in\n    tag_191:\n        /* \"#utility.yul\":4700:4774   */\n      swap2\n      pop\n        /* \"#utility.yul\":4783:4876   */\n      tag_192\n        /* \"#utility.yul\":4872:4875   */\n      dup3\n        /* \"#utility.yul\":4783:4876   */\n      tag_193\n      jump\t// in\n    tag_192:\n        /* \"#utility.yul\":4901:4903   */\n      0x20\n        /* \"#utility.yul\":4896:4899   */\n      dup3\n        /* \"#utility.yul\":4892:4904   */\n      add\n        /* \"#utility.yul\":4885:4904   */\n      swap1\n      pop\n        /* \"#utility.yul\":4544:4910   */\n      swap2\n      swap1\n      pop\n      jump\t// out\n        /* \"#utility.yul\":4916:5282   */\n    tag_194:\n        /* \"#utility.yul\":5058:5061   */\n      0x00\n        /* \"#utility.yul\":5079:5146   */\n      tag_196\n        /* \"#utility.yul\":5143:5145   */\n      0x0f\n        /* \"#utility.yul\":5138:5141   */\n      dup4\n        /* \"#utility.yul\":5079:5146   */\n      tag_181\n      jump\t// in\n    tag_196:\n        /* \"#utility.yul\":5072:5146   */\n      swap2\n      pop\n        /* \"#utility.yul\":5155:5248   */\n      tag_197\n        /* \"#utility.yul\":5244:5247   */\n      dup3\n        /* \"#utility.yul\":5155:5248   */\n      tag_198\n      jump\t// in\n    tag_197:\n        /* \"#utility.yul\":5273:5275   */\n      0x20\n        /* \"#utility.yul\":5268:5271   */\n      dup3\n        /* \"#utility.yul\":5264:5276   */\n      add\n        /* \"#utility.yul\":5257:5276   */\n      swap1\n      pop\n        /* \"#utility.yul\":4916:5282   */\n      swap2\n      swap1\n      pop\n      jump\t// out\n        /* \"#utility.yul\":5288:5654   */\n    tag_199:\n        /* \"#utility.yul\":5430:5433   */\n      0x00\n        /* \"#utility.yul\":5451:5518   */\n      tag_201\n        /* \"#utility.yul\":5515:5517   */\n      0x1b\n        /* \"#utility.yul\":5510:5513   */\n      dup4\n        /* \"#utility.yul\":5451:5518   */\n      tag_181\n      jump\t// in\n    tag_201:\n        /* \"#utility.yul\":5444:5518   */\n      swap2\n      pop\n        /* \"#utility.yul\":5527:5620   */\n      tag_202\n        /* \"#utility.yul\":5616:5619   */\n      dup3\n        /* \"#utility.yul\":5527:5620   */\n      tag_203\n      jump\t// in\n    tag_202:\n        /* \"#utility.yul\":5645:5647   */\n      0x20\n        /* \"#utility.yul\":5640:5643   */\n      dup3\n        /* \"#utility.yul\":5636:5648   */\n      add\n        /* \"#utility.yul\":5629:5648   */\n      swap1\n      pop\n        /* \"#utility.yul\":5288:5654   */\n      swap2\n      swap1\n      pop\n      jump\t// out\n        /* \"#utility.yul\":5746:6425   */\n    tag_152:\n        /* \"#utility.yul\":5877:5881   */\n      0x60\n        /* \"#utility.yul\":5872:5875   */\n      dup3\n        /* \"#utility.yul\":5868:5882   */\n      add\n        /* \"#utility.yul\":5967:5971   */\n      0x00\n        /* \"#utility.yul\":5960:5965   */\n      dup3\n        /* \"#utility.yul\":5956:5972   */\n      add\n        /* \"#utility.yul\":5950:5973   */\n      mload\n        /* \"#utility.yul\":5986:6049   */\n      tag_205\n        /* \"#utility.yul\":6043:6047   */\n      0x00\n        /* \"#utility.yul\":6038:6041   */\n      dup6\n        /* \"#utility.yul\":6034:6048   */\n      add\n        /* \"#utility.yul\":6020:6032   */\n      dup3\n        /* \"#utility.yul\":5986:6049   */\n      tag_153\n      jump\t// in\n    tag_205:\n        /* \"#utility.yul\":5892:6059   */\n      pop\n        /* \"#utility.yul\":6143:6147   */\n      0x20\n        /* \"#utility.yul\":6136:6141   */\n      dup3\n        /* \"#utility.yul\":6132:6148   */\n      add\n        /* \"#utility.yul\":6126:6149   */\n      mload\n        /* \"#utility.yul\":6162:6225   */\n      tag_206\n        /* \"#utility.yul\":6219:6223   */\n      0x20\n        /* \"#utility.yul\":6214:6217   */\n      dup6\n        /* \"#utility.yul\":6210:6224   */\n      add\n        /* \"#utility.yul\":6196:6208   */\n      dup3\n        /* \"#utility.yul\":6162:6225   */\n      tag_207\n      jump\t// in\n    tag_206:\n        /* \"#utility.yul\":6069:6235   */\n      pop\n        /* \"#utility.yul\":6326:6330   */\n      0x40\n        /* \"#utility.yul\":6319:6324   */\n      dup3\n        /* \"#utility.yul\":6315:6331   */\n      add\n        /* \"#utility.yul\":6309:6332   */\n      mload\n        /* \"#utility.yul\":6345:6408   */\n      tag_208\n        /* \"#utility.yul\":6402:6406   */\n      0x40\n        /* \"#utility.yul\":6397:6400   */\n      dup6\n        /* \"#utility.yul\":6393:6407   */\n      add\n        /* \"#utility.yul\":6379:6391   */\n      dup3\n        /* \"#utility.yul\":6345:6408   */\n      tag_153\n      jump\t// in\n    tag_208:\n        /* \"#utility.yul\":6245:6418   */\n      pop\n        /* \"#utility.yul\":5846:6425   */\n      pop\n        /* \"#utility.yul\":5746:6425   */\n      pop\n      pop\n      jump\t// out\n        /* \"#utility.yul\":6431:6539   */\n    tag_207:\n        /* \"#utility.yul\":6508:6532   */\n      tag_210\n        /* \"#utility.yul\":6526:6531   */\n      dup2\n        /* \"#utility.yul\":6508:6532   */\n      tag_211\n      jump\t// in\n    tag_210:\n        /* \"#utility.yul\":6503:6506   */\n      dup3\n        /* \"#utility.yul\":6496:6533   */\n      mstore\n        /* \"#utility.yul\":6431:6539   */\n      pop\n      pop\n      jump\t// out\n        /* \"#utility.yul\":6545:6663   */\n    tag_212:\n        /* \"#utility.yul\":6632:6656   */\n      tag_214\n        /* \"#utility.yul\":6650:6655   */\n      dup2\n        /* \"#utility.yul\":6632:6656   */\n      tag_211\n      jump\t// in\n    tag_214:\n        /* \"#utility.yul\":6627:6630   */\n      dup3\n        /* \"#utility.yul\":6620:6657   */\n      mstore\n        /* \"#utility.yul\":6545:6663   */\n      pop\n      pop\n      jump\t// out\n        /* \"#utility.yul\":6669:6891   */\n    tag_35:\n        /* \"#utility.yul\":6762:6766   */\n      0x00\n        /* \"#utility.yul\":6800:6802   */\n      0x20\n        /* \"#utility.yul\":6789:6798   */\n      dup3\n        /* \"#utility.yul\":6785:6803   */\n      add\n        /* \"#utility.yul\":6777:6803   */\n      swap1\n      pop\n        /* \"#utility.yul\":6813:6884   */\n      tag_216\n        /* \"#utility.yul\":6881:6882   */\n      0x00\n        /* \"#utility.yul\":6870:6879   */\n      dup4\n        /* \"#utility.yul\":6866:6883   */\n      add\n        /* \"#utility.yul\":6857:6863   */\n      dup5\n        /* \"#utility.yul\":6813:6884   */\n      tag_157\n      jump\t// in\n    tag_216:\n        /* \"#utility.yul\":6669:6891   */\n      swap3\n      swap2\n      pop\n      pop\n      jump\t// out\n        /* \"#utility.yul\":6897:7229   */\n    tag_67:\n        /* \"#utility.yul\":7018:7022   */\n      0x00\n        /* \"#utility.yul\":7056:7058   */\n      0x40\n        /* \"#utility.yul\":7045:7054   */\n      dup3\n        /* \"#utility.yul\":7041:7059   */\n      add\n        /* \"#utility.yul\":7033:7059   */\n      swap1\n      pop\n        /* \"#utility.yul\":7069:7140   */\n      tag_218\n        /* \"#utility.yul\":7137:7138   */\n      0x00\n        /* \"#utility.yul\":7126:7135   */\n      dup4\n        /* \"#utility.yul\":7122:7139   */\n      add\n        /* \"#utility.yul\":7113:7119   */\n      dup6\n        /* \"#utility.yul\":7069:7140   */\n      tag_157\n      jump\t// in\n    tag_218:\n        /* \"#utility.yul\":7150:7222   */\n      tag_219\n        /* \"#utility.yul\":7218:7220   */\n      0x20\n        /* \"#utility.yul\":7207:7216   */\n      dup4\n        /* \"#utility.yul\":7203:7221   */\n      add\n        /* \"#utility.yul\":7194:7200   */\n      dup5\n        /* \"#utility.yul\":7150:7222   */\n      tag_157\n      jump\t// in\n    tag_219:\n        /* \"#utility.yul\":6897:7229   */\n      swap4\n      swap3\n      pop\n      pop\n      pop\n      jump\t// out\n        /* \"#utility.yul\":7235:7677   */\n    tag_76:\n        /* \"#utility.yul\":7384:7388   */\n      0x00\n        /* \"#utility.yul\":7422:7424   */\n      0x60\n        /* \"#utility.yul\":7411:7420   */\n      dup3\n        /* \"#utility.yul\":7407:7425   */\n      add\n        /* \"#utility.yul\":7399:7425   */\n      swap1\n      pop\n        /* \"#utility.yul\":7435:7506   */\n      tag_221\n        /* \"#utility.yul\":7503:7504   */\n      0x00\n        /* \"#utility.yul\":7492:7501   */\n      dup4\n        /* \"#utility.yul\":7488:7505   */\n      add\n        /* \"#utility.yul\":7479:7485   */\n      dup7\n        /* \"#utility.yul\":7435:7506   */\n      tag_157\n      jump\t// in\n    tag_221:\n        /* \"#utility.yul\":7516:7588   */\n      tag_222\n        /* \"#utility.yul\":7584:7586   */\n      0x20\n        /* \"#utility.yul\":7573:7582   */\n      dup4\n        /* \"#utility.yul\":7569:7587   */\n      add\n        /* \"#utility.yul\":7560:7566   */\n      dup6\n        /* \"#utility.yul\":7516:7588   */\n      tag_157\n      jump\t// in\n    tag_222:\n        /* \"#utility.yul\":7598:7670   */\n      tag_223\n        /* \"#utility.yul\":7666:7668   */\n      0x40\n        /* \"#utility.yul\":7655:7664   */\n      dup4\n        /* \"#utility.yul\":7651:7669   */\n      add\n        /* \"#utility.yul\":7642:7648   */\n      dup5\n        /* \"#utility.yul\":7598:7670   */\n      tag_212\n      jump\t// in\n    tag_223:\n        /* \"#utility.yul\":7235:7677   */\n      swap5\n      swap4\n      pop\n      pop\n      pop\n      pop\n      jump\t// out\n        /* \"#utility.yul\":7683:8125   */\n    tag_26:\n        /* \"#utility.yul\":7832:7836   */\n      0x00\n        /* \"#utility.yul\":7870:7872   */\n      0x60\n        /* \"#utility.yul\":7859:7868   */\n      dup3\n        /* \"#utility.yul\":7855:7873   */\n      add\n        /* \"#utility.yul\":7847:7873   */\n      swap1\n      pop\n        /* \"#utility.yul\":7883:7954   */\n      tag_225\n        /* \"#utility.yul\":7951:7952   */\n      0x00\n        /* \"#utility.yul\":7940:7949   */\n      dup4\n        /* \"#utility.yul\":7936:7953   */\n      add\n        /* \"#utility.yul\":7927:7933   */\n      dup7\n        /* \"#utility.yul\":7883:7954   */\n      tag_157\n      jump\t// in\n    tag_225:\n        /* \"#utility.yul\":7964:8036   */\n      tag_226\n        /* \"#utility.yul\":8032:8034   */\n      0x20\n        /* \"#utility.yul\":8021:8030   */\n      dup4\n        /* \"#utility.yul\":8017:8035   */\n      add\n        /* \"#utility.yul\":8008:8014   */\n      dup6\n        /* \"#utility.yul\":7964:8036   */\n      tag_212\n      jump\t// in\n    tag_226:\n        /* \"#utility.yul\":8046:8118   */\n      tag_227\n        /* \"#utility.yul\":8114:8116   */\n      0x40\n        /* \"#utility.yul\":8103:8112   */\n      dup4\n        /* \"#utility.yul\":8099:8117   */\n      add\n        /* \"#utility.yul\":8090:8096   */\n      dup5\n        /* \"#utility.yul\":8046:8118   */\n      tag_157\n      jump\t// in\n    tag_227:\n        /* \"#utility.yul\":7683:8125   */\n      swap5\n      swap4\n      pop\n      pop\n      pop\n      pop\n      jump\t// out\n        /* \"#utility.yul\":8131:8592   */\n    tag_20:\n        /* \"#utility.yul\":8318:8322   */\n      0x00\n        /* \"#utility.yul\":8356:8358   */\n      0x20\n        /* \"#utility.yul\":8345:8354   */\n      dup3\n        /* \"#utility.yul\":8341:8359   */\n      add\n        /* \"#utility.yul\":8333:8359   */\n      swap1\n      pop\n        /* \"#utility.yul\":8405:8414   */\n      dup2\n        /* \"#utility.yul\":8399:8403   */\n      dup2\n        /* \"#utility.yul\":8395:8415   */\n      sub\n        /* \"#utility.yul\":8391:8392   */\n      0x00\n        /* \"#utility.yul\":8380:8389   */\n      dup4\n        /* \"#utility.yul\":8376:8393   */\n      add\n        /* \"#utility.yul\":8369:8416   */\n      mstore\n        /* \"#utility.yul\":8433:8585   */\n      tag_229\n        /* \"#utility.yul\":8580:8584   */\n      dup2\n        /* \"#utility.yul\":8571:8577   */\n      dup5\n        /* \"#utility.yul\":8433:8585   */\n      tag_160\n      jump\t// in\n    tag_229:\n        /* \"#utility.yul\":8425:8585   */\n      swap1\n      pop\n        /* \"#utility.yul\":8131:8592   */\n      swap3\n      swap2\n      pop\n      pop\n      jump\t// out\n        /* \"#utility.yul\":8598:8856   */\n    tag_16:\n        /* \"#utility.yul\":8709:8713   */\n      0x00\n        /* \"#utility.yul\":8747:8749   */\n      0x20\n        /* \"#utility.yul\":8736:8745   */\n      dup3\n        /* \"#utility.yul\":8732:8750   */\n      add\n        /* \"#utility.yul\":8724:8750   */\n      swap1\n      pop\n        /* \"#utility.yul\":8760:8849   */\n      tag_231\n        /* \"#utility.yul\":8846:8847   */\n      0x00\n        /* \"#utility.yul\":8835:8844   */\n      dup4\n        /* \"#utility.yul\":8831:8848   */\n      add\n        /* \"#utility.yul\":8822:8828   */\n      dup5\n        /* \"#utility.yul\":8760:8849   */\n      tag_174\n      jump\t// in\n    tag_231:\n        /* \"#utility.yul\":8598:8856   */\n      swap3\n      swap2\n      pop\n      pop\n      jump\t// out\n        /* \"#utility.yul\":8862:9281   */\n    tag_74:\n        /* \"#utility.yul\":9028:9032   */\n      0x00\n        /* \"#utility.yul\":9066:9068   */\n      0x20\n        /* \"#utility.yul\":9055:9064   */\n      dup3\n        /* \"#utility.yul\":9051:9069   */\n      add\n        /* \"#utility.yul\":9043:9069   */\n      swap1\n      pop\n        /* \"#utility.yul\":9115:9124   */\n      dup2\n        /* \"#utility.yul\":9109:9113   */\n      dup2\n        /* \"#utility.yul\":9105:9125   */\n      sub\n        /* \"#utility.yul\":9101:9102   */\n      0x00\n        /* \"#utility.yul\":9090:9099   */\n      dup4\n        /* \"#utility.yul\":9086:9103   */\n      add\n        /* \"#utility.yul\":9079:9126   */\n      mstore\n        /* \"#utility.yul\":9143:9274   */\n      tag_233\n        /* \"#utility.yul\":9269:9273   */\n      dup2\n        /* \"#utility.yul\":9143:9274   */\n      tag_178\n      jump\t// in\n    tag_233:\n        /* \"#utility.yul\":9135:9274   */\n      swap1\n      pop\n        /* \"#utility.yul\":8862:9281   */\n      swap2\n      swap1\n      pop\n      jump\t// out\n        /* \"#utility.yul\":9287:9706   */\n    tag_58:\n        /* \"#utility.yul\":9453:9457   */\n      0x00\n        /* \"#utility.yul\":9491:9493   */\n      0x20\n        /* \"#utility.yul\":9480:9489   */\n      dup3\n        /* \"#utility.yul\":9476:9494   */\n      add\n        /* \"#utility.yul\":9468:9494   */\n      swap1\n      pop\n        /* \"#utility.yul\":9540:9549   */\n      dup2\n        /* \"#utility.yul\":9534:9538   */\n      dup2\n        /* \"#utility.yul\":9530:9550   */\n      sub\n        /* \"#utility.yul\":9526:9527   */\n      0x00\n        /* \"#utility.yul\":9515:9524   */\n      dup4\n        /* \"#utility.yul\":9511:9528   */\n      add\n        /* \"#utility.yul\":9504:9551   */\n      mstore\n        /* \"#utility.yul\":9568:9699   */\n      tag_235\n        /* \"#utility.yul\":9694:9698   */\n      dup2\n        /* \"#utility.yul\":9568:9699   */\n      tag_184\n      jump\t// in\n    tag_235:\n        /* \"#utility.yul\":9560:9699   */\n      swap1\n      pop\n        /* \"#utility.yul\":9287:9706   */\n      swap2\n      swap1\n      pop\n      jump\t// out\n        /* \"#utility.yul\":9712:10131   */\n    tag_43:\n        /* \"#utility.yul\":9878:9882   */\n      0x00\n        /* \"#utility.yul\":9916:9918   */\n      0x20\n        /* \"#utility.yul\":9905:9914   */\n      dup3\n        /* \"#utility.yul\":9901:9919   */\n      add\n        /* \"#utility.yul\":9893:9919   */\n      swap1\n      pop\n        /* \"#utility.yul\":9965:9974   */\n      dup2\n        /* \"#utility.yul\":9959:9963   */\n      dup2\n        /* \"#utility.yul\":9955:9975   */\n      sub\n        /* \"#utility.yul\":9951:9952   */\n      0x00\n        /* \"#utility.yul\":9940:9949   */\n      dup4\n        /* \"#utility.yul\":9936:9953   */\n      add\n        /* \"#utility.yul\":9929:9976   */\n      mstore\n        /* \"#utility.yul\":9993:10124   */\n      tag_237\n        /* \"#utility.yul\":10119:10123   */\n      dup2\n        /* \"#utility.yul\":9993:10124   */\n      tag_189\n      jump\t// in\n    tag_237:\n        /* \"#utility.yul\":9985:10124   */\n      swap1\n      pop\n        /* \"#utility.yul\":9712:10131   */\n      swap2\n      swap1\n      pop\n      jump\t// out\n        /* \"#utility.yul\":10137:10556   */\n    tag_102:\n        /* \"#utility.yul\":10303:10307   */\n      0x00\n        /* \"#utility.yul\":10341:10343   */\n      0x20\n        /* \"#utility.yul\":10330:10339   */\n      dup3\n        /* \"#utility.yul\":10326:10344   */\n      add\n        /* \"#utility.yul\":10318:10344   */\n      swap1\n      pop\n        /* \"#utility.yul\":10390:10399   */\n      dup2\n        /* \"#utility.yul\":10384:10388   */\n      dup2\n        /* \"#utility.yul\":10380:10400   */\n      sub\n        /* \"#utility.yul\":10376:10377   */\n      0x00\n        /* \"#utility.yul\":10365:10374   */\n      dup4\n        /* \"#utility.yul\":10361:10378   */\n      add\n        /* \"#utility.yul\":10354:10401   */\n      mstore\n        /* \"#utility.yul\":10418:10549   */\n      tag_239\n        /* \"#utility.yul\":10544:10548   */\n      dup2\n        /* \"#utility.yul\":10418:10549   */\n      tag_194\n      jump\t// in\n    tag_239:\n        /* \"#utility.yul\":10410:10549   */\n      swap1\n      pop\n        /* \"#utility.yul\":10137:10556   */\n      swap2\n      swap1\n      pop\n      jump\t// out\n        /* \"#utility.yul\":10562:10981   */\n    tag_65:\n        /* \"#utility.yul\":10728:10732   */\n      0x00\n        /* \"#utility.yul\":10766:10768   */\n      0x20\n        /* \"#utility.yul\":10755:10764   */\n      dup3\n        /* \"#utility.yul\":10751:10769   */\n      add\n        /* \"#utility.yul\":10743:10769   */\n      swap1\n      pop\n        /* \"#utility.yul\":10815:10824   */\n      dup2\n        /* \"#utility.yul\":10809:10813   */\n      dup2\n        /* \"#utility.yul\":10805:10825   */\n      sub\n        /* \"#utility.yul\":10801:10802   */\n      0x00\n        /* \"#utility.yul\":10790:10799   */\n      dup4\n        /* \"#utility.yul\":10786:10803   */\n      add\n        /* \"#utility.yul\":10779:10826   */\n      mstore\n        /* \"#utility.yul\":10843:10974   */\n      tag_241\n        /* \"#utility.yul\":10969:10973   */\n      dup2\n        /* \"#utility.yul\":10843:10974   */\n      tag_199\n      jump\t// in\n    tag_241:\n        /* \"#utility.yul\":10835:10974   */\n      swap1\n      pop\n        /* \"#utility.yul\":10562:10981   */\n      swap2\n      swap1\n      pop\n      jump\t// out\n        /* \"#utility.yul\":10987:11209   */\n    tag_114:\n        /* \"#utility.yul\":11080:11084   */\n      0x00\n        /* \"#utility.yul\":11118:11120   */\n      0x20\n        /* \"#utility.yul\":11107:11116   */\n      dup3\n        /* \"#utility.yul\":11103:11121   */\n      add\n        /* \"#utility.yul\":11095:11121   */\n      swap1\n      pop\n        /* \"#utility.yul\":11131:11202   */\n      tag_243\n        /* \"#utility.yul\":11199:11200   */\n      0x00\n        /* \"#utility.yul\":11188:11197   */\n      dup4\n        /* \"#utility.yul\":11184:11201   */\n      add\n        /* \"#utility.yul\":11175:11181   */\n      dup5\n        /* \"#utility.yul\":11131:11202   */\n      tag_212\n      jump\t// in\n    tag_243:\n        /* \"#utility.yul\":10987:11209   */\n      swap3\n      swap2\n      pop\n      pop\n      jump\t// out\n        /* \"#utility.yul\":11215:11547   */\n    tag_48:\n        /* \"#utility.yul\":11336:11340   */\n      0x00\n        /* \"#utility.yul\":11374:11376   */\n      0x40\n        /* \"#utility.yul\":11363:11372   */\n      dup3\n        /* \"#utility.yul\":11359:11377   */\n      add\n        /* \"#utility.yul\":11351:11377   */\n      swap1\n      pop\n        /* \"#utility.yul\":11387:11458   */\n      tag_245\n        /* \"#utility.yul\":11455:11456   */\n      0x00\n        /* \"#utility.yul\":11444:11453   */\n      dup4\n        /* \"#utility.yul\":11440:11457   */\n      add\n        /* \"#utility.yul\":11431:11437   */\n      dup6\n        /* \"#utility.yul\":11387:11458   */\n      tag_212\n      jump\t// in\n    tag_245:\n        /* \"#utility.yul\":11468:11540   */\n      tag_246\n        /* \"#utility.yul\":11536:11538   */\n      0x20\n        /* \"#utility.yul\":11525:11534   */\n      dup4\n        /* \"#utility.yul\":11521:11539   */\n      add\n        /* \"#utility.yul\":11512:11518   */\n      dup5\n        /* \"#utility.yul\":11468:11540   */\n      tag_212\n      jump\t// in\n    tag_246:\n        /* \"#utility.yul\":11215:11547   */\n      swap4\n      swap3\n      pop\n      pop\n      pop\n      jump\t// out\n        /* \"#utility.yul\":11634:11788   */\n    tag_167:\n        /* \"#utility.yul\":11723:11727   */\n      0x00\n        /* \"#utility.yul\":11746:11749   */\n      dup2\n        /* \"#utility.yul\":11738:11749   */\n      swap1\n      pop\n        /* \"#utility.yul\":11776:11780   */\n      0x20\n        /* \"#utility.yul\":11771:11774   */\n      dup3\n        /* \"#utility.yul\":11767:11781   */\n      add\n        /* \"#utility.yul\":11759:11781   */\n      swap1\n      pop\n        /* \"#utility.yul\":11634:11788   */\n      swap2\n      swap1\n      pop\n      jump\t// out\n        /* \"#utility.yul\":11794:11930   */\n    tag_163:\n        /* \"#utility.yul\":11883:11889   */\n      0x00\n        /* \"#utility.yul\":11917:11922   */\n      dup2\n        /* \"#utility.yul\":11911:11923   */\n      mload\n        /* \"#utility.yul\":11901:11923   */\n      swap1\n      pop\n        /* \"#utility.yul\":11794:11930   */\n      swap2\n      swap1\n      pop\n      jump\t// out\n        /* \"#utility.yul\":11936:12071   */\n    tag_173:\n        /* \"#utility.yul\":12028:12032   */\n      0x00\n        /* \"#utility.yul\":12060:12064   */\n      0x20\n        /* \"#utility.yul\":12055:12058   */\n      dup3\n        /* \"#utility.yul\":12051:12065   */\n      add\n        /* \"#utility.yul\":12043:12065   */\n      swap1\n      pop\n        /* \"#utility.yul\":11936:12071   */\n      swap2\n      swap1\n      pop\n      jump\t// out\n        /* \"#utility.yul\":12077:12283   */\n    tag_165:\n        /* \"#utility.yul\":12198:12209   */\n      0x00\n        /* \"#utility.yul\":12232:12238   */\n      dup3\n        /* \"#utility.yul\":12227:12230   */\n      dup3\n        /* \"#utility.yul\":12220:12239   */\n      mstore\n        /* \"#utility.yul\":12272:12276   */\n      0x20\n        /* \"#utility.yul\":12267:12270   */\n      dup3\n        /* \"#utility.yul\":12263:12277   */\n      add\n        /* \"#utility.yul\":12248:12277   */\n      swap1\n      pop\n        /* \"#utility.yul\":12077:12283   */\n      swap3\n      swap2\n      pop\n      pop\n      jump\t// out\n        /* \"#utility.yul\":12289:12458   */\n    tag_181:\n        /* \"#utility.yul\":12373:12384   */\n      0x00\n        /* \"#utility.yul\":12407:12413   */\n      dup3\n        /* \"#utility.yul\":12402:12405   */\n      dup3\n        /* \"#utility.yul\":12395:12414   */\n      mstore\n        /* \"#utility.yul\":12447:12451   */\n      0x20\n        /* \"#utility.yul\":12442:12445   */\n      dup3\n        /* \"#utility.yul\":12438:12452   */\n      add\n        /* \"#utility.yul\":12423:12452   */\n      swap1\n      pop\n        /* \"#utility.yul\":12289:12458   */\n      swap3\n      swap2\n      pop\n      pop\n      jump\t// out\n        /* \"#utility.yul\":12464:12655   */\n    tag_46:\n        /* \"#utility.yul\":12504:12508   */\n      0x00\n        /* \"#utility.yul\":12524:12544   */\n      tag_255\n        /* \"#utility.yul\":12542:12543   */\n      dup3\n        /* \"#utility.yul\":12524:12544   */\n      tag_211\n      jump\t// in\n    tag_255:\n        /* \"#utility.yul\":12519:12544   */\n      swap2\n      pop\n        /* \"#utility.yul\":12558:12578   */\n      tag_256\n        /* \"#utility.yul\":12576:12577   */\n      dup4\n        /* \"#utility.yul\":12558:12578   */\n      tag_211\n      jump\t// in\n    tag_256:\n        /* \"#utility.yul\":12553:12578   */\n      swap3\n      pop\n        /* \"#utility.yul\":12597:12598   */\n      dup3\n        /* \"#utility.yul\":12594:12595   */\n      dup3\n        /* \"#utility.yul\":12591:12599   */\n      lt\n        /* \"#utility.yul\":12588:12622   */\n      iszero\n      tag_257\n      jumpi\n        /* \"#utility.yul\":12602:12620   */\n      tag_258\n      tag_259\n      jump\t// in\n    tag_258:\n        /* \"#utility.yul\":12588:12622   */\n    tag_257:\n        /* \"#utility.yul\":12647:12648   */\n      dup3\n        /* \"#utility.yul\":12644:12645   */\n      dup3\n        /* \"#utility.yul\":12640:12649   */\n      sub\n        /* \"#utility.yul\":12632:12649   */\n      swap1\n      pop\n        /* \"#utility.yul\":12464:12655   */\n      swap3\n      swap2\n      pop\n      pop\n      jump\t// out\n        /* \"#utility.yul\":12661:12757   */\n    tag_156:\n        /* \"#utility.yul\":12698:12705   */\n      0x00\n        /* \"#utility.yul\":12727:12751   */\n      tag_261\n        /* \"#utility.yul\":12745:12750   */\n      dup3\n        /* \"#utility.yul\":12727:12751   */\n      tag_262\n      jump\t// in\n    tag_261:\n        /* \"#utility.yul\":12716:12751   */\n      swap1\n      pop\n        /* \"#utility.yul\":12661:12757   */\n      swap2\n      swap1\n      pop\n      jump\t// out\n        /* \"#utility.yul\":12763:12853   */\n    tag_263:\n        /* \"#utility.yul\":12797:12804   */\n      0x00\n        /* \"#utility.yul\":12840:12845   */\n      dup2\n        /* \"#utility.yul\":12833:12846   */\n      iszero\n        /* \"#utility.yul\":12826:12847   */\n      iszero\n        /* \"#utility.yul\":12815:12847   */\n      swap1\n      pop\n        /* \"#utility.yul\":12763:12853   */\n      swap2\n      swap1\n      pop\n      jump\t// out\n        /* \"#utility.yul\":12859:12985   */\n    tag_262:\n        /* \"#utility.yul\":12896:12903   */\n      0x00\n        /* \"#utility.yul\":12936:12978   */\n      0xffffffffffffffffffffffffffffffffffffffff\n        /* \"#utility.yul\":12929:12934   */\n      dup3\n        /* \"#utility.yul\":12925:12979   */\n      and\n        /* \"#utility.yul\":12914:12979   */\n      swap1\n      pop\n        /* \"#utility.yul\":12859:12985   */\n      swap2\n      swap1\n      pop\n      jump\t// out\n        /* \"#utility.yul\":12991:13068   */\n    tag_211:\n        /* \"#utility.yul\":13028:13035   */\n      0x00\n        /* \"#utility.yul\":13057:13062   */\n      dup2\n        /* \"#utility.yul\":13046:13062   */\n      swap1\n      pop\n        /* \"#utility.yul\":12991:13068   */\n      swap2\n      swap1\n      pop\n      jump\t// out\n        /* \"#utility.yul\":13074:13218   */\n    tag_177:\n        /* \"#utility.yul\":13142:13151   */\n      0x00\n        /* \"#utility.yul\":13175:13212   */\n      tag_268\n        /* \"#utility.yul\":13206:13211   */\n      dup3\n        /* \"#utility.yul\":13175:13212   */\n      tag_269\n      jump\t// in\n    tag_268:\n        /* \"#utility.yul\":13162:13212   */\n      swap1\n      pop\n        /* \"#utility.yul\":13074:13218   */\n      swap2\n      swap1\n      pop\n      jump\t// out\n        /* \"#utility.yul\":13224:13350   */\n    tag_269:\n        /* \"#utility.yul\":13274:13283   */\n      0x00\n        /* \"#utility.yul\":13307:13344   */\n      tag_271\n        /* \"#utility.yul\":13338:13343   */\n      dup3\n        /* \"#utility.yul\":13307:13344   */\n      tag_272\n      jump\t// in\n    tag_271:\n        /* \"#utility.yul\":13294:13344   */\n      swap1\n      pop\n        /* \"#utility.yul\":13224:13350   */\n      swap2\n      swap1\n      pop\n      jump\t// out\n        /* \"#utility.yul\":13356:13469   */\n    tag_272:\n        /* \"#utility.yul\":13406:13415   */\n      0x00\n        /* \"#utility.yul\":13439:13463   */\n      tag_274\n        /* \"#utility.yul\":13457:13462   */\n      dup3\n        /* \"#utility.yul\":13439:13463   */\n      tag_262\n      jump\t// in\n    tag_274:\n        /* \"#utility.yul\":13426:13463   */\n      swap1\n      pop\n        /* \"#utility.yul\":13356:13469   */\n      swap2\n      swap1\n      pop\n      jump\t// out\n        /* \"#utility.yul\":13475:13655   */\n    tag_259:\n        /* \"#utility.yul\":13523:13600   */\n      0x4e487b7100000000000000000000000000000000000000000000000000000000\n        /* \"#utility.yul\":13520:13521   */\n      0x00\n        /* \"#utility.yul\":13513:13601   */\n      mstore\n        /* \"#utility.yul\":13620:13624   */\n      0x11\n        /* \"#utility.yul\":13617:13618   */\n      0x04\n        /* \"#utility.yul\":13610:13625   */\n      mstore\n        /* \"#utility.yul\":13644:13648   */\n      0x24\n        /* \"#utility.yul\":13641:13642   */\n      0x00\n        /* \"#utility.yul\":13634:13649   */\n      revert\n        /* \"#utility.yul\":13661:13841   */\n    tag_91:\n        /* \"#utility.yul\":13709:13786   */\n      0x4e487b7100000000000000000000000000000000000000000000000000000000\n        /* \"#utility.yul\":13706:13707   */\n      0x00\n        /* \"#utility.yul\":13699:13787   */\n      mstore\n        /* \"#utility.yul\":13806:13810   */\n      0x31\n        /* \"#utility.yul\":13803:13804   */\n      0x04\n        /* \"#utility.yul\":13796:13811   */\n      mstore\n        /* \"#utility.yul\":13830:13834   */\n      0x24\n        /* \"#utility.yul\":13827:13828   */\n      0x00\n        /* \"#utility.yul\":13820:13835   */\n      revert\n        /* \"#utility.yul\":13847:14027   */\n    tag_61:\n        /* \"#utility.yul\":13895:13972   */\n      0x4e487b7100000000000000000000000000000000000000000000000000000000\n        /* \"#utility.yul\":13892:13893   */\n      0x00\n        /* \"#utility.yul\":13885:13973   */\n      mstore\n        /* \"#utility.yul\":13992:13996   */\n      0x32\n        /* \"#utility.yul\":13989:13990   */\n      0x04\n        /* \"#utility.yul\":13982:13997   */\n      mstore\n        /* \"#utility.yul\":14016:14020   */\n      0x24\n        /* \"#utility.yul\":14013:14014   */\n      0x00\n        /* \"#utility.yul\":14006:14021   */\n      revert\n        /* \"#utility.yul\":14156:14273   */\n    tag_134:\n        /* \"#utility.yul\":14265:14266   */\n      0x00\n        /* \"#utility.yul\":14262:14263   */\n      dup1\n        /* \"#utility.yul\":14255:14267   */\n      revert\n        /* \"#utility.yul\":14279:14447   */\n    tag_183:\n        /* \"#utility.yul\":14419:14439   */\n      0x416c6c6f77616e63652065786365656465640000000000000000000000000000\n        /* \"#utility.yul\":14415:14416   */\n      0x00\n        /* \"#utility.yul\":14407:14413   */\n      dup3\n        /* \"#utility.yul\":14403:14417   */\n      add\n        /* \"#utility.yul\":14396:14440   */\n      mstore\n        /* \"#utility.yul\":14279:14447   */\n      pop\n      jump\t// out\n        /* \"#utility.yul\":14453:14618   */\n    tag_188:\n        /* \"#utility.yul\":14593:14610   */\n      0x4f66666572206e6f7420666f756e640000000000000000000000000000000000\n        /* \"#utility.yul\":14589:14590   */\n      0x00\n        /* \"#utility.yul\":14581:14587   */\n      dup3\n        /* \"#utility.yul\":14577:14591   */\n      add\n        /* \"#utility.yul\":14570:14611   */\n      mstore\n        /* \"#utility.yul\":14453:14618   */\n      pop\n      jump\t// out\n        /* \"#utility.yul\":14624:14794   */\n    tag_193:\n        /* \"#utility.yul\":14764:14786   */\n      0x496e73756666696369656e742062616c616e6365000000000000000000000000\n        /* \"#utility.yul\":14760:14761   */\n      0x00\n        /* \"#utility.yul\":14752:14758   */\n      dup3\n        /* \"#utility.yul\":14748:14762   */\n      add\n        /* \"#utility.yul\":14741:14787   */\n      mstore\n        /* \"#utility.yul\":14624:14794   */\n      pop\n      jump\t// out\n        /* \"#utility.yul\":14800:14965   */\n    tag_198:\n        /* \"#utility.yul\":14940:14957   */\n      0x4e6f7420746865206f6666657265720000000000000000000000000000000000\n        /* \"#utility.yul\":14936:14937   */\n      0x00\n        /* \"#utility.yul\":14928:14934   */\n      dup3\n        /* \"#utility.yul\":14924:14938   */\n      add\n        /* \"#utility.yul\":14917:14958   */\n      mstore\n        /* \"#utility.yul\":14800:14965   */\n      pop\n      jump\t// out\n        /* \"#utility.yul\":14971:15148   */\n    tag_203:\n        /* \"#utility.yul\":15111:15140   */\n      0x4e6f74207468652072657175657374656420726563697069656e740000000000\n        /* \"#utility.yul\":15107:15108   */\n      0x00\n        /* \"#utility.yul\":15099:15105   */\n      dup3\n        /* \"#utility.yul\":15095:15109   */\n      add\n        /* \"#utility.yul\":15088:15141   */\n      mstore\n        /* \"#utility.yul\":14971:15148   */\n      pop\n      jump\t// out\n        /* \"#utility.yul\":15154:15276   */\n    tag_119:\n        /* \"#utility.yul\":15227:15251   */\n      tag_287\n        /* \"#utility.yul\":15245:15250   */\n      dup2\n        /* \"#utility.yul\":15227:15251   */\n      tag_156\n      jump\t// in\n    tag_287:\n        /* \"#utility.yul\":15220:15225   */\n      dup2\n        /* \"#utility.yul\":15217:15252   */\n      eq\n        /* \"#utility.yul\":15207:15270   */\n      tag_288\n      jumpi\n        /* \"#utility.yul\":15266:15267   */\n      0x00\n        /* \"#utility.yul\":15263:15264   */\n      dup1\n        /* \"#utility.yul\":15256:15268   */\n      revert\n        /* \"#utility.yul\":15207:15270   */\n    tag_288:\n        /* \"#utility.yul\":15154:15276   */\n      pop\n      jump\t// out\n        /* \"#utility.yul\":15282:15398   */\n    tag_123:\n        /* \"#utility.yul\":15352:15373   */\n      tag_290\n        /* \"#utility.yul\":15367:15372   */\n      dup2\n        /* \"#utility.yul\":15352:15373   */\n      tag_263\n      jump\t// in\n    tag_290:\n        /* \"#utility.yul\":15345:15350   */\n      dup2\n        /* \"#utility.yul\":15342:15374   */\n      eq\n        /* \"#utility.yul\":15332:15392   */\n      tag_291\n      jumpi\n        /* \"#utility.yul\":15388:15389   */\n      0x00\n        /* \"#utility.yul\":15385:15386   */\n      dup1\n        /* \"#utility.yul\":15378:15390   */\n      revert\n        /* \"#utility.yul\":15332:15392   */\n    tag_291:\n        /* \"#utility.yul\":15282:15398   */\n      pop\n      jump\t// out\n        /* \"#utility.yul\":15404:15526   */\n    tag_127:\n        /* \"#utility.yul\":15477:15501   */\n      tag_293\n        /* \"#utility.yul\":15495:15500   */\n      dup2\n        /* \"#utility.yul\":15477:15501   */\n      tag_211\n      jump\t// in\n    tag_293:\n        /* \"#utility.yul\":15470:15475   */\n      dup2\n        /* \"#utility.yul\":15467:15502   */\n      eq\n        /* \"#utility.yul\":15457:15520   */\n      tag_294\n      jumpi\n        /* \"#utility.yul\":15516:15517   */\n      0x00\n        /* \"#utility.yul\":15513:15514   */\n      dup1\n        /* \"#utility.yul\":15506:15518   */\n      revert\n        /* \"#utility.yul\":15457:15520   */\n    tag_294:\n        /* \"#utility.yul\":15404:15526   */\n      pop\n      jump\t// out\n\n    auxdata: 0xa2646970667358221220fc4952a65129686351a045559883d2c8fbf8064e7d371527a432e9aeb8d89ad564736f6c63430008070033\n}\n",
				"bytecode": {
					"linkReferences": {},
					"object": "60806040523480156200001157600080fd5b506040516200163638038062001636833981810160405281019062000037919062000095565b806000806101000a81548173ffffffffffffffffffffffffffffffffffffffff021916908373ffffffffffffffffffffffffffffffffffffffff160217905550506200012e565b6000815190506200008f8162000114565b92915050565b600060208284031215620000ae57620000ad6200010f565b5b6000620000be848285016200007e565b91505092915050565b6000620000d482620000ef565b9050919050565b6000620000e882620000c7565b9050919050565b600073ffffffffffffffffffffffffffffffffffffffff82169050919050565b600080fd5b6200011f81620000db565b81146200012b57600080fd5b50565b6114f8806200013e6000396000f3fe608060405234801561001057600080fd5b50600436106100625760003560e01c8063283eddaf1461006757806336fabbc2146100835780633ee992ee146100a15780638a72ea6a146100bf578063c815729d146100f1578063ef706adf1461010d575b600080fd5b610081600480360381019061007c9190610e5d565b610129565b005b61008b6103a1565b6040516100989190611123565b60405180910390f35b6100a96103c5565b6040516100b69190611101565b60405180910390f35b6100d960048036038101906100d49190610e03565b6104da565b6040516100e8939291906110ca565b60405180910390f35b61010b60048036038101906101069190610e03565b610554565b005b61012760048036038101906101229190610e03565b610a82565b005b8160008054906101000a900473ffffffffffffffffffffffffffffffffffffffff1673ffffffffffffffffffffffffffffffffffffffff166370a08231336040518263ffffffff1660e01b8152600401610183919061104f565b60206040518083038186803b15801561019b57600080fd5b505afa1580156101af573d6000803e3d6000fd5b505050506040513d601f19601f820116820180604052508101906101d39190610e30565b1015610214576040517f08c379a000000000000000000000000000000000000000000000000000000000815260040161020b9061117e565b60405180910390fd5b600160405180606001604052803373ffffffffffffffffffffffffffffffffffffffff1681526020018481526020018373ffffffffffffffffffffffffffffffffffffffff16815250908060018154018082558091505060019003906000526020600020906003020160009091909190915060008201518160000160006101000a81548173ffffffffffffffffffffffffffffffffffffffff021916908373ffffffffffffffffffffffffffffffffffffffff1602179055506020820151816001015560408201518160020160006101000a81548173ffffffffffffffffffffffffffffffffffffffff021916908373ffffffffffffffffffffffffffffffffffffffff1602179055505050600060018080549050610333919061126c565b90508173ffffffffffffffffffffffffffffffffffffffff163373ffffffffffffffffffffffffffffffffffffffff167f38cf54506b5343346b95a1a1019c97c32eb01a3d0db0e12d4122434b1bb6370583866040516103949291906111f9565b60405180910390a3505050565b60008054906101000a900473ffffffffffffffffffffffffffffffffffffffff1681565b60606001805480602002602001604051908101604052809291908181526020016000905b828210156104d157838290600052602060002090600302016040518060600160405290816000820160009054906101000a900473ffffffffffffffffffffffffffffffffffffffff1673ffffffffffffffffffffffffffffffffffffffff1673ffffffffffffffffffffffffffffffffffffffff168152602001600182015481526020016002820160009054906101000a900473ffffffffffffffffffffffffffffffffffffffff1673ffffffffffffffffffffffffffffffffffffffff1673ffffffffffffffffffffffffffffffffffffffff1681525050815260200190600101906103e9565b50505050905090565b600181815481106104ea57600080fd5b90600052602060002090600302016000915090508060000160009054906101000a900473ffffffffffffffffffffffffffffffffffffffff16908060010154908060020160009054906101000a900473ffffffffffffffffffffffffffffffffffffffff16905083565b600180549050811061059b576040517f08c379a00000000000000000000000000000000000000000000000000000000081526004016105929061115e565b60405180910390fd5b6000600182815481106105b1576105b061137c565b5b906000526020600020906003020190503373ffffffffffffffffffffffffffffffffffffffff168160020160009054906101000a900473ffffffffffffffffffffffffffffffffffffffff1673ffffffffffffffffffffffffffffffffffffffff1614610653576040517f08c379a000000000000000000000000000000000000000000000000000000000815260040161064a906111be565b60405180910390fd5b806001015460008054906101000a900473ffffffffffffffffffffffffffffffffffffffff1673ffffffffffffffffffffffffffffffffffffffff1663dd62ed3e8360000160009054906101000a900473ffffffffffffffffffffffffffffffffffffffff16306040518363ffffffff1660e01b81526004016106d792919061106a565b60206040518083038186803b1580156106ef57600080fd5b505afa158015610703573d6000803e3d6000fd5b505050506040513d601f19601f820116820180604052508101906107279190610e30565b1015610768576040517f08c379a000000000000000000000000000000000000000000000000000000000815260040161075f9061113e565b60405180910390fd5b60008054906101000a900473ffffffffffffffffffffffffffffffffffffffff1673ffffffffffffffffffffffffffffffffffffffff166323b872dd8260000160009054906101000a900473ffffffffffffffffffffffffffffffffffffffff163384600101546040518463ffffffff1660e01b81526004016107ed93929190611093565b602060405180830381600087803b15801561080757600080fd5b505af115801561081b573d6000803e3d6000fd5b505050506040513d601f19601f8201168201806040525081019061083f9190610dd6565b506001808080549050610852919061126c565b815481106108635761086261137c565b5b9060005260206000209060030201600183815481106108855761088461137c565b5b90600052602060002090600302016000820160009054906101000a900473ffffffffffffffffffffffffffffffffffffffff168160000160006101000a81548173ffffffffffffffffffffffffffffffffffffffff021916908373ffffffffffffffffffffffffffffffffffffffff160217905550600182015481600101556002820160009054906101000a900473ffffffffffffffffffffffffffffffffffffffff168160020160006101000a81548173ffffffffffffffffffffffffffffffffffffffff021916908373ffffffffffffffffffffffffffffffffffffffff16021790555090505060018054806109805761097f61134d565b5b6001900381819060005260206000209060030201600080820160006101000a81549073ffffffffffffffffffffffffffffffffffffffff021916905560018201600090556002820160006101000a81549073ffffffffffffffffffffffffffffffffffffffff0219169055505090553373ffffffffffffffffffffffffffffffffffffffff168160000160009054906101000a900473ffffffffffffffffffffffffffffffffffffffff1673ffffffffffffffffffffffffffffffffffffffff167fc67f49229cab3f614ad390c12432e0e671552dcfd15e24ddc005cf5a01a02135848460010154604051610a769291906111f9565b60405180910390a35050565b6001805490508110610ac9576040517f08c379a0000000000000000000000000000000000000000000000000000000008152600401610ac09061115e565b60405180910390fd5b600060018281548110610adf57610ade61137c565b5b906000526020600020906003020190503373ffffffffffffffffffffffffffffffffffffffff168160000160009054906101000a900473ffffffffffffffffffffffffffffffffffffffff1673ffffffffffffffffffffffffffffffffffffffff1614610b81576040517f08c379a0000000000000000000000000000000000000000000000000000000008152600401610b789061119e565b60405180910390fd5b6001808080549050610b93919061126c565b81548110610ba457610ba361137c565b5b906000526020600020906003020160018381548110610bc657610bc561137c565b5b90600052602060002090600302016000820160009054906101000a900473ffffffffffffffffffffffffffffffffffffffff168160000160006101000a81548173ffffffffffffffffffffffffffffffffffffffff021916908373ffffffffffffffffffffffffffffffffffffffff160217905550600182015481600101556002820160009054906101000a900473ffffffffffffffffffffffffffffffffffffffff168160020160006101000a81548173ffffffffffffffffffffffffffffffffffffffff021916908373ffffffffffffffffffffffffffffffffffffffff1602179055509050506001805480610cc157610cc061134d565b5b6001900381819060005260206000209060030201600080820160006101000a81549073ffffffffffffffffffffffffffffffffffffffff021916905560018201600090556002820160006101000a81549073ffffffffffffffffffffffffffffffffffffffff0219169055505090553373ffffffffffffffffffffffffffffffffffffffff167f1f51377b3e685a0e2419f9bb4ba7c07ec54936353ba3d0fb3c6538dab676622283604051610d7691906111de565b60405180910390a25050565b600081359050610d918161147d565b92915050565b600081519050610da681611494565b92915050565b600081359050610dbb816114ab565b92915050565b600081519050610dd0816114ab565b92915050565b600060208284031215610dec57610deb6113ab565b5b6000610dfa84828501610d97565b91505092915050565b600060208284031215610e1957610e186113ab565b5b6000610e2784828501610dac565b91505092915050565b600060208284031215610e4657610e456113ab565b5b6000610e5484828501610dc1565b91505092915050565b60008060408385031215610e7457610e736113ab565b5b6000610e8285828601610dac565b9250506020610e9385828601610d82565b9150509250929050565b6000610ea98383610fef565b60608301905092915050565b610ebe816112a0565b82525050565b610ecd816112a0565b82525050565b6000610ede82611232565b610ee8818561124a565b9350610ef383611222565b8060005b83811015610f24578151610f0b8882610e9d565b9750610f168361123d565b925050600181019050610ef7565b5085935050505092915050565b610f3a816112e8565b82525050565b6000610f4d60128361125b565b9150610f58826113b0565b602082019050919050565b6000610f70600f8361125b565b9150610f7b826113d9565b602082019050919050565b6000610f9360148361125b565b9150610f9e82611402565b602082019050919050565b6000610fb6600f8361125b565b9150610fc18261142b565b602082019050919050565b6000610fd9601b8361125b565b9150610fe482611454565b602082019050919050565b6060820160008201516110056000850182610eb5565b5060208201516110186020850182611031565b50604082015161102b6040850182610eb5565b50505050565b61103a816112de565b82525050565b611049816112de565b82525050565b60006020820190506110646000830184610ec4565b92915050565b600060408201905061107f6000830185610ec4565b61108c6020830184610ec4565b9392505050565b60006060820190506110a86000830186610ec4565b6110b56020830185610ec4565b6110c26040830184611040565b949350505050565b60006060820190506110df6000830186610ec4565b6110ec6020830185611040565b6110f96040830184610ec4565b949350505050565b6000602082019050818103600083015261111b8184610ed3565b905092915050565b60006020820190506111386000830184610f31565b92915050565b6000602082019050818103600083015261115781610f40565b9050919050565b6000602082019050818103600083015261117781610f63565b9050919050565b6000602082019050818103600083015261119781610f86565b9050919050565b600060208201905081810360008301526111b781610fa9565b9050919050565b600060208201905081810360008301526111d781610fcc565b9050919050565b60006020820190506111f36000830184611040565b92915050565b600060408201905061120e6000830185611040565b61121b6020830184611040565b9392505050565b6000819050602082019050919050565b600081519050919050565b6000602082019050919050565b600082825260208201905092915050565b600082825260208201905092915050565b6000611277826112de565b9150611282836112de565b9250828210156112955761129461131e565b5b828203905092915050565b60006112ab826112be565b9050919050565b60008115159050919050565b600073ffffffffffffffffffffffffffffffffffffffff82169050919050565b6000819050919050565b60006112f3826112fa565b9050919050565b60006113058261130c565b9050919050565b6000611317826112be565b9050919050565b7f4e487b7100000000000000000000000000000000000000000000000000000000600052601160045260246000fd5b7f4e487b7100000000000000000000000000000000000000000000000000000000600052603160045260246000fd5b7f4e487b7100000000000000000000000000000000000000000000000000000000600052603260045260246000fd5b600080fd5b7f416c6c6f77616e63652065786365656465640000000000000000000000000000600082015250565b7f4f66666572206e6f7420666f756e640000000000000000000000000000000000600082015250565b7f496e73756666696369656e742062616c616e6365000000000000000000000000600082015250565b7f4e6f7420746865206f6666657265720000000000000000000000000000000000600082015250565b7f4e6f74207468652072657175657374656420726563697069656e740000000000600082015250565b611486816112a0565b811461149157600080fd5b50565b61149d816112b2565b81146114a857600080fd5b50565b6114b4816112de565b81146114bf57600080fd5b5056fea2646970667358221220fc4952a65129686351a045559883d2c8fbf8064e7d371527a432e9aeb8d89ad564736f6c63430008070033",
					"opcodes": "PUSH1 0x80 PUSH1 0x40 MSTORE CALLVALUE DUP1 ISZERO PUSH3 0x11 JUMPI PUSH1 0x0 DUP1 REVERT JUMPDEST POP PUSH1 0x40 MLOAD PUSH3 0x1636 CODESIZE SUB DUP1 PUSH3 0x1636 DUP4 CODECOPY DUP2 DUP2 ADD PUSH1 0x40 MSTORE DUP2 ADD SWAP1 PUSH3 0x37 SWAP2 SWAP1 PUSH3 0x95 JUMP JUMPDEST DUP1 PUSH1 0x0 DUP1 PUSH2 0x100 EXP DUP2 SLOAD DUP2 PUSH20 0xFFFFFFFFFFFFFFFFFFFFFFFFFFFFFFFFFFFFFFFF MUL NOT AND SWAP1 DUP4 PUSH20 0xFFFFFFFFFFFFFFFFFFFFFFFFFFFFFFFFFFFFFFFF AND MUL OR SWAP1 SSTORE POP POP PUSH3 0x12E JUMP JUMPDEST PUSH1 0x0 DUP2 MLOAD SWAP1 POP PUSH3 0x8F DUP2 PUSH3 0x114 JUMP JUMPDEST SWAP3 SWAP2 POP POP JUMP JUMPDEST PUSH1 0x0 PUSH1 0x20 DUP3 DUP5 SUB SLT ISZERO PUSH3 0xAE JUMPI PUSH3 0xAD PUSH3 0x10F JUMP JUMPDEST JUMPDEST PUSH1 0x0 PUSH3 0xBE DUP5 DUP3 DUP6 ADD PUSH3 0x7E JUMP JUMPDEST SWAP2 POP POP SWAP3 SWAP2 POP POP JUMP JUMPDEST PUSH1 0x0 PUSH3 0xD4 DUP3 PUSH3 0xEF JUMP JUMPDEST SWAP1 POP SWAP2 SWAP1 POP JUMP JUMPDEST PUSH1 0x0 PUSH3 0xE8 DUP3 PUSH3 0xC7 JUMP JUMPDEST SWAP1 POP SWAP2 SWAP1 POP JUMP JUMPDEST PUSH1 0x0 PUSH20 0xFFFFFFFFFFFFFFFFFFFFFFFFFFFFFFFFFFFFFFFF DUP3 AND SWAP1 POP SWAP2 SWAP1 POP JUMP JUMPDEST PUSH1 0x0 DUP1 REVERT JUMPDEST PUSH3 0x11F DUP2 PUSH3 0xDB JUMP JUMPDEST DUP2 EQ PUSH3 0x12B JUMPI PUSH1 0x0 DUP1 REVERT JUMPDEST POP JUMP JUMPDEST PUSH2 0x14F8 DUP1 PUSH3 0x13E PUSH1 0x0 CODECOPY PUSH1 0x0 RETURN INVALID PUSH1 0x80 PUSH1 0x40 MSTORE CALLVALUE DUP1 ISZERO PUSH2 0x10 JUMPI PUSH1 0x0 DUP1 REVERT JUMPDEST POP PUSH1 0x4 CALLDATASIZE LT PUSH2 0x62 JUMPI PUSH1 0x0 CALLDATALOAD PUSH1 0xE0 SHR DUP1 PUSH4 0x283EDDAF EQ PUSH2 0x67 JUMPI DUP1 PUSH4 0x36FABBC2 EQ PUSH2 0x83 JUMPI DUP1 PUSH4 0x3EE992EE EQ PUSH2 0xA1 JUMPI DUP1 PUSH4 0x8A72EA6A EQ PUSH2 0xBF JUMPI DUP1 PUSH4 0xC815729D EQ PUSH2 0xF1 JUMPI DUP1 PUSH4 0xEF706ADF EQ PUSH2 0x10D JUMPI JUMPDEST PUSH1 0x0 DUP1 REVERT JUMPDEST PUSH2 0x81 PUSH1 0x4 DUP1 CALLDATASIZE SUB DUP2 ADD SWAP1 PUSH2 0x7C SWAP2 SWAP1 PUSH2 0xE5D JUMP JUMPDEST PUSH2 0x129 JUMP JUMPDEST STOP JUMPDEST PUSH2 0x8B PUSH2 0x3A1 JUMP JUMPDEST PUSH1 0x40 MLOAD PUSH2 0x98 SWAP2 SWAP1 PUSH2 0x1123 JUMP JUMPDEST PUSH1 0x40 MLOAD DUP1 SWAP2 SUB SWAP1 RETURN JUMPDEST PUSH2 0xA9 PUSH2 0x3C5 JUMP JUMPDEST PUSH1 0x40 MLOAD PUSH2 0xB6 SWAP2 SWAP1 PUSH2 0x1101 JUMP JUMPDEST PUSH1 0x40 MLOAD DUP1 SWAP2 SUB SWAP1 RETURN JUMPDEST PUSH2 0xD9 PUSH1 0x4 DUP1 CALLDATASIZE SUB DUP2 ADD SWAP1 PUSH2 0xD4 SWAP2 SWAP1 PUSH2 0xE03 JUMP JUMPDEST PUSH2 0x4DA JUMP JUMPDEST PUSH1 0x40 MLOAD PUSH2 0xE8 SWAP4 SWAP3 SWAP2 SWAP1 PUSH2 0x10CA JUMP JUMPDEST PUSH1 0x40 MLOAD DUP1 SWAP2 SUB SWAP1 RETURN JUMPDEST PUSH2 0x10B PUSH1 0x4 DUP1 CALLDATASIZE SUB DUP2 ADD SWAP1 PUSH2 0x106 SWAP2 SWAP1 PUSH2 0xE03 JUMP JUMPDEST PUSH2 0x554 JUMP JUMPDEST STOP JUMPDEST PUSH2 0x127 PUSH1 0x4 DUP1 CALLDATASIZE SUB DUP2 ADD SWAP1 PUSH2 0x122 SWAP2 SWAP1 PUSH2 0xE03 JUMP JUMPDEST PUSH2 0xA82 JUMP JUMPDEST STOP JUMPDEST DUP2 PUSH1 0x0 DUP1 SLOAD SWAP1 PUSH2 0x100 EXP SWAP1 DIV PUSH20 0xFFFFFFFFFFFFFFFFFFFFFFFFFFFFFFFFFFFFFFFF AND PUSH20 0xFFFFFFFFFFFFFFFFFFFFFFFFFFFFFFFFFFFFFFFF AND PUSH4 0x70A08231 CALLER PUSH1 0x40 MLOAD DUP3 PUSH4 0xFFFFFFFF AND PUSH1 0xE0 SHL DUP2 MSTORE PUSH1 0x4 ADD PUSH2 0x183 SWAP2 SWAP1 PUSH2 0x104F JUMP JUMPDEST PUSH1 0x20 PUSH1 0x40 MLOAD DUP1 DUP4 SUB DUP2 DUP7 DUP1 EXTCODESIZE ISZERO DUP1 ISZERO PUSH2 0x19B JUMPI PUSH1 0x0 DUP1 REVERT JUMPDEST POP GAS STATICCALL ISZERO DUP1 ISZERO PUSH2 0x1AF JUMPI RETURNDATASIZE PUSH1 0x0 DUP1 RETURNDATACOPY RETURNDATASIZE PUSH1 0x0 REVERT JUMPDEST POP POP POP POP PUSH1 0x40 MLOAD RETURNDATASIZE PUSH1 0x1F NOT PUSH1 0x1F DUP3 ADD AND DUP3 ADD DUP1 PUSH1 0x40 MSTORE POP DUP2 ADD SWAP1 PUSH2 0x1D3 SWAP2 SWAP1 PUSH2 0xE30 JUMP JUMPDEST LT ISZERO PUSH2 0x214 JUMPI PUSH1 0x40 MLOAD PUSH32 0x8C379A000000000000000000000000000000000000000000000000000000000 DUP2 MSTORE PUSH1 0x4 ADD PUSH2 0x20B SWAP1 PUSH2 0x117E JUMP JUMPDEST PUSH1 0x40 MLOAD DUP1 SWAP2 SUB SWAP1 REVERT JUMPDEST PUSH1 0x1 PUSH1 0x40 MLOAD DUP1 PUSH1 0x60 ADD PUSH1 0x40 MSTORE DUP1 CALLER PUSH20 0xFFFFFFFFFFFFFFFFFFFFFFFFFFFFFFFFFFFFFFFF AND DUP2 MSTORE PUSH1 0x20 ADD DUP5 DUP2 MSTORE PUSH1 0x20 ADD DUP4 PUSH20 0xFFFFFFFFFFFFFFFFFFFFFFFFFFFFFFFFFFFFFFFF AND DUP2 MSTORE POP SWAP1 DUP1 PUSH1 0x1 DUP2 SLOAD ADD DUP1 DUP3 SSTORE DUP1 SWAP2 POP POP PUSH1 0x1 SWAP1 SUB SWAP1 PUSH1 0x0 MSTORE PUSH1 0x20 PUSH1 0x0 KECCAK256 SWAP1 PUSH1 0x3 MUL ADD PUSH1 0x0 SWAP1 SWAP2 SWAP1 SWAP2 SWAP1 SWAP2 POP PUSH1 0x0 DUP3 ADD MLOAD DUP2 PUSH1 0x0 ADD PUSH1 0x0 PUSH2 0x100 EXP DUP2 SLOAD DUP2 PUSH20 0xFFFFFFFFFFFFFFFFFFFFFFFFFFFFFFFFFFFFFFFF MUL NOT AND SWAP1 DUP4 PUSH20 0xFFFFFFFFFFFFFFFFFFFFFFFFFFFFFFFFFFFFFFFF AND MUL OR SWAP1 SSTORE POP PUSH1 0x20 DUP3 ADD MLOAD DUP2 PUSH1 0x1 ADD SSTORE PUSH1 0x40 DUP3 ADD MLOAD DUP2 PUSH1 0x2 ADD PUSH1 0x0 PUSH2 0x100 EXP DUP2 SLOAD DUP2 PUSH20 0xFFFFFFFFFFFFFFFFFFFFFFFFFFFFFFFFFFFFFFFF MUL NOT AND SWAP1 DUP4 PUSH20 0xFFFFFFFFFFFFFFFFFFFFFFFFFFFFFFFFFFFFFFFF AND MUL OR SWAP1 SSTORE POP POP POP PUSH1 0x0 PUSH1 0x1 DUP1 DUP1 SLOAD SWAP1 POP PUSH2 0x333 SWAP2 SWAP1 PUSH2 0x126C JUMP JUMPDEST SWAP1 POP DUP2 PUSH20 0xFFFFFFFFFFFFFFFFFFFFFFFFFFFFFFFFFFFFFFFF AND CALLER PUSH20 0xFFFFFFFFFFFFFFFFFFFFFFFFFFFFFFFFFFFFFFFF AND PUSH32 0x38CF54506B5343346B95A1A1019C97C32EB01A3D0DB0E12D4122434B1BB63705 DUP4 DUP7 PUSH1 0x40 MLOAD PUSH2 0x394 SWAP3 SWAP2 SWAP1 PUSH2 0x11F9 JUMP JUMPDEST PUSH1 0x40 MLOAD DUP1 SWAP2 SUB SWAP1 LOG3 POP POP POP JUMP JUMPDEST PUSH1 0x0 DUP1 SLOAD SWAP1 PUSH2 0x100 EXP SWAP1 DIV PUSH20 0xFFFFFFFFFFFFFFFFFFFFFFFFFFFFFFFFFFFFFFFF AND DUP2 JUMP JUMPDEST PUSH1 0x60 PUSH1 0x1 DUP1 SLOAD DUP1 PUSH1 0x20 MUL PUSH1 0x20 ADD PUSH1 0x40 MLOAD SWAP1 DUP2 ADD PUSH1 0x40 MSTORE DUP1 SWAP3 SWAP2 SWAP1 DUP2 DUP2 MSTORE PUSH1 0x20 ADD PUSH1 0x0 SWAP1 JUMPDEST DUP3 DUP3 LT ISZERO PUSH2 0x4D1 JUMPI DUP4 DUP3 SWAP1 PUSH1 0x0 MSTORE PUSH1 0x20 PUSH1 0x0 KECCAK256 SWAP1 PUSH1 0x3 MUL ADD PUSH1 0x40 MLOAD DUP1 PUSH1 0x60 ADD PUSH1 0x40 MSTORE SWAP1 DUP2 PUSH1 0x0 DUP3 ADD PUSH1 0x0 SWAP1 SLOAD SWAP1 PUSH2 0x100 EXP SWAP1 DIV PUSH20 0xFFFFFFFFFFFFFFFFFFFFFFFFFFFFFFFFFFFFFFFF AND PUSH20 0xFFFFFFFFFFFFFFFFFFFFFFFFFFFFFFFFFFFFFFFF AND PUSH20 0xFFFFFFFFFFFFFFFFFFFFFFFFFFFFFFFFFFFFFFFF AND DUP2 MSTORE PUSH1 0x20 ADD PUSH1 0x1 DUP3 ADD SLOAD DUP2 MSTORE PUSH1 0x20 ADD PUSH1 0x2 DUP3 ADD PUSH1 0x0 SWAP1 SLOAD SWAP1 PUSH2 0x100 EXP SWAP1 DIV PUSH20 0xFFFFFFFFFFFFFFFFFFFFFFFFFFFFFFFFFFFFFFFF AND PUSH20 0xFFFFFFFFFFFFFFFFFFFFFFFFFFFFFFFFFFFFFFFF AND PUSH20 0xFFFFFFFFFFFFFFFFFFFFFFFFFFFFFFFFFFFFFFFF AND DUP2 MSTORE POP POP DUP2 MSTORE PUSH1 0x20 ADD SWAP1 PUSH1 0x1 ADD SWAP1 PUSH2 0x3E9 JUMP JUMPDEST POP POP POP POP SWAP1 POP SWAP1 JUMP JUMPDEST PUSH1 0x1 DUP2 DUP2 SLOAD DUP2 LT PUSH2 0x4EA JUMPI PUSH1 0x0 DUP1 REVERT JUMPDEST SWAP1 PUSH1 0x0 MSTORE PUSH1 0x20 PUSH1 0x0 KECCAK256 SWAP1 PUSH1 0x3 MUL ADD PUSH1 0x0 SWAP2 POP SWAP1 POP DUP1 PUSH1 0x0 ADD PUSH1 0x0 SWAP1 SLOAD SWAP1 PUSH2 0x100 EXP SWAP1 DIV PUSH20 0xFFFFFFFFFFFFFFFFFFFFFFFFFFFFFFFFFFFFFFFF AND SWAP1 DUP1 PUSH1 0x1 ADD SLOAD SWAP1 DUP1 PUSH1 0x2 ADD PUSH1 0x0 SWAP1 SLOAD SWAP1 PUSH2 0x100 EXP SWAP1 DIV PUSH20 0xFFFFFFFFFFFFFFFFFFFFFFFFFFFFFFFFFFFFFFFF AND SWAP1 POP DUP4 JUMP JUMPDEST PUSH1 0x1 DUP1 SLOAD SWAP1 POP DUP2 LT PUSH2 0x59B JUMPI PUSH1 0x40 MLOAD PUSH32 0x8C379A000000000000000000000000000000000000000000000000000000000 DUP2 MSTORE PUSH1 0x4 ADD PUSH2 0x592 SWAP1 PUSH2 0x115E JUMP JUMPDEST PUSH1 0x40 MLOAD DUP1 SWAP2 SUB SWAP1 REVERT JUMPDEST PUSH1 0x0 PUSH1 0x1 DUP3 DUP2 SLOAD DUP2 LT PUSH2 0x5B1 JUMPI PUSH2 0x5B0 PUSH2 0x137C JUMP JUMPDEST JUMPDEST SWAP1 PUSH1 0x0 MSTORE PUSH1 0x20 PUSH1 0x0 KECCAK256 SWAP1 PUSH1 0x3 MUL ADD SWAP1 POP CALLER PUSH20 0xFFFFFFFFFFFFFFFFFFFFFFFFFFFFFFFFFFFFFFFF AND DUP2 PUSH1 0x2 ADD PUSH1 0x0 SWAP1 SLOAD SWAP1 PUSH2 0x100 EXP SWAP1 DIV PUSH20 0xFFFFFFFFFFFFFFFFFFFFFFFFFFFFFFFFFFFFFFFF AND PUSH20 0xFFFFFFFFFFFFFFFFFFFFFFFFFFFFFFFFFFFFFFFF AND EQ PUSH2 0x653 JUMPI PUSH1 0x40 MLOAD PUSH32 0x8C379A000000000000000000000000000000000000000000000000000000000 DUP2 MSTORE PUSH1 0x4 ADD PUSH2 0x64A SWAP1 PUSH2 0x11BE JUMP JUMPDEST PUSH1 0x40 MLOAD DUP1 SWAP2 SUB SWAP1 REVERT JUMPDEST DUP1 PUSH1 0x1 ADD SLOAD PUSH1 0x0 DUP1 SLOAD SWAP1 PUSH2 0x100 EXP SWAP1 DIV PUSH20 0xFFFFFFFFFFFFFFFFFFFFFFFFFFFFFFFFFFFFFFFF AND PUSH20 0xFFFFFFFFFFFFFFFFFFFFFFFFFFFFFFFFFFFFFFFF AND PUSH4 0xDD62ED3E DUP4 PUSH1 0x0 ADD PUSH1 0x0 SWAP1 SLOAD SWAP1 PUSH2 0x100 EXP SWAP1 DIV PUSH20 0xFFFFFFFFFFFFFFFFFFFFFFFFFFFFFFFFFFFFFFFF AND ADDRESS PUSH1 0x40 MLOAD DUP4 PUSH4 0xFFFFFFFF AND PUSH1 0xE0 SHL DUP2 MSTORE PUSH1 0x4 ADD PUSH2 0x6D7 SWAP3 SWAP2 SWAP1 PUSH2 0x106A JUMP JUMPDEST PUSH1 0x20 PUSH1 0x40 MLOAD DUP1 DUP4 SUB DUP2 DUP7 DUP1 EXTCODESIZE ISZERO DUP1 ISZERO PUSH2 0x6EF JUMPI PUSH1 0x0 DUP1 REVERT JUMPDEST POP GAS STATICCALL ISZERO DUP1 ISZERO PUSH2 0x703 JUMPI RETURNDATASIZE PUSH1 0x0 DUP1 RETURNDATACOPY RETURNDATASIZE PUSH1 0x0 REVERT JUMPDEST POP POP POP POP PUSH1 0x40 MLOAD RETURNDATASIZE PUSH1 0x1F NOT PUSH1 0x1F DUP3 ADD AND DUP3 ADD DUP1 PUSH1 0x40 MSTORE POP DUP2 ADD SWAP1 PUSH2 0x727 SWAP2 SWAP1 PUSH2 0xE30 JUMP JUMPDEST LT ISZERO PUSH2 0x768 JUMPI PUSH1 0x40 MLOAD PUSH32 0x8C379A000000000000000000000000000000000000000000000000000000000 DUP2 MSTORE PUSH1 0x4 ADD PUSH2 0x75F SWAP1 PUSH2 0x113E JUMP JUMPDEST PUSH1 0x40 MLOAD DUP1 SWAP2 SUB SWAP1 REVERT JUMPDEST PUSH1 0x0 DUP1 SLOAD SWAP1 PUSH2 0x100 EXP SWAP1 DIV PUSH20 0xFFFFFFFFFFFFFFFFFFFFFFFFFFFFFFFFFFFFFFFF AND PUSH20 0xFFFFFFFFFFFFFFFFFFFFFFFFFFFFFFFFFFFFFFFF AND PUSH4 0x23B872DD DUP3 PUSH1 0x0 ADD PUSH1 0x0 SWAP1 SLOAD SWAP1 PUSH2 0x100 EXP SWAP1 DIV PUSH20 0xFFFFFFFFFFFFFFFFFFFFFFFFFFFFFFFFFFFFFFFF AND CALLER DUP5 PUSH1 0x1 ADD SLOAD PUSH1 0x40 MLOAD DUP5 PUSH4 0xFFFFFFFF AND PUSH1 0xE0 SHL DUP2 MSTORE PUSH1 0x4 ADD PUSH2 0x7ED SWAP4 SWAP3 SWAP2 SWAP1 PUSH2 0x1093 JUMP JUMPDEST PUSH1 0x20 PUSH1 0x40 MLOAD DUP1 DUP4 SUB DUP2 PUSH1 0x0 DUP8 DUP1 EXTCODESIZE ISZERO DUP1 ISZERO PUSH2 0x807 JUMPI PUSH1 0x0 DUP1 REVERT JUMPDEST POP GAS CALL ISZERO DUP1 ISZERO PUSH2 0x81B JUMPI RETURNDATASIZE PUSH1 0x0 DUP1 RETURNDATACOPY RETURNDATASIZE PUSH1 0x0 REVERT JUMPDEST POP POP POP POP PUSH1 0x40 MLOAD RETURNDATASIZE PUSH1 0x1F NOT PUSH1 0x1F DUP3 ADD AND DUP3 ADD DUP1 PUSH1 0x40 MSTORE POP DUP2 ADD SWAP1 PUSH2 0x83F SWAP2 SWAP1 PUSH2 0xDD6 JUMP JUMPDEST POP PUSH1 0x1 DUP1 DUP1 DUP1 SLOAD SWAP1 POP PUSH2 0x852 SWAP2 SWAP1 PUSH2 0x126C JUMP JUMPDEST DUP2 SLOAD DUP2 LT PUSH2 0x863 JUMPI PUSH2 0x862 PUSH2 0x137C JUMP JUMPDEST JUMPDEST SWAP1 PUSH1 0x0 MSTORE PUSH1 0x20 PUSH1 0x0 KECCAK256 SWAP1 PUSH1 0x3 MUL ADD PUSH1 0x1 DUP4 DUP2 SLOAD DUP2 LT PUSH2 0x885 JUMPI PUSH2 0x884 PUSH2 0x137C JUMP JUMPDEST JUMPDEST SWAP1 PUSH1 0x0 MSTORE PUSH1 0x20 PUSH1 0x0 KECCAK256 SWAP1 PUSH1 0x3 MUL ADD PUSH1 0x0 DUP3 ADD PUSH1 0x0 SWAP1 SLOAD SWAP1 PUSH2 0x100 EXP SWAP1 DIV PUSH20 0xFFFFFFFFFFFFFFFFFFFFFFFFFFFFFFFFFFFFFFFF AND DUP2 PUSH1 0x0 ADD PUSH1 0x0 PUSH2 0x100 EXP DUP2 SLOAD DUP2 PUSH20 0xFFFFFFFFFFFFFFFFFFFFFFFFFFFFFFFFFFFFFFFF MUL NOT AND SWAP1 DUP4 PUSH20 0xFFFFFFFFFFFFFFFFFFFFFFFFFFFFFFFFFFFFFFFF AND MUL OR SWAP1 SSTORE POP PUSH1 0x1 DUP3 ADD SLOAD DUP2 PUSH1 0x1 ADD SSTORE PUSH1 0x2 DUP3 ADD PUSH1 0x0 SWAP1 SLOAD SWAP1 PUSH2 0x100 EXP SWAP1 DIV PUSH20 0xFFFFFFFFFFFFFFFFFFFFFFFFFFFFFFFFFFFFFFFF AND DUP2 PUSH1 0x2 ADD PUSH1 0x0 PUSH2 0x100 EXP DUP2 SLOAD DUP2 PUSH20 0xFFFFFFFFFFFFFFFFFFFFFFFFFFFFFFFFFFFFFFFF MUL NOT AND SWAP1 DUP4 PUSH20 0xFFFFFFFFFFFFFFFFFFFFFFFFFFFFFFFFFFFFFFFF AND MUL OR SWAP1 SSTORE POP SWAP1 POP POP PUSH1 0x1 DUP1 SLOAD DUP1 PUSH2 0x980 JUMPI PUSH2 0x97F PUSH2 0x134D JUMP JUMPDEST JUMPDEST PUSH1 0x1 SWAP1 SUB DUP2 DUP2 SWAP1 PUSH1 0x0 MSTORE PUSH1 0x20 PUSH1 0x0 KECCAK256 SWAP1 PUSH1 0x3 MUL ADD PUSH1 0x0 DUP1 DUP3 ADD PUSH1 0x0 PUSH2 0x100 EXP DUP2 SLOAD SWAP1 PUSH20 0xFFFFFFFFFFFFFFFFFFFFFFFFFFFFFFFFFFFFFFFF MUL NOT AND SWAP1 SSTORE PUSH1 0x1 DUP3 ADD PUSH1 0x0 SWAP1 SSTORE PUSH1 0x2 DUP3 ADD PUSH1 0x0 PUSH2 0x100 EXP DUP2 SLOAD SWAP1 PUSH20 0xFFFFFFFFFFFFFFFFFFFFFFFFFFFFFFFFFFFFFFFF MUL NOT AND SWAP1 SSTORE POP POP SWAP1 SSTORE CALLER PUSH20 0xFFFFFFFFFFFFFFFFFFFFFFFFFFFFFFFFFFFFFFFF AND DUP2 PUSH1 0x0 ADD PUSH1 0x0 SWAP1 SLOAD SWAP1 PUSH2 0x100 EXP SWAP1 DIV PUSH20 0xFFFFFFFFFFFFFFFFFFFFFFFFFFFFFFFFFFFFFFFF AND PUSH20 0xFFFFFFFFFFFFFFFFFFFFFFFFFFFFFFFFFFFFFFFF AND PUSH32 0xC67F49229CAB3F614AD390C12432E0E671552DCFD15E24DDC005CF5A01A02135 DUP5 DUP5 PUSH1 0x1 ADD SLOAD PUSH1 0x40 MLOAD PUSH2 0xA76 SWAP3 SWAP2 SWAP1 PUSH2 0x11F9 JUMP JUMPDEST PUSH1 0x40 MLOAD DUP1 SWAP2 SUB SWAP1 LOG3 POP POP JUMP JUMPDEST PUSH1 0x1 DUP1 SLOAD SWAP1 POP DUP2 LT PUSH2 0xAC9 JUMPI PUSH1 0x40 MLOAD PUSH32 0x8C379A000000000000000000000000000000000000000000000000000000000 DUP2 MSTORE PUSH1 0x4 ADD PUSH2 0xAC0 SWAP1 PUSH2 0x115E JUMP JUMPDEST PUSH1 0x40 MLOAD DUP1 SWAP2 SUB SWAP1 REVERT JUMPDEST PUSH1 0x0 PUSH1 0x1 DUP3 DUP2 SLOAD DUP2 LT PUSH2 0xADF JUMPI PUSH2 0xADE PUSH2 0x137C JUMP JUMPDEST JUMPDEST SWAP1 PUSH1 0x0 MSTORE PUSH1 0x20 PUSH1 0x0 KECCAK256 SWAP1 PUSH1 0x3 MUL ADD SWAP1 POP CALLER PUSH20 0xFFFFFFFFFFFFFFFFFFFFFFFFFFFFFFFFFFFFFFFF AND DUP2 PUSH1 0x0 ADD PUSH1 0x0 SWAP1 SLOAD SWAP1 PUSH2 0x100 EXP SWAP1 DIV PUSH20 0xFFFFFFFFFFFFFFFFFFFFFFFFFFFFFFFFFFFFFFFF AND PUSH20 0xFFFFFFFFFFFFFFFFFFFFFFFFFFFFFFFFFFFFFFFF AND EQ PUSH2 0xB81 JUMPI PUSH1 0x40 MLOAD PUSH32 0x8C379A000000000000000000000000000000000000000000000000000000000 DUP2 MSTORE PUSH1 0x4 ADD PUSH2 0xB78 SWAP1 PUSH2 0x119E JUMP JUMPDEST PUSH1 0x40 MLOAD DUP1 SWAP2 SUB SWAP1 REVERT JUMPDEST PUSH1 0x1 DUP1 DUP1 DUP1 SLOAD SWAP1 POP PUSH2 0xB93 SWAP2 SWAP1 PUSH2 0x126C JUMP JUMPDEST DUP2 SLOAD DUP2 LT PUSH2 0xBA4 JUMPI PUSH2 0xBA3 PUSH2 0x137C JUMP JUMPDEST JUMPDEST SWAP1 PUSH1 0x0 MSTORE PUSH1 0x20 PUSH1 0x0 KECCAK256 SWAP1 PUSH1 0x3 MUL ADD PUSH1 0x1 DUP4 DUP2 SLOAD DUP2 LT PUSH2 0xBC6 JUMPI PUSH2 0xBC5 PUSH2 0x137C JUMP JUMPDEST JUMPDEST SWAP1 PUSH1 0x0 MSTORE PUSH1 0x20 PUSH1 0x0 KECCAK256 SWAP1 PUSH1 0x3 MUL ADD PUSH1 0x0 DUP3 ADD PUSH1 0x0 SWAP1 SLOAD SWAP1 PUSH2 0x100 EXP SWAP1 DIV PUSH20 0xFFFFFFFFFFFFFFFFFFFFFFFFFFFFFFFFFFFFFFFF AND DUP2 PUSH1 0x0 ADD PUSH1 0x0 PUSH2 0x100 EXP DUP2 SLOAD DUP2 PUSH20 0xFFFFFFFFFFFFFFFFFFFFFFFFFFFFFFFFFFFFFFFF MUL NOT AND SWAP1 DUP4 PUSH20 0xFFFFFFFFFFFFFFFFFFFFFFFFFFFFFFFFFFFFFFFF AND MUL OR SWAP1 SSTORE POP PUSH1 0x1 DUP3 ADD SLOAD DUP2 PUSH1 0x1 ADD SSTORE PUSH1 0x2 DUP3 ADD PUSH1 0x0 SWAP1 SLOAD SWAP1 PUSH2 0x100 EXP SWAP1 DIV PUSH20 0xFFFFFFFFFFFFFFFFFFFFFFFFFFFFFFFFFFFFFFFF AND DUP2 PUSH1 0x2 ADD PUSH1 0x0 PUSH2 0x100 EXP DUP2 SLOAD DUP2 PUSH20 0xFFFFFFFFFFFFFFFFFFFFFFFFFFFFFFFFFFFFFFFF MUL NOT AND SWAP1 DUP4 PUSH20 0xFFFFFFFFFFFFFFFFFFFFFFFFFFFFFFFFFFFFFFFF AND MUL OR SWAP1 SSTORE POP SWAP1 POP POP PUSH1 0x1 DUP1 SLOAD DUP1 PUSH2 0xCC1 JUMPI PUSH2 0xCC0 PUSH2 0x134D JUMP JUMPDEST JUMPDEST PUSH1 0x1 SWAP1 SUB DUP2 DUP2 SWAP1 PUSH1 0x0 MSTORE PUSH1 0x20 PUSH1 0x0 KECCAK256 SWAP1 PUSH1 0x3 MUL ADD PUSH1 0x0 DUP1 DUP3 ADD PUSH1 0x0 PUSH2 0x100 EXP DUP2 SLOAD SWAP1 PUSH20 0xFFFFFFFFFFFFFFFFFFFFFFFFFFFFFFFFFFFFFFFF MUL NOT AND SWAP1 SSTORE PUSH1 0x1 DUP3 ADD PUSH1 0x0 SWAP1 SSTORE PUSH1 0x2 DUP3 ADD PUSH1 0x0 PUSH2 0x100 EXP DUP2 SLOAD SWAP1 PUSH20 0xFFFFFFFFFFFFFFFFFFFFFFFFFFFFFFFFFFFFFFFF MUL NOT AND SWAP1 SSTORE POP POP SWAP1 SSTORE CALLER PUSH20 0xFFFFFFFFFFFFFFFFFFFFFFFFFFFFFFFFFFFFFFFF AND PUSH32 0x1F51377B3E685A0E2419F9BB4BA7C07EC54936353BA3D0FB3C6538DAB6766222 DUP4 PUSH1 0x40 MLOAD PUSH2 0xD76 SWAP2 SWAP1 PUSH2 0x11DE JUMP JUMPDEST PUSH1 0x40 MLOAD DUP1 SWAP2 SUB SWAP1 LOG2 POP POP JUMP JUMPDEST PUSH1 0x0 DUP2 CALLDATALOAD SWAP1 POP PUSH2 0xD91 DUP2 PUSH2 0x147D JUMP JUMPDEST SWAP3 SWAP2 POP POP JUMP JUMPDEST PUSH1 0x0 DUP2 MLOAD SWAP1 POP PUSH2 0xDA6 DUP2 PUSH2 0x1494 JUMP JUMPDEST SWAP3 SWAP2 POP POP JUMP JUMPDEST PUSH1 0x0 DUP2 CALLDATALOAD SWAP1 POP PUSH2 0xDBB DUP2 PUSH2 0x14AB JUMP JUMPDEST SWAP3 SWAP2 POP POP JUMP JUMPDEST PUSH1 0x0 DUP2 MLOAD SWAP1 POP PUSH2 0xDD0 DUP2 PUSH2 0x14AB JUMP JUMPDEST SWAP3 SWAP2 POP POP JUMP JUMPDEST PUSH1 0x0 PUSH1 0x20 DUP3 DUP5 SUB SLT ISZERO PUSH2 0xDEC JUMPI PUSH2 0xDEB PUSH2 0x13AB JUMP JUMPDEST JUMPDEST PUSH1 0x0 PUSH2 0xDFA DUP5 DUP3 DUP6 ADD PUSH2 0xD97 JUMP JUMPDEST SWAP2 POP POP SWAP3 SWAP2 POP POP JUMP JUMPDEST PUSH1 0x0 PUSH1 0x20 DUP3 DUP5 SUB SLT ISZERO PUSH2 0xE19 JUMPI PUSH2 0xE18 PUSH2 0x13AB JUMP JUMPDEST JUMPDEST PUSH1 0x0 PUSH2 0xE27 DUP5 DUP3 DUP6 ADD PUSH2 0xDAC JUMP JUMPDEST SWAP2 POP POP SWAP3 SWAP2 POP POP JUMP JUMPDEST PUSH1 0x0 PUSH1 0x20 DUP3 DUP5 SUB SLT ISZERO PUSH2 0xE46 JUMPI PUSH2 0xE45 PUSH2 0x13AB JUMP JUMPDEST JUMPDEST PUSH1 0x0 PUSH2 0xE54 DUP5 DUP3 DUP6 ADD PUSH2 0xDC1 JUMP JUMPDEST SWAP2 POP POP SWAP3 SWAP2 POP POP JUMP JUMPDEST PUSH1 0x0 DUP1 PUSH1 0x40 DUP4 DUP6 SUB SLT ISZERO PUSH2 0xE74 JUMPI PUSH2 0xE73 PUSH2 0x13AB JUMP JUMPDEST JUMPDEST PUSH1 0x0 PUSH2 0xE82 DUP6 DUP3 DUP7 ADD PUSH2 0xDAC JUMP JUMPDEST SWAP3 POP POP PUSH1 0x20 PUSH2 0xE93 DUP6 DUP3 DUP7 ADD PUSH2 0xD82 JUMP JUMPDEST SWAP2 POP POP SWAP3 POP SWAP3 SWAP1 POP JUMP JUMPDEST PUSH1 0x0 PUSH2 0xEA9 DUP4 DUP4 PUSH2 0xFEF JUMP JUMPDEST PUSH1 0x60 DUP4 ADD SWAP1 POP SWAP3 SWAP2 POP POP JUMP JUMPDEST PUSH2 0xEBE DUP2 PUSH2 0x12A0 JUMP JUMPDEST DUP3 MSTORE POP POP JUMP JUMPDEST PUSH2 0xECD DUP2 PUSH2 0x12A0 JUMP JUMPDEST DUP3 MSTORE POP POP JUMP JUMPDEST PUSH1 0x0 PUSH2 0xEDE DUP3 PUSH2 0x1232 JUMP JUMPDEST PUSH2 0xEE8 DUP2 DUP6 PUSH2 0x124A JUMP JUMPDEST SWAP4 POP PUSH2 0xEF3 DUP4 PUSH2 0x1222 JUMP JUMPDEST DUP1 PUSH1 0x0 JUMPDEST DUP4 DUP2 LT ISZERO PUSH2 0xF24 JUMPI DUP2 MLOAD PUSH2 0xF0B DUP9 DUP3 PUSH2 0xE9D JUMP JUMPDEST SWAP8 POP PUSH2 0xF16 DUP4 PUSH2 0x123D JUMP JUMPDEST SWAP3 POP POP PUSH1 0x1 DUP2 ADD SWAP1 POP PUSH2 0xEF7 JUMP JUMPDEST POP DUP6 SWAP4 POP POP POP POP SWAP3 SWAP2 POP POP JUMP JUMPDEST PUSH2 0xF3A DUP2 PUSH2 0x12E8 JUMP JUMPDEST DUP3 MSTORE POP POP JUMP JUMPDEST PUSH1 0x0 PUSH2 0xF4D PUSH1 0x12 DUP4 PUSH2 0x125B JUMP JUMPDEST SWAP2 POP PUSH2 0xF58 DUP3 PUSH2 0x13B0 JUMP JUMPDEST PUSH1 0x20 DUP3 ADD SWAP1 POP SWAP2 SWAP1 POP JUMP JUMPDEST PUSH1 0x0 PUSH2 0xF70 PUSH1 0xF DUP4 PUSH2 0x125B JUMP JUMPDEST SWAP2 POP PUSH2 0xF7B DUP3 PUSH2 0x13D9 JUMP JUMPDEST PUSH1 0x20 DUP3 ADD SWAP1 POP SWAP2 SWAP1 POP JUMP JUMPDEST PUSH1 0x0 PUSH2 0xF93 PUSH1 0x14 DUP4 PUSH2 0x125B JUMP JUMPDEST SWAP2 POP PUSH2 0xF9E DUP3 PUSH2 0x1402 JUMP JUMPDEST PUSH1 0x20 DUP3 ADD SWAP1 POP SWAP2 SWAP1 POP JUMP JUMPDEST PUSH1 0x0 PUSH2 0xFB6 PUSH1 0xF DUP4 PUSH2 0x125B JUMP JUMPDEST SWAP2 POP PUSH2 0xFC1 DUP3 PUSH2 0x142B JUMP JUMPDEST PUSH1 0x20 DUP3 ADD SWAP1 POP SWAP2 SWAP1 POP JUMP JUMPDEST PUSH1 0x0 PUSH2 0xFD9 PUSH1 0x1B DUP4 PUSH2 0x125B JUMP JUMPDEST SWAP2 POP PUSH2 0xFE4 DUP3 PUSH2 0x1454 JUMP JUMPDEST PUSH1 0x20 DUP3 ADD SWAP1 POP SWAP2 SWAP1 POP JUMP JUMPDEST PUSH1 0x60 DUP3 ADD PUSH1 0x0 DUP3 ADD MLOAD PUSH2 0x1005 PUSH1 0x0 DUP6 ADD DUP3 PUSH2 0xEB5 JUMP JUMPDEST POP PUSH1 0x20 DUP3 ADD MLOAD PUSH2 0x1018 PUSH1 0x20 DUP6 ADD DUP3 PUSH2 0x1031 JUMP JUMPDEST POP PUSH1 0x40 DUP3 ADD MLOAD PUSH2 0x102B PUSH1 0x40 DUP6 ADD DUP3 PUSH2 0xEB5 JUMP JUMPDEST POP POP POP POP JUMP JUMPDEST PUSH2 0x103A DUP2 PUSH2 0x12DE JUMP JUMPDEST DUP3 MSTORE POP POP JUMP JUMPDEST PUSH2 0x1049 DUP2 PUSH2 0x12DE JUMP JUMPDEST DUP3 MSTORE POP POP JUMP JUMPDEST PUSH1 0x0 PUSH1 0x20 DUP3 ADD SWAP1 POP PUSH2 0x1064 PUSH1 0x0 DUP4 ADD DUP5 PUSH2 0xEC4 JUMP JUMPDEST SWAP3 SWAP2 POP POP JUMP JUMPDEST PUSH1 0x0 PUSH1 0x40 DUP3 ADD SWAP1 POP PUSH2 0x107F PUSH1 0x0 DUP4 ADD DUP6 PUSH2 0xEC4 JUMP JUMPDEST PUSH2 0x108C PUSH1 0x20 DUP4 ADD DUP5 PUSH2 0xEC4 JUMP JUMPDEST SWAP4 SWAP3 POP POP POP JUMP JUMPDEST PUSH1 0x0 PUSH1 0x60 DUP3 ADD SWAP1 POP PUSH2 0x10A8 PUSH1 0x0 DUP4 ADD DUP7 PUSH2 0xEC4 JUMP JUMPDEST PUSH2 0x10B5 PUSH1 0x20 DUP4 ADD DUP6 PUSH2 0xEC4 JUMP JUMPDEST PUSH2 0x10C2 PUSH1 0x40 DUP4 ADD DUP5 PUSH2 0x1040 JUMP JUMPDEST SWAP5 SWAP4 POP POP POP POP JUMP JUMPDEST PUSH1 0x0 PUSH1 0x60 DUP3 ADD SWAP1 POP PUSH2 0x10DF PUSH1 0x0 DUP4 ADD DUP7 PUSH2 0xEC4 JUMP JUMPDEST PUSH2 0x10EC PUSH1 0x20 DUP4 ADD DUP6 PUSH2 0x1040 JUMP JUMPDEST PUSH2 0x10F9 PUSH1 0x40 DUP4 ADD DUP5 PUSH2 0xEC4 JUMP JUMPDEST SWAP5 SWAP4 POP POP POP POP JUMP JUMPDEST PUSH1 0x0 PUSH1 0x20 DUP3 ADD SWAP1 POP DUP2 DUP2 SUB PUSH1 0x0 DUP4 ADD MSTORE PUSH2 0x111B DUP2 DUP5 PUSH2 0xED3 JUMP JUMPDEST SWAP1 POP SWAP3 SWAP2 POP POP JUMP JUMPDEST PUSH1 0x0 PUSH1 0x20 DUP3 ADD SWAP1 POP PUSH2 0x1138 PUSH1 0x0 DUP4 ADD DUP5 PUSH2 0xF31 JUMP JUMPDEST SWAP3 SWAP2 POP POP JUMP JUMPDEST PUSH1 0x0 PUSH1 0x20 DUP3 ADD SWAP1 POP DUP2 DUP2 SUB PUSH1 0x0 DUP4 ADD MSTORE PUSH2 0x1157 DUP2 PUSH2 0xF40 JUMP JUMPDEST SWAP1 POP SWAP2 SWAP1 POP JUMP JUMPDEST PUSH1 0x0 PUSH1 0x20 DUP3 ADD SWAP1 POP DUP2 DUP2 SUB PUSH1 0x0 DUP4 ADD MSTORE PUSH2 0x1177 DUP2 PUSH2 0xF63 JUMP JUMPDEST SWAP1 POP SWAP2 SWAP1 POP JUMP JUMPDEST PUSH1 0x0 PUSH1 0x20 DUP3 ADD SWAP1 POP DUP2 DUP2 SUB PUSH1 0x0 DUP4 ADD MSTORE PUSH2 0x1197 DUP2 PUSH2 0xF86 JUMP JUMPDEST SWAP1 POP SWAP2 SWAP1 POP JUMP JUMPDEST PUSH1 0x0 PUSH1 0x20 DUP3 ADD SWAP1 POP DUP2 DUP2 SUB PUSH1 0x0 DUP4 ADD MSTORE PUSH2 0x11B7 DUP2 PUSH2 0xFA9 JUMP JUMPDEST SWAP1 POP SWAP2 SWAP1 POP JUMP JUMPDEST PUSH1 0x0 PUSH1 0x20 DUP3 ADD SWAP1 POP DUP2 DUP2 SUB PUSH1 0x0 DUP4 ADD MSTORE PUSH2 0x11D7 DUP2 PUSH2 0xFCC JUMP JUMPDEST SWAP1 POP SWAP2 SWAP1 POP JUMP JUMPDEST PUSH1 0x0 PUSH1 0x20 DUP3 ADD SWAP1 POP PUSH2 0x11F3 PUSH1 0x0 DUP4 ADD DUP5 PUSH2 0x1040 JUMP JUMPDEST SWAP3 SWAP2 POP POP JUMP JUMPDEST PUSH1 0x0 PUSH1 0x40 DUP3 ADD SWAP1 POP PUSH2 0x120E PUSH1 0x0 DUP4 ADD DUP6 PUSH2 0x1040 JUMP JUMPDEST PUSH2 0x121B PUSH1 0x20 DUP4 ADD DUP5 PUSH2 0x1040 JUMP JUMPDEST SWAP4 SWAP3 POP POP POP JUMP JUMPDEST PUSH1 0x0 DUP2 SWAP1 POP PUSH1 0x20 DUP3 ADD SWAP1 POP SWAP2 SWAP1 POP JUMP JUMPDEST PUSH1 0x0 DUP2 MLOAD SWAP1 POP SWAP2 SWAP1 POP JUMP JUMPDEST PUSH1 0x0 PUSH1 0x20 DUP3 ADD SWAP1 POP SWAP2 SWAP1 POP JUMP JUMPDEST PUSH1 0x0 DUP3 DUP3 MSTORE PUSH1 0x20 DUP3 ADD SWAP1 POP SWAP3 SWAP2 POP POP JUMP JUMPDEST PUSH1 0x0 DUP3 DUP3 MSTORE PUSH1 0x20 DUP3 ADD SWAP1 POP SWAP3 SWAP2 POP POP JUMP JUMPDEST PUSH1 0x0 PUSH2 0x1277 DUP3 PUSH2 0x12DE JUMP JUMPDEST SWAP2 POP PUSH2 0x1282 DUP4 PUSH2 0x12DE JUMP JUMPDEST SWAP3 POP DUP3 DUP3 LT ISZERO PUSH2 0x1295 JUMPI PUSH2 0x1294 PUSH2 0x131E JUMP JUMPDEST JUMPDEST DUP3 DUP3 SUB SWAP1 POP SWAP3 SWAP2 POP POP JUMP JUMPDEST PUSH1 0x0 PUSH2 0x12AB DUP3 PUSH2 0x12BE JUMP JUMPDEST SWAP1 POP SWAP2 SWAP1 POP JUMP JUMPDEST PUSH1 0x0 DUP2 ISZERO ISZERO SWAP1 POP SWAP2 SWAP1 POP JUMP JUMPDEST PUSH1 0x0 PUSH20 0xFFFFFFFFFFFFFFFFFFFFFFFFFFFFFFFFFFFFFFFF DUP3 AND SWAP1 POP SWAP2 SWAP1 POP JUMP JUMPDEST PUSH1 0x0 DUP2 SWAP1 POP SWAP2 SWAP1 POP JUMP JUMPDEST PUSH1 0x0 PUSH2 0x12F3 DUP3 PUSH2 0x12FA JUMP JUMPDEST SWAP1 POP SWAP2 SWAP1 POP JUMP JUMPDEST PUSH1 0x0 PUSH2 0x1305 DUP3 PUSH2 0x130C JUMP JUMPDEST SWAP1 POP SWAP2 SWAP1 POP JUMP JUMPDEST PUSH1 0x0 PUSH2 0x1317 DUP3 PUSH2 0x12BE JUMP JUMPDEST SWAP1 POP SWAP2 SWAP1 POP JUMP JUMPDEST PUSH32 0x4E487B7100000000000000000000000000000000000000000000000000000000 PUSH1 0x0 MSTORE PUSH1 0x11 PUSH1 0x4 MSTORE PUSH1 0x24 PUSH1 0x0 REVERT JUMPDEST PUSH32 0x4E487B7100000000000000000000000000000000000000000000000000000000 PUSH1 0x0 MSTORE PUSH1 0x31 PUSH1 0x4 MSTORE PUSH1 0x24 PUSH1 0x0 REVERT JUMPDEST PUSH32 0x4E487B7100000000000000000000000000000000000000000000000000000000 PUSH1 0x0 MSTORE PUSH1 0x32 PUSH1 0x4 MSTORE PUSH1 0x24 PUSH1 0x0 REVERT JUMPDEST PUSH1 0x0 DUP1 REVERT JUMPDEST PUSH32 0x416C6C6F77616E63652065786365656465640000000000000000000000000000 PUSH1 0x0 DUP3 ADD MSTORE POP JUMP JUMPDEST PUSH32 0x4F66666572206E6F7420666F756E640000000000000000000000000000000000 PUSH1 0x0 DUP3 ADD MSTORE POP JUMP JUMPDEST PUSH32 0x496E73756666696369656E742062616C616E6365000000000000000000000000 PUSH1 0x0 DUP3 ADD MSTORE POP JUMP JUMPDEST PUSH32 0x4E6F7420746865206F6666657265720000000000000000000000000000000000 PUSH1 0x0 DUP3 ADD MSTORE POP JUMP JUMPDEST PUSH32 0x4E6F74207468652072657175657374656420726563697069656E740000000000 PUSH1 0x0 DUP3 ADD MSTORE POP JUMP JUMPDEST PUSH2 0x1486 DUP2 PUSH2 0x12A0 JUMP JUMPDEST DUP2 EQ PUSH2 0x1491 JUMPI PUSH1 0x0 DUP1 REVERT JUMPDEST POP JUMP JUMPDEST PUSH2 0x149D DUP2 PUSH2 0x12B2 JUMP JUMPDEST DUP2 EQ PUSH2 0x14A8 JUMPI PUSH1 0x0 DUP1 REVERT JUMPDEST POP JUMP JUMPDEST PUSH2 0x14B4 DUP2 PUSH2 0x12DE JUMP JUMPDEST DUP2 EQ PUSH2 0x14BF JUMPI PUSH1 0x0 DUP1 REVERT JUMPDEST POP JUMP INVALID LOG2 PUSH5 0x6970667358 0x22 SLT KECCAK256 0xFC 0x49 MSTORE 0xA6 MLOAD 0x29 PUSH9 0x6351A045559883D2C8 0xFB 0xF8 MOD 0x4E PUSH30 0x371527A432E9AEB8D89AD564736F6C634300080700330000000000000000 "
				},
				"gasEstimates": {
					"creation": {
						"codeDepositCost": "1073600",
						"executionCost": "infinite",
						"totalCost": "infinite"
					},
					"external": {
						"acceptOffer(uint256)": "infinite",
						"cancelOffer(uint256)": "infinite",
						"createOffer(uint256,address)": "infinite",
						"getOffers()": "infinite",
						"mileSystem()": "2597",
						"offers(uint256)": "infinite"
					}
				},
				"methodIdentifiers": {
					"acceptOffer(uint256)": "c815729d",
					"cancelOffer(uint256)": "ef706adf",
					"createOffer(uint256,address)": "283eddaf",
					"getOffers()": "3ee992ee",
					"mileSystem()": "36fabbc2",
					"offers(uint256)": "8a72ea6a"
				}
			},
			"storageLayout": {
				"storage": [
					{
						"astId": 228,
						"contract": "contracts/MileExchangeBetweenUsers.sol:MileExchangeBetweenUsers",
						"label": "mileSystem",
						"offset": 0,
						"slot": "0",
						"type": "t_contract(MileSystem)225"
					},
					{
						"astId": 239,
						"contract": "contracts/MileExchangeBetweenUsers.sol:MileExchangeBetweenUsers",
						"label": "offers",
						"offset": 0,
						"slot": "1",
						"type": "t_array(t_struct(Offer)235_storage)dyn_storage"
					}
				],
				"types": {
					"t_address": {
						"encoding": "inplace",
						"label": "address",
						"numberOfBytes": "20"
					},
					"t_array(t_struct(Offer)235_storage)dyn_storage": {
						"base": "t_struct(Offer)235_storage",
						"encoding": "dynamic_array",
						"label": "struct MileExchangeBetweenUsers.Offer[]",
						"numberOfBytes": "32"
					},
					"t_contract(MileSystem)225": {
						"encoding": "inplace",
						"label": "contract MileSystem",
						"numberOfBytes": "20"
					},
					"t_struct(Offer)235_storage": {
						"encoding": "inplace",
						"label": "struct MileExchangeBetweenUsers.Offer",
						"members": [
							{
								"astId": 230,
								"contract": "contracts/MileExchangeBetweenUsers.sol:MileExchangeBetweenUsers",
								"label": "offerer",
								"offset": 0,
								"slot": "0",
								"type": "t_address"
							},
							{
								"astId": 232,
								"contract": "contracts/MileExchangeBetweenUsers.sol:MileExchangeBetweenUsers",
								"label": "amount",
								"offset": 0,
								"slot": "1",
								"type": "t_uint256"
							},
							{
								"astId": 234,
								"contract": "contracts/MileExchangeBetweenUsers.sol:MileExchangeBetweenUsers",
								"label": "requestedFrom",
								"offset": 0,
								"slot": "2",
								"type": "t_address"
							}
						],
						"numberOfBytes": "96"
					},
					"t_uint256": {
						"encoding": "inplace",
						"label": "uint256",
						"numberOfBytes": "32"
					}
				}
			},
			"userdoc": {
				"kind": "user",
				"methods": {},
				"version": 1
			}
		}
	}
}