{
	"contracts/BuyToken.sol": {
		"buy_sell_Token": {
			"abi": [
				{
					"inputs": [
						{
							"internalType": "address",
							"name": "tokenAddress",
							"type": "address"
						}
					],
					"stateMutability": "nonpayable",
					"type": "constructor"
				},
				{
					"inputs": [
						{
							"internalType": "address",
							"name": "owner",
							"type": "address"
						}
					],
					"name": "OwnableInvalidOwner",
					"type": "error"
				},
				{
					"inputs": [
						{
							"internalType": "address",
							"name": "account",
							"type": "address"
						}
					],
					"name": "OwnableUnauthorizedAccount",
					"type": "error"
				},
				{
					"anonymous": false,
					"inputs": [
						{
							"indexed": false,
							"internalType": "address",
							"name": "buyer",
							"type": "address"
						},
						{
							"indexed": false,
							"internalType": "uint256",
							"name": "amountOfCoin",
							"type": "uint256"
						},
						{
							"indexed": false,
							"internalType": "uint256",
							"name": "amountOfTokens",
							"type": "uint256"
						}
					],
					"name": "BuyTokens",
					"type": "event"
				},
				{
					"anonymous": false,
					"inputs": [
						{
							"indexed": true,
							"internalType": "address",
							"name": "previousOwner",
							"type": "address"
						},
						{
							"indexed": true,
							"internalType": "address",
							"name": "newOwner",
							"type": "address"
						}
					],
					"name": "OwnershipTransferred",
					"type": "event"
				},
				{
					"anonymous": false,
					"inputs": [
						{
							"indexed": false,
							"internalType": "address",
							"name": "seller",
							"type": "address"
						},
						{
							"indexed": false,
							"internalType": "uint256",
							"name": "amountOfTokens",
							"type": "uint256"
						},
						{
							"indexed": false,
							"internalType": "uint256",
							"name": "amountOfCoin",
							"type": "uint256"
						}
					],
					"name": "SellTokens",
					"type": "event"
				},
				{
					"inputs": [],
					"name": "buyTokens",
					"outputs": [
						{
							"internalType": "uint256",
							"name": "tokenAmount",
							"type": "uint256"
						}
					],
					"stateMutability": "payable",
					"type": "function"
				},
				{
					"inputs": [],
					"name": "getContractBalance",
					"outputs": [
						{
							"internalType": "uint256",
							"name": "",
							"type": "uint256"
						}
					],
					"stateMutability": "view",
					"type": "function"
				},
				{
					"inputs": [],
					"name": "maxTokensPerAddress",
					"outputs": [
						{
							"internalType": "uint256",
							"name": "",
							"type": "uint256"
						}
					],
					"stateMutability": "view",
					"type": "function"
				},
				{
					"inputs": [],
					"name": "maxTokensPerPurchase",
					"outputs": [
						{
							"internalType": "uint256",
							"name": "",
							"type": "uint256"
						}
					],
					"stateMutability": "view",
					"type": "function"
				},
				{
					"inputs": [],
					"name": "owner",
					"outputs": [
						{
							"internalType": "address",
							"name": "",
							"type": "address"
						}
					],
					"stateMutability": "view",
					"type": "function"
				},
				{
					"inputs": [],
					"name": "renounceOwnership",
					"outputs": [],
					"stateMutability": "nonpayable",
					"type": "function"
				},
				{
					"inputs": [],
					"name": "sellDiscountPercent",
					"outputs": [
						{
							"internalType": "uint256",
							"name": "",
							"type": "uint256"
						}
					],
					"stateMutability": "view",
					"type": "function"
				},
				{
					"inputs": [
						{
							"internalType": "uint256",
							"name": "tokenAmount",
							"type": "uint256"
						}
					],
					"name": "sellTokens",
					"outputs": [
						{
							"internalType": "uint256",
							"name": "coinAmount",
							"type": "uint256"
						}
					],
					"stateMutability": "nonpayable",
					"type": "function"
				},
				{
					"inputs": [
						{
							"internalType": "uint256",
							"name": "newLimit",
							"type": "uint256"
						}
					],
					"name": "setMaxTokensPerAddress",
					"outputs": [],
					"stateMutability": "nonpayable",
					"type": "function"
				},
				{
					"inputs": [
						{
							"internalType": "uint256",
							"name": "newLimit",
							"type": "uint256"
						}
					],
					"name": "setMaxTokensPerPurchase",
					"outputs": [],
					"stateMutability": "nonpayable",
					"type": "function"
				},
				{
					"inputs": [
						{
							"internalType": "uint256",
							"name": "newDiscount",
							"type": "uint256"
						}
					],
					"name": "setSellDiscountPercent",
					"outputs": [],
					"stateMutability": "nonpayable",
					"type": "function"
				},
				{
					"inputs": [
						{
							"internalType": "uint256",
							"name": "newRate",
							"type": "uint256"
						}
					],
					"name": "setTokensPerCoin",
					"outputs": [],
					"stateMutability": "nonpayable",
					"type": "function"
				},
				{
					"inputs": [],
					"name": "tokensPerCoin",
					"outputs": [
						{
							"internalType": "uint256",
							"name": "",
							"type": "uint256"
						}
					],
					"stateMutability": "view",
					"type": "function"
				},
				{
					"inputs": [
						{
							"internalType": "address",
							"name": "newOwner",
							"type": "address"
						}
					],
					"name": "transferOwnership",
					"outputs": [],
					"stateMutability": "nonpayable",
					"type": "function"
				},
				{
					"inputs": [],
					"name": "withdraw",
					"outputs": [],
					"stateMutability": "nonpayable",
					"type": "function"
				},
				{
					"inputs": [
						{
							"internalType": "uint256",
							"name": "amount",
							"type": "uint256"
						}
					],
					"name": "withdrawTokens",
					"outputs": [],
					"stateMutability": "nonpayable",
					"type": "function"
				}
			],
			"devdoc": {
				"errors": {
					"OwnableInvalidOwner(address)": [
						{
							"details": "The owner is not a valid owner account. (eg. `address(0)`)"
						}
					],
					"OwnableUnauthorizedAccount(address)": [
						{
							"details": "The caller account is not authorized to perform an operation."
						}
					]
				},
				"kind": "dev",
				"methods": {
					"owner()": {
						"details": "Returns the address of the current owner."
					},
					"renounceOwnership()": {
						"details": "Leaves the contract without owner. It will not be possible to call `onlyOwner` functions. Can only be called by the current owner. NOTE: Renouncing ownership will leave the contract without an owner, thereby disabling any functionality that is only available to the owner."
					},
					"transferOwnership(address)": {
						"details": "Transfers ownership of the contract to a new account (`newOwner`). Can only be called by the current owner."
					}
				},
				"version": 1
			},
			"evm": {
				"assembly": "    /* \"contracts/BuyToken.sol\":147:3949  contract buy_sell_Token is Ownable {... */\n  mstore(0x40, 0x80)\n    /* \"contracts/BuyToken.sol\":252:255  100 */\n  0x64\n    /* \"contracts/BuyToken.sol\":221:255  uint256 public tokensPerCoin = 100 */\n  0x02\n  sstore\n    /* \"contracts/BuyToken.sol\":300:314  1000 *(10**18) */\n  0x3635c9adc5dea00000\n    /* \"contracts/BuyToken.sol\":262:314  uint256 public maxTokensPerPurchase = 1000 *(10**18) */\n  0x03\n  sstore\n    /* \"contracts/BuyToken.sol\":405:420  5000  *(10**18) */\n  0x010f0cf064dd59200000\n    /* \"contracts/BuyToken.sol\":368:420  uint256 public maxTokensPerAddress = 5000  *(10**18) */\n  0x04\n  sstore\n    /* \"contracts/BuyToken.sol\":511:512  2 */\n  0x02\n    /* \"contracts/BuyToken.sol\":474:512  uint256 public sellDiscountPercent = 2 */\n  0x05\n  sstore\n    /* \"contracts/BuyToken.sol\":706:820  constructor(address tokenAddress) Ownable(msg.sender) {... */\n  callvalue\n  dup1\n  iszero\n  tag_1\n  jumpi\n  0x00\n  dup1\n  revert\ntag_1:\n  pop\n  mload(0x40)\n  sub(codesize, bytecodeSize)\n  dup1\n  bytecodeSize\n  dup4\n  codecopy\n  dup2\n  dup2\n  add\n  0x40\n  mstore\n  dup2\n  add\n  swap1\n  tag_2\n  swap2\n  swap1\n  tag_3\n  jump\t// in\ntag_2:\n    /* \"contracts/BuyToken.sol\":748:758  msg.sender */\n  caller\n    /* \"@openzeppelin/contracts/access/Ownable.sol\":1297:1298  0 */\n  0x00\n    /* \"@openzeppelin/contracts/access/Ownable.sol\":1273:1299  initialOwner == address(0) */\n  0xffffffffffffffffffffffffffffffffffffffff\n  and\n    /* \"@openzeppelin/contracts/access/Ownable.sol\":1273:1285  initialOwner */\n  dup2\n    /* \"@openzeppelin/contracts/access/Ownable.sol\":1273:1299  initialOwner == address(0) */\n  0xffffffffffffffffffffffffffffffffffffffff\n  and\n  sub\n    /* \"@openzeppelin/contracts/access/Ownable.sol\":1269:1364  if (initialOwner == address(0)) {... */\n  tag_7\n  jumpi\n    /* \"@openzeppelin/contracts/access/Ownable.sol\":1350:1351  0 */\n  0x00\n    /* \"@openzeppelin/contracts/access/Ownable.sol\":1322:1353  OwnableInvalidOwner(address(0)) */\n  mload(0x40)\n  0x1e4fbdf700000000000000000000000000000000000000000000000000000000\n  dup2\n  mstore\n  0x04\n  add\n  tag_8\n  swap2\n  swap1\n  tag_9\n  jump\t// in\ntag_8:\n  mload(0x40)\n  dup1\n  swap2\n  sub\n  swap1\n  revert\n    /* \"@openzeppelin/contracts/access/Ownable.sol\":1269:1364  if (initialOwner == address(0)) {... */\ntag_7:\n    /* \"@openzeppelin/contracts/access/Ownable.sol\":1373:1405  _transferOwnership(initialOwner) */\n  tag_10\n    /* \"@openzeppelin/contracts/access/Ownable.sol\":1392:1404  initialOwner */\n  dup2\n    /* \"@openzeppelin/contracts/access/Ownable.sol\":1373:1391  _transferOwnership */\n  shl(0x20, tag_11)\n    /* \"@openzeppelin/contracts/access/Ownable.sol\":1373:1405  _transferOwnership(initialOwner) */\n  0x20\n  shr\n  jump\t// in\ntag_10:\n    /* \"@openzeppelin/contracts/access/Ownable.sol\":1225:1412  constructor(address initialOwner) {... */\n  pop\n    /* \"contracts/BuyToken.sol\":799:811  tokenAddress */\n  dup1\n    /* \"contracts/BuyToken.sol\":771:783  minervaToken */\n  0x01\n  0x00\n    /* \"contracts/BuyToken.sol\":771:812  minervaToken = MinervaToken(tokenAddress) */\n  0x0100\n  exp\n  dup2\n  sload\n  dup2\n  0xffffffffffffffffffffffffffffffffffffffff\n  mul\n  not\n  and\n  swap1\n  dup4\n  0xffffffffffffffffffffffffffffffffffffffff\n  and\n  mul\n  or\n  swap1\n  sstore\n  pop\n    /* \"contracts/BuyToken.sol\":706:820  constructor(address tokenAddress) Ownable(msg.sender) {... */\n  pop\n    /* \"contracts/BuyToken.sol\":147:3949  contract buy_sell_Token is Ownable {... */\n  jump(tag_13)\n    /* \"@openzeppelin/contracts/access/Ownable.sol\":2912:3099  function _transferOwnership(address newOwner) internal virtual {... */\ntag_11:\n    /* \"@openzeppelin/contracts/access/Ownable.sol\":2985:3001  address oldOwner */\n  0x00\n    /* \"@openzeppelin/contracts/access/Ownable.sol\":3004:3010  _owner */\n  dup1\n  0x00\n  swap1\n  sload\n  swap1\n  0x0100\n  exp\n  swap1\n  div\n  0xffffffffffffffffffffffffffffffffffffffff\n  and\n    /* \"@openzeppelin/contracts/access/Ownable.sol\":2985:3010  address oldOwner = _owner */\n  swap1\n  pop\n    /* \"@openzeppelin/contracts/access/Ownable.sol\":3029:3037  newOwner */\n  dup2\n    /* \"@openzeppelin/contracts/access/Ownable.sol\":3020:3026  _owner */\n  0x00\n  dup1\n    /* \"@openzeppelin/contracts/access/Ownable.sol\":3020:3037  _owner = newOwner */\n  0x0100\n  exp\n  dup2\n  sload\n  dup2\n  0xffffffffffffffffffffffffffffffffffffffff\n  mul\n  not\n  and\n  swap1\n  dup4\n  0xffffffffffffffffffffffffffffffffffffffff\n  and\n  mul\n  or\n  swap1\n  sstore\n  pop\n    /* \"@openzeppelin/contracts/access/Ownable.sol\":3083:3091  newOwner */\n  dup2\n    /* \"@openzeppelin/contracts/access/Ownable.sol\":3052:3092  OwnershipTransferred(oldOwner, newOwner) */\n  0xffffffffffffffffffffffffffffffffffffffff\n  and\n    /* \"@openzeppelin/contracts/access/Ownable.sol\":3073:3081  oldOwner */\n  dup2\n    /* \"@openzeppelin/contracts/access/Ownable.sol\":3052:3092  OwnershipTransferred(oldOwner, newOwner) */\n  0xffffffffffffffffffffffffffffffffffffffff\n  and\n  0x8be0079c531659141344cd1fd0a4f28419497f9722a3daafe3b4186f6b6457e0\n  mload(0x40)\n  mload(0x40)\n  dup1\n  swap2\n  sub\n  swap1\n  log3\n    /* \"@openzeppelin/contracts/access/Ownable.sol\":2975:3099  {... */\n  pop\n    /* \"@openzeppelin/contracts/access/Ownable.sol\":2912:3099  function _transferOwnership(address newOwner) internal virtual {... */\n  pop\n  jump\t// out\n    /* \"#utility.yul\":88:205   */\ntag_16:\n    /* \"#utility.yul\":197:198   */\n  0x00\n    /* \"#utility.yul\":194:195   */\n  dup1\n    /* \"#utility.yul\":187:199   */\n  revert\n    /* \"#utility.yul\":334:460   */\ntag_18:\n    /* \"#utility.yul\":371:378   */\n  0x00\n    /* \"#utility.yul\":411:453   */\n  0xffffffffffffffffffffffffffffffffffffffff\n    /* \"#utility.yul\":404:409   */\n  dup3\n    /* \"#utility.yul\":400:454   */\n  and\n    /* \"#utility.yul\":389:454   */\n  swap1\n  pop\n    /* \"#utility.yul\":334:460   */\n  swap2\n  swap1\n  pop\n  jump\t// out\n    /* \"#utility.yul\":466:562   */\ntag_19:\n    /* \"#utility.yul\":503:510   */\n  0x00\n    /* \"#utility.yul\":532:556   */\n  tag_29\n    /* \"#utility.yul\":550:555   */\n  dup3\n    /* \"#utility.yul\":532:556   */\n  tag_18\n  jump\t// in\ntag_29:\n    /* \"#utility.yul\":521:556   */\n  swap1\n  pop\n    /* \"#utility.yul\":466:562   */\n  swap2\n  swap1\n  pop\n  jump\t// out\n    /* \"#utility.yul\":568:690   */\ntag_20:\n    /* \"#utility.yul\":641:665   */\n  tag_31\n    /* \"#utility.yul\":659:664   */\n  dup2\n    /* \"#utility.yul\":641:665   */\n  tag_19\n  jump\t// in\ntag_31:\n    /* \"#utility.yul\":634:639   */\n  dup2\n    /* \"#utility.yul\":631:666   */\n  eq\n    /* \"#utility.yul\":621:684   */\n  tag_32\n  jumpi\n    /* \"#utility.yul\":680:681   */\n  0x00\n    /* \"#utility.yul\":677:678   */\n  dup1\n    /* \"#utility.yul\":670:682   */\n  revert\n    /* \"#utility.yul\":621:684   */\ntag_32:\n    /* \"#utility.yul\":568:690   */\n  pop\n  jump\t// out\n    /* \"#utility.yul\":696:839   */\ntag_21:\n    /* \"#utility.yul\":753:758   */\n  0x00\n    /* \"#utility.yul\":784:790   */\n  dup2\n    /* \"#utility.yul\":778:791   */\n  mload\n    /* \"#utility.yul\":769:791   */\n  swap1\n  pop\n    /* \"#utility.yul\":800:833   */\n  tag_34\n    /* \"#utility.yul\":827:832   */\n  dup2\n    /* \"#utility.yul\":800:833   */\n  tag_20\n  jump\t// in\ntag_34:\n    /* \"#utility.yul\":696:839   */\n  swap3\n  swap2\n  pop\n  pop\n  jump\t// out\n    /* \"#utility.yul\":845:1196   */\ntag_3:\n    /* \"#utility.yul\":915:921   */\n  0x00\n    /* \"#utility.yul\":964:966   */\n  0x20\n    /* \"#utility.yul\":952:961   */\n  dup3\n    /* \"#utility.yul\":943:950   */\n  dup5\n    /* \"#utility.yul\":939:962   */\n  sub\n    /* \"#utility.yul\":935:967   */\n  slt\n    /* \"#utility.yul\":932:1051   */\n  iszero\n  tag_36\n  jumpi\n    /* \"#utility.yul\":970:1049   */\n  tag_37\n  tag_16\n  jump\t// in\ntag_37:\n    /* \"#utility.yul\":932:1051   */\ntag_36:\n    /* \"#utility.yul\":1090:1091   */\n  0x00\n    /* \"#utility.yul\":1115:1179   */\n  tag_38\n    /* \"#utility.yul\":1171:1178   */\n  dup5\n    /* \"#utility.yul\":1162:1168   */\n  dup3\n    /* \"#utility.yul\":1151:1160   */\n  dup6\n    /* \"#utility.yul\":1147:1169   */\n  add\n    /* \"#utility.yul\":1115:1179   */\n  tag_21\n  jump\t// in\ntag_38:\n    /* \"#utility.yul\":1105:1179   */\n  swap2\n  pop\n    /* \"#utility.yul\":1061:1189   */\n  pop\n    /* \"#utility.yul\":845:1196   */\n  swap3\n  swap2\n  pop\n  pop\n  jump\t// out\n    /* \"#utility.yul\":1202:1320   */\ntag_22:\n    /* \"#utility.yul\":1289:1313   */\n  tag_40\n    /* \"#utility.yul\":1307:1312   */\n  dup2\n    /* \"#utility.yul\":1289:1313   */\n  tag_19\n  jump\t// in\ntag_40:\n    /* \"#utility.yul\":1284:1287   */\n  dup3\n    /* \"#utility.yul\":1277:1314   */\n  mstore\n    /* \"#utility.yul\":1202:1320   */\n  pop\n  pop\n  jump\t// out\n    /* \"#utility.yul\":1326:1548   */\ntag_9:\n    /* \"#utility.yul\":1419:1423   */\n  0x00\n    /* \"#utility.yul\":1457:1459   */\n  0x20\n    /* \"#utility.yul\":1446:1455   */\n  dup3\n    /* \"#utility.yul\":1442:1460   */\n  add\n    /* \"#utility.yul\":1434:1460   */\n  swap1\n  pop\n    /* \"#utility.yul\":1470:1541   */\n  tag_42\n    /* \"#utility.yul\":1538:1539   */\n  0x00\n    /* \"#utility.yul\":1527:1536   */\n  dup4\n    /* \"#utility.yul\":1523:1540   */\n  add\n    /* \"#utility.yul\":1514:1520   */\n  dup5\n    /* \"#utility.yul\":1470:1541   */\n  tag_22\n  jump\t// in\ntag_42:\n    /* \"#utility.yul\":1326:1548   */\n  swap3\n  swap2\n  pop\n  pop\n  jump\t// out\n    /* \"contracts/BuyToken.sol\":147:3949  contract buy_sell_Token is Ownable {... */\ntag_13:\n  dataSize(sub_0)\n  dup1\n  dataOffset(sub_0)\n  0x00\n  codecopy\n  0x00\n  return\nstop\n\nsub_0: assembly {\n        /* \"contracts/BuyToken.sol\":147:3949  contract buy_sell_Token is Ownable {... */\n      mstore(0x40, 0x80)\n      jumpi(tag_1, lt(calldatasize, 0x04))\n      shr(0xe0, calldataload(0x00))\n      dup1\n      0x6c11bcd3\n      gt\n      tag_18\n      jumpi\n      dup1\n      0xcb232842\n      gt\n      tag_19\n      jumpi\n      dup1\n      0xcb232842\n      eq\n      tag_14\n      jumpi\n      dup1\n      0xd0febe4c\n      eq\n      tag_15\n      jumpi\n      dup1\n      0xdbb84f11\n      eq\n      tag_16\n      jumpi\n      dup1\n      0xf2fde38b\n      eq\n      tag_17\n      jumpi\n      jump(tag_1)\n    tag_19:\n      dup1\n      0x6c11bcd3\n      eq\n      tag_10\n      jumpi\n      dup1\n      0x6f9fb98a\n      eq\n      tag_11\n      jumpi\n      dup1\n      0x715018a6\n      eq\n      tag_12\n      jumpi\n      dup1\n      0x8da5cb5b\n      eq\n      tag_13\n      jumpi\n      jump(tag_1)\n    tag_18:\n      dup1\n      0x315a095d\n      gt\n      tag_20\n      jumpi\n      dup1\n      0x315a095d\n      eq\n      tag_6\n      jumpi\n      dup1\n      0x3ccfd60b\n      eq\n      tag_7\n      jumpi\n      dup1\n      0x453989b2\n      eq\n      tag_8\n      jumpi\n      dup1\n      0x57715207\n      eq\n      tag_9\n      jumpi\n      jump(tag_1)\n    tag_20:\n      dup1\n      0x0a431e52\n      eq\n      tag_2\n      jumpi\n      dup1\n      0x1369bfee\n      eq\n      tag_3\n      jumpi\n      dup1\n      0x1b326fad\n      eq\n      tag_4\n      jumpi\n      dup1\n      0x23a1baaa\n      eq\n      tag_5\n      jumpi\n    tag_1:\n      0x00\n      dup1\n      revert\n        /* \"contracts/BuyToken.sol\":474:512  uint256 public sellDiscountPercent = 2 */\n    tag_2:\n      callvalue\n      dup1\n      iszero\n      tag_21\n      jumpi\n      0x00\n      dup1\n      revert\n    tag_21:\n      pop\n      tag_22\n      tag_23\n      jump\t// in\n    tag_22:\n      mload(0x40)\n      tag_24\n      swap2\n      swap1\n      tag_25\n      jump\t// in\n    tag_24:\n      mload(0x40)\n      dup1\n      swap2\n      sub\n      swap1\n      return\n        /* \"contracts/BuyToken.sol\":1211:1333  function setSellDiscountPercent(uint256 newDiscount) public onlyOwner {... */\n    tag_3:\n      callvalue\n      dup1\n      iszero\n      tag_26\n      jumpi\n      0x00\n      dup1\n      revert\n    tag_26:\n      pop\n      tag_27\n      0x04\n      dup1\n      calldatasize\n      sub\n      dup2\n      add\n      swap1\n      tag_28\n      swap2\n      swap1\n      tag_29\n      jump\t// in\n    tag_28:\n      tag_30\n      jump\t// in\n    tag_27:\n      stop\n        /* \"contracts/BuyToken.sol\":938:1067  function setMaxTokensPerPurchase(uint256 newLimit) public onlyOwner {... */\n    tag_4:\n      callvalue\n      dup1\n      iszero\n      tag_31\n      jumpi\n      0x00\n      dup1\n      revert\n    tag_31:\n      pop\n      tag_32\n      0x04\n      dup1\n      calldatasize\n      sub\n      dup2\n      add\n      swap1\n      tag_33\n      swap2\n      swap1\n      tag_29\n      jump\t// in\n    tag_33:\n      tag_34\n      jump\t// in\n    tag_32:\n      stop\n        /* \"contracts/BuyToken.sol\":368:420  uint256 public maxTokensPerAddress = 5000  *(10**18) */\n    tag_5:\n      callvalue\n      dup1\n      iszero\n      tag_35\n      jumpi\n      0x00\n      dup1\n      revert\n    tag_35:\n      pop\n      tag_36\n      tag_37\n      jump\t// in\n    tag_36:\n      mload(0x40)\n      tag_38\n      swap2\n      swap1\n      tag_25\n      jump\t// in\n    tag_38:\n      mload(0x40)\n      dup1\n      swap2\n      sub\n      swap1\n      return\n        /* \"contracts/BuyToken.sol\":3559:3946  function withdrawTokens(uint256 amount) public onlyOwner {... */\n    tag_6:\n      callvalue\n      dup1\n      iszero\n      tag_39\n      jumpi\n      0x00\n      dup1\n      revert\n    tag_39:\n      pop\n      tag_40\n      0x04\n      dup1\n      calldatasize\n      sub\n      dup2\n      add\n      swap1\n      tag_41\n      swap2\n      swap1\n      tag_29\n      jump\t// in\n    tag_41:\n      tag_42\n      jump\t// in\n    tag_40:\n      stop\n        /* \"contracts/BuyToken.sol\":3237:3551  function withdraw() public onlyOwner {... */\n    tag_7:\n      callvalue\n      dup1\n      iszero\n      tag_43\n      jumpi\n      0x00\n      dup1\n      revert\n    tag_43:\n      pop\n      tag_44\n      tag_45\n      jump\t// in\n    tag_44:\n      stop\n        /* \"contracts/BuyToken.sol\":828:930  function setTokensPerCoin(uint256 newRate) public onlyOwner {... */\n    tag_8:\n      callvalue\n      dup1\n      iszero\n      tag_46\n      jumpi\n      0x00\n      dup1\n      revert\n    tag_46:\n      pop\n      tag_47\n      0x04\n      dup1\n      calldatasize\n      sub\n      dup2\n      add\n      swap1\n      tag_48\n      swap2\n      swap1\n      tag_29\n      jump\t// in\n    tag_48:\n      tag_49\n      jump\t// in\n    tag_47:\n      stop\n        /* \"contracts/BuyToken.sol\":262:314  uint256 public maxTokensPerPurchase = 1000 *(10**18) */\n    tag_9:\n      callvalue\n      dup1\n      iszero\n      tag_50\n      jumpi\n      0x00\n      dup1\n      revert\n    tag_50:\n      pop\n      tag_51\n      tag_52\n      jump\t// in\n    tag_51:\n      mload(0x40)\n      tag_53\n      swap2\n      swap1\n      tag_25\n      jump\t// in\n    tag_53:\n      mload(0x40)\n      dup1\n      swap2\n      sub\n      swap1\n      return\n        /* \"contracts/BuyToken.sol\":2343:3229  function sellTokens(uint256 tokenAmount) public returns (uint256 coinAmount) {... */\n    tag_10:\n      callvalue\n      dup1\n      iszero\n      tag_54\n      jumpi\n      0x00\n      dup1\n      revert\n    tag_54:\n      pop\n      tag_55\n      0x04\n      dup1\n      calldatasize\n      sub\n      dup2\n      add\n      swap1\n      tag_56\n      swap2\n      swap1\n      tag_29\n      jump\t// in\n    tag_56:\n      tag_57\n      jump\t// in\n    tag_55:\n      mload(0x40)\n      tag_58\n      swap2\n      swap1\n      tag_25\n      jump\t// in\n    tag_58:\n      mload(0x40)\n      dup1\n      swap2\n      sub\n      swap1\n      return\n        /* \"contracts/BuyToken.sol\":1341:1448  function getContractBalance() public view returns (uint256) {... */\n    tag_11:\n      callvalue\n      dup1\n      iszero\n      tag_59\n      jumpi\n      0x00\n      dup1\n      revert\n    tag_59:\n      pop\n      tag_60\n      tag_61\n      jump\t// in\n    tag_60:\n      mload(0x40)\n      tag_62\n      swap2\n      swap1\n      tag_25\n      jump\t// in\n    tag_62:\n      mload(0x40)\n      dup1\n      swap2\n      sub\n      swap1\n      return\n        /* \"@openzeppelin/contracts/access/Ownable.sol\":2293:2394  function renounceOwnership() public virtual onlyOwner {... */\n    tag_12:\n      callvalue\n      dup1\n      iszero\n      tag_63\n      jumpi\n      0x00\n      dup1\n      revert\n    tag_63:\n      pop\n      tag_64\n      tag_65\n      jump\t// in\n    tag_64:\n      stop\n        /* \"@openzeppelin/contracts/access/Ownable.sol\":1638:1723  function owner() public view virtual returns (address) {... */\n    tag_13:\n      callvalue\n      dup1\n      iszero\n      tag_66\n      jumpi\n      0x00\n      dup1\n      revert\n    tag_66:\n      pop\n      tag_67\n      tag_68\n      jump\t// in\n    tag_67:\n      mload(0x40)\n      tag_69\n      swap2\n      swap1\n      tag_70\n      jump\t// in\n    tag_69:\n      mload(0x40)\n      dup1\n      swap2\n      sub\n      swap1\n      return\n        /* \"contracts/BuyToken.sol\":221:255  uint256 public tokensPerCoin = 100 */\n    tag_14:\n      callvalue\n      dup1\n      iszero\n      tag_71\n      jumpi\n      0x00\n      dup1\n      revert\n    tag_71:\n      pop\n      tag_72\n      tag_73\n      jump\t// in\n    tag_72:\n      mload(0x40)\n      tag_74\n      swap2\n      swap1\n      tag_25\n      jump\t// in\n    tag_74:\n      mload(0x40)\n      dup1\n      swap2\n      sub\n      swap1\n      return\n        /* \"contracts/BuyToken.sol\":1458:2335  function buyTokens() public payable returns (uint256 tokenAmount) {... */\n    tag_15:\n      tag_75\n      tag_76\n      jump\t// in\n    tag_75:\n      mload(0x40)\n      tag_77\n      swap2\n      swap1\n      tag_25\n      jump\t// in\n    tag_77:\n      mload(0x40)\n      dup1\n      swap2\n      sub\n      swap1\n      return\n        /* \"contracts/BuyToken.sol\":1075:1203  function setMaxTokensPerAddress(uint256 newLimit) public onlyOwner {... */\n    tag_16:\n      callvalue\n      dup1\n      iszero\n      tag_78\n      jumpi\n      0x00\n      dup1\n      revert\n    tag_78:\n      pop\n      tag_79\n      0x04\n      dup1\n      calldatasize\n      sub\n      dup2\n      add\n      swap1\n      tag_80\n      swap2\n      swap1\n      tag_29\n      jump\t// in\n    tag_80:\n      tag_81\n      jump\t// in\n    tag_79:\n      stop\n        /* \"@openzeppelin/contracts/access/Ownable.sol\":2543:2758  function transferOwnership(address newOwner) public virtual onlyOwner {... */\n    tag_17:\n      callvalue\n      dup1\n      iszero\n      tag_82\n      jumpi\n      0x00\n      dup1\n      revert\n    tag_82:\n      pop\n      tag_83\n      0x04\n      dup1\n      calldatasize\n      sub\n      dup2\n      add\n      swap1\n      tag_84\n      swap2\n      swap1\n      tag_85\n      jump\t// in\n    tag_84:\n      tag_86\n      jump\t// in\n    tag_83:\n      stop\n        /* \"contracts/BuyToken.sol\":474:512  uint256 public sellDiscountPercent = 2 */\n    tag_23:\n      sload(0x05)\n      dup2\n      jump\t// out\n        /* \"contracts/BuyToken.sol\":1211:1333  function setSellDiscountPercent(uint256 newDiscount) public onlyOwner {... */\n    tag_30:\n        /* \"@openzeppelin/contracts/access/Ownable.sol\":1531:1544  _checkOwner() */\n      tag_88\n        /* \"@openzeppelin/contracts/access/Ownable.sol\":1531:1542  _checkOwner */\n      tag_89\n        /* \"@openzeppelin/contracts/access/Ownable.sol\":1531:1544  _checkOwner() */\n      jump\t// in\n    tag_88:\n        /* \"contracts/BuyToken.sol\":1314:1325  newDiscount */\n      dup1\n        /* \"contracts/BuyToken.sol\":1292:1311  sellDiscountPercent */\n      0x05\n        /* \"contracts/BuyToken.sol\":1292:1325  sellDiscountPercent = newDiscount */\n      dup2\n      swap1\n      sstore\n      pop\n        /* \"contracts/BuyToken.sol\":1211:1333  function setSellDiscountPercent(uint256 newDiscount) public onlyOwner {... */\n      pop\n      jump\t// out\n        /* \"contracts/BuyToken.sol\":938:1067  function setMaxTokensPerPurchase(uint256 newLimit) public onlyOwner {... */\n    tag_34:\n        /* \"@openzeppelin/contracts/access/Ownable.sol\":1531:1544  _checkOwner() */\n      tag_92\n        /* \"@openzeppelin/contracts/access/Ownable.sol\":1531:1542  _checkOwner */\n      tag_89\n        /* \"@openzeppelin/contracts/access/Ownable.sol\":1531:1544  _checkOwner() */\n      jump\t// in\n    tag_92:\n        /* \"contracts/BuyToken.sol\":1051:1058  10 **18 */\n      0x0de0b6b3a7640000\n        /* \"contracts/BuyToken.sol\":1040:1048  newLimit */\n      dup2\n        /* \"contracts/BuyToken.sol\":1040:1059  newLimit* (10 **18) */\n      tag_94\n      swap2\n      swap1\n      tag_95\n      jump\t// in\n    tag_94:\n        /* \"contracts/BuyToken.sol\":1017:1037  maxTokensPerPurchase */\n      0x03\n        /* \"contracts/BuyToken.sol\":1017:1059  maxTokensPerPurchase = newLimit* (10 **18) */\n      dup2\n      swap1\n      sstore\n      pop\n        /* \"contracts/BuyToken.sol\":938:1067  function setMaxTokensPerPurchase(uint256 newLimit) public onlyOwner {... */\n      pop\n      jump\t// out\n        /* \"contracts/BuyToken.sol\":368:420  uint256 public maxTokensPerAddress = 5000  *(10**18) */\n    tag_37:\n      sload(0x04)\n      dup2\n      jump\t// out\n        /* \"contracts/BuyToken.sol\":3559:3946  function withdrawTokens(uint256 amount) public onlyOwner {... */\n    tag_42:\n        /* \"@openzeppelin/contracts/access/Ownable.sol\":1531:1544  _checkOwner() */\n      tag_97\n        /* \"@openzeppelin/contracts/access/Ownable.sol\":1531:1542  _checkOwner */\n      tag_89\n        /* \"@openzeppelin/contracts/access/Ownable.sol\":1531:1544  _checkOwner() */\n      jump\t// in\n    tag_97:\n        /* \"contracts/BuyToken.sol\":3627:3647  uint256 tokenBalance */\n      0x00\n        /* \"contracts/BuyToken.sol\":3650:3662  minervaToken */\n      0x01\n      0x00\n      swap1\n      sload\n      swap1\n      0x0100\n      exp\n      swap1\n      div\n      0xffffffffffffffffffffffffffffffffffffffff\n      and\n        /* \"contracts/BuyToken.sol\":3650:3672  minervaToken.balanceOf */\n      0xffffffffffffffffffffffffffffffffffffffff\n      and\n      0x70a08231\n        /* \"contracts/BuyToken.sol\":3681:3685  this */\n      address\n        /* \"contracts/BuyToken.sol\":3650:3687  minervaToken.balanceOf(address(this)) */\n      mload(0x40)\n      dup3\n      0xffffffff\n      and\n      0xe0\n      shl\n      dup2\n      mstore\n      0x04\n      add\n      tag_99\n      swap2\n      swap1\n      tag_70\n      jump\t// in\n    tag_99:\n      0x20\n      mload(0x40)\n      dup1\n      dup4\n      sub\n      dup2\n      dup7\n      gas\n      staticcall\n      iszero\n      dup1\n      iszero\n      tag_101\n      jumpi\n      returndatasize\n      0x00\n      dup1\n      returndatacopy\n      revert(0x00, returndatasize)\n    tag_101:\n      pop\n      pop\n      pop\n      pop\n      mload(0x40)\n      returndatasize\n      not(0x1f)\n      0x1f\n      dup3\n      add\n      and\n      dup3\n      add\n      dup1\n      0x40\n      mstore\n      pop\n      dup2\n      add\n      swap1\n      tag_102\n      swap2\n      swap1\n      tag_103\n      jump\t// in\n    tag_102:\n        /* \"contracts/BuyToken.sol\":3627:3687  uint256 tokenBalance = minervaToken.balanceOf(address(this)) */\n      swap1\n      pop\n        /* \"contracts/BuyToken.sol\":3732:3738  10**18 */\n      0x0de0b6b3a7640000\n        /* \"contracts/BuyToken.sol\":3722:3728  amount */\n      dup3\n        /* \"contracts/BuyToken.sol\":3722:3739  amount * (10**18) */\n      tag_104\n      swap2\n      swap1\n      tag_95\n      jump\t// in\n    tag_104:\n        /* \"contracts/BuyToken.sol\":3706:3718  tokenBalance */\n      dup2\n        /* \"contracts/BuyToken.sol\":3706:3739  tokenBalance >= amount * (10**18) */\n      lt\n      iszero\n        /* \"contracts/BuyToken.sol\":3698:3793  require(tokenBalance >= amount * (10**18), \"Vendor contract has not enough tokens to withdraw\") */\n      tag_105\n      jumpi\n      mload(0x40)\n      0x08c379a000000000000000000000000000000000000000000000000000000000\n      dup2\n      mstore\n      0x04\n      add\n      tag_106\n      swap1\n      tag_107\n      jump\t// in\n    tag_106:\n      mload(0x40)\n      dup1\n      swap2\n      sub\n      swap1\n      revert\n    tag_105:\n        /* \"contracts/BuyToken.sol\":3807:3816  bool sent */\n      0x00\n        /* \"contracts/BuyToken.sol\":3820:3832  minervaToken */\n      0x01\n      0x00\n      swap1\n      sload\n      swap1\n      0x0100\n      exp\n      swap1\n      div\n      0xffffffffffffffffffffffffffffffffffffffff\n      and\n        /* \"contracts/BuyToken.sol\":3820:3841  minervaToken.transfer */\n      0xffffffffffffffffffffffffffffffffffffffff\n      and\n      0xa9059cbb\n        /* \"contracts/BuyToken.sol\":3842:3852  msg.sender */\n      caller\n        /* \"contracts/BuyToken.sol\":3864:3870  10**18 */\n      0x0de0b6b3a7640000\n        /* \"contracts/BuyToken.sol\":3854:3860  amount */\n      dup7\n        /* \"contracts/BuyToken.sol\":3854:3871  amount * (10**18) */\n      tag_108\n      swap2\n      swap1\n      tag_95\n      jump\t// in\n    tag_108:\n        /* \"contracts/BuyToken.sol\":3820:3872  minervaToken.transfer(msg.sender, amount * (10**18)) */\n      mload(0x40)\n      dup4\n      0xffffffff\n      and\n      0xe0\n      shl\n      dup2\n      mstore\n      0x04\n      add\n      tag_109\n      swap3\n      swap2\n      swap1\n      tag_110\n      jump\t// in\n    tag_109:\n      0x20\n      mload(0x40)\n      dup1\n      dup4\n      sub\n      dup2\n      0x00\n      dup8\n      gas\n      call\n      iszero\n      dup1\n      iszero\n      tag_112\n      jumpi\n      returndatasize\n      0x00\n      dup1\n      returndatacopy\n      revert(0x00, returndatasize)\n    tag_112:\n      pop\n      pop\n      pop\n      pop\n      mload(0x40)\n      returndatasize\n      not(0x1f)\n      0x1f\n      dup3\n      add\n      and\n      dup3\n      add\n      dup1\n      0x40\n      mstore\n      pop\n      dup2\n      add\n      swap1\n      tag_113\n      swap2\n      swap1\n      tag_114\n      jump\t// in\n    tag_113:\n        /* \"contracts/BuyToken.sol\":3806:3872  (bool sent) = minervaToken.transfer(msg.sender, amount * (10**18)) */\n      swap1\n      pop\n        /* \"contracts/BuyToken.sol\":3891:3895  sent */\n      dup1\n        /* \"contracts/BuyToken.sol\":3883:3938  require(sent, \"Failed to transfer tokens to the owner\") */\n      tag_115\n      jumpi\n      mload(0x40)\n      0x08c379a000000000000000000000000000000000000000000000000000000000\n      dup2\n      mstore\n      0x04\n      add\n      tag_116\n      swap1\n      tag_117\n      jump\t// in\n    tag_116:\n      mload(0x40)\n      dup1\n      swap2\n      sub\n      swap1\n      revert\n    tag_115:\n        /* \"contracts/BuyToken.sol\":3616:3946  {... */\n      pop\n      pop\n        /* \"contracts/BuyToken.sol\":3559:3946  function withdrawTokens(uint256 amount) public onlyOwner {... */\n      pop\n      jump\t// out\n        /* \"contracts/BuyToken.sol\":3237:3551  function withdraw() public onlyOwner {... */\n    tag_45:\n        /* \"@openzeppelin/contracts/access/Ownable.sol\":1531:1544  _checkOwner() */\n      tag_119\n        /* \"@openzeppelin/contracts/access/Ownable.sol\":1531:1542  _checkOwner */\n      tag_89\n        /* \"@openzeppelin/contracts/access/Ownable.sol\":1531:1544  _checkOwner() */\n      jump\t// in\n    tag_119:\n        /* \"contracts/BuyToken.sol\":3285:3305  uint256 ownerBalance */\n      0x00\n        /* \"contracts/BuyToken.sol\":3308:3329  address(this).balance */\n      selfbalance\n        /* \"contracts/BuyToken.sol\":3285:3329  uint256 ownerBalance = address(this).balance */\n      swap1\n      pop\n        /* \"contracts/BuyToken.sol\":3363:3364  0 */\n      0x00\n        /* \"contracts/BuyToken.sol\":3348:3360  ownerBalance */\n      dup2\n        /* \"contracts/BuyToken.sol\":3348:3364  ownerBalance > 0 */\n      gt\n        /* \"contracts/BuyToken.sol\":3340:3402  require(ownerBalance > 0, \"Owner has not balance to withdraw\") */\n      tag_121\n      jumpi\n      mload(0x40)\n      0x08c379a000000000000000000000000000000000000000000000000000000000\n      dup2\n      mstore\n      0x04\n      add\n      tag_122\n      swap1\n      tag_123\n      jump\t// in\n    tag_122:\n      mload(0x40)\n      dup1\n      swap2\n      sub\n      swap1\n      revert\n    tag_121:\n        /* \"contracts/BuyToken.sol\":3416:3425  bool sent */\n      0x00\n        /* \"contracts/BuyToken.sol\":3430:3440  msg.sender */\n      caller\n        /* \"contracts/BuyToken.sol\":3430:3445  msg.sender.call */\n      0xffffffffffffffffffffffffffffffffffffffff\n      and\n        /* \"contracts/BuyToken.sol\":3453:3465  ownerBalance */\n      dup3\n        /* \"contracts/BuyToken.sol\":3430:3470  msg.sender.call{value: ownerBalance}(\"\") */\n      mload(0x40)\n      tag_124\n      swap1\n      tag_125\n      jump\t// in\n    tag_124:\n      0x00\n      mload(0x40)\n      dup1\n      dup4\n      sub\n      dup2\n      dup6\n      dup8\n      gas\n      call\n      swap3\n      pop\n      pop\n      pop\n      returndatasize\n      dup1\n      0x00\n      dup2\n      eq\n      tag_128\n      jumpi\n      mload(0x40)\n      swap2\n      pop\n      and(add(returndatasize, 0x3f), not(0x1f))\n      dup3\n      add\n      0x40\n      mstore\n      returndatasize\n      dup3\n      mstore\n      returndatasize\n      0x00\n      0x20\n      dup5\n      add\n      returndatacopy\n      jump(tag_127)\n    tag_128:\n      0x60\n      swap2\n      pop\n    tag_127:\n      pop\n        /* \"contracts/BuyToken.sol\":3415:3470  (bool sent,) = msg.sender.call{value: ownerBalance}(\"\") */\n      pop\n      swap1\n      pop\n        /* \"contracts/BuyToken.sol\":3489:3493  sent */\n      dup1\n        /* \"contracts/BuyToken.sol\":3481:3543  require(sent, \"Failed to send user balance back to the owner\") */\n      tag_129\n      jumpi\n      mload(0x40)\n      0x08c379a000000000000000000000000000000000000000000000000000000000\n      dup2\n      mstore\n      0x04\n      add\n      tag_130\n      swap1\n      tag_131\n      jump\t// in\n    tag_130:\n      mload(0x40)\n      dup1\n      swap2\n      sub\n      swap1\n      revert\n    tag_129:\n        /* \"contracts/BuyToken.sol\":3274:3551  {... */\n      pop\n      pop\n        /* \"contracts/BuyToken.sol\":3237:3551  function withdraw() public onlyOwner {... */\n      jump\t// out\n        /* \"contracts/BuyToken.sol\":828:930  function setTokensPerCoin(uint256 newRate) public onlyOwner {... */\n    tag_49:\n        /* \"@openzeppelin/contracts/access/Ownable.sol\":1531:1544  _checkOwner() */\n      tag_133\n        /* \"@openzeppelin/contracts/access/Ownable.sol\":1531:1542  _checkOwner */\n      tag_89\n        /* \"@openzeppelin/contracts/access/Ownable.sol\":1531:1544  _checkOwner() */\n      jump\t// in\n    tag_133:\n        /* \"contracts/BuyToken.sol\":915:922  newRate */\n      dup1\n        /* \"contracts/BuyToken.sol\":899:912  tokensPerCoin */\n      0x02\n        /* \"contracts/BuyToken.sol\":899:922  tokensPerCoin = newRate */\n      dup2\n      swap1\n      sstore\n      pop\n        /* \"contracts/BuyToken.sol\":828:930  function setTokensPerCoin(uint256 newRate) public onlyOwner {... */\n      pop\n      jump\t// out\n        /* \"contracts/BuyToken.sol\":262:314  uint256 public maxTokensPerPurchase = 1000 *(10**18) */\n    tag_52:\n      sload(0x03)\n      dup2\n      jump\t// out\n        /* \"contracts/BuyToken.sol\":2343:3229  function sellTokens(uint256 tokenAmount) public returns (uint256 coinAmount) {... */\n    tag_57:\n        /* \"contracts/BuyToken.sol\":2400:2418  uint256 coinAmount */\n      0x00\n        /* \"contracts/BuyToken.sol\":2460:2468  10 ** 18 */\n      0x0de0b6b3a7640000\n        /* \"contracts/BuyToken.sol\":2445:2456  tokenAmount */\n      dup3\n        /* \"contracts/BuyToken.sol\":2445:2469  tokenAmount * (10 ** 18) */\n      tag_136\n      swap2\n      swap1\n      tag_95\n      jump\t// in\n    tag_136:\n        /* \"contracts/BuyToken.sol\":2431:2469  tokenAmount = tokenAmount * (10 ** 18) */\n      swap2\n      pop\n        /* \"contracts/BuyToken.sol\":2502:2503  0 */\n      0x00\n        /* \"contracts/BuyToken.sol\":2488:2499  tokenAmount */\n      dup3\n        /* \"contracts/BuyToken.sol\":2488:2503  tokenAmount > 0 */\n      gt\n        /* \"contracts/BuyToken.sol\":2480:2540  require(tokenAmount > 0, \"Specify amount of tokens to sell\") */\n      tag_137\n      jumpi\n      mload(0x40)\n      0x08c379a000000000000000000000000000000000000000000000000000000000\n      dup2\n      mstore\n      0x04\n      add\n      tag_138\n      swap1\n      tag_139\n      jump\t// in\n    tag_138:\n      mload(0x40)\n      dup1\n      swap2\n      sub\n      swap1\n      revert\n    tag_137:\n        /* \"contracts/BuyToken.sol\":2597:2608  tokenAmount */\n      dup2\n        /* \"contracts/BuyToken.sol\":2559:2571  minervaToken */\n      0x01\n      0x00\n      swap1\n      sload\n      swap1\n      0x0100\n      exp\n      swap1\n      div\n      0xffffffffffffffffffffffffffffffffffffffff\n      and\n        /* \"contracts/BuyToken.sol\":2559:2581  minervaToken.balanceOf */\n      0xffffffffffffffffffffffffffffffffffffffff\n      and\n      0x70a08231\n        /* \"contracts/BuyToken.sol\":2582:2592  msg.sender */\n      caller\n        /* \"contracts/BuyToken.sol\":2559:2593  minervaToken.balanceOf(msg.sender) */\n      mload(0x40)\n      dup3\n      0xffffffff\n      and\n      0xe0\n      shl\n      dup2\n      mstore\n      0x04\n      add\n      tag_140\n      swap2\n      swap1\n      tag_70\n      jump\t// in\n    tag_140:\n      0x20\n      mload(0x40)\n      dup1\n      dup4\n      sub\n      dup2\n      dup7\n      gas\n      staticcall\n      iszero\n      dup1\n      iszero\n      tag_142\n      jumpi\n      returndatasize\n      0x00\n      dup1\n      returndatacopy\n      revert(0x00, returndatasize)\n    tag_142:\n      pop\n      pop\n      pop\n      pop\n      mload(0x40)\n      returndatasize\n      not(0x1f)\n      0x1f\n      dup3\n      add\n      and\n      dup3\n      add\n      dup1\n      0x40\n      mstore\n      pop\n      dup2\n      add\n      swap1\n      tag_143\n      swap2\n      swap1\n      tag_103\n      jump\t// in\n    tag_143:\n        /* \"contracts/BuyToken.sol\":2559:2608  minervaToken.balanceOf(msg.sender) >= tokenAmount */\n      lt\n      iszero\n        /* \"contracts/BuyToken.sol\":2551:2639  require(minervaToken.balanceOf(msg.sender) >= tokenAmount, \"Insufficient token balance\") */\n      tag_144\n      jumpi\n      mload(0x40)\n      0x08c379a000000000000000000000000000000000000000000000000000000000\n      dup2\n      mstore\n      0x04\n      add\n      tag_145\n      swap1\n      tag_146\n      jump\t// in\n    tag_145:\n      mload(0x40)\n      dup1\n      swap2\n      sub\n      swap1\n      revert\n    tag_144:\n        /* \"contracts/BuyToken.sol\":2652:2671  uint256 amountToPay */\n      0x00\n        /* \"contracts/BuyToken.sol\":2727:2740  tokensPerCoin */\n      sload(0x02)\n        /* \"contracts/BuyToken.sol\":2721:2724  100 */\n      0x64\n        /* \"contracts/BuyToken.sol\":2721:2740  100 * tokensPerCoin */\n      tag_147\n      swap2\n      swap1\n      tag_95\n      jump\t// in\n    tag_147:\n        /* \"contracts/BuyToken.sol\":2696:2715  sellDiscountPercent */\n      sload(0x05)\n        /* \"contracts/BuyToken.sol\":2690:2693  100 */\n      0x64\n        /* \"contracts/BuyToken.sol\":2690:2715  100 - sellDiscountPercent */\n      tag_148\n      swap2\n      swap1\n      tag_149\n      jump\t// in\n    tag_148:\n        /* \"contracts/BuyToken.sol\":2675:2686  tokenAmount */\n      dup5\n        /* \"contracts/BuyToken.sol\":2675:2716  tokenAmount * (100 - sellDiscountPercent) */\n      tag_150\n      swap2\n      swap1\n      tag_95\n      jump\t// in\n    tag_150:\n        /* \"contracts/BuyToken.sol\":2674:2741  (tokenAmount * (100 - sellDiscountPercent)) / (100 * tokensPerCoin) */\n      tag_151\n      swap2\n      swap1\n      tag_152\n      jump\t// in\n    tag_151:\n        /* \"contracts/BuyToken.sol\":2652:2741  uint256 amountToPay = (tokenAmount * (100 - sellDiscountPercent)) / (100 * tokensPerCoin) */\n      swap1\n      pop\n        /* \"contracts/BuyToken.sol\":2785:2796  amountToPay */\n      dup1\n        /* \"contracts/BuyToken.sol\":2760:2781  address(this).balance */\n      selfbalance\n        /* \"contracts/BuyToken.sol\":2760:2796  address(this).balance >= amountToPay */\n      lt\n      iszero\n        /* \"contracts/BuyToken.sol\":2752:2838  require(address(this).balance >= amountToPay, \"Insufficient Coin balance in contract\") */\n      tag_153\n      jumpi\n      mload(0x40)\n      0x08c379a000000000000000000000000000000000000000000000000000000000\n      dup2\n      mstore\n      0x04\n      add\n      tag_154\n      swap1\n      tag_155\n      jump\t// in\n    tag_154:\n      mload(0x40)\n      dup1\n      swap2\n      sub\n      swap1\n      revert\n    tag_153:\n        /* \"contracts/BuyToken.sol\":2852:2861  bool sent */\n      0x00\n        /* \"contracts/BuyToken.sol\":2865:2877  minervaToken */\n      0x01\n      0x00\n      swap1\n      sload\n      swap1\n      0x0100\n      exp\n      swap1\n      div\n      0xffffffffffffffffffffffffffffffffffffffff\n      and\n        /* \"contracts/BuyToken.sol\":2865:2890  minervaToken.transferFrom */\n      0xffffffffffffffffffffffffffffffffffffffff\n      and\n      0x23b872dd\n        /* \"contracts/BuyToken.sol\":2891:2901  msg.sender */\n      caller\n        /* \"contracts/BuyToken.sol\":2911:2915  this */\n      address\n        /* \"contracts/BuyToken.sol\":2918:2929  tokenAmount */\n      dup8\n        /* \"contracts/BuyToken.sol\":2865:2930  minervaToken.transferFrom(msg.sender, address(this), tokenAmount) */\n      mload(0x40)\n      dup5\n      0xffffffff\n      and\n      0xe0\n      shl\n      dup2\n      mstore\n      0x04\n      add\n      tag_156\n      swap4\n      swap3\n      swap2\n      swap1\n      tag_157\n      jump\t// in\n    tag_156:\n      0x20\n      mload(0x40)\n      dup1\n      dup4\n      sub\n      dup2\n      0x00\n      dup8\n      gas\n      call\n      iszero\n      dup1\n      iszero\n      tag_159\n      jumpi\n      returndatasize\n      0x00\n      dup1\n      returndatacopy\n      revert(0x00, returndatasize)\n    tag_159:\n      pop\n      pop\n      pop\n      pop\n      mload(0x40)\n      returndatasize\n      not(0x1f)\n      0x1f\n      dup3\n      add\n      and\n      dup3\n      add\n      dup1\n      0x40\n      mstore\n      pop\n      dup2\n      add\n      swap1\n      tag_160\n      swap2\n      swap1\n      tag_114\n      jump\t// in\n    tag_160:\n        /* \"contracts/BuyToken.sol\":2851:2930  (bool sent) = minervaToken.transferFrom(msg.sender, address(this), tokenAmount) */\n      swap1\n      pop\n        /* \"contracts/BuyToken.sol\":2949:2953  sent */\n      dup1\n        /* \"contracts/BuyToken.sol\":2941:2994  require(sent, \"Failed to transfer token to contract\") */\n      tag_161\n      jumpi\n      mload(0x40)\n      0x08c379a000000000000000000000000000000000000000000000000000000000\n      dup2\n      mstore\n      0x04\n      add\n      tag_162\n      swap1\n      tag_163\n      jump\t// in\n    tag_162:\n      mload(0x40)\n      dup1\n      swap2\n      sub\n      swap1\n      revert\n    tag_161:\n        /* \"contracts/BuyToken.sol\":3008:3021  bool coinSent */\n      0x00\n        /* \"contracts/BuyToken.sol\":3026:3036  msg.sender */\n      caller\n        /* \"contracts/BuyToken.sol\":3026:3041  msg.sender.call */\n      0xffffffffffffffffffffffffffffffffffffffff\n      and\n        /* \"contracts/BuyToken.sol\":3049:3060  amountToPay */\n      dup4\n        /* \"contracts/BuyToken.sol\":3026:3065  msg.sender.call{value: amountToPay}(\"\") */\n      mload(0x40)\n      tag_164\n      swap1\n      tag_125\n      jump\t// in\n    tag_164:\n      0x00\n      mload(0x40)\n      dup1\n      dup4\n      sub\n      dup2\n      dup6\n      dup8\n      gas\n      call\n      swap3\n      pop\n      pop\n      pop\n      returndatasize\n      dup1\n      0x00\n      dup2\n      eq\n      tag_167\n      jumpi\n      mload(0x40)\n      swap2\n      pop\n      and(add(returndatasize, 0x3f), not(0x1f))\n      dup3\n      add\n      0x40\n      mstore\n      returndatasize\n      dup3\n      mstore\n      returndatasize\n      0x00\n      0x20\n      dup5\n      add\n      returndatacopy\n      jump(tag_166)\n    tag_167:\n      0x60\n      swap2\n      pop\n    tag_166:\n      pop\n        /* \"contracts/BuyToken.sol\":3007:3065  (bool coinSent,) = msg.sender.call{value: amountToPay}(\"\") */\n      pop\n      swap1\n      pop\n        /* \"contracts/BuyToken.sol\":3084:3092  coinSent */\n      dup1\n        /* \"contracts/BuyToken.sol\":3076:3124  require(coinSent, \"Failed to send Coin to user\") */\n      tag_168\n      jumpi\n      mload(0x40)\n      0x08c379a000000000000000000000000000000000000000000000000000000000\n      dup2\n      mstore\n      0x04\n      add\n      tag_169\n      swap1\n      tag_170\n      jump\t// in\n    tag_169:\n      mload(0x40)\n      dup1\n      swap2\n      sub\n      swap1\n      revert\n    tag_168:\n        /* \"contracts/BuyToken.sol\":3142:3190  SellTokens(msg.sender, tokenAmount, amountToPay) */\n      0xa24838acd4af5195a2396965dae5abf54e84e8c19f5698bb966ae64e29994ee5\n        /* \"contracts/BuyToken.sol\":3153:3163  msg.sender */\n      caller\n        /* \"contracts/BuyToken.sol\":3165:3176  tokenAmount */\n      dup7\n        /* \"contracts/BuyToken.sol\":3178:3189  amountToPay */\n      dup6\n        /* \"contracts/BuyToken.sol\":3142:3190  SellTokens(msg.sender, tokenAmount, amountToPay) */\n      mload(0x40)\n      tag_171\n      swap4\n      swap3\n      swap2\n      swap1\n      tag_172\n      jump\t// in\n    tag_171:\n      mload(0x40)\n      dup1\n      swap2\n      sub\n      swap1\n      log1\n        /* \"contracts/BuyToken.sol\":3210:3221  amountToPay */\n      dup3\n        /* \"contracts/BuyToken.sol\":3203:3221  return amountToPay */\n      swap4\n      pop\n      pop\n      pop\n      pop\n        /* \"contracts/BuyToken.sol\":2343:3229  function sellTokens(uint256 tokenAmount) public returns (uint256 coinAmount) {... */\n      swap2\n      swap1\n      pop\n      jump\t// out\n        /* \"contracts/BuyToken.sol\":1341:1448  function getContractBalance() public view returns (uint256) {... */\n    tag_61:\n        /* \"contracts/BuyToken.sol\":1392:1399  uint256 */\n      0x00\n        /* \"contracts/BuyToken.sol\":1419:1440  address(this).balance */\n      selfbalance\n        /* \"contracts/BuyToken.sol\":1412:1440  return address(this).balance */\n      swap1\n      pop\n        /* \"contracts/BuyToken.sol\":1341:1448  function getContractBalance() public view returns (uint256) {... */\n      swap1\n      jump\t// out\n        /* \"@openzeppelin/contracts/access/Ownable.sol\":2293:2394  function renounceOwnership() public virtual onlyOwner {... */\n    tag_65:\n        /* \"@openzeppelin/contracts/access/Ownable.sol\":1531:1544  _checkOwner() */\n      tag_175\n        /* \"@openzeppelin/contracts/access/Ownable.sol\":1531:1542  _checkOwner */\n      tag_89\n        /* \"@openzeppelin/contracts/access/Ownable.sol\":1531:1544  _checkOwner() */\n      jump\t// in\n    tag_175:\n        /* \"@openzeppelin/contracts/access/Ownable.sol\":2357:2387  _transferOwnership(address(0)) */\n      tag_177\n        /* \"@openzeppelin/contracts/access/Ownable.sol\":2384:2385  0 */\n      0x00\n        /* \"@openzeppelin/contracts/access/Ownable.sol\":2357:2375  _transferOwnership */\n      tag_178\n        /* \"@openzeppelin/contracts/access/Ownable.sol\":2357:2387  _transferOwnership(address(0)) */\n      jump\t// in\n    tag_177:\n        /* \"@openzeppelin/contracts/access/Ownable.sol\":2293:2394  function renounceOwnership() public virtual onlyOwner {... */\n      jump\t// out\n        /* \"@openzeppelin/contracts/access/Ownable.sol\":1638:1723  function owner() public view virtual returns (address) {... */\n    tag_68:\n        /* \"@openzeppelin/contracts/access/Ownable.sol\":1684:1691  address */\n      0x00\n        /* \"@openzeppelin/contracts/access/Ownable.sol\":1710:1716  _owner */\n      dup1\n      0x00\n      swap1\n      sload\n      swap1\n      0x0100\n      exp\n      swap1\n      div\n      0xffffffffffffffffffffffffffffffffffffffff\n      and\n        /* \"@openzeppelin/contracts/access/Ownable.sol\":1703:1716  return _owner */\n      swap1\n      pop\n        /* \"@openzeppelin/contracts/access/Ownable.sol\":1638:1723  function owner() public view virtual returns (address) {... */\n      swap1\n      jump\t// out\n        /* \"contracts/BuyToken.sol\":221:255  uint256 public tokensPerCoin = 100 */\n    tag_73:\n      sload(0x02)\n      dup2\n      jump\t// out\n        /* \"contracts/BuyToken.sol\":1458:2335  function buyTokens() public payable returns (uint256 tokenAmount) {... */\n    tag_76:\n        /* \"contracts/BuyToken.sol\":1503:1522  uint256 tokenAmount */\n      0x00\n        /* \"contracts/BuyToken.sol\":1555:1556  0 */\n      dup1\n        /* \"contracts/BuyToken.sol\":1543:1552  msg.value */\n      callvalue\n        /* \"contracts/BuyToken.sol\":1543:1556  msg.value > 0 */\n      gt\n        /* \"contracts/BuyToken.sol\":1535:1589  require(msg.value > 0, \"Send Coin to buy some tokens\") */\n      tag_181\n      jumpi\n      mload(0x40)\n      0x08c379a000000000000000000000000000000000000000000000000000000000\n      dup2\n      mstore\n      0x04\n      add\n      tag_182\n      swap1\n      tag_183\n      jump\t// in\n    tag_182:\n      mload(0x40)\n      dup1\n      swap2\n      sub\n      swap1\n      revert\n    tag_181:\n        /* \"contracts/BuyToken.sol\":1602:1621  uint256 amountToBuy */\n      0x00\n        /* \"contracts/BuyToken.sol\":1636:1649  tokensPerCoin */\n      sload(0x02)\n        /* \"contracts/BuyToken.sol\":1624:1633  msg.value */\n      callvalue\n        /* \"contracts/BuyToken.sol\":1624:1649  msg.value * tokensPerCoin */\n      tag_184\n      swap2\n      swap1\n      tag_95\n      jump\t// in\n    tag_184:\n        /* \"contracts/BuyToken.sol\":1602:1649  uint256 amountToBuy = msg.value * tokensPerCoin */\n      swap1\n      pop\n        /* \"contracts/BuyToken.sol\":1683:1703  maxTokensPerPurchase */\n      sload(0x03)\n        /* \"contracts/BuyToken.sol\":1668:1679  amountToBuy */\n      dup2\n        /* \"contracts/BuyToken.sol\":1668:1703  amountToBuy <= maxTokensPerPurchase */\n      gt\n      iszero\n        /* \"contracts/BuyToken.sol\":1660:1743  require(amountToBuy <= maxTokensPerPurchase, \"Exceeds maximum tokens per purchase\") */\n      tag_185\n      jumpi\n      mload(0x40)\n      0x08c379a000000000000000000000000000000000000000000000000000000000\n      dup2\n      mstore\n      0x04\n      add\n      tag_186\n      swap1\n      tag_187\n      jump\t// in\n    tag_186:\n      mload(0x40)\n      dup1\n      swap2\n      sub\n      swap1\n      revert\n    tag_185:\n        /* \"contracts/BuyToken.sol\":1756:1779  uint256 contractBalance */\n      0x00\n        /* \"contracts/BuyToken.sol\":1782:1794  minervaToken */\n      0x01\n      0x00\n      swap1\n      sload\n      swap1\n      0x0100\n      exp\n      swap1\n      div\n      0xffffffffffffffffffffffffffffffffffffffff\n      and\n        /* \"contracts/BuyToken.sol\":1782:1804  minervaToken.balanceOf */\n      0xffffffffffffffffffffffffffffffffffffffff\n      and\n      0x70a08231\n        /* \"contracts/BuyToken.sol\":1813:1817  this */\n      address\n        /* \"contracts/BuyToken.sol\":1782:1819  minervaToken.balanceOf(address(this)) */\n      mload(0x40)\n      dup3\n      0xffffffff\n      and\n      0xe0\n      shl\n      dup2\n      mstore\n      0x04\n      add\n      tag_188\n      swap2\n      swap1\n      tag_70\n      jump\t// in\n    tag_188:\n      0x20\n      mload(0x40)\n      dup1\n      dup4\n      sub\n      dup2\n      dup7\n      gas\n      staticcall\n      iszero\n      dup1\n      iszero\n      tag_190\n      jumpi\n      returndatasize\n      0x00\n      dup1\n      returndatacopy\n      revert(0x00, returndatasize)\n    tag_190:\n      pop\n      pop\n      pop\n      pop\n      mload(0x40)\n      returndatasize\n      not(0x1f)\n      0x1f\n      dup3\n      add\n      and\n      dup3\n      add\n      dup1\n      0x40\n      mstore\n      pop\n      dup2\n      add\n      swap1\n      tag_191\n      swap2\n      swap1\n      tag_103\n      jump\t// in\n    tag_191:\n        /* \"contracts/BuyToken.sol\":1756:1819  uint256 contractBalance = minervaToken.balanceOf(address(this)) */\n      swap1\n      pop\n        /* \"contracts/BuyToken.sol\":1857:1868  amountToBuy */\n      dup2\n        /* \"contracts/BuyToken.sol\":1838:1853  contractBalance */\n      dup2\n        /* \"contracts/BuyToken.sol\":1838:1868  contractBalance >= amountToBuy */\n      lt\n      iszero\n        /* \"contracts/BuyToken.sol\":1830:1925  require(contractBalance >= amountToBuy, \"Vendor contract has not enough tokens in its balance\") */\n      tag_192\n      jumpi\n      mload(0x40)\n      0x08c379a000000000000000000000000000000000000000000000000000000000\n      dup2\n      mstore\n      0x04\n      add\n      tag_193\n      swap1\n      tag_194\n      jump\t// in\n    tag_193:\n      mload(0x40)\n      dup1\n      swap2\n      sub\n      swap1\n      revert\n    tag_192:\n        /* \"contracts/BuyToken.sol\":1938:1957  uint256 userBalance */\n      0x00\n        /* \"contracts/BuyToken.sol\":1960:1972  minervaToken */\n      0x01\n      0x00\n      swap1\n      sload\n      swap1\n      0x0100\n      exp\n      swap1\n      div\n      0xffffffffffffffffffffffffffffffffffffffff\n      and\n        /* \"contracts/BuyToken.sol\":1960:1982  minervaToken.balanceOf */\n      0xffffffffffffffffffffffffffffffffffffffff\n      and\n      0x70a08231\n        /* \"contracts/BuyToken.sol\":1983:1993  msg.sender */\n      caller\n        /* \"contracts/BuyToken.sol\":1960:1994  minervaToken.balanceOf(msg.sender) */\n      mload(0x40)\n      dup3\n      0xffffffff\n      and\n      0xe0\n      shl\n      dup2\n      mstore\n      0x04\n      add\n      tag_195\n      swap2\n      swap1\n      tag_70\n      jump\t// in\n    tag_195:\n      0x20\n      mload(0x40)\n      dup1\n      dup4\n      sub\n      dup2\n      dup7\n      gas\n      staticcall\n      iszero\n      dup1\n      iszero\n      tag_197\n      jumpi\n      returndatasize\n      0x00\n      dup1\n      returndatacopy\n      revert(0x00, returndatasize)\n    tag_197:\n      pop\n      pop\n      pop\n      pop\n      mload(0x40)\n      returndatasize\n      not(0x1f)\n      0x1f\n      dup3\n      add\n      and\n      dup3\n      add\n      dup1\n      0x40\n      mstore\n      pop\n      dup2\n      add\n      swap1\n      tag_198\n      swap2\n      swap1\n      tag_103\n      jump\t// in\n    tag_198:\n        /* \"contracts/BuyToken.sol\":1938:1994  uint256 userBalance = minervaToken.balanceOf(msg.sender) */\n      swap1\n      pop\n        /* \"contracts/BuyToken.sol\":2042:2061  maxTokensPerAddress */\n      sload(0x04)\n        /* \"contracts/BuyToken.sol\":2027:2038  amountToBuy */\n      dup4\n        /* \"contracts/BuyToken.sol\":2013:2024  userBalance */\n      dup3\n        /* \"contracts/BuyToken.sol\":2013:2038  userBalance + amountToBuy */\n      tag_199\n      swap2\n      swap1\n      tag_200\n      jump\t// in\n    tag_199:\n        /* \"contracts/BuyToken.sol\":2013:2061  userBalance + amountToBuy <= maxTokensPerAddress */\n      gt\n      iszero\n        /* \"contracts/BuyToken.sol\":2005:2100  require(userBalance + amountToBuy <= maxTokensPerAddress, \"Exceeds maximum tokens per address\") */\n      tag_201\n      jumpi\n      mload(0x40)\n      0x08c379a000000000000000000000000000000000000000000000000000000000\n      dup2\n      mstore\n      0x04\n      add\n      tag_202\n      swap1\n      tag_203\n      jump\t// in\n    tag_202:\n      mload(0x40)\n      dup1\n      swap2\n      sub\n      swap1\n      revert\n    tag_201:\n        /* \"contracts/BuyToken.sol\":2114:2123  bool sent */\n      0x00\n        /* \"contracts/BuyToken.sol\":2127:2139  minervaToken */\n      0x01\n      0x00\n      swap1\n      sload\n      swap1\n      0x0100\n      exp\n      swap1\n      div\n      0xffffffffffffffffffffffffffffffffffffffff\n      and\n        /* \"contracts/BuyToken.sol\":2127:2148  minervaToken.transfer */\n      0xffffffffffffffffffffffffffffffffffffffff\n      and\n      0xa9059cbb\n        /* \"contracts/BuyToken.sol\":2149:2159  msg.sender */\n      caller\n        /* \"contracts/BuyToken.sol\":2161:2172  amountToBuy */\n      dup7\n        /* \"contracts/BuyToken.sol\":2127:2173  minervaToken.transfer(msg.sender, amountToBuy) */\n      mload(0x40)\n      dup4\n      0xffffffff\n      and\n      0xe0\n      shl\n      dup2\n      mstore\n      0x04\n      add\n      tag_204\n      swap3\n      swap2\n      swap1\n      tag_110\n      jump\t// in\n    tag_204:\n      0x20\n      mload(0x40)\n      dup1\n      dup4\n      sub\n      dup2\n      0x00\n      dup8\n      gas\n      call\n      iszero\n      dup1\n      iszero\n      tag_206\n      jumpi\n      returndatasize\n      0x00\n      dup1\n      returndatacopy\n      revert(0x00, returndatasize)\n    tag_206:\n      pop\n      pop\n      pop\n      pop\n      mload(0x40)\n      returndatasize\n      not(0x1f)\n      0x1f\n      dup3\n      add\n      and\n      dup3\n      add\n      dup1\n      0x40\n      mstore\n      pop\n      dup2\n      add\n      swap1\n      tag_207\n      swap2\n      swap1\n      tag_114\n      jump\t// in\n    tag_207:\n        /* \"contracts/BuyToken.sol\":2113:2173  (bool sent) = minervaToken.transfer(msg.sender, amountToBuy) */\n      swap1\n      pop\n        /* \"contracts/BuyToken.sol\":2192:2196  sent */\n      dup1\n        /* \"contracts/BuyToken.sol\":2184:2233  require(sent, \"Failed to transfer token to user\") */\n      tag_208\n      jumpi\n      mload(0x40)\n      0x08c379a000000000000000000000000000000000000000000000000000000000\n      dup2\n      mstore\n      0x04\n      add\n      tag_209\n      swap1\n      tag_210\n      jump\t// in\n    tag_209:\n      mload(0x40)\n      dup1\n      swap2\n      sub\n      swap1\n      revert\n    tag_208:\n        /* \"contracts/BuyToken.sol\":2251:2296  BuyTokens(msg.sender, msg.value, amountToBuy) */\n      0x0a37b72bb67eee30e09084cf386f8a17817c57f620c3ab95fb25d6a20356ec77\n        /* \"contracts/BuyToken.sol\":2261:2271  msg.sender */\n      caller\n        /* \"contracts/BuyToken.sol\":2273:2282  msg.value */\n      callvalue\n        /* \"contracts/BuyToken.sol\":2284:2295  amountToBuy */\n      dup7\n        /* \"contracts/BuyToken.sol\":2251:2296  BuyTokens(msg.sender, msg.value, amountToBuy) */\n      mload(0x40)\n      tag_211\n      swap4\n      swap3\n      swap2\n      swap1\n      tag_172\n      jump\t// in\n    tag_211:\n      mload(0x40)\n      dup1\n      swap2\n      sub\n      swap1\n      log1\n        /* \"contracts/BuyToken.sol\":2316:2327  amountToBuy */\n      dup4\n        /* \"contracts/BuyToken.sol\":2309:2327  return amountToBuy */\n      swap5\n      pop\n      pop\n      pop\n      pop\n      pop\n        /* \"contracts/BuyToken.sol\":1458:2335  function buyTokens() public payable returns (uint256 tokenAmount) {... */\n      swap1\n      jump\t// out\n        /* \"contracts/BuyToken.sol\":1075:1203  function setMaxTokensPerAddress(uint256 newLimit) public onlyOwner {... */\n    tag_81:\n        /* \"@openzeppelin/contracts/access/Ownable.sol\":1531:1544  _checkOwner() */\n      tag_213\n        /* \"@openzeppelin/contracts/access/Ownable.sol\":1531:1542  _checkOwner */\n      tag_89\n        /* \"@openzeppelin/contracts/access/Ownable.sol\":1531:1544  _checkOwner() */\n      jump\t// in\n    tag_213:\n        /* \"contracts/BuyToken.sol\":1186:1194  10 ** 18 */\n      0x0de0b6b3a7640000\n        /* \"contracts/BuyToken.sol\":1175:1183  newLimit */\n      dup2\n        /* \"contracts/BuyToken.sol\":1175:1195  newLimit* (10 ** 18) */\n      tag_215\n      swap2\n      swap1\n      tag_95\n      jump\t// in\n    tag_215:\n        /* \"contracts/BuyToken.sol\":1153:1172  maxTokensPerAddress */\n      0x04\n        /* \"contracts/BuyToken.sol\":1153:1195  maxTokensPerAddress = newLimit* (10 ** 18) */\n      dup2\n      swap1\n      sstore\n      pop\n        /* \"contracts/BuyToken.sol\":1075:1203  function setMaxTokensPerAddress(uint256 newLimit) public onlyOwner {... */\n      pop\n      jump\t// out\n        /* \"@openzeppelin/contracts/access/Ownable.sol\":2543:2758  function transferOwnership(address newOwner) public virtual onlyOwner {... */\n    tag_86:\n        /* \"@openzeppelin/contracts/access/Ownable.sol\":1531:1544  _checkOwner() */\n      tag_217\n        /* \"@openzeppelin/contracts/access/Ownable.sol\":1531:1542  _checkOwner */\n      tag_89\n        /* \"@openzeppelin/contracts/access/Ownable.sol\":1531:1544  _checkOwner() */\n      jump\t// in\n    tag_217:\n        /* \"@openzeppelin/contracts/access/Ownable.sol\":2647:2648  0 */\n      0x00\n        /* \"@openzeppelin/contracts/access/Ownable.sol\":2627:2649  newOwner == address(0) */\n      0xffffffffffffffffffffffffffffffffffffffff\n      and\n        /* \"@openzeppelin/contracts/access/Ownable.sol\":2627:2635  newOwner */\n      dup2\n        /* \"@openzeppelin/contracts/access/Ownable.sol\":2627:2649  newOwner == address(0) */\n      0xffffffffffffffffffffffffffffffffffffffff\n      and\n      sub\n        /* \"@openzeppelin/contracts/access/Ownable.sol\":2623:2714  if (newOwner == address(0)) {... */\n      tag_219\n      jumpi\n        /* \"@openzeppelin/contracts/access/Ownable.sol\":2700:2701  0 */\n      0x00\n        /* \"@openzeppelin/contracts/access/Ownable.sol\":2672:2703  OwnableInvalidOwner(address(0)) */\n      mload(0x40)\n      0x1e4fbdf700000000000000000000000000000000000000000000000000000000\n      dup2\n      mstore\n      0x04\n      add\n      tag_220\n      swap2\n      swap1\n      tag_70\n      jump\t// in\n    tag_220:\n      mload(0x40)\n      dup1\n      swap2\n      sub\n      swap1\n      revert\n        /* \"@openzeppelin/contracts/access/Ownable.sol\":2623:2714  if (newOwner == address(0)) {... */\n    tag_219:\n        /* \"@openzeppelin/contracts/access/Ownable.sol\":2723:2751  _transferOwnership(newOwner) */\n      tag_221\n        /* \"@openzeppelin/contracts/access/Ownable.sol\":2742:2750  newOwner */\n      dup2\n        /* \"@openzeppelin/contracts/access/Ownable.sol\":2723:2741  _transferOwnership */\n      tag_178\n        /* \"@openzeppelin/contracts/access/Ownable.sol\":2723:2751  _transferOwnership(newOwner) */\n      jump\t// in\n    tag_221:\n        /* \"@openzeppelin/contracts/access/Ownable.sol\":2543:2758  function transferOwnership(address newOwner) public virtual onlyOwner {... */\n      pop\n      jump\t// out\n        /* \"@openzeppelin/contracts/access/Ownable.sol\":1796:1958  function _checkOwner() internal view virtual {... */\n    tag_89:\n        /* \"@openzeppelin/contracts/access/Ownable.sol\":1866:1878  _msgSender() */\n      tag_223\n        /* \"@openzeppelin/contracts/access/Ownable.sol\":1866:1876  _msgSender */\n      tag_224\n        /* \"@openzeppelin/contracts/access/Ownable.sol\":1866:1878  _msgSender() */\n      jump\t// in\n    tag_223:\n        /* \"@openzeppelin/contracts/access/Ownable.sol\":1855:1878  owner() != _msgSender() */\n      0xffffffffffffffffffffffffffffffffffffffff\n      and\n        /* \"@openzeppelin/contracts/access/Ownable.sol\":1855:1862  owner() */\n      tag_225\n        /* \"@openzeppelin/contracts/access/Ownable.sol\":1855:1860  owner */\n      tag_68\n        /* \"@openzeppelin/contracts/access/Ownable.sol\":1855:1862  owner() */\n      jump\t// in\n    tag_225:\n        /* \"@openzeppelin/contracts/access/Ownable.sol\":1855:1878  owner() != _msgSender() */\n      0xffffffffffffffffffffffffffffffffffffffff\n      and\n      eq\n        /* \"@openzeppelin/contracts/access/Ownable.sol\":1851:1952  if (owner() != _msgSender()) {... */\n      tag_226\n      jumpi\n        /* \"@openzeppelin/contracts/access/Ownable.sol\":1928:1940  _msgSender() */\n      tag_227\n        /* \"@openzeppelin/contracts/access/Ownable.sol\":1928:1938  _msgSender */\n      tag_224\n        /* \"@openzeppelin/contracts/access/Ownable.sol\":1928:1940  _msgSender() */\n      jump\t// in\n    tag_227:\n        /* \"@openzeppelin/contracts/access/Ownable.sol\":1901:1941  OwnableUnauthorizedAccount(_msgSender()) */\n      mload(0x40)\n      0x118cdaa700000000000000000000000000000000000000000000000000000000\n      dup2\n      mstore\n      0x04\n      add\n      tag_228\n      swap2\n      swap1\n      tag_70\n      jump\t// in\n    tag_228:\n      mload(0x40)\n      dup1\n      swap2\n      sub\n      swap1\n      revert\n        /* \"@openzeppelin/contracts/access/Ownable.sol\":1851:1952  if (owner() != _msgSender()) {... */\n    tag_226:\n        /* \"@openzeppelin/contracts/access/Ownable.sol\":1796:1958  function _checkOwner() internal view virtual {... */\n      jump\t// out\n        /* \"@openzeppelin/contracts/access/Ownable.sol\":2912:3099  function _transferOwnership(address newOwner) internal virtual {... */\n    tag_178:\n        /* \"@openzeppelin/contracts/access/Ownable.sol\":2985:3001  address oldOwner */\n      0x00\n        /* \"@openzeppelin/contracts/access/Ownable.sol\":3004:3010  _owner */\n      dup1\n      0x00\n      swap1\n      sload\n      swap1\n      0x0100\n      exp\n      swap1\n      div\n      0xffffffffffffffffffffffffffffffffffffffff\n      and\n        /* \"@openzeppelin/contracts/access/Ownable.sol\":2985:3010  address oldOwner = _owner */\n      swap1\n      pop\n        /* \"@openzeppelin/contracts/access/Ownable.sol\":3029:3037  newOwner */\n      dup2\n        /* \"@openzeppelin/contracts/access/Ownable.sol\":3020:3026  _owner */\n      0x00\n      dup1\n        /* \"@openzeppelin/contracts/access/Ownable.sol\":3020:3037  _owner = newOwner */\n      0x0100\n      exp\n      dup2\n      sload\n      dup2\n      0xffffffffffffffffffffffffffffffffffffffff\n      mul\n      not\n      and\n      swap1\n      dup4\n      0xffffffffffffffffffffffffffffffffffffffff\n      and\n      mul\n      or\n      swap1\n      sstore\n      pop\n        /* \"@openzeppelin/contracts/access/Ownable.sol\":3083:3091  newOwner */\n      dup2\n        /* \"@openzeppelin/contracts/access/Ownable.sol\":3052:3092  OwnershipTransferred(oldOwner, newOwner) */\n      0xffffffffffffffffffffffffffffffffffffffff\n      and\n        /* \"@openzeppelin/contracts/access/Ownable.sol\":3073:3081  oldOwner */\n      dup2\n        /* \"@openzeppelin/contracts/access/Ownable.sol\":3052:3092  OwnershipTransferred(oldOwner, newOwner) */\n      0xffffffffffffffffffffffffffffffffffffffff\n      and\n      0x8be0079c531659141344cd1fd0a4f28419497f9722a3daafe3b4186f6b6457e0\n      mload(0x40)\n      mload(0x40)\n      dup1\n      swap2\n      sub\n      swap1\n      log3\n        /* \"@openzeppelin/contracts/access/Ownable.sol\":2975:3099  {... */\n      pop\n        /* \"@openzeppelin/contracts/access/Ownable.sol\":2912:3099  function _transferOwnership(address newOwner) internal virtual {... */\n      pop\n      jump\t// out\n        /* \"@openzeppelin/contracts/utils/Context.sol\":656:752  function _msgSender() internal view virtual returns (address) {... */\n    tag_224:\n        /* \"@openzeppelin/contracts/utils/Context.sol\":709:716  address */\n      0x00\n        /* \"@openzeppelin/contracts/utils/Context.sol\":735:745  msg.sender */\n      caller\n        /* \"@openzeppelin/contracts/utils/Context.sol\":728:745  return msg.sender */\n      swap1\n      pop\n        /* \"@openzeppelin/contracts/utils/Context.sol\":656:752  function _msgSender() internal view virtual returns (address) {... */\n      swap1\n      jump\t// out\n        /* \"#utility.yul\":7:84   */\n    tag_231:\n        /* \"#utility.yul\":44:51   */\n      0x00\n        /* \"#utility.yul\":73:78   */\n      dup2\n        /* \"#utility.yul\":62:78   */\n      swap1\n      pop\n        /* \"#utility.yul\":7:84   */\n      swap2\n      swap1\n      pop\n      jump\t// out\n        /* \"#utility.yul\":90:208   */\n    tag_232:\n        /* \"#utility.yul\":177:201   */\n      tag_284\n        /* \"#utility.yul\":195:200   */\n      dup2\n        /* \"#utility.yul\":177:201   */\n      tag_231\n      jump\t// in\n    tag_284:\n        /* \"#utility.yul\":172:175   */\n      dup3\n        /* \"#utility.yul\":165:202   */\n      mstore\n        /* \"#utility.yul\":90:208   */\n      pop\n      pop\n      jump\t// out\n        /* \"#utility.yul\":214:436   */\n    tag_25:\n        /* \"#utility.yul\":307:311   */\n      0x00\n        /* \"#utility.yul\":345:347   */\n      0x20\n        /* \"#utility.yul\":334:343   */\n      dup3\n        /* \"#utility.yul\":330:348   */\n      add\n        /* \"#utility.yul\":322:348   */\n      swap1\n      pop\n        /* \"#utility.yul\":358:429   */\n      tag_286\n        /* \"#utility.yul\":426:427   */\n      0x00\n        /* \"#utility.yul\":415:424   */\n      dup4\n        /* \"#utility.yul\":411:428   */\n      add\n        /* \"#utility.yul\":402:408   */\n      dup5\n        /* \"#utility.yul\":358:429   */\n      tag_232\n      jump\t// in\n    tag_286:\n        /* \"#utility.yul\":214:436   */\n      swap3\n      swap2\n      pop\n      pop\n      jump\t// out\n        /* \"#utility.yul\":523:640   */\n    tag_234:\n        /* \"#utility.yul\":632:633   */\n      0x00\n        /* \"#utility.yul\":629:630   */\n      dup1\n        /* \"#utility.yul\":622:634   */\n      revert\n        /* \"#utility.yul\":769:891   */\n    tag_236:\n        /* \"#utility.yul\":842:866   */\n      tag_291\n        /* \"#utility.yul\":860:865   */\n      dup2\n        /* \"#utility.yul\":842:866   */\n      tag_231\n      jump\t// in\n    tag_291:\n        /* \"#utility.yul\":835:840   */\n      dup2\n        /* \"#utility.yul\":832:867   */\n      eq\n        /* \"#utility.yul\":822:885   */\n      tag_292\n      jumpi\n        /* \"#utility.yul\":881:882   */\n      0x00\n        /* \"#utility.yul\":878:879   */\n      dup1\n        /* \"#utility.yul\":871:883   */\n      revert\n        /* \"#utility.yul\":822:885   */\n    tag_292:\n        /* \"#utility.yul\":769:891   */\n      pop\n      jump\t// out\n        /* \"#utility.yul\":897:1036   */\n    tag_237:\n        /* \"#utility.yul\":943:948   */\n      0x00\n        /* \"#utility.yul\":981:987   */\n      dup2\n        /* \"#utility.yul\":968:988   */\n      calldataload\n        /* \"#utility.yul\":959:988   */\n      swap1\n      pop\n        /* \"#utility.yul\":997:1030   */\n      tag_294\n        /* \"#utility.yul\":1024:1029   */\n      dup2\n        /* \"#utility.yul\":997:1030   */\n      tag_236\n      jump\t// in\n    tag_294:\n        /* \"#utility.yul\":897:1036   */\n      swap3\n      swap2\n      pop\n      pop\n      jump\t// out\n        /* \"#utility.yul\":1042:1371   */\n    tag_29:\n        /* \"#utility.yul\":1101:1107   */\n      0x00\n        /* \"#utility.yul\":1150:1152   */\n      0x20\n        /* \"#utility.yul\":1138:1147   */\n      dup3\n        /* \"#utility.yul\":1129:1136   */\n      dup5\n        /* \"#utility.yul\":1125:1148   */\n      sub\n        /* \"#utility.yul\":1121:1153   */\n      slt\n        /* \"#utility.yul\":1118:1237   */\n      iszero\n      tag_296\n      jumpi\n        /* \"#utility.yul\":1156:1235   */\n      tag_297\n      tag_234\n      jump\t// in\n    tag_297:\n        /* \"#utility.yul\":1118:1237   */\n    tag_296:\n        /* \"#utility.yul\":1276:1277   */\n      0x00\n        /* \"#utility.yul\":1301:1354   */\n      tag_298\n        /* \"#utility.yul\":1346:1353   */\n      dup5\n        /* \"#utility.yul\":1337:1343   */\n      dup3\n        /* \"#utility.yul\":1326:1335   */\n      dup6\n        /* \"#utility.yul\":1322:1344   */\n      add\n        /* \"#utility.yul\":1301:1354   */\n      tag_237\n      jump\t// in\n    tag_298:\n        /* \"#utility.yul\":1291:1354   */\n      swap2\n      pop\n        /* \"#utility.yul\":1247:1364   */\n      pop\n        /* \"#utility.yul\":1042:1371   */\n      swap3\n      swap2\n      pop\n      pop\n      jump\t// out\n        /* \"#utility.yul\":1377:1503   */\n    tag_238:\n        /* \"#utility.yul\":1414:1421   */\n      0x00\n        /* \"#utility.yul\":1454:1496   */\n      0xffffffffffffffffffffffffffffffffffffffff\n        /* \"#utility.yul\":1447:1452   */\n      dup3\n        /* \"#utility.yul\":1443:1497   */\n      and\n        /* \"#utility.yul\":1432:1497   */\n      swap1\n      pop\n        /* \"#utility.yul\":1377:1503   */\n      swap2\n      swap1\n      pop\n      jump\t// out\n        /* \"#utility.yul\":1509:1605   */\n    tag_239:\n        /* \"#utility.yul\":1546:1553   */\n      0x00\n        /* \"#utility.yul\":1575:1599   */\n      tag_301\n        /* \"#utility.yul\":1593:1598   */\n      dup3\n        /* \"#utility.yul\":1575:1599   */\n      tag_238\n      jump\t// in\n    tag_301:\n        /* \"#utility.yul\":1564:1599   */\n      swap1\n      pop\n        /* \"#utility.yul\":1509:1605   */\n      swap2\n      swap1\n      pop\n      jump\t// out\n        /* \"#utility.yul\":1611:1729   */\n    tag_240:\n        /* \"#utility.yul\":1698:1722   */\n      tag_303\n        /* \"#utility.yul\":1716:1721   */\n      dup2\n        /* \"#utility.yul\":1698:1722   */\n      tag_239\n      jump\t// in\n    tag_303:\n        /* \"#utility.yul\":1693:1696   */\n      dup3\n        /* \"#utility.yul\":1686:1723   */\n      mstore\n        /* \"#utility.yul\":1611:1729   */\n      pop\n      pop\n      jump\t// out\n        /* \"#utility.yul\":1735:1957   */\n    tag_70:\n        /* \"#utility.yul\":1828:1832   */\n      0x00\n        /* \"#utility.yul\":1866:1868   */\n      0x20\n        /* \"#utility.yul\":1855:1864   */\n      dup3\n        /* \"#utility.yul\":1851:1869   */\n      add\n        /* \"#utility.yul\":1843:1869   */\n      swap1\n      pop\n        /* \"#utility.yul\":1879:1950   */\n      tag_305\n        /* \"#utility.yul\":1947:1948   */\n      0x00\n        /* \"#utility.yul\":1936:1945   */\n      dup4\n        /* \"#utility.yul\":1932:1949   */\n      add\n        /* \"#utility.yul\":1923:1929   */\n      dup5\n        /* \"#utility.yul\":1879:1950   */\n      tag_240\n      jump\t// in\n    tag_305:\n        /* \"#utility.yul\":1735:1957   */\n      swap3\n      swap2\n      pop\n      pop\n      jump\t// out\n        /* \"#utility.yul\":1963:2085   */\n    tag_241:\n        /* \"#utility.yul\":2036:2060   */\n      tag_307\n        /* \"#utility.yul\":2054:2059   */\n      dup2\n        /* \"#utility.yul\":2036:2060   */\n      tag_239\n      jump\t// in\n    tag_307:\n        /* \"#utility.yul\":2029:2034   */\n      dup2\n        /* \"#utility.yul\":2026:2061   */\n      eq\n        /* \"#utility.yul\":2016:2079   */\n      tag_308\n      jumpi\n        /* \"#utility.yul\":2075:2076   */\n      0x00\n        /* \"#utility.yul\":2072:2073   */\n      dup1\n        /* \"#utility.yul\":2065:2077   */\n      revert\n        /* \"#utility.yul\":2016:2079   */\n    tag_308:\n        /* \"#utility.yul\":1963:2085   */\n      pop\n      jump\t// out\n        /* \"#utility.yul\":2091:2230   */\n    tag_242:\n        /* \"#utility.yul\":2137:2142   */\n      0x00\n        /* \"#utility.yul\":2175:2181   */\n      dup2\n        /* \"#utility.yul\":2162:2182   */\n      calldataload\n        /* \"#utility.yul\":2153:2182   */\n      swap1\n      pop\n        /* \"#utility.yul\":2191:2224   */\n      tag_310\n        /* \"#utility.yul\":2218:2223   */\n      dup2\n        /* \"#utility.yul\":2191:2224   */\n      tag_241\n      jump\t// in\n    tag_310:\n        /* \"#utility.yul\":2091:2230   */\n      swap3\n      swap2\n      pop\n      pop\n      jump\t// out\n        /* \"#utility.yul\":2236:2565   */\n    tag_85:\n        /* \"#utility.yul\":2295:2301   */\n      0x00\n        /* \"#utility.yul\":2344:2346   */\n      0x20\n        /* \"#utility.yul\":2332:2341   */\n      dup3\n        /* \"#utility.yul\":2323:2330   */\n      dup5\n        /* \"#utility.yul\":2319:2342   */\n      sub\n        /* \"#utility.yul\":2315:2347   */\n      slt\n        /* \"#utility.yul\":2312:2431   */\n      iszero\n      tag_312\n      jumpi\n        /* \"#utility.yul\":2350:2429   */\n      tag_313\n      tag_234\n      jump\t// in\n    tag_313:\n        /* \"#utility.yul\":2312:2431   */\n    tag_312:\n        /* \"#utility.yul\":2470:2471   */\n      0x00\n        /* \"#utility.yul\":2495:2548   */\n      tag_314\n        /* \"#utility.yul\":2540:2547   */\n      dup5\n        /* \"#utility.yul\":2531:2537   */\n      dup3\n        /* \"#utility.yul\":2520:2529   */\n      dup6\n        /* \"#utility.yul\":2516:2538   */\n      add\n        /* \"#utility.yul\":2495:2548   */\n      tag_242\n      jump\t// in\n    tag_314:\n        /* \"#utility.yul\":2485:2548   */\n      swap2\n      pop\n        /* \"#utility.yul\":2441:2558   */\n      pop\n        /* \"#utility.yul\":2236:2565   */\n      swap3\n      swap2\n      pop\n      pop\n      jump\t// out\n        /* \"#utility.yul\":2571:2751   */\n    tag_243:\n        /* \"#utility.yul\":2619:2696   */\n      0x4e487b7100000000000000000000000000000000000000000000000000000000\n        /* \"#utility.yul\":2616:2617   */\n      0x00\n        /* \"#utility.yul\":2609:2697   */\n      mstore\n        /* \"#utility.yul\":2716:2720   */\n      0x11\n        /* \"#utility.yul\":2713:2714   */\n      0x04\n        /* \"#utility.yul\":2706:2721   */\n      mstore\n        /* \"#utility.yul\":2740:2744   */\n      0x24\n        /* \"#utility.yul\":2737:2738   */\n      0x00\n        /* \"#utility.yul\":2730:2745   */\n      revert\n        /* \"#utility.yul\":2757:3167   */\n    tag_95:\n        /* \"#utility.yul\":2797:2804   */\n      0x00\n        /* \"#utility.yul\":2820:2840   */\n      tag_317\n        /* \"#utility.yul\":2838:2839   */\n      dup3\n        /* \"#utility.yul\":2820:2840   */\n      tag_231\n      jump\t// in\n    tag_317:\n        /* \"#utility.yul\":2815:2840   */\n      swap2\n      pop\n        /* \"#utility.yul\":2854:2874   */\n      tag_318\n        /* \"#utility.yul\":2872:2873   */\n      dup4\n        /* \"#utility.yul\":2854:2874   */\n      tag_231\n      jump\t// in\n    tag_318:\n        /* \"#utility.yul\":2849:2874   */\n      swap3\n      pop\n        /* \"#utility.yul\":2909:2910   */\n      dup3\n        /* \"#utility.yul\":2906:2907   */\n      dup3\n        /* \"#utility.yul\":2902:2911   */\n      mul\n        /* \"#utility.yul\":2931:2961   */\n      tag_319\n        /* \"#utility.yul\":2949:2960   */\n      dup2\n        /* \"#utility.yul\":2931:2961   */\n      tag_231\n      jump\t// in\n    tag_319:\n        /* \"#utility.yul\":2920:2961   */\n      swap2\n      pop\n        /* \"#utility.yul\":3110:3111   */\n      dup3\n        /* \"#utility.yul\":3101:3108   */\n      dup3\n        /* \"#utility.yul\":3097:3112   */\n      div\n        /* \"#utility.yul\":3094:3095   */\n      dup5\n        /* \"#utility.yul\":3091:3113   */\n      eq\n        /* \"#utility.yul\":3071:3072   */\n      dup4\n        /* \"#utility.yul\":3064:3073   */\n      iszero\n        /* \"#utility.yul\":3044:3127   */\n      or\n        /* \"#utility.yul\":3021:3160   */\n      tag_320\n      jumpi\n        /* \"#utility.yul\":3140:3158   */\n      tag_321\n      tag_243\n      jump\t// in\n    tag_321:\n        /* \"#utility.yul\":3021:3160   */\n    tag_320:\n        /* \"#utility.yul\":2805:3167   */\n      pop\n        /* \"#utility.yul\":2757:3167   */\n      swap3\n      swap2\n      pop\n      pop\n      jump\t// out\n        /* \"#utility.yul\":3173:3316   */\n    tag_244:\n        /* \"#utility.yul\":3230:3235   */\n      0x00\n        /* \"#utility.yul\":3261:3267   */\n      dup2\n        /* \"#utility.yul\":3255:3268   */\n      mload\n        /* \"#utility.yul\":3246:3268   */\n      swap1\n      pop\n        /* \"#utility.yul\":3277:3310   */\n      tag_323\n        /* \"#utility.yul\":3304:3309   */\n      dup2\n        /* \"#utility.yul\":3277:3310   */\n      tag_236\n      jump\t// in\n    tag_323:\n        /* \"#utility.yul\":3173:3316   */\n      swap3\n      swap2\n      pop\n      pop\n      jump\t// out\n        /* \"#utility.yul\":3322:3673   */\n    tag_103:\n        /* \"#utility.yul\":3392:3398   */\n      0x00\n        /* \"#utility.yul\":3441:3443   */\n      0x20\n        /* \"#utility.yul\":3429:3438   */\n      dup3\n        /* \"#utility.yul\":3420:3427   */\n      dup5\n        /* \"#utility.yul\":3416:3439   */\n      sub\n        /* \"#utility.yul\":3412:3444   */\n      slt\n        /* \"#utility.yul\":3409:3528   */\n      iszero\n      tag_325\n      jumpi\n        /* \"#utility.yul\":3447:3526   */\n      tag_326\n      tag_234\n      jump\t// in\n    tag_326:\n        /* \"#utility.yul\":3409:3528   */\n    tag_325:\n        /* \"#utility.yul\":3567:3568   */\n      0x00\n        /* \"#utility.yul\":3592:3656   */\n      tag_327\n        /* \"#utility.yul\":3648:3655   */\n      dup5\n        /* \"#utility.yul\":3639:3645   */\n      dup3\n        /* \"#utility.yul\":3628:3637   */\n      dup6\n        /* \"#utility.yul\":3624:3646   */\n      add\n        /* \"#utility.yul\":3592:3656   */\n      tag_244\n      jump\t// in\n    tag_327:\n        /* \"#utility.yul\":3582:3656   */\n      swap2\n      pop\n        /* \"#utility.yul\":3538:3666   */\n      pop\n        /* \"#utility.yul\":3322:3673   */\n      swap3\n      swap2\n      pop\n      pop\n      jump\t// out\n        /* \"#utility.yul\":3679:3848   */\n    tag_245:\n        /* \"#utility.yul\":3763:3774   */\n      0x00\n        /* \"#utility.yul\":3797:3803   */\n      dup3\n        /* \"#utility.yul\":3792:3795   */\n      dup3\n        /* \"#utility.yul\":3785:3804   */\n      mstore\n        /* \"#utility.yul\":3837:3841   */\n      0x20\n        /* \"#utility.yul\":3832:3835   */\n      dup3\n        /* \"#utility.yul\":3828:3842   */\n      add\n        /* \"#utility.yul\":3813:3842   */\n      swap1\n      pop\n        /* \"#utility.yul\":3679:3848   */\n      swap3\n      swap2\n      pop\n      pop\n      jump\t// out\n        /* \"#utility.yul\":3854:4090   */\n    tag_246:\n        /* \"#utility.yul\":3994:4028   */\n      0x56656e646f7220636f6e747261637420686173206e6f7420656e6f7567682074\n        /* \"#utility.yul\":3990:3991   */\n      0x00\n        /* \"#utility.yul\":3982:3988   */\n      dup3\n        /* \"#utility.yul\":3978:3992   */\n      add\n        /* \"#utility.yul\":3971:4029   */\n      mstore\n        /* \"#utility.yul\":4063:4082   */\n      0x6f6b656e7320746f207769746864726177000000000000000000000000000000\n        /* \"#utility.yul\":4058:4060   */\n      0x20\n        /* \"#utility.yul\":4050:4056   */\n      dup3\n        /* \"#utility.yul\":4046:4061   */\n      add\n        /* \"#utility.yul\":4039:4083   */\n      mstore\n        /* \"#utility.yul\":3854:4090   */\n      pop\n      jump\t// out\n        /* \"#utility.yul\":4096:4462   */\n    tag_247:\n        /* \"#utility.yul\":4238:4241   */\n      0x00\n        /* \"#utility.yul\":4259:4326   */\n      tag_331\n        /* \"#utility.yul\":4323:4325   */\n      0x31\n        /* \"#utility.yul\":4318:4321   */\n      dup4\n        /* \"#utility.yul\":4259:4326   */\n      tag_245\n      jump\t// in\n    tag_331:\n        /* \"#utility.yul\":4252:4326   */\n      swap2\n      pop\n        /* \"#utility.yul\":4335:4428   */\n      tag_332\n        /* \"#utility.yul\":4424:4427   */\n      dup3\n        /* \"#utility.yul\":4335:4428   */\n      tag_246\n      jump\t// in\n    tag_332:\n        /* \"#utility.yul\":4453:4455   */\n      0x40\n        /* \"#utility.yul\":4448:4451   */\n      dup3\n        /* \"#utility.yul\":4444:4456   */\n      add\n        /* \"#utility.yul\":4437:4456   */\n      swap1\n      pop\n        /* \"#utility.yul\":4096:4462   */\n      swap2\n      swap1\n      pop\n      jump\t// out\n        /* \"#utility.yul\":4468:4887   */\n    tag_107:\n        /* \"#utility.yul\":4634:4638   */\n      0x00\n        /* \"#utility.yul\":4672:4674   */\n      0x20\n        /* \"#utility.yul\":4661:4670   */\n      dup3\n        /* \"#utility.yul\":4657:4675   */\n      add\n        /* \"#utility.yul\":4649:4675   */\n      swap1\n      pop\n        /* \"#utility.yul\":4721:4730   */\n      dup2\n        /* \"#utility.yul\":4715:4719   */\n      dup2\n        /* \"#utility.yul\":4711:4731   */\n      sub\n        /* \"#utility.yul\":4707:4708   */\n      0x00\n        /* \"#utility.yul\":4696:4705   */\n      dup4\n        /* \"#utility.yul\":4692:4709   */\n      add\n        /* \"#utility.yul\":4685:4732   */\n      mstore\n        /* \"#utility.yul\":4749:4880   */\n      tag_334\n        /* \"#utility.yul\":4875:4879   */\n      dup2\n        /* \"#utility.yul\":4749:4880   */\n      tag_247\n      jump\t// in\n    tag_334:\n        /* \"#utility.yul\":4741:4880   */\n      swap1\n      pop\n        /* \"#utility.yul\":4468:4887   */\n      swap2\n      swap1\n      pop\n      jump\t// out\n        /* \"#utility.yul\":4893:5225   */\n    tag_110:\n        /* \"#utility.yul\":5014:5018   */\n      0x00\n        /* \"#utility.yul\":5052:5054   */\n      0x40\n        /* \"#utility.yul\":5041:5050   */\n      dup3\n        /* \"#utility.yul\":5037:5055   */\n      add\n        /* \"#utility.yul\":5029:5055   */\n      swap1\n      pop\n        /* \"#utility.yul\":5065:5136   */\n      tag_336\n        /* \"#utility.yul\":5133:5134   */\n      0x00\n        /* \"#utility.yul\":5122:5131   */\n      dup4\n        /* \"#utility.yul\":5118:5135   */\n      add\n        /* \"#utility.yul\":5109:5115   */\n      dup6\n        /* \"#utility.yul\":5065:5136   */\n      tag_240\n      jump\t// in\n    tag_336:\n        /* \"#utility.yul\":5146:5218   */\n      tag_337\n        /* \"#utility.yul\":5214:5216   */\n      0x20\n        /* \"#utility.yul\":5203:5212   */\n      dup4\n        /* \"#utility.yul\":5199:5217   */\n      add\n        /* \"#utility.yul\":5190:5196   */\n      dup5\n        /* \"#utility.yul\":5146:5218   */\n      tag_232\n      jump\t// in\n    tag_337:\n        /* \"#utility.yul\":4893:5225   */\n      swap4\n      swap3\n      pop\n      pop\n      pop\n      jump\t// out\n        /* \"#utility.yul\":5231:5321   */\n    tag_248:\n        /* \"#utility.yul\":5265:5272   */\n      0x00\n        /* \"#utility.yul\":5308:5313   */\n      dup2\n        /* \"#utility.yul\":5301:5314   */\n      iszero\n        /* \"#utility.yul\":5294:5315   */\n      iszero\n        /* \"#utility.yul\":5283:5315   */\n      swap1\n      pop\n        /* \"#utility.yul\":5231:5321   */\n      swap2\n      swap1\n      pop\n      jump\t// out\n        /* \"#utility.yul\":5327:5443   */\n    tag_249:\n        /* \"#utility.yul\":5397:5418   */\n      tag_340\n        /* \"#utility.yul\":5412:5417   */\n      dup2\n        /* \"#utility.yul\":5397:5418   */\n      tag_248\n      jump\t// in\n    tag_340:\n        /* \"#utility.yul\":5390:5395   */\n      dup2\n        /* \"#utility.yul\":5387:5419   */\n      eq\n        /* \"#utility.yul\":5377:5437   */\n      tag_341\n      jumpi\n        /* \"#utility.yul\":5433:5434   */\n      0x00\n        /* \"#utility.yul\":5430:5431   */\n      dup1\n        /* \"#utility.yul\":5423:5435   */\n      revert\n        /* \"#utility.yul\":5377:5437   */\n    tag_341:\n        /* \"#utility.yul\":5327:5443   */\n      pop\n      jump\t// out\n        /* \"#utility.yul\":5449:5586   */\n    tag_250:\n        /* \"#utility.yul\":5503:5508   */\n      0x00\n        /* \"#utility.yul\":5534:5540   */\n      dup2\n        /* \"#utility.yul\":5528:5541   */\n      mload\n        /* \"#utility.yul\":5519:5541   */\n      swap1\n      pop\n        /* \"#utility.yul\":5550:5580   */\n      tag_343\n        /* \"#utility.yul\":5574:5579   */\n      dup2\n        /* \"#utility.yul\":5550:5580   */\n      tag_249\n      jump\t// in\n    tag_343:\n        /* \"#utility.yul\":5449:5586   */\n      swap3\n      swap2\n      pop\n      pop\n      jump\t// out\n        /* \"#utility.yul\":5592:5937   */\n    tag_114:\n        /* \"#utility.yul\":5659:5665   */\n      0x00\n        /* \"#utility.yul\":5708:5710   */\n      0x20\n        /* \"#utility.yul\":5696:5705   */\n      dup3\n        /* \"#utility.yul\":5687:5694   */\n      dup5\n        /* \"#utility.yul\":5683:5706   */\n      sub\n        /* \"#utility.yul\":5679:5711   */\n      slt\n        /* \"#utility.yul\":5676:5795   */\n      iszero\n      tag_345\n      jumpi\n        /* \"#utility.yul\":5714:5793   */\n      tag_346\n      tag_234\n      jump\t// in\n    tag_346:\n        /* \"#utility.yul\":5676:5795   */\n    tag_345:\n        /* \"#utility.yul\":5834:5835   */\n      0x00\n        /* \"#utility.yul\":5859:5920   */\n      tag_347\n        /* \"#utility.yul\":5912:5919   */\n      dup5\n        /* \"#utility.yul\":5903:5909   */\n      dup3\n        /* \"#utility.yul\":5892:5901   */\n      dup6\n        /* \"#utility.yul\":5888:5910   */\n      add\n        /* \"#utility.yul\":5859:5920   */\n      tag_250\n      jump\t// in\n    tag_347:\n        /* \"#utility.yul\":5849:5920   */\n      swap2\n      pop\n        /* \"#utility.yul\":5805:5930   */\n      pop\n        /* \"#utility.yul\":5592:5937   */\n      swap3\n      swap2\n      pop\n      pop\n      jump\t// out\n        /* \"#utility.yul\":5943:6168   */\n    tag_251:\n        /* \"#utility.yul\":6083:6117   */\n      0x4661696c656420746f207472616e7366657220746f6b656e7320746f20746865\n        /* \"#utility.yul\":6079:6080   */\n      0x00\n        /* \"#utility.yul\":6071:6077   */\n      dup3\n        /* \"#utility.yul\":6067:6081   */\n      add\n        /* \"#utility.yul\":6060:6118   */\n      mstore\n        /* \"#utility.yul\":6152:6160   */\n      0x206f776e65720000000000000000000000000000000000000000000000000000\n        /* \"#utility.yul\":6147:6149   */\n      0x20\n        /* \"#utility.yul\":6139:6145   */\n      dup3\n        /* \"#utility.yul\":6135:6150   */\n      add\n        /* \"#utility.yul\":6128:6161   */\n      mstore\n        /* \"#utility.yul\":5943:6168   */\n      pop\n      jump\t// out\n        /* \"#utility.yul\":6174:6540   */\n    tag_252:\n        /* \"#utility.yul\":6316:6319   */\n      0x00\n        /* \"#utility.yul\":6337:6404   */\n      tag_350\n        /* \"#utility.yul\":6401:6403   */\n      0x26\n        /* \"#utility.yul\":6396:6399   */\n      dup4\n        /* \"#utility.yul\":6337:6404   */\n      tag_245\n      jump\t// in\n    tag_350:\n        /* \"#utility.yul\":6330:6404   */\n      swap2\n      pop\n        /* \"#utility.yul\":6413:6506   */\n      tag_351\n        /* \"#utility.yul\":6502:6505   */\n      dup3\n        /* \"#utility.yul\":6413:6506   */\n      tag_251\n      jump\t// in\n    tag_351:\n        /* \"#utility.yul\":6531:6533   */\n      0x40\n        /* \"#utility.yul\":6526:6529   */\n      dup3\n        /* \"#utility.yul\":6522:6534   */\n      add\n        /* \"#utility.yul\":6515:6534   */\n      swap1\n      pop\n        /* \"#utility.yul\":6174:6540   */\n      swap2\n      swap1\n      pop\n      jump\t// out\n        /* \"#utility.yul\":6546:6965   */\n    tag_117:\n        /* \"#utility.yul\":6712:6716   */\n      0x00\n        /* \"#utility.yul\":6750:6752   */\n      0x20\n        /* \"#utility.yul\":6739:6748   */\n      dup3\n        /* \"#utility.yul\":6735:6753   */\n      add\n        /* \"#utility.yul\":6727:6753   */\n      swap1\n      pop\n        /* \"#utility.yul\":6799:6808   */\n      dup2\n        /* \"#utility.yul\":6793:6797   */\n      dup2\n        /* \"#utility.yul\":6789:6809   */\n      sub\n        /* \"#utility.yul\":6785:6786   */\n      0x00\n        /* \"#utility.yul\":6774:6783   */\n      dup4\n        /* \"#utility.yul\":6770:6787   */\n      add\n        /* \"#utility.yul\":6763:6810   */\n      mstore\n        /* \"#utility.yul\":6827:6958   */\n      tag_353\n        /* \"#utility.yul\":6953:6957   */\n      dup2\n        /* \"#utility.yul\":6827:6958   */\n      tag_252\n      jump\t// in\n    tag_353:\n        /* \"#utility.yul\":6819:6958   */\n      swap1\n      pop\n        /* \"#utility.yul\":6546:6965   */\n      swap2\n      swap1\n      pop\n      jump\t// out\n        /* \"#utility.yul\":6971:7191   */\n    tag_253:\n        /* \"#utility.yul\":7111:7145   */\n      0x4f776e657220686173206e6f742062616c616e636520746f2077697468647261\n        /* \"#utility.yul\":7107:7108   */\n      0x00\n        /* \"#utility.yul\":7099:7105   */\n      dup3\n        /* \"#utility.yul\":7095:7109   */\n      add\n        /* \"#utility.yul\":7088:7146   */\n      mstore\n        /* \"#utility.yul\":7180:7183   */\n      0x7700000000000000000000000000000000000000000000000000000000000000\n        /* \"#utility.yul\":7175:7177   */\n      0x20\n        /* \"#utility.yul\":7167:7173   */\n      dup3\n        /* \"#utility.yul\":7163:7178   */\n      add\n        /* \"#utility.yul\":7156:7184   */\n      mstore\n        /* \"#utility.yul\":6971:7191   */\n      pop\n      jump\t// out\n        /* \"#utility.yul\":7197:7563   */\n    tag_254:\n        /* \"#utility.yul\":7339:7342   */\n      0x00\n        /* \"#utility.yul\":7360:7427   */\n      tag_356\n        /* \"#utility.yul\":7424:7426   */\n      0x21\n        /* \"#utility.yul\":7419:7422   */\n      dup4\n        /* \"#utility.yul\":7360:7427   */\n      tag_245\n      jump\t// in\n    tag_356:\n        /* \"#utility.yul\":7353:7427   */\n      swap2\n      pop\n        /* \"#utility.yul\":7436:7529   */\n      tag_357\n        /* \"#utility.yul\":7525:7528   */\n      dup3\n        /* \"#utility.yul\":7436:7529   */\n      tag_253\n      jump\t// in\n    tag_357:\n        /* \"#utility.yul\":7554:7556   */\n      0x40\n        /* \"#utility.yul\":7549:7552   */\n      dup3\n        /* \"#utility.yul\":7545:7557   */\n      add\n        /* \"#utility.yul\":7538:7557   */\n      swap1\n      pop\n        /* \"#utility.yul\":7197:7563   */\n      swap2\n      swap1\n      pop\n      jump\t// out\n        /* \"#utility.yul\":7569:7988   */\n    tag_123:\n        /* \"#utility.yul\":7735:7739   */\n      0x00\n        /* \"#utility.yul\":7773:7775   */\n      0x20\n        /* \"#utility.yul\":7762:7771   */\n      dup3\n        /* \"#utility.yul\":7758:7776   */\n      add\n        /* \"#utility.yul\":7750:7776   */\n      swap1\n      pop\n        /* \"#utility.yul\":7822:7831   */\n      dup2\n        /* \"#utility.yul\":7816:7820   */\n      dup2\n        /* \"#utility.yul\":7812:7832   */\n      sub\n        /* \"#utility.yul\":7808:7809   */\n      0x00\n        /* \"#utility.yul\":7797:7806   */\n      dup4\n        /* \"#utility.yul\":7793:7810   */\n      add\n        /* \"#utility.yul\":7786:7833   */\n      mstore\n        /* \"#utility.yul\":7850:7981   */\n      tag_359\n        /* \"#utility.yul\":7976:7980   */\n      dup2\n        /* \"#utility.yul\":7850:7981   */\n      tag_254\n      jump\t// in\n    tag_359:\n        /* \"#utility.yul\":7842:7981   */\n      swap1\n      pop\n        /* \"#utility.yul\":7569:7988   */\n      swap2\n      swap1\n      pop\n      jump\t// out\n        /* \"#utility.yul\":7994:8141   */\n    tag_255:\n        /* \"#utility.yul\":8095:8106   */\n      0x00\n        /* \"#utility.yul\":8132:8135   */\n      dup2\n        /* \"#utility.yul\":8117:8135   */\n      swap1\n      pop\n        /* \"#utility.yul\":7994:8141   */\n      swap3\n      swap2\n      pop\n      pop\n      jump\t// out\n        /* \"#utility.yul\":8147:8261   */\n    tag_256:\n      pop\n      jump\t// out\n        /* \"#utility.yul\":8267:8665   */\n    tag_257:\n        /* \"#utility.yul\":8426:8429   */\n      0x00\n        /* \"#utility.yul\":8447:8530   */\n      tag_363\n        /* \"#utility.yul\":8528:8529   */\n      0x00\n        /* \"#utility.yul\":8523:8526   */\n      dup4\n        /* \"#utility.yul\":8447:8530   */\n      tag_255\n      jump\t// in\n    tag_363:\n        /* \"#utility.yul\":8440:8530   */\n      swap2\n      pop\n        /* \"#utility.yul\":8539:8632   */\n      tag_364\n        /* \"#utility.yul\":8628:8631   */\n      dup3\n        /* \"#utility.yul\":8539:8632   */\n      tag_256\n      jump\t// in\n    tag_364:\n        /* \"#utility.yul\":8657:8658   */\n      0x00\n        /* \"#utility.yul\":8652:8655   */\n      dup3\n        /* \"#utility.yul\":8648:8659   */\n      add\n        /* \"#utility.yul\":8641:8659   */\n      swap1\n      pop\n        /* \"#utility.yul\":8267:8665   */\n      swap2\n      swap1\n      pop\n      jump\t// out\n        /* \"#utility.yul\":8671:9050   */\n    tag_125:\n        /* \"#utility.yul\":8855:8858   */\n      0x00\n        /* \"#utility.yul\":8877:9024   */\n      tag_366\n        /* \"#utility.yul\":9020:9023   */\n      dup3\n        /* \"#utility.yul\":8877:9024   */\n      tag_257\n      jump\t// in\n    tag_366:\n        /* \"#utility.yul\":8870:9024   */\n      swap2\n      pop\n        /* \"#utility.yul\":9041:9044   */\n      dup2\n        /* \"#utility.yul\":9034:9044   */\n      swap1\n      pop\n        /* \"#utility.yul\":8671:9050   */\n      swap2\n      swap1\n      pop\n      jump\t// out\n        /* \"#utility.yul\":9056:9288   */\n    tag_258:\n        /* \"#utility.yul\":9196:9230   */\n      0x4661696c656420746f2073656e6420757365722062616c616e6365206261636b\n        /* \"#utility.yul\":9192:9193   */\n      0x00\n        /* \"#utility.yul\":9184:9190   */\n      dup3\n        /* \"#utility.yul\":9180:9194   */\n      add\n        /* \"#utility.yul\":9173:9231   */\n      mstore\n        /* \"#utility.yul\":9265:9280   */\n      0x20746f20746865206f776e657200000000000000000000000000000000000000\n        /* \"#utility.yul\":9260:9262   */\n      0x20\n        /* \"#utility.yul\":9252:9258   */\n      dup3\n        /* \"#utility.yul\":9248:9263   */\n      add\n        /* \"#utility.yul\":9241:9281   */\n      mstore\n        /* \"#utility.yul\":9056:9288   */\n      pop\n      jump\t// out\n        /* \"#utility.yul\":9294:9660   */\n    tag_259:\n        /* \"#utility.yul\":9436:9439   */\n      0x00\n        /* \"#utility.yul\":9457:9524   */\n      tag_369\n        /* \"#utility.yul\":9521:9523   */\n      0x2d\n        /* \"#utility.yul\":9516:9519   */\n      dup4\n        /* \"#utility.yul\":9457:9524   */\n      tag_245\n      jump\t// in\n    tag_369:\n        /* \"#utility.yul\":9450:9524   */\n      swap2\n      pop\n        /* \"#utility.yul\":9533:9626   */\n      tag_370\n        /* \"#utility.yul\":9622:9625   */\n      dup3\n        /* \"#utility.yul\":9533:9626   */\n      tag_258\n      jump\t// in\n    tag_370:\n        /* \"#utility.yul\":9651:9653   */\n      0x40\n        /* \"#utility.yul\":9646:9649   */\n      dup3\n        /* \"#utility.yul\":9642:9654   */\n      add\n        /* \"#utility.yul\":9635:9654   */\n      swap1\n      pop\n        /* \"#utility.yul\":9294:9660   */\n      swap2\n      swap1\n      pop\n      jump\t// out\n        /* \"#utility.yul\":9666:10085   */\n    tag_131:\n        /* \"#utility.yul\":9832:9836   */\n      0x00\n        /* \"#utility.yul\":9870:9872   */\n      0x20\n        /* \"#utility.yul\":9859:9868   */\n      dup3\n        /* \"#utility.yul\":9855:9873   */\n      add\n        /* \"#utility.yul\":9847:9873   */\n      swap1\n      pop\n        /* \"#utility.yul\":9919:9928   */\n      dup2\n        /* \"#utility.yul\":9913:9917   */\n      dup2\n        /* \"#utility.yul\":9909:9929   */\n      sub\n        /* \"#utility.yul\":9905:9906   */\n      0x00\n        /* \"#utility.yul\":9894:9903   */\n      dup4\n        /* \"#utility.yul\":9890:9907   */\n      add\n        /* \"#utility.yul\":9883:9930   */\n      mstore\n        /* \"#utility.yul\":9947:10078   */\n      tag_372\n        /* \"#utility.yul\":10073:10077   */\n      dup2\n        /* \"#utility.yul\":9947:10078   */\n      tag_259\n      jump\t// in\n    tag_372:\n        /* \"#utility.yul\":9939:10078   */\n      swap1\n      pop\n        /* \"#utility.yul\":9666:10085   */\n      swap2\n      swap1\n      pop\n      jump\t// out\n        /* \"#utility.yul\":10091:10273   */\n    tag_260:\n        /* \"#utility.yul\":10231:10265   */\n      0x5370656369667920616d6f756e74206f6620746f6b656e7320746f2073656c6c\n        /* \"#utility.yul\":10227:10228   */\n      0x00\n        /* \"#utility.yul\":10219:10225   */\n      dup3\n        /* \"#utility.yul\":10215:10229   */\n      add\n        /* \"#utility.yul\":10208:10266   */\n      mstore\n        /* \"#utility.yul\":10091:10273   */\n      pop\n      jump\t// out\n        /* \"#utility.yul\":10279:10645   */\n    tag_261:\n        /* \"#utility.yul\":10421:10424   */\n      0x00\n        /* \"#utility.yul\":10442:10509   */\n      tag_375\n        /* \"#utility.yul\":10506:10508   */\n      0x20\n        /* \"#utility.yul\":10501:10504   */\n      dup4\n        /* \"#utility.yul\":10442:10509   */\n      tag_245\n      jump\t// in\n    tag_375:\n        /* \"#utility.yul\":10435:10509   */\n      swap2\n      pop\n        /* \"#utility.yul\":10518:10611   */\n      tag_376\n        /* \"#utility.yul\":10607:10610   */\n      dup3\n        /* \"#utility.yul\":10518:10611   */\n      tag_260\n      jump\t// in\n    tag_376:\n        /* \"#utility.yul\":10636:10638   */\n      0x20\n        /* \"#utility.yul\":10631:10634   */\n      dup3\n        /* \"#utility.yul\":10627:10639   */\n      add\n        /* \"#utility.yul\":10620:10639   */\n      swap1\n      pop\n        /* \"#utility.yul\":10279:10645   */\n      swap2\n      swap1\n      pop\n      jump\t// out\n        /* \"#utility.yul\":10651:11070   */\n    tag_139:\n        /* \"#utility.yul\":10817:10821   */\n      0x00\n        /* \"#utility.yul\":10855:10857   */\n      0x20\n        /* \"#utility.yul\":10844:10853   */\n      dup3\n        /* \"#utility.yul\":10840:10858   */\n      add\n        /* \"#utility.yul\":10832:10858   */\n      swap1\n      pop\n        /* \"#utility.yul\":10904:10913   */\n      dup2\n        /* \"#utility.yul\":10898:10902   */\n      dup2\n        /* \"#utility.yul\":10894:10914   */\n      sub\n        /* \"#utility.yul\":10890:10891   */\n      0x00\n        /* \"#utility.yul\":10879:10888   */\n      dup4\n        /* \"#utility.yul\":10875:10892   */\n      add\n        /* \"#utility.yul\":10868:10915   */\n      mstore\n        /* \"#utility.yul\":10932:11063   */\n      tag_378\n        /* \"#utility.yul\":11058:11062   */\n      dup2\n        /* \"#utility.yul\":10932:11063   */\n      tag_261\n      jump\t// in\n    tag_378:\n        /* \"#utility.yul\":10924:11063   */\n      swap1\n      pop\n        /* \"#utility.yul\":10651:11070   */\n      swap2\n      swap1\n      pop\n      jump\t// out\n        /* \"#utility.yul\":11076:11252   */\n    tag_262:\n        /* \"#utility.yul\":11216:11244   */\n      0x496e73756666696369656e7420746f6b656e2062616c616e6365000000000000\n        /* \"#utility.yul\":11212:11213   */\n      0x00\n        /* \"#utility.yul\":11204:11210   */\n      dup3\n        /* \"#utility.yul\":11200:11214   */\n      add\n        /* \"#utility.yul\":11193:11245   */\n      mstore\n        /* \"#utility.yul\":11076:11252   */\n      pop\n      jump\t// out\n        /* \"#utility.yul\":11258:11624   */\n    tag_263:\n        /* \"#utility.yul\":11400:11403   */\n      0x00\n        /* \"#utility.yul\":11421:11488   */\n      tag_381\n        /* \"#utility.yul\":11485:11487   */\n      0x1a\n        /* \"#utility.yul\":11480:11483   */\n      dup4\n        /* \"#utility.yul\":11421:11488   */\n      tag_245\n      jump\t// in\n    tag_381:\n        /* \"#utility.yul\":11414:11488   */\n      swap2\n      pop\n        /* \"#utility.yul\":11497:11590   */\n      tag_382\n        /* \"#utility.yul\":11586:11589   */\n      dup3\n        /* \"#utility.yul\":11497:11590   */\n      tag_262\n      jump\t// in\n    tag_382:\n        /* \"#utility.yul\":11615:11617   */\n      0x20\n        /* \"#utility.yul\":11610:11613   */\n      dup3\n        /* \"#utility.yul\":11606:11618   */\n      add\n        /* \"#utility.yul\":11599:11618   */\n      swap1\n      pop\n        /* \"#utility.yul\":11258:11624   */\n      swap2\n      swap1\n      pop\n      jump\t// out\n        /* \"#utility.yul\":11630:12049   */\n    tag_146:\n        /* \"#utility.yul\":11796:11800   */\n      0x00\n        /* \"#utility.yul\":11834:11836   */\n      0x20\n        /* \"#utility.yul\":11823:11832   */\n      dup3\n        /* \"#utility.yul\":11819:11837   */\n      add\n        /* \"#utility.yul\":11811:11837   */\n      swap1\n      pop\n        /* \"#utility.yul\":11883:11892   */\n      dup2\n        /* \"#utility.yul\":11877:11881   */\n      dup2\n        /* \"#utility.yul\":11873:11893   */\n      sub\n        /* \"#utility.yul\":11869:11870   */\n      0x00\n        /* \"#utility.yul\":11858:11867   */\n      dup4\n        /* \"#utility.yul\":11854:11871   */\n      add\n        /* \"#utility.yul\":11847:11894   */\n      mstore\n        /* \"#utility.yul\":11911:12042   */\n      tag_384\n        /* \"#utility.yul\":12037:12041   */\n      dup2\n        /* \"#utility.yul\":11911:12042   */\n      tag_263\n      jump\t// in\n    tag_384:\n        /* \"#utility.yul\":11903:12042   */\n      swap1\n      pop\n        /* \"#utility.yul\":11630:12049   */\n      swap2\n      swap1\n      pop\n      jump\t// out\n        /* \"#utility.yul\":12055:12249   */\n    tag_149:\n        /* \"#utility.yul\":12095:12099   */\n      0x00\n        /* \"#utility.yul\":12115:12135   */\n      tag_386\n        /* \"#utility.yul\":12133:12134   */\n      dup3\n        /* \"#utility.yul\":12115:12135   */\n      tag_231\n      jump\t// in\n    tag_386:\n        /* \"#utility.yul\":12110:12135   */\n      swap2\n      pop\n        /* \"#utility.yul\":12149:12169   */\n      tag_387\n        /* \"#utility.yul\":12167:12168   */\n      dup4\n        /* \"#utility.yul\":12149:12169   */\n      tag_231\n      jump\t// in\n    tag_387:\n        /* \"#utility.yul\":12144:12169   */\n      swap3\n      pop\n        /* \"#utility.yul\":12193:12194   */\n      dup3\n        /* \"#utility.yul\":12190:12191   */\n      dup3\n        /* \"#utility.yul\":12186:12195   */\n      sub\n        /* \"#utility.yul\":12178:12195   */\n      swap1\n      pop\n        /* \"#utility.yul\":12217:12218   */\n      dup2\n        /* \"#utility.yul\":12211:12215   */\n      dup2\n        /* \"#utility.yul\":12208:12219   */\n      gt\n        /* \"#utility.yul\":12205:12242   */\n      iszero\n      tag_388\n      jumpi\n        /* \"#utility.yul\":12222:12240   */\n      tag_389\n      tag_243\n      jump\t// in\n    tag_389:\n        /* \"#utility.yul\":12205:12242   */\n    tag_388:\n        /* \"#utility.yul\":12055:12249   */\n      swap3\n      swap2\n      pop\n      pop\n      jump\t// out\n        /* \"#utility.yul\":12255:12435   */\n    tag_264:\n        /* \"#utility.yul\":12303:12380   */\n      0x4e487b7100000000000000000000000000000000000000000000000000000000\n        /* \"#utility.yul\":12300:12301   */\n      0x00\n        /* \"#utility.yul\":12293:12381   */\n      mstore\n        /* \"#utility.yul\":12400:12404   */\n      0x12\n        /* \"#utility.yul\":12397:12398   */\n      0x04\n        /* \"#utility.yul\":12390:12405   */\n      mstore\n        /* \"#utility.yul\":12424:12428   */\n      0x24\n        /* \"#utility.yul\":12421:12422   */\n      0x00\n        /* \"#utility.yul\":12414:12429   */\n      revert\n        /* \"#utility.yul\":12441:12626   */\n    tag_152:\n        /* \"#utility.yul\":12481:12482   */\n      0x00\n        /* \"#utility.yul\":12498:12518   */\n      tag_392\n        /* \"#utility.yul\":12516:12517   */\n      dup3\n        /* \"#utility.yul\":12498:12518   */\n      tag_231\n      jump\t// in\n    tag_392:\n        /* \"#utility.yul\":12493:12518   */\n      swap2\n      pop\n        /* \"#utility.yul\":12532:12552   */\n      tag_393\n        /* \"#utility.yul\":12550:12551   */\n      dup4\n        /* \"#utility.yul\":12532:12552   */\n      tag_231\n      jump\t// in\n    tag_393:\n        /* \"#utility.yul\":12527:12552   */\n      swap3\n      pop\n        /* \"#utility.yul\":12571:12572   */\n      dup3\n        /* \"#utility.yul\":12561:12596   */\n      tag_394\n      jumpi\n        /* \"#utility.yul\":12576:12594   */\n      tag_395\n      tag_264\n      jump\t// in\n    tag_395:\n        /* \"#utility.yul\":12561:12596   */\n    tag_394:\n        /* \"#utility.yul\":12618:12619   */\n      dup3\n        /* \"#utility.yul\":12615:12616   */\n      dup3\n        /* \"#utility.yul\":12611:12620   */\n      div\n        /* \"#utility.yul\":12606:12620   */\n      swap1\n      pop\n        /* \"#utility.yul\":12441:12626   */\n      swap3\n      swap2\n      pop\n      pop\n      jump\t// out\n        /* \"#utility.yul\":12632:12856   */\n    tag_265:\n        /* \"#utility.yul\":12772:12806   */\n      0x496e73756666696369656e7420436f696e2062616c616e636520696e20636f6e\n        /* \"#utility.yul\":12768:12769   */\n      0x00\n        /* \"#utility.yul\":12760:12766   */\n      dup3\n        /* \"#utility.yul\":12756:12770   */\n      add\n        /* \"#utility.yul\":12749:12807   */\n      mstore\n        /* \"#utility.yul\":12841:12848   */\n      0x7472616374000000000000000000000000000000000000000000000000000000\n        /* \"#utility.yul\":12836:12838   */\n      0x20\n        /* \"#utility.yul\":12828:12834   */\n      dup3\n        /* \"#utility.yul\":12824:12839   */\n      add\n        /* \"#utility.yul\":12817:12849   */\n      mstore\n        /* \"#utility.yul\":12632:12856   */\n      pop\n      jump\t// out\n        /* \"#utility.yul\":12862:13228   */\n    tag_266:\n        /* \"#utility.yul\":13004:13007   */\n      0x00\n        /* \"#utility.yul\":13025:13092   */\n      tag_398\n        /* \"#utility.yul\":13089:13091   */\n      0x25\n        /* \"#utility.yul\":13084:13087   */\n      dup4\n        /* \"#utility.yul\":13025:13092   */\n      tag_245\n      jump\t// in\n    tag_398:\n        /* \"#utility.yul\":13018:13092   */\n      swap2\n      pop\n        /* \"#utility.yul\":13101:13194   */\n      tag_399\n        /* \"#utility.yul\":13190:13193   */\n      dup3\n        /* \"#utility.yul\":13101:13194   */\n      tag_265\n      jump\t// in\n    tag_399:\n        /* \"#utility.yul\":13219:13221   */\n      0x40\n        /* \"#utility.yul\":13214:13217   */\n      dup3\n        /* \"#utility.yul\":13210:13222   */\n      add\n        /* \"#utility.yul\":13203:13222   */\n      swap1\n      pop\n        /* \"#utility.yul\":12862:13228   */\n      swap2\n      swap1\n      pop\n      jump\t// out\n        /* \"#utility.yul\":13234:13653   */\n    tag_155:\n        /* \"#utility.yul\":13400:13404   */\n      0x00\n        /* \"#utility.yul\":13438:13440   */\n      0x20\n        /* \"#utility.yul\":13427:13436   */\n      dup3\n        /* \"#utility.yul\":13423:13441   */\n      add\n        /* \"#utility.yul\":13415:13441   */\n      swap1\n      pop\n        /* \"#utility.yul\":13487:13496   */\n      dup2\n        /* \"#utility.yul\":13481:13485   */\n      dup2\n        /* \"#utility.yul\":13477:13497   */\n      sub\n        /* \"#utility.yul\":13473:13474   */\n      0x00\n        /* \"#utility.yul\":13462:13471   */\n      dup4\n        /* \"#utility.yul\":13458:13475   */\n      add\n        /* \"#utility.yul\":13451:13498   */\n      mstore\n        /* \"#utility.yul\":13515:13646   */\n      tag_401\n        /* \"#utility.yul\":13641:13645   */\n      dup2\n        /* \"#utility.yul\":13515:13646   */\n      tag_266\n      jump\t// in\n    tag_401:\n        /* \"#utility.yul\":13507:13646   */\n      swap1\n      pop\n        /* \"#utility.yul\":13234:13653   */\n      swap2\n      swap1\n      pop\n      jump\t// out\n        /* \"#utility.yul\":13659:14101   */\n    tag_157:\n        /* \"#utility.yul\":13808:13812   */\n      0x00\n        /* \"#utility.yul\":13846:13848   */\n      0x60\n        /* \"#utility.yul\":13835:13844   */\n      dup3\n        /* \"#utility.yul\":13831:13849   */\n      add\n        /* \"#utility.yul\":13823:13849   */\n      swap1\n      pop\n        /* \"#utility.yul\":13859:13930   */\n      tag_403\n        /* \"#utility.yul\":13927:13928   */\n      0x00\n        /* \"#utility.yul\":13916:13925   */\n      dup4\n        /* \"#utility.yul\":13912:13929   */\n      add\n        /* \"#utility.yul\":13903:13909   */\n      dup7\n        /* \"#utility.yul\":13859:13930   */\n      tag_240\n      jump\t// in\n    tag_403:\n        /* \"#utility.yul\":13940:14012   */\n      tag_404\n        /* \"#utility.yul\":14008:14010   */\n      0x20\n        /* \"#utility.yul\":13997:14006   */\n      dup4\n        /* \"#utility.yul\":13993:14011   */\n      add\n        /* \"#utility.yul\":13984:13990   */\n      dup6\n        /* \"#utility.yul\":13940:14012   */\n      tag_240\n      jump\t// in\n    tag_404:\n        /* \"#utility.yul\":14022:14094   */\n      tag_405\n        /* \"#utility.yul\":14090:14092   */\n      0x40\n        /* \"#utility.yul\":14079:14088   */\n      dup4\n        /* \"#utility.yul\":14075:14093   */\n      add\n        /* \"#utility.yul\":14066:14072   */\n      dup5\n        /* \"#utility.yul\":14022:14094   */\n      tag_232\n      jump\t// in\n    tag_405:\n        /* \"#utility.yul\":13659:14101   */\n      swap5\n      swap4\n      pop\n      pop\n      pop\n      pop\n      jump\t// out\n        /* \"#utility.yul\":14107:14330   */\n    tag_267:\n        /* \"#utility.yul\":14247:14281   */\n      0x4661696c656420746f207472616e7366657220746f6b656e20746f20636f6e74\n        /* \"#utility.yul\":14243:14244   */\n      0x00\n        /* \"#utility.yul\":14235:14241   */\n      dup3\n        /* \"#utility.yul\":14231:14245   */\n      add\n        /* \"#utility.yul\":14224:14282   */\n      mstore\n        /* \"#utility.yul\":14316:14322   */\n      0x7261637400000000000000000000000000000000000000000000000000000000\n        /* \"#utility.yul\":14311:14313   */\n      0x20\n        /* \"#utility.yul\":14303:14309   */\n      dup3\n        /* \"#utility.yul\":14299:14314   */\n      add\n        /* \"#utility.yul\":14292:14323   */\n      mstore\n        /* \"#utility.yul\":14107:14330   */\n      pop\n      jump\t// out\n        /* \"#utility.yul\":14336:14702   */\n    tag_268:\n        /* \"#utility.yul\":14478:14481   */\n      0x00\n        /* \"#utility.yul\":14499:14566   */\n      tag_408\n        /* \"#utility.yul\":14563:14565   */\n      0x24\n        /* \"#utility.yul\":14558:14561   */\n      dup4\n        /* \"#utility.yul\":14499:14566   */\n      tag_245\n      jump\t// in\n    tag_408:\n        /* \"#utility.yul\":14492:14566   */\n      swap2\n      pop\n        /* \"#utility.yul\":14575:14668   */\n      tag_409\n        /* \"#utility.yul\":14664:14667   */\n      dup3\n        /* \"#utility.yul\":14575:14668   */\n      tag_267\n      jump\t// in\n    tag_409:\n        /* \"#utility.yul\":14693:14695   */\n      0x40\n        /* \"#utility.yul\":14688:14691   */\n      dup3\n        /* \"#utility.yul\":14684:14696   */\n      add\n        /* \"#utility.yul\":14677:14696   */\n      swap1\n      pop\n        /* \"#utility.yul\":14336:14702   */\n      swap2\n      swap1\n      pop\n      jump\t// out\n        /* \"#utility.yul\":14708:15127   */\n    tag_163:\n        /* \"#utility.yul\":14874:14878   */\n      0x00\n        /* \"#utility.yul\":14912:14914   */\n      0x20\n        /* \"#utility.yul\":14901:14910   */\n      dup3\n        /* \"#utility.yul\":14897:14915   */\n      add\n        /* \"#utility.yul\":14889:14915   */\n      swap1\n      pop\n        /* \"#utility.yul\":14961:14970   */\n      dup2\n        /* \"#utility.yul\":14955:14959   */\n      dup2\n        /* \"#utility.yul\":14951:14971   */\n      sub\n        /* \"#utility.yul\":14947:14948   */\n      0x00\n        /* \"#utility.yul\":14936:14945   */\n      dup4\n        /* \"#utility.yul\":14932:14949   */\n      add\n        /* \"#utility.yul\":14925:14972   */\n      mstore\n        /* \"#utility.yul\":14989:15120   */\n      tag_411\n        /* \"#utility.yul\":15115:15119   */\n      dup2\n        /* \"#utility.yul\":14989:15120   */\n      tag_268\n      jump\t// in\n    tag_411:\n        /* \"#utility.yul\":14981:15120   */\n      swap1\n      pop\n        /* \"#utility.yul\":14708:15127   */\n      swap2\n      swap1\n      pop\n      jump\t// out\n        /* \"#utility.yul\":15133:15310   */\n    tag_269:\n        /* \"#utility.yul\":15273:15302   */\n      0x4661696c656420746f2073656e6420436f696e20746f20757365720000000000\n        /* \"#utility.yul\":15269:15270   */\n      0x00\n        /* \"#utility.yul\":15261:15267   */\n      dup3\n        /* \"#utility.yul\":15257:15271   */\n      add\n        /* \"#utility.yul\":15250:15303   */\n      mstore\n        /* \"#utility.yul\":15133:15310   */\n      pop\n      jump\t// out\n        /* \"#utility.yul\":15316:15682   */\n    tag_270:\n        /* \"#utility.yul\":15458:15461   */\n      0x00\n        /* \"#utility.yul\":15479:15546   */\n      tag_414\n        /* \"#utility.yul\":15543:15545   */\n      0x1b\n        /* \"#utility.yul\":15538:15541   */\n      dup4\n        /* \"#utility.yul\":15479:15546   */\n      tag_245\n      jump\t// in\n    tag_414:\n        /* \"#utility.yul\":15472:15546   */\n      swap2\n      pop\n        /* \"#utility.yul\":15555:15648   */\n      tag_415\n        /* \"#utility.yul\":15644:15647   */\n      dup3\n        /* \"#utility.yul\":15555:15648   */\n      tag_269\n      jump\t// in\n    tag_415:\n        /* \"#utility.yul\":15673:15675   */\n      0x20\n        /* \"#utility.yul\":15668:15671   */\n      dup3\n        /* \"#utility.yul\":15664:15676   */\n      add\n        /* \"#utility.yul\":15657:15676   */\n      swap1\n      pop\n        /* \"#utility.yul\":15316:15682   */\n      swap2\n      swap1\n      pop\n      jump\t// out\n        /* \"#utility.yul\":15688:16107   */\n    tag_170:\n        /* \"#utility.yul\":15854:15858   */\n      0x00\n        /* \"#utility.yul\":15892:15894   */\n      0x20\n        /* \"#utility.yul\":15881:15890   */\n      dup3\n        /* \"#utility.yul\":15877:15895   */\n      add\n        /* \"#utility.yul\":15869:15895   */\n      swap1\n      pop\n        /* \"#utility.yul\":15941:15950   */\n      dup2\n        /* \"#utility.yul\":15935:15939   */\n      dup2\n        /* \"#utility.yul\":15931:15951   */\n      sub\n        /* \"#utility.yul\":15927:15928   */\n      0x00\n        /* \"#utility.yul\":15916:15925   */\n      dup4\n        /* \"#utility.yul\":15912:15929   */\n      add\n        /* \"#utility.yul\":15905:15952   */\n      mstore\n        /* \"#utility.yul\":15969:16100   */\n      tag_417\n        /* \"#utility.yul\":16095:16099   */\n      dup2\n        /* \"#utility.yul\":15969:16100   */\n      tag_270\n      jump\t// in\n    tag_417:\n        /* \"#utility.yul\":15961:16100   */\n      swap1\n      pop\n        /* \"#utility.yul\":15688:16107   */\n      swap2\n      swap1\n      pop\n      jump\t// out\n        /* \"#utility.yul\":16113:16555   */\n    tag_172:\n        /* \"#utility.yul\":16262:16266   */\n      0x00\n        /* \"#utility.yul\":16300:16302   */\n      0x60\n        /* \"#utility.yul\":16289:16298   */\n      dup3\n        /* \"#utility.yul\":16285:16303   */\n      add\n        /* \"#utility.yul\":16277:16303   */\n      swap1\n      pop\n        /* \"#utility.yul\":16313:16384   */\n      tag_419\n        /* \"#utility.yul\":16381:16382   */\n      0x00\n        /* \"#utility.yul\":16370:16379   */\n      dup4\n        /* \"#utility.yul\":16366:16383   */\n      add\n        /* \"#utility.yul\":16357:16363   */\n      dup7\n        /* \"#utility.yul\":16313:16384   */\n      tag_240\n      jump\t// in\n    tag_419:\n        /* \"#utility.yul\":16394:16466   */\n      tag_420\n        /* \"#utility.yul\":16462:16464   */\n      0x20\n        /* \"#utility.yul\":16451:16460   */\n      dup4\n        /* \"#utility.yul\":16447:16465   */\n      add\n        /* \"#utility.yul\":16438:16444   */\n      dup6\n        /* \"#utility.yul\":16394:16466   */\n      tag_232\n      jump\t// in\n    tag_420:\n        /* \"#utility.yul\":16476:16548   */\n      tag_421\n        /* \"#utility.yul\":16544:16546   */\n      0x40\n        /* \"#utility.yul\":16533:16542   */\n      dup4\n        /* \"#utility.yul\":16529:16547   */\n      add\n        /* \"#utility.yul\":16520:16526   */\n      dup5\n        /* \"#utility.yul\":16476:16548   */\n      tag_232\n      jump\t// in\n    tag_421:\n        /* \"#utility.yul\":16113:16555   */\n      swap5\n      swap4\n      pop\n      pop\n      pop\n      pop\n      jump\t// out\n        /* \"#utility.yul\":16561:16739   */\n    tag_271:\n        /* \"#utility.yul\":16701:16731   */\n      0x53656e6420436f696e20746f2062757920736f6d6520746f6b656e7300000000\n        /* \"#utility.yul\":16697:16698   */\n      0x00\n        /* \"#utility.yul\":16689:16695   */\n      dup3\n        /* \"#utility.yul\":16685:16699   */\n      add\n        /* \"#utility.yul\":16678:16732   */\n      mstore\n        /* \"#utility.yul\":16561:16739   */\n      pop\n      jump\t// out\n        /* \"#utility.yul\":16745:17111   */\n    tag_272:\n        /* \"#utility.yul\":16887:16890   */\n      0x00\n        /* \"#utility.yul\":16908:16975   */\n      tag_424\n        /* \"#utility.yul\":16972:16974   */\n      0x1c\n        /* \"#utility.yul\":16967:16970   */\n      dup4\n        /* \"#utility.yul\":16908:16975   */\n      tag_245\n      jump\t// in\n    tag_424:\n        /* \"#utility.yul\":16901:16975   */\n      swap2\n      pop\n        /* \"#utility.yul\":16984:17077   */\n      tag_425\n        /* \"#utility.yul\":17073:17076   */\n      dup3\n        /* \"#utility.yul\":16984:17077   */\n      tag_271\n      jump\t// in\n    tag_425:\n        /* \"#utility.yul\":17102:17104   */\n      0x20\n        /* \"#utility.yul\":17097:17100   */\n      dup3\n        /* \"#utility.yul\":17093:17105   */\n      add\n        /* \"#utility.yul\":17086:17105   */\n      swap1\n      pop\n        /* \"#utility.yul\":16745:17111   */\n      swap2\n      swap1\n      pop\n      jump\t// out\n        /* \"#utility.yul\":17117:17536   */\n    tag_183:\n        /* \"#utility.yul\":17283:17287   */\n      0x00\n        /* \"#utility.yul\":17321:17323   */\n      0x20\n        /* \"#utility.yul\":17310:17319   */\n      dup3\n        /* \"#utility.yul\":17306:17324   */\n      add\n        /* \"#utility.yul\":17298:17324   */\n      swap1\n      pop\n        /* \"#utility.yul\":17370:17379   */\n      dup2\n        /* \"#utility.yul\":17364:17368   */\n      dup2\n        /* \"#utility.yul\":17360:17380   */\n      sub\n        /* \"#utility.yul\":17356:17357   */\n      0x00\n        /* \"#utility.yul\":17345:17354   */\n      dup4\n        /* \"#utility.yul\":17341:17358   */\n      add\n        /* \"#utility.yul\":17334:17381   */\n      mstore\n        /* \"#utility.yul\":17398:17529   */\n      tag_427\n        /* \"#utility.yul\":17524:17528   */\n      dup2\n        /* \"#utility.yul\":17398:17529   */\n      tag_272\n      jump\t// in\n    tag_427:\n        /* \"#utility.yul\":17390:17529   */\n      swap1\n      pop\n        /* \"#utility.yul\":17117:17536   */\n      swap2\n      swap1\n      pop\n      jump\t// out\n        /* \"#utility.yul\":17542:17764   */\n    tag_273:\n        /* \"#utility.yul\":17682:17716   */\n      0x45786365656473206d6178696d756d20746f6b656e7320706572207075726368\n        /* \"#utility.yul\":17678:17679   */\n      0x00\n        /* \"#utility.yul\":17670:17676   */\n      dup3\n        /* \"#utility.yul\":17666:17680   */\n      add\n        /* \"#utility.yul\":17659:17717   */\n      mstore\n        /* \"#utility.yul\":17751:17756   */\n      0x6173650000000000000000000000000000000000000000000000000000000000\n        /* \"#utility.yul\":17746:17748   */\n      0x20\n        /* \"#utility.yul\":17738:17744   */\n      dup3\n        /* \"#utility.yul\":17734:17749   */\n      add\n        /* \"#utility.yul\":17727:17757   */\n      mstore\n        /* \"#utility.yul\":17542:17764   */\n      pop\n      jump\t// out\n        /* \"#utility.yul\":17770:18136   */\n    tag_274:\n        /* \"#utility.yul\":17912:17915   */\n      0x00\n        /* \"#utility.yul\":17933:18000   */\n      tag_430\n        /* \"#utility.yul\":17997:17999   */\n      0x23\n        /* \"#utility.yul\":17992:17995   */\n      dup4\n        /* \"#utility.yul\":17933:18000   */\n      tag_245\n      jump\t// in\n    tag_430:\n        /* \"#utility.yul\":17926:18000   */\n      swap2\n      pop\n        /* \"#utility.yul\":18009:18102   */\n      tag_431\n        /* \"#utility.yul\":18098:18101   */\n      dup3\n        /* \"#utility.yul\":18009:18102   */\n      tag_273\n      jump\t// in\n    tag_431:\n        /* \"#utility.yul\":18127:18129   */\n      0x40\n        /* \"#utility.yul\":18122:18125   */\n      dup3\n        /* \"#utility.yul\":18118:18130   */\n      add\n        /* \"#utility.yul\":18111:18130   */\n      swap1\n      pop\n        /* \"#utility.yul\":17770:18136   */\n      swap2\n      swap1\n      pop\n      jump\t// out\n        /* \"#utility.yul\":18142:18561   */\n    tag_187:\n        /* \"#utility.yul\":18308:18312   */\n      0x00\n        /* \"#utility.yul\":18346:18348   */\n      0x20\n        /* \"#utility.yul\":18335:18344   */\n      dup3\n        /* \"#utility.yul\":18331:18349   */\n      add\n        /* \"#utility.yul\":18323:18349   */\n      swap1\n      pop\n        /* \"#utility.yul\":18395:18404   */\n      dup2\n        /* \"#utility.yul\":18389:18393   */\n      dup2\n        /* \"#utility.yul\":18385:18405   */\n      sub\n        /* \"#utility.yul\":18381:18382   */\n      0x00\n        /* \"#utility.yul\":18370:18379   */\n      dup4\n        /* \"#utility.yul\":18366:18383   */\n      add\n        /* \"#utility.yul\":18359:18406   */\n      mstore\n        /* \"#utility.yul\":18423:18554   */\n      tag_433\n        /* \"#utility.yul\":18549:18553   */\n      dup2\n        /* \"#utility.yul\":18423:18554   */\n      tag_274\n      jump\t// in\n    tag_433:\n        /* \"#utility.yul\":18415:18554   */\n      swap1\n      pop\n        /* \"#utility.yul\":18142:18561   */\n      swap2\n      swap1\n      pop\n      jump\t// out\n        /* \"#utility.yul\":18567:18806   */\n    tag_275:\n        /* \"#utility.yul\":18707:18741   */\n      0x56656e646f7220636f6e747261637420686173206e6f7420656e6f7567682074\n        /* \"#utility.yul\":18703:18704   */\n      0x00\n        /* \"#utility.yul\":18695:18701   */\n      dup3\n        /* \"#utility.yul\":18691:18705   */\n      add\n        /* \"#utility.yul\":18684:18742   */\n      mstore\n        /* \"#utility.yul\":18776:18798   */\n      0x6f6b656e7320696e206974732062616c616e6365000000000000000000000000\n        /* \"#utility.yul\":18771:18773   */\n      0x20\n        /* \"#utility.yul\":18763:18769   */\n      dup3\n        /* \"#utility.yul\":18759:18774   */\n      add\n        /* \"#utility.yul\":18752:18799   */\n      mstore\n        /* \"#utility.yul\":18567:18806   */\n      pop\n      jump\t// out\n        /* \"#utility.yul\":18812:19178   */\n    tag_276:\n        /* \"#utility.yul\":18954:18957   */\n      0x00\n        /* \"#utility.yul\":18975:19042   */\n      tag_436\n        /* \"#utility.yul\":19039:19041   */\n      0x34\n        /* \"#utility.yul\":19034:19037   */\n      dup4\n        /* \"#utility.yul\":18975:19042   */\n      tag_245\n      jump\t// in\n    tag_436:\n        /* \"#utility.yul\":18968:19042   */\n      swap2\n      pop\n        /* \"#utility.yul\":19051:19144   */\n      tag_437\n        /* \"#utility.yul\":19140:19143   */\n      dup3\n        /* \"#utility.yul\":19051:19144   */\n      tag_275\n      jump\t// in\n    tag_437:\n        /* \"#utility.yul\":19169:19171   */\n      0x40\n        /* \"#utility.yul\":19164:19167   */\n      dup3\n        /* \"#utility.yul\":19160:19172   */\n      add\n        /* \"#utility.yul\":19153:19172   */\n      swap1\n      pop\n        /* \"#utility.yul\":18812:19178   */\n      swap2\n      swap1\n      pop\n      jump\t// out\n        /* \"#utility.yul\":19184:19603   */\n    tag_194:\n        /* \"#utility.yul\":19350:19354   */\n      0x00\n        /* \"#utility.yul\":19388:19390   */\n      0x20\n        /* \"#utility.yul\":19377:19386   */\n      dup3\n        /* \"#utility.yul\":19373:19391   */\n      add\n        /* \"#utility.yul\":19365:19391   */\n      swap1\n      pop\n        /* \"#utility.yul\":19437:19446   */\n      dup2\n        /* \"#utility.yul\":19431:19435   */\n      dup2\n        /* \"#utility.yul\":19427:19447   */\n      sub\n        /* \"#utility.yul\":19423:19424   */\n      0x00\n        /* \"#utility.yul\":19412:19421   */\n      dup4\n        /* \"#utility.yul\":19408:19425   */\n      add\n        /* \"#utility.yul\":19401:19448   */\n      mstore\n        /* \"#utility.yul\":19465:19596   */\n      tag_439\n        /* \"#utility.yul\":19591:19595   */\n      dup2\n        /* \"#utility.yul\":19465:19596   */\n      tag_276\n      jump\t// in\n    tag_439:\n        /* \"#utility.yul\":19457:19596   */\n      swap1\n      pop\n        /* \"#utility.yul\":19184:19603   */\n      swap2\n      swap1\n      pop\n      jump\t// out\n        /* \"#utility.yul\":19609:19800   */\n    tag_200:\n        /* \"#utility.yul\":19649:19652   */\n      0x00\n        /* \"#utility.yul\":19668:19688   */\n      tag_441\n        /* \"#utility.yul\":19686:19687   */\n      dup3\n        /* \"#utility.yul\":19668:19688   */\n      tag_231\n      jump\t// in\n    tag_441:\n        /* \"#utility.yul\":19663:19688   */\n      swap2\n      pop\n        /* \"#utility.yul\":19702:19722   */\n      tag_442\n        /* \"#utility.yul\":19720:19721   */\n      dup4\n        /* \"#utility.yul\":19702:19722   */\n      tag_231\n      jump\t// in\n    tag_442:\n        /* \"#utility.yul\":19697:19722   */\n      swap3\n      pop\n        /* \"#utility.yul\":19745:19746   */\n      dup3\n        /* \"#utility.yul\":19742:19743   */\n      dup3\n        /* \"#utility.yul\":19738:19747   */\n      add\n        /* \"#utility.yul\":19731:19747   */\n      swap1\n      pop\n        /* \"#utility.yul\":19766:19769   */\n      dup1\n        /* \"#utility.yul\":19763:19764   */\n      dup3\n        /* \"#utility.yul\":19760:19770   */\n      gt\n        /* \"#utility.yul\":19757:19793   */\n      iszero\n      tag_443\n      jumpi\n        /* \"#utility.yul\":19773:19791   */\n      tag_444\n      tag_243\n      jump\t// in\n    tag_444:\n        /* \"#utility.yul\":19757:19793   */\n    tag_443:\n        /* \"#utility.yul\":19609:19800   */\n      swap3\n      swap2\n      pop\n      pop\n      jump\t// out\n        /* \"#utility.yul\":19806:20027   */\n    tag_277:\n        /* \"#utility.yul\":19946:19980   */\n      0x45786365656473206d6178696d756d20746f6b656e7320706572206164647265\n        /* \"#utility.yul\":19942:19943   */\n      0x00\n        /* \"#utility.yul\":19934:19940   */\n      dup3\n        /* \"#utility.yul\":19930:19944   */\n      add\n        /* \"#utility.yul\":19923:19981   */\n      mstore\n        /* \"#utility.yul\":20015:20019   */\n      0x7373000000000000000000000000000000000000000000000000000000000000\n        /* \"#utility.yul\":20010:20012   */\n      0x20\n        /* \"#utility.yul\":20002:20008   */\n      dup3\n        /* \"#utility.yul\":19998:20013   */\n      add\n        /* \"#utility.yul\":19991:20020   */\n      mstore\n        /* \"#utility.yul\":19806:20027   */\n      pop\n      jump\t// out\n        /* \"#utility.yul\":20033:20399   */\n    tag_278:\n        /* \"#utility.yul\":20175:20178   */\n      0x00\n        /* \"#utility.yul\":20196:20263   */\n      tag_447\n        /* \"#utility.yul\":20260:20262   */\n      0x22\n        /* \"#utility.yul\":20255:20258   */\n      dup4\n        /* \"#utility.yul\":20196:20263   */\n      tag_245\n      jump\t// in\n    tag_447:\n        /* \"#utility.yul\":20189:20263   */\n      swap2\n      pop\n        /* \"#utility.yul\":20272:20365   */\n      tag_448\n        /* \"#utility.yul\":20361:20364   */\n      dup3\n        /* \"#utility.yul\":20272:20365   */\n      tag_277\n      jump\t// in\n    tag_448:\n        /* \"#utility.yul\":20390:20392   */\n      0x40\n        /* \"#utility.yul\":20385:20388   */\n      dup3\n        /* \"#utility.yul\":20381:20393   */\n      add\n        /* \"#utility.yul\":20374:20393   */\n      swap1\n      pop\n        /* \"#utility.yul\":20033:20399   */\n      swap2\n      swap1\n      pop\n      jump\t// out\n        /* \"#utility.yul\":20405:20824   */\n    tag_203:\n        /* \"#utility.yul\":20571:20575   */\n      0x00\n        /* \"#utility.yul\":20609:20611   */\n      0x20\n        /* \"#utility.yul\":20598:20607   */\n      dup3\n        /* \"#utility.yul\":20594:20612   */\n      add\n        /* \"#utility.yul\":20586:20612   */\n      swap1\n      pop\n        /* \"#utility.yul\":20658:20667   */\n      dup2\n        /* \"#utility.yul\":20652:20656   */\n      dup2\n        /* \"#utility.yul\":20648:20668   */\n      sub\n        /* \"#utility.yul\":20644:20645   */\n      0x00\n        /* \"#utility.yul\":20633:20642   */\n      dup4\n        /* \"#utility.yul\":20629:20646   */\n      add\n        /* \"#utility.yul\":20622:20669   */\n      mstore\n        /* \"#utility.yul\":20686:20817   */\n      tag_450\n        /* \"#utility.yul\":20812:20816   */\n      dup2\n        /* \"#utility.yul\":20686:20817   */\n      tag_278\n      jump\t// in\n    tag_450:\n        /* \"#utility.yul\":20678:20817   */\n      swap1\n      pop\n        /* \"#utility.yul\":20405:20824   */\n      swap2\n      swap1\n      pop\n      jump\t// out\n        /* \"#utility.yul\":20830:21012   */\n    tag_279:\n        /* \"#utility.yul\":20970:21004   */\n      0x4661696c656420746f207472616e7366657220746f6b656e20746f2075736572\n        /* \"#utility.yul\":20966:20967   */\n      0x00\n        /* \"#utility.yul\":20958:20964   */\n      dup3\n        /* \"#utility.yul\":20954:20968   */\n      add\n        /* \"#utility.yul\":20947:21005   */\n      mstore\n        /* \"#utility.yul\":20830:21012   */\n      pop\n      jump\t// out\n        /* \"#utility.yul\":21018:21384   */\n    tag_280:\n        /* \"#utility.yul\":21160:21163   */\n      0x00\n        /* \"#utility.yul\":21181:21248   */\n      tag_453\n        /* \"#utility.yul\":21245:21247   */\n      0x20\n        /* \"#utility.yul\":21240:21243   */\n      dup4\n        /* \"#utility.yul\":21181:21248   */\n      tag_245\n      jump\t// in\n    tag_453:\n        /* \"#utility.yul\":21174:21248   */\n      swap2\n      pop\n        /* \"#utility.yul\":21257:21350   */\n      tag_454\n        /* \"#utility.yul\":21346:21349   */\n      dup3\n        /* \"#utility.yul\":21257:21350   */\n      tag_279\n      jump\t// in\n    tag_454:\n        /* \"#utility.yul\":21375:21377   */\n      0x20\n        /* \"#utility.yul\":21370:21373   */\n      dup3\n        /* \"#utility.yul\":21366:21378   */\n      add\n        /* \"#utility.yul\":21359:21378   */\n      swap1\n      pop\n        /* \"#utility.yul\":21018:21384   */\n      swap2\n      swap1\n      pop\n      jump\t// out\n        /* \"#utility.yul\":21390:21809   */\n    tag_210:\n        /* \"#utility.yul\":21556:21560   */\n      0x00\n        /* \"#utility.yul\":21594:21596   */\n      0x20\n        /* \"#utility.yul\":21583:21592   */\n      dup3\n        /* \"#utility.yul\":21579:21597   */\n      add\n        /* \"#utility.yul\":21571:21597   */\n      swap1\n      pop\n        /* \"#utility.yul\":21643:21652   */\n      dup2\n        /* \"#utility.yul\":21637:21641   */\n      dup2\n        /* \"#utility.yul\":21633:21653   */\n      sub\n        /* \"#utility.yul\":21629:21630   */\n      0x00\n        /* \"#utility.yul\":21618:21627   */\n      dup4\n        /* \"#utility.yul\":21614:21631   */\n      add\n        /* \"#utility.yul\":21607:21654   */\n      mstore\n        /* \"#utility.yul\":21671:21802   */\n      tag_456\n        /* \"#utility.yul\":21797:21801   */\n      dup2\n        /* \"#utility.yul\":21671:21802   */\n      tag_280\n      jump\t// in\n    tag_456:\n        /* \"#utility.yul\":21663:21802   */\n      swap1\n      pop\n        /* \"#utility.yul\":21390:21809   */\n      swap2\n      swap1\n      pop\n      jump\t// out\n\n    auxdata: 0xa2646970667358221220b58b0a86ed57721144977166b4487e9628c24678ebed5ecf01683f6b8b94f38764736f6c634300081a0033\n}\n",
				"bytecode": {
					"linkReferences": {},
					"object": "60806040526064600255683635c9adc5dea0000060035569010f0cf064dd592000006004556002600555348015610034575f80fd5b50604051611db2380380611db28339818101604052810190610056919061023c565b335f73ffffffffffffffffffffffffffffffffffffffff168173ffffffffffffffffffffffffffffffffffffffff16036100c7575f6040517f1e4fbdf70000000000000000000000000000000000000000000000000000000081526004016100be9190610276565b60405180910390fd5b6100d68161011d60201b60201c565b508060015f6101000a81548173ffffffffffffffffffffffffffffffffffffffff021916908373ffffffffffffffffffffffffffffffffffffffff1602179055505061028f565b5f805f9054906101000a900473ffffffffffffffffffffffffffffffffffffffff169050815f806101000a81548173ffffffffffffffffffffffffffffffffffffffff021916908373ffffffffffffffffffffffffffffffffffffffff1602179055508173ffffffffffffffffffffffffffffffffffffffff168173ffffffffffffffffffffffffffffffffffffffff167f8be0079c531659141344cd1fd0a4f28419497f9722a3daafe3b4186f6b6457e060405160405180910390a35050565b5f80fd5b5f73ffffffffffffffffffffffffffffffffffffffff82169050919050565b5f61020b826101e2565b9050919050565b61021b81610201565b8114610225575f80fd5b50565b5f8151905061023681610212565b92915050565b5f60208284031215610251576102506101de565b5b5f61025e84828501610228565b91505092915050565b61027081610201565b82525050565b5f6020820190506102895f830184610267565b92915050565b611b168061029c5f395ff3fe6080604052600436106100f2575f3560e01c80636c11bcd311610089578063cb23284211610058578063cb232842146102d0578063d0febe4c146102fa578063dbb84f1114610318578063f2fde38b14610340576100f2565b80636c11bcd31461022a5780636f9fb98a14610266578063715018a6146102905780638da5cb5b146102a6576100f2565b8063315a095d116100c5578063315a095d1461019a5780633ccfd60b146101c2578063453989b2146101d85780635771520714610200576100f2565b80630a431e52146100f65780631369bfee146101205780631b326fad1461014857806323a1baaa14610170575b5f80fd5b348015610101575f80fd5b5061010a610368565b6040516101179190611009565b60405180910390f35b34801561012b575f80fd5b5061014660048036038101906101419190611050565b61036e565b005b348015610153575f80fd5b5061016e60048036038101906101699190611050565b610380565b005b34801561017b575f80fd5b506101846103a5565b6040516101919190611009565b60405180910390f35b3480156101a5575f80fd5b506101c060048036038101906101bb9190611050565b6103ab565b005b3480156101cd575f80fd5b506101d661059c565b005b3480156101e3575f80fd5b506101fe60048036038101906101f99190611050565b610696565b005b34801561020b575f80fd5b506102146106a8565b6040516102219190611009565b60405180910390f35b348015610235575f80fd5b50610250600480360381019061024b9190611050565b6106ae565b60405161025d9190611009565b60405180910390f35b348015610271575f80fd5b5061027a610a2a565b6040516102879190611009565b60405180910390f35b34801561029b575f80fd5b506102a4610a31565b005b3480156102b1575f80fd5b506102ba610a44565b6040516102c791906110ba565b60405180910390f35b3480156102db575f80fd5b506102e4610a6b565b6040516102f19190611009565b60405180910390f35b610302610a71565b60405161030f9190611009565b60405180910390f35b348015610323575f80fd5b5061033e60048036038101906103399190611050565b610df9565b005b34801561034b575f80fd5b50610366600480360381019061036191906110fd565b610e1e565b005b60055481565b610376610ea2565b8060058190555050565b610388610ea2565b670de0b6b3a76400008161039c9190611155565b60038190555050565b60045481565b6103b3610ea2565b5f60015f9054906101000a900473ffffffffffffffffffffffffffffffffffffffff1673ffffffffffffffffffffffffffffffffffffffff166370a08231306040518263ffffffff1660e01b815260040161040e91906110ba565b602060405180830381865afa158015610429573d5f803e3d5ffd5b505050506040513d601f19601f8201168201806040525081019061044d91906111aa565b9050670de0b6b3a7640000826104639190611155565b8110156104a5576040517f08c379a000000000000000000000000000000000000000000000000000000000815260040161049c90611255565b60405180910390fd5b5f60015f9054906101000a900473ffffffffffffffffffffffffffffffffffffffff1673ffffffffffffffffffffffffffffffffffffffff1663a9059cbb33670de0b6b3a7640000866104f89190611155565b6040518363ffffffff1660e01b8152600401610515929190611273565b6020604051808303815f875af1158015610531573d5f803e3d5ffd5b505050506040513d601f19601f8201168201806040525081019061055591906112cf565b905080610597576040517f08c379a000000000000000000000000000000000000000000000000000000000815260040161058e9061136a565b60405180910390fd5b505050565b6105a4610ea2565b5f4790505f81116105ea576040517f08c379a00000000000000000000000000000000000000000000000000000000081526004016105e1906113f8565b60405180910390fd5b5f3373ffffffffffffffffffffffffffffffffffffffff168260405161060f90611443565b5f6040518083038185875af1925050503d805f8114610649576040519150601f19603f3d011682016040523d82523d5f602084013e61064e565b606091505b5050905080610692576040517f08c379a0000000000000000000000000000000000000000000000000000000008152600401610689906114c7565b60405180910390fd5b5050565b61069e610ea2565b8060028190555050565b60035481565b5f670de0b6b3a7640000826106c39190611155565b91505f8211610707576040517f08c379a00000000000000000000000000000000000000000000000000000000081526004016106fe9061152f565b60405180910390fd5b8160015f9054906101000a900473ffffffffffffffffffffffffffffffffffffffff1673ffffffffffffffffffffffffffffffffffffffff166370a08231336040518263ffffffff1660e01b815260040161076291906110ba565b602060405180830381865afa15801561077d573d5f803e3d5ffd5b505050506040513d601f19601f820116820180604052508101906107a191906111aa565b10156107e2576040517f08c379a00000000000000000000000000000000000000000000000000000000081526004016107d990611597565b60405180910390fd5b5f60025460646107f29190611155565b600554606461080191906115b5565b8461080c9190611155565b6108169190611615565b90508047101561085b576040517f08c379a0000000000000000000000000000000000000000000000000000000008152600401610852906116b5565b60405180910390fd5b5f60015f9054906101000a900473ffffffffffffffffffffffffffffffffffffffff1673ffffffffffffffffffffffffffffffffffffffff166323b872dd3330876040518463ffffffff1660e01b81526004016108ba939291906116d3565b6020604051808303815f875af11580156108d6573d5f803e3d5ffd5b505050506040513d601f19601f820116820180604052508101906108fa91906112cf565b90508061093c576040517f08c379a000000000000000000000000000000000000000000000000000000000815260040161093390611778565b60405180910390fd5b5f3373ffffffffffffffffffffffffffffffffffffffff168360405161096190611443565b5f6040518083038185875af1925050503d805f811461099b576040519150601f19603f3d011682016040523d82523d5f602084013e6109a0565b606091505b50509050806109e4576040517f08c379a00000000000000000000000000000000000000000000000000000000081526004016109db906117e0565b60405180910390fd5b7fa24838acd4af5195a2396965dae5abf54e84e8c19f5698bb966ae64e29994ee5338685604051610a17939291906117fe565b60405180910390a1829350505050919050565b5f47905090565b610a39610ea2565b610a425f610f29565b565b5f805f9054906101000a900473ffffffffffffffffffffffffffffffffffffffff16905090565b60025481565b5f803411610ab4576040517f08c379a0000000000000000000000000000000000000000000000000000000008152600401610aab9061187d565b60405180910390fd5b5f60025434610ac39190611155565b9050600354811115610b0a576040517f08c379a0000000000000000000000000000000000000000000000000000000008152600401610b019061190b565b60405180910390fd5b5f60015f9054906101000a900473ffffffffffffffffffffffffffffffffffffffff1673ffffffffffffffffffffffffffffffffffffffff166370a08231306040518263ffffffff1660e01b8152600401610b6591906110ba565b602060405180830381865afa158015610b80573d5f803e3d5ffd5b505050506040513d601f19601f82011682018060405250810190610ba491906111aa565b905081811015610be9576040517f08c379a0000000000000000000000000000000000000000000000000000000008152600401610be090611999565b60405180910390fd5b5f60015f9054906101000a900473ffffffffffffffffffffffffffffffffffffffff1673ffffffffffffffffffffffffffffffffffffffff166370a08231336040518263ffffffff1660e01b8152600401610c4491906110ba565b602060405180830381865afa158015610c5f573d5f803e3d5ffd5b505050506040513d601f19601f82011682018060405250810190610c8391906111aa565b90506004548382610c9491906119b7565b1115610cd5576040517f08c379a0000000000000000000000000000000000000000000000000000000008152600401610ccc90611a5a565b60405180910390fd5b5f60015f9054906101000a900473ffffffffffffffffffffffffffffffffffffffff1673ffffffffffffffffffffffffffffffffffffffff1663a9059cbb33866040518363ffffffff1660e01b8152600401610d32929190611273565b6020604051808303815f875af1158015610d4e573d5f803e3d5ffd5b505050506040513d601f19601f82011682018060405250810190610d7291906112cf565b905080610db4576040517f08c379a0000000000000000000000000000000000000000000000000000000008152600401610dab90611ac2565b60405180910390fd5b7f0a37b72bb67eee30e09084cf386f8a17817c57f620c3ab95fb25d6a20356ec77333486604051610de7939291906117fe565b60405180910390a18394505050505090565b610e01610ea2565b670de0b6b3a764000081610e159190611155565b60048190555050565b610e26610ea2565b5f73ffffffffffffffffffffffffffffffffffffffff168173ffffffffffffffffffffffffffffffffffffffff1603610e96575f6040517f1e4fbdf7000000000000000000000000000000000000000000000000000000008152600401610e8d91906110ba565b60405180910390fd5b610e9f81610f29565b50565b610eaa610fea565b73ffffffffffffffffffffffffffffffffffffffff16610ec8610a44565b73ffffffffffffffffffffffffffffffffffffffff1614610f2757610eeb610fea565b6040517f118cdaa7000000000000000000000000000000000000000000000000000000008152600401610f1e91906110ba565b60405180910390fd5b565b5f805f9054906101000a900473ffffffffffffffffffffffffffffffffffffffff169050815f806101000a81548173ffffffffffffffffffffffffffffffffffffffff021916908373ffffffffffffffffffffffffffffffffffffffff1602179055508173ffffffffffffffffffffffffffffffffffffffff168173ffffffffffffffffffffffffffffffffffffffff167f8be0079c531659141344cd1fd0a4f28419497f9722a3daafe3b4186f6b6457e060405160405180910390a35050565b5f33905090565b5f819050919050565b61100381610ff1565b82525050565b5f60208201905061101c5f830184610ffa565b92915050565b5f80fd5b61102f81610ff1565b8114611039575f80fd5b50565b5f8135905061104a81611026565b92915050565b5f6020828403121561106557611064611022565b5b5f6110728482850161103c565b91505092915050565b5f73ffffffffffffffffffffffffffffffffffffffff82169050919050565b5f6110a48261107b565b9050919050565b6110b48161109a565b82525050565b5f6020820190506110cd5f8301846110ab565b92915050565b6110dc8161109a565b81146110e6575f80fd5b50565b5f813590506110f7816110d3565b92915050565b5f6020828403121561111257611111611022565b5b5f61111f848285016110e9565b91505092915050565b7f4e487b71000000000000000000000000000000000000000000000000000000005f52601160045260245ffd5b5f61115f82610ff1565b915061116a83610ff1565b925082820261117881610ff1565b9150828204841483151761118f5761118e611128565b5b5092915050565b5f815190506111a481611026565b92915050565b5f602082840312156111bf576111be611022565b5b5f6111cc84828501611196565b91505092915050565b5f82825260208201905092915050565b7f56656e646f7220636f6e747261637420686173206e6f7420656e6f75676820745f8201527f6f6b656e7320746f207769746864726177000000000000000000000000000000602082015250565b5f61123f6031836111d5565b915061124a826111e5565b604082019050919050565b5f6020820190508181035f83015261126c81611233565b9050919050565b5f6040820190506112865f8301856110ab565b6112936020830184610ffa565b9392505050565b5f8115159050919050565b6112ae8161129a565b81146112b8575f80fd5b50565b5f815190506112c9816112a5565b92915050565b5f602082840312156112e4576112e3611022565b5b5f6112f1848285016112bb565b91505092915050565b7f4661696c656420746f207472616e7366657220746f6b656e7320746f207468655f8201527f206f776e65720000000000000000000000000000000000000000000000000000602082015250565b5f6113546026836111d5565b915061135f826112fa565b604082019050919050565b5f6020820190508181035f83015261138181611348565b9050919050565b7f4f776e657220686173206e6f742062616c616e636520746f20776974686472615f8201527f7700000000000000000000000000000000000000000000000000000000000000602082015250565b5f6113e26021836111d5565b91506113ed82611388565b604082019050919050565b5f6020820190508181035f83015261140f816113d6565b9050919050565b5f81905092915050565b50565b5f61142e5f83611416565b915061143982611420565b5f82019050919050565b5f61144d82611423565b9150819050919050565b7f4661696c656420746f2073656e6420757365722062616c616e6365206261636b5f8201527f20746f20746865206f776e657200000000000000000000000000000000000000602082015250565b5f6114b1602d836111d5565b91506114bc82611457565b604082019050919050565b5f6020820190508181035f8301526114de816114a5565b9050919050565b7f5370656369667920616d6f756e74206f6620746f6b656e7320746f2073656c6c5f82015250565b5f6115196020836111d5565b9150611524826114e5565b602082019050919050565b5f6020820190508181035f8301526115468161150d565b9050919050565b7f496e73756666696369656e7420746f6b656e2062616c616e63650000000000005f82015250565b5f611581601a836111d5565b915061158c8261154d565b602082019050919050565b5f6020820190508181035f8301526115ae81611575565b9050919050565b5f6115bf82610ff1565b91506115ca83610ff1565b92508282039050818111156115e2576115e1611128565b5b92915050565b7f4e487b71000000000000000000000000000000000000000000000000000000005f52601260045260245ffd5b5f61161f82610ff1565b915061162a83610ff1565b92508261163a576116396115e8565b5b828204905092915050565b7f496e73756666696369656e7420436f696e2062616c616e636520696e20636f6e5f8201527f7472616374000000000000000000000000000000000000000000000000000000602082015250565b5f61169f6025836111d5565b91506116aa82611645565b604082019050919050565b5f6020820190508181035f8301526116cc81611693565b9050919050565b5f6060820190506116e65f8301866110ab565b6116f360208301856110ab565b6117006040830184610ffa565b949350505050565b7f4661696c656420746f207472616e7366657220746f6b656e20746f20636f6e745f8201527f7261637400000000000000000000000000000000000000000000000000000000602082015250565b5f6117626024836111d5565b915061176d82611708565b604082019050919050565b5f6020820190508181035f83015261178f81611756565b9050919050565b7f4661696c656420746f2073656e6420436f696e20746f207573657200000000005f82015250565b5f6117ca601b836111d5565b91506117d582611796565b602082019050919050565b5f6020820190508181035f8301526117f7816117be565b9050919050565b5f6060820190506118115f8301866110ab565b61181e6020830185610ffa565b61182b6040830184610ffa565b949350505050565b7f53656e6420436f696e20746f2062757920736f6d6520746f6b656e73000000005f82015250565b5f611867601c836111d5565b915061187282611833565b602082019050919050565b5f6020820190508181035f8301526118948161185b565b9050919050565b7f45786365656473206d6178696d756d20746f6b656e73207065722070757263685f8201527f6173650000000000000000000000000000000000000000000000000000000000602082015250565b5f6118f56023836111d5565b91506119008261189b565b604082019050919050565b5f6020820190508181035f830152611922816118e9565b9050919050565b7f56656e646f7220636f6e747261637420686173206e6f7420656e6f75676820745f8201527f6f6b656e7320696e206974732062616c616e6365000000000000000000000000602082015250565b5f6119836034836111d5565b915061198e82611929565b604082019050919050565b5f6020820190508181035f8301526119b081611977565b9050919050565b5f6119c182610ff1565b91506119cc83610ff1565b92508282019050808211156119e4576119e3611128565b5b92915050565b7f45786365656473206d6178696d756d20746f6b656e73207065722061646472655f8201527f7373000000000000000000000000000000000000000000000000000000000000602082015250565b5f611a446022836111d5565b9150611a4f826119ea565b604082019050919050565b5f6020820190508181035f830152611a7181611a38565b9050919050565b7f4661696c656420746f207472616e7366657220746f6b656e20746f20757365725f82015250565b5f611aac6020836111d5565b9150611ab782611a78565b602082019050919050565b5f6020820190508181035f830152611ad981611aa0565b905091905056fea2646970667358221220b58b0a86ed57721144977166b4487e9628c24678ebed5ecf01683f6b8b94f38764736f6c634300081a0033",
					"opcodes": "PUSH1 0x80 PUSH1 0x40 MSTORE PUSH1 0x64 PUSH1 0x2 SSTORE PUSH9 0x3635C9ADC5DEA00000 PUSH1 0x3 SSTORE PUSH10 0x10F0CF064DD59200000 PUSH1 0x4 SSTORE PUSH1 0x2 PUSH1 0x5 SSTORE CALLVALUE DUP1 ISZERO PUSH2 0x34 JUMPI PUSH0 DUP1 REVERT JUMPDEST POP PUSH1 0x40 MLOAD PUSH2 0x1DB2 CODESIZE SUB DUP1 PUSH2 0x1DB2 DUP4 CODECOPY DUP2 DUP2 ADD PUSH1 0x40 MSTORE DUP2 ADD SWAP1 PUSH2 0x56 SWAP2 SWAP1 PUSH2 0x23C JUMP JUMPDEST CALLER PUSH0 PUSH20 0xFFFFFFFFFFFFFFFFFFFFFFFFFFFFFFFFFFFFFFFF AND DUP2 PUSH20 0xFFFFFFFFFFFFFFFFFFFFFFFFFFFFFFFFFFFFFFFF AND SUB PUSH2 0xC7 JUMPI PUSH0 PUSH1 0x40 MLOAD PUSH32 0x1E4FBDF700000000000000000000000000000000000000000000000000000000 DUP2 MSTORE PUSH1 0x4 ADD PUSH2 0xBE SWAP2 SWAP1 PUSH2 0x276 JUMP JUMPDEST PUSH1 0x40 MLOAD DUP1 SWAP2 SUB SWAP1 REVERT JUMPDEST PUSH2 0xD6 DUP2 PUSH2 0x11D PUSH1 0x20 SHL PUSH1 0x20 SHR JUMP JUMPDEST POP DUP1 PUSH1 0x1 PUSH0 PUSH2 0x100 EXP DUP2 SLOAD DUP2 PUSH20 0xFFFFFFFFFFFFFFFFFFFFFFFFFFFFFFFFFFFFFFFF MUL NOT AND SWAP1 DUP4 PUSH20 0xFFFFFFFFFFFFFFFFFFFFFFFFFFFFFFFFFFFFFFFF AND MUL OR SWAP1 SSTORE POP POP PUSH2 0x28F JUMP JUMPDEST PUSH0 DUP1 PUSH0 SWAP1 SLOAD SWAP1 PUSH2 0x100 EXP SWAP1 DIV PUSH20 0xFFFFFFFFFFFFFFFFFFFFFFFFFFFFFFFFFFFFFFFF AND SWAP1 POP DUP2 PUSH0 DUP1 PUSH2 0x100 EXP DUP2 SLOAD DUP2 PUSH20 0xFFFFFFFFFFFFFFFFFFFFFFFFFFFFFFFFFFFFFFFF MUL NOT AND SWAP1 DUP4 PUSH20 0xFFFFFFFFFFFFFFFFFFFFFFFFFFFFFFFFFFFFFFFF AND MUL OR SWAP1 SSTORE POP DUP2 PUSH20 0xFFFFFFFFFFFFFFFFFFFFFFFFFFFFFFFFFFFFFFFF AND DUP2 PUSH20 0xFFFFFFFFFFFFFFFFFFFFFFFFFFFFFFFFFFFFFFFF AND PUSH32 0x8BE0079C531659141344CD1FD0A4F28419497F9722A3DAAFE3B4186F6B6457E0 PUSH1 0x40 MLOAD PUSH1 0x40 MLOAD DUP1 SWAP2 SUB SWAP1 LOG3 POP POP JUMP JUMPDEST PUSH0 DUP1 REVERT JUMPDEST PUSH0 PUSH20 0xFFFFFFFFFFFFFFFFFFFFFFFFFFFFFFFFFFFFFFFF DUP3 AND SWAP1 POP SWAP2 SWAP1 POP JUMP JUMPDEST PUSH0 PUSH2 0x20B DUP3 PUSH2 0x1E2 JUMP JUMPDEST SWAP1 POP SWAP2 SWAP1 POP JUMP JUMPDEST PUSH2 0x21B DUP2 PUSH2 0x201 JUMP JUMPDEST DUP2 EQ PUSH2 0x225 JUMPI PUSH0 DUP1 REVERT JUMPDEST POP JUMP JUMPDEST PUSH0 DUP2 MLOAD SWAP1 POP PUSH2 0x236 DUP2 PUSH2 0x212 JUMP JUMPDEST SWAP3 SWAP2 POP POP JUMP JUMPDEST PUSH0 PUSH1 0x20 DUP3 DUP5 SUB SLT ISZERO PUSH2 0x251 JUMPI PUSH2 0x250 PUSH2 0x1DE JUMP JUMPDEST JUMPDEST PUSH0 PUSH2 0x25E DUP5 DUP3 DUP6 ADD PUSH2 0x228 JUMP JUMPDEST SWAP2 POP POP SWAP3 SWAP2 POP POP JUMP JUMPDEST PUSH2 0x270 DUP2 PUSH2 0x201 JUMP JUMPDEST DUP3 MSTORE POP POP JUMP JUMPDEST PUSH0 PUSH1 0x20 DUP3 ADD SWAP1 POP PUSH2 0x289 PUSH0 DUP4 ADD DUP5 PUSH2 0x267 JUMP JUMPDEST SWAP3 SWAP2 POP POP JUMP JUMPDEST PUSH2 0x1B16 DUP1 PUSH2 0x29C PUSH0 CODECOPY PUSH0 RETURN INVALID PUSH1 0x80 PUSH1 0x40 MSTORE PUSH1 0x4 CALLDATASIZE LT PUSH2 0xF2 JUMPI PUSH0 CALLDATALOAD PUSH1 0xE0 SHR DUP1 PUSH4 0x6C11BCD3 GT PUSH2 0x89 JUMPI DUP1 PUSH4 0xCB232842 GT PUSH2 0x58 JUMPI DUP1 PUSH4 0xCB232842 EQ PUSH2 0x2D0 JUMPI DUP1 PUSH4 0xD0FEBE4C EQ PUSH2 0x2FA JUMPI DUP1 PUSH4 0xDBB84F11 EQ PUSH2 0x318 JUMPI DUP1 PUSH4 0xF2FDE38B EQ PUSH2 0x340 JUMPI PUSH2 0xF2 JUMP JUMPDEST DUP1 PUSH4 0x6C11BCD3 EQ PUSH2 0x22A JUMPI DUP1 PUSH4 0x6F9FB98A EQ PUSH2 0x266 JUMPI DUP1 PUSH4 0x715018A6 EQ PUSH2 0x290 JUMPI DUP1 PUSH4 0x8DA5CB5B EQ PUSH2 0x2A6 JUMPI PUSH2 0xF2 JUMP JUMPDEST DUP1 PUSH4 0x315A095D GT PUSH2 0xC5 JUMPI DUP1 PUSH4 0x315A095D EQ PUSH2 0x19A JUMPI DUP1 PUSH4 0x3CCFD60B EQ PUSH2 0x1C2 JUMPI DUP1 PUSH4 0x453989B2 EQ PUSH2 0x1D8 JUMPI DUP1 PUSH4 0x57715207 EQ PUSH2 0x200 JUMPI PUSH2 0xF2 JUMP JUMPDEST DUP1 PUSH4 0xA431E52 EQ PUSH2 0xF6 JUMPI DUP1 PUSH4 0x1369BFEE EQ PUSH2 0x120 JUMPI DUP1 PUSH4 0x1B326FAD EQ PUSH2 0x148 JUMPI DUP1 PUSH4 0x23A1BAAA EQ PUSH2 0x170 JUMPI JUMPDEST PUSH0 DUP1 REVERT JUMPDEST CALLVALUE DUP1 ISZERO PUSH2 0x101 JUMPI PUSH0 DUP1 REVERT JUMPDEST POP PUSH2 0x10A PUSH2 0x368 JUMP JUMPDEST PUSH1 0x40 MLOAD PUSH2 0x117 SWAP2 SWAP1 PUSH2 0x1009 JUMP JUMPDEST PUSH1 0x40 MLOAD DUP1 SWAP2 SUB SWAP1 RETURN JUMPDEST CALLVALUE DUP1 ISZERO PUSH2 0x12B JUMPI PUSH0 DUP1 REVERT JUMPDEST POP PUSH2 0x146 PUSH1 0x4 DUP1 CALLDATASIZE SUB DUP2 ADD SWAP1 PUSH2 0x141 SWAP2 SWAP1 PUSH2 0x1050 JUMP JUMPDEST PUSH2 0x36E JUMP JUMPDEST STOP JUMPDEST CALLVALUE DUP1 ISZERO PUSH2 0x153 JUMPI PUSH0 DUP1 REVERT JUMPDEST POP PUSH2 0x16E PUSH1 0x4 DUP1 CALLDATASIZE SUB DUP2 ADD SWAP1 PUSH2 0x169 SWAP2 SWAP1 PUSH2 0x1050 JUMP JUMPDEST PUSH2 0x380 JUMP JUMPDEST STOP JUMPDEST CALLVALUE DUP1 ISZERO PUSH2 0x17B JUMPI PUSH0 DUP1 REVERT JUMPDEST POP PUSH2 0x184 PUSH2 0x3A5 JUMP JUMPDEST PUSH1 0x40 MLOAD PUSH2 0x191 SWAP2 SWAP1 PUSH2 0x1009 JUMP JUMPDEST PUSH1 0x40 MLOAD DUP1 SWAP2 SUB SWAP1 RETURN JUMPDEST CALLVALUE DUP1 ISZERO PUSH2 0x1A5 JUMPI PUSH0 DUP1 REVERT JUMPDEST POP PUSH2 0x1C0 PUSH1 0x4 DUP1 CALLDATASIZE SUB DUP2 ADD SWAP1 PUSH2 0x1BB SWAP2 SWAP1 PUSH2 0x1050 JUMP JUMPDEST PUSH2 0x3AB JUMP JUMPDEST STOP JUMPDEST CALLVALUE DUP1 ISZERO PUSH2 0x1CD JUMPI PUSH0 DUP1 REVERT JUMPDEST POP PUSH2 0x1D6 PUSH2 0x59C JUMP JUMPDEST STOP JUMPDEST CALLVALUE DUP1 ISZERO PUSH2 0x1E3 JUMPI PUSH0 DUP1 REVERT JUMPDEST POP PUSH2 0x1FE PUSH1 0x4 DUP1 CALLDATASIZE SUB DUP2 ADD SWAP1 PUSH2 0x1F9 SWAP2 SWAP1 PUSH2 0x1050 JUMP JUMPDEST PUSH2 0x696 JUMP JUMPDEST STOP JUMPDEST CALLVALUE DUP1 ISZERO PUSH2 0x20B JUMPI PUSH0 DUP1 REVERT JUMPDEST POP PUSH2 0x214 PUSH2 0x6A8 JUMP JUMPDEST PUSH1 0x40 MLOAD PUSH2 0x221 SWAP2 SWAP1 PUSH2 0x1009 JUMP JUMPDEST PUSH1 0x40 MLOAD DUP1 SWAP2 SUB SWAP1 RETURN JUMPDEST CALLVALUE DUP1 ISZERO PUSH2 0x235 JUMPI PUSH0 DUP1 REVERT JUMPDEST POP PUSH2 0x250 PUSH1 0x4 DUP1 CALLDATASIZE SUB DUP2 ADD SWAP1 PUSH2 0x24B SWAP2 SWAP1 PUSH2 0x1050 JUMP JUMPDEST PUSH2 0x6AE JUMP JUMPDEST PUSH1 0x40 MLOAD PUSH2 0x25D SWAP2 SWAP1 PUSH2 0x1009 JUMP JUMPDEST PUSH1 0x40 MLOAD DUP1 SWAP2 SUB SWAP1 RETURN JUMPDEST CALLVALUE DUP1 ISZERO PUSH2 0x271 JUMPI PUSH0 DUP1 REVERT JUMPDEST POP PUSH2 0x27A PUSH2 0xA2A JUMP JUMPDEST PUSH1 0x40 MLOAD PUSH2 0x287 SWAP2 SWAP1 PUSH2 0x1009 JUMP JUMPDEST PUSH1 0x40 MLOAD DUP1 SWAP2 SUB SWAP1 RETURN JUMPDEST CALLVALUE DUP1 ISZERO PUSH2 0x29B JUMPI PUSH0 DUP1 REVERT JUMPDEST POP PUSH2 0x2A4 PUSH2 0xA31 JUMP JUMPDEST STOP JUMPDEST CALLVALUE DUP1 ISZERO PUSH2 0x2B1 JUMPI PUSH0 DUP1 REVERT JUMPDEST POP PUSH2 0x2BA PUSH2 0xA44 JUMP JUMPDEST PUSH1 0x40 MLOAD PUSH2 0x2C7 SWAP2 SWAP1 PUSH2 0x10BA JUMP JUMPDEST PUSH1 0x40 MLOAD DUP1 SWAP2 SUB SWAP1 RETURN JUMPDEST CALLVALUE DUP1 ISZERO PUSH2 0x2DB JUMPI PUSH0 DUP1 REVERT JUMPDEST POP PUSH2 0x2E4 PUSH2 0xA6B JUMP JUMPDEST PUSH1 0x40 MLOAD PUSH2 0x2F1 SWAP2 SWAP1 PUSH2 0x1009 JUMP JUMPDEST PUSH1 0x40 MLOAD DUP1 SWAP2 SUB SWAP1 RETURN JUMPDEST PUSH2 0x302 PUSH2 0xA71 JUMP JUMPDEST PUSH1 0x40 MLOAD PUSH2 0x30F SWAP2 SWAP1 PUSH2 0x1009 JUMP JUMPDEST PUSH1 0x40 MLOAD DUP1 SWAP2 SUB SWAP1 RETURN JUMPDEST CALLVALUE DUP1 ISZERO PUSH2 0x323 JUMPI PUSH0 DUP1 REVERT JUMPDEST POP PUSH2 0x33E PUSH1 0x4 DUP1 CALLDATASIZE SUB DUP2 ADD SWAP1 PUSH2 0x339 SWAP2 SWAP1 PUSH2 0x1050 JUMP JUMPDEST PUSH2 0xDF9 JUMP JUMPDEST STOP JUMPDEST CALLVALUE DUP1 ISZERO PUSH2 0x34B JUMPI PUSH0 DUP1 REVERT JUMPDEST POP PUSH2 0x366 PUSH1 0x4 DUP1 CALLDATASIZE SUB DUP2 ADD SWAP1 PUSH2 0x361 SWAP2 SWAP1 PUSH2 0x10FD JUMP JUMPDEST PUSH2 0xE1E JUMP JUMPDEST STOP JUMPDEST PUSH1 0x5 SLOAD DUP2 JUMP JUMPDEST PUSH2 0x376 PUSH2 0xEA2 JUMP JUMPDEST DUP1 PUSH1 0x5 DUP2 SWAP1 SSTORE POP POP JUMP JUMPDEST PUSH2 0x388 PUSH2 0xEA2 JUMP JUMPDEST PUSH8 0xDE0B6B3A7640000 DUP2 PUSH2 0x39C SWAP2 SWAP1 PUSH2 0x1155 JUMP JUMPDEST PUSH1 0x3 DUP2 SWAP1 SSTORE POP POP JUMP JUMPDEST PUSH1 0x4 SLOAD DUP2 JUMP JUMPDEST PUSH2 0x3B3 PUSH2 0xEA2 JUMP JUMPDEST PUSH0 PUSH1 0x1 PUSH0 SWAP1 SLOAD SWAP1 PUSH2 0x100 EXP SWAP1 DIV PUSH20 0xFFFFFFFFFFFFFFFFFFFFFFFFFFFFFFFFFFFFFFFF AND PUSH20 0xFFFFFFFFFFFFFFFFFFFFFFFFFFFFFFFFFFFFFFFF AND PUSH4 0x70A08231 ADDRESS PUSH1 0x40 MLOAD DUP3 PUSH4 0xFFFFFFFF AND PUSH1 0xE0 SHL DUP2 MSTORE PUSH1 0x4 ADD PUSH2 0x40E SWAP2 SWAP1 PUSH2 0x10BA JUMP JUMPDEST PUSH1 0x20 PUSH1 0x40 MLOAD DUP1 DUP4 SUB DUP2 DUP7 GAS STATICCALL ISZERO DUP1 ISZERO PUSH2 0x429 JUMPI RETURNDATASIZE PUSH0 DUP1 RETURNDATACOPY RETURNDATASIZE PUSH0 REVERT JUMPDEST POP POP POP POP PUSH1 0x40 MLOAD RETURNDATASIZE PUSH1 0x1F NOT PUSH1 0x1F DUP3 ADD AND DUP3 ADD DUP1 PUSH1 0x40 MSTORE POP DUP2 ADD SWAP1 PUSH2 0x44D SWAP2 SWAP1 PUSH2 0x11AA JUMP JUMPDEST SWAP1 POP PUSH8 0xDE0B6B3A7640000 DUP3 PUSH2 0x463 SWAP2 SWAP1 PUSH2 0x1155 JUMP JUMPDEST DUP2 LT ISZERO PUSH2 0x4A5 JUMPI PUSH1 0x40 MLOAD PUSH32 0x8C379A000000000000000000000000000000000000000000000000000000000 DUP2 MSTORE PUSH1 0x4 ADD PUSH2 0x49C SWAP1 PUSH2 0x1255 JUMP JUMPDEST PUSH1 0x40 MLOAD DUP1 SWAP2 SUB SWAP1 REVERT JUMPDEST PUSH0 PUSH1 0x1 PUSH0 SWAP1 SLOAD SWAP1 PUSH2 0x100 EXP SWAP1 DIV PUSH20 0xFFFFFFFFFFFFFFFFFFFFFFFFFFFFFFFFFFFFFFFF AND PUSH20 0xFFFFFFFFFFFFFFFFFFFFFFFFFFFFFFFFFFFFFFFF AND PUSH4 0xA9059CBB CALLER PUSH8 0xDE0B6B3A7640000 DUP7 PUSH2 0x4F8 SWAP2 SWAP1 PUSH2 0x1155 JUMP JUMPDEST PUSH1 0x40 MLOAD DUP4 PUSH4 0xFFFFFFFF AND PUSH1 0xE0 SHL DUP2 MSTORE PUSH1 0x4 ADD PUSH2 0x515 SWAP3 SWAP2 SWAP1 PUSH2 0x1273 JUMP JUMPDEST PUSH1 0x20 PUSH1 0x40 MLOAD DUP1 DUP4 SUB DUP2 PUSH0 DUP8 GAS CALL ISZERO DUP1 ISZERO PUSH2 0x531 JUMPI RETURNDATASIZE PUSH0 DUP1 RETURNDATACOPY RETURNDATASIZE PUSH0 REVERT JUMPDEST POP POP POP POP PUSH1 0x40 MLOAD RETURNDATASIZE PUSH1 0x1F NOT PUSH1 0x1F DUP3 ADD AND DUP3 ADD DUP1 PUSH1 0x40 MSTORE POP DUP2 ADD SWAP1 PUSH2 0x555 SWAP2 SWAP1 PUSH2 0x12CF JUMP JUMPDEST SWAP1 POP DUP1 PUSH2 0x597 JUMPI PUSH1 0x40 MLOAD PUSH32 0x8C379A000000000000000000000000000000000000000000000000000000000 DUP2 MSTORE PUSH1 0x4 ADD PUSH2 0x58E SWAP1 PUSH2 0x136A JUMP JUMPDEST PUSH1 0x40 MLOAD DUP1 SWAP2 SUB SWAP1 REVERT JUMPDEST POP POP POP JUMP JUMPDEST PUSH2 0x5A4 PUSH2 0xEA2 JUMP JUMPDEST PUSH0 SELFBALANCE SWAP1 POP PUSH0 DUP2 GT PUSH2 0x5EA JUMPI PUSH1 0x40 MLOAD PUSH32 0x8C379A000000000000000000000000000000000000000000000000000000000 DUP2 MSTORE PUSH1 0x4 ADD PUSH2 0x5E1 SWAP1 PUSH2 0x13F8 JUMP JUMPDEST PUSH1 0x40 MLOAD DUP1 SWAP2 SUB SWAP1 REVERT JUMPDEST PUSH0 CALLER PUSH20 0xFFFFFFFFFFFFFFFFFFFFFFFFFFFFFFFFFFFFFFFF AND DUP3 PUSH1 0x40 MLOAD PUSH2 0x60F SWAP1 PUSH2 0x1443 JUMP JUMPDEST PUSH0 PUSH1 0x40 MLOAD DUP1 DUP4 SUB DUP2 DUP6 DUP8 GAS CALL SWAP3 POP POP POP RETURNDATASIZE DUP1 PUSH0 DUP2 EQ PUSH2 0x649 JUMPI PUSH1 0x40 MLOAD SWAP2 POP PUSH1 0x1F NOT PUSH1 0x3F RETURNDATASIZE ADD AND DUP3 ADD PUSH1 0x40 MSTORE RETURNDATASIZE DUP3 MSTORE RETURNDATASIZE PUSH0 PUSH1 0x20 DUP5 ADD RETURNDATACOPY PUSH2 0x64E JUMP JUMPDEST PUSH1 0x60 SWAP2 POP JUMPDEST POP POP SWAP1 POP DUP1 PUSH2 0x692 JUMPI PUSH1 0x40 MLOAD PUSH32 0x8C379A000000000000000000000000000000000000000000000000000000000 DUP2 MSTORE PUSH1 0x4 ADD PUSH2 0x689 SWAP1 PUSH2 0x14C7 JUMP JUMPDEST PUSH1 0x40 MLOAD DUP1 SWAP2 SUB SWAP1 REVERT JUMPDEST POP POP JUMP JUMPDEST PUSH2 0x69E PUSH2 0xEA2 JUMP JUMPDEST DUP1 PUSH1 0x2 DUP2 SWAP1 SSTORE POP POP JUMP JUMPDEST PUSH1 0x3 SLOAD DUP2 JUMP JUMPDEST PUSH0 PUSH8 0xDE0B6B3A7640000 DUP3 PUSH2 0x6C3 SWAP2 SWAP1 PUSH2 0x1155 JUMP JUMPDEST SWAP2 POP PUSH0 DUP3 GT PUSH2 0x707 JUMPI PUSH1 0x40 MLOAD PUSH32 0x8C379A000000000000000000000000000000000000000000000000000000000 DUP2 MSTORE PUSH1 0x4 ADD PUSH2 0x6FE SWAP1 PUSH2 0x152F JUMP JUMPDEST PUSH1 0x40 MLOAD DUP1 SWAP2 SUB SWAP1 REVERT JUMPDEST DUP2 PUSH1 0x1 PUSH0 SWAP1 SLOAD SWAP1 PUSH2 0x100 EXP SWAP1 DIV PUSH20 0xFFFFFFFFFFFFFFFFFFFFFFFFFFFFFFFFFFFFFFFF AND PUSH20 0xFFFFFFFFFFFFFFFFFFFFFFFFFFFFFFFFFFFFFFFF AND PUSH4 0x70A08231 CALLER PUSH1 0x40 MLOAD DUP3 PUSH4 0xFFFFFFFF AND PUSH1 0xE0 SHL DUP2 MSTORE PUSH1 0x4 ADD PUSH2 0x762 SWAP2 SWAP1 PUSH2 0x10BA JUMP JUMPDEST PUSH1 0x20 PUSH1 0x40 MLOAD DUP1 DUP4 SUB DUP2 DUP7 GAS STATICCALL ISZERO DUP1 ISZERO PUSH2 0x77D JUMPI RETURNDATASIZE PUSH0 DUP1 RETURNDATACOPY RETURNDATASIZE PUSH0 REVERT JUMPDEST POP POP POP POP PUSH1 0x40 MLOAD RETURNDATASIZE PUSH1 0x1F NOT PUSH1 0x1F DUP3 ADD AND DUP3 ADD DUP1 PUSH1 0x40 MSTORE POP DUP2 ADD SWAP1 PUSH2 0x7A1 SWAP2 SWAP1 PUSH2 0x11AA JUMP JUMPDEST LT ISZERO PUSH2 0x7E2 JUMPI PUSH1 0x40 MLOAD PUSH32 0x8C379A000000000000000000000000000000000000000000000000000000000 DUP2 MSTORE PUSH1 0x4 ADD PUSH2 0x7D9 SWAP1 PUSH2 0x1597 JUMP JUMPDEST PUSH1 0x40 MLOAD DUP1 SWAP2 SUB SWAP1 REVERT JUMPDEST PUSH0 PUSH1 0x2 SLOAD PUSH1 0x64 PUSH2 0x7F2 SWAP2 SWAP1 PUSH2 0x1155 JUMP JUMPDEST PUSH1 0x5 SLOAD PUSH1 0x64 PUSH2 0x801 SWAP2 SWAP1 PUSH2 0x15B5 JUMP JUMPDEST DUP5 PUSH2 0x80C SWAP2 SWAP1 PUSH2 0x1155 JUMP JUMPDEST PUSH2 0x816 SWAP2 SWAP1 PUSH2 0x1615 JUMP JUMPDEST SWAP1 POP DUP1 SELFBALANCE LT ISZERO PUSH2 0x85B JUMPI PUSH1 0x40 MLOAD PUSH32 0x8C379A000000000000000000000000000000000000000000000000000000000 DUP2 MSTORE PUSH1 0x4 ADD PUSH2 0x852 SWAP1 PUSH2 0x16B5 JUMP JUMPDEST PUSH1 0x40 MLOAD DUP1 SWAP2 SUB SWAP1 REVERT JUMPDEST PUSH0 PUSH1 0x1 PUSH0 SWAP1 SLOAD SWAP1 PUSH2 0x100 EXP SWAP1 DIV PUSH20 0xFFFFFFFFFFFFFFFFFFFFFFFFFFFFFFFFFFFFFFFF AND PUSH20 0xFFFFFFFFFFFFFFFFFFFFFFFFFFFFFFFFFFFFFFFF AND PUSH4 0x23B872DD CALLER ADDRESS DUP8 PUSH1 0x40 MLOAD DUP5 PUSH4 0xFFFFFFFF AND PUSH1 0xE0 SHL DUP2 MSTORE PUSH1 0x4 ADD PUSH2 0x8BA SWAP4 SWAP3 SWAP2 SWAP1 PUSH2 0x16D3 JUMP JUMPDEST PUSH1 0x20 PUSH1 0x40 MLOAD DUP1 DUP4 SUB DUP2 PUSH0 DUP8 GAS CALL ISZERO DUP1 ISZERO PUSH2 0x8D6 JUMPI RETURNDATASIZE PUSH0 DUP1 RETURNDATACOPY RETURNDATASIZE PUSH0 REVERT JUMPDEST POP POP POP POP PUSH1 0x40 MLOAD RETURNDATASIZE PUSH1 0x1F NOT PUSH1 0x1F DUP3 ADD AND DUP3 ADD DUP1 PUSH1 0x40 MSTORE POP DUP2 ADD SWAP1 PUSH2 0x8FA SWAP2 SWAP1 PUSH2 0x12CF JUMP JUMPDEST SWAP1 POP DUP1 PUSH2 0x93C JUMPI PUSH1 0x40 MLOAD PUSH32 0x8C379A000000000000000000000000000000000000000000000000000000000 DUP2 MSTORE PUSH1 0x4 ADD PUSH2 0x933 SWAP1 PUSH2 0x1778 JUMP JUMPDEST PUSH1 0x40 MLOAD DUP1 SWAP2 SUB SWAP1 REVERT JUMPDEST PUSH0 CALLER PUSH20 0xFFFFFFFFFFFFFFFFFFFFFFFFFFFFFFFFFFFFFFFF AND DUP4 PUSH1 0x40 MLOAD PUSH2 0x961 SWAP1 PUSH2 0x1443 JUMP JUMPDEST PUSH0 PUSH1 0x40 MLOAD DUP1 DUP4 SUB DUP2 DUP6 DUP8 GAS CALL SWAP3 POP POP POP RETURNDATASIZE DUP1 PUSH0 DUP2 EQ PUSH2 0x99B JUMPI PUSH1 0x40 MLOAD SWAP2 POP PUSH1 0x1F NOT PUSH1 0x3F RETURNDATASIZE ADD AND DUP3 ADD PUSH1 0x40 MSTORE RETURNDATASIZE DUP3 MSTORE RETURNDATASIZE PUSH0 PUSH1 0x20 DUP5 ADD RETURNDATACOPY PUSH2 0x9A0 JUMP JUMPDEST PUSH1 0x60 SWAP2 POP JUMPDEST POP POP SWAP1 POP DUP1 PUSH2 0x9E4 JUMPI PUSH1 0x40 MLOAD PUSH32 0x8C379A000000000000000000000000000000000000000000000000000000000 DUP2 MSTORE PUSH1 0x4 ADD PUSH2 0x9DB SWAP1 PUSH2 0x17E0 JUMP JUMPDEST PUSH1 0x40 MLOAD DUP1 SWAP2 SUB SWAP1 REVERT JUMPDEST PUSH32 0xA24838ACD4AF5195A2396965DAE5ABF54E84E8C19F5698BB966AE64E29994EE5 CALLER DUP7 DUP6 PUSH1 0x40 MLOAD PUSH2 0xA17 SWAP4 SWAP3 SWAP2 SWAP1 PUSH2 0x17FE JUMP JUMPDEST PUSH1 0x40 MLOAD DUP1 SWAP2 SUB SWAP1 LOG1 DUP3 SWAP4 POP POP POP POP SWAP2 SWAP1 POP JUMP JUMPDEST PUSH0 SELFBALANCE SWAP1 POP SWAP1 JUMP JUMPDEST PUSH2 0xA39 PUSH2 0xEA2 JUMP JUMPDEST PUSH2 0xA42 PUSH0 PUSH2 0xF29 JUMP JUMPDEST JUMP JUMPDEST PUSH0 DUP1 PUSH0 SWAP1 SLOAD SWAP1 PUSH2 0x100 EXP SWAP1 DIV PUSH20 0xFFFFFFFFFFFFFFFFFFFFFFFFFFFFFFFFFFFFFFFF AND SWAP1 POP SWAP1 JUMP JUMPDEST PUSH1 0x2 SLOAD DUP2 JUMP JUMPDEST PUSH0 DUP1 CALLVALUE GT PUSH2 0xAB4 JUMPI PUSH1 0x40 MLOAD PUSH32 0x8C379A000000000000000000000000000000000000000000000000000000000 DUP2 MSTORE PUSH1 0x4 ADD PUSH2 0xAAB SWAP1 PUSH2 0x187D JUMP JUMPDEST PUSH1 0x40 MLOAD DUP1 SWAP2 SUB SWAP1 REVERT JUMPDEST PUSH0 PUSH1 0x2 SLOAD CALLVALUE PUSH2 0xAC3 SWAP2 SWAP1 PUSH2 0x1155 JUMP JUMPDEST SWAP1 POP PUSH1 0x3 SLOAD DUP2 GT ISZERO PUSH2 0xB0A JUMPI PUSH1 0x40 MLOAD PUSH32 0x8C379A000000000000000000000000000000000000000000000000000000000 DUP2 MSTORE PUSH1 0x4 ADD PUSH2 0xB01 SWAP1 PUSH2 0x190B JUMP JUMPDEST PUSH1 0x40 MLOAD DUP1 SWAP2 SUB SWAP1 REVERT JUMPDEST PUSH0 PUSH1 0x1 PUSH0 SWAP1 SLOAD SWAP1 PUSH2 0x100 EXP SWAP1 DIV PUSH20 0xFFFFFFFFFFFFFFFFFFFFFFFFFFFFFFFFFFFFFFFF AND PUSH20 0xFFFFFFFFFFFFFFFFFFFFFFFFFFFFFFFFFFFFFFFF AND PUSH4 0x70A08231 ADDRESS PUSH1 0x40 MLOAD DUP3 PUSH4 0xFFFFFFFF AND PUSH1 0xE0 SHL DUP2 MSTORE PUSH1 0x4 ADD PUSH2 0xB65 SWAP2 SWAP1 PUSH2 0x10BA JUMP JUMPDEST PUSH1 0x20 PUSH1 0x40 MLOAD DUP1 DUP4 SUB DUP2 DUP7 GAS STATICCALL ISZERO DUP1 ISZERO PUSH2 0xB80 JUMPI RETURNDATASIZE PUSH0 DUP1 RETURNDATACOPY RETURNDATASIZE PUSH0 REVERT JUMPDEST POP POP POP POP PUSH1 0x40 MLOAD RETURNDATASIZE PUSH1 0x1F NOT PUSH1 0x1F DUP3 ADD AND DUP3 ADD DUP1 PUSH1 0x40 MSTORE POP DUP2 ADD SWAP1 PUSH2 0xBA4 SWAP2 SWAP1 PUSH2 0x11AA JUMP JUMPDEST SWAP1 POP DUP2 DUP2 LT ISZERO PUSH2 0xBE9 JUMPI PUSH1 0x40 MLOAD PUSH32 0x8C379A000000000000000000000000000000000000000000000000000000000 DUP2 MSTORE PUSH1 0x4 ADD PUSH2 0xBE0 SWAP1 PUSH2 0x1999 JUMP JUMPDEST PUSH1 0x40 MLOAD DUP1 SWAP2 SUB SWAP1 REVERT JUMPDEST PUSH0 PUSH1 0x1 PUSH0 SWAP1 SLOAD SWAP1 PUSH2 0x100 EXP SWAP1 DIV PUSH20 0xFFFFFFFFFFFFFFFFFFFFFFFFFFFFFFFFFFFFFFFF AND PUSH20 0xFFFFFFFFFFFFFFFFFFFFFFFFFFFFFFFFFFFFFFFF AND PUSH4 0x70A08231 CALLER PUSH1 0x40 MLOAD DUP3 PUSH4 0xFFFFFFFF AND PUSH1 0xE0 SHL DUP2 MSTORE PUSH1 0x4 ADD PUSH2 0xC44 SWAP2 SWAP1 PUSH2 0x10BA JUMP JUMPDEST PUSH1 0x20 PUSH1 0x40 MLOAD DUP1 DUP4 SUB DUP2 DUP7 GAS STATICCALL ISZERO DUP1 ISZERO PUSH2 0xC5F JUMPI RETURNDATASIZE PUSH0 DUP1 RETURNDATACOPY RETURNDATASIZE PUSH0 REVERT JUMPDEST POP POP POP POP PUSH1 0x40 MLOAD RETURNDATASIZE PUSH1 0x1F NOT PUSH1 0x1F DUP3 ADD AND DUP3 ADD DUP1 PUSH1 0x40 MSTORE POP DUP2 ADD SWAP1 PUSH2 0xC83 SWAP2 SWAP1 PUSH2 0x11AA JUMP JUMPDEST SWAP1 POP PUSH1 0x4 SLOAD DUP4 DUP3 PUSH2 0xC94 SWAP2 SWAP1 PUSH2 0x19B7 JUMP JUMPDEST GT ISZERO PUSH2 0xCD5 JUMPI PUSH1 0x40 MLOAD PUSH32 0x8C379A000000000000000000000000000000000000000000000000000000000 DUP2 MSTORE PUSH1 0x4 ADD PUSH2 0xCCC SWAP1 PUSH2 0x1A5A JUMP JUMPDEST PUSH1 0x40 MLOAD DUP1 SWAP2 SUB SWAP1 REVERT JUMPDEST PUSH0 PUSH1 0x1 PUSH0 SWAP1 SLOAD SWAP1 PUSH2 0x100 EXP SWAP1 DIV PUSH20 0xFFFFFFFFFFFFFFFFFFFFFFFFFFFFFFFFFFFFFFFF AND PUSH20 0xFFFFFFFFFFFFFFFFFFFFFFFFFFFFFFFFFFFFFFFF AND PUSH4 0xA9059CBB CALLER DUP7 PUSH1 0x40 MLOAD DUP4 PUSH4 0xFFFFFFFF AND PUSH1 0xE0 SHL DUP2 MSTORE PUSH1 0x4 ADD PUSH2 0xD32 SWAP3 SWAP2 SWAP1 PUSH2 0x1273 JUMP JUMPDEST PUSH1 0x20 PUSH1 0x40 MLOAD DUP1 DUP4 SUB DUP2 PUSH0 DUP8 GAS CALL ISZERO DUP1 ISZERO PUSH2 0xD4E JUMPI RETURNDATASIZE PUSH0 DUP1 RETURNDATACOPY RETURNDATASIZE PUSH0 REVERT JUMPDEST POP POP POP POP PUSH1 0x40 MLOAD RETURNDATASIZE PUSH1 0x1F NOT PUSH1 0x1F DUP3 ADD AND DUP3 ADD DUP1 PUSH1 0x40 MSTORE POP DUP2 ADD SWAP1 PUSH2 0xD72 SWAP2 SWAP1 PUSH2 0x12CF JUMP JUMPDEST SWAP1 POP DUP1 PUSH2 0xDB4 JUMPI PUSH1 0x40 MLOAD PUSH32 0x8C379A000000000000000000000000000000000000000000000000000000000 DUP2 MSTORE PUSH1 0x4 ADD PUSH2 0xDAB SWAP1 PUSH2 0x1AC2 JUMP JUMPDEST PUSH1 0x40 MLOAD DUP1 SWAP2 SUB SWAP1 REVERT JUMPDEST PUSH32 0xA37B72BB67EEE30E09084CF386F8A17817C57F620C3AB95FB25D6A20356EC77 CALLER CALLVALUE DUP7 PUSH1 0x40 MLOAD PUSH2 0xDE7 SWAP4 SWAP3 SWAP2 SWAP1 PUSH2 0x17FE JUMP JUMPDEST PUSH1 0x40 MLOAD DUP1 SWAP2 SUB SWAP1 LOG1 DUP4 SWAP5 POP POP POP POP POP SWAP1 JUMP JUMPDEST PUSH2 0xE01 PUSH2 0xEA2 JUMP JUMPDEST PUSH8 0xDE0B6B3A7640000 DUP2 PUSH2 0xE15 SWAP2 SWAP1 PUSH2 0x1155 JUMP JUMPDEST PUSH1 0x4 DUP2 SWAP1 SSTORE POP POP JUMP JUMPDEST PUSH2 0xE26 PUSH2 0xEA2 JUMP JUMPDEST PUSH0 PUSH20 0xFFFFFFFFFFFFFFFFFFFFFFFFFFFFFFFFFFFFFFFF AND DUP2 PUSH20 0xFFFFFFFFFFFFFFFFFFFFFFFFFFFFFFFFFFFFFFFF AND SUB PUSH2 0xE96 JUMPI PUSH0 PUSH1 0x40 MLOAD PUSH32 0x1E4FBDF700000000000000000000000000000000000000000000000000000000 DUP2 MSTORE PUSH1 0x4 ADD PUSH2 0xE8D SWAP2 SWAP1 PUSH2 0x10BA JUMP JUMPDEST PUSH1 0x40 MLOAD DUP1 SWAP2 SUB SWAP1 REVERT JUMPDEST PUSH2 0xE9F DUP2 PUSH2 0xF29 JUMP JUMPDEST POP JUMP JUMPDEST PUSH2 0xEAA PUSH2 0xFEA JUMP JUMPDEST PUSH20 0xFFFFFFFFFFFFFFFFFFFFFFFFFFFFFFFFFFFFFFFF AND PUSH2 0xEC8 PUSH2 0xA44 JUMP JUMPDEST PUSH20 0xFFFFFFFFFFFFFFFFFFFFFFFFFFFFFFFFFFFFFFFF AND EQ PUSH2 0xF27 JUMPI PUSH2 0xEEB PUSH2 0xFEA JUMP JUMPDEST PUSH1 0x40 MLOAD PUSH32 0x118CDAA700000000000000000000000000000000000000000000000000000000 DUP2 MSTORE PUSH1 0x4 ADD PUSH2 0xF1E SWAP2 SWAP1 PUSH2 0x10BA JUMP JUMPDEST PUSH1 0x40 MLOAD DUP1 SWAP2 SUB SWAP1 REVERT JUMPDEST JUMP JUMPDEST PUSH0 DUP1 PUSH0 SWAP1 SLOAD SWAP1 PUSH2 0x100 EXP SWAP1 DIV PUSH20 0xFFFFFFFFFFFFFFFFFFFFFFFFFFFFFFFFFFFFFFFF AND SWAP1 POP DUP2 PUSH0 DUP1 PUSH2 0x100 EXP DUP2 SLOAD DUP2 PUSH20 0xFFFFFFFFFFFFFFFFFFFFFFFFFFFFFFFFFFFFFFFF MUL NOT AND SWAP1 DUP4 PUSH20 0xFFFFFFFFFFFFFFFFFFFFFFFFFFFFFFFFFFFFFFFF AND MUL OR SWAP1 SSTORE POP DUP2 PUSH20 0xFFFFFFFFFFFFFFFFFFFFFFFFFFFFFFFFFFFFFFFF AND DUP2 PUSH20 0xFFFFFFFFFFFFFFFFFFFFFFFFFFFFFFFFFFFFFFFF AND PUSH32 0x8BE0079C531659141344CD1FD0A4F28419497F9722A3DAAFE3B4186F6B6457E0 PUSH1 0x40 MLOAD PUSH1 0x40 MLOAD DUP1 SWAP2 SUB SWAP1 LOG3 POP POP JUMP JUMPDEST PUSH0 CALLER SWAP1 POP SWAP1 JUMP JUMPDEST PUSH0 DUP2 SWAP1 POP SWAP2 SWAP1 POP JUMP JUMPDEST PUSH2 0x1003 DUP2 PUSH2 0xFF1 JUMP JUMPDEST DUP3 MSTORE POP POP JUMP JUMPDEST PUSH0 PUSH1 0x20 DUP3 ADD SWAP1 POP PUSH2 0x101C PUSH0 DUP4 ADD DUP5 PUSH2 0xFFA JUMP JUMPDEST SWAP3 SWAP2 POP POP JUMP JUMPDEST PUSH0 DUP1 REVERT JUMPDEST PUSH2 0x102F DUP2 PUSH2 0xFF1 JUMP JUMPDEST DUP2 EQ PUSH2 0x1039 JUMPI PUSH0 DUP1 REVERT JUMPDEST POP JUMP JUMPDEST PUSH0 DUP2 CALLDATALOAD SWAP1 POP PUSH2 0x104A DUP2 PUSH2 0x1026 JUMP JUMPDEST SWAP3 SWAP2 POP POP JUMP JUMPDEST PUSH0 PUSH1 0x20 DUP3 DUP5 SUB SLT ISZERO PUSH2 0x1065 JUMPI PUSH2 0x1064 PUSH2 0x1022 JUMP JUMPDEST JUMPDEST PUSH0 PUSH2 0x1072 DUP5 DUP3 DUP6 ADD PUSH2 0x103C JUMP JUMPDEST SWAP2 POP POP SWAP3 SWAP2 POP POP JUMP JUMPDEST PUSH0 PUSH20 0xFFFFFFFFFFFFFFFFFFFFFFFFFFFFFFFFFFFFFFFF DUP3 AND SWAP1 POP SWAP2 SWAP1 POP JUMP JUMPDEST PUSH0 PUSH2 0x10A4 DUP3 PUSH2 0x107B JUMP JUMPDEST SWAP1 POP SWAP2 SWAP1 POP JUMP JUMPDEST PUSH2 0x10B4 DUP2 PUSH2 0x109A JUMP JUMPDEST DUP3 MSTORE POP POP JUMP JUMPDEST PUSH0 PUSH1 0x20 DUP3 ADD SWAP1 POP PUSH2 0x10CD PUSH0 DUP4 ADD DUP5 PUSH2 0x10AB JUMP JUMPDEST SWAP3 SWAP2 POP POP JUMP JUMPDEST PUSH2 0x10DC DUP2 PUSH2 0x109A JUMP JUMPDEST DUP2 EQ PUSH2 0x10E6 JUMPI PUSH0 DUP1 REVERT JUMPDEST POP JUMP JUMPDEST PUSH0 DUP2 CALLDATALOAD SWAP1 POP PUSH2 0x10F7 DUP2 PUSH2 0x10D3 JUMP JUMPDEST SWAP3 SWAP2 POP POP JUMP JUMPDEST PUSH0 PUSH1 0x20 DUP3 DUP5 SUB SLT ISZERO PUSH2 0x1112 JUMPI PUSH2 0x1111 PUSH2 0x1022 JUMP JUMPDEST JUMPDEST PUSH0 PUSH2 0x111F DUP5 DUP3 DUP6 ADD PUSH2 0x10E9 JUMP JUMPDEST SWAP2 POP POP SWAP3 SWAP2 POP POP JUMP JUMPDEST PUSH32 0x4E487B7100000000000000000000000000000000000000000000000000000000 PUSH0 MSTORE PUSH1 0x11 PUSH1 0x4 MSTORE PUSH1 0x24 PUSH0 REVERT JUMPDEST PUSH0 PUSH2 0x115F DUP3 PUSH2 0xFF1 JUMP JUMPDEST SWAP2 POP PUSH2 0x116A DUP4 PUSH2 0xFF1 JUMP JUMPDEST SWAP3 POP DUP3 DUP3 MUL PUSH2 0x1178 DUP2 PUSH2 0xFF1 JUMP JUMPDEST SWAP2 POP DUP3 DUP3 DIV DUP5 EQ DUP4 ISZERO OR PUSH2 0x118F JUMPI PUSH2 0x118E PUSH2 0x1128 JUMP JUMPDEST JUMPDEST POP SWAP3 SWAP2 POP POP JUMP JUMPDEST PUSH0 DUP2 MLOAD SWAP1 POP PUSH2 0x11A4 DUP2 PUSH2 0x1026 JUMP JUMPDEST SWAP3 SWAP2 POP POP JUMP JUMPDEST PUSH0 PUSH1 0x20 DUP3 DUP5 SUB SLT ISZERO PUSH2 0x11BF JUMPI PUSH2 0x11BE PUSH2 0x1022 JUMP JUMPDEST JUMPDEST PUSH0 PUSH2 0x11CC DUP5 DUP3 DUP6 ADD PUSH2 0x1196 JUMP JUMPDEST SWAP2 POP POP SWAP3 SWAP2 POP POP JUMP JUMPDEST PUSH0 DUP3 DUP3 MSTORE PUSH1 0x20 DUP3 ADD SWAP1 POP SWAP3 SWAP2 POP POP JUMP JUMPDEST PUSH32 0x56656E646F7220636F6E747261637420686173206E6F7420656E6F7567682074 PUSH0 DUP3 ADD MSTORE PUSH32 0x6F6B656E7320746F207769746864726177000000000000000000000000000000 PUSH1 0x20 DUP3 ADD MSTORE POP JUMP JUMPDEST PUSH0 PUSH2 0x123F PUSH1 0x31 DUP4 PUSH2 0x11D5 JUMP JUMPDEST SWAP2 POP PUSH2 0x124A DUP3 PUSH2 0x11E5 JUMP JUMPDEST PUSH1 0x40 DUP3 ADD SWAP1 POP SWAP2 SWAP1 POP JUMP JUMPDEST PUSH0 PUSH1 0x20 DUP3 ADD SWAP1 POP DUP2 DUP2 SUB PUSH0 DUP4 ADD MSTORE PUSH2 0x126C DUP2 PUSH2 0x1233 JUMP JUMPDEST SWAP1 POP SWAP2 SWAP1 POP JUMP JUMPDEST PUSH0 PUSH1 0x40 DUP3 ADD SWAP1 POP PUSH2 0x1286 PUSH0 DUP4 ADD DUP6 PUSH2 0x10AB JUMP JUMPDEST PUSH2 0x1293 PUSH1 0x20 DUP4 ADD DUP5 PUSH2 0xFFA JUMP JUMPDEST SWAP4 SWAP3 POP POP POP JUMP JUMPDEST PUSH0 DUP2 ISZERO ISZERO SWAP1 POP SWAP2 SWAP1 POP JUMP JUMPDEST PUSH2 0x12AE DUP2 PUSH2 0x129A JUMP JUMPDEST DUP2 EQ PUSH2 0x12B8 JUMPI PUSH0 DUP1 REVERT JUMPDEST POP JUMP JUMPDEST PUSH0 DUP2 MLOAD SWAP1 POP PUSH2 0x12C9 DUP2 PUSH2 0x12A5 JUMP JUMPDEST SWAP3 SWAP2 POP POP JUMP JUMPDEST PUSH0 PUSH1 0x20 DUP3 DUP5 SUB SLT ISZERO PUSH2 0x12E4 JUMPI PUSH2 0x12E3 PUSH2 0x1022 JUMP JUMPDEST JUMPDEST PUSH0 PUSH2 0x12F1 DUP5 DUP3 DUP6 ADD PUSH2 0x12BB JUMP JUMPDEST SWAP2 POP POP SWAP3 SWAP2 POP POP JUMP JUMPDEST PUSH32 0x4661696C656420746F207472616E7366657220746F6B656E7320746F20746865 PUSH0 DUP3 ADD MSTORE PUSH32 0x206F776E65720000000000000000000000000000000000000000000000000000 PUSH1 0x20 DUP3 ADD MSTORE POP JUMP JUMPDEST PUSH0 PUSH2 0x1354 PUSH1 0x26 DUP4 PUSH2 0x11D5 JUMP JUMPDEST SWAP2 POP PUSH2 0x135F DUP3 PUSH2 0x12FA JUMP JUMPDEST PUSH1 0x40 DUP3 ADD SWAP1 POP SWAP2 SWAP1 POP JUMP JUMPDEST PUSH0 PUSH1 0x20 DUP3 ADD SWAP1 POP DUP2 DUP2 SUB PUSH0 DUP4 ADD MSTORE PUSH2 0x1381 DUP2 PUSH2 0x1348 JUMP JUMPDEST SWAP1 POP SWAP2 SWAP1 POP JUMP JUMPDEST PUSH32 0x4F776E657220686173206E6F742062616C616E636520746F2077697468647261 PUSH0 DUP3 ADD MSTORE PUSH32 0x7700000000000000000000000000000000000000000000000000000000000000 PUSH1 0x20 DUP3 ADD MSTORE POP JUMP JUMPDEST PUSH0 PUSH2 0x13E2 PUSH1 0x21 DUP4 PUSH2 0x11D5 JUMP JUMPDEST SWAP2 POP PUSH2 0x13ED DUP3 PUSH2 0x1388 JUMP JUMPDEST PUSH1 0x40 DUP3 ADD SWAP1 POP SWAP2 SWAP1 POP JUMP JUMPDEST PUSH0 PUSH1 0x20 DUP3 ADD SWAP1 POP DUP2 DUP2 SUB PUSH0 DUP4 ADD MSTORE PUSH2 0x140F DUP2 PUSH2 0x13D6 JUMP JUMPDEST SWAP1 POP SWAP2 SWAP1 POP JUMP JUMPDEST PUSH0 DUP2 SWAP1 POP SWAP3 SWAP2 POP POP JUMP JUMPDEST POP JUMP JUMPDEST PUSH0 PUSH2 0x142E PUSH0 DUP4 PUSH2 0x1416 JUMP JUMPDEST SWAP2 POP PUSH2 0x1439 DUP3 PUSH2 0x1420 JUMP JUMPDEST PUSH0 DUP3 ADD SWAP1 POP SWAP2 SWAP1 POP JUMP JUMPDEST PUSH0 PUSH2 0x144D DUP3 PUSH2 0x1423 JUMP JUMPDEST SWAP2 POP DUP2 SWAP1 POP SWAP2 SWAP1 POP JUMP JUMPDEST PUSH32 0x4661696C656420746F2073656E6420757365722062616C616E6365206261636B PUSH0 DUP3 ADD MSTORE PUSH32 0x20746F20746865206F776E657200000000000000000000000000000000000000 PUSH1 0x20 DUP3 ADD MSTORE POP JUMP JUMPDEST PUSH0 PUSH2 0x14B1 PUSH1 0x2D DUP4 PUSH2 0x11D5 JUMP JUMPDEST SWAP2 POP PUSH2 0x14BC DUP3 PUSH2 0x1457 JUMP JUMPDEST PUSH1 0x40 DUP3 ADD SWAP1 POP SWAP2 SWAP1 POP JUMP JUMPDEST PUSH0 PUSH1 0x20 DUP3 ADD SWAP1 POP DUP2 DUP2 SUB PUSH0 DUP4 ADD MSTORE PUSH2 0x14DE DUP2 PUSH2 0x14A5 JUMP JUMPDEST SWAP1 POP SWAP2 SWAP1 POP JUMP JUMPDEST PUSH32 0x5370656369667920616D6F756E74206F6620746F6B656E7320746F2073656C6C PUSH0 DUP3 ADD MSTORE POP JUMP JUMPDEST PUSH0 PUSH2 0x1519 PUSH1 0x20 DUP4 PUSH2 0x11D5 JUMP JUMPDEST SWAP2 POP PUSH2 0x1524 DUP3 PUSH2 0x14E5 JUMP JUMPDEST PUSH1 0x20 DUP3 ADD SWAP1 POP SWAP2 SWAP1 POP JUMP JUMPDEST PUSH0 PUSH1 0x20 DUP3 ADD SWAP1 POP DUP2 DUP2 SUB PUSH0 DUP4 ADD MSTORE PUSH2 0x1546 DUP2 PUSH2 0x150D JUMP JUMPDEST SWAP1 POP SWAP2 SWAP1 POP JUMP JUMPDEST PUSH32 0x496E73756666696369656E7420746F6B656E2062616C616E6365000000000000 PUSH0 DUP3 ADD MSTORE POP JUMP JUMPDEST PUSH0 PUSH2 0x1581 PUSH1 0x1A DUP4 PUSH2 0x11D5 JUMP JUMPDEST SWAP2 POP PUSH2 0x158C DUP3 PUSH2 0x154D JUMP JUMPDEST PUSH1 0x20 DUP3 ADD SWAP1 POP SWAP2 SWAP1 POP JUMP JUMPDEST PUSH0 PUSH1 0x20 DUP3 ADD SWAP1 POP DUP2 DUP2 SUB PUSH0 DUP4 ADD MSTORE PUSH2 0x15AE DUP2 PUSH2 0x1575 JUMP JUMPDEST SWAP1 POP SWAP2 SWAP1 POP JUMP JUMPDEST PUSH0 PUSH2 0x15BF DUP3 PUSH2 0xFF1 JUMP JUMPDEST SWAP2 POP PUSH2 0x15CA DUP4 PUSH2 0xFF1 JUMP JUMPDEST SWAP3 POP DUP3 DUP3 SUB SWAP1 POP DUP2 DUP2 GT ISZERO PUSH2 0x15E2 JUMPI PUSH2 0x15E1 PUSH2 0x1128 JUMP JUMPDEST JUMPDEST SWAP3 SWAP2 POP POP JUMP JUMPDEST PUSH32 0x4E487B7100000000000000000000000000000000000000000000000000000000 PUSH0 MSTORE PUSH1 0x12 PUSH1 0x4 MSTORE PUSH1 0x24 PUSH0 REVERT JUMPDEST PUSH0 PUSH2 0x161F DUP3 PUSH2 0xFF1 JUMP JUMPDEST SWAP2 POP PUSH2 0x162A DUP4 PUSH2 0xFF1 JUMP JUMPDEST SWAP3 POP DUP3 PUSH2 0x163A JUMPI PUSH2 0x1639 PUSH2 0x15E8 JUMP JUMPDEST JUMPDEST DUP3 DUP3 DIV SWAP1 POP SWAP3 SWAP2 POP POP JUMP JUMPDEST PUSH32 0x496E73756666696369656E7420436F696E2062616C616E636520696E20636F6E PUSH0 DUP3 ADD MSTORE PUSH32 0x7472616374000000000000000000000000000000000000000000000000000000 PUSH1 0x20 DUP3 ADD MSTORE POP JUMP JUMPDEST PUSH0 PUSH2 0x169F PUSH1 0x25 DUP4 PUSH2 0x11D5 JUMP JUMPDEST SWAP2 POP PUSH2 0x16AA DUP3 PUSH2 0x1645 JUMP JUMPDEST PUSH1 0x40 DUP3 ADD SWAP1 POP SWAP2 SWAP1 POP JUMP JUMPDEST PUSH0 PUSH1 0x20 DUP3 ADD SWAP1 POP DUP2 DUP2 SUB PUSH0 DUP4 ADD MSTORE PUSH2 0x16CC DUP2 PUSH2 0x1693 JUMP JUMPDEST SWAP1 POP SWAP2 SWAP1 POP JUMP JUMPDEST PUSH0 PUSH1 0x60 DUP3 ADD SWAP1 POP PUSH2 0x16E6 PUSH0 DUP4 ADD DUP7 PUSH2 0x10AB JUMP JUMPDEST PUSH2 0x16F3 PUSH1 0x20 DUP4 ADD DUP6 PUSH2 0x10AB JUMP JUMPDEST PUSH2 0x1700 PUSH1 0x40 DUP4 ADD DUP5 PUSH2 0xFFA JUMP JUMPDEST SWAP5 SWAP4 POP POP POP POP JUMP JUMPDEST PUSH32 0x4661696C656420746F207472616E7366657220746F6B656E20746F20636F6E74 PUSH0 DUP3 ADD MSTORE PUSH32 0x7261637400000000000000000000000000000000000000000000000000000000 PUSH1 0x20 DUP3 ADD MSTORE POP JUMP JUMPDEST PUSH0 PUSH2 0x1762 PUSH1 0x24 DUP4 PUSH2 0x11D5 JUMP JUMPDEST SWAP2 POP PUSH2 0x176D DUP3 PUSH2 0x1708 JUMP JUMPDEST PUSH1 0x40 DUP3 ADD SWAP1 POP SWAP2 SWAP1 POP JUMP JUMPDEST PUSH0 PUSH1 0x20 DUP3 ADD SWAP1 POP DUP2 DUP2 SUB PUSH0 DUP4 ADD MSTORE PUSH2 0x178F DUP2 PUSH2 0x1756 JUMP JUMPDEST SWAP1 POP SWAP2 SWAP1 POP JUMP JUMPDEST PUSH32 0x4661696C656420746F2073656E6420436F696E20746F20757365720000000000 PUSH0 DUP3 ADD MSTORE POP JUMP JUMPDEST PUSH0 PUSH2 0x17CA PUSH1 0x1B DUP4 PUSH2 0x11D5 JUMP JUMPDEST SWAP2 POP PUSH2 0x17D5 DUP3 PUSH2 0x1796 JUMP JUMPDEST PUSH1 0x20 DUP3 ADD SWAP1 POP SWAP2 SWAP1 POP JUMP JUMPDEST PUSH0 PUSH1 0x20 DUP3 ADD SWAP1 POP DUP2 DUP2 SUB PUSH0 DUP4 ADD MSTORE PUSH2 0x17F7 DUP2 PUSH2 0x17BE JUMP JUMPDEST SWAP1 POP SWAP2 SWAP1 POP JUMP JUMPDEST PUSH0 PUSH1 0x60 DUP3 ADD SWAP1 POP PUSH2 0x1811 PUSH0 DUP4 ADD DUP7 PUSH2 0x10AB JUMP JUMPDEST PUSH2 0x181E PUSH1 0x20 DUP4 ADD DUP6 PUSH2 0xFFA JUMP JUMPDEST PUSH2 0x182B PUSH1 0x40 DUP4 ADD DUP5 PUSH2 0xFFA JUMP JUMPDEST SWAP5 SWAP4 POP POP POP POP JUMP JUMPDEST PUSH32 0x53656E6420436F696E20746F2062757920736F6D6520746F6B656E7300000000 PUSH0 DUP3 ADD MSTORE POP JUMP JUMPDEST PUSH0 PUSH2 0x1867 PUSH1 0x1C DUP4 PUSH2 0x11D5 JUMP JUMPDEST SWAP2 POP PUSH2 0x1872 DUP3 PUSH2 0x1833 JUMP JUMPDEST PUSH1 0x20 DUP3 ADD SWAP1 POP SWAP2 SWAP1 POP JUMP JUMPDEST PUSH0 PUSH1 0x20 DUP3 ADD SWAP1 POP DUP2 DUP2 SUB PUSH0 DUP4 ADD MSTORE PUSH2 0x1894 DUP2 PUSH2 0x185B JUMP JUMPDEST SWAP1 POP SWAP2 SWAP1 POP JUMP JUMPDEST PUSH32 0x45786365656473206D6178696D756D20746F6B656E7320706572207075726368 PUSH0 DUP3 ADD MSTORE PUSH32 0x6173650000000000000000000000000000000000000000000000000000000000 PUSH1 0x20 DUP3 ADD MSTORE POP JUMP JUMPDEST PUSH0 PUSH2 0x18F5 PUSH1 0x23 DUP4 PUSH2 0x11D5 JUMP JUMPDEST SWAP2 POP PUSH2 0x1900 DUP3 PUSH2 0x189B JUMP JUMPDEST PUSH1 0x40 DUP3 ADD SWAP1 POP SWAP2 SWAP1 POP JUMP JUMPDEST PUSH0 PUSH1 0x20 DUP3 ADD SWAP1 POP DUP2 DUP2 SUB PUSH0 DUP4 ADD MSTORE PUSH2 0x1922 DUP2 PUSH2 0x18E9 JUMP JUMPDEST SWAP1 POP SWAP2 SWAP1 POP JUMP JUMPDEST PUSH32 0x56656E646F7220636F6E747261637420686173206E6F7420656E6F7567682074 PUSH0 DUP3 ADD MSTORE PUSH32 0x6F6B656E7320696E206974732062616C616E6365000000000000000000000000 PUSH1 0x20 DUP3 ADD MSTORE POP JUMP JUMPDEST PUSH0 PUSH2 0x1983 PUSH1 0x34 DUP4 PUSH2 0x11D5 JUMP JUMPDEST SWAP2 POP PUSH2 0x198E DUP3 PUSH2 0x1929 JUMP JUMPDEST PUSH1 0x40 DUP3 ADD SWAP1 POP SWAP2 SWAP1 POP JUMP JUMPDEST PUSH0 PUSH1 0x20 DUP3 ADD SWAP1 POP DUP2 DUP2 SUB PUSH0 DUP4 ADD MSTORE PUSH2 0x19B0 DUP2 PUSH2 0x1977 JUMP JUMPDEST SWAP1 POP SWAP2 SWAP1 POP JUMP JUMPDEST PUSH0 PUSH2 0x19C1 DUP3 PUSH2 0xFF1 JUMP JUMPDEST SWAP2 POP PUSH2 0x19CC DUP4 PUSH2 0xFF1 JUMP JUMPDEST SWAP3 POP DUP3 DUP3 ADD SWAP1 POP DUP1 DUP3 GT ISZERO PUSH2 0x19E4 JUMPI PUSH2 0x19E3 PUSH2 0x1128 JUMP JUMPDEST JUMPDEST SWAP3 SWAP2 POP POP JUMP JUMPDEST PUSH32 0x45786365656473206D6178696D756D20746F6B656E7320706572206164647265 PUSH0 DUP3 ADD MSTORE PUSH32 0x7373000000000000000000000000000000000000000000000000000000000000 PUSH1 0x20 DUP3 ADD MSTORE POP JUMP JUMPDEST PUSH0 PUSH2 0x1A44 PUSH1 0x22 DUP4 PUSH2 0x11D5 JUMP JUMPDEST SWAP2 POP PUSH2 0x1A4F DUP3 PUSH2 0x19EA JUMP JUMPDEST PUSH1 0x40 DUP3 ADD SWAP1 POP SWAP2 SWAP1 POP JUMP JUMPDEST PUSH0 PUSH1 0x20 DUP3 ADD SWAP1 POP DUP2 DUP2 SUB PUSH0 DUP4 ADD MSTORE PUSH2 0x1A71 DUP2 PUSH2 0x1A38 JUMP JUMPDEST SWAP1 POP SWAP2 SWAP1 POP JUMP JUMPDEST PUSH32 0x4661696C656420746F207472616E7366657220746F6B656E20746F2075736572 PUSH0 DUP3 ADD MSTORE POP JUMP JUMPDEST PUSH0 PUSH2 0x1AAC PUSH1 0x20 DUP4 PUSH2 0x11D5 JUMP JUMPDEST SWAP2 POP PUSH2 0x1AB7 DUP3 PUSH2 0x1A78 JUMP JUMPDEST PUSH1 0x20 DUP3 ADD SWAP1 POP SWAP2 SWAP1 POP JUMP JUMPDEST PUSH0 PUSH1 0x20 DUP3 ADD SWAP1 POP DUP2 DUP2 SUB PUSH0 DUP4 ADD MSTORE PUSH2 0x1AD9 DUP2 PUSH2 0x1AA0 JUMP JUMPDEST SWAP1 POP SWAP2 SWAP1 POP JUMP INVALID LOG2 PUSH5 0x6970667358 0x22 SLT KECCAK256 0xB5 DUP12 EXP DUP7 0xED JUMPI PUSH19 0x1144977166B4487E9628C24678EBED5ECF0168 EXTCODEHASH PUSH12 0x8B94F38764736F6C63430008 BYTE STOP CALLER "
				},
				"gasEstimates": {
					"creation": {
						"codeDepositCost": "1386800",
						"executionCost": "infinite",
						"totalCost": "infinite"
					},
					"external": {
						"buyTokens()": "infinite",
						"getContractBalance()": "379",
						"maxTokensPerAddress()": "2515",
						"maxTokensPerPurchase()": "2514",
						"owner()": "2604",
						"renounceOwnership()": "infinite",
						"sellDiscountPercent()": "2449",
						"sellTokens(uint256)": "infinite",
						"setMaxTokensPerAddress(uint256)": "infinite",
						"setMaxTokensPerPurchase(uint256)": "infinite",
						"setSellDiscountPercent(uint256)": "infinite",
						"setTokensPerCoin(uint256)": "infinite",
						"tokensPerCoin()": "2447",
						"transferOwnership(address)": "infinite",
						"withdraw()": "infinite",
						"withdrawTokens(uint256)": "infinite"
					}
				},
				"methodIdentifiers": {
					"buyTokens()": "d0febe4c",
					"getContractBalance()": "6f9fb98a",
					"maxTokensPerAddress()": "23a1baaa",
					"maxTokensPerPurchase()": "57715207",
					"owner()": "8da5cb5b",
					"renounceOwnership()": "715018a6",
					"sellDiscountPercent()": "0a431e52",
					"sellTokens(uint256)": "6c11bcd3",
					"setMaxTokensPerAddress(uint256)": "dbb84f11",
					"setMaxTokensPerPurchase(uint256)": "1b326fad",
					"setSellDiscountPercent(uint256)": "1369bfee",
					"setTokensPerCoin(uint256)": "453989b2",
					"tokensPerCoin()": "cb232842",
					"transferOwnership(address)": "f2fde38b",
					"withdraw()": "3ccfd60b",
					"withdrawTokens(uint256)": "315a095d"
				}
			},
			"storageLayout": {
				"storage": [
					{
						"astId": 8,
						"contract": "contracts/BuyToken.sol:buy_sell_Token",
						"label": "_owner",
						"offset": 0,
						"slot": "0",
						"type": "t_address"
					},
					{
						"astId": 942,
						"contract": "contracts/BuyToken.sol:buy_sell_Token",
						"label": "minervaToken",
						"offset": 0,
						"slot": "1",
						"type": "t_contract(MinervaToken)1383"
					},
					{
						"astId": 945,
						"contract": "contracts/BuyToken.sol:buy_sell_Token",
						"label": "tokensPerCoin",
						"offset": 0,
						"slot": "2",
						"type": "t_uint256"
					},
					{
						"astId": 953,
						"contract": "contracts/BuyToken.sol:buy_sell_Token",
						"label": "maxTokensPerPurchase",
						"offset": 0,
						"slot": "3",
						"type": "t_uint256"
					},
					{
						"astId": 961,
						"contract": "contracts/BuyToken.sol:buy_sell_Token",
						"label": "maxTokensPerAddress",
						"offset": 0,
						"slot": "4",
						"type": "t_uint256"
					},
					{
						"astId": 964,
						"contract": "contracts/BuyToken.sol:buy_sell_Token",
						"label": "sellDiscountPercent",
						"offset": 0,
						"slot": "5",
						"type": "t_uint256"
					}
				],
				"types": {
					"t_address": {
						"encoding": "inplace",
						"label": "address",
						"numberOfBytes": "20"
					},
					"t_contract(MinervaToken)1383": {
						"encoding": "inplace",
						"label": "contract MinervaToken",
						"numberOfBytes": "20"
					},
					"t_uint256": {
						"encoding": "inplace",
						"label": "uint256",
						"numberOfBytes": "32"
					}
				}
			},
			"userdoc": {
				"kind": "user",
				"methods": {},
				"version": 1
			}
		}
	}
}