{
	"contracts/tokenSwap,sol.sol": {
		"TokenSwap": {
			"abi": [
				{
					"inputs": [
						{
							"internalType": "address",
							"name": "_tokenXAddress",
							"type": "address"
						},
						{
							"internalType": "address",
							"name": "_tokenYAddress",
							"type": "address"
						},
						{
							"internalType": "uint256",
							"name": "_exchangeRate",
							"type": "uint256"
						}
					],
					"stateMutability": "nonpayable",
					"type": "constructor"
				},
				{
					"inputs": [
						{
							"internalType": "address",
							"name": "owner",
							"type": "address"
						}
					],
					"name": "OwnableInvalidOwner",
					"type": "error"
				},
				{
					"inputs": [
						{
							"internalType": "address",
							"name": "account",
							"type": "address"
						}
					],
					"name": "OwnableUnauthorizedAccount",
					"type": "error"
				},
				{
					"anonymous": false,
					"inputs": [
						{
							"indexed": true,
							"internalType": "address",
							"name": "previousOwner",
							"type": "address"
						},
						{
							"indexed": true,
							"internalType": "address",
							"name": "newOwner",
							"type": "address"
						}
					],
					"name": "OwnershipTransferred",
					"type": "event"
				},
				{
					"anonymous": false,
					"inputs": [
						{
							"indexed": true,
							"internalType": "address",
							"name": "user",
							"type": "address"
						},
						{
							"indexed": false,
							"internalType": "uint256",
							"name": "amountOfTokenX",
							"type": "uint256"
						},
						{
							"indexed": false,
							"internalType": "uint256",
							"name": "amountOfTokenY",
							"type": "uint256"
						}
					],
					"name": "Swap",
					"type": "event"
				},
				{
					"inputs": [],
					"name": "exchangeRate",
					"outputs": [
						{
							"internalType": "uint256",
							"name": "",
							"type": "uint256"
						}
					],
					"stateMutability": "view",
					"type": "function"
				},
				{
					"inputs": [],
					"name": "owner",
					"outputs": [
						{
							"internalType": "address",
							"name": "",
							"type": "address"
						}
					],
					"stateMutability": "view",
					"type": "function"
				},
				{
					"inputs": [],
					"name": "renounceOwnership",
					"outputs": [],
					"stateMutability": "nonpayable",
					"type": "function"
				},
				{
					"inputs": [
						{
							"internalType": "uint256",
							"name": "amountOfTokenX",
							"type": "uint256"
						}
					],
					"name": "swapTokens",
					"outputs": [],
					"stateMutability": "nonpayable",
					"type": "function"
				},
				{
					"inputs": [],
					"name": "tokenX",
					"outputs": [
						{
							"internalType": "contract IERC20",
							"name": "",
							"type": "address"
						}
					],
					"stateMutability": "view",
					"type": "function"
				},
				{
					"inputs": [],
					"name": "tokenY",
					"outputs": [
						{
							"internalType": "contract IERC20",
							"name": "",
							"type": "address"
						}
					],
					"stateMutability": "view",
					"type": "function"
				},
				{
					"inputs": [
						{
							"internalType": "address",
							"name": "newOwner",
							"type": "address"
						}
					],
					"name": "transferOwnership",
					"outputs": [],
					"stateMutability": "nonpayable",
					"type": "function"
				},
				{
					"inputs": [],
					"name": "withdrawTokens",
					"outputs": [],
					"stateMutability": "nonpayable",
					"type": "function"
				}
			],
			"devdoc": {
				"errors": {
					"OwnableInvalidOwner(address)": [
						{
							"details": "The owner is not a valid owner account. (eg. `address(0)`)"
						}
					],
					"OwnableUnauthorizedAccount(address)": [
						{
							"details": "The caller account is not authorized to perform an operation."
						}
					]
				},
				"kind": "dev",
				"methods": {
					"owner()": {
						"details": "Returns the address of the current owner."
					},
					"renounceOwnership()": {
						"details": "Leaves the contract without owner. It will not be possible to call `onlyOwner` functions. Can only be called by the current owner. NOTE: Renouncing ownership will leave the contract without an owner, thereby disabling any functionality that is only available to the owner."
					},
					"transferOwnership(address)": {
						"details": "Transfers ownership of the contract to a new account (`newOwner`). Can only be called by the current owner."
					}
				},
				"version": 1
			},
			"evm": {
				"assembly": "    /* \"contracts/tokenSwap,sol.sol\":175:1983  contract TokenSwap is Ownable {... */\n  mstore(0x40, 0x80)\n    /* \"contracts/tokenSwap,sol.sol\":423:657  constructor(address _tokenXAddress, address _tokenYAddress, uint256 _exchangeRate) Ownable(msg.sender) {... */\n  callvalue\n  dup1\n  iszero\n  tag_1\n  jumpi\n  0x00\n  dup1\n  revert\ntag_1:\n  pop\n  mload(0x40)\n  sub(codesize, bytecodeSize)\n  dup1\n  bytecodeSize\n  dup4\n  codecopy\n  dup2\n  dup2\n  add\n  0x40\n  mstore\n  dup2\n  add\n  swap1\n  tag_2\n  swap2\n  swap1\n  tag_3\n  jump\t// in\ntag_2:\n    /* \"contracts/tokenSwap,sol.sol\":514:524  msg.sender */\n  caller\n    /* \"@openzeppelin/contracts/access/Ownable.sol\":1297:1298  0 */\n  0x00\n    /* \"@openzeppelin/contracts/access/Ownable.sol\":1273:1299  initialOwner == address(0) */\n  0xffffffffffffffffffffffffffffffffffffffff\n  and\n    /* \"@openzeppelin/contracts/access/Ownable.sol\":1273:1285  initialOwner */\n  dup2\n    /* \"@openzeppelin/contracts/access/Ownable.sol\":1273:1299  initialOwner == address(0) */\n  0xffffffffffffffffffffffffffffffffffffffff\n  and\n  sub\n    /* \"@openzeppelin/contracts/access/Ownable.sol\":1269:1364  if (initialOwner == address(0)) {... */\n  tag_7\n  jumpi\n    /* \"@openzeppelin/contracts/access/Ownable.sol\":1350:1351  0 */\n  0x00\n    /* \"@openzeppelin/contracts/access/Ownable.sol\":1322:1353  OwnableInvalidOwner(address(0)) */\n  mload(0x40)\n  0x1e4fbdf700000000000000000000000000000000000000000000000000000000\n  dup2\n  mstore\n  0x04\n  add\n  tag_8\n  swap2\n  swap1\n  tag_9\n  jump\t// in\ntag_8:\n  mload(0x40)\n  dup1\n  swap2\n  sub\n  swap1\n  revert\n    /* \"@openzeppelin/contracts/access/Ownable.sol\":1269:1364  if (initialOwner == address(0)) {... */\ntag_7:\n    /* \"@openzeppelin/contracts/access/Ownable.sol\":1373:1405  _transferOwnership(initialOwner) */\n  tag_10\n    /* \"@openzeppelin/contracts/access/Ownable.sol\":1392:1404  initialOwner */\n  dup2\n    /* \"@openzeppelin/contracts/access/Ownable.sol\":1373:1391  _transferOwnership */\n  shl(0x20, tag_11)\n    /* \"@openzeppelin/contracts/access/Ownable.sol\":1373:1405  _transferOwnership(initialOwner) */\n  0x20\n  shr\n  jump\t// in\ntag_10:\n    /* \"@openzeppelin/contracts/access/Ownable.sol\":1225:1412  constructor(address initialOwner) {... */\n  pop\n    /* \"contracts/tokenSwap,sol.sol\":553:567  _tokenXAddress */\n  dup3\n    /* \"contracts/tokenSwap,sol.sol\":537:543  tokenX */\n  0x01\n  0x00\n    /* \"contracts/tokenSwap,sol.sol\":537:568  tokenX = IERC20(_tokenXAddress) */\n  0x0100\n  exp\n  dup2\n  sload\n  dup2\n  0xffffffffffffffffffffffffffffffffffffffff\n  mul\n  not\n  and\n  swap1\n  dup4\n  0xffffffffffffffffffffffffffffffffffffffff\n  and\n  mul\n  or\n  swap1\n  sstore\n  pop\n    /* \"contracts/tokenSwap,sol.sol\":595:609  _tokenYAddress */\n  dup2\n    /* \"contracts/tokenSwap,sol.sol\":579:585  tokenY */\n  0x02\n  0x00\n    /* \"contracts/tokenSwap,sol.sol\":579:610  tokenY = IERC20(_tokenYAddress) */\n  0x0100\n  exp\n  dup2\n  sload\n  dup2\n  0xffffffffffffffffffffffffffffffffffffffff\n  mul\n  not\n  and\n  swap1\n  dup4\n  0xffffffffffffffffffffffffffffffffffffffff\n  and\n  mul\n  or\n  swap1\n  sstore\n  pop\n    /* \"contracts/tokenSwap,sol.sol\":636:649  _exchangeRate */\n  dup1\n    /* \"contracts/tokenSwap,sol.sol\":621:633  exchangeRate */\n  0x03\n    /* \"contracts/tokenSwap,sol.sol\":621:649  exchangeRate = _exchangeRate */\n  dup2\n  swap1\n  sstore\n  pop\n    /* \"contracts/tokenSwap,sol.sol\":423:657  constructor(address _tokenXAddress, address _tokenYAddress, uint256 _exchangeRate) Ownable(msg.sender) {... */\n  pop\n  pop\n  pop\n    /* \"contracts/tokenSwap,sol.sol\":175:1983  contract TokenSwap is Ownable {... */\n  jump(tag_13)\n    /* \"@openzeppelin/contracts/access/Ownable.sol\":2912:3099  function _transferOwnership(address newOwner) internal virtual {... */\ntag_11:\n    /* \"@openzeppelin/contracts/access/Ownable.sol\":2985:3001  address oldOwner */\n  0x00\n    /* \"@openzeppelin/contracts/access/Ownable.sol\":3004:3010  _owner */\n  dup1\n  0x00\n  swap1\n  sload\n  swap1\n  0x0100\n  exp\n  swap1\n  div\n  0xffffffffffffffffffffffffffffffffffffffff\n  and\n    /* \"@openzeppelin/contracts/access/Ownable.sol\":2985:3010  address oldOwner = _owner */\n  swap1\n  pop\n    /* \"@openzeppelin/contracts/access/Ownable.sol\":3029:3037  newOwner */\n  dup2\n    /* \"@openzeppelin/contracts/access/Ownable.sol\":3020:3026  _owner */\n  0x00\n  dup1\n    /* \"@openzeppelin/contracts/access/Ownable.sol\":3020:3037  _owner = newOwner */\n  0x0100\n  exp\n  dup2\n  sload\n  dup2\n  0xffffffffffffffffffffffffffffffffffffffff\n  mul\n  not\n  and\n  swap1\n  dup4\n  0xffffffffffffffffffffffffffffffffffffffff\n  and\n  mul\n  or\n  swap1\n  sstore\n  pop\n    /* \"@openzeppelin/contracts/access/Ownable.sol\":3083:3091  newOwner */\n  dup2\n    /* \"@openzeppelin/contracts/access/Ownable.sol\":3052:3092  OwnershipTransferred(oldOwner, newOwner) */\n  0xffffffffffffffffffffffffffffffffffffffff\n  and\n    /* \"@openzeppelin/contracts/access/Ownable.sol\":3073:3081  oldOwner */\n  dup2\n    /* \"@openzeppelin/contracts/access/Ownable.sol\":3052:3092  OwnershipTransferred(oldOwner, newOwner) */\n  0xffffffffffffffffffffffffffffffffffffffff\n  and\n  0x8be0079c531659141344cd1fd0a4f28419497f9722a3daafe3b4186f6b6457e0\n  mload(0x40)\n  mload(0x40)\n  dup1\n  swap2\n  sub\n  swap1\n  log3\n    /* \"@openzeppelin/contracts/access/Ownable.sol\":2975:3099  {... */\n  pop\n    /* \"@openzeppelin/contracts/access/Ownable.sol\":2912:3099  function _transferOwnership(address newOwner) internal virtual {... */\n  pop\n  jump\t// out\n    /* \"#utility.yul\":88:205   */\ntag_16:\n    /* \"#utility.yul\":197:198   */\n  0x00\n    /* \"#utility.yul\":194:195   */\n  dup1\n    /* \"#utility.yul\":187:199   */\n  revert\n    /* \"#utility.yul\":334:460   */\ntag_18:\n    /* \"#utility.yul\":371:378   */\n  0x00\n    /* \"#utility.yul\":411:453   */\n  0xffffffffffffffffffffffffffffffffffffffff\n    /* \"#utility.yul\":404:409   */\n  dup3\n    /* \"#utility.yul\":400:454   */\n  and\n    /* \"#utility.yul\":389:454   */\n  swap1\n  pop\n    /* \"#utility.yul\":334:460   */\n  swap2\n  swap1\n  pop\n  jump\t// out\n    /* \"#utility.yul\":466:562   */\ntag_19:\n    /* \"#utility.yul\":503:510   */\n  0x00\n    /* \"#utility.yul\":532:556   */\n  tag_32\n    /* \"#utility.yul\":550:555   */\n  dup3\n    /* \"#utility.yul\":532:556   */\n  tag_18\n  jump\t// in\ntag_32:\n    /* \"#utility.yul\":521:556   */\n  swap1\n  pop\n    /* \"#utility.yul\":466:562   */\n  swap2\n  swap1\n  pop\n  jump\t// out\n    /* \"#utility.yul\":568:690   */\ntag_20:\n    /* \"#utility.yul\":641:665   */\n  tag_34\n    /* \"#utility.yul\":659:664   */\n  dup2\n    /* \"#utility.yul\":641:665   */\n  tag_19\n  jump\t// in\ntag_34:\n    /* \"#utility.yul\":634:639   */\n  dup2\n    /* \"#utility.yul\":631:666   */\n  eq\n    /* \"#utility.yul\":621:684   */\n  tag_35\n  jumpi\n    /* \"#utility.yul\":680:681   */\n  0x00\n    /* \"#utility.yul\":677:678   */\n  dup1\n    /* \"#utility.yul\":670:682   */\n  revert\n    /* \"#utility.yul\":621:684   */\ntag_35:\n    /* \"#utility.yul\":568:690   */\n  pop\n  jump\t// out\n    /* \"#utility.yul\":696:839   */\ntag_21:\n    /* \"#utility.yul\":753:758   */\n  0x00\n    /* \"#utility.yul\":784:790   */\n  dup2\n    /* \"#utility.yul\":778:791   */\n  mload\n    /* \"#utility.yul\":769:791   */\n  swap1\n  pop\n    /* \"#utility.yul\":800:833   */\n  tag_37\n    /* \"#utility.yul\":827:832   */\n  dup2\n    /* \"#utility.yul\":800:833   */\n  tag_20\n  jump\t// in\ntag_37:\n    /* \"#utility.yul\":696:839   */\n  swap3\n  swap2\n  pop\n  pop\n  jump\t// out\n    /* \"#utility.yul\":845:922   */\ntag_22:\n    /* \"#utility.yul\":882:889   */\n  0x00\n    /* \"#utility.yul\":911:916   */\n  dup2\n    /* \"#utility.yul\":900:916   */\n  swap1\n  pop\n    /* \"#utility.yul\":845:922   */\n  swap2\n  swap1\n  pop\n  jump\t// out\n    /* \"#utility.yul\":928:1050   */\ntag_23:\n    /* \"#utility.yul\":1001:1025   */\n  tag_40\n    /* \"#utility.yul\":1019:1024   */\n  dup2\n    /* \"#utility.yul\":1001:1025   */\n  tag_22\n  jump\t// in\ntag_40:\n    /* \"#utility.yul\":994:999   */\n  dup2\n    /* \"#utility.yul\":991:1026   */\n  eq\n    /* \"#utility.yul\":981:1044   */\n  tag_41\n  jumpi\n    /* \"#utility.yul\":1040:1041   */\n  0x00\n    /* \"#utility.yul\":1037:1038   */\n  dup1\n    /* \"#utility.yul\":1030:1042   */\n  revert\n    /* \"#utility.yul\":981:1044   */\ntag_41:\n    /* \"#utility.yul\":928:1050   */\n  pop\n  jump\t// out\n    /* \"#utility.yul\":1056:1199   */\ntag_24:\n    /* \"#utility.yul\":1113:1118   */\n  0x00\n    /* \"#utility.yul\":1144:1150   */\n  dup2\n    /* \"#utility.yul\":1138:1151   */\n  mload\n    /* \"#utility.yul\":1129:1151   */\n  swap1\n  pop\n    /* \"#utility.yul\":1160:1193   */\n  tag_43\n    /* \"#utility.yul\":1187:1192   */\n  dup2\n    /* \"#utility.yul\":1160:1193   */\n  tag_23\n  jump\t// in\ntag_43:\n    /* \"#utility.yul\":1056:1199   */\n  swap3\n  swap2\n  pop\n  pop\n  jump\t// out\n    /* \"#utility.yul\":1205:1868   */\ntag_3:\n    /* \"#utility.yul\":1293:1299   */\n  0x00\n    /* \"#utility.yul\":1301:1307   */\n  dup1\n    /* \"#utility.yul\":1309:1315   */\n  0x00\n    /* \"#utility.yul\":1358:1360   */\n  0x60\n    /* \"#utility.yul\":1346:1355   */\n  dup5\n    /* \"#utility.yul\":1337:1344   */\n  dup7\n    /* \"#utility.yul\":1333:1356   */\n  sub\n    /* \"#utility.yul\":1329:1361   */\n  slt\n    /* \"#utility.yul\":1326:1445   */\n  iszero\n  tag_45\n  jumpi\n    /* \"#utility.yul\":1364:1443   */\n  tag_46\n  tag_16\n  jump\t// in\ntag_46:\n    /* \"#utility.yul\":1326:1445   */\ntag_45:\n    /* \"#utility.yul\":1484:1485   */\n  0x00\n    /* \"#utility.yul\":1509:1573   */\n  tag_47\n    /* \"#utility.yul\":1565:1572   */\n  dup7\n    /* \"#utility.yul\":1556:1562   */\n  dup3\n    /* \"#utility.yul\":1545:1554   */\n  dup8\n    /* \"#utility.yul\":1541:1563   */\n  add\n    /* \"#utility.yul\":1509:1573   */\n  tag_21\n  jump\t// in\ntag_47:\n    /* \"#utility.yul\":1499:1573   */\n  swap4\n  pop\n    /* \"#utility.yul\":1455:1583   */\n  pop\n    /* \"#utility.yul\":1622:1624   */\n  0x20\n    /* \"#utility.yul\":1648:1712   */\n  tag_48\n    /* \"#utility.yul\":1704:1711   */\n  dup7\n    /* \"#utility.yul\":1695:1701   */\n  dup3\n    /* \"#utility.yul\":1684:1693   */\n  dup8\n    /* \"#utility.yul\":1680:1702   */\n  add\n    /* \"#utility.yul\":1648:1712   */\n  tag_21\n  jump\t// in\ntag_48:\n    /* \"#utility.yul\":1638:1712   */\n  swap3\n  pop\n    /* \"#utility.yul\":1593:1722   */\n  pop\n    /* \"#utility.yul\":1761:1763   */\n  0x40\n    /* \"#utility.yul\":1787:1851   */\n  tag_49\n    /* \"#utility.yul\":1843:1850   */\n  dup7\n    /* \"#utility.yul\":1834:1840   */\n  dup3\n    /* \"#utility.yul\":1823:1832   */\n  dup8\n    /* \"#utility.yul\":1819:1841   */\n  add\n    /* \"#utility.yul\":1787:1851   */\n  tag_24\n  jump\t// in\ntag_49:\n    /* \"#utility.yul\":1777:1851   */\n  swap2\n  pop\n    /* \"#utility.yul\":1732:1861   */\n  pop\n    /* \"#utility.yul\":1205:1868   */\n  swap3\n  pop\n  swap3\n  pop\n  swap3\n  jump\t// out\n    /* \"#utility.yul\":1874:1992   */\ntag_25:\n    /* \"#utility.yul\":1961:1985   */\n  tag_51\n    /* \"#utility.yul\":1979:1984   */\n  dup2\n    /* \"#utility.yul\":1961:1985   */\n  tag_19\n  jump\t// in\ntag_51:\n    /* \"#utility.yul\":1956:1959   */\n  dup3\n    /* \"#utility.yul\":1949:1986   */\n  mstore\n    /* \"#utility.yul\":1874:1992   */\n  pop\n  pop\n  jump\t// out\n    /* \"#utility.yul\":1998:2220   */\ntag_9:\n    /* \"#utility.yul\":2091:2095   */\n  0x00\n    /* \"#utility.yul\":2129:2131   */\n  0x20\n    /* \"#utility.yul\":2118:2127   */\n  dup3\n    /* \"#utility.yul\":2114:2132   */\n  add\n    /* \"#utility.yul\":2106:2132   */\n  swap1\n  pop\n    /* \"#utility.yul\":2142:2213   */\n  tag_53\n    /* \"#utility.yul\":2210:2211   */\n  0x00\n    /* \"#utility.yul\":2199:2208   */\n  dup4\n    /* \"#utility.yul\":2195:2212   */\n  add\n    /* \"#utility.yul\":2186:2192   */\n  dup5\n    /* \"#utility.yul\":2142:2213   */\n  tag_25\n  jump\t// in\ntag_53:\n    /* \"#utility.yul\":1998:2220   */\n  swap3\n  swap2\n  pop\n  pop\n  jump\t// out\n    /* \"contracts/tokenSwap,sol.sol\":175:1983  contract TokenSwap is Ownable {... */\ntag_13:\n  dataSize(sub_0)\n  dup1\n  dataOffset(sub_0)\n  0x00\n  codecopy\n  0x00\n  return\nstop\n\nsub_0: assembly {\n        /* \"contracts/tokenSwap,sol.sol\":175:1983  contract TokenSwap is Ownable {... */\n      mstore(0x40, 0x80)\n      callvalue\n      dup1\n      iszero\n      tag_1\n      jumpi\n      0x00\n      dup1\n      revert\n    tag_1:\n      pop\n      jumpi(tag_2, lt(calldatasize, 0x04))\n      shr(0xe0, calldataload(0x00))\n      dup1\n      0x8da5cb5b\n      gt\n      tag_11\n      jumpi\n      dup1\n      0x8da5cb5b\n      eq\n      tag_7\n      jumpi\n      dup1\n      0xb7d19fc4\n      eq\n      tag_8\n      jumpi\n      dup1\n      0xf2fde38b\n      eq\n      tag_9\n      jumpi\n      dup1\n      0xfe784eaa\n      eq\n      tag_10\n      jumpi\n      jump(tag_2)\n    tag_11:\n      dup1\n      0x16dc165b\n      eq\n      tag_3\n      jumpi\n      dup1\n      0x3ba0b9a9\n      eq\n      tag_4\n      jumpi\n      dup1\n      0x715018a6\n      eq\n      tag_5\n      jumpi\n      dup1\n      0x8d8f2adb\n      eq\n      tag_6\n      jumpi\n    tag_2:\n      0x00\n      dup1\n      revert\n        /* \"contracts/tokenSwap,sol.sol\":212:232  IERC20 public tokenX */\n    tag_3:\n      tag_12\n      tag_13\n      jump\t// in\n    tag_12:\n      mload(0x40)\n      tag_14\n      swap2\n      swap1\n      tag_15\n      jump\t// in\n    tag_14:\n      mload(0x40)\n      dup1\n      swap2\n      sub\n      swap1\n      return\n        /* \"contracts/tokenSwap,sol.sol\":266:293  uint256 public exchangeRate */\n    tag_4:\n      tag_16\n      tag_17\n      jump\t// in\n    tag_16:\n      mload(0x40)\n      tag_18\n      swap2\n      swap1\n      tag_19\n      jump\t// in\n    tag_18:\n      mload(0x40)\n      dup1\n      swap2\n      sub\n      swap1\n      return\n        /* \"@openzeppelin/contracts/access/Ownable.sol\":2293:2394  function renounceOwnership() public virtual onlyOwner {... */\n    tag_5:\n      tag_20\n      tag_21\n      jump\t// in\n    tag_20:\n      stop\n        /* \"contracts/tokenSwap,sol.sol\":1587:1980  function withdrawTokens() external onlyOwner {... */\n    tag_6:\n      tag_22\n      tag_23\n      jump\t// in\n    tag_22:\n      stop\n        /* \"@openzeppelin/contracts/access/Ownable.sol\":1638:1723  function owner() public view virtual returns (address) {... */\n    tag_7:\n      tag_24\n      tag_25\n      jump\t// in\n    tag_24:\n      mload(0x40)\n      tag_26\n      swap2\n      swap1\n      tag_27\n      jump\t// in\n    tag_26:\n      mload(0x40)\n      dup1\n      swap2\n      sub\n      swap1\n      return\n        /* \"contracts/tokenSwap,sol.sol\":239:259  IERC20 public tokenY */\n    tag_8:\n      tag_28\n      tag_29\n      jump\t// in\n    tag_28:\n      mload(0x40)\n      tag_30\n      swap2\n      swap1\n      tag_15\n      jump\t// in\n    tag_30:\n      mload(0x40)\n      dup1\n      swap2\n      sub\n      swap1\n      return\n        /* \"@openzeppelin/contracts/access/Ownable.sol\":2543:2758  function transferOwnership(address newOwner) public virtual onlyOwner {... */\n    tag_9:\n      tag_31\n      0x04\n      dup1\n      calldatasize\n      sub\n      dup2\n      add\n      swap1\n      tag_32\n      swap2\n      swap1\n      tag_33\n      jump\t// in\n    tag_32:\n      tag_34\n      jump\t// in\n    tag_31:\n      stop\n        /* \"contracts/tokenSwap,sol.sol\":665:1579  function swapTokens(uint256 amountOfTokenX) external {... */\n    tag_10:\n      tag_35\n      0x04\n      dup1\n      calldatasize\n      sub\n      dup2\n      add\n      swap1\n      tag_36\n      swap2\n      swap1\n      tag_37\n      jump\t// in\n    tag_36:\n      tag_38\n      jump\t// in\n    tag_35:\n      stop\n        /* \"contracts/tokenSwap,sol.sol\":212:232  IERC20 public tokenX */\n    tag_13:\n      0x01\n      0x00\n      swap1\n      sload\n      swap1\n      0x0100\n      exp\n      swap1\n      div\n      0xffffffffffffffffffffffffffffffffffffffff\n      and\n      dup2\n      jump\t// out\n        /* \"contracts/tokenSwap,sol.sol\":266:293  uint256 public exchangeRate */\n    tag_17:\n      sload(0x03)\n      dup2\n      jump\t// out\n        /* \"@openzeppelin/contracts/access/Ownable.sol\":2293:2394  function renounceOwnership() public virtual onlyOwner {... */\n    tag_21:\n        /* \"@openzeppelin/contracts/access/Ownable.sol\":1531:1544  _checkOwner() */\n      tag_40\n        /* \"@openzeppelin/contracts/access/Ownable.sol\":1531:1542  _checkOwner */\n      tag_41\n        /* \"@openzeppelin/contracts/access/Ownable.sol\":1531:1544  _checkOwner() */\n      jump\t// in\n    tag_40:\n        /* \"@openzeppelin/contracts/access/Ownable.sol\":2357:2387  _transferOwnership(address(0)) */\n      tag_43\n        /* \"@openzeppelin/contracts/access/Ownable.sol\":2384:2385  0 */\n      0x00\n        /* \"@openzeppelin/contracts/access/Ownable.sol\":2357:2375  _transferOwnership */\n      tag_44\n        /* \"@openzeppelin/contracts/access/Ownable.sol\":2357:2387  _transferOwnership(address(0)) */\n      jump\t// in\n    tag_43:\n        /* \"@openzeppelin/contracts/access/Ownable.sol\":2293:2394  function renounceOwnership() public virtual onlyOwner {... */\n      jump\t// out\n        /* \"contracts/tokenSwap,sol.sol\":1587:1980  function withdrawTokens() external onlyOwner {... */\n    tag_23:\n        /* \"@openzeppelin/contracts/access/Ownable.sol\":1531:1544  _checkOwner() */\n      tag_46\n        /* \"@openzeppelin/contracts/access/Ownable.sol\":1531:1542  _checkOwner */\n      tag_41\n        /* \"@openzeppelin/contracts/access/Ownable.sol\":1531:1544  _checkOwner() */\n      jump\t// in\n    tag_46:\n        /* \"contracts/tokenSwap,sol.sol\":1643:1664  uint256 tokenXBalance */\n      0x00\n        /* \"contracts/tokenSwap,sol.sol\":1667:1673  tokenX */\n      0x01\n      0x00\n      swap1\n      sload\n      swap1\n      0x0100\n      exp\n      swap1\n      div\n      0xffffffffffffffffffffffffffffffffffffffff\n      and\n        /* \"contracts/tokenSwap,sol.sol\":1667:1683  tokenX.balanceOf */\n      0xffffffffffffffffffffffffffffffffffffffff\n      and\n      0x70a08231\n        /* \"contracts/tokenSwap,sol.sol\":1692:1696  this */\n      address\n        /* \"contracts/tokenSwap,sol.sol\":1667:1698  tokenX.balanceOf(address(this)) */\n      mload(0x40)\n      dup3\n      0xffffffff\n      and\n      0xe0\n      shl\n      dup2\n      mstore\n      0x04\n      add\n      tag_48\n      swap2\n      swap1\n      tag_27\n      jump\t// in\n    tag_48:\n      0x20\n      mload(0x40)\n      dup1\n      dup4\n      sub\n      dup2\n      dup7\n      gas\n      staticcall\n      iszero\n      dup1\n      iszero\n      tag_50\n      jumpi\n      returndatasize\n      0x00\n      dup1\n      returndatacopy\n      revert(0x00, returndatasize)\n    tag_50:\n      pop\n      pop\n      pop\n      pop\n      mload(0x40)\n      returndatasize\n      not(0x1f)\n      0x1f\n      dup3\n      add\n      and\n      dup3\n      add\n      dup1\n      0x40\n      mstore\n      pop\n      dup2\n      add\n      swap1\n      tag_51\n      swap2\n      swap1\n      tag_52\n      jump\t// in\n    tag_51:\n        /* \"contracts/tokenSwap,sol.sol\":1643:1698  uint256 tokenXBalance = tokenX.balanceOf(address(this)) */\n      swap1\n      pop\n        /* \"contracts/tokenSwap,sol.sol\":1709:1730  uint256 tokenYBalance */\n      0x00\n        /* \"contracts/tokenSwap,sol.sol\":1733:1739  tokenY */\n      0x02\n      0x00\n      swap1\n      sload\n      swap1\n      0x0100\n      exp\n      swap1\n      div\n      0xffffffffffffffffffffffffffffffffffffffff\n      and\n        /* \"contracts/tokenSwap,sol.sol\":1733:1749  tokenY.balanceOf */\n      0xffffffffffffffffffffffffffffffffffffffff\n      and\n      0x70a08231\n        /* \"contracts/tokenSwap,sol.sol\":1758:1762  this */\n      address\n        /* \"contracts/tokenSwap,sol.sol\":1733:1764  tokenY.balanceOf(address(this)) */\n      mload(0x40)\n      dup3\n      0xffffffff\n      and\n      0xe0\n      shl\n      dup2\n      mstore\n      0x04\n      add\n      tag_53\n      swap2\n      swap1\n      tag_27\n      jump\t// in\n    tag_53:\n      0x20\n      mload(0x40)\n      dup1\n      dup4\n      sub\n      dup2\n      dup7\n      gas\n      staticcall\n      iszero\n      dup1\n      iszero\n      tag_55\n      jumpi\n      returndatasize\n      0x00\n      dup1\n      returndatacopy\n      revert(0x00, returndatasize)\n    tag_55:\n      pop\n      pop\n      pop\n      pop\n      mload(0x40)\n      returndatasize\n      not(0x1f)\n      0x1f\n      dup3\n      add\n      and\n      dup3\n      add\n      dup1\n      0x40\n      mstore\n      pop\n      dup2\n      add\n      swap1\n      tag_56\n      swap2\n      swap1\n      tag_52\n      jump\t// in\n    tag_56:\n        /* \"contracts/tokenSwap,sol.sol\":1709:1764  uint256 tokenYBalance = tokenY.balanceOf(address(this)) */\n      swap1\n      pop\n        /* \"contracts/tokenSwap,sol.sol\":1797:1798  0 */\n      0x00\n        /* \"contracts/tokenSwap,sol.sol\":1781:1794  tokenXBalance */\n      dup3\n        /* \"contracts/tokenSwap,sol.sol\":1781:1798  tokenXBalance > 0 */\n      gt\n        /* \"contracts/tokenSwap,sol.sol\":1777:1869  if (tokenXBalance > 0) {... */\n      iszero\n      tag_57\n      jumpi\n        /* \"contracts/tokenSwap,sol.sol\":1815:1821  tokenX */\n      0x01\n      0x00\n      swap1\n      sload\n      swap1\n      0x0100\n      exp\n      swap1\n      div\n      0xffffffffffffffffffffffffffffffffffffffff\n      and\n        /* \"contracts/tokenSwap,sol.sol\":1815:1830  tokenX.transfer */\n      0xffffffffffffffffffffffffffffffffffffffff\n      and\n      0xa9059cbb\n        /* \"contracts/tokenSwap,sol.sol\":1831:1841  msg.sender */\n      caller\n        /* \"contracts/tokenSwap,sol.sol\":1843:1856  tokenXBalance */\n      dup5\n        /* \"contracts/tokenSwap,sol.sol\":1815:1857  tokenX.transfer(msg.sender, tokenXBalance) */\n      mload(0x40)\n      dup4\n      0xffffffff\n      and\n      0xe0\n      shl\n      dup2\n      mstore\n      0x04\n      add\n      tag_58\n      swap3\n      swap2\n      swap1\n      tag_59\n      jump\t// in\n    tag_58:\n      0x20\n      mload(0x40)\n      dup1\n      dup4\n      sub\n      dup2\n      0x00\n      dup8\n      gas\n      call\n      iszero\n      dup1\n      iszero\n      tag_61\n      jumpi\n      returndatasize\n      0x00\n      dup1\n      returndatacopy\n      revert(0x00, returndatasize)\n    tag_61:\n      pop\n      pop\n      pop\n      pop\n      mload(0x40)\n      returndatasize\n      not(0x1f)\n      0x1f\n      dup3\n      add\n      and\n      dup3\n      add\n      dup1\n      0x40\n      mstore\n      pop\n      dup2\n      add\n      swap1\n      tag_62\n      swap2\n      swap1\n      tag_63\n      jump\t// in\n    tag_62:\n      pop\n        /* \"contracts/tokenSwap,sol.sol\":1777:1869  if (tokenXBalance > 0) {... */\n    tag_57:\n        /* \"contracts/tokenSwap,sol.sol\":1901:1902  0 */\n      0x00\n        /* \"contracts/tokenSwap,sol.sol\":1885:1898  tokenYBalance */\n      dup2\n        /* \"contracts/tokenSwap,sol.sol\":1885:1902  tokenYBalance > 0 */\n      gt\n        /* \"contracts/tokenSwap,sol.sol\":1881:1973  if (tokenYBalance > 0) {... */\n      iszero\n      tag_64\n      jumpi\n        /* \"contracts/tokenSwap,sol.sol\":1919:1925  tokenY */\n      0x02\n      0x00\n      swap1\n      sload\n      swap1\n      0x0100\n      exp\n      swap1\n      div\n      0xffffffffffffffffffffffffffffffffffffffff\n      and\n        /* \"contracts/tokenSwap,sol.sol\":1919:1934  tokenY.transfer */\n      0xffffffffffffffffffffffffffffffffffffffff\n      and\n      0xa9059cbb\n        /* \"contracts/tokenSwap,sol.sol\":1935:1945  msg.sender */\n      caller\n        /* \"contracts/tokenSwap,sol.sol\":1947:1960  tokenYBalance */\n      dup4\n        /* \"contracts/tokenSwap,sol.sol\":1919:1961  tokenY.transfer(msg.sender, tokenYBalance) */\n      mload(0x40)\n      dup4\n      0xffffffff\n      and\n      0xe0\n      shl\n      dup2\n      mstore\n      0x04\n      add\n      tag_65\n      swap3\n      swap2\n      swap1\n      tag_59\n      jump\t// in\n    tag_65:\n      0x20\n      mload(0x40)\n      dup1\n      dup4\n      sub\n      dup2\n      0x00\n      dup8\n      gas\n      call\n      iszero\n      dup1\n      iszero\n      tag_67\n      jumpi\n      returndatasize\n      0x00\n      dup1\n      returndatacopy\n      revert(0x00, returndatasize)\n    tag_67:\n      pop\n      pop\n      pop\n      pop\n      mload(0x40)\n      returndatasize\n      not(0x1f)\n      0x1f\n      dup3\n      add\n      and\n      dup3\n      add\n      dup1\n      0x40\n      mstore\n      pop\n      dup2\n      add\n      swap1\n      tag_68\n      swap2\n      swap1\n      tag_63\n      jump\t// in\n    tag_68:\n      pop\n        /* \"contracts/tokenSwap,sol.sol\":1881:1973  if (tokenYBalance > 0) {... */\n    tag_64:\n        /* \"contracts/tokenSwap,sol.sol\":1632:1980  {... */\n      pop\n      pop\n        /* \"contracts/tokenSwap,sol.sol\":1587:1980  function withdrawTokens() external onlyOwner {... */\n      jump\t// out\n        /* \"@openzeppelin/contracts/access/Ownable.sol\":1638:1723  function owner() public view virtual returns (address) {... */\n    tag_25:\n        /* \"@openzeppelin/contracts/access/Ownable.sol\":1684:1691  address */\n      0x00\n        /* \"@openzeppelin/contracts/access/Ownable.sol\":1710:1716  _owner */\n      dup1\n      0x00\n      swap1\n      sload\n      swap1\n      0x0100\n      exp\n      swap1\n      div\n      0xffffffffffffffffffffffffffffffffffffffff\n      and\n        /* \"@openzeppelin/contracts/access/Ownable.sol\":1703:1716  return _owner */\n      swap1\n      pop\n        /* \"@openzeppelin/contracts/access/Ownable.sol\":1638:1723  function owner() public view virtual returns (address) {... */\n      swap1\n      jump\t// out\n        /* \"contracts/tokenSwap,sol.sol\":239:259  IERC20 public tokenY */\n    tag_29:\n      0x02\n      0x00\n      swap1\n      sload\n      swap1\n      0x0100\n      exp\n      swap1\n      div\n      0xffffffffffffffffffffffffffffffffffffffff\n      and\n      dup2\n      jump\t// out\n        /* \"@openzeppelin/contracts/access/Ownable.sol\":2543:2758  function transferOwnership(address newOwner) public virtual onlyOwner {... */\n    tag_34:\n        /* \"@openzeppelin/contracts/access/Ownable.sol\":1531:1544  _checkOwner() */\n      tag_71\n        /* \"@openzeppelin/contracts/access/Ownable.sol\":1531:1542  _checkOwner */\n      tag_41\n        /* \"@openzeppelin/contracts/access/Ownable.sol\":1531:1544  _checkOwner() */\n      jump\t// in\n    tag_71:\n        /* \"@openzeppelin/contracts/access/Ownable.sol\":2647:2648  0 */\n      0x00\n        /* \"@openzeppelin/contracts/access/Ownable.sol\":2627:2649  newOwner == address(0) */\n      0xffffffffffffffffffffffffffffffffffffffff\n      and\n        /* \"@openzeppelin/contracts/access/Ownable.sol\":2627:2635  newOwner */\n      dup2\n        /* \"@openzeppelin/contracts/access/Ownable.sol\":2627:2649  newOwner == address(0) */\n      0xffffffffffffffffffffffffffffffffffffffff\n      and\n      sub\n        /* \"@openzeppelin/contracts/access/Ownable.sol\":2623:2714  if (newOwner == address(0)) {... */\n      tag_73\n      jumpi\n        /* \"@openzeppelin/contracts/access/Ownable.sol\":2700:2701  0 */\n      0x00\n        /* \"@openzeppelin/contracts/access/Ownable.sol\":2672:2703  OwnableInvalidOwner(address(0)) */\n      mload(0x40)\n      0x1e4fbdf700000000000000000000000000000000000000000000000000000000\n      dup2\n      mstore\n      0x04\n      add\n      tag_74\n      swap2\n      swap1\n      tag_27\n      jump\t// in\n    tag_74:\n      mload(0x40)\n      dup1\n      swap2\n      sub\n      swap1\n      revert\n        /* \"@openzeppelin/contracts/access/Ownable.sol\":2623:2714  if (newOwner == address(0)) {... */\n    tag_73:\n        /* \"@openzeppelin/contracts/access/Ownable.sol\":2723:2751  _transferOwnership(newOwner) */\n      tag_75\n        /* \"@openzeppelin/contracts/access/Ownable.sol\":2742:2750  newOwner */\n      dup2\n        /* \"@openzeppelin/contracts/access/Ownable.sol\":2723:2741  _transferOwnership */\n      tag_44\n        /* \"@openzeppelin/contracts/access/Ownable.sol\":2723:2751  _transferOwnership(newOwner) */\n      jump\t// in\n    tag_75:\n        /* \"@openzeppelin/contracts/access/Ownable.sol\":2543:2758  function transferOwnership(address newOwner) public virtual onlyOwner {... */\n      pop\n      jump\t// out\n        /* \"contracts/tokenSwap,sol.sol\":665:1579  function swapTokens(uint256 amountOfTokenX) external {... */\n    tag_38:\n        /* \"contracts/tokenSwap,sol.sol\":754:755  0 */\n      0x00\n        /* \"contracts/tokenSwap,sol.sol\":737:751  amountOfTokenX */\n      dup2\n        /* \"contracts/tokenSwap,sol.sol\":737:755  amountOfTokenX > 0 */\n      gt\n        /* \"contracts/tokenSwap,sol.sol\":729:796  require(amountOfTokenX > 0, \"A quantidade deve ser maior que zero\") */\n      tag_77\n      jumpi\n      mload(0x40)\n      0x08c379a000000000000000000000000000000000000000000000000000000000\n      dup2\n      mstore\n      0x04\n      add\n      tag_78\n      swap1\n      tag_79\n      jump\t// in\n    tag_78:\n      mload(0x40)\n      dup1\n      swap2\n      sub\n      swap1\n      revert\n    tag_77:\n        /* \"contracts/tokenSwap,sol.sol\":809:831  uint256 amountOfTokenY */\n      0x00\n        /* \"contracts/tokenSwap,sol.sol\":851:863  exchangeRate */\n      sload(0x03)\n        /* \"contracts/tokenSwap,sol.sol\":834:848  amountOfTokenX */\n      dup3\n        /* \"contracts/tokenSwap,sol.sol\":834:863  amountOfTokenX * exchangeRate */\n      tag_80\n      swap2\n      swap1\n      tag_81\n      jump\t// in\n    tag_80:\n        /* \"contracts/tokenSwap,sol.sol\":809:863  uint256 amountOfTokenY = amountOfTokenX * exchangeRate */\n      swap1\n      pop\n        /* \"contracts/tokenSwap,sol.sol\":927:956  uint256 contractTokenYBalance */\n      0x00\n        /* \"contracts/tokenSwap,sol.sol\":959:965  tokenY */\n      0x02\n      0x00\n      swap1\n      sload\n      swap1\n      0x0100\n      exp\n      swap1\n      div\n      0xffffffffffffffffffffffffffffffffffffffff\n      and\n        /* \"contracts/tokenSwap,sol.sol\":959:975  tokenY.balanceOf */\n      0xffffffffffffffffffffffffffffffffffffffff\n      and\n      0x70a08231\n        /* \"contracts/tokenSwap,sol.sol\":984:988  this */\n      address\n        /* \"contracts/tokenSwap,sol.sol\":959:990  tokenY.balanceOf(address(this)) */\n      mload(0x40)\n      dup3\n      0xffffffff\n      and\n      0xe0\n      shl\n      dup2\n      mstore\n      0x04\n      add\n      tag_82\n      swap2\n      swap1\n      tag_27\n      jump\t// in\n    tag_82:\n      0x20\n      mload(0x40)\n      dup1\n      dup4\n      sub\n      dup2\n      dup7\n      gas\n      staticcall\n      iszero\n      dup1\n      iszero\n      tag_84\n      jumpi\n      returndatasize\n      0x00\n      dup1\n      returndatacopy\n      revert(0x00, returndatasize)\n    tag_84:\n      pop\n      pop\n      pop\n      pop\n      mload(0x40)\n      returndatasize\n      not(0x1f)\n      0x1f\n      dup3\n      add\n      and\n      dup3\n      add\n      dup1\n      0x40\n      mstore\n      pop\n      dup2\n      add\n      swap1\n      tag_85\n      swap2\n      swap1\n      tag_52\n      jump\t// in\n    tag_85:\n        /* \"contracts/tokenSwap,sol.sol\":927:990  uint256 contractTokenYBalance = tokenY.balanceOf(address(this)) */\n      swap1\n      pop\n        /* \"contracts/tokenSwap,sol.sol\":1034:1048  amountOfTokenY */\n      dup2\n        /* \"contracts/tokenSwap,sol.sol\":1009:1030  contractTokenYBalance */\n      dup2\n        /* \"contracts/tokenSwap,sol.sol\":1009:1048  contractTokenYBalance >= amountOfTokenY */\n      lt\n      iszero\n        /* \"contracts/tokenSwap,sol.sol\":1001:1089  require(contractTokenYBalance >= amountOfTokenY, \"O contrato nao tem TokenY suficiente\") */\n      tag_86\n      jumpi\n      mload(0x40)\n      0x08c379a000000000000000000000000000000000000000000000000000000000\n      dup2\n      mstore\n      0x04\n      add\n      tag_87\n      swap1\n      tag_88\n      jump\t// in\n    tag_87:\n      mload(0x40)\n      dup1\n      swap2\n      sub\n      swap1\n      revert\n    tag_86:\n        /* \"contracts/tokenSwap,sol.sol\":1159:1172  bool received */\n      0x00\n        /* \"contracts/tokenSwap,sol.sol\":1175:1181  tokenX */\n      0x01\n      0x00\n      swap1\n      sload\n      swap1\n      0x0100\n      exp\n      swap1\n      div\n      0xffffffffffffffffffffffffffffffffffffffff\n      and\n        /* \"contracts/tokenSwap,sol.sol\":1175:1194  tokenX.transferFrom */\n      0xffffffffffffffffffffffffffffffffffffffff\n      and\n      0x23b872dd\n        /* \"contracts/tokenSwap,sol.sol\":1195:1205  msg.sender */\n      caller\n        /* \"contracts/tokenSwap,sol.sol\":1215:1219  this */\n      address\n        /* \"contracts/tokenSwap,sol.sol\":1222:1236  amountOfTokenX */\n      dup8\n        /* \"contracts/tokenSwap,sol.sol\":1175:1237  tokenX.transferFrom(msg.sender, address(this), amountOfTokenX) */\n      mload(0x40)\n      dup5\n      0xffffffff\n      and\n      0xe0\n      shl\n      dup2\n      mstore\n      0x04\n      add\n      tag_89\n      swap4\n      swap3\n      swap2\n      swap1\n      tag_90\n      jump\t// in\n    tag_89:\n      0x20\n      mload(0x40)\n      dup1\n      dup4\n      sub\n      dup2\n      0x00\n      dup8\n      gas\n      call\n      iszero\n      dup1\n      iszero\n      tag_92\n      jumpi\n      returndatasize\n      0x00\n      dup1\n      returndatacopy\n      revert(0x00, returndatasize)\n    tag_92:\n      pop\n      pop\n      pop\n      pop\n      mload(0x40)\n      returndatasize\n      not(0x1f)\n      0x1f\n      dup3\n      add\n      and\n      dup3\n      add\n      dup1\n      0x40\n      mstore\n      pop\n      dup2\n      add\n      swap1\n      tag_93\n      swap2\n      swap1\n      tag_63\n      jump\t// in\n    tag_93:\n        /* \"contracts/tokenSwap,sol.sol\":1159:1237  bool received = tokenX.transferFrom(msg.sender, address(this), amountOfTokenX) */\n      swap1\n      pop\n        /* \"contracts/tokenSwap,sol.sol\":1256:1264  received */\n      dup1\n        /* \"contracts/tokenSwap,sol.sol\":1248:1311  require(received, \"Falha ao transferir TokenX para o contrato\") */\n      tag_94\n      jumpi\n      mload(0x40)\n      0x08c379a000000000000000000000000000000000000000000000000000000000\n      dup2\n      mstore\n      0x04\n      add\n      tag_95\n      swap1\n      tag_96\n      jump\t// in\n    tag_95:\n      mload(0x40)\n      dup1\n      swap2\n      sub\n      swap1\n      revert\n    tag_94:\n        /* \"contracts/tokenSwap,sol.sol\":1381:1390  bool sent */\n      0x00\n        /* \"contracts/tokenSwap,sol.sol\":1393:1399  tokenY */\n      0x02\n      0x00\n      swap1\n      sload\n      swap1\n      0x0100\n      exp\n      swap1\n      div\n      0xffffffffffffffffffffffffffffffffffffffff\n      and\n        /* \"contracts/tokenSwap,sol.sol\":1393:1408  tokenY.transfer */\n      0xffffffffffffffffffffffffffffffffffffffff\n      and\n      0xa9059cbb\n        /* \"contracts/tokenSwap,sol.sol\":1409:1419  msg.sender */\n      caller\n        /* \"contracts/tokenSwap,sol.sol\":1421:1435  amountOfTokenY */\n      dup7\n        /* \"contracts/tokenSwap,sol.sol\":1393:1436  tokenY.transfer(msg.sender, amountOfTokenY) */\n      mload(0x40)\n      dup4\n      0xffffffff\n      and\n      0xe0\n      shl\n      dup2\n      mstore\n      0x04\n      add\n      tag_97\n      swap3\n      swap2\n      swap1\n      tag_59\n      jump\t// in\n    tag_97:\n      0x20\n      mload(0x40)\n      dup1\n      dup4\n      sub\n      dup2\n      0x00\n      dup8\n      gas\n      call\n      iszero\n      dup1\n      iszero\n      tag_99\n      jumpi\n      returndatasize\n      0x00\n      dup1\n      returndatacopy\n      revert(0x00, returndatasize)\n    tag_99:\n      pop\n      pop\n      pop\n      pop\n      mload(0x40)\n      returndatasize\n      not(0x1f)\n      0x1f\n      dup3\n      add\n      and\n      dup3\n      add\n      dup1\n      0x40\n      mstore\n      pop\n      dup2\n      add\n      swap1\n      tag_100\n      swap2\n      swap1\n      tag_63\n      jump\t// in\n    tag_100:\n        /* \"contracts/tokenSwap,sol.sol\":1381:1436  bool sent = tokenY.transfer(msg.sender, amountOfTokenY) */\n      swap1\n      pop\n        /* \"contracts/tokenSwap,sol.sol\":1455:1459  sent */\n      dup1\n        /* \"contracts/tokenSwap,sol.sol\":1447:1505  require(sent, \"Falha ao transferir TokenY para o usuario\") */\n      tag_101\n      jumpi\n      mload(0x40)\n      0x08c379a000000000000000000000000000000000000000000000000000000000\n      dup2\n      mstore\n      0x04\n      add\n      tag_102\n      swap1\n      tag_103\n      jump\t// in\n    tag_102:\n      mload(0x40)\n      dup1\n      swap2\n      sub\n      swap1\n      revert\n    tag_101:\n        /* \"contracts/tokenSwap,sol.sol\":1528:1538  msg.sender */\n      caller\n        /* \"contracts/tokenSwap,sol.sol\":1523:1571  Swap(msg.sender, amountOfTokenX, amountOfTokenY) */\n      0xffffffffffffffffffffffffffffffffffffffff\n      and\n      0x77f92a1b6a1a11de8ca49515ad4c1fad45632dd3442167d74b90b304a3c7a758\n        /* \"contracts/tokenSwap,sol.sol\":1540:1554  amountOfTokenX */\n      dup7\n        /* \"contracts/tokenSwap,sol.sol\":1556:1570  amountOfTokenY */\n      dup7\n        /* \"contracts/tokenSwap,sol.sol\":1523:1571  Swap(msg.sender, amountOfTokenX, amountOfTokenY) */\n      mload(0x40)\n      tag_104\n      swap3\n      swap2\n      swap1\n      tag_105\n      jump\t// in\n    tag_104:\n      mload(0x40)\n      dup1\n      swap2\n      sub\n      swap1\n      log2\n        /* \"contracts/tokenSwap,sol.sol\":718:1579  {... */\n      pop\n      pop\n      pop\n      pop\n        /* \"contracts/tokenSwap,sol.sol\":665:1579  function swapTokens(uint256 amountOfTokenX) external {... */\n      pop\n      jump\t// out\n        /* \"@openzeppelin/contracts/access/Ownable.sol\":1796:1958  function _checkOwner() internal view virtual {... */\n    tag_41:\n        /* \"@openzeppelin/contracts/access/Ownable.sol\":1866:1878  _msgSender() */\n      tag_107\n        /* \"@openzeppelin/contracts/access/Ownable.sol\":1866:1876  _msgSender */\n      tag_108\n        /* \"@openzeppelin/contracts/access/Ownable.sol\":1866:1878  _msgSender() */\n      jump\t// in\n    tag_107:\n        /* \"@openzeppelin/contracts/access/Ownable.sol\":1855:1878  owner() != _msgSender() */\n      0xffffffffffffffffffffffffffffffffffffffff\n      and\n        /* \"@openzeppelin/contracts/access/Ownable.sol\":1855:1862  owner() */\n      tag_109\n        /* \"@openzeppelin/contracts/access/Ownable.sol\":1855:1860  owner */\n      tag_25\n        /* \"@openzeppelin/contracts/access/Ownable.sol\":1855:1862  owner() */\n      jump\t// in\n    tag_109:\n        /* \"@openzeppelin/contracts/access/Ownable.sol\":1855:1878  owner() != _msgSender() */\n      0xffffffffffffffffffffffffffffffffffffffff\n      and\n      eq\n        /* \"@openzeppelin/contracts/access/Ownable.sol\":1851:1952  if (owner() != _msgSender()) {... */\n      tag_110\n      jumpi\n        /* \"@openzeppelin/contracts/access/Ownable.sol\":1928:1940  _msgSender() */\n      tag_111\n        /* \"@openzeppelin/contracts/access/Ownable.sol\":1928:1938  _msgSender */\n      tag_108\n        /* \"@openzeppelin/contracts/access/Ownable.sol\":1928:1940  _msgSender() */\n      jump\t// in\n    tag_111:\n        /* \"@openzeppelin/contracts/access/Ownable.sol\":1901:1941  OwnableUnauthorizedAccount(_msgSender()) */\n      mload(0x40)\n      0x118cdaa700000000000000000000000000000000000000000000000000000000\n      dup2\n      mstore\n      0x04\n      add\n      tag_112\n      swap2\n      swap1\n      tag_27\n      jump\t// in\n    tag_112:\n      mload(0x40)\n      dup1\n      swap2\n      sub\n      swap1\n      revert\n        /* \"@openzeppelin/contracts/access/Ownable.sol\":1851:1952  if (owner() != _msgSender()) {... */\n    tag_110:\n        /* \"@openzeppelin/contracts/access/Ownable.sol\":1796:1958  function _checkOwner() internal view virtual {... */\n      jump\t// out\n        /* \"@openzeppelin/contracts/access/Ownable.sol\":2912:3099  function _transferOwnership(address newOwner) internal virtual {... */\n    tag_44:\n        /* \"@openzeppelin/contracts/access/Ownable.sol\":2985:3001  address oldOwner */\n      0x00\n        /* \"@openzeppelin/contracts/access/Ownable.sol\":3004:3010  _owner */\n      dup1\n      0x00\n      swap1\n      sload\n      swap1\n      0x0100\n      exp\n      swap1\n      div\n      0xffffffffffffffffffffffffffffffffffffffff\n      and\n        /* \"@openzeppelin/contracts/access/Ownable.sol\":2985:3010  address oldOwner = _owner */\n      swap1\n      pop\n        /* \"@openzeppelin/contracts/access/Ownable.sol\":3029:3037  newOwner */\n      dup2\n        /* \"@openzeppelin/contracts/access/Ownable.sol\":3020:3026  _owner */\n      0x00\n      dup1\n        /* \"@openzeppelin/contracts/access/Ownable.sol\":3020:3037  _owner = newOwner */\n      0x0100\n      exp\n      dup2\n      sload\n      dup2\n      0xffffffffffffffffffffffffffffffffffffffff\n      mul\n      not\n      and\n      swap1\n      dup4\n      0xffffffffffffffffffffffffffffffffffffffff\n      and\n      mul\n      or\n      swap1\n      sstore\n      pop\n        /* \"@openzeppelin/contracts/access/Ownable.sol\":3083:3091  newOwner */\n      dup2\n        /* \"@openzeppelin/contracts/access/Ownable.sol\":3052:3092  OwnershipTransferred(oldOwner, newOwner) */\n      0xffffffffffffffffffffffffffffffffffffffff\n      and\n        /* \"@openzeppelin/contracts/access/Ownable.sol\":3073:3081  oldOwner */\n      dup2\n        /* \"@openzeppelin/contracts/access/Ownable.sol\":3052:3092  OwnershipTransferred(oldOwner, newOwner) */\n      0xffffffffffffffffffffffffffffffffffffffff\n      and\n      0x8be0079c531659141344cd1fd0a4f28419497f9722a3daafe3b4186f6b6457e0\n      mload(0x40)\n      mload(0x40)\n      dup1\n      swap2\n      sub\n      swap1\n      log3\n        /* \"@openzeppelin/contracts/access/Ownable.sol\":2975:3099  {... */\n      pop\n        /* \"@openzeppelin/contracts/access/Ownable.sol\":2912:3099  function _transferOwnership(address newOwner) internal virtual {... */\n      pop\n      jump\t// out\n        /* \"@openzeppelin/contracts/utils/Context.sol\":656:752  function _msgSender() internal view virtual returns (address) {... */\n    tag_108:\n        /* \"@openzeppelin/contracts/utils/Context.sol\":709:716  address */\n      0x00\n        /* \"@openzeppelin/contracts/utils/Context.sol\":735:745  msg.sender */\n      caller\n        /* \"@openzeppelin/contracts/utils/Context.sol\":728:745  return msg.sender */\n      swap1\n      pop\n        /* \"@openzeppelin/contracts/utils/Context.sol\":656:752  function _msgSender() internal view virtual returns (address) {... */\n      swap1\n      jump\t// out\n        /* \"#utility.yul\":7:133   */\n    tag_115:\n        /* \"#utility.yul\":44:51   */\n      0x00\n        /* \"#utility.yul\":84:126   */\n      0xffffffffffffffffffffffffffffffffffffffff\n        /* \"#utility.yul\":77:82   */\n      dup3\n        /* \"#utility.yul\":73:127   */\n      and\n        /* \"#utility.yul\":62:127   */\n      swap1\n      pop\n        /* \"#utility.yul\":7:133   */\n      swap2\n      swap1\n      pop\n      jump\t// out\n        /* \"#utility.yul\":139:199   */\n    tag_116:\n        /* \"#utility.yul\":167:170   */\n      0x00\n        /* \"#utility.yul\":188:193   */\n      dup2\n        /* \"#utility.yul\":181:193   */\n      swap1\n      pop\n        /* \"#utility.yul\":139:199   */\n      swap2\n      swap1\n      pop\n      jump\t// out\n        /* \"#utility.yul\":205:347   */\n    tag_117:\n        /* \"#utility.yul\":255:264   */\n      0x00\n        /* \"#utility.yul\":288:341   */\n      tag_150\n        /* \"#utility.yul\":306:340   */\n      tag_151\n        /* \"#utility.yul\":315:339   */\n      tag_152\n        /* \"#utility.yul\":333:338   */\n      dup5\n        /* \"#utility.yul\":315:339   */\n      tag_115\n      jump\t// in\n    tag_152:\n        /* \"#utility.yul\":306:340   */\n      tag_116\n      jump\t// in\n    tag_151:\n        /* \"#utility.yul\":288:341   */\n      tag_115\n      jump\t// in\n    tag_150:\n        /* \"#utility.yul\":275:341   */\n      swap1\n      pop\n        /* \"#utility.yul\":205:347   */\n      swap2\n      swap1\n      pop\n      jump\t// out\n        /* \"#utility.yul\":353:479   */\n    tag_118:\n        /* \"#utility.yul\":403:412   */\n      0x00\n        /* \"#utility.yul\":436:473   */\n      tag_154\n        /* \"#utility.yul\":467:472   */\n      dup3\n        /* \"#utility.yul\":436:473   */\n      tag_117\n      jump\t// in\n    tag_154:\n        /* \"#utility.yul\":423:473   */\n      swap1\n      pop\n        /* \"#utility.yul\":353:479   */\n      swap2\n      swap1\n      pop\n      jump\t// out\n        /* \"#utility.yul\":485:625   */\n    tag_119:\n        /* \"#utility.yul\":549:558   */\n      0x00\n        /* \"#utility.yul\":582:619   */\n      tag_156\n        /* \"#utility.yul\":613:618   */\n      dup3\n        /* \"#utility.yul\":582:619   */\n      tag_118\n      jump\t// in\n    tag_156:\n        /* \"#utility.yul\":569:619   */\n      swap1\n      pop\n        /* \"#utility.yul\":485:625   */\n      swap2\n      swap1\n      pop\n      jump\t// out\n        /* \"#utility.yul\":631:790   */\n    tag_120:\n        /* \"#utility.yul\":732:783   */\n      tag_158\n        /* \"#utility.yul\":777:782   */\n      dup2\n        /* \"#utility.yul\":732:783   */\n      tag_119\n      jump\t// in\n    tag_158:\n        /* \"#utility.yul\":727:730   */\n      dup3\n        /* \"#utility.yul\":720:784   */\n      mstore\n        /* \"#utility.yul\":631:790   */\n      pop\n      pop\n      jump\t// out\n        /* \"#utility.yul\":796:1046   */\n    tag_15:\n        /* \"#utility.yul\":903:907   */\n      0x00\n        /* \"#utility.yul\":941:943   */\n      0x20\n        /* \"#utility.yul\":930:939   */\n      dup3\n        /* \"#utility.yul\":926:944   */\n      add\n        /* \"#utility.yul\":918:944   */\n      swap1\n      pop\n        /* \"#utility.yul\":954:1039   */\n      tag_160\n        /* \"#utility.yul\":1036:1037   */\n      0x00\n        /* \"#utility.yul\":1025:1034   */\n      dup4\n        /* \"#utility.yul\":1021:1038   */\n      add\n        /* \"#utility.yul\":1012:1018   */\n      dup5\n        /* \"#utility.yul\":954:1039   */\n      tag_120\n      jump\t// in\n    tag_160:\n        /* \"#utility.yul\":796:1046   */\n      swap3\n      swap2\n      pop\n      pop\n      jump\t// out\n        /* \"#utility.yul\":1052:1129   */\n    tag_121:\n        /* \"#utility.yul\":1089:1096   */\n      0x00\n        /* \"#utility.yul\":1118:1123   */\n      dup2\n        /* \"#utility.yul\":1107:1123   */\n      swap1\n      pop\n        /* \"#utility.yul\":1052:1129   */\n      swap2\n      swap1\n      pop\n      jump\t// out\n        /* \"#utility.yul\":1135:1253   */\n    tag_122:\n        /* \"#utility.yul\":1222:1246   */\n      tag_163\n        /* \"#utility.yul\":1240:1245   */\n      dup2\n        /* \"#utility.yul\":1222:1246   */\n      tag_121\n      jump\t// in\n    tag_163:\n        /* \"#utility.yul\":1217:1220   */\n      dup3\n        /* \"#utility.yul\":1210:1247   */\n      mstore\n        /* \"#utility.yul\":1135:1253   */\n      pop\n      pop\n      jump\t// out\n        /* \"#utility.yul\":1259:1481   */\n    tag_19:\n        /* \"#utility.yul\":1352:1356   */\n      0x00\n        /* \"#utility.yul\":1390:1392   */\n      0x20\n        /* \"#utility.yul\":1379:1388   */\n      dup3\n        /* \"#utility.yul\":1375:1393   */\n      add\n        /* \"#utility.yul\":1367:1393   */\n      swap1\n      pop\n        /* \"#utility.yul\":1403:1474   */\n      tag_165\n        /* \"#utility.yul\":1471:1472   */\n      0x00\n        /* \"#utility.yul\":1460:1469   */\n      dup4\n        /* \"#utility.yul\":1456:1473   */\n      add\n        /* \"#utility.yul\":1447:1453   */\n      dup5\n        /* \"#utility.yul\":1403:1474   */\n      tag_122\n      jump\t// in\n    tag_165:\n        /* \"#utility.yul\":1259:1481   */\n      swap3\n      swap2\n      pop\n      pop\n      jump\t// out\n        /* \"#utility.yul\":1487:1583   */\n    tag_123:\n        /* \"#utility.yul\":1524:1531   */\n      0x00\n        /* \"#utility.yul\":1553:1577   */\n      tag_167\n        /* \"#utility.yul\":1571:1576   */\n      dup3\n        /* \"#utility.yul\":1553:1577   */\n      tag_115\n      jump\t// in\n    tag_167:\n        /* \"#utility.yul\":1542:1577   */\n      swap1\n      pop\n        /* \"#utility.yul\":1487:1583   */\n      swap2\n      swap1\n      pop\n      jump\t// out\n        /* \"#utility.yul\":1589:1707   */\n    tag_124:\n        /* \"#utility.yul\":1676:1700   */\n      tag_169\n        /* \"#utility.yul\":1694:1699   */\n      dup2\n        /* \"#utility.yul\":1676:1700   */\n      tag_123\n      jump\t// in\n    tag_169:\n        /* \"#utility.yul\":1671:1674   */\n      dup3\n        /* \"#utility.yul\":1664:1701   */\n      mstore\n        /* \"#utility.yul\":1589:1707   */\n      pop\n      pop\n      jump\t// out\n        /* \"#utility.yul\":1713:1935   */\n    tag_27:\n        /* \"#utility.yul\":1806:1810   */\n      0x00\n        /* \"#utility.yul\":1844:1846   */\n      0x20\n        /* \"#utility.yul\":1833:1842   */\n      dup3\n        /* \"#utility.yul\":1829:1847   */\n      add\n        /* \"#utility.yul\":1821:1847   */\n      swap1\n      pop\n        /* \"#utility.yul\":1857:1928   */\n      tag_171\n        /* \"#utility.yul\":1925:1926   */\n      0x00\n        /* \"#utility.yul\":1914:1923   */\n      dup4\n        /* \"#utility.yul\":1910:1927   */\n      add\n        /* \"#utility.yul\":1901:1907   */\n      dup5\n        /* \"#utility.yul\":1857:1928   */\n      tag_124\n      jump\t// in\n    tag_171:\n        /* \"#utility.yul\":1713:1935   */\n      swap3\n      swap2\n      pop\n      pop\n      jump\t// out\n        /* \"#utility.yul\":2022:2139   */\n    tag_126:\n        /* \"#utility.yul\":2131:2132   */\n      0x00\n        /* \"#utility.yul\":2128:2129   */\n      dup1\n        /* \"#utility.yul\":2121:2133   */\n      revert\n        /* \"#utility.yul\":2268:2390   */\n    tag_128:\n        /* \"#utility.yul\":2341:2365   */\n      tag_176\n        /* \"#utility.yul\":2359:2364   */\n      dup2\n        /* \"#utility.yul\":2341:2365   */\n      tag_123\n      jump\t// in\n    tag_176:\n        /* \"#utility.yul\":2334:2339   */\n      dup2\n        /* \"#utility.yul\":2331:2366   */\n      eq\n        /* \"#utility.yul\":2321:2384   */\n      tag_177\n      jumpi\n        /* \"#utility.yul\":2380:2381   */\n      0x00\n        /* \"#utility.yul\":2377:2378   */\n      dup1\n        /* \"#utility.yul\":2370:2382   */\n      revert\n        /* \"#utility.yul\":2321:2384   */\n    tag_177:\n        /* \"#utility.yul\":2268:2390   */\n      pop\n      jump\t// out\n        /* \"#utility.yul\":2396:2535   */\n    tag_129:\n        /* \"#utility.yul\":2442:2447   */\n      0x00\n        /* \"#utility.yul\":2480:2486   */\n      dup2\n        /* \"#utility.yul\":2467:2487   */\n      calldataload\n        /* \"#utility.yul\":2458:2487   */\n      swap1\n      pop\n        /* \"#utility.yul\":2496:2529   */\n      tag_179\n        /* \"#utility.yul\":2523:2528   */\n      dup2\n        /* \"#utility.yul\":2496:2529   */\n      tag_128\n      jump\t// in\n    tag_179:\n        /* \"#utility.yul\":2396:2535   */\n      swap3\n      swap2\n      pop\n      pop\n      jump\t// out\n        /* \"#utility.yul\":2541:2870   */\n    tag_33:\n        /* \"#utility.yul\":2600:2606   */\n      0x00\n        /* \"#utility.yul\":2649:2651   */\n      0x20\n        /* \"#utility.yul\":2637:2646   */\n      dup3\n        /* \"#utility.yul\":2628:2635   */\n      dup5\n        /* \"#utility.yul\":2624:2647   */\n      sub\n        /* \"#utility.yul\":2620:2652   */\n      slt\n        /* \"#utility.yul\":2617:2736   */\n      iszero\n      tag_181\n      jumpi\n        /* \"#utility.yul\":2655:2734   */\n      tag_182\n      tag_126\n      jump\t// in\n    tag_182:\n        /* \"#utility.yul\":2617:2736   */\n    tag_181:\n        /* \"#utility.yul\":2775:2776   */\n      0x00\n        /* \"#utility.yul\":2800:2853   */\n      tag_183\n        /* \"#utility.yul\":2845:2852   */\n      dup5\n        /* \"#utility.yul\":2836:2842   */\n      dup3\n        /* \"#utility.yul\":2825:2834   */\n      dup6\n        /* \"#utility.yul\":2821:2843   */\n      add\n        /* \"#utility.yul\":2800:2853   */\n      tag_129\n      jump\t// in\n    tag_183:\n        /* \"#utility.yul\":2790:2853   */\n      swap2\n      pop\n        /* \"#utility.yul\":2746:2863   */\n      pop\n        /* \"#utility.yul\":2541:2870   */\n      swap3\n      swap2\n      pop\n      pop\n      jump\t// out\n        /* \"#utility.yul\":2876:2998   */\n    tag_130:\n        /* \"#utility.yul\":2949:2973   */\n      tag_185\n        /* \"#utility.yul\":2967:2972   */\n      dup2\n        /* \"#utility.yul\":2949:2973   */\n      tag_121\n      jump\t// in\n    tag_185:\n        /* \"#utility.yul\":2942:2947   */\n      dup2\n        /* \"#utility.yul\":2939:2974   */\n      eq\n        /* \"#utility.yul\":2929:2992   */\n      tag_186\n      jumpi\n        /* \"#utility.yul\":2988:2989   */\n      0x00\n        /* \"#utility.yul\":2985:2986   */\n      dup1\n        /* \"#utility.yul\":2978:2990   */\n      revert\n        /* \"#utility.yul\":2929:2992   */\n    tag_186:\n        /* \"#utility.yul\":2876:2998   */\n      pop\n      jump\t// out\n        /* \"#utility.yul\":3004:3143   */\n    tag_131:\n        /* \"#utility.yul\":3050:3055   */\n      0x00\n        /* \"#utility.yul\":3088:3094   */\n      dup2\n        /* \"#utility.yul\":3075:3095   */\n      calldataload\n        /* \"#utility.yul\":3066:3095   */\n      swap1\n      pop\n        /* \"#utility.yul\":3104:3137   */\n      tag_188\n        /* \"#utility.yul\":3131:3136   */\n      dup2\n        /* \"#utility.yul\":3104:3137   */\n      tag_130\n      jump\t// in\n    tag_188:\n        /* \"#utility.yul\":3004:3143   */\n      swap3\n      swap2\n      pop\n      pop\n      jump\t// out\n        /* \"#utility.yul\":3149:3478   */\n    tag_37:\n        /* \"#utility.yul\":3208:3214   */\n      0x00\n        /* \"#utility.yul\":3257:3259   */\n      0x20\n        /* \"#utility.yul\":3245:3254   */\n      dup3\n        /* \"#utility.yul\":3236:3243   */\n      dup5\n        /* \"#utility.yul\":3232:3255   */\n      sub\n        /* \"#utility.yul\":3228:3260   */\n      slt\n        /* \"#utility.yul\":3225:3344   */\n      iszero\n      tag_190\n      jumpi\n        /* \"#utility.yul\":3263:3342   */\n      tag_191\n      tag_126\n      jump\t// in\n    tag_191:\n        /* \"#utility.yul\":3225:3344   */\n    tag_190:\n        /* \"#utility.yul\":3383:3384   */\n      0x00\n        /* \"#utility.yul\":3408:3461   */\n      tag_192\n        /* \"#utility.yul\":3453:3460   */\n      dup5\n        /* \"#utility.yul\":3444:3450   */\n      dup3\n        /* \"#utility.yul\":3433:3442   */\n      dup6\n        /* \"#utility.yul\":3429:3451   */\n      add\n        /* \"#utility.yul\":3408:3461   */\n      tag_131\n      jump\t// in\n    tag_192:\n        /* \"#utility.yul\":3398:3461   */\n      swap2\n      pop\n        /* \"#utility.yul\":3354:3471   */\n      pop\n        /* \"#utility.yul\":3149:3478   */\n      swap3\n      swap2\n      pop\n      pop\n      jump\t// out\n        /* \"#utility.yul\":3484:3627   */\n    tag_132:\n        /* \"#utility.yul\":3541:3546   */\n      0x00\n        /* \"#utility.yul\":3572:3578   */\n      dup2\n        /* \"#utility.yul\":3566:3579   */\n      mload\n        /* \"#utility.yul\":3557:3579   */\n      swap1\n      pop\n        /* \"#utility.yul\":3588:3621   */\n      tag_194\n        /* \"#utility.yul\":3615:3620   */\n      dup2\n        /* \"#utility.yul\":3588:3621   */\n      tag_130\n      jump\t// in\n    tag_194:\n        /* \"#utility.yul\":3484:3627   */\n      swap3\n      swap2\n      pop\n      pop\n      jump\t// out\n        /* \"#utility.yul\":3633:3984   */\n    tag_52:\n        /* \"#utility.yul\":3703:3709   */\n      0x00\n        /* \"#utility.yul\":3752:3754   */\n      0x20\n        /* \"#utility.yul\":3740:3749   */\n      dup3\n        /* \"#utility.yul\":3731:3738   */\n      dup5\n        /* \"#utility.yul\":3727:3750   */\n      sub\n        /* \"#utility.yul\":3723:3755   */\n      slt\n        /* \"#utility.yul\":3720:3839   */\n      iszero\n      tag_196\n      jumpi\n        /* \"#utility.yul\":3758:3837   */\n      tag_197\n      tag_126\n      jump\t// in\n    tag_197:\n        /* \"#utility.yul\":3720:3839   */\n    tag_196:\n        /* \"#utility.yul\":3878:3879   */\n      0x00\n        /* \"#utility.yul\":3903:3967   */\n      tag_198\n        /* \"#utility.yul\":3959:3966   */\n      dup5\n        /* \"#utility.yul\":3950:3956   */\n      dup3\n        /* \"#utility.yul\":3939:3948   */\n      dup6\n        /* \"#utility.yul\":3935:3957   */\n      add\n        /* \"#utility.yul\":3903:3967   */\n      tag_132\n      jump\t// in\n    tag_198:\n        /* \"#utility.yul\":3893:3967   */\n      swap2\n      pop\n        /* \"#utility.yul\":3849:3977   */\n      pop\n        /* \"#utility.yul\":3633:3984   */\n      swap3\n      swap2\n      pop\n      pop\n      jump\t// out\n        /* \"#utility.yul\":3990:4322   */\n    tag_59:\n        /* \"#utility.yul\":4111:4115   */\n      0x00\n        /* \"#utility.yul\":4149:4151   */\n      0x40\n        /* \"#utility.yul\":4138:4147   */\n      dup3\n        /* \"#utility.yul\":4134:4152   */\n      add\n        /* \"#utility.yul\":4126:4152   */\n      swap1\n      pop\n        /* \"#utility.yul\":4162:4233   */\n      tag_200\n        /* \"#utility.yul\":4230:4231   */\n      0x00\n        /* \"#utility.yul\":4219:4228   */\n      dup4\n        /* \"#utility.yul\":4215:4232   */\n      add\n        /* \"#utility.yul\":4206:4212   */\n      dup6\n        /* \"#utility.yul\":4162:4233   */\n      tag_124\n      jump\t// in\n    tag_200:\n        /* \"#utility.yul\":4243:4315   */\n      tag_201\n        /* \"#utility.yul\":4311:4313   */\n      0x20\n        /* \"#utility.yul\":4300:4309   */\n      dup4\n        /* \"#utility.yul\":4296:4314   */\n      add\n        /* \"#utility.yul\":4287:4293   */\n      dup5\n        /* \"#utility.yul\":4243:4315   */\n      tag_122\n      jump\t// in\n    tag_201:\n        /* \"#utility.yul\":3990:4322   */\n      swap4\n      swap3\n      pop\n      pop\n      pop\n      jump\t// out\n        /* \"#utility.yul\":4328:4418   */\n    tag_133:\n        /* \"#utility.yul\":4362:4369   */\n      0x00\n        /* \"#utility.yul\":4405:4410   */\n      dup2\n        /* \"#utility.yul\":4398:4411   */\n      iszero\n        /* \"#utility.yul\":4391:4412   */\n      iszero\n        /* \"#utility.yul\":4380:4412   */\n      swap1\n      pop\n        /* \"#utility.yul\":4328:4418   */\n      swap2\n      swap1\n      pop\n      jump\t// out\n        /* \"#utility.yul\":4424:4540   */\n    tag_134:\n        /* \"#utility.yul\":4494:4515   */\n      tag_204\n        /* \"#utility.yul\":4509:4514   */\n      dup2\n        /* \"#utility.yul\":4494:4515   */\n      tag_133\n      jump\t// in\n    tag_204:\n        /* \"#utility.yul\":4487:4492   */\n      dup2\n        /* \"#utility.yul\":4484:4516   */\n      eq\n        /* \"#utility.yul\":4474:4534   */\n      tag_205\n      jumpi\n        /* \"#utility.yul\":4530:4531   */\n      0x00\n        /* \"#utility.yul\":4527:4528   */\n      dup1\n        /* \"#utility.yul\":4520:4532   */\n      revert\n        /* \"#utility.yul\":4474:4534   */\n    tag_205:\n        /* \"#utility.yul\":4424:4540   */\n      pop\n      jump\t// out\n        /* \"#utility.yul\":4546:4683   */\n    tag_135:\n        /* \"#utility.yul\":4600:4605   */\n      0x00\n        /* \"#utility.yul\":4631:4637   */\n      dup2\n        /* \"#utility.yul\":4625:4638   */\n      mload\n        /* \"#utility.yul\":4616:4638   */\n      swap1\n      pop\n        /* \"#utility.yul\":4647:4677   */\n      tag_207\n        /* \"#utility.yul\":4671:4676   */\n      dup2\n        /* \"#utility.yul\":4647:4677   */\n      tag_134\n      jump\t// in\n    tag_207:\n        /* \"#utility.yul\":4546:4683   */\n      swap3\n      swap2\n      pop\n      pop\n      jump\t// out\n        /* \"#utility.yul\":4689:5034   */\n    tag_63:\n        /* \"#utility.yul\":4756:4762   */\n      0x00\n        /* \"#utility.yul\":4805:4807   */\n      0x20\n        /* \"#utility.yul\":4793:4802   */\n      dup3\n        /* \"#utility.yul\":4784:4791   */\n      dup5\n        /* \"#utility.yul\":4780:4803   */\n      sub\n        /* \"#utility.yul\":4776:4808   */\n      slt\n        /* \"#utility.yul\":4773:4892   */\n      iszero\n      tag_209\n      jumpi\n        /* \"#utility.yul\":4811:4890   */\n      tag_210\n      tag_126\n      jump\t// in\n    tag_210:\n        /* \"#utility.yul\":4773:4892   */\n    tag_209:\n        /* \"#utility.yul\":4931:4932   */\n      0x00\n        /* \"#utility.yul\":4956:5017   */\n      tag_211\n        /* \"#utility.yul\":5009:5016   */\n      dup5\n        /* \"#utility.yul\":5000:5006   */\n      dup3\n        /* \"#utility.yul\":4989:4998   */\n      dup6\n        /* \"#utility.yul\":4985:5007   */\n      add\n        /* \"#utility.yul\":4956:5017   */\n      tag_135\n      jump\t// in\n    tag_211:\n        /* \"#utility.yul\":4946:5017   */\n      swap2\n      pop\n        /* \"#utility.yul\":4902:5027   */\n      pop\n        /* \"#utility.yul\":4689:5034   */\n      swap3\n      swap2\n      pop\n      pop\n      jump\t// out\n        /* \"#utility.yul\":5040:5209   */\n    tag_136:\n        /* \"#utility.yul\":5124:5135   */\n      0x00\n        /* \"#utility.yul\":5158:5164   */\n      dup3\n        /* \"#utility.yul\":5153:5156   */\n      dup3\n        /* \"#utility.yul\":5146:5165   */\n      mstore\n        /* \"#utility.yul\":5198:5202   */\n      0x20\n        /* \"#utility.yul\":5193:5196   */\n      dup3\n        /* \"#utility.yul\":5189:5203   */\n      add\n        /* \"#utility.yul\":5174:5203   */\n      swap1\n      pop\n        /* \"#utility.yul\":5040:5209   */\n      swap3\n      swap2\n      pop\n      pop\n      jump\t// out\n        /* \"#utility.yul\":5215:5438   */\n    tag_137:\n        /* \"#utility.yul\":5355:5389   */\n      0x41207175616e746964616465206465766520736572206d61696f722071756520\n        /* \"#utility.yul\":5351:5352   */\n      0x00\n        /* \"#utility.yul\":5343:5349   */\n      dup3\n        /* \"#utility.yul\":5339:5353   */\n      add\n        /* \"#utility.yul\":5332:5390   */\n      mstore\n        /* \"#utility.yul\":5424:5430   */\n      0x7a65726f00000000000000000000000000000000000000000000000000000000\n        /* \"#utility.yul\":5419:5421   */\n      0x20\n        /* \"#utility.yul\":5411:5417   */\n      dup3\n        /* \"#utility.yul\":5407:5422   */\n      add\n        /* \"#utility.yul\":5400:5431   */\n      mstore\n        /* \"#utility.yul\":5215:5438   */\n      pop\n      jump\t// out\n        /* \"#utility.yul\":5444:5810   */\n    tag_138:\n        /* \"#utility.yul\":5586:5589   */\n      0x00\n        /* \"#utility.yul\":5607:5674   */\n      tag_215\n        /* \"#utility.yul\":5671:5673   */\n      0x24\n        /* \"#utility.yul\":5666:5669   */\n      dup4\n        /* \"#utility.yul\":5607:5674   */\n      tag_136\n      jump\t// in\n    tag_215:\n        /* \"#utility.yul\":5600:5674   */\n      swap2\n      pop\n        /* \"#utility.yul\":5683:5776   */\n      tag_216\n        /* \"#utility.yul\":5772:5775   */\n      dup3\n        /* \"#utility.yul\":5683:5776   */\n      tag_137\n      jump\t// in\n    tag_216:\n        /* \"#utility.yul\":5801:5803   */\n      0x40\n        /* \"#utility.yul\":5796:5799   */\n      dup3\n        /* \"#utility.yul\":5792:5804   */\n      add\n        /* \"#utility.yul\":5785:5804   */\n      swap1\n      pop\n        /* \"#utility.yul\":5444:5810   */\n      swap2\n      swap1\n      pop\n      jump\t// out\n        /* \"#utility.yul\":5816:6235   */\n    tag_79:\n        /* \"#utility.yul\":5982:5986   */\n      0x00\n        /* \"#utility.yul\":6020:6022   */\n      0x20\n        /* \"#utility.yul\":6009:6018   */\n      dup3\n        /* \"#utility.yul\":6005:6023   */\n      add\n        /* \"#utility.yul\":5997:6023   */\n      swap1\n      pop\n        /* \"#utility.yul\":6069:6078   */\n      dup2\n        /* \"#utility.yul\":6063:6067   */\n      dup2\n        /* \"#utility.yul\":6059:6079   */\n      sub\n        /* \"#utility.yul\":6055:6056   */\n      0x00\n        /* \"#utility.yul\":6044:6053   */\n      dup4\n        /* \"#utility.yul\":6040:6057   */\n      add\n        /* \"#utility.yul\":6033:6080   */\n      mstore\n        /* \"#utility.yul\":6097:6228   */\n      tag_218\n        /* \"#utility.yul\":6223:6227   */\n      dup2\n        /* \"#utility.yul\":6097:6228   */\n      tag_138\n      jump\t// in\n    tag_218:\n        /* \"#utility.yul\":6089:6228   */\n      swap1\n      pop\n        /* \"#utility.yul\":5816:6235   */\n      swap2\n      swap1\n      pop\n      jump\t// out\n        /* \"#utility.yul\":6241:6421   */\n    tag_139:\n        /* \"#utility.yul\":6289:6366   */\n      0x4e487b7100000000000000000000000000000000000000000000000000000000\n        /* \"#utility.yul\":6286:6287   */\n      0x00\n        /* \"#utility.yul\":6279:6367   */\n      mstore\n        /* \"#utility.yul\":6386:6390   */\n      0x11\n        /* \"#utility.yul\":6383:6384   */\n      0x04\n        /* \"#utility.yul\":6376:6391   */\n      mstore\n        /* \"#utility.yul\":6410:6414   */\n      0x24\n        /* \"#utility.yul\":6407:6408   */\n      0x00\n        /* \"#utility.yul\":6400:6415   */\n      revert\n        /* \"#utility.yul\":6427:6837   */\n    tag_81:\n        /* \"#utility.yul\":6467:6474   */\n      0x00\n        /* \"#utility.yul\":6490:6510   */\n      tag_221\n        /* \"#utility.yul\":6508:6509   */\n      dup3\n        /* \"#utility.yul\":6490:6510   */\n      tag_121\n      jump\t// in\n    tag_221:\n        /* \"#utility.yul\":6485:6510   */\n      swap2\n      pop\n        /* \"#utility.yul\":6524:6544   */\n      tag_222\n        /* \"#utility.yul\":6542:6543   */\n      dup4\n        /* \"#utility.yul\":6524:6544   */\n      tag_121\n      jump\t// in\n    tag_222:\n        /* \"#utility.yul\":6519:6544   */\n      swap3\n      pop\n        /* \"#utility.yul\":6579:6580   */\n      dup3\n        /* \"#utility.yul\":6576:6577   */\n      dup3\n        /* \"#utility.yul\":6572:6581   */\n      mul\n        /* \"#utility.yul\":6601:6631   */\n      tag_223\n        /* \"#utility.yul\":6619:6630   */\n      dup2\n        /* \"#utility.yul\":6601:6631   */\n      tag_121\n      jump\t// in\n    tag_223:\n        /* \"#utility.yul\":6590:6631   */\n      swap2\n      pop\n        /* \"#utility.yul\":6780:6781   */\n      dup3\n        /* \"#utility.yul\":6771:6778   */\n      dup3\n        /* \"#utility.yul\":6767:6782   */\n      div\n        /* \"#utility.yul\":6764:6765   */\n      dup5\n        /* \"#utility.yul\":6761:6783   */\n      eq\n        /* \"#utility.yul\":6741:6742   */\n      dup4\n        /* \"#utility.yul\":6734:6743   */\n      iszero\n        /* \"#utility.yul\":6714:6797   */\n      or\n        /* \"#utility.yul\":6691:6830   */\n      tag_224\n      jumpi\n        /* \"#utility.yul\":6810:6828   */\n      tag_225\n      tag_139\n      jump\t// in\n    tag_225:\n        /* \"#utility.yul\":6691:6830   */\n    tag_224:\n        /* \"#utility.yul\":6475:6837   */\n      pop\n        /* \"#utility.yul\":6427:6837   */\n      swap3\n      swap2\n      pop\n      pop\n      jump\t// out\n        /* \"#utility.yul\":6843:7066   */\n    tag_140:\n        /* \"#utility.yul\":6983:7017   */\n      0x4f20636f6e747261746f206e616f2074656d20546f6b656e5920737566696369\n        /* \"#utility.yul\":6979:6980   */\n      0x00\n        /* \"#utility.yul\":6971:6977   */\n      dup3\n        /* \"#utility.yul\":6967:6981   */\n      add\n        /* \"#utility.yul\":6960:7018   */\n      mstore\n        /* \"#utility.yul\":7052:7058   */\n      0x656e746500000000000000000000000000000000000000000000000000000000\n        /* \"#utility.yul\":7047:7049   */\n      0x20\n        /* \"#utility.yul\":7039:7045   */\n      dup3\n        /* \"#utility.yul\":7035:7050   */\n      add\n        /* \"#utility.yul\":7028:7059   */\n      mstore\n        /* \"#utility.yul\":6843:7066   */\n      pop\n      jump\t// out\n        /* \"#utility.yul\":7072:7438   */\n    tag_141:\n        /* \"#utility.yul\":7214:7217   */\n      0x00\n        /* \"#utility.yul\":7235:7302   */\n      tag_228\n        /* \"#utility.yul\":7299:7301   */\n      0x24\n        /* \"#utility.yul\":7294:7297   */\n      dup4\n        /* \"#utility.yul\":7235:7302   */\n      tag_136\n      jump\t// in\n    tag_228:\n        /* \"#utility.yul\":7228:7302   */\n      swap2\n      pop\n        /* \"#utility.yul\":7311:7404   */\n      tag_229\n        /* \"#utility.yul\":7400:7403   */\n      dup3\n        /* \"#utility.yul\":7311:7404   */\n      tag_140\n      jump\t// in\n    tag_229:\n        /* \"#utility.yul\":7429:7431   */\n      0x40\n        /* \"#utility.yul\":7424:7427   */\n      dup3\n        /* \"#utility.yul\":7420:7432   */\n      add\n        /* \"#utility.yul\":7413:7432   */\n      swap1\n      pop\n        /* \"#utility.yul\":7072:7438   */\n      swap2\n      swap1\n      pop\n      jump\t// out\n        /* \"#utility.yul\":7444:7863   */\n    tag_88:\n        /* \"#utility.yul\":7610:7614   */\n      0x00\n        /* \"#utility.yul\":7648:7650   */\n      0x20\n        /* \"#utility.yul\":7637:7646   */\n      dup3\n        /* \"#utility.yul\":7633:7651   */\n      add\n        /* \"#utility.yul\":7625:7651   */\n      swap1\n      pop\n        /* \"#utility.yul\":7697:7706   */\n      dup2\n        /* \"#utility.yul\":7691:7695   */\n      dup2\n        /* \"#utility.yul\":7687:7707   */\n      sub\n        /* \"#utility.yul\":7683:7684   */\n      0x00\n        /* \"#utility.yul\":7672:7681   */\n      dup4\n        /* \"#utility.yul\":7668:7685   */\n      add\n        /* \"#utility.yul\":7661:7708   */\n      mstore\n        /* \"#utility.yul\":7725:7856   */\n      tag_231\n        /* \"#utility.yul\":7851:7855   */\n      dup2\n        /* \"#utility.yul\":7725:7856   */\n      tag_141\n      jump\t// in\n    tag_231:\n        /* \"#utility.yul\":7717:7856   */\n      swap1\n      pop\n        /* \"#utility.yul\":7444:7863   */\n      swap2\n      swap1\n      pop\n      jump\t// out\n        /* \"#utility.yul\":7869:8311   */\n    tag_90:\n        /* \"#utility.yul\":8018:8022   */\n      0x00\n        /* \"#utility.yul\":8056:8058   */\n      0x60\n        /* \"#utility.yul\":8045:8054   */\n      dup3\n        /* \"#utility.yul\":8041:8059   */\n      add\n        /* \"#utility.yul\":8033:8059   */\n      swap1\n      pop\n        /* \"#utility.yul\":8069:8140   */\n      tag_233\n        /* \"#utility.yul\":8137:8138   */\n      0x00\n        /* \"#utility.yul\":8126:8135   */\n      dup4\n        /* \"#utility.yul\":8122:8139   */\n      add\n        /* \"#utility.yul\":8113:8119   */\n      dup7\n        /* \"#utility.yul\":8069:8140   */\n      tag_124\n      jump\t// in\n    tag_233:\n        /* \"#utility.yul\":8150:8222   */\n      tag_234\n        /* \"#utility.yul\":8218:8220   */\n      0x20\n        /* \"#utility.yul\":8207:8216   */\n      dup4\n        /* \"#utility.yul\":8203:8221   */\n      add\n        /* \"#utility.yul\":8194:8200   */\n      dup6\n        /* \"#utility.yul\":8150:8222   */\n      tag_124\n      jump\t// in\n    tag_234:\n        /* \"#utility.yul\":8232:8304   */\n      tag_235\n        /* \"#utility.yul\":8300:8302   */\n      0x40\n        /* \"#utility.yul\":8289:8298   */\n      dup4\n        /* \"#utility.yul\":8285:8303   */\n      add\n        /* \"#utility.yul\":8276:8282   */\n      dup5\n        /* \"#utility.yul\":8232:8304   */\n      tag_122\n      jump\t// in\n    tag_235:\n        /* \"#utility.yul\":7869:8311   */\n      swap5\n      swap4\n      pop\n      pop\n      pop\n      pop\n      jump\t// out\n        /* \"#utility.yul\":8317:8546   */\n    tag_142:\n        /* \"#utility.yul\":8457:8491   */\n      0x46616c686120616f207472616e73666572697220546f6b656e58207061726120\n        /* \"#utility.yul\":8453:8454   */\n      0x00\n        /* \"#utility.yul\":8445:8451   */\n      dup3\n        /* \"#utility.yul\":8441:8455   */\n      add\n        /* \"#utility.yul\":8434:8492   */\n      mstore\n        /* \"#utility.yul\":8526:8538   */\n      0x6f20636f6e747261746f00000000000000000000000000000000000000000000\n        /* \"#utility.yul\":8521:8523   */\n      0x20\n        /* \"#utility.yul\":8513:8519   */\n      dup3\n        /* \"#utility.yul\":8509:8524   */\n      add\n        /* \"#utility.yul\":8502:8539   */\n      mstore\n        /* \"#utility.yul\":8317:8546   */\n      pop\n      jump\t// out\n        /* \"#utility.yul\":8552:8918   */\n    tag_143:\n        /* \"#utility.yul\":8694:8697   */\n      0x00\n        /* \"#utility.yul\":8715:8782   */\n      tag_238\n        /* \"#utility.yul\":8779:8781   */\n      0x2a\n        /* \"#utility.yul\":8774:8777   */\n      dup4\n        /* \"#utility.yul\":8715:8782   */\n      tag_136\n      jump\t// in\n    tag_238:\n        /* \"#utility.yul\":8708:8782   */\n      swap2\n      pop\n        /* \"#utility.yul\":8791:8884   */\n      tag_239\n        /* \"#utility.yul\":8880:8883   */\n      dup3\n        /* \"#utility.yul\":8791:8884   */\n      tag_142\n      jump\t// in\n    tag_239:\n        /* \"#utility.yul\":8909:8911   */\n      0x40\n        /* \"#utility.yul\":8904:8907   */\n      dup3\n        /* \"#utility.yul\":8900:8912   */\n      add\n        /* \"#utility.yul\":8893:8912   */\n      swap1\n      pop\n        /* \"#utility.yul\":8552:8918   */\n      swap2\n      swap1\n      pop\n      jump\t// out\n        /* \"#utility.yul\":8924:9343   */\n    tag_96:\n        /* \"#utility.yul\":9090:9094   */\n      0x00\n        /* \"#utility.yul\":9128:9130   */\n      0x20\n        /* \"#utility.yul\":9117:9126   */\n      dup3\n        /* \"#utility.yul\":9113:9131   */\n      add\n        /* \"#utility.yul\":9105:9131   */\n      swap1\n      pop\n        /* \"#utility.yul\":9177:9186   */\n      dup2\n        /* \"#utility.yul\":9171:9175   */\n      dup2\n        /* \"#utility.yul\":9167:9187   */\n      sub\n        /* \"#utility.yul\":9163:9164   */\n      0x00\n        /* \"#utility.yul\":9152:9161   */\n      dup4\n        /* \"#utility.yul\":9148:9165   */\n      add\n        /* \"#utility.yul\":9141:9188   */\n      mstore\n        /* \"#utility.yul\":9205:9336   */\n      tag_241\n        /* \"#utility.yul\":9331:9335   */\n      dup2\n        /* \"#utility.yul\":9205:9336   */\n      tag_143\n      jump\t// in\n    tag_241:\n        /* \"#utility.yul\":9197:9336   */\n      swap1\n      pop\n        /* \"#utility.yul\":8924:9343   */\n      swap2\n      swap1\n      pop\n      jump\t// out\n        /* \"#utility.yul\":9349:9577   */\n    tag_144:\n        /* \"#utility.yul\":9489:9523   */\n      0x46616c686120616f207472616e73666572697220546f6b656e59207061726120\n        /* \"#utility.yul\":9485:9486   */\n      0x00\n        /* \"#utility.yul\":9477:9483   */\n      dup3\n        /* \"#utility.yul\":9473:9487   */\n      add\n        /* \"#utility.yul\":9466:9524   */\n      mstore\n        /* \"#utility.yul\":9558:9569   */\n      0x6f207573756172696f0000000000000000000000000000000000000000000000\n        /* \"#utility.yul\":9553:9555   */\n      0x20\n        /* \"#utility.yul\":9545:9551   */\n      dup3\n        /* \"#utility.yul\":9541:9556   */\n      add\n        /* \"#utility.yul\":9534:9570   */\n      mstore\n        /* \"#utility.yul\":9349:9577   */\n      pop\n      jump\t// out\n        /* \"#utility.yul\":9583:9949   */\n    tag_145:\n        /* \"#utility.yul\":9725:9728   */\n      0x00\n        /* \"#utility.yul\":9746:9813   */\n      tag_244\n        /* \"#utility.yul\":9810:9812   */\n      0x29\n        /* \"#utility.yul\":9805:9808   */\n      dup4\n        /* \"#utility.yul\":9746:9813   */\n      tag_136\n      jump\t// in\n    tag_244:\n        /* \"#utility.yul\":9739:9813   */\n      swap2\n      pop\n        /* \"#utility.yul\":9822:9915   */\n      tag_245\n        /* \"#utility.yul\":9911:9914   */\n      dup3\n        /* \"#utility.yul\":9822:9915   */\n      tag_144\n      jump\t// in\n    tag_245:\n        /* \"#utility.yul\":9940:9942   */\n      0x40\n        /* \"#utility.yul\":9935:9938   */\n      dup3\n        /* \"#utility.yul\":9931:9943   */\n      add\n        /* \"#utility.yul\":9924:9943   */\n      swap1\n      pop\n        /* \"#utility.yul\":9583:9949   */\n      swap2\n      swap1\n      pop\n      jump\t// out\n        /* \"#utility.yul\":9955:10374   */\n    tag_103:\n        /* \"#utility.yul\":10121:10125   */\n      0x00\n        /* \"#utility.yul\":10159:10161   */\n      0x20\n        /* \"#utility.yul\":10148:10157   */\n      dup3\n        /* \"#utility.yul\":10144:10162   */\n      add\n        /* \"#utility.yul\":10136:10162   */\n      swap1\n      pop\n        /* \"#utility.yul\":10208:10217   */\n      dup2\n        /* \"#utility.yul\":10202:10206   */\n      dup2\n        /* \"#utility.yul\":10198:10218   */\n      sub\n        /* \"#utility.yul\":10194:10195   */\n      0x00\n        /* \"#utility.yul\":10183:10192   */\n      dup4\n        /* \"#utility.yul\":10179:10196   */\n      add\n        /* \"#utility.yul\":10172:10219   */\n      mstore\n        /* \"#utility.yul\":10236:10367   */\n      tag_247\n        /* \"#utility.yul\":10362:10366   */\n      dup2\n        /* \"#utility.yul\":10236:10367   */\n      tag_145\n      jump\t// in\n    tag_247:\n        /* \"#utility.yul\":10228:10367   */\n      swap1\n      pop\n        /* \"#utility.yul\":9955:10374   */\n      swap2\n      swap1\n      pop\n      jump\t// out\n        /* \"#utility.yul\":10380:10712   */\n    tag_105:\n        /* \"#utility.yul\":10501:10505   */\n      0x00\n        /* \"#utility.yul\":10539:10541   */\n      0x40\n        /* \"#utility.yul\":10528:10537   */\n      dup3\n        /* \"#utility.yul\":10524:10542   */\n      add\n        /* \"#utility.yul\":10516:10542   */\n      swap1\n      pop\n        /* \"#utility.yul\":10552:10623   */\n      tag_249\n        /* \"#utility.yul\":10620:10621   */\n      0x00\n        /* \"#utility.yul\":10609:10618   */\n      dup4\n        /* \"#utility.yul\":10605:10622   */\n      add\n        /* \"#utility.yul\":10596:10602   */\n      dup6\n        /* \"#utility.yul\":10552:10623   */\n      tag_122\n      jump\t// in\n    tag_249:\n        /* \"#utility.yul\":10633:10705   */\n      tag_250\n        /* \"#utility.yul\":10701:10703   */\n      0x20\n        /* \"#utility.yul\":10690:10699   */\n      dup4\n        /* \"#utility.yul\":10686:10704   */\n      add\n        /* \"#utility.yul\":10677:10683   */\n      dup5\n        /* \"#utility.yul\":10633:10705   */\n      tag_122\n      jump\t// in\n    tag_250:\n        /* \"#utility.yul\":10380:10712   */\n      swap4\n      swap3\n      pop\n      pop\n      pop\n      jump\t// out\n\n    auxdata: 0xa2646970667358221220d4fba9ca6cf996b05af07076e80c059967f62487cb269422ac0f7e62e87734f264736f6c634300081a0033\n}\n",
				"bytecode": {
					"linkReferences": {},
					"object": "608060405234801561000f575f80fd5b5060405161125538038061125583398181016040528101906100319190610293565b335f73ffffffffffffffffffffffffffffffffffffffff168173ffffffffffffffffffffffffffffffffffffffff16036100a2575f6040517f1e4fbdf700000000000000000000000000000000000000000000000000000000815260040161009991906102f2565b60405180910390fd5b6100b18161014160201b60201c565b508260015f6101000a81548173ffffffffffffffffffffffffffffffffffffffff021916908373ffffffffffffffffffffffffffffffffffffffff1602179055508160025f6101000a81548173ffffffffffffffffffffffffffffffffffffffff021916908373ffffffffffffffffffffffffffffffffffffffff1602179055508060038190555050505061030b565b5f805f9054906101000a900473ffffffffffffffffffffffffffffffffffffffff169050815f806101000a81548173ffffffffffffffffffffffffffffffffffffffff021916908373ffffffffffffffffffffffffffffffffffffffff1602179055508173ffffffffffffffffffffffffffffffffffffffff168173ffffffffffffffffffffffffffffffffffffffff167f8be0079c531659141344cd1fd0a4f28419497f9722a3daafe3b4186f6b6457e060405160405180910390a35050565b5f80fd5b5f73ffffffffffffffffffffffffffffffffffffffff82169050919050565b5f61022f82610206565b9050919050565b61023f81610225565b8114610249575f80fd5b50565b5f8151905061025a81610236565b92915050565b5f819050919050565b61027281610260565b811461027c575f80fd5b50565b5f8151905061028d81610269565b92915050565b5f805f606084860312156102aa576102a9610202565b5b5f6102b78682870161024c565b93505060206102c88682870161024c565b92505060406102d98682870161027f565b9150509250925092565b6102ec81610225565b82525050565b5f6020820190506103055f8301846102e3565b92915050565b610f3d806103185f395ff3fe608060405234801561000f575f80fd5b5060043610610086575f3560e01c80638da5cb5b116100595780638da5cb5b146100da578063b7d19fc4146100f8578063f2fde38b14610116578063fe784eaa1461013257610086565b806316dc165b1461008a5780633ba0b9a9146100a8578063715018a6146100c65780638d8f2adb146100d0575b5f80fd5b61009261014e565b60405161009f91906109fe565b60405180910390f35b6100b0610173565b6040516100bd9190610a2f565b60405180910390f35b6100ce610179565b005b6100d861018c565b005b6100e261041c565b6040516100ef9190610a68565b60405180910390f35b610100610443565b60405161010d91906109fe565b60405180910390f35b610130600480360381019061012b9190610aaf565b610468565b005b61014c60048036038101906101479190610b04565b6104ec565b005b60015f9054906101000a900473ffffffffffffffffffffffffffffffffffffffff1681565b60035481565b610181610835565b61018a5f6108bc565b565b610194610835565b5f60015f9054906101000a900473ffffffffffffffffffffffffffffffffffffffff1673ffffffffffffffffffffffffffffffffffffffff166370a08231306040518263ffffffff1660e01b81526004016101ef9190610a68565b602060405180830381865afa15801561020a573d5f803e3d5ffd5b505050506040513d601f19601f8201168201806040525081019061022e9190610b43565b90505f60025f9054906101000a900473ffffffffffffffffffffffffffffffffffffffff1673ffffffffffffffffffffffffffffffffffffffff166370a08231306040518263ffffffff1660e01b815260040161028b9190610a68565b602060405180830381865afa1580156102a6573d5f803e3d5ffd5b505050506040513d601f19601f820116820180604052508101906102ca9190610b43565b90505f8211156103725760015f9054906101000a900473ffffffffffffffffffffffffffffffffffffffff1673ffffffffffffffffffffffffffffffffffffffff1663a9059cbb33846040518363ffffffff1660e01b8152600401610330929190610b6e565b6020604051808303815f875af115801561034c573d5f803e3d5ffd5b505050506040513d601f19601f820116820180604052508101906103709190610bca565b505b5f8111156104185760025f9054906101000a900473ffffffffffffffffffffffffffffffffffffffff1673ffffffffffffffffffffffffffffffffffffffff1663a9059cbb33836040518363ffffffff1660e01b81526004016103d6929190610b6e565b6020604051808303815f875af11580156103f2573d5f803e3d5ffd5b505050506040513d601f19601f820116820180604052508101906104169190610bca565b505b5050565b5f805f9054906101000a900473ffffffffffffffffffffffffffffffffffffffff16905090565b60025f9054906101000a900473ffffffffffffffffffffffffffffffffffffffff1681565b610470610835565b5f73ffffffffffffffffffffffffffffffffffffffff168173ffffffffffffffffffffffffffffffffffffffff16036104e0575f6040517f1e4fbdf70000000000000000000000000000000000000000000000000000000081526004016104d79190610a68565b60405180910390fd5b6104e9816108bc565b50565b5f811161052e576040517f08c379a000000000000000000000000000000000000000000000000000000000815260040161052590610c75565b60405180910390fd5b5f6003548261053d9190610cc0565b90505f60025f9054906101000a900473ffffffffffffffffffffffffffffffffffffffff1673ffffffffffffffffffffffffffffffffffffffff166370a08231306040518263ffffffff1660e01b815260040161059a9190610a68565b602060405180830381865afa1580156105b5573d5f803e3d5ffd5b505050506040513d601f19601f820116820180604052508101906105d99190610b43565b90508181101561061e576040517f08c379a000000000000000000000000000000000000000000000000000000000815260040161061590610d71565b60405180910390fd5b5f60015f9054906101000a900473ffffffffffffffffffffffffffffffffffffffff1673ffffffffffffffffffffffffffffffffffffffff166323b872dd3330876040518463ffffffff1660e01b815260040161067d93929190610d8f565b6020604051808303815f875af1158015610699573d5f803e3d5ffd5b505050506040513d601f19601f820116820180604052508101906106bd9190610bca565b9050806106ff576040517f08c379a00000000000000000000000000000000000000000000000000000000081526004016106f690610e34565b60405180910390fd5b5f60025f9054906101000a900473ffffffffffffffffffffffffffffffffffffffff1673ffffffffffffffffffffffffffffffffffffffff1663a9059cbb33866040518363ffffffff1660e01b815260040161075c929190610b6e565b6020604051808303815f875af1158015610778573d5f803e3d5ffd5b505050506040513d601f19601f8201168201806040525081019061079c9190610bca565b9050806107de576040517f08c379a00000000000000000000000000000000000000000000000000000000081526004016107d590610ec2565b60405180910390fd5b3373ffffffffffffffffffffffffffffffffffffffff167f77f92a1b6a1a11de8ca49515ad4c1fad45632dd3442167d74b90b304a3c7a7588686604051610826929190610ee0565b60405180910390a25050505050565b61083d61097d565b73ffffffffffffffffffffffffffffffffffffffff1661085b61041c565b73ffffffffffffffffffffffffffffffffffffffff16146108ba5761087e61097d565b6040517f118cdaa70000000000000000000000000000000000000000000000000000000081526004016108b19190610a68565b60405180910390fd5b565b5f805f9054906101000a900473ffffffffffffffffffffffffffffffffffffffff169050815f806101000a81548173ffffffffffffffffffffffffffffffffffffffff021916908373ffffffffffffffffffffffffffffffffffffffff1602179055508173ffffffffffffffffffffffffffffffffffffffff168173ffffffffffffffffffffffffffffffffffffffff167f8be0079c531659141344cd1fd0a4f28419497f9722a3daafe3b4186f6b6457e060405160405180910390a35050565b5f33905090565b5f73ffffffffffffffffffffffffffffffffffffffff82169050919050565b5f819050919050565b5f6109c66109c16109bc84610984565b6109a3565b610984565b9050919050565b5f6109d7826109ac565b9050919050565b5f6109e8826109cd565b9050919050565b6109f8816109de565b82525050565b5f602082019050610a115f8301846109ef565b92915050565b5f819050919050565b610a2981610a17565b82525050565b5f602082019050610a425f830184610a20565b92915050565b5f610a5282610984565b9050919050565b610a6281610a48565b82525050565b5f602082019050610a7b5f830184610a59565b92915050565b5f80fd5b610a8e81610a48565b8114610a98575f80fd5b50565b5f81359050610aa981610a85565b92915050565b5f60208284031215610ac457610ac3610a81565b5b5f610ad184828501610a9b565b91505092915050565b610ae381610a17565b8114610aed575f80fd5b50565b5f81359050610afe81610ada565b92915050565b5f60208284031215610b1957610b18610a81565b5b5f610b2684828501610af0565b91505092915050565b5f81519050610b3d81610ada565b92915050565b5f60208284031215610b5857610b57610a81565b5b5f610b6584828501610b2f565b91505092915050565b5f604082019050610b815f830185610a59565b610b8e6020830184610a20565b9392505050565b5f8115159050919050565b610ba981610b95565b8114610bb3575f80fd5b50565b5f81519050610bc481610ba0565b92915050565b5f60208284031215610bdf57610bde610a81565b5b5f610bec84828501610bb6565b91505092915050565b5f82825260208201905092915050565b7f41207175616e746964616465206465766520736572206d61696f7220717565205f8201527f7a65726f00000000000000000000000000000000000000000000000000000000602082015250565b5f610c5f602483610bf5565b9150610c6a82610c05565b604082019050919050565b5f6020820190508181035f830152610c8c81610c53565b9050919050565b7f4e487b71000000000000000000000000000000000000000000000000000000005f52601160045260245ffd5b5f610cca82610a17565b9150610cd583610a17565b9250828202610ce381610a17565b91508282048414831517610cfa57610cf9610c93565b5b5092915050565b7f4f20636f6e747261746f206e616f2074656d20546f6b656e59207375666963695f8201527f656e746500000000000000000000000000000000000000000000000000000000602082015250565b5f610d5b602483610bf5565b9150610d6682610d01565b604082019050919050565b5f6020820190508181035f830152610d8881610d4f565b9050919050565b5f606082019050610da25f830186610a59565b610daf6020830185610a59565b610dbc6040830184610a20565b949350505050565b7f46616c686120616f207472616e73666572697220546f6b656e582070617261205f8201527f6f20636f6e747261746f00000000000000000000000000000000000000000000602082015250565b5f610e1e602a83610bf5565b9150610e2982610dc4565b604082019050919050565b5f6020820190508181035f830152610e4b81610e12565b9050919050565b7f46616c686120616f207472616e73666572697220546f6b656e592070617261205f8201527f6f207573756172696f0000000000000000000000000000000000000000000000602082015250565b5f610eac602983610bf5565b9150610eb782610e52565b604082019050919050565b5f6020820190508181035f830152610ed981610ea0565b9050919050565b5f604082019050610ef35f830185610a20565b610f006020830184610a20565b939250505056fea2646970667358221220d4fba9ca6cf996b05af07076e80c059967f62487cb269422ac0f7e62e87734f264736f6c634300081a0033",
					"opcodes": "PUSH1 0x80 PUSH1 0x40 MSTORE CALLVALUE DUP1 ISZERO PUSH2 0xF JUMPI PUSH0 DUP1 REVERT JUMPDEST POP PUSH1 0x40 MLOAD PUSH2 0x1255 CODESIZE SUB DUP1 PUSH2 0x1255 DUP4 CODECOPY DUP2 DUP2 ADD PUSH1 0x40 MSTORE DUP2 ADD SWAP1 PUSH2 0x31 SWAP2 SWAP1 PUSH2 0x293 JUMP JUMPDEST CALLER PUSH0 PUSH20 0xFFFFFFFFFFFFFFFFFFFFFFFFFFFFFFFFFFFFFFFF AND DUP2 PUSH20 0xFFFFFFFFFFFFFFFFFFFFFFFFFFFFFFFFFFFFFFFF AND SUB PUSH2 0xA2 JUMPI PUSH0 PUSH1 0x40 MLOAD PUSH32 0x1E4FBDF700000000000000000000000000000000000000000000000000000000 DUP2 MSTORE PUSH1 0x4 ADD PUSH2 0x99 SWAP2 SWAP1 PUSH2 0x2F2 JUMP JUMPDEST PUSH1 0x40 MLOAD DUP1 SWAP2 SUB SWAP1 REVERT JUMPDEST PUSH2 0xB1 DUP2 PUSH2 0x141 PUSH1 0x20 SHL PUSH1 0x20 SHR JUMP JUMPDEST POP DUP3 PUSH1 0x1 PUSH0 PUSH2 0x100 EXP DUP2 SLOAD DUP2 PUSH20 0xFFFFFFFFFFFFFFFFFFFFFFFFFFFFFFFFFFFFFFFF MUL NOT AND SWAP1 DUP4 PUSH20 0xFFFFFFFFFFFFFFFFFFFFFFFFFFFFFFFFFFFFFFFF AND MUL OR SWAP1 SSTORE POP DUP2 PUSH1 0x2 PUSH0 PUSH2 0x100 EXP DUP2 SLOAD DUP2 PUSH20 0xFFFFFFFFFFFFFFFFFFFFFFFFFFFFFFFFFFFFFFFF MUL NOT AND SWAP1 DUP4 PUSH20 0xFFFFFFFFFFFFFFFFFFFFFFFFFFFFFFFFFFFFFFFF AND MUL OR SWAP1 SSTORE POP DUP1 PUSH1 0x3 DUP2 SWAP1 SSTORE POP POP POP POP PUSH2 0x30B JUMP JUMPDEST PUSH0 DUP1 PUSH0 SWAP1 SLOAD SWAP1 PUSH2 0x100 EXP SWAP1 DIV PUSH20 0xFFFFFFFFFFFFFFFFFFFFFFFFFFFFFFFFFFFFFFFF AND SWAP1 POP DUP2 PUSH0 DUP1 PUSH2 0x100 EXP DUP2 SLOAD DUP2 PUSH20 0xFFFFFFFFFFFFFFFFFFFFFFFFFFFFFFFFFFFFFFFF MUL NOT AND SWAP1 DUP4 PUSH20 0xFFFFFFFFFFFFFFFFFFFFFFFFFFFFFFFFFFFFFFFF AND MUL OR SWAP1 SSTORE POP DUP2 PUSH20 0xFFFFFFFFFFFFFFFFFFFFFFFFFFFFFFFFFFFFFFFF AND DUP2 PUSH20 0xFFFFFFFFFFFFFFFFFFFFFFFFFFFFFFFFFFFFFFFF AND PUSH32 0x8BE0079C531659141344CD1FD0A4F28419497F9722A3DAAFE3B4186F6B6457E0 PUSH1 0x40 MLOAD PUSH1 0x40 MLOAD DUP1 SWAP2 SUB SWAP1 LOG3 POP POP JUMP JUMPDEST PUSH0 DUP1 REVERT JUMPDEST PUSH0 PUSH20 0xFFFFFFFFFFFFFFFFFFFFFFFFFFFFFFFFFFFFFFFF DUP3 AND SWAP1 POP SWAP2 SWAP1 POP JUMP JUMPDEST PUSH0 PUSH2 0x22F DUP3 PUSH2 0x206 JUMP JUMPDEST SWAP1 POP SWAP2 SWAP1 POP JUMP JUMPDEST PUSH2 0x23F DUP2 PUSH2 0x225 JUMP JUMPDEST DUP2 EQ PUSH2 0x249 JUMPI PUSH0 DUP1 REVERT JUMPDEST POP JUMP JUMPDEST PUSH0 DUP2 MLOAD SWAP1 POP PUSH2 0x25A DUP2 PUSH2 0x236 JUMP JUMPDEST SWAP3 SWAP2 POP POP JUMP JUMPDEST PUSH0 DUP2 SWAP1 POP SWAP2 SWAP1 POP JUMP JUMPDEST PUSH2 0x272 DUP2 PUSH2 0x260 JUMP JUMPDEST DUP2 EQ PUSH2 0x27C JUMPI PUSH0 DUP1 REVERT JUMPDEST POP JUMP JUMPDEST PUSH0 DUP2 MLOAD SWAP1 POP PUSH2 0x28D DUP2 PUSH2 0x269 JUMP JUMPDEST SWAP3 SWAP2 POP POP JUMP JUMPDEST PUSH0 DUP1 PUSH0 PUSH1 0x60 DUP5 DUP7 SUB SLT ISZERO PUSH2 0x2AA JUMPI PUSH2 0x2A9 PUSH2 0x202 JUMP JUMPDEST JUMPDEST PUSH0 PUSH2 0x2B7 DUP7 DUP3 DUP8 ADD PUSH2 0x24C JUMP JUMPDEST SWAP4 POP POP PUSH1 0x20 PUSH2 0x2C8 DUP7 DUP3 DUP8 ADD PUSH2 0x24C JUMP JUMPDEST SWAP3 POP POP PUSH1 0x40 PUSH2 0x2D9 DUP7 DUP3 DUP8 ADD PUSH2 0x27F JUMP JUMPDEST SWAP2 POP POP SWAP3 POP SWAP3 POP SWAP3 JUMP JUMPDEST PUSH2 0x2EC DUP2 PUSH2 0x225 JUMP JUMPDEST DUP3 MSTORE POP POP JUMP JUMPDEST PUSH0 PUSH1 0x20 DUP3 ADD SWAP1 POP PUSH2 0x305 PUSH0 DUP4 ADD DUP5 PUSH2 0x2E3 JUMP JUMPDEST SWAP3 SWAP2 POP POP JUMP JUMPDEST PUSH2 0xF3D DUP1 PUSH2 0x318 PUSH0 CODECOPY PUSH0 RETURN INVALID PUSH1 0x80 PUSH1 0x40 MSTORE CALLVALUE DUP1 ISZERO PUSH2 0xF JUMPI PUSH0 DUP1 REVERT JUMPDEST POP PUSH1 0x4 CALLDATASIZE LT PUSH2 0x86 JUMPI PUSH0 CALLDATALOAD PUSH1 0xE0 SHR DUP1 PUSH4 0x8DA5CB5B GT PUSH2 0x59 JUMPI DUP1 PUSH4 0x8DA5CB5B EQ PUSH2 0xDA JUMPI DUP1 PUSH4 0xB7D19FC4 EQ PUSH2 0xF8 JUMPI DUP1 PUSH4 0xF2FDE38B EQ PUSH2 0x116 JUMPI DUP1 PUSH4 0xFE784EAA EQ PUSH2 0x132 JUMPI PUSH2 0x86 JUMP JUMPDEST DUP1 PUSH4 0x16DC165B EQ PUSH2 0x8A JUMPI DUP1 PUSH4 0x3BA0B9A9 EQ PUSH2 0xA8 JUMPI DUP1 PUSH4 0x715018A6 EQ PUSH2 0xC6 JUMPI DUP1 PUSH4 0x8D8F2ADB EQ PUSH2 0xD0 JUMPI JUMPDEST PUSH0 DUP1 REVERT JUMPDEST PUSH2 0x92 PUSH2 0x14E JUMP JUMPDEST PUSH1 0x40 MLOAD PUSH2 0x9F SWAP2 SWAP1 PUSH2 0x9FE JUMP JUMPDEST PUSH1 0x40 MLOAD DUP1 SWAP2 SUB SWAP1 RETURN JUMPDEST PUSH2 0xB0 PUSH2 0x173 JUMP JUMPDEST PUSH1 0x40 MLOAD PUSH2 0xBD SWAP2 SWAP1 PUSH2 0xA2F JUMP JUMPDEST PUSH1 0x40 MLOAD DUP1 SWAP2 SUB SWAP1 RETURN JUMPDEST PUSH2 0xCE PUSH2 0x179 JUMP JUMPDEST STOP JUMPDEST PUSH2 0xD8 PUSH2 0x18C JUMP JUMPDEST STOP JUMPDEST PUSH2 0xE2 PUSH2 0x41C JUMP JUMPDEST PUSH1 0x40 MLOAD PUSH2 0xEF SWAP2 SWAP1 PUSH2 0xA68 JUMP JUMPDEST PUSH1 0x40 MLOAD DUP1 SWAP2 SUB SWAP1 RETURN JUMPDEST PUSH2 0x100 PUSH2 0x443 JUMP JUMPDEST PUSH1 0x40 MLOAD PUSH2 0x10D SWAP2 SWAP1 PUSH2 0x9FE JUMP JUMPDEST PUSH1 0x40 MLOAD DUP1 SWAP2 SUB SWAP1 RETURN JUMPDEST PUSH2 0x130 PUSH1 0x4 DUP1 CALLDATASIZE SUB DUP2 ADD SWAP1 PUSH2 0x12B SWAP2 SWAP1 PUSH2 0xAAF JUMP JUMPDEST PUSH2 0x468 JUMP JUMPDEST STOP JUMPDEST PUSH2 0x14C PUSH1 0x4 DUP1 CALLDATASIZE SUB DUP2 ADD SWAP1 PUSH2 0x147 SWAP2 SWAP1 PUSH2 0xB04 JUMP JUMPDEST PUSH2 0x4EC JUMP JUMPDEST STOP JUMPDEST PUSH1 0x1 PUSH0 SWAP1 SLOAD SWAP1 PUSH2 0x100 EXP SWAP1 DIV PUSH20 0xFFFFFFFFFFFFFFFFFFFFFFFFFFFFFFFFFFFFFFFF AND DUP2 JUMP JUMPDEST PUSH1 0x3 SLOAD DUP2 JUMP JUMPDEST PUSH2 0x181 PUSH2 0x835 JUMP JUMPDEST PUSH2 0x18A PUSH0 PUSH2 0x8BC JUMP JUMPDEST JUMP JUMPDEST PUSH2 0x194 PUSH2 0x835 JUMP JUMPDEST PUSH0 PUSH1 0x1 PUSH0 SWAP1 SLOAD SWAP1 PUSH2 0x100 EXP SWAP1 DIV PUSH20 0xFFFFFFFFFFFFFFFFFFFFFFFFFFFFFFFFFFFFFFFF AND PUSH20 0xFFFFFFFFFFFFFFFFFFFFFFFFFFFFFFFFFFFFFFFF AND PUSH4 0x70A08231 ADDRESS PUSH1 0x40 MLOAD DUP3 PUSH4 0xFFFFFFFF AND PUSH1 0xE0 SHL DUP2 MSTORE PUSH1 0x4 ADD PUSH2 0x1EF SWAP2 SWAP1 PUSH2 0xA68 JUMP JUMPDEST PUSH1 0x20 PUSH1 0x40 MLOAD DUP1 DUP4 SUB DUP2 DUP7 GAS STATICCALL ISZERO DUP1 ISZERO PUSH2 0x20A JUMPI RETURNDATASIZE PUSH0 DUP1 RETURNDATACOPY RETURNDATASIZE PUSH0 REVERT JUMPDEST POP POP POP POP PUSH1 0x40 MLOAD RETURNDATASIZE PUSH1 0x1F NOT PUSH1 0x1F DUP3 ADD AND DUP3 ADD DUP1 PUSH1 0x40 MSTORE POP DUP2 ADD SWAP1 PUSH2 0x22E SWAP2 SWAP1 PUSH2 0xB43 JUMP JUMPDEST SWAP1 POP PUSH0 PUSH1 0x2 PUSH0 SWAP1 SLOAD SWAP1 PUSH2 0x100 EXP SWAP1 DIV PUSH20 0xFFFFFFFFFFFFFFFFFFFFFFFFFFFFFFFFFFFFFFFF AND PUSH20 0xFFFFFFFFFFFFFFFFFFFFFFFFFFFFFFFFFFFFFFFF AND PUSH4 0x70A08231 ADDRESS PUSH1 0x40 MLOAD DUP3 PUSH4 0xFFFFFFFF AND PUSH1 0xE0 SHL DUP2 MSTORE PUSH1 0x4 ADD PUSH2 0x28B SWAP2 SWAP1 PUSH2 0xA68 JUMP JUMPDEST PUSH1 0x20 PUSH1 0x40 MLOAD DUP1 DUP4 SUB DUP2 DUP7 GAS STATICCALL ISZERO DUP1 ISZERO PUSH2 0x2A6 JUMPI RETURNDATASIZE PUSH0 DUP1 RETURNDATACOPY RETURNDATASIZE PUSH0 REVERT JUMPDEST POP POP POP POP PUSH1 0x40 MLOAD RETURNDATASIZE PUSH1 0x1F NOT PUSH1 0x1F DUP3 ADD AND DUP3 ADD DUP1 PUSH1 0x40 MSTORE POP DUP2 ADD SWAP1 PUSH2 0x2CA SWAP2 SWAP1 PUSH2 0xB43 JUMP JUMPDEST SWAP1 POP PUSH0 DUP3 GT ISZERO PUSH2 0x372 JUMPI PUSH1 0x1 PUSH0 SWAP1 SLOAD SWAP1 PUSH2 0x100 EXP SWAP1 DIV PUSH20 0xFFFFFFFFFFFFFFFFFFFFFFFFFFFFFFFFFFFFFFFF AND PUSH20 0xFFFFFFFFFFFFFFFFFFFFFFFFFFFFFFFFFFFFFFFF AND PUSH4 0xA9059CBB CALLER DUP5 PUSH1 0x40 MLOAD DUP4 PUSH4 0xFFFFFFFF AND PUSH1 0xE0 SHL DUP2 MSTORE PUSH1 0x4 ADD PUSH2 0x330 SWAP3 SWAP2 SWAP1 PUSH2 0xB6E JUMP JUMPDEST PUSH1 0x20 PUSH1 0x40 MLOAD DUP1 DUP4 SUB DUP2 PUSH0 DUP8 GAS CALL ISZERO DUP1 ISZERO PUSH2 0x34C JUMPI RETURNDATASIZE PUSH0 DUP1 RETURNDATACOPY RETURNDATASIZE PUSH0 REVERT JUMPDEST POP POP POP POP PUSH1 0x40 MLOAD RETURNDATASIZE PUSH1 0x1F NOT PUSH1 0x1F DUP3 ADD AND DUP3 ADD DUP1 PUSH1 0x40 MSTORE POP DUP2 ADD SWAP1 PUSH2 0x370 SWAP2 SWAP1 PUSH2 0xBCA JUMP JUMPDEST POP JUMPDEST PUSH0 DUP2 GT ISZERO PUSH2 0x418 JUMPI PUSH1 0x2 PUSH0 SWAP1 SLOAD SWAP1 PUSH2 0x100 EXP SWAP1 DIV PUSH20 0xFFFFFFFFFFFFFFFFFFFFFFFFFFFFFFFFFFFFFFFF AND PUSH20 0xFFFFFFFFFFFFFFFFFFFFFFFFFFFFFFFFFFFFFFFF AND PUSH4 0xA9059CBB CALLER DUP4 PUSH1 0x40 MLOAD DUP4 PUSH4 0xFFFFFFFF AND PUSH1 0xE0 SHL DUP2 MSTORE PUSH1 0x4 ADD PUSH2 0x3D6 SWAP3 SWAP2 SWAP1 PUSH2 0xB6E JUMP JUMPDEST PUSH1 0x20 PUSH1 0x40 MLOAD DUP1 DUP4 SUB DUP2 PUSH0 DUP8 GAS CALL ISZERO DUP1 ISZERO PUSH2 0x3F2 JUMPI RETURNDATASIZE PUSH0 DUP1 RETURNDATACOPY RETURNDATASIZE PUSH0 REVERT JUMPDEST POP POP POP POP PUSH1 0x40 MLOAD RETURNDATASIZE PUSH1 0x1F NOT PUSH1 0x1F DUP3 ADD AND DUP3 ADD DUP1 PUSH1 0x40 MSTORE POP DUP2 ADD SWAP1 PUSH2 0x416 SWAP2 SWAP1 PUSH2 0xBCA JUMP JUMPDEST POP JUMPDEST POP POP JUMP JUMPDEST PUSH0 DUP1 PUSH0 SWAP1 SLOAD SWAP1 PUSH2 0x100 EXP SWAP1 DIV PUSH20 0xFFFFFFFFFFFFFFFFFFFFFFFFFFFFFFFFFFFFFFFF AND SWAP1 POP SWAP1 JUMP JUMPDEST PUSH1 0x2 PUSH0 SWAP1 SLOAD SWAP1 PUSH2 0x100 EXP SWAP1 DIV PUSH20 0xFFFFFFFFFFFFFFFFFFFFFFFFFFFFFFFFFFFFFFFF AND DUP2 JUMP JUMPDEST PUSH2 0x470 PUSH2 0x835 JUMP JUMPDEST PUSH0 PUSH20 0xFFFFFFFFFFFFFFFFFFFFFFFFFFFFFFFFFFFFFFFF AND DUP2 PUSH20 0xFFFFFFFFFFFFFFFFFFFFFFFFFFFFFFFFFFFFFFFF AND SUB PUSH2 0x4E0 JUMPI PUSH0 PUSH1 0x40 MLOAD PUSH32 0x1E4FBDF700000000000000000000000000000000000000000000000000000000 DUP2 MSTORE PUSH1 0x4 ADD PUSH2 0x4D7 SWAP2 SWAP1 PUSH2 0xA68 JUMP JUMPDEST PUSH1 0x40 MLOAD DUP1 SWAP2 SUB SWAP1 REVERT JUMPDEST PUSH2 0x4E9 DUP2 PUSH2 0x8BC JUMP JUMPDEST POP JUMP JUMPDEST PUSH0 DUP2 GT PUSH2 0x52E JUMPI PUSH1 0x40 MLOAD PUSH32 0x8C379A000000000000000000000000000000000000000000000000000000000 DUP2 MSTORE PUSH1 0x4 ADD PUSH2 0x525 SWAP1 PUSH2 0xC75 JUMP JUMPDEST PUSH1 0x40 MLOAD DUP1 SWAP2 SUB SWAP1 REVERT JUMPDEST PUSH0 PUSH1 0x3 SLOAD DUP3 PUSH2 0x53D SWAP2 SWAP1 PUSH2 0xCC0 JUMP JUMPDEST SWAP1 POP PUSH0 PUSH1 0x2 PUSH0 SWAP1 SLOAD SWAP1 PUSH2 0x100 EXP SWAP1 DIV PUSH20 0xFFFFFFFFFFFFFFFFFFFFFFFFFFFFFFFFFFFFFFFF AND PUSH20 0xFFFFFFFFFFFFFFFFFFFFFFFFFFFFFFFFFFFFFFFF AND PUSH4 0x70A08231 ADDRESS PUSH1 0x40 MLOAD DUP3 PUSH4 0xFFFFFFFF AND PUSH1 0xE0 SHL DUP2 MSTORE PUSH1 0x4 ADD PUSH2 0x59A SWAP2 SWAP1 PUSH2 0xA68 JUMP JUMPDEST PUSH1 0x20 PUSH1 0x40 MLOAD DUP1 DUP4 SUB DUP2 DUP7 GAS STATICCALL ISZERO DUP1 ISZERO PUSH2 0x5B5 JUMPI RETURNDATASIZE PUSH0 DUP1 RETURNDATACOPY RETURNDATASIZE PUSH0 REVERT JUMPDEST POP POP POP POP PUSH1 0x40 MLOAD RETURNDATASIZE PUSH1 0x1F NOT PUSH1 0x1F DUP3 ADD AND DUP3 ADD DUP1 PUSH1 0x40 MSTORE POP DUP2 ADD SWAP1 PUSH2 0x5D9 SWAP2 SWAP1 PUSH2 0xB43 JUMP JUMPDEST SWAP1 POP DUP2 DUP2 LT ISZERO PUSH2 0x61E JUMPI PUSH1 0x40 MLOAD PUSH32 0x8C379A000000000000000000000000000000000000000000000000000000000 DUP2 MSTORE PUSH1 0x4 ADD PUSH2 0x615 SWAP1 PUSH2 0xD71 JUMP JUMPDEST PUSH1 0x40 MLOAD DUP1 SWAP2 SUB SWAP1 REVERT JUMPDEST PUSH0 PUSH1 0x1 PUSH0 SWAP1 SLOAD SWAP1 PUSH2 0x100 EXP SWAP1 DIV PUSH20 0xFFFFFFFFFFFFFFFFFFFFFFFFFFFFFFFFFFFFFFFF AND PUSH20 0xFFFFFFFFFFFFFFFFFFFFFFFFFFFFFFFFFFFFFFFF AND PUSH4 0x23B872DD CALLER ADDRESS DUP8 PUSH1 0x40 MLOAD DUP5 PUSH4 0xFFFFFFFF AND PUSH1 0xE0 SHL DUP2 MSTORE PUSH1 0x4 ADD PUSH2 0x67D SWAP4 SWAP3 SWAP2 SWAP1 PUSH2 0xD8F JUMP JUMPDEST PUSH1 0x20 PUSH1 0x40 MLOAD DUP1 DUP4 SUB DUP2 PUSH0 DUP8 GAS CALL ISZERO DUP1 ISZERO PUSH2 0x699 JUMPI RETURNDATASIZE PUSH0 DUP1 RETURNDATACOPY RETURNDATASIZE PUSH0 REVERT JUMPDEST POP POP POP POP PUSH1 0x40 MLOAD RETURNDATASIZE PUSH1 0x1F NOT PUSH1 0x1F DUP3 ADD AND DUP3 ADD DUP1 PUSH1 0x40 MSTORE POP DUP2 ADD SWAP1 PUSH2 0x6BD SWAP2 SWAP1 PUSH2 0xBCA JUMP JUMPDEST SWAP1 POP DUP1 PUSH2 0x6FF JUMPI PUSH1 0x40 MLOAD PUSH32 0x8C379A000000000000000000000000000000000000000000000000000000000 DUP2 MSTORE PUSH1 0x4 ADD PUSH2 0x6F6 SWAP1 PUSH2 0xE34 JUMP JUMPDEST PUSH1 0x40 MLOAD DUP1 SWAP2 SUB SWAP1 REVERT JUMPDEST PUSH0 PUSH1 0x2 PUSH0 SWAP1 SLOAD SWAP1 PUSH2 0x100 EXP SWAP1 DIV PUSH20 0xFFFFFFFFFFFFFFFFFFFFFFFFFFFFFFFFFFFFFFFF AND PUSH20 0xFFFFFFFFFFFFFFFFFFFFFFFFFFFFFFFFFFFFFFFF AND PUSH4 0xA9059CBB CALLER DUP7 PUSH1 0x40 MLOAD DUP4 PUSH4 0xFFFFFFFF AND PUSH1 0xE0 SHL DUP2 MSTORE PUSH1 0x4 ADD PUSH2 0x75C SWAP3 SWAP2 SWAP1 PUSH2 0xB6E JUMP JUMPDEST PUSH1 0x20 PUSH1 0x40 MLOAD DUP1 DUP4 SUB DUP2 PUSH0 DUP8 GAS CALL ISZERO DUP1 ISZERO PUSH2 0x778 JUMPI RETURNDATASIZE PUSH0 DUP1 RETURNDATACOPY RETURNDATASIZE PUSH0 REVERT JUMPDEST POP POP POP POP PUSH1 0x40 MLOAD RETURNDATASIZE PUSH1 0x1F NOT PUSH1 0x1F DUP3 ADD AND DUP3 ADD DUP1 PUSH1 0x40 MSTORE POP DUP2 ADD SWAP1 PUSH2 0x79C SWAP2 SWAP1 PUSH2 0xBCA JUMP JUMPDEST SWAP1 POP DUP1 PUSH2 0x7DE JUMPI PUSH1 0x40 MLOAD PUSH32 0x8C379A000000000000000000000000000000000000000000000000000000000 DUP2 MSTORE PUSH1 0x4 ADD PUSH2 0x7D5 SWAP1 PUSH2 0xEC2 JUMP JUMPDEST PUSH1 0x40 MLOAD DUP1 SWAP2 SUB SWAP1 REVERT JUMPDEST CALLER PUSH20 0xFFFFFFFFFFFFFFFFFFFFFFFFFFFFFFFFFFFFFFFF AND PUSH32 0x77F92A1B6A1A11DE8CA49515AD4C1FAD45632DD3442167D74B90B304A3C7A758 DUP7 DUP7 PUSH1 0x40 MLOAD PUSH2 0x826 SWAP3 SWAP2 SWAP1 PUSH2 0xEE0 JUMP JUMPDEST PUSH1 0x40 MLOAD DUP1 SWAP2 SUB SWAP1 LOG2 POP POP POP POP POP JUMP JUMPDEST PUSH2 0x83D PUSH2 0x97D JUMP JUMPDEST PUSH20 0xFFFFFFFFFFFFFFFFFFFFFFFFFFFFFFFFFFFFFFFF AND PUSH2 0x85B PUSH2 0x41C JUMP JUMPDEST PUSH20 0xFFFFFFFFFFFFFFFFFFFFFFFFFFFFFFFFFFFFFFFF AND EQ PUSH2 0x8BA JUMPI PUSH2 0x87E PUSH2 0x97D JUMP JUMPDEST PUSH1 0x40 MLOAD PUSH32 0x118CDAA700000000000000000000000000000000000000000000000000000000 DUP2 MSTORE PUSH1 0x4 ADD PUSH2 0x8B1 SWAP2 SWAP1 PUSH2 0xA68 JUMP JUMPDEST PUSH1 0x40 MLOAD DUP1 SWAP2 SUB SWAP1 REVERT JUMPDEST JUMP JUMPDEST PUSH0 DUP1 PUSH0 SWAP1 SLOAD SWAP1 PUSH2 0x100 EXP SWAP1 DIV PUSH20 0xFFFFFFFFFFFFFFFFFFFFFFFFFFFFFFFFFFFFFFFF AND SWAP1 POP DUP2 PUSH0 DUP1 PUSH2 0x100 EXP DUP2 SLOAD DUP2 PUSH20 0xFFFFFFFFFFFFFFFFFFFFFFFFFFFFFFFFFFFFFFFF MUL NOT AND SWAP1 DUP4 PUSH20 0xFFFFFFFFFFFFFFFFFFFFFFFFFFFFFFFFFFFFFFFF AND MUL OR SWAP1 SSTORE POP DUP2 PUSH20 0xFFFFFFFFFFFFFFFFFFFFFFFFFFFFFFFFFFFFFFFF AND DUP2 PUSH20 0xFFFFFFFFFFFFFFFFFFFFFFFFFFFFFFFFFFFFFFFF AND PUSH32 0x8BE0079C531659141344CD1FD0A4F28419497F9722A3DAAFE3B4186F6B6457E0 PUSH1 0x40 MLOAD PUSH1 0x40 MLOAD DUP1 SWAP2 SUB SWAP1 LOG3 POP POP JUMP JUMPDEST PUSH0 CALLER SWAP1 POP SWAP1 JUMP JUMPDEST PUSH0 PUSH20 0xFFFFFFFFFFFFFFFFFFFFFFFFFFFFFFFFFFFFFFFF DUP3 AND SWAP1 POP SWAP2 SWAP1 POP JUMP JUMPDEST PUSH0 DUP2 SWAP1 POP SWAP2 SWAP1 POP JUMP JUMPDEST PUSH0 PUSH2 0x9C6 PUSH2 0x9C1 PUSH2 0x9BC DUP5 PUSH2 0x984 JUMP JUMPDEST PUSH2 0x9A3 JUMP JUMPDEST PUSH2 0x984 JUMP JUMPDEST SWAP1 POP SWAP2 SWAP1 POP JUMP JUMPDEST PUSH0 PUSH2 0x9D7 DUP3 PUSH2 0x9AC JUMP JUMPDEST SWAP1 POP SWAP2 SWAP1 POP JUMP JUMPDEST PUSH0 PUSH2 0x9E8 DUP3 PUSH2 0x9CD JUMP JUMPDEST SWAP1 POP SWAP2 SWAP1 POP JUMP JUMPDEST PUSH2 0x9F8 DUP2 PUSH2 0x9DE JUMP JUMPDEST DUP3 MSTORE POP POP JUMP JUMPDEST PUSH0 PUSH1 0x20 DUP3 ADD SWAP1 POP PUSH2 0xA11 PUSH0 DUP4 ADD DUP5 PUSH2 0x9EF JUMP JUMPDEST SWAP3 SWAP2 POP POP JUMP JUMPDEST PUSH0 DUP2 SWAP1 POP SWAP2 SWAP1 POP JUMP JUMPDEST PUSH2 0xA29 DUP2 PUSH2 0xA17 JUMP JUMPDEST DUP3 MSTORE POP POP JUMP JUMPDEST PUSH0 PUSH1 0x20 DUP3 ADD SWAP1 POP PUSH2 0xA42 PUSH0 DUP4 ADD DUP5 PUSH2 0xA20 JUMP JUMPDEST SWAP3 SWAP2 POP POP JUMP JUMPDEST PUSH0 PUSH2 0xA52 DUP3 PUSH2 0x984 JUMP JUMPDEST SWAP1 POP SWAP2 SWAP1 POP JUMP JUMPDEST PUSH2 0xA62 DUP2 PUSH2 0xA48 JUMP JUMPDEST DUP3 MSTORE POP POP JUMP JUMPDEST PUSH0 PUSH1 0x20 DUP3 ADD SWAP1 POP PUSH2 0xA7B PUSH0 DUP4 ADD DUP5 PUSH2 0xA59 JUMP JUMPDEST SWAP3 SWAP2 POP POP JUMP JUMPDEST PUSH0 DUP1 REVERT JUMPDEST PUSH2 0xA8E DUP2 PUSH2 0xA48 JUMP JUMPDEST DUP2 EQ PUSH2 0xA98 JUMPI PUSH0 DUP1 REVERT JUMPDEST POP JUMP JUMPDEST PUSH0 DUP2 CALLDATALOAD SWAP1 POP PUSH2 0xAA9 DUP2 PUSH2 0xA85 JUMP JUMPDEST SWAP3 SWAP2 POP POP JUMP JUMPDEST PUSH0 PUSH1 0x20 DUP3 DUP5 SUB SLT ISZERO PUSH2 0xAC4 JUMPI PUSH2 0xAC3 PUSH2 0xA81 JUMP JUMPDEST JUMPDEST PUSH0 PUSH2 0xAD1 DUP5 DUP3 DUP6 ADD PUSH2 0xA9B JUMP JUMPDEST SWAP2 POP POP SWAP3 SWAP2 POP POP JUMP JUMPDEST PUSH2 0xAE3 DUP2 PUSH2 0xA17 JUMP JUMPDEST DUP2 EQ PUSH2 0xAED JUMPI PUSH0 DUP1 REVERT JUMPDEST POP JUMP JUMPDEST PUSH0 DUP2 CALLDATALOAD SWAP1 POP PUSH2 0xAFE DUP2 PUSH2 0xADA JUMP JUMPDEST SWAP3 SWAP2 POP POP JUMP JUMPDEST PUSH0 PUSH1 0x20 DUP3 DUP5 SUB SLT ISZERO PUSH2 0xB19 JUMPI PUSH2 0xB18 PUSH2 0xA81 JUMP JUMPDEST JUMPDEST PUSH0 PUSH2 0xB26 DUP5 DUP3 DUP6 ADD PUSH2 0xAF0 JUMP JUMPDEST SWAP2 POP POP SWAP3 SWAP2 POP POP JUMP JUMPDEST PUSH0 DUP2 MLOAD SWAP1 POP PUSH2 0xB3D DUP2 PUSH2 0xADA JUMP JUMPDEST SWAP3 SWAP2 POP POP JUMP JUMPDEST PUSH0 PUSH1 0x20 DUP3 DUP5 SUB SLT ISZERO PUSH2 0xB58 JUMPI PUSH2 0xB57 PUSH2 0xA81 JUMP JUMPDEST JUMPDEST PUSH0 PUSH2 0xB65 DUP5 DUP3 DUP6 ADD PUSH2 0xB2F JUMP JUMPDEST SWAP2 POP POP SWAP3 SWAP2 POP POP JUMP JUMPDEST PUSH0 PUSH1 0x40 DUP3 ADD SWAP1 POP PUSH2 0xB81 PUSH0 DUP4 ADD DUP6 PUSH2 0xA59 JUMP JUMPDEST PUSH2 0xB8E PUSH1 0x20 DUP4 ADD DUP5 PUSH2 0xA20 JUMP JUMPDEST SWAP4 SWAP3 POP POP POP JUMP JUMPDEST PUSH0 DUP2 ISZERO ISZERO SWAP1 POP SWAP2 SWAP1 POP JUMP JUMPDEST PUSH2 0xBA9 DUP2 PUSH2 0xB95 JUMP JUMPDEST DUP2 EQ PUSH2 0xBB3 JUMPI PUSH0 DUP1 REVERT JUMPDEST POP JUMP JUMPDEST PUSH0 DUP2 MLOAD SWAP1 POP PUSH2 0xBC4 DUP2 PUSH2 0xBA0 JUMP JUMPDEST SWAP3 SWAP2 POP POP JUMP JUMPDEST PUSH0 PUSH1 0x20 DUP3 DUP5 SUB SLT ISZERO PUSH2 0xBDF JUMPI PUSH2 0xBDE PUSH2 0xA81 JUMP JUMPDEST JUMPDEST PUSH0 PUSH2 0xBEC DUP5 DUP3 DUP6 ADD PUSH2 0xBB6 JUMP JUMPDEST SWAP2 POP POP SWAP3 SWAP2 POP POP JUMP JUMPDEST PUSH0 DUP3 DUP3 MSTORE PUSH1 0x20 DUP3 ADD SWAP1 POP SWAP3 SWAP2 POP POP JUMP JUMPDEST PUSH32 0x41207175616E746964616465206465766520736572206D61696F722071756520 PUSH0 DUP3 ADD MSTORE PUSH32 0x7A65726F00000000000000000000000000000000000000000000000000000000 PUSH1 0x20 DUP3 ADD MSTORE POP JUMP JUMPDEST PUSH0 PUSH2 0xC5F PUSH1 0x24 DUP4 PUSH2 0xBF5 JUMP JUMPDEST SWAP2 POP PUSH2 0xC6A DUP3 PUSH2 0xC05 JUMP JUMPDEST PUSH1 0x40 DUP3 ADD SWAP1 POP SWAP2 SWAP1 POP JUMP JUMPDEST PUSH0 PUSH1 0x20 DUP3 ADD SWAP1 POP DUP2 DUP2 SUB PUSH0 DUP4 ADD MSTORE PUSH2 0xC8C DUP2 PUSH2 0xC53 JUMP JUMPDEST SWAP1 POP SWAP2 SWAP1 POP JUMP JUMPDEST PUSH32 0x4E487B7100000000000000000000000000000000000000000000000000000000 PUSH0 MSTORE PUSH1 0x11 PUSH1 0x4 MSTORE PUSH1 0x24 PUSH0 REVERT JUMPDEST PUSH0 PUSH2 0xCCA DUP3 PUSH2 0xA17 JUMP JUMPDEST SWAP2 POP PUSH2 0xCD5 DUP4 PUSH2 0xA17 JUMP JUMPDEST SWAP3 POP DUP3 DUP3 MUL PUSH2 0xCE3 DUP2 PUSH2 0xA17 JUMP JUMPDEST SWAP2 POP DUP3 DUP3 DIV DUP5 EQ DUP4 ISZERO OR PUSH2 0xCFA JUMPI PUSH2 0xCF9 PUSH2 0xC93 JUMP JUMPDEST JUMPDEST POP SWAP3 SWAP2 POP POP JUMP JUMPDEST PUSH32 0x4F20636F6E747261746F206E616F2074656D20546F6B656E5920737566696369 PUSH0 DUP3 ADD MSTORE PUSH32 0x656E746500000000000000000000000000000000000000000000000000000000 PUSH1 0x20 DUP3 ADD MSTORE POP JUMP JUMPDEST PUSH0 PUSH2 0xD5B PUSH1 0x24 DUP4 PUSH2 0xBF5 JUMP JUMPDEST SWAP2 POP PUSH2 0xD66 DUP3 PUSH2 0xD01 JUMP JUMPDEST PUSH1 0x40 DUP3 ADD SWAP1 POP SWAP2 SWAP1 POP JUMP JUMPDEST PUSH0 PUSH1 0x20 DUP3 ADD SWAP1 POP DUP2 DUP2 SUB PUSH0 DUP4 ADD MSTORE PUSH2 0xD88 DUP2 PUSH2 0xD4F JUMP JUMPDEST SWAP1 POP SWAP2 SWAP1 POP JUMP JUMPDEST PUSH0 PUSH1 0x60 DUP3 ADD SWAP1 POP PUSH2 0xDA2 PUSH0 DUP4 ADD DUP7 PUSH2 0xA59 JUMP JUMPDEST PUSH2 0xDAF PUSH1 0x20 DUP4 ADD DUP6 PUSH2 0xA59 JUMP JUMPDEST PUSH2 0xDBC PUSH1 0x40 DUP4 ADD DUP5 PUSH2 0xA20 JUMP JUMPDEST SWAP5 SWAP4 POP POP POP POP JUMP JUMPDEST PUSH32 0x46616C686120616F207472616E73666572697220546F6B656E58207061726120 PUSH0 DUP3 ADD MSTORE PUSH32 0x6F20636F6E747261746F00000000000000000000000000000000000000000000 PUSH1 0x20 DUP3 ADD MSTORE POP JUMP JUMPDEST PUSH0 PUSH2 0xE1E PUSH1 0x2A DUP4 PUSH2 0xBF5 JUMP JUMPDEST SWAP2 POP PUSH2 0xE29 DUP3 PUSH2 0xDC4 JUMP JUMPDEST PUSH1 0x40 DUP3 ADD SWAP1 POP SWAP2 SWAP1 POP JUMP JUMPDEST PUSH0 PUSH1 0x20 DUP3 ADD SWAP1 POP DUP2 DUP2 SUB PUSH0 DUP4 ADD MSTORE PUSH2 0xE4B DUP2 PUSH2 0xE12 JUMP JUMPDEST SWAP1 POP SWAP2 SWAP1 POP JUMP JUMPDEST PUSH32 0x46616C686120616F207472616E73666572697220546F6B656E59207061726120 PUSH0 DUP3 ADD MSTORE PUSH32 0x6F207573756172696F0000000000000000000000000000000000000000000000 PUSH1 0x20 DUP3 ADD MSTORE POP JUMP JUMPDEST PUSH0 PUSH2 0xEAC PUSH1 0x29 DUP4 PUSH2 0xBF5 JUMP JUMPDEST SWAP2 POP PUSH2 0xEB7 DUP3 PUSH2 0xE52 JUMP JUMPDEST PUSH1 0x40 DUP3 ADD SWAP1 POP SWAP2 SWAP1 POP JUMP JUMPDEST PUSH0 PUSH1 0x20 DUP3 ADD SWAP1 POP DUP2 DUP2 SUB PUSH0 DUP4 ADD MSTORE PUSH2 0xED9 DUP2 PUSH2 0xEA0 JUMP JUMPDEST SWAP1 POP SWAP2 SWAP1 POP JUMP JUMPDEST PUSH0 PUSH1 0x40 DUP3 ADD SWAP1 POP PUSH2 0xEF3 PUSH0 DUP4 ADD DUP6 PUSH2 0xA20 JUMP JUMPDEST PUSH2 0xF00 PUSH1 0x20 DUP4 ADD DUP5 PUSH2 0xA20 JUMP JUMPDEST SWAP4 SWAP3 POP POP POP JUMP INVALID LOG2 PUSH5 0x6970667358 0x22 SLT KECCAK256 0xD4 0xFB 0xA9 0xCA PUSH13 0xF996B05AF07076E80C059967F6 0x24 DUP8 0xCB 0x26 SWAP5 0x22 0xAC 0xF PUSH31 0x62E87734F264736F6C634300081A0033000000000000000000000000000000 "
				},
				"gasEstimates": {
					"creation": {
						"codeDepositCost": "780200",
						"executionCost": "infinite",
						"totalCost": "infinite"
					},
					"external": {
						"exchangeRate()": "2448",
						"owner()": "2515",
						"renounceOwnership()": "infinite",
						"swapTokens(uint256)": "infinite",
						"tokenX()": "infinite",
						"tokenY()": "infinite",
						"transferOwnership(address)": "infinite",
						"withdrawTokens()": "infinite"
					}
				},
				"methodIdentifiers": {
					"exchangeRate()": "3ba0b9a9",
					"owner()": "8da5cb5b",
					"renounceOwnership()": "715018a6",
					"swapTokens(uint256)": "fe784eaa",
					"tokenX()": "16dc165b",
					"tokenY()": "b7d19fc4",
					"transferOwnership(address)": "f2fde38b",
					"withdrawTokens()": "8d8f2adb"
				}
			},
			"storageLayout": {
				"storage": [
					{
						"astId": 8,
						"contract": "contracts/tokenSwap,sol.sol:TokenSwap",
						"label": "_owner",
						"offset": 0,
						"slot": "0",
						"type": "t_address"
					},
					{
						"astId": 264,
						"contract": "contracts/tokenSwap,sol.sol:TokenSwap",
						"label": "tokenX",
						"offset": 0,
						"slot": "1",
						"type": "t_contract(IERC20)225"
					},
					{
						"astId": 267,
						"contract": "contracts/tokenSwap,sol.sol:TokenSwap",
						"label": "tokenY",
						"offset": 0,
						"slot": "2",
						"type": "t_contract(IERC20)225"
					},
					{
						"astId": 269,
						"contract": "contracts/tokenSwap,sol.sol:TokenSwap",
						"label": "exchangeRate",
						"offset": 0,
						"slot": "3",
						"type": "t_uint256"
					}
				],
				"types": {
					"t_address": {
						"encoding": "inplace",
						"label": "address",
						"numberOfBytes": "20"
					},
					"t_contract(IERC20)225": {
						"encoding": "inplace",
						"label": "contract IERC20",
						"numberOfBytes": "20"
					},
					"t_uint256": {
						"encoding": "inplace",
						"label": "uint256",
						"numberOfBytes": "32"
					}
				}
			},
			"userdoc": {
				"kind": "user",
				"methods": {},
				"version": 1
			}
		}
	}
}