{
	"contracts/MilesSwap.sol": {
		"MilesSwap": {
			"abi": [
				{
					"anonymous": false,
					"inputs": [
						{
							"indexed": false,
							"internalType": "uint256",
							"name": "offerId",
							"type": "uint256"
						}
					],
					"name": "SwapOfferAccepted",
					"type": "event"
				},
				{
					"anonymous": false,
					"inputs": [
						{
							"indexed": false,
							"internalType": "uint256",
							"name": "offerId",
							"type": "uint256"
						}
					],
					"name": "SwapOfferCanceled",
					"type": "event"
				},
				{
					"anonymous": false,
					"inputs": [
						{
							"indexed": false,
							"internalType": "uint256",
							"name": "offerId",
							"type": "uint256"
						},
						{
							"indexed": true,
							"internalType": "address",
							"name": "offerer",
							"type": "address"
						},
						{
							"indexed": false,
							"internalType": "address",
							"name": "tokenOffered",
							"type": "address"
						},
						{
							"indexed": false,
							"internalType": "uint256",
							"name": "amountOffered",
							"type": "uint256"
						},
						{
							"indexed": false,
							"internalType": "address",
							"name": "tokenRequested",
							"type": "address"
						},
						{
							"indexed": false,
							"internalType": "uint256",
							"name": "amountRequested",
							"type": "uint256"
						},
						{
							"indexed": false,
							"internalType": "address",
							"name": "recipient",
							"type": "address"
						}
					],
					"name": "SwapOfferCreated",
					"type": "event"
				},
				{
					"inputs": [
						{
							"internalType": "uint256",
							"name": "offerId",
							"type": "uint256"
						}
					],
					"name": "acceptSwapOffer",
					"outputs": [],
					"stateMutability": "nonpayable",
					"type": "function"
				},
				{
					"inputs": [
						{
							"internalType": "uint256",
							"name": "offerId",
							"type": "uint256"
						}
					],
					"name": "cancelSwapOffer",
					"outputs": [],
					"stateMutability": "nonpayable",
					"type": "function"
				},
				{
					"inputs": [
						{
							"internalType": "address",
							"name": "tokenOffered",
							"type": "address"
						},
						{
							"internalType": "uint256",
							"name": "amountOffered",
							"type": "uint256"
						},
						{
							"internalType": "address",
							"name": "tokenRequested",
							"type": "address"
						},
						{
							"internalType": "uint256",
							"name": "amountRequested",
							"type": "uint256"
						},
						{
							"internalType": "address",
							"name": "recipient",
							"type": "address"
						}
					],
					"name": "createSwapOffer",
					"outputs": [],
					"stateMutability": "nonpayable",
					"type": "function"
				},
				{
					"inputs": [],
					"name": "nextOfferId",
					"outputs": [
						{
							"internalType": "uint256",
							"name": "",
							"type": "uint256"
						}
					],
					"stateMutability": "view",
					"type": "function"
				},
				{
					"inputs": [
						{
							"internalType": "uint256",
							"name": "",
							"type": "uint256"
						}
					],
					"name": "swapOffers",
					"outputs": [
						{
							"internalType": "address",
							"name": "offerer",
							"type": "address"
						},
						{
							"internalType": "address",
							"name": "recipient",
							"type": "address"
						},
						{
							"internalType": "address",
							"name": "tokenOffered",
							"type": "address"
						},
						{
							"internalType": "address",
							"name": "tokenRequested",
							"type": "address"
						},
						{
							"internalType": "uint256",
							"name": "amountOffered",
							"type": "uint256"
						},
						{
							"internalType": "uint256",
							"name": "amountRequested",
							"type": "uint256"
						},
						{
							"internalType": "bool",
							"name": "accepted",
							"type": "bool"
						},
						{
							"internalType": "bool",
							"name": "canceled",
							"type": "bool"
						}
					],
					"stateMutability": "view",
					"type": "function"
				}
			],
			"devdoc": {
				"kind": "dev",
				"methods": {},
				"version": 1
			},
			"evm": {
				"assembly": "    /* \"contracts/MilesSwap.sol\":172:3370  contract MilesSwap {... */\n  mstore(0x40, 0x80)\n  callvalue\n  dup1\n  iszero\n  tag_1\n  jumpi\n  0x00\n  dup1\n  revert\ntag_1:\n  pop\n  dataSize(sub_0)\n  dup1\n  dataOffset(sub_0)\n  0x00\n  codecopy\n  0x00\n  return\nstop\n\nsub_0: assembly {\n        /* \"contracts/MilesSwap.sol\":172:3370  contract MilesSwap {... */\n      mstore(0x40, 0x80)\n      callvalue\n      dup1\n      iszero\n      tag_1\n      jumpi\n      0x00\n      dup1\n      revert\n    tag_1:\n      pop\n      jumpi(tag_2, lt(calldatasize, 0x04))\n      shr(0xe0, calldataload(0x00))\n      dup1\n      0x21307b91\n      eq\n      tag_3\n      jumpi\n      dup1\n      0x5f5d0655\n      eq\n      tag_4\n      jumpi\n      dup1\n      0x8a7d8932\n      eq\n      tag_5\n      jumpi\n      dup1\n      0xa13f1c62\n      eq\n      tag_6\n      jumpi\n      dup1\n      0xff5dc8d3\n      eq\n      tag_7\n      jumpi\n    tag_2:\n      0x00\n      dup1\n      revert\n        /* \"contracts/MilesSwap.sol\":1884:2828  function acceptSwapOffer(uint256 offerId) external {... */\n    tag_3:\n      tag_8\n      0x04\n      dup1\n      calldatasize\n      sub\n      dup2\n      add\n      swap1\n      tag_9\n      swap2\n      swap1\n      tag_10\n      jump\t// in\n    tag_9:\n      tag_11\n      jump\t// in\n    tag_8:\n      stop\n        /* \"contracts/MilesSwap.sol\":517:543  uint256 public nextOfferId */\n    tag_4:\n      tag_12\n      tag_13\n      jump\t// in\n    tag_12:\n      mload(0x40)\n      tag_14\n      swap2\n      swap1\n      tag_15\n      jump\t// in\n    tag_14:\n      mload(0x40)\n      dup1\n      swap2\n      sub\n      swap1\n      return\n        /* \"contracts/MilesSwap.sol\":902:1876  function createSwapOffer(... */\n    tag_5:\n      tag_16\n      0x04\n      dup1\n      calldatasize\n      sub\n      dup2\n      add\n      swap1\n      tag_17\n      swap2\n      swap1\n      tag_18\n      jump\t// in\n    tag_17:\n      tag_19\n      jump\t// in\n    tag_16:\n      stop\n        /* \"contracts/MilesSwap.sol\":463:510  mapping(uint256 => SwapOffer) public swapOffers */\n    tag_6:\n      tag_20\n      0x04\n      dup1\n      calldatasize\n      sub\n      dup2\n      add\n      swap1\n      tag_21\n      swap2\n      swap1\n      tag_10\n      jump\t// in\n    tag_21:\n      tag_22\n      jump\t// in\n    tag_20:\n      mload(0x40)\n      tag_23\n      swap9\n      swap8\n      swap7\n      swap6\n      swap5\n      swap4\n      swap3\n      swap2\n      swap1\n      tag_24\n      jump\t// in\n    tag_23:\n      mload(0x40)\n      dup1\n      swap2\n      sub\n      swap1\n      return\n        /* \"contracts/MilesSwap.sol\":2836:3367  function cancelSwapOffer(uint256 offerId) external {... */\n    tag_7:\n      tag_25\n      0x04\n      dup1\n      calldatasize\n      sub\n      dup2\n      add\n      swap1\n      tag_26\n      swap2\n      swap1\n      tag_10\n      jump\t// in\n    tag_26:\n      tag_27\n      jump\t// in\n    tag_25:\n      stop\n        /* \"contracts/MilesSwap.sol\":1884:2828  function acceptSwapOffer(uint256 offerId) external {... */\n    tag_11:\n        /* \"contracts/MilesSwap.sol\":1946:1969  SwapOffer storage offer */\n      0x00\n        /* \"contracts/MilesSwap.sol\":1972:1982  swapOffers */\n      dup1\n        /* \"contracts/MilesSwap.sol\":1972:1991  swapOffers[offerId] */\n      0x00\n        /* \"contracts/MilesSwap.sol\":1983:1990  offerId */\n      dup4\n        /* \"contracts/MilesSwap.sol\":1972:1991  swapOffers[offerId] */\n      dup2\n      mstore\n      0x20\n      add\n      swap1\n      dup2\n      mstore\n      0x20\n      add\n      0x00\n      keccak256\n        /* \"contracts/MilesSwap.sol\":1946:1991  SwapOffer storage offer = swapOffers[offerId] */\n      swap1\n      pop\n        /* \"contracts/MilesSwap.sol\":2011:2016  offer */\n      dup1\n        /* \"contracts/MilesSwap.sol\":2011:2025  offer.accepted */\n      0x06\n      add\n      0x00\n      swap1\n      sload\n      swap1\n      0x0100\n      exp\n      swap1\n      div\n      0xff\n      and\n        /* \"contracts/MilesSwap.sol\":2010:2025  !offer.accepted */\n      iszero\n        /* \"contracts/MilesSwap.sol\":2002:2052  require(!offer.accepted, \"Offer already accepted\") */\n      tag_29\n      jumpi\n      mload(0x40)\n      0x08c379a000000000000000000000000000000000000000000000000000000000\n      dup2\n      mstore\n      0x04\n      add\n      tag_30\n      swap1\n      tag_31\n      jump\t// in\n    tag_30:\n      mload(0x40)\n      dup1\n      swap2\n      sub\n      swap1\n      revert\n    tag_29:\n        /* \"contracts/MilesSwap.sol\":2072:2077  offer */\n      dup1\n        /* \"contracts/MilesSwap.sol\":2072:2086  offer.canceled */\n      0x06\n      add\n      0x01\n      swap1\n      sload\n      swap1\n      0x0100\n      exp\n      swap1\n      div\n      0xff\n      and\n        /* \"contracts/MilesSwap.sol\":2071:2086  !offer.canceled */\n      iszero\n        /* \"contracts/MilesSwap.sol\":2063:2109  require(!offer.canceled, \"Offer was canceled\") */\n      tag_32\n      jumpi\n      mload(0x40)\n      0x08c379a000000000000000000000000000000000000000000000000000000000\n      dup2\n      mstore\n      0x04\n      add\n      tag_33\n      swap1\n      tag_34\n      jump\t// in\n    tag_33:\n      mload(0x40)\n      dup1\n      swap2\n      sub\n      swap1\n      revert\n    tag_32:\n        /* \"contracts/MilesSwap.sol\":2169:2170  0 */\n      0x00\n        /* \"contracts/MilesSwap.sol\":2142:2171  offer.recipient == address(0) */\n      0xffffffffffffffffffffffffffffffffffffffff\n      and\n        /* \"contracts/MilesSwap.sol\":2142:2147  offer */\n      dup2\n        /* \"contracts/MilesSwap.sol\":2142:2157  offer.recipient */\n      0x01\n      add\n      0x00\n      swap1\n      sload\n      swap1\n      0x0100\n      exp\n      swap1\n      div\n      0xffffffffffffffffffffffffffffffffffffffff\n      and\n        /* \"contracts/MilesSwap.sol\":2142:2171  offer.recipient == address(0) */\n      0xffffffffffffffffffffffffffffffffffffffff\n      and\n      eq\n        /* \"contracts/MilesSwap.sol\":2142:2204  offer.recipient == address(0) || offer.recipient == msg.sender */\n      dup1\n      tag_35\n      jumpi\n      pop\n        /* \"contracts/MilesSwap.sol\":2194:2204  msg.sender */\n      caller\n        /* \"contracts/MilesSwap.sol\":2175:2204  offer.recipient == msg.sender */\n      0xffffffffffffffffffffffffffffffffffffffff\n      and\n        /* \"contracts/MilesSwap.sol\":2175:2180  offer */\n      dup2\n        /* \"contracts/MilesSwap.sol\":2175:2190  offer.recipient */\n      0x01\n      add\n      0x00\n      swap1\n      sload\n      swap1\n      0x0100\n      exp\n      swap1\n      div\n      0xffffffffffffffffffffffffffffffffffffffff\n      and\n        /* \"contracts/MilesSwap.sol\":2175:2204  offer.recipient == msg.sender */\n      0xffffffffffffffffffffffffffffffffffffffff\n      and\n      eq\n        /* \"contracts/MilesSwap.sol\":2142:2204  offer.recipient == address(0) || offer.recipient == msg.sender */\n    tag_35:\n        /* \"contracts/MilesSwap.sol\":2120:2267  require(... */\n      tag_36\n      jumpi\n      mload(0x40)\n      0x08c379a000000000000000000000000000000000000000000000000000000000\n      dup2\n      mstore\n      0x04\n      add\n      tag_37\n      swap1\n      tag_38\n      jump\t// in\n    tag_37:\n      mload(0x40)\n      dup1\n      swap2\n      sub\n      swap1\n      revert\n    tag_36:\n        /* \"contracts/MilesSwap.sol\":2342:2347  offer */\n      dup1\n        /* \"contracts/MilesSwap.sol\":2342:2363  offer.amountRequested */\n      0x05\n      add\n      sload\n        /* \"contracts/MilesSwap.sol\":2295:2300  offer */\n      dup2\n        /* \"contracts/MilesSwap.sol\":2295:2315  offer.tokenRequested */\n      0x03\n      add\n      0x00\n      swap1\n      sload\n      swap1\n      0x0100\n      exp\n      swap1\n      div\n      0xffffffffffffffffffffffffffffffffffffffff\n      and\n        /* \"contracts/MilesSwap.sol\":2288:2326  IERC20(offer.tokenRequested).balanceOf */\n      0xffffffffffffffffffffffffffffffffffffffff\n      and\n      0x70a08231\n        /* \"contracts/MilesSwap.sol\":2327:2337  msg.sender */\n      caller\n        /* \"contracts/MilesSwap.sol\":2288:2338  IERC20(offer.tokenRequested).balanceOf(msg.sender) */\n      mload(0x40)\n      dup3\n      0xffffffff\n      and\n      0xe0\n      shl\n      dup2\n      mstore\n      0x04\n      add\n      tag_39\n      swap2\n      swap1\n      tag_40\n      jump\t// in\n    tag_39:\n      0x20\n      mload(0x40)\n      dup1\n      dup4\n      sub\n      dup2\n      dup7\n      gas\n      staticcall\n      iszero\n      dup1\n      iszero\n      tag_42\n      jumpi\n      returndatasize\n      0x00\n      dup1\n      returndatacopy\n      revert(0x00, returndatasize)\n    tag_42:\n      pop\n      pop\n      pop\n      pop\n      mload(0x40)\n      returndatasize\n      not(0x1f)\n      0x1f\n      dup3\n      add\n      and\n      dup3\n      add\n      dup1\n      0x40\n      mstore\n      pop\n      dup2\n      add\n      swap1\n      tag_43\n      swap2\n      swap1\n      tag_44\n      jump\t// in\n    tag_43:\n        /* \"contracts/MilesSwap.sol\":2288:2363  IERC20(offer.tokenRequested).balanceOf(msg.sender) >= offer.amountRequested */\n      lt\n      iszero\n        /* \"contracts/MilesSwap.sol\":2280:2408  require(IERC20(offer.tokenRequested).balanceOf(msg.sender) >= offer.amountRequested, \"Insufficient balance for requested token\") */\n      tag_45\n      jumpi\n      mload(0x40)\n      0x08c379a000000000000000000000000000000000000000000000000000000000\n      dup2\n      mstore\n      0x04\n      add\n      tag_46\n      swap1\n      tag_47\n      jump\t// in\n    tag_46:\n      mload(0x40)\n      dup1\n      swap2\n      sub\n      swap1\n      revert\n    tag_45:\n        /* \"contracts/MilesSwap.sol\":2434:2439  offer */\n      dup1\n        /* \"contracts/MilesSwap.sol\":2434:2454  offer.tokenRequested */\n      0x03\n      add\n      0x00\n      swap1\n      sload\n      swap1\n      0x0100\n      exp\n      swap1\n      div\n      0xffffffffffffffffffffffffffffffffffffffff\n      and\n        /* \"contracts/MilesSwap.sol\":2427:2468  IERC20(offer.tokenRequested).transferFrom */\n      0xffffffffffffffffffffffffffffffffffffffff\n      and\n      0x23b872dd\n        /* \"contracts/MilesSwap.sol\":2469:2479  msg.sender */\n      caller\n        /* \"contracts/MilesSwap.sol\":2481:2486  offer */\n      dup4\n        /* \"contracts/MilesSwap.sol\":2481:2494  offer.offerer */\n      0x00\n      add\n      0x00\n      swap1\n      sload\n      swap1\n      0x0100\n      exp\n      swap1\n      div\n      0xffffffffffffffffffffffffffffffffffffffff\n      and\n        /* \"contracts/MilesSwap.sol\":2496:2501  offer */\n      dup5\n        /* \"contracts/MilesSwap.sol\":2496:2517  offer.amountRequested */\n      0x05\n      add\n      sload\n        /* \"contracts/MilesSwap.sol\":2427:2518  IERC20(offer.tokenRequested).transferFrom(msg.sender, offer.offerer, offer.amountRequested) */\n      mload(0x40)\n      dup5\n      0xffffffff\n      and\n      0xe0\n      shl\n      dup2\n      mstore\n      0x04\n      add\n      tag_48\n      swap4\n      swap3\n      swap2\n      swap1\n      tag_49\n      jump\t// in\n    tag_48:\n      0x20\n      mload(0x40)\n      dup1\n      dup4\n      sub\n      dup2\n      0x00\n      dup8\n      gas\n      call\n      iszero\n      dup1\n      iszero\n      tag_51\n      jumpi\n      returndatasize\n      0x00\n      dup1\n      returndatacopy\n      revert(0x00, returndatasize)\n    tag_51:\n      pop\n      pop\n      pop\n      pop\n      mload(0x40)\n      returndatasize\n      not(0x1f)\n      0x1f\n      dup3\n      add\n      and\n      dup3\n      add\n      dup1\n      0x40\n      mstore\n      pop\n      dup2\n      add\n      swap1\n      tag_52\n      swap2\n      swap1\n      tag_53\n      jump\t// in\n    tag_52:\n        /* \"contracts/MilesSwap.sol\":2419:2557  require(IERC20(offer.tokenRequested).transferFrom(msg.sender, offer.offerer, offer.amountRequested), \"Transfer of requested token failed\") */\n      tag_54\n      jumpi\n      mload(0x40)\n      0x08c379a000000000000000000000000000000000000000000000000000000000\n      dup2\n      mstore\n      0x04\n      add\n      tag_55\n      swap1\n      tag_56\n      jump\t// in\n    tag_55:\n      mload(0x40)\n      dup1\n      swap2\n      sub\n      swap1\n      revert\n    tag_54:\n        /* \"contracts/MilesSwap.sol\":2587:2591  true */\n      0x01\n        /* \"contracts/MilesSwap.sol\":2570:2575  offer */\n      dup2\n        /* \"contracts/MilesSwap.sol\":2570:2584  offer.accepted */\n      0x06\n      add\n      0x00\n        /* \"contracts/MilesSwap.sol\":2570:2591  offer.accepted = true */\n      0x0100\n      exp\n      dup2\n      sload\n      dup2\n      0xff\n      mul\n      not\n      and\n      swap1\n      dup4\n      iszero\n      iszero\n      mul\n      or\n      swap1\n      sstore\n      pop\n        /* \"contracts/MilesSwap.sol\":2607:2633  SwapOfferAccepted(offerId) */\n      0xb4c00185799caa92141c25229d2db03f8205154fc8ffc5d8b7cb632600f75a67\n        /* \"contracts/MilesSwap.sol\":2625:2632  offerId */\n      dup3\n        /* \"contracts/MilesSwap.sol\":2607:2633  SwapOfferAccepted(offerId) */\n      mload(0x40)\n      tag_57\n      swap2\n      swap1\n      tag_15\n      jump\t// in\n    tag_57:\n      mload(0x40)\n      dup1\n      swap2\n      sub\n      swap1\n      log1\n        /* \"contracts/MilesSwap.sol\":2722:2727  offer */\n      dup1\n        /* \"contracts/MilesSwap.sol\":2722:2740  offer.tokenOffered */\n      0x02\n      add\n      0x00\n      swap1\n      sload\n      swap1\n      0x0100\n      exp\n      swap1\n      div\n      0xffffffffffffffffffffffffffffffffffffffff\n      and\n        /* \"contracts/MilesSwap.sol\":2715:2750  IERC20(offer.tokenOffered).transfer */\n      0xffffffffffffffffffffffffffffffffffffffff\n      and\n      0xa9059cbb\n        /* \"contracts/MilesSwap.sol\":2751:2761  msg.sender */\n      caller\n        /* \"contracts/MilesSwap.sol\":2763:2768  offer */\n      dup4\n        /* \"contracts/MilesSwap.sol\":2763:2782  offer.amountOffered */\n      0x04\n      add\n      sload\n        /* \"contracts/MilesSwap.sol\":2715:2783  IERC20(offer.tokenOffered).transfer(msg.sender, offer.amountOffered) */\n      mload(0x40)\n      dup4\n      0xffffffff\n      and\n      0xe0\n      shl\n      dup2\n      mstore\n      0x04\n      add\n      tag_58\n      swap3\n      swap2\n      swap1\n      tag_59\n      jump\t// in\n    tag_58:\n      0x20\n      mload(0x40)\n      dup1\n      dup4\n      sub\n      dup2\n      0x00\n      dup8\n      gas\n      call\n      iszero\n      dup1\n      iszero\n      tag_61\n      jumpi\n      returndatasize\n      0x00\n      dup1\n      returndatacopy\n      revert(0x00, returndatasize)\n    tag_61:\n      pop\n      pop\n      pop\n      pop\n      mload(0x40)\n      returndatasize\n      not(0x1f)\n      0x1f\n      dup3\n      add\n      and\n      dup3\n      add\n      dup1\n      0x40\n      mstore\n      pop\n      dup2\n      add\n      swap1\n      tag_62\n      swap2\n      swap1\n      tag_53\n      jump\t// in\n    tag_62:\n        /* \"contracts/MilesSwap.sol\":2707:2820  require(IERC20(offer.tokenOffered).transfer(msg.sender, offer.amountOffered), \"Transfer of offered token failed\") */\n      tag_63\n      jumpi\n      mload(0x40)\n      0x08c379a000000000000000000000000000000000000000000000000000000000\n      dup2\n      mstore\n      0x04\n      add\n      tag_64\n      swap1\n      tag_65\n      jump\t// in\n    tag_64:\n      mload(0x40)\n      dup1\n      swap2\n      sub\n      swap1\n      revert\n    tag_63:\n        /* \"contracts/MilesSwap.sol\":1935:2828  {... */\n      pop\n        /* \"contracts/MilesSwap.sol\":1884:2828  function acceptSwapOffer(uint256 offerId) external {... */\n      pop\n      jump\t// out\n        /* \"contracts/MilesSwap.sol\":517:543  uint256 public nextOfferId */\n    tag_13:\n      sload(0x01)\n      dup2\n      jump\t// out\n        /* \"contracts/MilesSwap.sol\":902:1876  function createSwapOffer(... */\n    tag_19:\n        /* \"contracts/MilesSwap.sol\":1137:1138  0 */\n      0x00\n        /* \"contracts/MilesSwap.sol\":1120:1133  amountOffered */\n      dup5\n        /* \"contracts/MilesSwap.sol\":1120:1138  amountOffered != 0 */\n      eq\n      iszero\n        /* \"contracts/MilesSwap.sol\":1120:1162  amountOffered != 0 && amountRequested != 0 */\n      dup1\n      iszero\n      tag_67\n      jumpi\n      pop\n        /* \"contracts/MilesSwap.sol\":1161:1162  0 */\n      0x00\n        /* \"contracts/MilesSwap.sol\":1142:1157  amountRequested */\n      dup3\n        /* \"contracts/MilesSwap.sol\":1142:1162  amountRequested != 0 */\n      eq\n      iszero\n        /* \"contracts/MilesSwap.sol\":1120:1162  amountOffered != 0 && amountRequested != 0 */\n    tag_67:\n        /* \"contracts/MilesSwap.sol\":1112:1200  require(amountOffered != 0 && amountRequested != 0, \"Amounts must be greater than zero\") */\n      tag_68\n      jumpi\n      mload(0x40)\n      0x08c379a000000000000000000000000000000000000000000000000000000000\n      dup2\n      mstore\n      0x04\n      add\n      tag_69\n      swap1\n      tag_70\n      jump\t// in\n    tag_69:\n      mload(0x40)\n      dup1\n      swap2\n      sub\n      swap1\n      revert\n    tag_68:\n        /* \"contracts/MilesSwap.sol\":1265:1278  amountOffered */\n      dup4\n        /* \"contracts/MilesSwap.sol\":1226:1238  tokenOffered */\n      dup6\n        /* \"contracts/MilesSwap.sol\":1219:1249  IERC20(tokenOffered).balanceOf */\n      0xffffffffffffffffffffffffffffffffffffffff\n      and\n      0x70a08231\n        /* \"contracts/MilesSwap.sol\":1250:1260  msg.sender */\n      caller\n        /* \"contracts/MilesSwap.sol\":1219:1261  IERC20(tokenOffered).balanceOf(msg.sender) */\n      mload(0x40)\n      dup3\n      0xffffffff\n      and\n      0xe0\n      shl\n      dup2\n      mstore\n      0x04\n      add\n      tag_71\n      swap2\n      swap1\n      tag_40\n      jump\t// in\n    tag_71:\n      0x20\n      mload(0x40)\n      dup1\n      dup4\n      sub\n      dup2\n      dup7\n      gas\n      staticcall\n      iszero\n      dup1\n      iszero\n      tag_73\n      jumpi\n      returndatasize\n      0x00\n      dup1\n      returndatacopy\n      revert(0x00, returndatasize)\n    tag_73:\n      pop\n      pop\n      pop\n      pop\n      mload(0x40)\n      returndatasize\n      not(0x1f)\n      0x1f\n      dup3\n      add\n      and\n      dup3\n      add\n      dup1\n      0x40\n      mstore\n      pop\n      dup2\n      add\n      swap1\n      tag_74\n      swap2\n      swap1\n      tag_44\n      jump\t// in\n    tag_74:\n        /* \"contracts/MilesSwap.sol\":1219:1278  IERC20(tokenOffered).balanceOf(msg.sender) >= amountOffered */\n      lt\n      iszero\n        /* \"contracts/MilesSwap.sol\":1211:1321  require(IERC20(tokenOffered).balanceOf(msg.sender) >= amountOffered, \"Insufficient balance for offered token\") */\n      tag_75\n      jumpi\n      mload(0x40)\n      0x08c379a000000000000000000000000000000000000000000000000000000000\n      dup2\n      mstore\n      0x04\n      add\n      tag_76\n      swap1\n      tag_77\n      jump\t// in\n    tag_76:\n      mload(0x40)\n      dup1\n      swap2\n      sub\n      swap1\n      revert\n    tag_75:\n        /* \"contracts/MilesSwap.sol\":1347:1359  tokenOffered */\n      dup5\n        /* \"contracts/MilesSwap.sol\":1340:1373  IERC20(tokenOffered).transferFrom */\n      0xffffffffffffffffffffffffffffffffffffffff\n      and\n      0x23b872dd\n        /* \"contracts/MilesSwap.sol\":1374:1384  msg.sender */\n      caller\n        /* \"contracts/MilesSwap.sol\":1394:1398  this */\n      address\n        /* \"contracts/MilesSwap.sol\":1401:1414  amountOffered */\n      dup8\n        /* \"contracts/MilesSwap.sol\":1340:1415  IERC20(tokenOffered).transferFrom(msg.sender, address(this), amountOffered) */\n      mload(0x40)\n      dup5\n      0xffffffff\n      and\n      0xe0\n      shl\n      dup2\n      mstore\n      0x04\n      add\n      tag_78\n      swap4\n      swap3\n      swap2\n      swap1\n      tag_49\n      jump\t// in\n    tag_78:\n      0x20\n      mload(0x40)\n      dup1\n      dup4\n      sub\n      dup2\n      0x00\n      dup8\n      gas\n      call\n      iszero\n      dup1\n      iszero\n      tag_80\n      jumpi\n      returndatasize\n      0x00\n      dup1\n      returndatacopy\n      revert(0x00, returndatasize)\n    tag_80:\n      pop\n      pop\n      pop\n      pop\n      mload(0x40)\n      returndatasize\n      not(0x1f)\n      0x1f\n      dup3\n      add\n      and\n      dup3\n      add\n      dup1\n      0x40\n      mstore\n      pop\n      dup2\n      add\n      swap1\n      tag_81\n      swap2\n      swap1\n      tag_53\n      jump\t// in\n    tag_81:\n        /* \"contracts/MilesSwap.sol\":1332:1452  require(IERC20(tokenOffered).transferFrom(msg.sender, address(this), amountOffered), \"Transfer of offered token failed\") */\n      tag_82\n      jumpi\n      mload(0x40)\n      0x08c379a000000000000000000000000000000000000000000000000000000000\n      dup2\n      mstore\n      0x04\n      add\n      tag_83\n      swap1\n      tag_65\n      jump\t// in\n    tag_83:\n      mload(0x40)\n      dup1\n      swap2\n      sub\n      swap1\n      revert\n    tag_82:\n        /* \"contracts/MilesSwap.sol\":1491:1714  SwapOffer(... */\n      mload(0x40)\n      dup1\n      0x0100\n      add\n      0x40\n      mstore\n      dup1\n        /* \"contracts/MilesSwap.sol\":1515:1525  msg.sender */\n      caller\n        /* \"contracts/MilesSwap.sol\":1491:1714  SwapOffer(... */\n      0xffffffffffffffffffffffffffffffffffffffff\n      and\n      dup2\n      mstore\n      0x20\n      add\n        /* \"contracts/MilesSwap.sol\":1540:1549  recipient */\n      dup3\n        /* \"contracts/MilesSwap.sol\":1491:1714  SwapOffer(... */\n      0xffffffffffffffffffffffffffffffffffffffff\n      and\n      dup2\n      mstore\n      0x20\n      add\n        /* \"contracts/MilesSwap.sol\":1564:1576  tokenOffered */\n      dup7\n        /* \"contracts/MilesSwap.sol\":1491:1714  SwapOffer(... */\n      0xffffffffffffffffffffffffffffffffffffffff\n      and\n      dup2\n      mstore\n      0x20\n      add\n        /* \"contracts/MilesSwap.sol\":1591:1605  tokenRequested */\n      dup5\n        /* \"contracts/MilesSwap.sol\":1491:1714  SwapOffer(... */\n      0xffffffffffffffffffffffffffffffffffffffff\n      and\n      dup2\n      mstore\n      0x20\n      add\n        /* \"contracts/MilesSwap.sol\":1620:1633  amountOffered */\n      dup6\n        /* \"contracts/MilesSwap.sol\":1491:1714  SwapOffer(... */\n      dup2\n      mstore\n      0x20\n      add\n        /* \"contracts/MilesSwap.sol\":1648:1663  amountRequested */\n      dup4\n        /* \"contracts/MilesSwap.sol\":1491:1714  SwapOffer(... */\n      dup2\n      mstore\n      0x20\n      add\n        /* \"contracts/MilesSwap.sol\":1678:1683  false */\n      0x00\n        /* \"contracts/MilesSwap.sol\":1491:1714  SwapOffer(... */\n      iszero\n      iszero\n      dup2\n      mstore\n      0x20\n      add\n        /* \"contracts/MilesSwap.sol\":1698:1703  false */\n      0x00\n        /* \"contracts/MilesSwap.sol\":1491:1714  SwapOffer(... */\n      iszero\n      iszero\n      dup2\n      mstore\n      pop\n        /* \"contracts/MilesSwap.sol\":1465:1475  swapOffers */\n      0x00\n        /* \"contracts/MilesSwap.sol\":1465:1488  swapOffers[nextOfferId] */\n      dup1\n        /* \"contracts/MilesSwap.sol\":1476:1487  nextOfferId */\n      sload(0x01)\n        /* \"contracts/MilesSwap.sol\":1465:1488  swapOffers[nextOfferId] */\n      dup2\n      mstore\n      0x20\n      add\n      swap1\n      dup2\n      mstore\n      0x20\n      add\n      0x00\n      keccak256\n        /* \"contracts/MilesSwap.sol\":1465:1714  swapOffers[nextOfferId] = SwapOffer(... */\n      0x00\n      dup3\n      add\n      mload\n      dup2\n      0x00\n      add\n      exp(0x0100, 0x00)\n      dup2\n      sload\n      dup2\n      0xffffffffffffffffffffffffffffffffffffffff\n      mul\n      not\n      and\n      swap1\n      dup4\n      0xffffffffffffffffffffffffffffffffffffffff\n      and\n      mul\n      or\n      swap1\n      sstore\n      pop\n      0x20\n      dup3\n      add\n      mload\n      dup2\n      0x01\n      add\n      exp(0x0100, 0x00)\n      dup2\n      sload\n      dup2\n      0xffffffffffffffffffffffffffffffffffffffff\n      mul\n      not\n      and\n      swap1\n      dup4\n      0xffffffffffffffffffffffffffffffffffffffff\n      and\n      mul\n      or\n      swap1\n      sstore\n      pop\n      0x40\n      dup3\n      add\n      mload\n      dup2\n      0x02\n      add\n      exp(0x0100, 0x00)\n      dup2\n      sload\n      dup2\n      0xffffffffffffffffffffffffffffffffffffffff\n      mul\n      not\n      and\n      swap1\n      dup4\n      0xffffffffffffffffffffffffffffffffffffffff\n      and\n      mul\n      or\n      swap1\n      sstore\n      pop\n      0x60\n      dup3\n      add\n      mload\n      dup2\n      0x03\n      add\n      exp(0x0100, 0x00)\n      dup2\n      sload\n      dup2\n      0xffffffffffffffffffffffffffffffffffffffff\n      mul\n      not\n      and\n      swap1\n      dup4\n      0xffffffffffffffffffffffffffffffffffffffff\n      and\n      mul\n      or\n      swap1\n      sstore\n      pop\n      0x80\n      dup3\n      add\n      mload\n      dup2\n      0x04\n      add\n      sstore\n      0xa0\n      dup3\n      add\n      mload\n      dup2\n      0x05\n      add\n      sstore\n      0xc0\n      dup3\n      add\n      mload\n      dup2\n      0x06\n      add\n      exp(0x0100, 0x00)\n      dup2\n      sload\n      dup2\n      0xff\n      mul\n      not\n      and\n      swap1\n      dup4\n      iszero\n      iszero\n      mul\n      or\n      swap1\n      sstore\n      pop\n      0xe0\n      dup3\n      add\n      mload\n      dup2\n      0x06\n      add\n      exp(0x0100, 0x01)\n      dup2\n      sload\n      dup2\n      0xff\n      mul\n      not\n      and\n      swap1\n      dup4\n      iszero\n      iszero\n      mul\n      or\n      swap1\n      sstore\n      pop\n      swap1\n      pop\n      pop\n        /* \"contracts/MilesSwap.sol\":1760:1770  msg.sender */\n      caller\n        /* \"contracts/MilesSwap.sol\":1730:1844  SwapOfferCreated(nextOfferId, msg.sender, tokenOffered, amountOffered, tokenRequested, amountRequested, recipient) */\n      0xffffffffffffffffffffffffffffffffffffffff\n      and\n      0xd4f11c924e0f30cc11d4ea8ed2a2ade6e89321769fcf9adbbcfa0dd839ef09f1\n        /* \"contracts/MilesSwap.sol\":1747:1758  nextOfferId */\n      sload(0x01)\n        /* \"contracts/MilesSwap.sol\":1772:1784  tokenOffered */\n      dup8\n        /* \"contracts/MilesSwap.sol\":1786:1799  amountOffered */\n      dup8\n        /* \"contracts/MilesSwap.sol\":1801:1815  tokenRequested */\n      dup8\n        /* \"contracts/MilesSwap.sol\":1817:1832  amountRequested */\n      dup8\n        /* \"contracts/MilesSwap.sol\":1834:1843  recipient */\n      dup8\n        /* \"contracts/MilesSwap.sol\":1730:1844  SwapOfferCreated(nextOfferId, msg.sender, tokenOffered, amountOffered, tokenRequested, amountRequested, recipient) */\n      mload(0x40)\n      tag_84\n      swap7\n      swap6\n      swap5\n      swap4\n      swap3\n      swap2\n      swap1\n      tag_85\n      jump\t// in\n    tag_84:\n      mload(0x40)\n      dup1\n      swap2\n      sub\n      swap1\n      log2\n        /* \"contracts/MilesSwap.sol\":1855:1866  nextOfferId */\n      0x01\n      0x00\n        /* \"contracts/MilesSwap.sol\":1855:1868  nextOfferId++ */\n      dup2\n      sload\n      dup1\n      swap3\n      swap2\n      swap1\n      tag_86\n      swap1\n      tag_87\n      jump\t// in\n    tag_86:\n      swap2\n      swap1\n      pop\n      sstore\n      pop\n        /* \"contracts/MilesSwap.sol\":902:1876  function createSwapOffer(... */\n      pop\n      pop\n      pop\n      pop\n      pop\n      jump\t// out\n        /* \"contracts/MilesSwap.sol\":463:510  mapping(uint256 => SwapOffer) public swapOffers */\n    tag_22:\n      mstore(0x20, 0x00)\n      dup1\n      0x00\n      mstore\n      keccak256(0x00, 0x40)\n      0x00\n      swap2\n      pop\n      swap1\n      pop\n      dup1\n      0x00\n      add\n      0x00\n      swap1\n      sload\n      swap1\n      0x0100\n      exp\n      swap1\n      div\n      0xffffffffffffffffffffffffffffffffffffffff\n      and\n      swap1\n      dup1\n      0x01\n      add\n      0x00\n      swap1\n      sload\n      swap1\n      0x0100\n      exp\n      swap1\n      div\n      0xffffffffffffffffffffffffffffffffffffffff\n      and\n      swap1\n      dup1\n      0x02\n      add\n      0x00\n      swap1\n      sload\n      swap1\n      0x0100\n      exp\n      swap1\n      div\n      0xffffffffffffffffffffffffffffffffffffffff\n      and\n      swap1\n      dup1\n      0x03\n      add\n      0x00\n      swap1\n      sload\n      swap1\n      0x0100\n      exp\n      swap1\n      div\n      0xffffffffffffffffffffffffffffffffffffffff\n      and\n      swap1\n      dup1\n      0x04\n      add\n      sload\n      swap1\n      dup1\n      0x05\n      add\n      sload\n      swap1\n      dup1\n      0x06\n      add\n      0x00\n      swap1\n      sload\n      swap1\n      0x0100\n      exp\n      swap1\n      div\n      0xff\n      and\n      swap1\n      dup1\n      0x06\n      add\n      0x01\n      swap1\n      sload\n      swap1\n      0x0100\n      exp\n      swap1\n      div\n      0xff\n      and\n      swap1\n      pop\n      dup9\n      jump\t// out\n        /* \"contracts/MilesSwap.sol\":2836:3367  function cancelSwapOffer(uint256 offerId) external {... */\n    tag_27:\n        /* \"contracts/MilesSwap.sol\":2898:2921  SwapOffer storage offer */\n      0x00\n        /* \"contracts/MilesSwap.sol\":2924:2934  swapOffers */\n      dup1\n        /* \"contracts/MilesSwap.sol\":2924:2943  swapOffers[offerId] */\n      0x00\n        /* \"contracts/MilesSwap.sol\":2935:2942  offerId */\n      dup4\n        /* \"contracts/MilesSwap.sol\":2924:2943  swapOffers[offerId] */\n      dup2\n      mstore\n      0x20\n      add\n      swap1\n      dup2\n      mstore\n      0x20\n      add\n      0x00\n      keccak256\n        /* \"contracts/MilesSwap.sol\":2898:2943  SwapOffer storage offer = swapOffers[offerId] */\n      swap1\n      pop\n        /* \"contracts/MilesSwap.sol\":2976:2981  offer */\n      dup1\n        /* \"contracts/MilesSwap.sol\":2976:2989  offer.offerer */\n      0x00\n      add\n      0x00\n      swap1\n      sload\n      swap1\n      0x0100\n      exp\n      swap1\n      div\n      0xffffffffffffffffffffffffffffffffffffffff\n      and\n        /* \"contracts/MilesSwap.sol\":2962:2989  msg.sender == offer.offerer */\n      0xffffffffffffffffffffffffffffffffffffffff\n      and\n        /* \"contracts/MilesSwap.sol\":2962:2972  msg.sender */\n      caller\n        /* \"contracts/MilesSwap.sol\":2962:2989  msg.sender == offer.offerer */\n      0xffffffffffffffffffffffffffffffffffffffff\n      and\n      eq\n        /* \"contracts/MilesSwap.sol\":2954:3029  require(msg.sender == offer.offerer, \"Not authorized to cancel this offer\") */\n      tag_89\n      jumpi\n      mload(0x40)\n      0x08c379a000000000000000000000000000000000000000000000000000000000\n      dup2\n      mstore\n      0x04\n      add\n      tag_90\n      swap1\n      tag_91\n      jump\t// in\n    tag_90:\n      mload(0x40)\n      dup1\n      swap2\n      sub\n      swap1\n      revert\n    tag_89:\n        /* \"contracts/MilesSwap.sol\":3049:3054  offer */\n      dup1\n        /* \"contracts/MilesSwap.sol\":3049:3063  offer.accepted */\n      0x06\n      add\n      0x00\n      swap1\n      sload\n      swap1\n      0x0100\n      exp\n      swap1\n      div\n      0xff\n      and\n        /* \"contracts/MilesSwap.sol\":3048:3063  !offer.accepted */\n      iszero\n        /* \"contracts/MilesSwap.sol\":3040:3099  require(!offer.accepted, \"Cannot cancel an accepted offer\") */\n      tag_92\n      jumpi\n      mload(0x40)\n      0x08c379a000000000000000000000000000000000000000000000000000000000\n      dup2\n      mstore\n      0x04\n      add\n      tag_93\n      swap1\n      tag_94\n      jump\t// in\n    tag_93:\n      mload(0x40)\n      dup1\n      swap2\n      sub\n      swap1\n      revert\n    tag_92:\n        /* \"contracts/MilesSwap.sol\":3129:3133  true */\n      0x01\n        /* \"contracts/MilesSwap.sol\":3112:3117  offer */\n      dup2\n        /* \"contracts/MilesSwap.sol\":3112:3126  offer.canceled */\n      0x06\n      add\n      0x01\n        /* \"contracts/MilesSwap.sol\":3112:3133  offer.canceled = true */\n      0x0100\n      exp\n      dup2\n      sload\n      dup2\n      0xff\n      mul\n      not\n      and\n      swap1\n      dup4\n      iszero\n      iszero\n      mul\n      or\n      swap1\n      sstore\n      pop\n        /* \"contracts/MilesSwap.sol\":3149:3175  SwapOfferCanceled(offerId) */\n      0xde34f35ae5f85da751b0bb6485fa3674ce8750562dd0bd75e4b71f18bba1d3be\n        /* \"contracts/MilesSwap.sol\":3167:3174  offerId */\n      dup3\n        /* \"contracts/MilesSwap.sol\":3149:3175  SwapOfferCanceled(offerId) */\n      mload(0x40)\n      tag_95\n      swap2\n      swap1\n      tag_15\n      jump\t// in\n    tag_95:\n      mload(0x40)\n      dup1\n      swap2\n      sub\n      swap1\n      log1\n        /* \"contracts/MilesSwap.sol\":3251:3256  offer */\n      dup1\n        /* \"contracts/MilesSwap.sol\":3251:3269  offer.tokenOffered */\n      0x02\n      add\n      0x00\n      swap1\n      sload\n      swap1\n      0x0100\n      exp\n      swap1\n      div\n      0xffffffffffffffffffffffffffffffffffffffff\n      and\n        /* \"contracts/MilesSwap.sol\":3244:3279  IERC20(offer.tokenOffered).transfer */\n      0xffffffffffffffffffffffffffffffffffffffff\n      and\n      0xa9059cbb\n        /* \"contracts/MilesSwap.sol\":3280:3285  offer */\n      dup3\n        /* \"contracts/MilesSwap.sol\":3280:3293  offer.offerer */\n      0x00\n      add\n      0x00\n      swap1\n      sload\n      swap1\n      0x0100\n      exp\n      swap1\n      div\n      0xffffffffffffffffffffffffffffffffffffffff\n      and\n        /* \"contracts/MilesSwap.sol\":3295:3300  offer */\n      dup4\n        /* \"contracts/MilesSwap.sol\":3295:3314  offer.amountOffered */\n      0x04\n      add\n      sload\n        /* \"contracts/MilesSwap.sol\":3244:3315  IERC20(offer.tokenOffered).transfer(offer.offerer, offer.amountOffered) */\n      mload(0x40)\n      dup4\n      0xffffffff\n      and\n      0xe0\n      shl\n      dup2\n      mstore\n      0x04\n      add\n      tag_96\n      swap3\n      swap2\n      swap1\n      tag_59\n      jump\t// in\n    tag_96:\n      0x20\n      mload(0x40)\n      dup1\n      dup4\n      sub\n      dup2\n      0x00\n      dup8\n      gas\n      call\n      iszero\n      dup1\n      iszero\n      tag_98\n      jumpi\n      returndatasize\n      0x00\n      dup1\n      returndatacopy\n      revert(0x00, returndatasize)\n    tag_98:\n      pop\n      pop\n      pop\n      pop\n      mload(0x40)\n      returndatasize\n      not(0x1f)\n      0x1f\n      dup3\n      add\n      and\n      dup3\n      add\n      dup1\n      0x40\n      mstore\n      pop\n      dup2\n      add\n      swap1\n      tag_99\n      swap2\n      swap1\n      tag_53\n      jump\t// in\n    tag_99:\n        /* \"contracts/MilesSwap.sol\":3236:3359  require(IERC20(offer.tokenOffered).transfer(offer.offerer, offer.amountOffered), \"Return transfer of offered token failed\") */\n      tag_100\n      jumpi\n      mload(0x40)\n      0x08c379a000000000000000000000000000000000000000000000000000000000\n      dup2\n      mstore\n      0x04\n      add\n      tag_101\n      swap1\n      tag_102\n      jump\t// in\n    tag_101:\n      mload(0x40)\n      dup1\n      swap2\n      sub\n      swap1\n      revert\n    tag_100:\n        /* \"contracts/MilesSwap.sol\":2887:3367  {... */\n      pop\n        /* \"contracts/MilesSwap.sol\":2836:3367  function cancelSwapOffer(uint256 offerId) external {... */\n      pop\n      jump\t// out\n        /* \"#utility.yul\":88:205   */\n    tag_104:\n        /* \"#utility.yul\":197:198   */\n      0x00\n        /* \"#utility.yul\":194:195   */\n      dup1\n        /* \"#utility.yul\":187:199   */\n      revert\n        /* \"#utility.yul\":334:411   */\n    tag_106:\n        /* \"#utility.yul\":371:378   */\n      0x00\n        /* \"#utility.yul\":400:405   */\n      dup2\n        /* \"#utility.yul\":389:405   */\n      swap1\n      pop\n        /* \"#utility.yul\":334:411   */\n      swap2\n      swap1\n      pop\n      jump\t// out\n        /* \"#utility.yul\":417:539   */\n    tag_107:\n        /* \"#utility.yul\":490:514   */\n      tag_150\n        /* \"#utility.yul\":508:513   */\n      dup2\n        /* \"#utility.yul\":490:514   */\n      tag_106\n      jump\t// in\n    tag_150:\n        /* \"#utility.yul\":483:488   */\n      dup2\n        /* \"#utility.yul\":480:515   */\n      eq\n        /* \"#utility.yul\":470:533   */\n      tag_151\n      jumpi\n        /* \"#utility.yul\":529:530   */\n      0x00\n        /* \"#utility.yul\":526:527   */\n      dup1\n        /* \"#utility.yul\":519:531   */\n      revert\n        /* \"#utility.yul\":470:533   */\n    tag_151:\n        /* \"#utility.yul\":417:539   */\n      pop\n      jump\t// out\n        /* \"#utility.yul\":545:684   */\n    tag_108:\n        /* \"#utility.yul\":591:596   */\n      0x00\n        /* \"#utility.yul\":629:635   */\n      dup2\n        /* \"#utility.yul\":616:636   */\n      calldataload\n        /* \"#utility.yul\":607:636   */\n      swap1\n      pop\n        /* \"#utility.yul\":645:678   */\n      tag_153\n        /* \"#utility.yul\":672:677   */\n      dup2\n        /* \"#utility.yul\":645:678   */\n      tag_107\n      jump\t// in\n    tag_153:\n        /* \"#utility.yul\":545:684   */\n      swap3\n      swap2\n      pop\n      pop\n      jump\t// out\n        /* \"#utility.yul\":690:1019   */\n    tag_10:\n        /* \"#utility.yul\":749:755   */\n      0x00\n        /* \"#utility.yul\":798:800   */\n      0x20\n        /* \"#utility.yul\":786:795   */\n      dup3\n        /* \"#utility.yul\":777:784   */\n      dup5\n        /* \"#utility.yul\":773:796   */\n      sub\n        /* \"#utility.yul\":769:801   */\n      slt\n        /* \"#utility.yul\":766:885   */\n      iszero\n      tag_155\n      jumpi\n        /* \"#utility.yul\":804:883   */\n      tag_156\n      tag_104\n      jump\t// in\n    tag_156:\n        /* \"#utility.yul\":766:885   */\n    tag_155:\n        /* \"#utility.yul\":924:925   */\n      0x00\n        /* \"#utility.yul\":949:1002   */\n      tag_157\n        /* \"#utility.yul\":994:1001   */\n      dup5\n        /* \"#utility.yul\":985:991   */\n      dup3\n        /* \"#utility.yul\":974:983   */\n      dup6\n        /* \"#utility.yul\":970:992   */\n      add\n        /* \"#utility.yul\":949:1002   */\n      tag_108\n      jump\t// in\n    tag_157:\n        /* \"#utility.yul\":939:1002   */\n      swap2\n      pop\n        /* \"#utility.yul\":895:1012   */\n      pop\n        /* \"#utility.yul\":690:1019   */\n      swap3\n      swap2\n      pop\n      pop\n      jump\t// out\n        /* \"#utility.yul\":1025:1143   */\n    tag_109:\n        /* \"#utility.yul\":1112:1136   */\n      tag_159\n        /* \"#utility.yul\":1130:1135   */\n      dup2\n        /* \"#utility.yul\":1112:1136   */\n      tag_106\n      jump\t// in\n    tag_159:\n        /* \"#utility.yul\":1107:1110   */\n      dup3\n        /* \"#utility.yul\":1100:1137   */\n      mstore\n        /* \"#utility.yul\":1025:1143   */\n      pop\n      pop\n      jump\t// out\n        /* \"#utility.yul\":1149:1371   */\n    tag_15:\n        /* \"#utility.yul\":1242:1246   */\n      0x00\n        /* \"#utility.yul\":1280:1282   */\n      0x20\n        /* \"#utility.yul\":1269:1278   */\n      dup3\n        /* \"#utility.yul\":1265:1283   */\n      add\n        /* \"#utility.yul\":1257:1283   */\n      swap1\n      pop\n        /* \"#utility.yul\":1293:1364   */\n      tag_161\n        /* \"#utility.yul\":1361:1362   */\n      0x00\n        /* \"#utility.yul\":1350:1359   */\n      dup4\n        /* \"#utility.yul\":1346:1363   */\n      add\n        /* \"#utility.yul\":1337:1343   */\n      dup5\n        /* \"#utility.yul\":1293:1364   */\n      tag_109\n      jump\t// in\n    tag_161:\n        /* \"#utility.yul\":1149:1371   */\n      swap3\n      swap2\n      pop\n      pop\n      jump\t// out\n        /* \"#utility.yul\":1377:1503   */\n    tag_110:\n        /* \"#utility.yul\":1414:1421   */\n      0x00\n        /* \"#utility.yul\":1454:1496   */\n      0xffffffffffffffffffffffffffffffffffffffff\n        /* \"#utility.yul\":1447:1452   */\n      dup3\n        /* \"#utility.yul\":1443:1497   */\n      and\n        /* \"#utility.yul\":1432:1497   */\n      swap1\n      pop\n        /* \"#utility.yul\":1377:1503   */\n      swap2\n      swap1\n      pop\n      jump\t// out\n        /* \"#utility.yul\":1509:1605   */\n    tag_111:\n        /* \"#utility.yul\":1546:1553   */\n      0x00\n        /* \"#utility.yul\":1575:1599   */\n      tag_164\n        /* \"#utility.yul\":1593:1598   */\n      dup3\n        /* \"#utility.yul\":1575:1599   */\n      tag_110\n      jump\t// in\n    tag_164:\n        /* \"#utility.yul\":1564:1599   */\n      swap1\n      pop\n        /* \"#utility.yul\":1509:1605   */\n      swap2\n      swap1\n      pop\n      jump\t// out\n        /* \"#utility.yul\":1611:1733   */\n    tag_112:\n        /* \"#utility.yul\":1684:1708   */\n      tag_166\n        /* \"#utility.yul\":1702:1707   */\n      dup2\n        /* \"#utility.yul\":1684:1708   */\n      tag_111\n      jump\t// in\n    tag_166:\n        /* \"#utility.yul\":1677:1682   */\n      dup2\n        /* \"#utility.yul\":1674:1709   */\n      eq\n        /* \"#utility.yul\":1664:1727   */\n      tag_167\n      jumpi\n        /* \"#utility.yul\":1723:1724   */\n      0x00\n        /* \"#utility.yul\":1720:1721   */\n      dup1\n        /* \"#utility.yul\":1713:1725   */\n      revert\n        /* \"#utility.yul\":1664:1727   */\n    tag_167:\n        /* \"#utility.yul\":1611:1733   */\n      pop\n      jump\t// out\n        /* \"#utility.yul\":1739:1878   */\n    tag_113:\n        /* \"#utility.yul\":1785:1790   */\n      0x00\n        /* \"#utility.yul\":1823:1829   */\n      dup2\n        /* \"#utility.yul\":1810:1830   */\n      calldataload\n        /* \"#utility.yul\":1801:1830   */\n      swap1\n      pop\n        /* \"#utility.yul\":1839:1872   */\n      tag_169\n        /* \"#utility.yul\":1866:1871   */\n      dup2\n        /* \"#utility.yul\":1839:1872   */\n      tag_112\n      jump\t// in\n    tag_169:\n        /* \"#utility.yul\":1739:1878   */\n      swap3\n      swap2\n      pop\n      pop\n      jump\t// out\n        /* \"#utility.yul\":1884:2795   */\n    tag_18:\n        /* \"#utility.yul\":1979:1985   */\n      0x00\n        /* \"#utility.yul\":1987:1993   */\n      dup1\n        /* \"#utility.yul\":1995:2001   */\n      0x00\n        /* \"#utility.yul\":2003:2009   */\n      dup1\n        /* \"#utility.yul\":2011:2017   */\n      0x00\n        /* \"#utility.yul\":2060:2063   */\n      0xa0\n        /* \"#utility.yul\":2048:2057   */\n      dup7\n        /* \"#utility.yul\":2039:2046   */\n      dup9\n        /* \"#utility.yul\":2035:2058   */\n      sub\n        /* \"#utility.yul\":2031:2064   */\n      slt\n        /* \"#utility.yul\":2028:2148   */\n      iszero\n      tag_171\n      jumpi\n        /* \"#utility.yul\":2067:2146   */\n      tag_172\n      tag_104\n      jump\t// in\n    tag_172:\n        /* \"#utility.yul\":2028:2148   */\n    tag_171:\n        /* \"#utility.yul\":2187:2188   */\n      0x00\n        /* \"#utility.yul\":2212:2265   */\n      tag_173\n        /* \"#utility.yul\":2257:2264   */\n      dup9\n        /* \"#utility.yul\":2248:2254   */\n      dup3\n        /* \"#utility.yul\":2237:2246   */\n      dup10\n        /* \"#utility.yul\":2233:2255   */\n      add\n        /* \"#utility.yul\":2212:2265   */\n      tag_113\n      jump\t// in\n    tag_173:\n        /* \"#utility.yul\":2202:2265   */\n      swap6\n      pop\n        /* \"#utility.yul\":2158:2275   */\n      pop\n        /* \"#utility.yul\":2314:2316   */\n      0x20\n        /* \"#utility.yul\":2340:2393   */\n      tag_174\n        /* \"#utility.yul\":2385:2392   */\n      dup9\n        /* \"#utility.yul\":2376:2382   */\n      dup3\n        /* \"#utility.yul\":2365:2374   */\n      dup10\n        /* \"#utility.yul\":2361:2383   */\n      add\n        /* \"#utility.yul\":2340:2393   */\n      tag_108\n      jump\t// in\n    tag_174:\n        /* \"#utility.yul\":2330:2393   */\n      swap5\n      pop\n        /* \"#utility.yul\":2285:2403   */\n      pop\n        /* \"#utility.yul\":2442:2444   */\n      0x40\n        /* \"#utility.yul\":2468:2521   */\n      tag_175\n        /* \"#utility.yul\":2513:2520   */\n      dup9\n        /* \"#utility.yul\":2504:2510   */\n      dup3\n        /* \"#utility.yul\":2493:2502   */\n      dup10\n        /* \"#utility.yul\":2489:2511   */\n      add\n        /* \"#utility.yul\":2468:2521   */\n      tag_113\n      jump\t// in\n    tag_175:\n        /* \"#utility.yul\":2458:2521   */\n      swap4\n      pop\n        /* \"#utility.yul\":2413:2531   */\n      pop\n        /* \"#utility.yul\":2570:2572   */\n      0x60\n        /* \"#utility.yul\":2596:2649   */\n      tag_176\n        /* \"#utility.yul\":2641:2648   */\n      dup9\n        /* \"#utility.yul\":2632:2638   */\n      dup3\n        /* \"#utility.yul\":2621:2630   */\n      dup10\n        /* \"#utility.yul\":2617:2639   */\n      add\n        /* \"#utility.yul\":2596:2649   */\n      tag_108\n      jump\t// in\n    tag_176:\n        /* \"#utility.yul\":2586:2649   */\n      swap3\n      pop\n        /* \"#utility.yul\":2541:2659   */\n      pop\n        /* \"#utility.yul\":2698:2701   */\n      0x80\n        /* \"#utility.yul\":2725:2778   */\n      tag_177\n        /* \"#utility.yul\":2770:2777   */\n      dup9\n        /* \"#utility.yul\":2761:2767   */\n      dup3\n        /* \"#utility.yul\":2750:2759   */\n      dup10\n        /* \"#utility.yul\":2746:2768   */\n      add\n        /* \"#utility.yul\":2725:2778   */\n      tag_113\n      jump\t// in\n    tag_177:\n        /* \"#utility.yul\":2715:2778   */\n      swap2\n      pop\n        /* \"#utility.yul\":2669:2788   */\n      pop\n        /* \"#utility.yul\":1884:2795   */\n      swap3\n      swap6\n      pop\n      swap3\n      swap6\n      swap1\n      swap4\n      pop\n      jump\t// out\n        /* \"#utility.yul\":2801:2919   */\n    tag_114:\n        /* \"#utility.yul\":2888:2912   */\n      tag_179\n        /* \"#utility.yul\":2906:2911   */\n      dup2\n        /* \"#utility.yul\":2888:2912   */\n      tag_111\n      jump\t// in\n    tag_179:\n        /* \"#utility.yul\":2883:2886   */\n      dup3\n        /* \"#utility.yul\":2876:2913   */\n      mstore\n        /* \"#utility.yul\":2801:2919   */\n      pop\n      pop\n      jump\t// out\n        /* \"#utility.yul\":2925:3015   */\n    tag_115:\n        /* \"#utility.yul\":2959:2966   */\n      0x00\n        /* \"#utility.yul\":3002:3007   */\n      dup2\n        /* \"#utility.yul\":2995:3008   */\n      iszero\n        /* \"#utility.yul\":2988:3009   */\n      iszero\n        /* \"#utility.yul\":2977:3009   */\n      swap1\n      pop\n        /* \"#utility.yul\":2925:3015   */\n      swap2\n      swap1\n      pop\n      jump\t// out\n        /* \"#utility.yul\":3021:3130   */\n    tag_116:\n        /* \"#utility.yul\":3102:3123   */\n      tag_182\n        /* \"#utility.yul\":3117:3122   */\n      dup2\n        /* \"#utility.yul\":3102:3123   */\n      tag_115\n      jump\t// in\n    tag_182:\n        /* \"#utility.yul\":3097:3100   */\n      dup3\n        /* \"#utility.yul\":3090:3124   */\n      mstore\n        /* \"#utility.yul\":3021:3130   */\n      pop\n      pop\n      jump\t// out\n        /* \"#utility.yul\":3136:4109   */\n    tag_24:\n        /* \"#utility.yul\":3413:3417   */\n      0x00\n        /* \"#utility.yul\":3451:3454   */\n      0x0100\n        /* \"#utility.yul\":3440:3449   */\n      dup3\n        /* \"#utility.yul\":3436:3455   */\n      add\n        /* \"#utility.yul\":3428:3455   */\n      swap1\n      pop\n        /* \"#utility.yul\":3465:3536   */\n      tag_184\n        /* \"#utility.yul\":3533:3534   */\n      0x00\n        /* \"#utility.yul\":3522:3531   */\n      dup4\n        /* \"#utility.yul\":3518:3535   */\n      add\n        /* \"#utility.yul\":3509:3515   */\n      dup12\n        /* \"#utility.yul\":3465:3536   */\n      tag_114\n      jump\t// in\n    tag_184:\n        /* \"#utility.yul\":3546:3618   */\n      tag_185\n        /* \"#utility.yul\":3614:3616   */\n      0x20\n        /* \"#utility.yul\":3603:3612   */\n      dup4\n        /* \"#utility.yul\":3599:3617   */\n      add\n        /* \"#utility.yul\":3590:3596   */\n      dup11\n        /* \"#utility.yul\":3546:3618   */\n      tag_114\n      jump\t// in\n    tag_185:\n        /* \"#utility.yul\":3628:3700   */\n      tag_186\n        /* \"#utility.yul\":3696:3698   */\n      0x40\n        /* \"#utility.yul\":3685:3694   */\n      dup4\n        /* \"#utility.yul\":3681:3699   */\n      add\n        /* \"#utility.yul\":3672:3678   */\n      dup10\n        /* \"#utility.yul\":3628:3700   */\n      tag_114\n      jump\t// in\n    tag_186:\n        /* \"#utility.yul\":3710:3782   */\n      tag_187\n        /* \"#utility.yul\":3778:3780   */\n      0x60\n        /* \"#utility.yul\":3767:3776   */\n      dup4\n        /* \"#utility.yul\":3763:3781   */\n      add\n        /* \"#utility.yul\":3754:3760   */\n      dup9\n        /* \"#utility.yul\":3710:3782   */\n      tag_114\n      jump\t// in\n    tag_187:\n        /* \"#utility.yul\":3792:3865   */\n      tag_188\n        /* \"#utility.yul\":3860:3863   */\n      0x80\n        /* \"#utility.yul\":3849:3858   */\n      dup4\n        /* \"#utility.yul\":3845:3864   */\n      add\n        /* \"#utility.yul\":3836:3842   */\n      dup8\n        /* \"#utility.yul\":3792:3865   */\n      tag_109\n      jump\t// in\n    tag_188:\n        /* \"#utility.yul\":3875:3948   */\n      tag_189\n        /* \"#utility.yul\":3943:3946   */\n      0xa0\n        /* \"#utility.yul\":3932:3941   */\n      dup4\n        /* \"#utility.yul\":3928:3947   */\n      add\n        /* \"#utility.yul\":3919:3925   */\n      dup7\n        /* \"#utility.yul\":3875:3948   */\n      tag_109\n      jump\t// in\n    tag_189:\n        /* \"#utility.yul\":3958:4025   */\n      tag_190\n        /* \"#utility.yul\":4020:4023   */\n      0xc0\n        /* \"#utility.yul\":4009:4018   */\n      dup4\n        /* \"#utility.yul\":4005:4024   */\n      add\n        /* \"#utility.yul\":3996:4002   */\n      dup6\n        /* \"#utility.yul\":3958:4025   */\n      tag_116\n      jump\t// in\n    tag_190:\n        /* \"#utility.yul\":4035:4102   */\n      tag_191\n        /* \"#utility.yul\":4097:4100   */\n      0xe0\n        /* \"#utility.yul\":4086:4095   */\n      dup4\n        /* \"#utility.yul\":4082:4101   */\n      add\n        /* \"#utility.yul\":4073:4079   */\n      dup5\n        /* \"#utility.yul\":4035:4102   */\n      tag_116\n      jump\t// in\n    tag_191:\n        /* \"#utility.yul\":3136:4109   */\n      swap10\n      swap9\n      pop\n      pop\n      pop\n      pop\n      pop\n      pop\n      pop\n      pop\n      pop\n      jump\t// out\n        /* \"#utility.yul\":4115:4284   */\n    tag_117:\n        /* \"#utility.yul\":4199:4210   */\n      0x00\n        /* \"#utility.yul\":4233:4239   */\n      dup3\n        /* \"#utility.yul\":4228:4231   */\n      dup3\n        /* \"#utility.yul\":4221:4240   */\n      mstore\n        /* \"#utility.yul\":4273:4277   */\n      0x20\n        /* \"#utility.yul\":4268:4271   */\n      dup3\n        /* \"#utility.yul\":4264:4278   */\n      add\n        /* \"#utility.yul\":4249:4278   */\n      swap1\n      pop\n        /* \"#utility.yul\":4115:4284   */\n      swap3\n      swap2\n      pop\n      pop\n      jump\t// out\n        /* \"#utility.yul\":4290:4462   */\n    tag_118:\n        /* \"#utility.yul\":4430:4454   */\n      0x4f6666657220616c726561647920616363657074656400000000000000000000\n        /* \"#utility.yul\":4426:4427   */\n      0x00\n        /* \"#utility.yul\":4418:4424   */\n      dup3\n        /* \"#utility.yul\":4414:4428   */\n      add\n        /* \"#utility.yul\":4407:4455   */\n      mstore\n        /* \"#utility.yul\":4290:4462   */\n      pop\n      jump\t// out\n        /* \"#utility.yul\":4468:4834   */\n    tag_119:\n        /* \"#utility.yul\":4610:4613   */\n      0x00\n        /* \"#utility.yul\":4631:4698   */\n      tag_195\n        /* \"#utility.yul\":4695:4697   */\n      0x16\n        /* \"#utility.yul\":4690:4693   */\n      dup4\n        /* \"#utility.yul\":4631:4698   */\n      tag_117\n      jump\t// in\n    tag_195:\n        /* \"#utility.yul\":4624:4698   */\n      swap2\n      pop\n        /* \"#utility.yul\":4707:4800   */\n      tag_196\n        /* \"#utility.yul\":4796:4799   */\n      dup3\n        /* \"#utility.yul\":4707:4800   */\n      tag_118\n      jump\t// in\n    tag_196:\n        /* \"#utility.yul\":4825:4827   */\n      0x20\n        /* \"#utility.yul\":4820:4823   */\n      dup3\n        /* \"#utility.yul\":4816:4828   */\n      add\n        /* \"#utility.yul\":4809:4828   */\n      swap1\n      pop\n        /* \"#utility.yul\":4468:4834   */\n      swap2\n      swap1\n      pop\n      jump\t// out\n        /* \"#utility.yul\":4840:5259   */\n    tag_31:\n        /* \"#utility.yul\":5006:5010   */\n      0x00\n        /* \"#utility.yul\":5044:5046   */\n      0x20\n        /* \"#utility.yul\":5033:5042   */\n      dup3\n        /* \"#utility.yul\":5029:5047   */\n      add\n        /* \"#utility.yul\":5021:5047   */\n      swap1\n      pop\n        /* \"#utility.yul\":5093:5102   */\n      dup2\n        /* \"#utility.yul\":5087:5091   */\n      dup2\n        /* \"#utility.yul\":5083:5103   */\n      sub\n        /* \"#utility.yul\":5079:5080   */\n      0x00\n        /* \"#utility.yul\":5068:5077   */\n      dup4\n        /* \"#utility.yul\":5064:5081   */\n      add\n        /* \"#utility.yul\":5057:5104   */\n      mstore\n        /* \"#utility.yul\":5121:5252   */\n      tag_198\n        /* \"#utility.yul\":5247:5251   */\n      dup2\n        /* \"#utility.yul\":5121:5252   */\n      tag_119\n      jump\t// in\n    tag_198:\n        /* \"#utility.yul\":5113:5252   */\n      swap1\n      pop\n        /* \"#utility.yul\":4840:5259   */\n      swap2\n      swap1\n      pop\n      jump\t// out\n        /* \"#utility.yul\":5265:5433   */\n    tag_120:\n        /* \"#utility.yul\":5405:5425   */\n      0x4f66666572207761732063616e63656c65640000000000000000000000000000\n        /* \"#utility.yul\":5401:5402   */\n      0x00\n        /* \"#utility.yul\":5393:5399   */\n      dup3\n        /* \"#utility.yul\":5389:5403   */\n      add\n        /* \"#utility.yul\":5382:5426   */\n      mstore\n        /* \"#utility.yul\":5265:5433   */\n      pop\n      jump\t// out\n        /* \"#utility.yul\":5439:5805   */\n    tag_121:\n        /* \"#utility.yul\":5581:5584   */\n      0x00\n        /* \"#utility.yul\":5602:5669   */\n      tag_201\n        /* \"#utility.yul\":5666:5668   */\n      0x12\n        /* \"#utility.yul\":5661:5664   */\n      dup4\n        /* \"#utility.yul\":5602:5669   */\n      tag_117\n      jump\t// in\n    tag_201:\n        /* \"#utility.yul\":5595:5669   */\n      swap2\n      pop\n        /* \"#utility.yul\":5678:5771   */\n      tag_202\n        /* \"#utility.yul\":5767:5770   */\n      dup3\n        /* \"#utility.yul\":5678:5771   */\n      tag_120\n      jump\t// in\n    tag_202:\n        /* \"#utility.yul\":5796:5798   */\n      0x20\n        /* \"#utility.yul\":5791:5794   */\n      dup3\n        /* \"#utility.yul\":5787:5799   */\n      add\n        /* \"#utility.yul\":5780:5799   */\n      swap1\n      pop\n        /* \"#utility.yul\":5439:5805   */\n      swap2\n      swap1\n      pop\n      jump\t// out\n        /* \"#utility.yul\":5811:6230   */\n    tag_34:\n        /* \"#utility.yul\":5977:5981   */\n      0x00\n        /* \"#utility.yul\":6015:6017   */\n      0x20\n        /* \"#utility.yul\":6004:6013   */\n      dup3\n        /* \"#utility.yul\":6000:6018   */\n      add\n        /* \"#utility.yul\":5992:6018   */\n      swap1\n      pop\n        /* \"#utility.yul\":6064:6073   */\n      dup2\n        /* \"#utility.yul\":6058:6062   */\n      dup2\n        /* \"#utility.yul\":6054:6074   */\n      sub\n        /* \"#utility.yul\":6050:6051   */\n      0x00\n        /* \"#utility.yul\":6039:6048   */\n      dup4\n        /* \"#utility.yul\":6035:6052   */\n      add\n        /* \"#utility.yul\":6028:6075   */\n      mstore\n        /* \"#utility.yul\":6092:6223   */\n      tag_204\n        /* \"#utility.yul\":6218:6222   */\n      dup2\n        /* \"#utility.yul\":6092:6223   */\n      tag_121\n      jump\t// in\n    tag_204:\n        /* \"#utility.yul\":6084:6223   */\n      swap1\n      pop\n        /* \"#utility.yul\":5811:6230   */\n      swap2\n      swap1\n      pop\n      jump\t// out\n        /* \"#utility.yul\":6236:6458   */\n    tag_122:\n        /* \"#utility.yul\":6376:6410   */\n      0x4e6f7420617574686f72697a656420746f206163636570742074686973206f66\n        /* \"#utility.yul\":6372:6373   */\n      0x00\n        /* \"#utility.yul\":6364:6370   */\n      dup3\n        /* \"#utility.yul\":6360:6374   */\n      add\n        /* \"#utility.yul\":6353:6411   */\n      mstore\n        /* \"#utility.yul\":6445:6450   */\n      0x6665720000000000000000000000000000000000000000000000000000000000\n        /* \"#utility.yul\":6440:6442   */\n      0x20\n        /* \"#utility.yul\":6432:6438   */\n      dup3\n        /* \"#utility.yul\":6428:6443   */\n      add\n        /* \"#utility.yul\":6421:6451   */\n      mstore\n        /* \"#utility.yul\":6236:6458   */\n      pop\n      jump\t// out\n        /* \"#utility.yul\":6464:6830   */\n    tag_123:\n        /* \"#utility.yul\":6606:6609   */\n      0x00\n        /* \"#utility.yul\":6627:6694   */\n      tag_207\n        /* \"#utility.yul\":6691:6693   */\n      0x23\n        /* \"#utility.yul\":6686:6689   */\n      dup4\n        /* \"#utility.yul\":6627:6694   */\n      tag_117\n      jump\t// in\n    tag_207:\n        /* \"#utility.yul\":6620:6694   */\n      swap2\n      pop\n        /* \"#utility.yul\":6703:6796   */\n      tag_208\n        /* \"#utility.yul\":6792:6795   */\n      dup3\n        /* \"#utility.yul\":6703:6796   */\n      tag_122\n      jump\t// in\n    tag_208:\n        /* \"#utility.yul\":6821:6823   */\n      0x40\n        /* \"#utility.yul\":6816:6819   */\n      dup3\n        /* \"#utility.yul\":6812:6824   */\n      add\n        /* \"#utility.yul\":6805:6824   */\n      swap1\n      pop\n        /* \"#utility.yul\":6464:6830   */\n      swap2\n      swap1\n      pop\n      jump\t// out\n        /* \"#utility.yul\":6836:7255   */\n    tag_38:\n        /* \"#utility.yul\":7002:7006   */\n      0x00\n        /* \"#utility.yul\":7040:7042   */\n      0x20\n        /* \"#utility.yul\":7029:7038   */\n      dup3\n        /* \"#utility.yul\":7025:7043   */\n      add\n        /* \"#utility.yul\":7017:7043   */\n      swap1\n      pop\n        /* \"#utility.yul\":7089:7098   */\n      dup2\n        /* \"#utility.yul\":7083:7087   */\n      dup2\n        /* \"#utility.yul\":7079:7099   */\n      sub\n        /* \"#utility.yul\":7075:7076   */\n      0x00\n        /* \"#utility.yul\":7064:7073   */\n      dup4\n        /* \"#utility.yul\":7060:7077   */\n      add\n        /* \"#utility.yul\":7053:7100   */\n      mstore\n        /* \"#utility.yul\":7117:7248   */\n      tag_210\n        /* \"#utility.yul\":7243:7247   */\n      dup2\n        /* \"#utility.yul\":7117:7248   */\n      tag_123\n      jump\t// in\n    tag_210:\n        /* \"#utility.yul\":7109:7248   */\n      swap1\n      pop\n        /* \"#utility.yul\":6836:7255   */\n      swap2\n      swap1\n      pop\n      jump\t// out\n        /* \"#utility.yul\":7261:7483   */\n    tag_40:\n        /* \"#utility.yul\":7354:7358   */\n      0x00\n        /* \"#utility.yul\":7392:7394   */\n      0x20\n        /* \"#utility.yul\":7381:7390   */\n      dup3\n        /* \"#utility.yul\":7377:7395   */\n      add\n        /* \"#utility.yul\":7369:7395   */\n      swap1\n      pop\n        /* \"#utility.yul\":7405:7476   */\n      tag_212\n        /* \"#utility.yul\":7473:7474   */\n      0x00\n        /* \"#utility.yul\":7462:7471   */\n      dup4\n        /* \"#utility.yul\":7458:7475   */\n      add\n        /* \"#utility.yul\":7449:7455   */\n      dup5\n        /* \"#utility.yul\":7405:7476   */\n      tag_114\n      jump\t// in\n    tag_212:\n        /* \"#utility.yul\":7261:7483   */\n      swap3\n      swap2\n      pop\n      pop\n      jump\t// out\n        /* \"#utility.yul\":7489:7632   */\n    tag_124:\n        /* \"#utility.yul\":7546:7551   */\n      0x00\n        /* \"#utility.yul\":7577:7583   */\n      dup2\n        /* \"#utility.yul\":7571:7584   */\n      mload\n        /* \"#utility.yul\":7562:7584   */\n      swap1\n      pop\n        /* \"#utility.yul\":7593:7626   */\n      tag_214\n        /* \"#utility.yul\":7620:7625   */\n      dup2\n        /* \"#utility.yul\":7593:7626   */\n      tag_107\n      jump\t// in\n    tag_214:\n        /* \"#utility.yul\":7489:7632   */\n      swap3\n      swap2\n      pop\n      pop\n      jump\t// out\n        /* \"#utility.yul\":7638:7989   */\n    tag_44:\n        /* \"#utility.yul\":7708:7714   */\n      0x00\n        /* \"#utility.yul\":7757:7759   */\n      0x20\n        /* \"#utility.yul\":7745:7754   */\n      dup3\n        /* \"#utility.yul\":7736:7743   */\n      dup5\n        /* \"#utility.yul\":7732:7755   */\n      sub\n        /* \"#utility.yul\":7728:7760   */\n      slt\n        /* \"#utility.yul\":7725:7844   */\n      iszero\n      tag_216\n      jumpi\n        /* \"#utility.yul\":7763:7842   */\n      tag_217\n      tag_104\n      jump\t// in\n    tag_217:\n        /* \"#utility.yul\":7725:7844   */\n    tag_216:\n        /* \"#utility.yul\":7883:7884   */\n      0x00\n        /* \"#utility.yul\":7908:7972   */\n      tag_218\n        /* \"#utility.yul\":7964:7971   */\n      dup5\n        /* \"#utility.yul\":7955:7961   */\n      dup3\n        /* \"#utility.yul\":7944:7953   */\n      dup6\n        /* \"#utility.yul\":7940:7962   */\n      add\n        /* \"#utility.yul\":7908:7972   */\n      tag_124\n      jump\t// in\n    tag_218:\n        /* \"#utility.yul\":7898:7972   */\n      swap2\n      pop\n        /* \"#utility.yul\":7854:7982   */\n      pop\n        /* \"#utility.yul\":7638:7989   */\n      swap3\n      swap2\n      pop\n      pop\n      jump\t// out\n        /* \"#utility.yul\":7995:8222   */\n    tag_125:\n        /* \"#utility.yul\":8135:8169   */\n      0x496e73756666696369656e742062616c616e636520666f722072657175657374\n        /* \"#utility.yul\":8131:8132   */\n      0x00\n        /* \"#utility.yul\":8123:8129   */\n      dup3\n        /* \"#utility.yul\":8119:8133   */\n      add\n        /* \"#utility.yul\":8112:8170   */\n      mstore\n        /* \"#utility.yul\":8204:8214   */\n      0x656420746f6b656e000000000000000000000000000000000000000000000000\n        /* \"#utility.yul\":8199:8201   */\n      0x20\n        /* \"#utility.yul\":8191:8197   */\n      dup3\n        /* \"#utility.yul\":8187:8202   */\n      add\n        /* \"#utility.yul\":8180:8215   */\n      mstore\n        /* \"#utility.yul\":7995:8222   */\n      pop\n      jump\t// out\n        /* \"#utility.yul\":8228:8594   */\n    tag_126:\n        /* \"#utility.yul\":8370:8373   */\n      0x00\n        /* \"#utility.yul\":8391:8458   */\n      tag_221\n        /* \"#utility.yul\":8455:8457   */\n      0x28\n        /* \"#utility.yul\":8450:8453   */\n      dup4\n        /* \"#utility.yul\":8391:8458   */\n      tag_117\n      jump\t// in\n    tag_221:\n        /* \"#utility.yul\":8384:8458   */\n      swap2\n      pop\n        /* \"#utility.yul\":8467:8560   */\n      tag_222\n        /* \"#utility.yul\":8556:8559   */\n      dup3\n        /* \"#utility.yul\":8467:8560   */\n      tag_125\n      jump\t// in\n    tag_222:\n        /* \"#utility.yul\":8585:8587   */\n      0x40\n        /* \"#utility.yul\":8580:8583   */\n      dup3\n        /* \"#utility.yul\":8576:8588   */\n      add\n        /* \"#utility.yul\":8569:8588   */\n      swap1\n      pop\n        /* \"#utility.yul\":8228:8594   */\n      swap2\n      swap1\n      pop\n      jump\t// out\n        /* \"#utility.yul\":8600:9019   */\n    tag_47:\n        /* \"#utility.yul\":8766:8770   */\n      0x00\n        /* \"#utility.yul\":8804:8806   */\n      0x20\n        /* \"#utility.yul\":8793:8802   */\n      dup3\n        /* \"#utility.yul\":8789:8807   */\n      add\n        /* \"#utility.yul\":8781:8807   */\n      swap1\n      pop\n        /* \"#utility.yul\":8853:8862   */\n      dup2\n        /* \"#utility.yul\":8847:8851   */\n      dup2\n        /* \"#utility.yul\":8843:8863   */\n      sub\n        /* \"#utility.yul\":8839:8840   */\n      0x00\n        /* \"#utility.yul\":8828:8837   */\n      dup4\n        /* \"#utility.yul\":8824:8841   */\n      add\n        /* \"#utility.yul\":8817:8864   */\n      mstore\n        /* \"#utility.yul\":8881:9012   */\n      tag_224\n        /* \"#utility.yul\":9007:9011   */\n      dup2\n        /* \"#utility.yul\":8881:9012   */\n      tag_126\n      jump\t// in\n    tag_224:\n        /* \"#utility.yul\":8873:9012   */\n      swap1\n      pop\n        /* \"#utility.yul\":8600:9019   */\n      swap2\n      swap1\n      pop\n      jump\t// out\n        /* \"#utility.yul\":9025:9467   */\n    tag_49:\n        /* \"#utility.yul\":9174:9178   */\n      0x00\n        /* \"#utility.yul\":9212:9214   */\n      0x60\n        /* \"#utility.yul\":9201:9210   */\n      dup3\n        /* \"#utility.yul\":9197:9215   */\n      add\n        /* \"#utility.yul\":9189:9215   */\n      swap1\n      pop\n        /* \"#utility.yul\":9225:9296   */\n      tag_226\n        /* \"#utility.yul\":9293:9294   */\n      0x00\n        /* \"#utility.yul\":9282:9291   */\n      dup4\n        /* \"#utility.yul\":9278:9295   */\n      add\n        /* \"#utility.yul\":9269:9275   */\n      dup7\n        /* \"#utility.yul\":9225:9296   */\n      tag_114\n      jump\t// in\n    tag_226:\n        /* \"#utility.yul\":9306:9378   */\n      tag_227\n        /* \"#utility.yul\":9374:9376   */\n      0x20\n        /* \"#utility.yul\":9363:9372   */\n      dup4\n        /* \"#utility.yul\":9359:9377   */\n      add\n        /* \"#utility.yul\":9350:9356   */\n      dup6\n        /* \"#utility.yul\":9306:9378   */\n      tag_114\n      jump\t// in\n    tag_227:\n        /* \"#utility.yul\":9388:9460   */\n      tag_228\n        /* \"#utility.yul\":9456:9458   */\n      0x40\n        /* \"#utility.yul\":9445:9454   */\n      dup4\n        /* \"#utility.yul\":9441:9459   */\n      add\n        /* \"#utility.yul\":9432:9438   */\n      dup5\n        /* \"#utility.yul\":9388:9460   */\n      tag_109\n      jump\t// in\n    tag_228:\n        /* \"#utility.yul\":9025:9467   */\n      swap5\n      swap4\n      pop\n      pop\n      pop\n      pop\n      jump\t// out\n        /* \"#utility.yul\":9473:9589   */\n    tag_127:\n        /* \"#utility.yul\":9543:9564   */\n      tag_230\n        /* \"#utility.yul\":9558:9563   */\n      dup2\n        /* \"#utility.yul\":9543:9564   */\n      tag_115\n      jump\t// in\n    tag_230:\n        /* \"#utility.yul\":9536:9541   */\n      dup2\n        /* \"#utility.yul\":9533:9565   */\n      eq\n        /* \"#utility.yul\":9523:9583   */\n      tag_231\n      jumpi\n        /* \"#utility.yul\":9579:9580   */\n      0x00\n        /* \"#utility.yul\":9576:9577   */\n      dup1\n        /* \"#utility.yul\":9569:9581   */\n      revert\n        /* \"#utility.yul\":9523:9583   */\n    tag_231:\n        /* \"#utility.yul\":9473:9589   */\n      pop\n      jump\t// out\n        /* \"#utility.yul\":9595:9732   */\n    tag_128:\n        /* \"#utility.yul\":9649:9654   */\n      0x00\n        /* \"#utility.yul\":9680:9686   */\n      dup2\n        /* \"#utility.yul\":9674:9687   */\n      mload\n        /* \"#utility.yul\":9665:9687   */\n      swap1\n      pop\n        /* \"#utility.yul\":9696:9726   */\n      tag_233\n        /* \"#utility.yul\":9720:9725   */\n      dup2\n        /* \"#utility.yul\":9696:9726   */\n      tag_127\n      jump\t// in\n    tag_233:\n        /* \"#utility.yul\":9595:9732   */\n      swap3\n      swap2\n      pop\n      pop\n      jump\t// out\n        /* \"#utility.yul\":9738:10083   */\n    tag_53:\n        /* \"#utility.yul\":9805:9811   */\n      0x00\n        /* \"#utility.yul\":9854:9856   */\n      0x20\n        /* \"#utility.yul\":9842:9851   */\n      dup3\n        /* \"#utility.yul\":9833:9840   */\n      dup5\n        /* \"#utility.yul\":9829:9852   */\n      sub\n        /* \"#utility.yul\":9825:9857   */\n      slt\n        /* \"#utility.yul\":9822:9941   */\n      iszero\n      tag_235\n      jumpi\n        /* \"#utility.yul\":9860:9939   */\n      tag_236\n      tag_104\n      jump\t// in\n    tag_236:\n        /* \"#utility.yul\":9822:9941   */\n    tag_235:\n        /* \"#utility.yul\":9980:9981   */\n      0x00\n        /* \"#utility.yul\":10005:10066   */\n      tag_237\n        /* \"#utility.yul\":10058:10065   */\n      dup5\n        /* \"#utility.yul\":10049:10055   */\n      dup3\n        /* \"#utility.yul\":10038:10047   */\n      dup6\n        /* \"#utility.yul\":10034:10056   */\n      add\n        /* \"#utility.yul\":10005:10066   */\n      tag_128\n      jump\t// in\n    tag_237:\n        /* \"#utility.yul\":9995:10066   */\n      swap2\n      pop\n        /* \"#utility.yul\":9951:10076   */\n      pop\n        /* \"#utility.yul\":9738:10083   */\n      swap3\n      swap2\n      pop\n      pop\n      jump\t// out\n        /* \"#utility.yul\":10089:10310   */\n    tag_129:\n        /* \"#utility.yul\":10229:10263   */\n      0x5472616e73666572206f662072657175657374656420746f6b656e206661696c\n        /* \"#utility.yul\":10225:10226   */\n      0x00\n        /* \"#utility.yul\":10217:10223   */\n      dup3\n        /* \"#utility.yul\":10213:10227   */\n      add\n        /* \"#utility.yul\":10206:10264   */\n      mstore\n        /* \"#utility.yul\":10298:10302   */\n      0x6564000000000000000000000000000000000000000000000000000000000000\n        /* \"#utility.yul\":10293:10295   */\n      0x20\n        /* \"#utility.yul\":10285:10291   */\n      dup3\n        /* \"#utility.yul\":10281:10296   */\n      add\n        /* \"#utility.yul\":10274:10303   */\n      mstore\n        /* \"#utility.yul\":10089:10310   */\n      pop\n      jump\t// out\n        /* \"#utility.yul\":10316:10682   */\n    tag_130:\n        /* \"#utility.yul\":10458:10461   */\n      0x00\n        /* \"#utility.yul\":10479:10546   */\n      tag_240\n        /* \"#utility.yul\":10543:10545   */\n      0x22\n        /* \"#utility.yul\":10538:10541   */\n      dup4\n        /* \"#utility.yul\":10479:10546   */\n      tag_117\n      jump\t// in\n    tag_240:\n        /* \"#utility.yul\":10472:10546   */\n      swap2\n      pop\n        /* \"#utility.yul\":10555:10648   */\n      tag_241\n        /* \"#utility.yul\":10644:10647   */\n      dup3\n        /* \"#utility.yul\":10555:10648   */\n      tag_129\n      jump\t// in\n    tag_241:\n        /* \"#utility.yul\":10673:10675   */\n      0x40\n        /* \"#utility.yul\":10668:10671   */\n      dup3\n        /* \"#utility.yul\":10664:10676   */\n      add\n        /* \"#utility.yul\":10657:10676   */\n      swap1\n      pop\n        /* \"#utility.yul\":10316:10682   */\n      swap2\n      swap1\n      pop\n      jump\t// out\n        /* \"#utility.yul\":10688:11107   */\n    tag_56:\n        /* \"#utility.yul\":10854:10858   */\n      0x00\n        /* \"#utility.yul\":10892:10894   */\n      0x20\n        /* \"#utility.yul\":10881:10890   */\n      dup3\n        /* \"#utility.yul\":10877:10895   */\n      add\n        /* \"#utility.yul\":10869:10895   */\n      swap1\n      pop\n        /* \"#utility.yul\":10941:10950   */\n      dup2\n        /* \"#utility.yul\":10935:10939   */\n      dup2\n        /* \"#utility.yul\":10931:10951   */\n      sub\n        /* \"#utility.yul\":10927:10928   */\n      0x00\n        /* \"#utility.yul\":10916:10925   */\n      dup4\n        /* \"#utility.yul\":10912:10929   */\n      add\n        /* \"#utility.yul\":10905:10952   */\n      mstore\n        /* \"#utility.yul\":10969:11100   */\n      tag_243\n        /* \"#utility.yul\":11095:11099   */\n      dup2\n        /* \"#utility.yul\":10969:11100   */\n      tag_130\n      jump\t// in\n    tag_243:\n        /* \"#utility.yul\":10961:11100   */\n      swap1\n      pop\n        /* \"#utility.yul\":10688:11107   */\n      swap2\n      swap1\n      pop\n      jump\t// out\n        /* \"#utility.yul\":11113:11445   */\n    tag_59:\n        /* \"#utility.yul\":11234:11238   */\n      0x00\n        /* \"#utility.yul\":11272:11274   */\n      0x40\n        /* \"#utility.yul\":11261:11270   */\n      dup3\n        /* \"#utility.yul\":11257:11275   */\n      add\n        /* \"#utility.yul\":11249:11275   */\n      swap1\n      pop\n        /* \"#utility.yul\":11285:11356   */\n      tag_245\n        /* \"#utility.yul\":11353:11354   */\n      0x00\n        /* \"#utility.yul\":11342:11351   */\n      dup4\n        /* \"#utility.yul\":11338:11355   */\n      add\n        /* \"#utility.yul\":11329:11335   */\n      dup6\n        /* \"#utility.yul\":11285:11356   */\n      tag_114\n      jump\t// in\n    tag_245:\n        /* \"#utility.yul\":11366:11438   */\n      tag_246\n        /* \"#utility.yul\":11434:11436   */\n      0x20\n        /* \"#utility.yul\":11423:11432   */\n      dup4\n        /* \"#utility.yul\":11419:11437   */\n      add\n        /* \"#utility.yul\":11410:11416   */\n      dup5\n        /* \"#utility.yul\":11366:11438   */\n      tag_109\n      jump\t// in\n    tag_246:\n        /* \"#utility.yul\":11113:11445   */\n      swap4\n      swap3\n      pop\n      pop\n      pop\n      jump\t// out\n        /* \"#utility.yul\":11451:11633   */\n    tag_131:\n        /* \"#utility.yul\":11591:11625   */\n      0x5472616e73666572206f66206f66666572656420746f6b656e206661696c6564\n        /* \"#utility.yul\":11587:11588   */\n      0x00\n        /* \"#utility.yul\":11579:11585   */\n      dup3\n        /* \"#utility.yul\":11575:11589   */\n      add\n        /* \"#utility.yul\":11568:11626   */\n      mstore\n        /* \"#utility.yul\":11451:11633   */\n      pop\n      jump\t// out\n        /* \"#utility.yul\":11639:12005   */\n    tag_132:\n        /* \"#utility.yul\":11781:11784   */\n      0x00\n        /* \"#utility.yul\":11802:11869   */\n      tag_249\n        /* \"#utility.yul\":11866:11868   */\n      0x20\n        /* \"#utility.yul\":11861:11864   */\n      dup4\n        /* \"#utility.yul\":11802:11869   */\n      tag_117\n      jump\t// in\n    tag_249:\n        /* \"#utility.yul\":11795:11869   */\n      swap2\n      pop\n        /* \"#utility.yul\":11878:11971   */\n      tag_250\n        /* \"#utility.yul\":11967:11970   */\n      dup3\n        /* \"#utility.yul\":11878:11971   */\n      tag_131\n      jump\t// in\n    tag_250:\n        /* \"#utility.yul\":11996:11998   */\n      0x20\n        /* \"#utility.yul\":11991:11994   */\n      dup3\n        /* \"#utility.yul\":11987:11999   */\n      add\n        /* \"#utility.yul\":11980:11999   */\n      swap1\n      pop\n        /* \"#utility.yul\":11639:12005   */\n      swap2\n      swap1\n      pop\n      jump\t// out\n        /* \"#utility.yul\":12011:12430   */\n    tag_65:\n        /* \"#utility.yul\":12177:12181   */\n      0x00\n        /* \"#utility.yul\":12215:12217   */\n      0x20\n        /* \"#utility.yul\":12204:12213   */\n      dup3\n        /* \"#utility.yul\":12200:12218   */\n      add\n        /* \"#utility.yul\":12192:12218   */\n      swap1\n      pop\n        /* \"#utility.yul\":12264:12273   */\n      dup2\n        /* \"#utility.yul\":12258:12262   */\n      dup2\n        /* \"#utility.yul\":12254:12274   */\n      sub\n        /* \"#utility.yul\":12250:12251   */\n      0x00\n        /* \"#utility.yul\":12239:12248   */\n      dup4\n        /* \"#utility.yul\":12235:12252   */\n      add\n        /* \"#utility.yul\":12228:12275   */\n      mstore\n        /* \"#utility.yul\":12292:12423   */\n      tag_252\n        /* \"#utility.yul\":12418:12422   */\n      dup2\n        /* \"#utility.yul\":12292:12423   */\n      tag_132\n      jump\t// in\n    tag_252:\n        /* \"#utility.yul\":12284:12423   */\n      swap1\n      pop\n        /* \"#utility.yul\":12011:12430   */\n      swap2\n      swap1\n      pop\n      jump\t// out\n        /* \"#utility.yul\":12436:12656   */\n    tag_133:\n        /* \"#utility.yul\":12576:12610   */\n      0x416d6f756e7473206d7573742062652067726561746572207468616e207a6572\n        /* \"#utility.yul\":12572:12573   */\n      0x00\n        /* \"#utility.yul\":12564:12570   */\n      dup3\n        /* \"#utility.yul\":12560:12574   */\n      add\n        /* \"#utility.yul\":12553:12611   */\n      mstore\n        /* \"#utility.yul\":12645:12648   */\n      0x6f00000000000000000000000000000000000000000000000000000000000000\n        /* \"#utility.yul\":12640:12642   */\n      0x20\n        /* \"#utility.yul\":12632:12638   */\n      dup3\n        /* \"#utility.yul\":12628:12643   */\n      add\n        /* \"#utility.yul\":12621:12649   */\n      mstore\n        /* \"#utility.yul\":12436:12656   */\n      pop\n      jump\t// out\n        /* \"#utility.yul\":12662:13028   */\n    tag_134:\n        /* \"#utility.yul\":12804:12807   */\n      0x00\n        /* \"#utility.yul\":12825:12892   */\n      tag_255\n        /* \"#utility.yul\":12889:12891   */\n      0x21\n        /* \"#utility.yul\":12884:12887   */\n      dup4\n        /* \"#utility.yul\":12825:12892   */\n      tag_117\n      jump\t// in\n    tag_255:\n        /* \"#utility.yul\":12818:12892   */\n      swap2\n      pop\n        /* \"#utility.yul\":12901:12994   */\n      tag_256\n        /* \"#utility.yul\":12990:12993   */\n      dup3\n        /* \"#utility.yul\":12901:12994   */\n      tag_133\n      jump\t// in\n    tag_256:\n        /* \"#utility.yul\":13019:13021   */\n      0x40\n        /* \"#utility.yul\":13014:13017   */\n      dup3\n        /* \"#utility.yul\":13010:13022   */\n      add\n        /* \"#utility.yul\":13003:13022   */\n      swap1\n      pop\n        /* \"#utility.yul\":12662:13028   */\n      swap2\n      swap1\n      pop\n      jump\t// out\n        /* \"#utility.yul\":13034:13453   */\n    tag_70:\n        /* \"#utility.yul\":13200:13204   */\n      0x00\n        /* \"#utility.yul\":13238:13240   */\n      0x20\n        /* \"#utility.yul\":13227:13236   */\n      dup3\n        /* \"#utility.yul\":13223:13241   */\n      add\n        /* \"#utility.yul\":13215:13241   */\n      swap1\n      pop\n        /* \"#utility.yul\":13287:13296   */\n      dup2\n        /* \"#utility.yul\":13281:13285   */\n      dup2\n        /* \"#utility.yul\":13277:13297   */\n      sub\n        /* \"#utility.yul\":13273:13274   */\n      0x00\n        /* \"#utility.yul\":13262:13271   */\n      dup4\n        /* \"#utility.yul\":13258:13275   */\n      add\n        /* \"#utility.yul\":13251:13298   */\n      mstore\n        /* \"#utility.yul\":13315:13446   */\n      tag_258\n        /* \"#utility.yul\":13441:13445   */\n      dup2\n        /* \"#utility.yul\":13315:13446   */\n      tag_134\n      jump\t// in\n    tag_258:\n        /* \"#utility.yul\":13307:13446   */\n      swap1\n      pop\n        /* \"#utility.yul\":13034:13453   */\n      swap2\n      swap1\n      pop\n      jump\t// out\n        /* \"#utility.yul\":13459:13684   */\n    tag_135:\n        /* \"#utility.yul\":13599:13633   */\n      0x496e73756666696369656e742062616c616e636520666f72206f666665726564\n        /* \"#utility.yul\":13595:13596   */\n      0x00\n        /* \"#utility.yul\":13587:13593   */\n      dup3\n        /* \"#utility.yul\":13583:13597   */\n      add\n        /* \"#utility.yul\":13576:13634   */\n      mstore\n        /* \"#utility.yul\":13668:13676   */\n      0x20746f6b656e0000000000000000000000000000000000000000000000000000\n        /* \"#utility.yul\":13663:13665   */\n      0x20\n        /* \"#utility.yul\":13655:13661   */\n      dup3\n        /* \"#utility.yul\":13651:13666   */\n      add\n        /* \"#utility.yul\":13644:13677   */\n      mstore\n        /* \"#utility.yul\":13459:13684   */\n      pop\n      jump\t// out\n        /* \"#utility.yul\":13690:14056   */\n    tag_136:\n        /* \"#utility.yul\":13832:13835   */\n      0x00\n        /* \"#utility.yul\":13853:13920   */\n      tag_261\n        /* \"#utility.yul\":13917:13919   */\n      0x26\n        /* \"#utility.yul\":13912:13915   */\n      dup4\n        /* \"#utility.yul\":13853:13920   */\n      tag_117\n      jump\t// in\n    tag_261:\n        /* \"#utility.yul\":13846:13920   */\n      swap2\n      pop\n        /* \"#utility.yul\":13929:14022   */\n      tag_262\n        /* \"#utility.yul\":14018:14021   */\n      dup3\n        /* \"#utility.yul\":13929:14022   */\n      tag_135\n      jump\t// in\n    tag_262:\n        /* \"#utility.yul\":14047:14049   */\n      0x40\n        /* \"#utility.yul\":14042:14045   */\n      dup3\n        /* \"#utility.yul\":14038:14050   */\n      add\n        /* \"#utility.yul\":14031:14050   */\n      swap1\n      pop\n        /* \"#utility.yul\":13690:14056   */\n      swap2\n      swap1\n      pop\n      jump\t// out\n        /* \"#utility.yul\":14062:14481   */\n    tag_77:\n        /* \"#utility.yul\":14228:14232   */\n      0x00\n        /* \"#utility.yul\":14266:14268   */\n      0x20\n        /* \"#utility.yul\":14255:14264   */\n      dup3\n        /* \"#utility.yul\":14251:14269   */\n      add\n        /* \"#utility.yul\":14243:14269   */\n      swap1\n      pop\n        /* \"#utility.yul\":14315:14324   */\n      dup2\n        /* \"#utility.yul\":14309:14313   */\n      dup2\n        /* \"#utility.yul\":14305:14325   */\n      sub\n        /* \"#utility.yul\":14301:14302   */\n      0x00\n        /* \"#utility.yul\":14290:14299   */\n      dup4\n        /* \"#utility.yul\":14286:14303   */\n      add\n        /* \"#utility.yul\":14279:14326   */\n      mstore\n        /* \"#utility.yul\":14343:14474   */\n      tag_264\n        /* \"#utility.yul\":14469:14473   */\n      dup2\n        /* \"#utility.yul\":14343:14474   */\n      tag_136\n      jump\t// in\n    tag_264:\n        /* \"#utility.yul\":14335:14474   */\n      swap1\n      pop\n        /* \"#utility.yul\":14062:14481   */\n      swap2\n      swap1\n      pop\n      jump\t// out\n        /* \"#utility.yul\":14487:15262   */\n    tag_85:\n        /* \"#utility.yul\":14720:14724   */\n      0x00\n        /* \"#utility.yul\":14758:14761   */\n      0xc0\n        /* \"#utility.yul\":14747:14756   */\n      dup3\n        /* \"#utility.yul\":14743:14762   */\n      add\n        /* \"#utility.yul\":14735:14762   */\n      swap1\n      pop\n        /* \"#utility.yul\":14772:14843   */\n      tag_266\n        /* \"#utility.yul\":14840:14841   */\n      0x00\n        /* \"#utility.yul\":14829:14838   */\n      dup4\n        /* \"#utility.yul\":14825:14842   */\n      add\n        /* \"#utility.yul\":14816:14822   */\n      dup10\n        /* \"#utility.yul\":14772:14843   */\n      tag_109\n      jump\t// in\n    tag_266:\n        /* \"#utility.yul\":14853:14925   */\n      tag_267\n        /* \"#utility.yul\":14921:14923   */\n      0x20\n        /* \"#utility.yul\":14910:14919   */\n      dup4\n        /* \"#utility.yul\":14906:14924   */\n      add\n        /* \"#utility.yul\":14897:14903   */\n      dup9\n        /* \"#utility.yul\":14853:14925   */\n      tag_114\n      jump\t// in\n    tag_267:\n        /* \"#utility.yul\":14935:15007   */\n      tag_268\n        /* \"#utility.yul\":15003:15005   */\n      0x40\n        /* \"#utility.yul\":14992:15001   */\n      dup4\n        /* \"#utility.yul\":14988:15006   */\n      add\n        /* \"#utility.yul\":14979:14985   */\n      dup8\n        /* \"#utility.yul\":14935:15007   */\n      tag_109\n      jump\t// in\n    tag_268:\n        /* \"#utility.yul\":15017:15089   */\n      tag_269\n        /* \"#utility.yul\":15085:15087   */\n      0x60\n        /* \"#utility.yul\":15074:15083   */\n      dup4\n        /* \"#utility.yul\":15070:15088   */\n      add\n        /* \"#utility.yul\":15061:15067   */\n      dup7\n        /* \"#utility.yul\":15017:15089   */\n      tag_114\n      jump\t// in\n    tag_269:\n        /* \"#utility.yul\":15099:15172   */\n      tag_270\n        /* \"#utility.yul\":15167:15170   */\n      0x80\n        /* \"#utility.yul\":15156:15165   */\n      dup4\n        /* \"#utility.yul\":15152:15171   */\n      add\n        /* \"#utility.yul\":15143:15149   */\n      dup6\n        /* \"#utility.yul\":15099:15172   */\n      tag_109\n      jump\t// in\n    tag_270:\n        /* \"#utility.yul\":15182:15255   */\n      tag_271\n        /* \"#utility.yul\":15250:15253   */\n      0xa0\n        /* \"#utility.yul\":15239:15248   */\n      dup4\n        /* \"#utility.yul\":15235:15254   */\n      add\n        /* \"#utility.yul\":15226:15232   */\n      dup5\n        /* \"#utility.yul\":15182:15255   */\n      tag_114\n      jump\t// in\n    tag_271:\n        /* \"#utility.yul\":14487:15262   */\n      swap8\n      swap7\n      pop\n      pop\n      pop\n      pop\n      pop\n      pop\n      pop\n      jump\t// out\n        /* \"#utility.yul\":15268:15448   */\n    tag_137:\n        /* \"#utility.yul\":15316:15393   */\n      0x4e487b7100000000000000000000000000000000000000000000000000000000\n        /* \"#utility.yul\":15313:15314   */\n      0x00\n        /* \"#utility.yul\":15306:15394   */\n      mstore\n        /* \"#utility.yul\":15413:15417   */\n      0x11\n        /* \"#utility.yul\":15410:15411   */\n      0x04\n        /* \"#utility.yul\":15403:15418   */\n      mstore\n        /* \"#utility.yul\":15437:15441   */\n      0x24\n        /* \"#utility.yul\":15434:15435   */\n      0x00\n        /* \"#utility.yul\":15427:15442   */\n      revert\n        /* \"#utility.yul\":15454:15687   */\n    tag_87:\n        /* \"#utility.yul\":15493:15496   */\n      0x00\n        /* \"#utility.yul\":15516:15540   */\n      tag_274\n        /* \"#utility.yul\":15534:15539   */\n      dup3\n        /* \"#utility.yul\":15516:15540   */\n      tag_106\n      jump\t// in\n    tag_274:\n        /* \"#utility.yul\":15507:15540   */\n      swap2\n      pop\n        /* \"#utility.yul\":15562:15628   */\n      0xffffffffffffffffffffffffffffffffffffffffffffffffffffffffffffffff\n        /* \"#utility.yul\":15555:15560   */\n      dup3\n        /* \"#utility.yul\":15552:15629   */\n      sub\n        /* \"#utility.yul\":15549:15652   */\n      tag_275\n      jumpi\n        /* \"#utility.yul\":15632:15650   */\n      tag_276\n      tag_137\n      jump\t// in\n    tag_276:\n        /* \"#utility.yul\":15549:15652   */\n    tag_275:\n        /* \"#utility.yul\":15679:15680   */\n      0x01\n        /* \"#utility.yul\":15672:15677   */\n      dup3\n        /* \"#utility.yul\":15668:15681   */\n      add\n        /* \"#utility.yul\":15661:15681   */\n      swap1\n      pop\n        /* \"#utility.yul\":15454:15687   */\n      swap2\n      swap1\n      pop\n      jump\t// out\n        /* \"#utility.yul\":15693:15915   */\n    tag_138:\n        /* \"#utility.yul\":15833:15867   */\n      0x4e6f7420617574686f72697a656420746f2063616e63656c2074686973206f66\n        /* \"#utility.yul\":15829:15830   */\n      0x00\n        /* \"#utility.yul\":15821:15827   */\n      dup3\n        /* \"#utility.yul\":15817:15831   */\n      add\n        /* \"#utility.yul\":15810:15868   */\n      mstore\n        /* \"#utility.yul\":15902:15907   */\n      0x6665720000000000000000000000000000000000000000000000000000000000\n        /* \"#utility.yul\":15897:15899   */\n      0x20\n        /* \"#utility.yul\":15889:15895   */\n      dup3\n        /* \"#utility.yul\":15885:15900   */\n      add\n        /* \"#utility.yul\":15878:15908   */\n      mstore\n        /* \"#utility.yul\":15693:15915   */\n      pop\n      jump\t// out\n        /* \"#utility.yul\":15921:16287   */\n    tag_139:\n        /* \"#utility.yul\":16063:16066   */\n      0x00\n        /* \"#utility.yul\":16084:16151   */\n      tag_279\n        /* \"#utility.yul\":16148:16150   */\n      0x23\n        /* \"#utility.yul\":16143:16146   */\n      dup4\n        /* \"#utility.yul\":16084:16151   */\n      tag_117\n      jump\t// in\n    tag_279:\n        /* \"#utility.yul\":16077:16151   */\n      swap2\n      pop\n        /* \"#utility.yul\":16160:16253   */\n      tag_280\n        /* \"#utility.yul\":16249:16252   */\n      dup3\n        /* \"#utility.yul\":16160:16253   */\n      tag_138\n      jump\t// in\n    tag_280:\n        /* \"#utility.yul\":16278:16280   */\n      0x40\n        /* \"#utility.yul\":16273:16276   */\n      dup3\n        /* \"#utility.yul\":16269:16281   */\n      add\n        /* \"#utility.yul\":16262:16281   */\n      swap1\n      pop\n        /* \"#utility.yul\":15921:16287   */\n      swap2\n      swap1\n      pop\n      jump\t// out\n        /* \"#utility.yul\":16293:16712   */\n    tag_91:\n        /* \"#utility.yul\":16459:16463   */\n      0x00\n        /* \"#utility.yul\":16497:16499   */\n      0x20\n        /* \"#utility.yul\":16486:16495   */\n      dup3\n        /* \"#utility.yul\":16482:16500   */\n      add\n        /* \"#utility.yul\":16474:16500   */\n      swap1\n      pop\n        /* \"#utility.yul\":16546:16555   */\n      dup2\n        /* \"#utility.yul\":16540:16544   */\n      dup2\n        /* \"#utility.yul\":16536:16556   */\n      sub\n        /* \"#utility.yul\":16532:16533   */\n      0x00\n        /* \"#utility.yul\":16521:16530   */\n      dup4\n        /* \"#utility.yul\":16517:16534   */\n      add\n        /* \"#utility.yul\":16510:16557   */\n      mstore\n        /* \"#utility.yul\":16574:16705   */\n      tag_282\n        /* \"#utility.yul\":16700:16704   */\n      dup2\n        /* \"#utility.yul\":16574:16705   */\n      tag_139\n      jump\t// in\n    tag_282:\n        /* \"#utility.yul\":16566:16705   */\n      swap1\n      pop\n        /* \"#utility.yul\":16293:16712   */\n      swap2\n      swap1\n      pop\n      jump\t// out\n        /* \"#utility.yul\":16718:16899   */\n    tag_140:\n        /* \"#utility.yul\":16858:16891   */\n      0x43616e6e6f742063616e63656c20616e206163636570746564206f6666657200\n        /* \"#utility.yul\":16854:16855   */\n      0x00\n        /* \"#utility.yul\":16846:16852   */\n      dup3\n        /* \"#utility.yul\":16842:16856   */\n      add\n        /* \"#utility.yul\":16835:16892   */\n      mstore\n        /* \"#utility.yul\":16718:16899   */\n      pop\n      jump\t// out\n        /* \"#utility.yul\":16905:17271   */\n    tag_141:\n        /* \"#utility.yul\":17047:17050   */\n      0x00\n        /* \"#utility.yul\":17068:17135   */\n      tag_285\n        /* \"#utility.yul\":17132:17134   */\n      0x1f\n        /* \"#utility.yul\":17127:17130   */\n      dup4\n        /* \"#utility.yul\":17068:17135   */\n      tag_117\n      jump\t// in\n    tag_285:\n        /* \"#utility.yul\":17061:17135   */\n      swap2\n      pop\n        /* \"#utility.yul\":17144:17237   */\n      tag_286\n        /* \"#utility.yul\":17233:17236   */\n      dup3\n        /* \"#utility.yul\":17144:17237   */\n      tag_140\n      jump\t// in\n    tag_286:\n        /* \"#utility.yul\":17262:17264   */\n      0x20\n        /* \"#utility.yul\":17257:17260   */\n      dup3\n        /* \"#utility.yul\":17253:17265   */\n      add\n        /* \"#utility.yul\":17246:17265   */\n      swap1\n      pop\n        /* \"#utility.yul\":16905:17271   */\n      swap2\n      swap1\n      pop\n      jump\t// out\n        /* \"#utility.yul\":17277:17696   */\n    tag_94:\n        /* \"#utility.yul\":17443:17447   */\n      0x00\n        /* \"#utility.yul\":17481:17483   */\n      0x20\n        /* \"#utility.yul\":17470:17479   */\n      dup3\n        /* \"#utility.yul\":17466:17484   */\n      add\n        /* \"#utility.yul\":17458:17484   */\n      swap1\n      pop\n        /* \"#utility.yul\":17530:17539   */\n      dup2\n        /* \"#utility.yul\":17524:17528   */\n      dup2\n        /* \"#utility.yul\":17520:17540   */\n      sub\n        /* \"#utility.yul\":17516:17517   */\n      0x00\n        /* \"#utility.yul\":17505:17514   */\n      dup4\n        /* \"#utility.yul\":17501:17518   */\n      add\n        /* \"#utility.yul\":17494:17541   */\n      mstore\n        /* \"#utility.yul\":17558:17689   */\n      tag_288\n        /* \"#utility.yul\":17684:17688   */\n      dup2\n        /* \"#utility.yul\":17558:17689   */\n      tag_141\n      jump\t// in\n    tag_288:\n        /* \"#utility.yul\":17550:17689   */\n      swap1\n      pop\n        /* \"#utility.yul\":17277:17696   */\n      swap2\n      swap1\n      pop\n      jump\t// out\n        /* \"#utility.yul\":17702:17928   */\n    tag_142:\n        /* \"#utility.yul\":17842:17876   */\n      0x52657475726e207472616e73666572206f66206f66666572656420746f6b656e\n        /* \"#utility.yul\":17838:17839   */\n      0x00\n        /* \"#utility.yul\":17830:17836   */\n      dup3\n        /* \"#utility.yul\":17826:17840   */\n      add\n        /* \"#utility.yul\":17819:17877   */\n      mstore\n        /* \"#utility.yul\":17911:17920   */\n      0x206661696c656400000000000000000000000000000000000000000000000000\n        /* \"#utility.yul\":17906:17908   */\n      0x20\n        /* \"#utility.yul\":17898:17904   */\n      dup3\n        /* \"#utility.yul\":17894:17909   */\n      add\n        /* \"#utility.yul\":17887:17921   */\n      mstore\n        /* \"#utility.yul\":17702:17928   */\n      pop\n      jump\t// out\n        /* \"#utility.yul\":17934:18300   */\n    tag_143:\n        /* \"#utility.yul\":18076:18079   */\n      0x00\n        /* \"#utility.yul\":18097:18164   */\n      tag_291\n        /* \"#utility.yul\":18161:18163   */\n      0x27\n        /* \"#utility.yul\":18156:18159   */\n      dup4\n        /* \"#utility.yul\":18097:18164   */\n      tag_117\n      jump\t// in\n    tag_291:\n        /* \"#utility.yul\":18090:18164   */\n      swap2\n      pop\n        /* \"#utility.yul\":18173:18266   */\n      tag_292\n        /* \"#utility.yul\":18262:18265   */\n      dup3\n        /* \"#utility.yul\":18173:18266   */\n      tag_142\n      jump\t// in\n    tag_292:\n        /* \"#utility.yul\":18291:18293   */\n      0x40\n        /* \"#utility.yul\":18286:18289   */\n      dup3\n        /* \"#utility.yul\":18282:18294   */\n      add\n        /* \"#utility.yul\":18275:18294   */\n      swap1\n      pop\n        /* \"#utility.yul\":17934:18300   */\n      swap2\n      swap1\n      pop\n      jump\t// out\n        /* \"#utility.yul\":18306:18725   */\n    tag_102:\n        /* \"#utility.yul\":18472:18476   */\n      0x00\n        /* \"#utility.yul\":18510:18512   */\n      0x20\n        /* \"#utility.yul\":18499:18508   */\n      dup3\n        /* \"#utility.yul\":18495:18513   */\n      add\n        /* \"#utility.yul\":18487:18513   */\n      swap1\n      pop\n        /* \"#utility.yul\":18559:18568   */\n      dup2\n        /* \"#utility.yul\":18553:18557   */\n      dup2\n        /* \"#utility.yul\":18549:18569   */\n      sub\n        /* \"#utility.yul\":18545:18546   */\n      0x00\n        /* \"#utility.yul\":18534:18543   */\n      dup4\n        /* \"#utility.yul\":18530:18547   */\n      add\n        /* \"#utility.yul\":18523:18570   */\n      mstore\n        /* \"#utility.yul\":18587:18718   */\n      tag_294\n        /* \"#utility.yul\":18713:18717   */\n      dup2\n        /* \"#utility.yul\":18587:18718   */\n      tag_143\n      jump\t// in\n    tag_294:\n        /* \"#utility.yul\":18579:18718   */\n      swap1\n      pop\n        /* \"#utility.yul\":18306:18725   */\n      swap2\n      swap1\n      pop\n      jump\t// out\n\n    auxdata: 0xa2646970667358221220652e7f6ac1b20599f9996fb6e170abf032887577a5dc7124111340e2d6ae87dd64736f6c634300081a0033\n}\n",
				"bytecode": {
					"linkReferences": {},
					"object": "6080604052348015600e575f80fd5b506116e28061001c5f395ff3fe608060405234801561000f575f80fd5b5060043610610055575f3560e01c806321307b91146100595780635f5d0655146100755780638a7d893214610093578063a13f1c62146100af578063ff5dc8d3146100e6575b5f80fd5b610073600480360381019061006e9190610d75565b610102565b005b61007d6105c0565b60405161008a9190610daf565b60405180910390f35b6100ad60048036038101906100a89190610e22565b6105c6565b005b6100c960048036038101906100c49190610d75565b610a17565b6040516100dd989796959493929190610ec2565b60405180910390f35b61010060048036038101906100fb9190610d75565b610aef565b005b5f805f8381526020019081526020015f209050806006015f9054906101000a900460ff1615610166576040517f08c379a000000000000000000000000000000000000000000000000000000000815260040161015d90610f98565b60405180910390fd5b8060060160019054906101000a900460ff16156101b8576040517f08c379a00000000000000000000000000000000000000000000000000000000081526004016101af90611000565b60405180910390fd5b5f73ffffffffffffffffffffffffffffffffffffffff16816001015f9054906101000a900473ffffffffffffffffffffffffffffffffffffffff1673ffffffffffffffffffffffffffffffffffffffff16148061026357503373ffffffffffffffffffffffffffffffffffffffff16816001015f9054906101000a900473ffffffffffffffffffffffffffffffffffffffff1673ffffffffffffffffffffffffffffffffffffffff16145b6102a2576040517f08c379a00000000000000000000000000000000000000000000000000000000081526004016102999061108e565b60405180910390fd5b8060050154816003015f9054906101000a900473ffffffffffffffffffffffffffffffffffffffff1673ffffffffffffffffffffffffffffffffffffffff166370a08231336040518263ffffffff1660e01b815260040161030391906110ac565b602060405180830381865afa15801561031e573d5f803e3d5ffd5b505050506040513d601f19601f8201168201806040525081019061034291906110d9565b1015610383576040517f08c379a000000000000000000000000000000000000000000000000000000000815260040161037a90611174565b60405180910390fd5b806003015f9054906101000a900473ffffffffffffffffffffffffffffffffffffffff1673ffffffffffffffffffffffffffffffffffffffff166323b872dd33835f015f9054906101000a900473ffffffffffffffffffffffffffffffffffffffff1684600501546040518463ffffffff1660e01b815260040161040993929190611192565b6020604051808303815f875af1158015610425573d5f803e3d5ffd5b505050506040513d601f19601f8201168201806040525081019061044991906111f1565b610488576040517f08c379a000000000000000000000000000000000000000000000000000000000815260040161047f9061128c565b60405180910390fd5b6001816006015f6101000a81548160ff0219169083151502179055507fb4c00185799caa92141c25229d2db03f8205154fc8ffc5d8b7cb632600f75a67826040516104d39190610daf565b60405180910390a1806002015f9054906101000a900473ffffffffffffffffffffffffffffffffffffffff1673ffffffffffffffffffffffffffffffffffffffff1663a9059cbb3383600401546040518363ffffffff1660e01b815260040161053d9291906112aa565b6020604051808303815f875af1158015610559573d5f803e3d5ffd5b505050506040513d601f19601f8201168201806040525081019061057d91906111f1565b6105bc576040517f08c379a00000000000000000000000000000000000000000000000000000000081526004016105b39061131b565b60405180910390fd5b5050565b60015481565b5f84141580156105d657505f8214155b610615576040517f08c379a000000000000000000000000000000000000000000000000000000000815260040161060c906113a9565b60405180910390fd5b838573ffffffffffffffffffffffffffffffffffffffff166370a08231336040518263ffffffff1660e01b815260040161064f91906110ac565b602060405180830381865afa15801561066a573d5f803e3d5ffd5b505050506040513d601f19601f8201168201806040525081019061068e91906110d9565b10156106cf576040517f08c379a00000000000000000000000000000000000000000000000000000000081526004016106c690611437565b60405180910390fd5b8473ffffffffffffffffffffffffffffffffffffffff166323b872dd3330876040518463ffffffff1660e01b815260040161070c93929190611192565b6020604051808303815f875af1158015610728573d5f803e3d5ffd5b505050506040513d601f19601f8201168201806040525081019061074c91906111f1565b61078b576040517f08c379a00000000000000000000000000000000000000000000000000000000081526004016107829061131b565b60405180910390fd5b6040518061010001604052803373ffffffffffffffffffffffffffffffffffffffff1681526020018273ffffffffffffffffffffffffffffffffffffffff1681526020018673ffffffffffffffffffffffffffffffffffffffff1681526020018473ffffffffffffffffffffffffffffffffffffffff1681526020018581526020018381526020015f151581526020015f15158152505f8060015481526020019081526020015f205f820151815f015f6101000a81548173ffffffffffffffffffffffffffffffffffffffff021916908373ffffffffffffffffffffffffffffffffffffffff1602179055506020820151816001015f6101000a81548173ffffffffffffffffffffffffffffffffffffffff021916908373ffffffffffffffffffffffffffffffffffffffff1602179055506040820151816002015f6101000a81548173ffffffffffffffffffffffffffffffffffffffff021916908373ffffffffffffffffffffffffffffffffffffffff1602179055506060820151816003015f6101000a81548173ffffffffffffffffffffffffffffffffffffffff021916908373ffffffffffffffffffffffffffffffffffffffff1602179055506080820151816004015560a0820151816005015560c0820151816006015f6101000a81548160ff02191690831515021790555060e08201518160060160016101000a81548160ff0219169083151502179055509050503373ffffffffffffffffffffffffffffffffffffffff167fd4f11c924e0f30cc11d4ea8ed2a2ade6e89321769fcf9adbbcfa0dd839ef09f160015487878787876040516109f196959493929190611455565b60405180910390a260015f815480929190610a0b906114e1565b91905055505050505050565b5f602052805f5260405f205f91509050805f015f9054906101000a900473ffffffffffffffffffffffffffffffffffffffff1690806001015f9054906101000a900473ffffffffffffffffffffffffffffffffffffffff1690806002015f9054906101000a900473ffffffffffffffffffffffffffffffffffffffff1690806003015f9054906101000a900473ffffffffffffffffffffffffffffffffffffffff1690806004015490806005015490806006015f9054906101000a900460ff16908060060160019054906101000a900460ff16905088565b5f805f8381526020019081526020015f209050805f015f9054906101000a900473ffffffffffffffffffffffffffffffffffffffff1673ffffffffffffffffffffffffffffffffffffffff163373ffffffffffffffffffffffffffffffffffffffff1614610b92576040517f08c379a0000000000000000000000000000000000000000000000000000000008152600401610b8990611598565b60405180910390fd5b806006015f9054906101000a900460ff1615610be3576040517f08c379a0000000000000000000000000000000000000000000000000000000008152600401610bda90611600565b60405180910390fd5b60018160060160016101000a81548160ff0219169083151502179055507fde34f35ae5f85da751b0bb6485fa3674ce8750562dd0bd75e4b71f18bba1d3be82604051610c2f9190610daf565b60405180910390a1806002015f9054906101000a900473ffffffffffffffffffffffffffffffffffffffff1673ffffffffffffffffffffffffffffffffffffffff1663a9059cbb825f015f9054906101000a900473ffffffffffffffffffffffffffffffffffffffff1683600401546040518363ffffffff1660e01b8152600401610cbb9291906112aa565b6020604051808303815f875af1158015610cd7573d5f803e3d5ffd5b505050506040513d601f19601f82011682018060405250810190610cfb91906111f1565b610d3a576040517f08c379a0000000000000000000000000000000000000000000000000000000008152600401610d319061168e565b60405180910390fd5b5050565b5f80fd5b5f819050919050565b610d5481610d42565b8114610d5e575f80fd5b50565b5f81359050610d6f81610d4b565b92915050565b5f60208284031215610d8a57610d89610d3e565b5b5f610d9784828501610d61565b91505092915050565b610da981610d42565b82525050565b5f602082019050610dc25f830184610da0565b92915050565b5f73ffffffffffffffffffffffffffffffffffffffff82169050919050565b5f610df182610dc8565b9050919050565b610e0181610de7565b8114610e0b575f80fd5b50565b5f81359050610e1c81610df8565b92915050565b5f805f805f60a08688031215610e3b57610e3a610d3e565b5b5f610e4888828901610e0e565b9550506020610e5988828901610d61565b9450506040610e6a88828901610e0e565b9350506060610e7b88828901610d61565b9250506080610e8c88828901610e0e565b9150509295509295909350565b610ea281610de7565b82525050565b5f8115159050919050565b610ebc81610ea8565b82525050565b5f61010082019050610ed65f83018b610e99565b610ee3602083018a610e99565b610ef06040830189610e99565b610efd6060830188610e99565b610f0a6080830187610da0565b610f1760a0830186610da0565b610f2460c0830185610eb3565b610f3160e0830184610eb3565b9998505050505050505050565b5f82825260208201905092915050565b7f4f6666657220616c7265616479206163636570746564000000000000000000005f82015250565b5f610f82601683610f3e565b9150610f8d82610f4e565b602082019050919050565b5f6020820190508181035f830152610faf81610f76565b9050919050565b7f4f66666572207761732063616e63656c656400000000000000000000000000005f82015250565b5f610fea601283610f3e565b9150610ff582610fb6565b602082019050919050565b5f6020820190508181035f83015261101781610fde565b9050919050565b7f4e6f7420617574686f72697a656420746f206163636570742074686973206f665f8201527f6665720000000000000000000000000000000000000000000000000000000000602082015250565b5f611078602383610f3e565b91506110838261101e565b604082019050919050565b5f6020820190508181035f8301526110a58161106c565b9050919050565b5f6020820190506110bf5f830184610e99565b92915050565b5f815190506110d381610d4b565b92915050565b5f602082840312156110ee576110ed610d3e565b5b5f6110fb848285016110c5565b91505092915050565b7f496e73756666696369656e742062616c616e636520666f7220726571756573745f8201527f656420746f6b656e000000000000000000000000000000000000000000000000602082015250565b5f61115e602883610f3e565b915061116982611104565b604082019050919050565b5f6020820190508181035f83015261118b81611152565b9050919050565b5f6060820190506111a55f830186610e99565b6111b26020830185610e99565b6111bf6040830184610da0565b949350505050565b6111d081610ea8565b81146111da575f80fd5b50565b5f815190506111eb816111c7565b92915050565b5f6020828403121561120657611205610d3e565b5b5f611213848285016111dd565b91505092915050565b7f5472616e73666572206f662072657175657374656420746f6b656e206661696c5f8201527f6564000000000000000000000000000000000000000000000000000000000000602082015250565b5f611276602283610f3e565b91506112818261121c565b604082019050919050565b5f6020820190508181035f8301526112a38161126a565b9050919050565b5f6040820190506112bd5f830185610e99565b6112ca6020830184610da0565b9392505050565b7f5472616e73666572206f66206f66666572656420746f6b656e206661696c65645f82015250565b5f611305602083610f3e565b9150611310826112d1565b602082019050919050565b5f6020820190508181035f830152611332816112f9565b9050919050565b7f416d6f756e7473206d7573742062652067726561746572207468616e207a65725f8201527f6f00000000000000000000000000000000000000000000000000000000000000602082015250565b5f611393602183610f3e565b915061139e82611339565b604082019050919050565b5f6020820190508181035f8301526113c081611387565b9050919050565b7f496e73756666696369656e742062616c616e636520666f72206f6666657265645f8201527f20746f6b656e0000000000000000000000000000000000000000000000000000602082015250565b5f611421602683610f3e565b915061142c826113c7565b604082019050919050565b5f6020820190508181035f83015261144e81611415565b9050919050565b5f60c0820190506114685f830189610da0565b6114756020830188610e99565b6114826040830187610da0565b61148f6060830186610e99565b61149c6080830185610da0565b6114a960a0830184610e99565b979650505050505050565b7f4e487b71000000000000000000000000000000000000000000000000000000005f52601160045260245ffd5b5f6114eb82610d42565b91507fffffffffffffffffffffffffffffffffffffffffffffffffffffffffffffffff820361151d5761151c6114b4565b5b600182019050919050565b7f4e6f7420617574686f72697a656420746f2063616e63656c2074686973206f665f8201527f6665720000000000000000000000000000000000000000000000000000000000602082015250565b5f611582602383610f3e565b915061158d82611528565b604082019050919050565b5f6020820190508181035f8301526115af81611576565b9050919050565b7f43616e6e6f742063616e63656c20616e206163636570746564206f66666572005f82015250565b5f6115ea601f83610f3e565b91506115f5826115b6565b602082019050919050565b5f6020820190508181035f830152611617816115de565b9050919050565b7f52657475726e207472616e73666572206f66206f66666572656420746f6b656e5f8201527f206661696c656400000000000000000000000000000000000000000000000000602082015250565b5f611678602783610f3e565b91506116838261161e565b604082019050919050565b5f6020820190508181035f8301526116a58161166c565b905091905056fea2646970667358221220652e7f6ac1b20599f9996fb6e170abf032887577a5dc7124111340e2d6ae87dd64736f6c634300081a0033",
					"opcodes": "PUSH1 0x80 PUSH1 0x40 MSTORE CALLVALUE DUP1 ISZERO PUSH1 0xE JUMPI PUSH0 DUP1 REVERT JUMPDEST POP PUSH2 0x16E2 DUP1 PUSH2 0x1C PUSH0 CODECOPY PUSH0 RETURN INVALID PUSH1 0x80 PUSH1 0x40 MSTORE CALLVALUE DUP1 ISZERO PUSH2 0xF JUMPI PUSH0 DUP1 REVERT JUMPDEST POP PUSH1 0x4 CALLDATASIZE LT PUSH2 0x55 JUMPI PUSH0 CALLDATALOAD PUSH1 0xE0 SHR DUP1 PUSH4 0x21307B91 EQ PUSH2 0x59 JUMPI DUP1 PUSH4 0x5F5D0655 EQ PUSH2 0x75 JUMPI DUP1 PUSH4 0x8A7D8932 EQ PUSH2 0x93 JUMPI DUP1 PUSH4 0xA13F1C62 EQ PUSH2 0xAF JUMPI DUP1 PUSH4 0xFF5DC8D3 EQ PUSH2 0xE6 JUMPI JUMPDEST PUSH0 DUP1 REVERT JUMPDEST PUSH2 0x73 PUSH1 0x4 DUP1 CALLDATASIZE SUB DUP2 ADD SWAP1 PUSH2 0x6E SWAP2 SWAP1 PUSH2 0xD75 JUMP JUMPDEST PUSH2 0x102 JUMP JUMPDEST STOP JUMPDEST PUSH2 0x7D PUSH2 0x5C0 JUMP JUMPDEST PUSH1 0x40 MLOAD PUSH2 0x8A SWAP2 SWAP1 PUSH2 0xDAF JUMP JUMPDEST PUSH1 0x40 MLOAD DUP1 SWAP2 SUB SWAP1 RETURN JUMPDEST PUSH2 0xAD PUSH1 0x4 DUP1 CALLDATASIZE SUB DUP2 ADD SWAP1 PUSH2 0xA8 SWAP2 SWAP1 PUSH2 0xE22 JUMP JUMPDEST PUSH2 0x5C6 JUMP JUMPDEST STOP JUMPDEST PUSH2 0xC9 PUSH1 0x4 DUP1 CALLDATASIZE SUB DUP2 ADD SWAP1 PUSH2 0xC4 SWAP2 SWAP1 PUSH2 0xD75 JUMP JUMPDEST PUSH2 0xA17 JUMP JUMPDEST PUSH1 0x40 MLOAD PUSH2 0xDD SWAP9 SWAP8 SWAP7 SWAP6 SWAP5 SWAP4 SWAP3 SWAP2 SWAP1 PUSH2 0xEC2 JUMP JUMPDEST PUSH1 0x40 MLOAD DUP1 SWAP2 SUB SWAP1 RETURN JUMPDEST PUSH2 0x100 PUSH1 0x4 DUP1 CALLDATASIZE SUB DUP2 ADD SWAP1 PUSH2 0xFB SWAP2 SWAP1 PUSH2 0xD75 JUMP JUMPDEST PUSH2 0xAEF JUMP JUMPDEST STOP JUMPDEST PUSH0 DUP1 PUSH0 DUP4 DUP2 MSTORE PUSH1 0x20 ADD SWAP1 DUP2 MSTORE PUSH1 0x20 ADD PUSH0 KECCAK256 SWAP1 POP DUP1 PUSH1 0x6 ADD PUSH0 SWAP1 SLOAD SWAP1 PUSH2 0x100 EXP SWAP1 DIV PUSH1 0xFF AND ISZERO PUSH2 0x166 JUMPI PUSH1 0x40 MLOAD PUSH32 0x8C379A000000000000000000000000000000000000000000000000000000000 DUP2 MSTORE PUSH1 0x4 ADD PUSH2 0x15D SWAP1 PUSH2 0xF98 JUMP JUMPDEST PUSH1 0x40 MLOAD DUP1 SWAP2 SUB SWAP1 REVERT JUMPDEST DUP1 PUSH1 0x6 ADD PUSH1 0x1 SWAP1 SLOAD SWAP1 PUSH2 0x100 EXP SWAP1 DIV PUSH1 0xFF AND ISZERO PUSH2 0x1B8 JUMPI PUSH1 0x40 MLOAD PUSH32 0x8C379A000000000000000000000000000000000000000000000000000000000 DUP2 MSTORE PUSH1 0x4 ADD PUSH2 0x1AF SWAP1 PUSH2 0x1000 JUMP JUMPDEST PUSH1 0x40 MLOAD DUP1 SWAP2 SUB SWAP1 REVERT JUMPDEST PUSH0 PUSH20 0xFFFFFFFFFFFFFFFFFFFFFFFFFFFFFFFFFFFFFFFF AND DUP2 PUSH1 0x1 ADD PUSH0 SWAP1 SLOAD SWAP1 PUSH2 0x100 EXP SWAP1 DIV PUSH20 0xFFFFFFFFFFFFFFFFFFFFFFFFFFFFFFFFFFFFFFFF AND PUSH20 0xFFFFFFFFFFFFFFFFFFFFFFFFFFFFFFFFFFFFFFFF AND EQ DUP1 PUSH2 0x263 JUMPI POP CALLER PUSH20 0xFFFFFFFFFFFFFFFFFFFFFFFFFFFFFFFFFFFFFFFF AND DUP2 PUSH1 0x1 ADD PUSH0 SWAP1 SLOAD SWAP1 PUSH2 0x100 EXP SWAP1 DIV PUSH20 0xFFFFFFFFFFFFFFFFFFFFFFFFFFFFFFFFFFFFFFFF AND PUSH20 0xFFFFFFFFFFFFFFFFFFFFFFFFFFFFFFFFFFFFFFFF AND EQ JUMPDEST PUSH2 0x2A2 JUMPI PUSH1 0x40 MLOAD PUSH32 0x8C379A000000000000000000000000000000000000000000000000000000000 DUP2 MSTORE PUSH1 0x4 ADD PUSH2 0x299 SWAP1 PUSH2 0x108E JUMP JUMPDEST PUSH1 0x40 MLOAD DUP1 SWAP2 SUB SWAP1 REVERT JUMPDEST DUP1 PUSH1 0x5 ADD SLOAD DUP2 PUSH1 0x3 ADD PUSH0 SWAP1 SLOAD SWAP1 PUSH2 0x100 EXP SWAP1 DIV PUSH20 0xFFFFFFFFFFFFFFFFFFFFFFFFFFFFFFFFFFFFFFFF AND PUSH20 0xFFFFFFFFFFFFFFFFFFFFFFFFFFFFFFFFFFFFFFFF AND PUSH4 0x70A08231 CALLER PUSH1 0x40 MLOAD DUP3 PUSH4 0xFFFFFFFF AND PUSH1 0xE0 SHL DUP2 MSTORE PUSH1 0x4 ADD PUSH2 0x303 SWAP2 SWAP1 PUSH2 0x10AC JUMP JUMPDEST PUSH1 0x20 PUSH1 0x40 MLOAD DUP1 DUP4 SUB DUP2 DUP7 GAS STATICCALL ISZERO DUP1 ISZERO PUSH2 0x31E JUMPI RETURNDATASIZE PUSH0 DUP1 RETURNDATACOPY RETURNDATASIZE PUSH0 REVERT JUMPDEST POP POP POP POP PUSH1 0x40 MLOAD RETURNDATASIZE PUSH1 0x1F NOT PUSH1 0x1F DUP3 ADD AND DUP3 ADD DUP1 PUSH1 0x40 MSTORE POP DUP2 ADD SWAP1 PUSH2 0x342 SWAP2 SWAP1 PUSH2 0x10D9 JUMP JUMPDEST LT ISZERO PUSH2 0x383 JUMPI PUSH1 0x40 MLOAD PUSH32 0x8C379A000000000000000000000000000000000000000000000000000000000 DUP2 MSTORE PUSH1 0x4 ADD PUSH2 0x37A SWAP1 PUSH2 0x1174 JUMP JUMPDEST PUSH1 0x40 MLOAD DUP1 SWAP2 SUB SWAP1 REVERT JUMPDEST DUP1 PUSH1 0x3 ADD PUSH0 SWAP1 SLOAD SWAP1 PUSH2 0x100 EXP SWAP1 DIV PUSH20 0xFFFFFFFFFFFFFFFFFFFFFFFFFFFFFFFFFFFFFFFF AND PUSH20 0xFFFFFFFFFFFFFFFFFFFFFFFFFFFFFFFFFFFFFFFF AND PUSH4 0x23B872DD CALLER DUP4 PUSH0 ADD PUSH0 SWAP1 SLOAD SWAP1 PUSH2 0x100 EXP SWAP1 DIV PUSH20 0xFFFFFFFFFFFFFFFFFFFFFFFFFFFFFFFFFFFFFFFF AND DUP5 PUSH1 0x5 ADD SLOAD PUSH1 0x40 MLOAD DUP5 PUSH4 0xFFFFFFFF AND PUSH1 0xE0 SHL DUP2 MSTORE PUSH1 0x4 ADD PUSH2 0x409 SWAP4 SWAP3 SWAP2 SWAP1 PUSH2 0x1192 JUMP JUMPDEST PUSH1 0x20 PUSH1 0x40 MLOAD DUP1 DUP4 SUB DUP2 PUSH0 DUP8 GAS CALL ISZERO DUP1 ISZERO PUSH2 0x425 JUMPI RETURNDATASIZE PUSH0 DUP1 RETURNDATACOPY RETURNDATASIZE PUSH0 REVERT JUMPDEST POP POP POP POP PUSH1 0x40 MLOAD RETURNDATASIZE PUSH1 0x1F NOT PUSH1 0x1F DUP3 ADD AND DUP3 ADD DUP1 PUSH1 0x40 MSTORE POP DUP2 ADD SWAP1 PUSH2 0x449 SWAP2 SWAP1 PUSH2 0x11F1 JUMP JUMPDEST PUSH2 0x488 JUMPI PUSH1 0x40 MLOAD PUSH32 0x8C379A000000000000000000000000000000000000000000000000000000000 DUP2 MSTORE PUSH1 0x4 ADD PUSH2 0x47F SWAP1 PUSH2 0x128C JUMP JUMPDEST PUSH1 0x40 MLOAD DUP1 SWAP2 SUB SWAP1 REVERT JUMPDEST PUSH1 0x1 DUP2 PUSH1 0x6 ADD PUSH0 PUSH2 0x100 EXP DUP2 SLOAD DUP2 PUSH1 0xFF MUL NOT AND SWAP1 DUP4 ISZERO ISZERO MUL OR SWAP1 SSTORE POP PUSH32 0xB4C00185799CAA92141C25229D2DB03F8205154FC8FFC5D8B7CB632600F75A67 DUP3 PUSH1 0x40 MLOAD PUSH2 0x4D3 SWAP2 SWAP1 PUSH2 0xDAF JUMP JUMPDEST PUSH1 0x40 MLOAD DUP1 SWAP2 SUB SWAP1 LOG1 DUP1 PUSH1 0x2 ADD PUSH0 SWAP1 SLOAD SWAP1 PUSH2 0x100 EXP SWAP1 DIV PUSH20 0xFFFFFFFFFFFFFFFFFFFFFFFFFFFFFFFFFFFFFFFF AND PUSH20 0xFFFFFFFFFFFFFFFFFFFFFFFFFFFFFFFFFFFFFFFF AND PUSH4 0xA9059CBB CALLER DUP4 PUSH1 0x4 ADD SLOAD PUSH1 0x40 MLOAD DUP4 PUSH4 0xFFFFFFFF AND PUSH1 0xE0 SHL DUP2 MSTORE PUSH1 0x4 ADD PUSH2 0x53D SWAP3 SWAP2 SWAP1 PUSH2 0x12AA JUMP JUMPDEST PUSH1 0x20 PUSH1 0x40 MLOAD DUP1 DUP4 SUB DUP2 PUSH0 DUP8 GAS CALL ISZERO DUP1 ISZERO PUSH2 0x559 JUMPI RETURNDATASIZE PUSH0 DUP1 RETURNDATACOPY RETURNDATASIZE PUSH0 REVERT JUMPDEST POP POP POP POP PUSH1 0x40 MLOAD RETURNDATASIZE PUSH1 0x1F NOT PUSH1 0x1F DUP3 ADD AND DUP3 ADD DUP1 PUSH1 0x40 MSTORE POP DUP2 ADD SWAP1 PUSH2 0x57D SWAP2 SWAP1 PUSH2 0x11F1 JUMP JUMPDEST PUSH2 0x5BC JUMPI PUSH1 0x40 MLOAD PUSH32 0x8C379A000000000000000000000000000000000000000000000000000000000 DUP2 MSTORE PUSH1 0x4 ADD PUSH2 0x5B3 SWAP1 PUSH2 0x131B JUMP JUMPDEST PUSH1 0x40 MLOAD DUP1 SWAP2 SUB SWAP1 REVERT JUMPDEST POP POP JUMP JUMPDEST PUSH1 0x1 SLOAD DUP2 JUMP JUMPDEST PUSH0 DUP5 EQ ISZERO DUP1 ISZERO PUSH2 0x5D6 JUMPI POP PUSH0 DUP3 EQ ISZERO JUMPDEST PUSH2 0x615 JUMPI PUSH1 0x40 MLOAD PUSH32 0x8C379A000000000000000000000000000000000000000000000000000000000 DUP2 MSTORE PUSH1 0x4 ADD PUSH2 0x60C SWAP1 PUSH2 0x13A9 JUMP JUMPDEST PUSH1 0x40 MLOAD DUP1 SWAP2 SUB SWAP1 REVERT JUMPDEST DUP4 DUP6 PUSH20 0xFFFFFFFFFFFFFFFFFFFFFFFFFFFFFFFFFFFFFFFF AND PUSH4 0x70A08231 CALLER PUSH1 0x40 MLOAD DUP3 PUSH4 0xFFFFFFFF AND PUSH1 0xE0 SHL DUP2 MSTORE PUSH1 0x4 ADD PUSH2 0x64F SWAP2 SWAP1 PUSH2 0x10AC JUMP JUMPDEST PUSH1 0x20 PUSH1 0x40 MLOAD DUP1 DUP4 SUB DUP2 DUP7 GAS STATICCALL ISZERO DUP1 ISZERO PUSH2 0x66A JUMPI RETURNDATASIZE PUSH0 DUP1 RETURNDATACOPY RETURNDATASIZE PUSH0 REVERT JUMPDEST POP POP POP POP PUSH1 0x40 MLOAD RETURNDATASIZE PUSH1 0x1F NOT PUSH1 0x1F DUP3 ADD AND DUP3 ADD DUP1 PUSH1 0x40 MSTORE POP DUP2 ADD SWAP1 PUSH2 0x68E SWAP2 SWAP1 PUSH2 0x10D9 JUMP JUMPDEST LT ISZERO PUSH2 0x6CF JUMPI PUSH1 0x40 MLOAD PUSH32 0x8C379A000000000000000000000000000000000000000000000000000000000 DUP2 MSTORE PUSH1 0x4 ADD PUSH2 0x6C6 SWAP1 PUSH2 0x1437 JUMP JUMPDEST PUSH1 0x40 MLOAD DUP1 SWAP2 SUB SWAP1 REVERT JUMPDEST DUP5 PUSH20 0xFFFFFFFFFFFFFFFFFFFFFFFFFFFFFFFFFFFFFFFF AND PUSH4 0x23B872DD CALLER ADDRESS DUP8 PUSH1 0x40 MLOAD DUP5 PUSH4 0xFFFFFFFF AND PUSH1 0xE0 SHL DUP2 MSTORE PUSH1 0x4 ADD PUSH2 0x70C SWAP4 SWAP3 SWAP2 SWAP1 PUSH2 0x1192 JUMP JUMPDEST PUSH1 0x20 PUSH1 0x40 MLOAD DUP1 DUP4 SUB DUP2 PUSH0 DUP8 GAS CALL ISZERO DUP1 ISZERO PUSH2 0x728 JUMPI RETURNDATASIZE PUSH0 DUP1 RETURNDATACOPY RETURNDATASIZE PUSH0 REVERT JUMPDEST POP POP POP POP PUSH1 0x40 MLOAD RETURNDATASIZE PUSH1 0x1F NOT PUSH1 0x1F DUP3 ADD AND DUP3 ADD DUP1 PUSH1 0x40 MSTORE POP DUP2 ADD SWAP1 PUSH2 0x74C SWAP2 SWAP1 PUSH2 0x11F1 JUMP JUMPDEST PUSH2 0x78B JUMPI PUSH1 0x40 MLOAD PUSH32 0x8C379A000000000000000000000000000000000000000000000000000000000 DUP2 MSTORE PUSH1 0x4 ADD PUSH2 0x782 SWAP1 PUSH2 0x131B JUMP JUMPDEST PUSH1 0x40 MLOAD DUP1 SWAP2 SUB SWAP1 REVERT JUMPDEST PUSH1 0x40 MLOAD DUP1 PUSH2 0x100 ADD PUSH1 0x40 MSTORE DUP1 CALLER PUSH20 0xFFFFFFFFFFFFFFFFFFFFFFFFFFFFFFFFFFFFFFFF AND DUP2 MSTORE PUSH1 0x20 ADD DUP3 PUSH20 0xFFFFFFFFFFFFFFFFFFFFFFFFFFFFFFFFFFFFFFFF AND DUP2 MSTORE PUSH1 0x20 ADD DUP7 PUSH20 0xFFFFFFFFFFFFFFFFFFFFFFFFFFFFFFFFFFFFFFFF AND DUP2 MSTORE PUSH1 0x20 ADD DUP5 PUSH20 0xFFFFFFFFFFFFFFFFFFFFFFFFFFFFFFFFFFFFFFFF AND DUP2 MSTORE PUSH1 0x20 ADD DUP6 DUP2 MSTORE PUSH1 0x20 ADD DUP4 DUP2 MSTORE PUSH1 0x20 ADD PUSH0 ISZERO ISZERO DUP2 MSTORE PUSH1 0x20 ADD PUSH0 ISZERO ISZERO DUP2 MSTORE POP PUSH0 DUP1 PUSH1 0x1 SLOAD DUP2 MSTORE PUSH1 0x20 ADD SWAP1 DUP2 MSTORE PUSH1 0x20 ADD PUSH0 KECCAK256 PUSH0 DUP3 ADD MLOAD DUP2 PUSH0 ADD PUSH0 PUSH2 0x100 EXP DUP2 SLOAD DUP2 PUSH20 0xFFFFFFFFFFFFFFFFFFFFFFFFFFFFFFFFFFFFFFFF MUL NOT AND SWAP1 DUP4 PUSH20 0xFFFFFFFFFFFFFFFFFFFFFFFFFFFFFFFFFFFFFFFF AND MUL OR SWAP1 SSTORE POP PUSH1 0x20 DUP3 ADD MLOAD DUP2 PUSH1 0x1 ADD PUSH0 PUSH2 0x100 EXP DUP2 SLOAD DUP2 PUSH20 0xFFFFFFFFFFFFFFFFFFFFFFFFFFFFFFFFFFFFFFFF MUL NOT AND SWAP1 DUP4 PUSH20 0xFFFFFFFFFFFFFFFFFFFFFFFFFFFFFFFFFFFFFFFF AND MUL OR SWAP1 SSTORE POP PUSH1 0x40 DUP3 ADD MLOAD DUP2 PUSH1 0x2 ADD PUSH0 PUSH2 0x100 EXP DUP2 SLOAD DUP2 PUSH20 0xFFFFFFFFFFFFFFFFFFFFFFFFFFFFFFFFFFFFFFFF MUL NOT AND SWAP1 DUP4 PUSH20 0xFFFFFFFFFFFFFFFFFFFFFFFFFFFFFFFFFFFFFFFF AND MUL OR SWAP1 SSTORE POP PUSH1 0x60 DUP3 ADD MLOAD DUP2 PUSH1 0x3 ADD PUSH0 PUSH2 0x100 EXP DUP2 SLOAD DUP2 PUSH20 0xFFFFFFFFFFFFFFFFFFFFFFFFFFFFFFFFFFFFFFFF MUL NOT AND SWAP1 DUP4 PUSH20 0xFFFFFFFFFFFFFFFFFFFFFFFFFFFFFFFFFFFFFFFF AND MUL OR SWAP1 SSTORE POP PUSH1 0x80 DUP3 ADD MLOAD DUP2 PUSH1 0x4 ADD SSTORE PUSH1 0xA0 DUP3 ADD MLOAD DUP2 PUSH1 0x5 ADD SSTORE PUSH1 0xC0 DUP3 ADD MLOAD DUP2 PUSH1 0x6 ADD PUSH0 PUSH2 0x100 EXP DUP2 SLOAD DUP2 PUSH1 0xFF MUL NOT AND SWAP1 DUP4 ISZERO ISZERO MUL OR SWAP1 SSTORE POP PUSH1 0xE0 DUP3 ADD MLOAD DUP2 PUSH1 0x6 ADD PUSH1 0x1 PUSH2 0x100 EXP DUP2 SLOAD DUP2 PUSH1 0xFF MUL NOT AND SWAP1 DUP4 ISZERO ISZERO MUL OR SWAP1 SSTORE POP SWAP1 POP POP CALLER PUSH20 0xFFFFFFFFFFFFFFFFFFFFFFFFFFFFFFFFFFFFFFFF AND PUSH32 0xD4F11C924E0F30CC11D4EA8ED2A2ADE6E89321769FCF9ADBBCFA0DD839EF09F1 PUSH1 0x1 SLOAD DUP8 DUP8 DUP8 DUP8 DUP8 PUSH1 0x40 MLOAD PUSH2 0x9F1 SWAP7 SWAP6 SWAP5 SWAP4 SWAP3 SWAP2 SWAP1 PUSH2 0x1455 JUMP JUMPDEST PUSH1 0x40 MLOAD DUP1 SWAP2 SUB SWAP1 LOG2 PUSH1 0x1 PUSH0 DUP2 SLOAD DUP1 SWAP3 SWAP2 SWAP1 PUSH2 0xA0B SWAP1 PUSH2 0x14E1 JUMP JUMPDEST SWAP2 SWAP1 POP SSTORE POP POP POP POP POP POP JUMP JUMPDEST PUSH0 PUSH1 0x20 MSTORE DUP1 PUSH0 MSTORE PUSH1 0x40 PUSH0 KECCAK256 PUSH0 SWAP2 POP SWAP1 POP DUP1 PUSH0 ADD PUSH0 SWAP1 SLOAD SWAP1 PUSH2 0x100 EXP SWAP1 DIV PUSH20 0xFFFFFFFFFFFFFFFFFFFFFFFFFFFFFFFFFFFFFFFF AND SWAP1 DUP1 PUSH1 0x1 ADD PUSH0 SWAP1 SLOAD SWAP1 PUSH2 0x100 EXP SWAP1 DIV PUSH20 0xFFFFFFFFFFFFFFFFFFFFFFFFFFFFFFFFFFFFFFFF AND SWAP1 DUP1 PUSH1 0x2 ADD PUSH0 SWAP1 SLOAD SWAP1 PUSH2 0x100 EXP SWAP1 DIV PUSH20 0xFFFFFFFFFFFFFFFFFFFFFFFFFFFFFFFFFFFFFFFF AND SWAP1 DUP1 PUSH1 0x3 ADD PUSH0 SWAP1 SLOAD SWAP1 PUSH2 0x100 EXP SWAP1 DIV PUSH20 0xFFFFFFFFFFFFFFFFFFFFFFFFFFFFFFFFFFFFFFFF AND SWAP1 DUP1 PUSH1 0x4 ADD SLOAD SWAP1 DUP1 PUSH1 0x5 ADD SLOAD SWAP1 DUP1 PUSH1 0x6 ADD PUSH0 SWAP1 SLOAD SWAP1 PUSH2 0x100 EXP SWAP1 DIV PUSH1 0xFF AND SWAP1 DUP1 PUSH1 0x6 ADD PUSH1 0x1 SWAP1 SLOAD SWAP1 PUSH2 0x100 EXP SWAP1 DIV PUSH1 0xFF AND SWAP1 POP DUP9 JUMP JUMPDEST PUSH0 DUP1 PUSH0 DUP4 DUP2 MSTORE PUSH1 0x20 ADD SWAP1 DUP2 MSTORE PUSH1 0x20 ADD PUSH0 KECCAK256 SWAP1 POP DUP1 PUSH0 ADD PUSH0 SWAP1 SLOAD SWAP1 PUSH2 0x100 EXP SWAP1 DIV PUSH20 0xFFFFFFFFFFFFFFFFFFFFFFFFFFFFFFFFFFFFFFFF AND PUSH20 0xFFFFFFFFFFFFFFFFFFFFFFFFFFFFFFFFFFFFFFFF AND CALLER PUSH20 0xFFFFFFFFFFFFFFFFFFFFFFFFFFFFFFFFFFFFFFFF AND EQ PUSH2 0xB92 JUMPI PUSH1 0x40 MLOAD PUSH32 0x8C379A000000000000000000000000000000000000000000000000000000000 DUP2 MSTORE PUSH1 0x4 ADD PUSH2 0xB89 SWAP1 PUSH2 0x1598 JUMP JUMPDEST PUSH1 0x40 MLOAD DUP1 SWAP2 SUB SWAP1 REVERT JUMPDEST DUP1 PUSH1 0x6 ADD PUSH0 SWAP1 SLOAD SWAP1 PUSH2 0x100 EXP SWAP1 DIV PUSH1 0xFF AND ISZERO PUSH2 0xBE3 JUMPI PUSH1 0x40 MLOAD PUSH32 0x8C379A000000000000000000000000000000000000000000000000000000000 DUP2 MSTORE PUSH1 0x4 ADD PUSH2 0xBDA SWAP1 PUSH2 0x1600 JUMP JUMPDEST PUSH1 0x40 MLOAD DUP1 SWAP2 SUB SWAP1 REVERT JUMPDEST PUSH1 0x1 DUP2 PUSH1 0x6 ADD PUSH1 0x1 PUSH2 0x100 EXP DUP2 SLOAD DUP2 PUSH1 0xFF MUL NOT AND SWAP1 DUP4 ISZERO ISZERO MUL OR SWAP1 SSTORE POP PUSH32 0xDE34F35AE5F85DA751B0BB6485FA3674CE8750562DD0BD75E4B71F18BBA1D3BE DUP3 PUSH1 0x40 MLOAD PUSH2 0xC2F SWAP2 SWAP1 PUSH2 0xDAF JUMP JUMPDEST PUSH1 0x40 MLOAD DUP1 SWAP2 SUB SWAP1 LOG1 DUP1 PUSH1 0x2 ADD PUSH0 SWAP1 SLOAD SWAP1 PUSH2 0x100 EXP SWAP1 DIV PUSH20 0xFFFFFFFFFFFFFFFFFFFFFFFFFFFFFFFFFFFFFFFF AND PUSH20 0xFFFFFFFFFFFFFFFFFFFFFFFFFFFFFFFFFFFFFFFF AND PUSH4 0xA9059CBB DUP3 PUSH0 ADD PUSH0 SWAP1 SLOAD SWAP1 PUSH2 0x100 EXP SWAP1 DIV PUSH20 0xFFFFFFFFFFFFFFFFFFFFFFFFFFFFFFFFFFFFFFFF AND DUP4 PUSH1 0x4 ADD SLOAD PUSH1 0x40 MLOAD DUP4 PUSH4 0xFFFFFFFF AND PUSH1 0xE0 SHL DUP2 MSTORE PUSH1 0x4 ADD PUSH2 0xCBB SWAP3 SWAP2 SWAP1 PUSH2 0x12AA JUMP JUMPDEST PUSH1 0x20 PUSH1 0x40 MLOAD DUP1 DUP4 SUB DUP2 PUSH0 DUP8 GAS CALL ISZERO DUP1 ISZERO PUSH2 0xCD7 JUMPI RETURNDATASIZE PUSH0 DUP1 RETURNDATACOPY RETURNDATASIZE PUSH0 REVERT JUMPDEST POP POP POP POP PUSH1 0x40 MLOAD RETURNDATASIZE PUSH1 0x1F NOT PUSH1 0x1F DUP3 ADD AND DUP3 ADD DUP1 PUSH1 0x40 MSTORE POP DUP2 ADD SWAP1 PUSH2 0xCFB SWAP2 SWAP1 PUSH2 0x11F1 JUMP JUMPDEST PUSH2 0xD3A JUMPI PUSH1 0x40 MLOAD PUSH32 0x8C379A000000000000000000000000000000000000000000000000000000000 DUP2 MSTORE PUSH1 0x4 ADD PUSH2 0xD31 SWAP1 PUSH2 0x168E JUMP JUMPDEST PUSH1 0x40 MLOAD DUP1 SWAP2 SUB SWAP1 REVERT JUMPDEST POP POP JUMP JUMPDEST PUSH0 DUP1 REVERT JUMPDEST PUSH0 DUP2 SWAP1 POP SWAP2 SWAP1 POP JUMP JUMPDEST PUSH2 0xD54 DUP2 PUSH2 0xD42 JUMP JUMPDEST DUP2 EQ PUSH2 0xD5E JUMPI PUSH0 DUP1 REVERT JUMPDEST POP JUMP JUMPDEST PUSH0 DUP2 CALLDATALOAD SWAP1 POP PUSH2 0xD6F DUP2 PUSH2 0xD4B JUMP JUMPDEST SWAP3 SWAP2 POP POP JUMP JUMPDEST PUSH0 PUSH1 0x20 DUP3 DUP5 SUB SLT ISZERO PUSH2 0xD8A JUMPI PUSH2 0xD89 PUSH2 0xD3E JUMP JUMPDEST JUMPDEST PUSH0 PUSH2 0xD97 DUP5 DUP3 DUP6 ADD PUSH2 0xD61 JUMP JUMPDEST SWAP2 POP POP SWAP3 SWAP2 POP POP JUMP JUMPDEST PUSH2 0xDA9 DUP2 PUSH2 0xD42 JUMP JUMPDEST DUP3 MSTORE POP POP JUMP JUMPDEST PUSH0 PUSH1 0x20 DUP3 ADD SWAP1 POP PUSH2 0xDC2 PUSH0 DUP4 ADD DUP5 PUSH2 0xDA0 JUMP JUMPDEST SWAP3 SWAP2 POP POP JUMP JUMPDEST PUSH0 PUSH20 0xFFFFFFFFFFFFFFFFFFFFFFFFFFFFFFFFFFFFFFFF DUP3 AND SWAP1 POP SWAP2 SWAP1 POP JUMP JUMPDEST PUSH0 PUSH2 0xDF1 DUP3 PUSH2 0xDC8 JUMP JUMPDEST SWAP1 POP SWAP2 SWAP1 POP JUMP JUMPDEST PUSH2 0xE01 DUP2 PUSH2 0xDE7 JUMP JUMPDEST DUP2 EQ PUSH2 0xE0B JUMPI PUSH0 DUP1 REVERT JUMPDEST POP JUMP JUMPDEST PUSH0 DUP2 CALLDATALOAD SWAP1 POP PUSH2 0xE1C DUP2 PUSH2 0xDF8 JUMP JUMPDEST SWAP3 SWAP2 POP POP JUMP JUMPDEST PUSH0 DUP1 PUSH0 DUP1 PUSH0 PUSH1 0xA0 DUP7 DUP9 SUB SLT ISZERO PUSH2 0xE3B JUMPI PUSH2 0xE3A PUSH2 0xD3E JUMP JUMPDEST JUMPDEST PUSH0 PUSH2 0xE48 DUP9 DUP3 DUP10 ADD PUSH2 0xE0E JUMP JUMPDEST SWAP6 POP POP PUSH1 0x20 PUSH2 0xE59 DUP9 DUP3 DUP10 ADD PUSH2 0xD61 JUMP JUMPDEST SWAP5 POP POP PUSH1 0x40 PUSH2 0xE6A DUP9 DUP3 DUP10 ADD PUSH2 0xE0E JUMP JUMPDEST SWAP4 POP POP PUSH1 0x60 PUSH2 0xE7B DUP9 DUP3 DUP10 ADD PUSH2 0xD61 JUMP JUMPDEST SWAP3 POP POP PUSH1 0x80 PUSH2 0xE8C DUP9 DUP3 DUP10 ADD PUSH2 0xE0E JUMP JUMPDEST SWAP2 POP POP SWAP3 SWAP6 POP SWAP3 SWAP6 SWAP1 SWAP4 POP JUMP JUMPDEST PUSH2 0xEA2 DUP2 PUSH2 0xDE7 JUMP JUMPDEST DUP3 MSTORE POP POP JUMP JUMPDEST PUSH0 DUP2 ISZERO ISZERO SWAP1 POP SWAP2 SWAP1 POP JUMP JUMPDEST PUSH2 0xEBC DUP2 PUSH2 0xEA8 JUMP JUMPDEST DUP3 MSTORE POP POP JUMP JUMPDEST PUSH0 PUSH2 0x100 DUP3 ADD SWAP1 POP PUSH2 0xED6 PUSH0 DUP4 ADD DUP12 PUSH2 0xE99 JUMP JUMPDEST PUSH2 0xEE3 PUSH1 0x20 DUP4 ADD DUP11 PUSH2 0xE99 JUMP JUMPDEST PUSH2 0xEF0 PUSH1 0x40 DUP4 ADD DUP10 PUSH2 0xE99 JUMP JUMPDEST PUSH2 0xEFD PUSH1 0x60 DUP4 ADD DUP9 PUSH2 0xE99 JUMP JUMPDEST PUSH2 0xF0A PUSH1 0x80 DUP4 ADD DUP8 PUSH2 0xDA0 JUMP JUMPDEST PUSH2 0xF17 PUSH1 0xA0 DUP4 ADD DUP7 PUSH2 0xDA0 JUMP JUMPDEST PUSH2 0xF24 PUSH1 0xC0 DUP4 ADD DUP6 PUSH2 0xEB3 JUMP JUMPDEST PUSH2 0xF31 PUSH1 0xE0 DUP4 ADD DUP5 PUSH2 0xEB3 JUMP JUMPDEST SWAP10 SWAP9 POP POP POP POP POP POP POP POP POP JUMP JUMPDEST PUSH0 DUP3 DUP3 MSTORE PUSH1 0x20 DUP3 ADD SWAP1 POP SWAP3 SWAP2 POP POP JUMP JUMPDEST PUSH32 0x4F6666657220616C726561647920616363657074656400000000000000000000 PUSH0 DUP3 ADD MSTORE POP JUMP JUMPDEST PUSH0 PUSH2 0xF82 PUSH1 0x16 DUP4 PUSH2 0xF3E JUMP JUMPDEST SWAP2 POP PUSH2 0xF8D DUP3 PUSH2 0xF4E JUMP JUMPDEST PUSH1 0x20 DUP3 ADD SWAP1 POP SWAP2 SWAP1 POP JUMP JUMPDEST PUSH0 PUSH1 0x20 DUP3 ADD SWAP1 POP DUP2 DUP2 SUB PUSH0 DUP4 ADD MSTORE PUSH2 0xFAF DUP2 PUSH2 0xF76 JUMP JUMPDEST SWAP1 POP SWAP2 SWAP1 POP JUMP JUMPDEST PUSH32 0x4F66666572207761732063616E63656C65640000000000000000000000000000 PUSH0 DUP3 ADD MSTORE POP JUMP JUMPDEST PUSH0 PUSH2 0xFEA PUSH1 0x12 DUP4 PUSH2 0xF3E JUMP JUMPDEST SWAP2 POP PUSH2 0xFF5 DUP3 PUSH2 0xFB6 JUMP JUMPDEST PUSH1 0x20 DUP3 ADD SWAP1 POP SWAP2 SWAP1 POP JUMP JUMPDEST PUSH0 PUSH1 0x20 DUP3 ADD SWAP1 POP DUP2 DUP2 SUB PUSH0 DUP4 ADD MSTORE PUSH2 0x1017 DUP2 PUSH2 0xFDE JUMP JUMPDEST SWAP1 POP SWAP2 SWAP1 POP JUMP JUMPDEST PUSH32 0x4E6F7420617574686F72697A656420746F206163636570742074686973206F66 PUSH0 DUP3 ADD MSTORE PUSH32 0x6665720000000000000000000000000000000000000000000000000000000000 PUSH1 0x20 DUP3 ADD MSTORE POP JUMP JUMPDEST PUSH0 PUSH2 0x1078 PUSH1 0x23 DUP4 PUSH2 0xF3E JUMP JUMPDEST SWAP2 POP PUSH2 0x1083 DUP3 PUSH2 0x101E JUMP JUMPDEST PUSH1 0x40 DUP3 ADD SWAP1 POP SWAP2 SWAP1 POP JUMP JUMPDEST PUSH0 PUSH1 0x20 DUP3 ADD SWAP1 POP DUP2 DUP2 SUB PUSH0 DUP4 ADD MSTORE PUSH2 0x10A5 DUP2 PUSH2 0x106C JUMP JUMPDEST SWAP1 POP SWAP2 SWAP1 POP JUMP JUMPDEST PUSH0 PUSH1 0x20 DUP3 ADD SWAP1 POP PUSH2 0x10BF PUSH0 DUP4 ADD DUP5 PUSH2 0xE99 JUMP JUMPDEST SWAP3 SWAP2 POP POP JUMP JUMPDEST PUSH0 DUP2 MLOAD SWAP1 POP PUSH2 0x10D3 DUP2 PUSH2 0xD4B JUMP JUMPDEST SWAP3 SWAP2 POP POP JUMP JUMPDEST PUSH0 PUSH1 0x20 DUP3 DUP5 SUB SLT ISZERO PUSH2 0x10EE JUMPI PUSH2 0x10ED PUSH2 0xD3E JUMP JUMPDEST JUMPDEST PUSH0 PUSH2 0x10FB DUP5 DUP3 DUP6 ADD PUSH2 0x10C5 JUMP JUMPDEST SWAP2 POP POP SWAP3 SWAP2 POP POP JUMP JUMPDEST PUSH32 0x496E73756666696369656E742062616C616E636520666F722072657175657374 PUSH0 DUP3 ADD MSTORE PUSH32 0x656420746F6B656E000000000000000000000000000000000000000000000000 PUSH1 0x20 DUP3 ADD MSTORE POP JUMP JUMPDEST PUSH0 PUSH2 0x115E PUSH1 0x28 DUP4 PUSH2 0xF3E JUMP JUMPDEST SWAP2 POP PUSH2 0x1169 DUP3 PUSH2 0x1104 JUMP JUMPDEST PUSH1 0x40 DUP3 ADD SWAP1 POP SWAP2 SWAP1 POP JUMP JUMPDEST PUSH0 PUSH1 0x20 DUP3 ADD SWAP1 POP DUP2 DUP2 SUB PUSH0 DUP4 ADD MSTORE PUSH2 0x118B DUP2 PUSH2 0x1152 JUMP JUMPDEST SWAP1 POP SWAP2 SWAP1 POP JUMP JUMPDEST PUSH0 PUSH1 0x60 DUP3 ADD SWAP1 POP PUSH2 0x11A5 PUSH0 DUP4 ADD DUP7 PUSH2 0xE99 JUMP JUMPDEST PUSH2 0x11B2 PUSH1 0x20 DUP4 ADD DUP6 PUSH2 0xE99 JUMP JUMPDEST PUSH2 0x11BF PUSH1 0x40 DUP4 ADD DUP5 PUSH2 0xDA0 JUMP JUMPDEST SWAP5 SWAP4 POP POP POP POP JUMP JUMPDEST PUSH2 0x11D0 DUP2 PUSH2 0xEA8 JUMP JUMPDEST DUP2 EQ PUSH2 0x11DA JUMPI PUSH0 DUP1 REVERT JUMPDEST POP JUMP JUMPDEST PUSH0 DUP2 MLOAD SWAP1 POP PUSH2 0x11EB DUP2 PUSH2 0x11C7 JUMP JUMPDEST SWAP3 SWAP2 POP POP JUMP JUMPDEST PUSH0 PUSH1 0x20 DUP3 DUP5 SUB SLT ISZERO PUSH2 0x1206 JUMPI PUSH2 0x1205 PUSH2 0xD3E JUMP JUMPDEST JUMPDEST PUSH0 PUSH2 0x1213 DUP5 DUP3 DUP6 ADD PUSH2 0x11DD JUMP JUMPDEST SWAP2 POP POP SWAP3 SWAP2 POP POP JUMP JUMPDEST PUSH32 0x5472616E73666572206F662072657175657374656420746F6B656E206661696C PUSH0 DUP3 ADD MSTORE PUSH32 0x6564000000000000000000000000000000000000000000000000000000000000 PUSH1 0x20 DUP3 ADD MSTORE POP JUMP JUMPDEST PUSH0 PUSH2 0x1276 PUSH1 0x22 DUP4 PUSH2 0xF3E JUMP JUMPDEST SWAP2 POP PUSH2 0x1281 DUP3 PUSH2 0x121C JUMP JUMPDEST PUSH1 0x40 DUP3 ADD SWAP1 POP SWAP2 SWAP1 POP JUMP JUMPDEST PUSH0 PUSH1 0x20 DUP3 ADD SWAP1 POP DUP2 DUP2 SUB PUSH0 DUP4 ADD MSTORE PUSH2 0x12A3 DUP2 PUSH2 0x126A JUMP JUMPDEST SWAP1 POP SWAP2 SWAP1 POP JUMP JUMPDEST PUSH0 PUSH1 0x40 DUP3 ADD SWAP1 POP PUSH2 0x12BD PUSH0 DUP4 ADD DUP6 PUSH2 0xE99 JUMP JUMPDEST PUSH2 0x12CA PUSH1 0x20 DUP4 ADD DUP5 PUSH2 0xDA0 JUMP JUMPDEST SWAP4 SWAP3 POP POP POP JUMP JUMPDEST PUSH32 0x5472616E73666572206F66206F66666572656420746F6B656E206661696C6564 PUSH0 DUP3 ADD MSTORE POP JUMP JUMPDEST PUSH0 PUSH2 0x1305 PUSH1 0x20 DUP4 PUSH2 0xF3E JUMP JUMPDEST SWAP2 POP PUSH2 0x1310 DUP3 PUSH2 0x12D1 JUMP JUMPDEST PUSH1 0x20 DUP3 ADD SWAP1 POP SWAP2 SWAP1 POP JUMP JUMPDEST PUSH0 PUSH1 0x20 DUP3 ADD SWAP1 POP DUP2 DUP2 SUB PUSH0 DUP4 ADD MSTORE PUSH2 0x1332 DUP2 PUSH2 0x12F9 JUMP JUMPDEST SWAP1 POP SWAP2 SWAP1 POP JUMP JUMPDEST PUSH32 0x416D6F756E7473206D7573742062652067726561746572207468616E207A6572 PUSH0 DUP3 ADD MSTORE PUSH32 0x6F00000000000000000000000000000000000000000000000000000000000000 PUSH1 0x20 DUP3 ADD MSTORE POP JUMP JUMPDEST PUSH0 PUSH2 0x1393 PUSH1 0x21 DUP4 PUSH2 0xF3E JUMP JUMPDEST SWAP2 POP PUSH2 0x139E DUP3 PUSH2 0x1339 JUMP JUMPDEST PUSH1 0x40 DUP3 ADD SWAP1 POP SWAP2 SWAP1 POP JUMP JUMPDEST PUSH0 PUSH1 0x20 DUP3 ADD SWAP1 POP DUP2 DUP2 SUB PUSH0 DUP4 ADD MSTORE PUSH2 0x13C0 DUP2 PUSH2 0x1387 JUMP JUMPDEST SWAP1 POP SWAP2 SWAP1 POP JUMP JUMPDEST PUSH32 0x496E73756666696369656E742062616C616E636520666F72206F666665726564 PUSH0 DUP3 ADD MSTORE PUSH32 0x20746F6B656E0000000000000000000000000000000000000000000000000000 PUSH1 0x20 DUP3 ADD MSTORE POP JUMP JUMPDEST PUSH0 PUSH2 0x1421 PUSH1 0x26 DUP4 PUSH2 0xF3E JUMP JUMPDEST SWAP2 POP PUSH2 0x142C DUP3 PUSH2 0x13C7 JUMP JUMPDEST PUSH1 0x40 DUP3 ADD SWAP1 POP SWAP2 SWAP1 POP JUMP JUMPDEST PUSH0 PUSH1 0x20 DUP3 ADD SWAP1 POP DUP2 DUP2 SUB PUSH0 DUP4 ADD MSTORE PUSH2 0x144E DUP2 PUSH2 0x1415 JUMP JUMPDEST SWAP1 POP SWAP2 SWAP1 POP JUMP JUMPDEST PUSH0 PUSH1 0xC0 DUP3 ADD SWAP1 POP PUSH2 0x1468 PUSH0 DUP4 ADD DUP10 PUSH2 0xDA0 JUMP JUMPDEST PUSH2 0x1475 PUSH1 0x20 DUP4 ADD DUP9 PUSH2 0xE99 JUMP JUMPDEST PUSH2 0x1482 PUSH1 0x40 DUP4 ADD DUP8 PUSH2 0xDA0 JUMP JUMPDEST PUSH2 0x148F PUSH1 0x60 DUP4 ADD DUP7 PUSH2 0xE99 JUMP JUMPDEST PUSH2 0x149C PUSH1 0x80 DUP4 ADD DUP6 PUSH2 0xDA0 JUMP JUMPDEST PUSH2 0x14A9 PUSH1 0xA0 DUP4 ADD DUP5 PUSH2 0xE99 JUMP JUMPDEST SWAP8 SWAP7 POP POP POP POP POP POP POP JUMP JUMPDEST PUSH32 0x4E487B7100000000000000000000000000000000000000000000000000000000 PUSH0 MSTORE PUSH1 0x11 PUSH1 0x4 MSTORE PUSH1 0x24 PUSH0 REVERT JUMPDEST PUSH0 PUSH2 0x14EB DUP3 PUSH2 0xD42 JUMP JUMPDEST SWAP2 POP PUSH32 0xFFFFFFFFFFFFFFFFFFFFFFFFFFFFFFFFFFFFFFFFFFFFFFFFFFFFFFFFFFFFFFFF DUP3 SUB PUSH2 0x151D JUMPI PUSH2 0x151C PUSH2 0x14B4 JUMP JUMPDEST JUMPDEST PUSH1 0x1 DUP3 ADD SWAP1 POP SWAP2 SWAP1 POP JUMP JUMPDEST PUSH32 0x4E6F7420617574686F72697A656420746F2063616E63656C2074686973206F66 PUSH0 DUP3 ADD MSTORE PUSH32 0x6665720000000000000000000000000000000000000000000000000000000000 PUSH1 0x20 DUP3 ADD MSTORE POP JUMP JUMPDEST PUSH0 PUSH2 0x1582 PUSH1 0x23 DUP4 PUSH2 0xF3E JUMP JUMPDEST SWAP2 POP PUSH2 0x158D DUP3 PUSH2 0x1528 JUMP JUMPDEST PUSH1 0x40 DUP3 ADD SWAP1 POP SWAP2 SWAP1 POP JUMP JUMPDEST PUSH0 PUSH1 0x20 DUP3 ADD SWAP1 POP DUP2 DUP2 SUB PUSH0 DUP4 ADD MSTORE PUSH2 0x15AF DUP2 PUSH2 0x1576 JUMP JUMPDEST SWAP1 POP SWAP2 SWAP1 POP JUMP JUMPDEST PUSH32 0x43616E6E6F742063616E63656C20616E206163636570746564206F6666657200 PUSH0 DUP3 ADD MSTORE POP JUMP JUMPDEST PUSH0 PUSH2 0x15EA PUSH1 0x1F DUP4 PUSH2 0xF3E JUMP JUMPDEST SWAP2 POP PUSH2 0x15F5 DUP3 PUSH2 0x15B6 JUMP JUMPDEST PUSH1 0x20 DUP3 ADD SWAP1 POP SWAP2 SWAP1 POP JUMP JUMPDEST PUSH0 PUSH1 0x20 DUP3 ADD SWAP1 POP DUP2 DUP2 SUB PUSH0 DUP4 ADD MSTORE PUSH2 0x1617 DUP2 PUSH2 0x15DE JUMP JUMPDEST SWAP1 POP SWAP2 SWAP1 POP JUMP JUMPDEST PUSH32 0x52657475726E207472616E73666572206F66206F66666572656420746F6B656E PUSH0 DUP3 ADD MSTORE PUSH32 0x206661696C656400000000000000000000000000000000000000000000000000 PUSH1 0x20 DUP3 ADD MSTORE POP JUMP JUMPDEST PUSH0 PUSH2 0x1678 PUSH1 0x27 DUP4 PUSH2 0xF3E JUMP JUMPDEST SWAP2 POP PUSH2 0x1683 DUP3 PUSH2 0x161E JUMP JUMPDEST PUSH1 0x40 DUP3 ADD SWAP1 POP SWAP2 SWAP1 POP JUMP JUMPDEST PUSH0 PUSH1 0x20 DUP3 ADD SWAP1 POP DUP2 DUP2 SUB PUSH0 DUP4 ADD MSTORE PUSH2 0x16A5 DUP2 PUSH2 0x166C JUMP JUMPDEST SWAP1 POP SWAP2 SWAP1 POP JUMP INVALID LOG2 PUSH5 0x6970667358 0x22 SLT KECCAK256 PUSH6 0x2E7F6AC1B205 SWAP10 0xF9 SWAP10 PUSH16 0xB6E170ABF032887577A5DC7124111340 0xE2 0xD6 0xAE DUP8 0xDD PUSH5 0x736F6C6343 STOP ADDMOD BYTE STOP CALLER "
				},
				"gasEstimates": {
					"creation": {
						"codeDepositCost": "1171600",
						"executionCost": "1219",
						"totalCost": "1172819"
					},
					"external": {
						"acceptSwapOffer(uint256)": "infinite",
						"cancelSwapOffer(uint256)": "infinite",
						"createSwapOffer(address,uint256,address,uint256,address)": "infinite",
						"nextOfferId()": "2425",
						"swapOffers(uint256)": "infinite"
					}
				},
				"methodIdentifiers": {
					"acceptSwapOffer(uint256)": "21307b91",
					"cancelSwapOffer(uint256)": "ff5dc8d3",
					"createSwapOffer(address,uint256,address,uint256,address)": "8a7d8932",
					"nextOfferId()": "5f5d0655",
					"swapOffers(uint256)": "a13f1c62"
				}
			},
			"storageLayout": {
				"storage": [
					{
						"astId": 102,
						"contract": "contracts/MilesSwap.sol:MilesSwap",
						"label": "swapOffers",
						"offset": 0,
						"slot": "0",
						"type": "t_mapping(t_uint256,t_struct(SwapOffer)97_storage)"
					},
					{
						"astId": 104,
						"contract": "contracts/MilesSwap.sol:MilesSwap",
						"label": "nextOfferId",
						"offset": 0,
						"slot": "1",
						"type": "t_uint256"
					}
				],
				"types": {
					"t_address": {
						"encoding": "inplace",
						"label": "address",
						"numberOfBytes": "20"
					},
					"t_bool": {
						"encoding": "inplace",
						"label": "bool",
						"numberOfBytes": "1"
					},
					"t_mapping(t_uint256,t_struct(SwapOffer)97_storage)": {
						"encoding": "mapping",
						"key": "t_uint256",
						"label": "mapping(uint256 => struct MilesSwap.SwapOffer)",
						"numberOfBytes": "32",
						"value": "t_struct(SwapOffer)97_storage"
					},
					"t_struct(SwapOffer)97_storage": {
						"encoding": "inplace",
						"label": "struct MilesSwap.SwapOffer",
						"members": [
							{
								"astId": 82,
								"contract": "contracts/MilesSwap.sol:MilesSwap",
								"label": "offerer",
								"offset": 0,
								"slot": "0",
								"type": "t_address"
							},
							{
								"astId": 84,
								"contract": "contracts/MilesSwap.sol:MilesSwap",
								"label": "recipient",
								"offset": 0,
								"slot": "1",
								"type": "t_address"
							},
							{
								"astId": 86,
								"contract": "contracts/MilesSwap.sol:MilesSwap",
								"label": "tokenOffered",
								"offset": 0,
								"slot": "2",
								"type": "t_address"
							},
							{
								"astId": 88,
								"contract": "contracts/MilesSwap.sol:MilesSwap",
								"label": "tokenRequested",
								"offset": 0,
								"slot": "3",
								"type": "t_address"
							},
							{
								"astId": 90,
								"contract": "contracts/MilesSwap.sol:MilesSwap",
								"label": "amountOffered",
								"offset": 0,
								"slot": "4",
								"type": "t_uint256"
							},
							{
								"astId": 92,
								"contract": "contracts/MilesSwap.sol:MilesSwap",
								"label": "amountRequested",
								"offset": 0,
								"slot": "5",
								"type": "t_uint256"
							},
							{
								"astId": 94,
								"contract": "contracts/MilesSwap.sol:MilesSwap",
								"label": "accepted",
								"offset": 0,
								"slot": "6",
								"type": "t_bool"
							},
							{
								"astId": 96,
								"contract": "contracts/MilesSwap.sol:MilesSwap",
								"label": "canceled",
								"offset": 1,
								"slot": "6",
								"type": "t_bool"
							}
						],
						"numberOfBytes": "224"
					},
					"t_uint256": {
						"encoding": "inplace",
						"label": "uint256",
						"numberOfBytes": "32"
					}
				}
			},
			"userdoc": {
				"kind": "user",
				"methods": {},
				"version": 1
			}
		}
	}
}