{
	"contracts/Teste.sol": {
		"Teste": {
			"abi": [
				{
					"inputs": [
						{
							"internalType": "address",
							"name": "tokenAddress",
							"type": "address"
						}
					],
					"stateMutability": "nonpayable",
					"type": "constructor"
				},
				{
					"inputs": [
						{
							"internalType": "address",
							"name": "owner",
							"type": "address"
						}
					],
					"name": "OwnableInvalidOwner",
					"type": "error"
				},
				{
					"inputs": [
						{
							"internalType": "address",
							"name": "account",
							"type": "address"
						}
					],
					"name": "OwnableUnauthorizedAccount",
					"type": "error"
				},
				{
					"anonymous": false,
					"inputs": [
						{
							"indexed": true,
							"internalType": "address",
							"name": "buyer",
							"type": "address"
						},
						{
							"indexed": false,
							"internalType": "uint256",
							"name": "amountInEther",
							"type": "uint256"
						},
						{
							"indexed": false,
							"internalType": "uint256",
							"name": "amountOfTokens",
							"type": "uint256"
						}
					],
					"name": "BuyTokens",
					"type": "event"
				},
				{
					"anonymous": false,
					"inputs": [
						{
							"indexed": true,
							"internalType": "address",
							"name": "previousOwner",
							"type": "address"
						},
						{
							"indexed": true,
							"internalType": "address",
							"name": "newOwner",
							"type": "address"
						}
					],
					"name": "OwnershipTransferred",
					"type": "event"
				},
				{
					"anonymous": false,
					"inputs": [
						{
							"indexed": true,
							"internalType": "address",
							"name": "user",
							"type": "address"
						},
						{
							"indexed": false,
							"internalType": "uint256",
							"name": "amountOfToken",
							"type": "uint256"
						},
						{
							"indexed": false,
							"internalType": "uint256",
							"name": "amountInEther",
							"type": "uint256"
						}
					],
					"name": "Swap",
					"type": "event"
				},
				{
					"inputs": [],
					"name": "buyTokens",
					"outputs": [
						{
							"internalType": "uint256",
							"name": "tokenAmount",
							"type": "uint256"
						}
					],
					"stateMutability": "payable",
					"type": "function"
				},
				{
					"inputs": [],
					"name": "exchangeRate",
					"outputs": [
						{
							"internalType": "uint256",
							"name": "",
							"type": "uint256"
						}
					],
					"stateMutability": "view",
					"type": "function"
				},
				{
					"inputs": [],
					"name": "owner",
					"outputs": [
						{
							"internalType": "address",
							"name": "",
							"type": "address"
						}
					],
					"stateMutability": "view",
					"type": "function"
				},
				{
					"inputs": [],
					"name": "renounceOwnership",
					"outputs": [],
					"stateMutability": "nonpayable",
					"type": "function"
				},
				{
					"inputs": [
						{
							"internalType": "uint256",
							"name": "amountOfToken",
							"type": "uint256"
						}
					],
					"name": "swapTokens",
					"outputs": [],
					"stateMutability": "nonpayable",
					"type": "function"
				},
				{
					"inputs": [],
					"name": "token",
					"outputs": [
						{
							"internalType": "contract IERC20",
							"name": "",
							"type": "address"
						}
					],
					"stateMutability": "view",
					"type": "function"
				},
				{
					"inputs": [
						{
							"internalType": "address",
							"name": "newOwner",
							"type": "address"
						}
					],
					"name": "transferOwnership",
					"outputs": [],
					"stateMutability": "nonpayable",
					"type": "function"
				},
				{
					"inputs": [
						{
							"internalType": "uint256",
							"name": "newRate",
							"type": "uint256"
						}
					],
					"name": "updateExchangeRate",
					"outputs": [],
					"stateMutability": "nonpayable",
					"type": "function"
				},
				{
					"inputs": [],
					"name": "withdraw",
					"outputs": [],
					"stateMutability": "nonpayable",
					"type": "function"
				},
				{
					"inputs": [],
					"name": "withdrawTokens",
					"outputs": [],
					"stateMutability": "nonpayable",
					"type": "function"
				}
			],
			"devdoc": {
				"errors": {
					"OwnableInvalidOwner(address)": [
						{
							"details": "The owner is not a valid owner account. (eg. `address(0)`)"
						}
					],
					"OwnableUnauthorizedAccount(address)": [
						{
							"details": "The caller account is not authorized to perform an operation."
						}
					]
				},
				"kind": "dev",
				"methods": {
					"owner()": {
						"details": "Returns the address of the current owner."
					},
					"renounceOwnership()": {
						"details": "Leaves the contract without owner. It will not be possible to call `onlyOwner` functions. Can only be called by the current owner. NOTE: Renouncing ownership will leave the contract without an owner, thereby disabling any functionality that is only available to the owner."
					},
					"transferOwnership(address)": {
						"details": "Transfers ownership of the contract to a new account (`newOwner`). Can only be called by the current owner."
					}
				},
				"version": 1
			},
			"evm": {
				"assembly": "    /* \"contracts/Teste.sol\":175:3612  contract Teste is Ownable {... */\n  mstore(0x40, 0x80)\n    /* \"contracts/Teste.sol\":368:372  1e18 */\n  0x0de0b6b3a7640000\n    /* \"contracts/Teste.sol\":338:372  uint256 public exchangeRate = 1e18 */\n  0x02\n  sstore\n    /* \"contracts/Teste.sol\":667:768  constructor(address tokenAddress) Ownable(msg.sender) {... */\n  callvalue\n  dup1\n  iszero\n  tag_1\n  jumpi\n  0x00\n  dup1\n  revert\ntag_1:\n  pop\n  mload(0x40)\n  sub(codesize, bytecodeSize)\n  dup1\n  bytecodeSize\n  dup4\n  codecopy\n  dup2\n  dup2\n  add\n  0x40\n  mstore\n  dup2\n  add\n  swap1\n  tag_2\n  swap2\n  swap1\n  tag_3\n  jump\t// in\ntag_2:\n    /* \"contracts/Teste.sol\":709:719  msg.sender */\n  caller\n    /* \"@openzeppelin/contracts/access/Ownable.sol\":1297:1298  0 */\n  0x00\n    /* \"@openzeppelin/contracts/access/Ownable.sol\":1273:1299  initialOwner == address(0) */\n  0xffffffffffffffffffffffffffffffffffffffff\n  and\n    /* \"@openzeppelin/contracts/access/Ownable.sol\":1273:1285  initialOwner */\n  dup2\n    /* \"@openzeppelin/contracts/access/Ownable.sol\":1273:1299  initialOwner == address(0) */\n  0xffffffffffffffffffffffffffffffffffffffff\n  and\n  sub\n    /* \"@openzeppelin/contracts/access/Ownable.sol\":1269:1364  if (initialOwner == address(0)) {... */\n  tag_7\n  jumpi\n    /* \"@openzeppelin/contracts/access/Ownable.sol\":1350:1351  0 */\n  0x00\n    /* \"@openzeppelin/contracts/access/Ownable.sol\":1322:1353  OwnableInvalidOwner(address(0)) */\n  mload(0x40)\n  0x1e4fbdf700000000000000000000000000000000000000000000000000000000\n  dup2\n  mstore\n  0x04\n  add\n  tag_8\n  swap2\n  swap1\n  tag_9\n  jump\t// in\ntag_8:\n  mload(0x40)\n  dup1\n  swap2\n  sub\n  swap1\n  revert\n    /* \"@openzeppelin/contracts/access/Ownable.sol\":1269:1364  if (initialOwner == address(0)) {... */\ntag_7:\n    /* \"@openzeppelin/contracts/access/Ownable.sol\":1373:1405  _transferOwnership(initialOwner) */\n  tag_10\n    /* \"@openzeppelin/contracts/access/Ownable.sol\":1392:1404  initialOwner */\n  dup2\n    /* \"@openzeppelin/contracts/access/Ownable.sol\":1373:1391  _transferOwnership */\n  shl(0x20, tag_11)\n    /* \"@openzeppelin/contracts/access/Ownable.sol\":1373:1405  _transferOwnership(initialOwner) */\n  0x20\n  shr\n  jump\t// in\ntag_10:\n    /* \"@openzeppelin/contracts/access/Ownable.sol\":1225:1412  constructor(address initialOwner) {... */\n  pop\n    /* \"contracts/Teste.sol\":747:759  tokenAddress */\n  dup1\n    /* \"contracts/Teste.sol\":732:737  token */\n  0x01\n  0x00\n    /* \"contracts/Teste.sol\":732:760  token = IERC20(tokenAddress) */\n  0x0100\n  exp\n  dup2\n  sload\n  dup2\n  0xffffffffffffffffffffffffffffffffffffffff\n  mul\n  not\n  and\n  swap1\n  dup4\n  0xffffffffffffffffffffffffffffffffffffffff\n  and\n  mul\n  or\n  swap1\n  sstore\n  pop\n    /* \"contracts/Teste.sol\":667:768  constructor(address tokenAddress) Ownable(msg.sender) {... */\n  pop\n    /* \"contracts/Teste.sol\":175:3612  contract Teste is Ownable {... */\n  jump(tag_13)\n    /* \"@openzeppelin/contracts/access/Ownable.sol\":2912:3099  function _transferOwnership(address newOwner) internal virtual {... */\ntag_11:\n    /* \"@openzeppelin/contracts/access/Ownable.sol\":2985:3001  address oldOwner */\n  0x00\n    /* \"@openzeppelin/contracts/access/Ownable.sol\":3004:3010  _owner */\n  dup1\n  0x00\n  swap1\n  sload\n  swap1\n  0x0100\n  exp\n  swap1\n  div\n  0xffffffffffffffffffffffffffffffffffffffff\n  and\n    /* \"@openzeppelin/contracts/access/Ownable.sol\":2985:3010  address oldOwner = _owner */\n  swap1\n  pop\n    /* \"@openzeppelin/contracts/access/Ownable.sol\":3029:3037  newOwner */\n  dup2\n    /* \"@openzeppelin/contracts/access/Ownable.sol\":3020:3026  _owner */\n  0x00\n  dup1\n    /* \"@openzeppelin/contracts/access/Ownable.sol\":3020:3037  _owner = newOwner */\n  0x0100\n  exp\n  dup2\n  sload\n  dup2\n  0xffffffffffffffffffffffffffffffffffffffff\n  mul\n  not\n  and\n  swap1\n  dup4\n  0xffffffffffffffffffffffffffffffffffffffff\n  and\n  mul\n  or\n  swap1\n  sstore\n  pop\n    /* \"@openzeppelin/contracts/access/Ownable.sol\":3083:3091  newOwner */\n  dup2\n    /* \"@openzeppelin/contracts/access/Ownable.sol\":3052:3092  OwnershipTransferred(oldOwner, newOwner) */\n  0xffffffffffffffffffffffffffffffffffffffff\n  and\n    /* \"@openzeppelin/contracts/access/Ownable.sol\":3073:3081  oldOwner */\n  dup2\n    /* \"@openzeppelin/contracts/access/Ownable.sol\":3052:3092  OwnershipTransferred(oldOwner, newOwner) */\n  0xffffffffffffffffffffffffffffffffffffffff\n  and\n  0x8be0079c531659141344cd1fd0a4f28419497f9722a3daafe3b4186f6b6457e0\n  mload(0x40)\n  mload(0x40)\n  dup1\n  swap2\n  sub\n  swap1\n  log3\n    /* \"@openzeppelin/contracts/access/Ownable.sol\":2975:3099  {... */\n  pop\n    /* \"@openzeppelin/contracts/access/Ownable.sol\":2912:3099  function _transferOwnership(address newOwner) internal virtual {... */\n  pop\n  jump\t// out\n    /* \"#utility.yul\":88:205   */\ntag_16:\n    /* \"#utility.yul\":197:198   */\n  0x00\n    /* \"#utility.yul\":194:195   */\n  dup1\n    /* \"#utility.yul\":187:199   */\n  revert\n    /* \"#utility.yul\":334:460   */\ntag_18:\n    /* \"#utility.yul\":371:378   */\n  0x00\n    /* \"#utility.yul\":411:453   */\n  0xffffffffffffffffffffffffffffffffffffffff\n    /* \"#utility.yul\":404:409   */\n  dup3\n    /* \"#utility.yul\":400:454   */\n  and\n    /* \"#utility.yul\":389:454   */\n  swap1\n  pop\n    /* \"#utility.yul\":334:460   */\n  swap2\n  swap1\n  pop\n  jump\t// out\n    /* \"#utility.yul\":466:562   */\ntag_19:\n    /* \"#utility.yul\":503:510   */\n  0x00\n    /* \"#utility.yul\":532:556   */\n  tag_29\n    /* \"#utility.yul\":550:555   */\n  dup3\n    /* \"#utility.yul\":532:556   */\n  tag_18\n  jump\t// in\ntag_29:\n    /* \"#utility.yul\":521:556   */\n  swap1\n  pop\n    /* \"#utility.yul\":466:562   */\n  swap2\n  swap1\n  pop\n  jump\t// out\n    /* \"#utility.yul\":568:690   */\ntag_20:\n    /* \"#utility.yul\":641:665   */\n  tag_31\n    /* \"#utility.yul\":659:664   */\n  dup2\n    /* \"#utility.yul\":641:665   */\n  tag_19\n  jump\t// in\ntag_31:\n    /* \"#utility.yul\":634:639   */\n  dup2\n    /* \"#utility.yul\":631:666   */\n  eq\n    /* \"#utility.yul\":621:684   */\n  tag_32\n  jumpi\n    /* \"#utility.yul\":680:681   */\n  0x00\n    /* \"#utility.yul\":677:678   */\n  dup1\n    /* \"#utility.yul\":670:682   */\n  revert\n    /* \"#utility.yul\":621:684   */\ntag_32:\n    /* \"#utility.yul\":568:690   */\n  pop\n  jump\t// out\n    /* \"#utility.yul\":696:839   */\ntag_21:\n    /* \"#utility.yul\":753:758   */\n  0x00\n    /* \"#utility.yul\":784:790   */\n  dup2\n    /* \"#utility.yul\":778:791   */\n  mload\n    /* \"#utility.yul\":769:791   */\n  swap1\n  pop\n    /* \"#utility.yul\":800:833   */\n  tag_34\n    /* \"#utility.yul\":827:832   */\n  dup2\n    /* \"#utility.yul\":800:833   */\n  tag_20\n  jump\t// in\ntag_34:\n    /* \"#utility.yul\":696:839   */\n  swap3\n  swap2\n  pop\n  pop\n  jump\t// out\n    /* \"#utility.yul\":845:1196   */\ntag_3:\n    /* \"#utility.yul\":915:921   */\n  0x00\n    /* \"#utility.yul\":964:966   */\n  0x20\n    /* \"#utility.yul\":952:961   */\n  dup3\n    /* \"#utility.yul\":943:950   */\n  dup5\n    /* \"#utility.yul\":939:962   */\n  sub\n    /* \"#utility.yul\":935:967   */\n  slt\n    /* \"#utility.yul\":932:1051   */\n  iszero\n  tag_36\n  jumpi\n    /* \"#utility.yul\":970:1049   */\n  tag_37\n  tag_16\n  jump\t// in\ntag_37:\n    /* \"#utility.yul\":932:1051   */\ntag_36:\n    /* \"#utility.yul\":1090:1091   */\n  0x00\n    /* \"#utility.yul\":1115:1179   */\n  tag_38\n    /* \"#utility.yul\":1171:1178   */\n  dup5\n    /* \"#utility.yul\":1162:1168   */\n  dup3\n    /* \"#utility.yul\":1151:1160   */\n  dup6\n    /* \"#utility.yul\":1147:1169   */\n  add\n    /* \"#utility.yul\":1115:1179   */\n  tag_21\n  jump\t// in\ntag_38:\n    /* \"#utility.yul\":1105:1179   */\n  swap2\n  pop\n    /* \"#utility.yul\":1061:1189   */\n  pop\n    /* \"#utility.yul\":845:1196   */\n  swap3\n  swap2\n  pop\n  pop\n  jump\t// out\n    /* \"#utility.yul\":1202:1320   */\ntag_22:\n    /* \"#utility.yul\":1289:1313   */\n  tag_40\n    /* \"#utility.yul\":1307:1312   */\n  dup2\n    /* \"#utility.yul\":1289:1313   */\n  tag_19\n  jump\t// in\ntag_40:\n    /* \"#utility.yul\":1284:1287   */\n  dup3\n    /* \"#utility.yul\":1277:1314   */\n  mstore\n    /* \"#utility.yul\":1202:1320   */\n  pop\n  pop\n  jump\t// out\n    /* \"#utility.yul\":1326:1548   */\ntag_9:\n    /* \"#utility.yul\":1419:1423   */\n  0x00\n    /* \"#utility.yul\":1457:1459   */\n  0x20\n    /* \"#utility.yul\":1446:1455   */\n  dup3\n    /* \"#utility.yul\":1442:1460   */\n  add\n    /* \"#utility.yul\":1434:1460   */\n  swap1\n  pop\n    /* \"#utility.yul\":1470:1541   */\n  tag_42\n    /* \"#utility.yul\":1538:1539   */\n  0x00\n    /* \"#utility.yul\":1527:1536   */\n  dup4\n    /* \"#utility.yul\":1523:1540   */\n  add\n    /* \"#utility.yul\":1514:1520   */\n  dup5\n    /* \"#utility.yul\":1470:1541   */\n  tag_22\n  jump\t// in\ntag_42:\n    /* \"#utility.yul\":1326:1548   */\n  swap3\n  swap2\n  pop\n  pop\n  jump\t// out\n    /* \"contracts/Teste.sol\":175:3612  contract Teste is Ownable {... */\ntag_13:\n  dataSize(sub_0)\n  dup1\n  dataOffset(sub_0)\n  0x00\n  codecopy\n  0x00\n  return\nstop\n\nsub_0: assembly {\n        /* \"contracts/Teste.sol\":175:3612  contract Teste is Ownable {... */\n      mstore(0x40, 0x80)\n      jumpi(tag_1, lt(calldatasize, 0x04))\n      shr(0xe0, calldataload(0x00))\n      dup1\n      0xb9e205ae\n      gt\n      tag_12\n      jumpi\n      dup1\n      0xb9e205ae\n      eq\n      tag_7\n      jumpi\n      dup1\n      0xd0febe4c\n      eq\n      tag_8\n      jumpi\n      dup1\n      0xf2fde38b\n      eq\n      tag_9\n      jumpi\n      dup1\n      0xfc0c546a\n      eq\n      tag_10\n      jumpi\n      dup1\n      0xfe784eaa\n      eq\n      tag_11\n      jumpi\n      jump(tag_1)\n    tag_12:\n      dup1\n      0x3ba0b9a9\n      eq\n      tag_2\n      jumpi\n      dup1\n      0x3ccfd60b\n      eq\n      tag_3\n      jumpi\n      dup1\n      0x715018a6\n      eq\n      tag_4\n      jumpi\n      dup1\n      0x8d8f2adb\n      eq\n      tag_5\n      jumpi\n      dup1\n      0x8da5cb5b\n      eq\n      tag_6\n      jumpi\n    tag_1:\n      0x00\n      dup1\n      revert\n        /* \"contracts/Teste.sol\":338:372  uint256 public exchangeRate = 1e18 */\n    tag_2:\n      callvalue\n      dup1\n      iszero\n      tag_13\n      jumpi\n      0x00\n      dup1\n      revert\n    tag_13:\n      pop\n      tag_14\n      tag_15\n      jump\t// in\n    tag_14:\n      mload(0x40)\n      tag_16\n      swap2\n      swap1\n      tag_17\n      jump\t// in\n    tag_16:\n      mload(0x40)\n      dup1\n      swap2\n      sub\n      swap1\n      return\n        /* \"contracts/Teste.sol\":2759:3051  function withdraw() public onlyOwner {... */\n    tag_3:\n      callvalue\n      dup1\n      iszero\n      tag_18\n      jumpi\n      0x00\n      dup1\n      revert\n    tag_18:\n      pop\n      tag_19\n      tag_20\n      jump\t// in\n    tag_19:\n      stop\n        /* \"@openzeppelin/contracts/access/Ownable.sol\":2293:2394  function renounceOwnership() public virtual onlyOwner {... */\n    tag_4:\n      callvalue\n      dup1\n      iszero\n      tag_21\n      jumpi\n      0x00\n      dup1\n      revert\n    tag_21:\n      pop\n      tag_22\n      tag_23\n      jump\t// in\n    tag_22:\n      stop\n        /* \"contracts/Teste.sol\":3315:3609  function withdrawTokens() external onlyOwner {... */\n    tag_5:\n      callvalue\n      dup1\n      iszero\n      tag_24\n      jumpi\n      0x00\n      dup1\n      revert\n    tag_24:\n      pop\n      tag_25\n      tag_26\n      jump\t// in\n    tag_25:\n      stop\n        /* \"@openzeppelin/contracts/access/Ownable.sol\":1638:1723  function owner() public view virtual returns (address) {... */\n    tag_6:\n      callvalue\n      dup1\n      iszero\n      tag_27\n      jumpi\n      0x00\n      dup1\n      revert\n    tag_27:\n      pop\n      tag_28\n      tag_29\n      jump\t// in\n    tag_28:\n      mload(0x40)\n      tag_30\n      swap2\n      swap1\n      tag_31\n      jump\t// in\n    tag_30:\n      mload(0x40)\n      dup1\n      swap2\n      sub\n      swap1\n      return\n        /* \"contracts/Teste.sol\":3135:3240  function updateExchangeRate(uint256 newRate) external onlyOwner {... */\n    tag_7:\n      callvalue\n      dup1\n      iszero\n      tag_32\n      jumpi\n      0x00\n      dup1\n      revert\n    tag_32:\n      pop\n      tag_33\n      0x04\n      dup1\n      calldatasize\n      sub\n      dup2\n      add\n      swap1\n      tag_34\n      swap2\n      swap1\n      tag_35\n      jump\t// in\n    tag_34:\n      tag_36\n      jump\t// in\n    tag_33:\n      stop\n        /* \"contracts/Teste.sol\":845:1593  function buyTokens() public payable returns (uint256 tokenAmount) {... */\n    tag_8:\n      tag_37\n      tag_38\n      jump\t// in\n    tag_37:\n      mload(0x40)\n      tag_39\n      swap2\n      swap1\n      tag_17\n      jump\t// in\n    tag_39:\n      mload(0x40)\n      dup1\n      swap2\n      sub\n      swap1\n      return\n        /* \"@openzeppelin/contracts/access/Ownable.sol\":2543:2758  function transferOwnership(address newOwner) public virtual onlyOwner {... */\n    tag_9:\n      callvalue\n      dup1\n      iszero\n      tag_40\n      jumpi\n      0x00\n      dup1\n      revert\n    tag_40:\n      pop\n      tag_41\n      0x04\n      dup1\n      calldatasize\n      sub\n      dup2\n      add\n      swap1\n      tag_42\n      swap2\n      swap1\n      tag_43\n      jump\t// in\n    tag_42:\n      tag_44\n      jump\t// in\n    tag_41:\n      stop\n        /* \"contracts/Teste.sol\":237:256  IERC20 public token */\n    tag_10:\n      callvalue\n      dup1\n      iszero\n      tag_45\n      jumpi\n      0x00\n      dup1\n      revert\n    tag_45:\n      pop\n      tag_46\n      tag_47\n      jump\t// in\n    tag_46:\n      mload(0x40)\n      tag_48\n      swap2\n      swap1\n      tag_49\n      jump\t// in\n    tag_48:\n      mload(0x40)\n      dup1\n      swap2\n      sub\n      swap1\n      return\n        /* \"contracts/Teste.sol\":1670:2669  function swapTokens(uint256 amountOfToken) external {... */\n    tag_11:\n      callvalue\n      dup1\n      iszero\n      tag_50\n      jumpi\n      0x00\n      dup1\n      revert\n    tag_50:\n      pop\n      tag_51\n      0x04\n      dup1\n      calldatasize\n      sub\n      dup2\n      add\n      swap1\n      tag_52\n      swap2\n      swap1\n      tag_35\n      jump\t// in\n    tag_52:\n      tag_53\n      jump\t// in\n    tag_51:\n      stop\n        /* \"contracts/Teste.sol\":338:372  uint256 public exchangeRate = 1e18 */\n    tag_15:\n      sload(0x02)\n      dup2\n      jump\t// out\n        /* \"contracts/Teste.sol\":2759:3051  function withdraw() public onlyOwner {... */\n    tag_20:\n        /* \"@openzeppelin/contracts/access/Ownable.sol\":1531:1544  _checkOwner() */\n      tag_55\n        /* \"@openzeppelin/contracts/access/Ownable.sol\":1531:1542  _checkOwner */\n      tag_56\n        /* \"@openzeppelin/contracts/access/Ownable.sol\":1531:1544  _checkOwner() */\n      jump\t// in\n    tag_55:\n        /* \"contracts/Teste.sol\":2807:2827  uint256 ownerBalance */\n      0x00\n        /* \"contracts/Teste.sol\":2830:2851  address(this).balance */\n      selfbalance\n        /* \"contracts/Teste.sol\":2807:2851  uint256 ownerBalance = address(this).balance */\n      swap1\n      pop\n        /* \"contracts/Teste.sol\":2885:2886  0 */\n      0x00\n        /* \"contracts/Teste.sol\":2870:2882  ownerBalance */\n      dup2\n        /* \"contracts/Teste.sol\":2870:2886  ownerBalance > 0 */\n      gt\n        /* \"contracts/Teste.sol\":2862:2913  require(ownerBalance > 0, \"No balance to withdraw\") */\n      tag_58\n      jumpi\n      mload(0x40)\n      0x08c379a000000000000000000000000000000000000000000000000000000000\n      dup2\n      mstore\n      0x04\n      add\n      tag_59\n      swap1\n      tag_60\n      jump\t// in\n    tag_59:\n      mload(0x40)\n      dup1\n      swap2\n      sub\n      swap1\n      revert\n    tag_58:\n        /* \"contracts/Teste.sol\":2927:2936  bool sent */\n      0x00\n        /* \"contracts/Teste.sol\":2942:2952  msg.sender */\n      caller\n        /* \"contracts/Teste.sol\":2942:2957  msg.sender.call */\n      0xffffffffffffffffffffffffffffffffffffffff\n      and\n        /* \"contracts/Teste.sol\":2965:2977  ownerBalance */\n      dup3\n        /* \"contracts/Teste.sol\":2942:2982  msg.sender.call{value: ownerBalance}(\"\") */\n      mload(0x40)\n      tag_61\n      swap1\n      tag_62\n      jump\t// in\n    tag_61:\n      0x00\n      mload(0x40)\n      dup1\n      dup4\n      sub\n      dup2\n      dup6\n      dup8\n      gas\n      call\n      swap3\n      pop\n      pop\n      pop\n      returndatasize\n      dup1\n      0x00\n      dup2\n      eq\n      tag_65\n      jumpi\n      mload(0x40)\n      swap2\n      pop\n      and(add(returndatasize, 0x3f), not(0x1f))\n      dup3\n      add\n      0x40\n      mstore\n      returndatasize\n      dup3\n      mstore\n      returndatasize\n      0x00\n      0x20\n      dup5\n      add\n      returndatacopy\n      jump(tag_64)\n    tag_65:\n      0x60\n      swap2\n      pop\n    tag_64:\n      pop\n        /* \"contracts/Teste.sol\":2926:2982  (bool sent, ) = msg.sender.call{value: ownerBalance}(\"\") */\n      pop\n      swap1\n      pop\n        /* \"contracts/Teste.sol\":3001:3005  sent */\n      dup1\n        /* \"contracts/Teste.sol\":2993:3043  require(sent, \"Failed to send Ether to the owner\") */\n      tag_66\n      jumpi\n      mload(0x40)\n      0x08c379a000000000000000000000000000000000000000000000000000000000\n      dup2\n      mstore\n      0x04\n      add\n      tag_67\n      swap1\n      tag_68\n      jump\t// in\n    tag_67:\n      mload(0x40)\n      dup1\n      swap2\n      sub\n      swap1\n      revert\n    tag_66:\n        /* \"contracts/Teste.sol\":2796:3051  {... */\n      pop\n      pop\n        /* \"contracts/Teste.sol\":2759:3051  function withdraw() public onlyOwner {... */\n      jump\t// out\n        /* \"@openzeppelin/contracts/access/Ownable.sol\":2293:2394  function renounceOwnership() public virtual onlyOwner {... */\n    tag_23:\n        /* \"@openzeppelin/contracts/access/Ownable.sol\":1531:1544  _checkOwner() */\n      tag_70\n        /* \"@openzeppelin/contracts/access/Ownable.sol\":1531:1542  _checkOwner */\n      tag_56\n        /* \"@openzeppelin/contracts/access/Ownable.sol\":1531:1544  _checkOwner() */\n      jump\t// in\n    tag_70:\n        /* \"@openzeppelin/contracts/access/Ownable.sol\":2357:2387  _transferOwnership(address(0)) */\n      tag_72\n        /* \"@openzeppelin/contracts/access/Ownable.sol\":2384:2385  0 */\n      0x00\n        /* \"@openzeppelin/contracts/access/Ownable.sol\":2357:2375  _transferOwnership */\n      tag_73\n        /* \"@openzeppelin/contracts/access/Ownable.sol\":2357:2387  _transferOwnership(address(0)) */\n      jump\t// in\n    tag_72:\n        /* \"@openzeppelin/contracts/access/Ownable.sol\":2293:2394  function renounceOwnership() public virtual onlyOwner {... */\n      jump\t// out\n        /* \"contracts/Teste.sol\":3315:3609  function withdrawTokens() external onlyOwner {... */\n    tag_26:\n        /* \"@openzeppelin/contracts/access/Ownable.sol\":1531:1544  _checkOwner() */\n      tag_75\n        /* \"@openzeppelin/contracts/access/Ownable.sol\":1531:1542  _checkOwner */\n      tag_56\n        /* \"@openzeppelin/contracts/access/Ownable.sol\":1531:1544  _checkOwner() */\n      jump\t// in\n    tag_75:\n        /* \"contracts/Teste.sol\":3371:3391  uint256 tokenBalance */\n      0x00\n        /* \"contracts/Teste.sol\":3394:3399  token */\n      0x01\n      0x00\n      swap1\n      sload\n      swap1\n      0x0100\n      exp\n      swap1\n      div\n      0xffffffffffffffffffffffffffffffffffffffff\n      and\n        /* \"contracts/Teste.sol\":3394:3409  token.balanceOf */\n      0xffffffffffffffffffffffffffffffffffffffff\n      and\n      0x70a08231\n        /* \"contracts/Teste.sol\":3418:3422  this */\n      address\n        /* \"contracts/Teste.sol\":3394:3424  token.balanceOf(address(this)) */\n      mload(0x40)\n      dup3\n      0xffffffff\n      and\n      0xe0\n      shl\n      dup2\n      mstore\n      0x04\n      add\n      tag_77\n      swap2\n      swap1\n      tag_31\n      jump\t// in\n    tag_77:\n      0x20\n      mload(0x40)\n      dup1\n      dup4\n      sub\n      dup2\n      dup7\n      gas\n      staticcall\n      iszero\n      dup1\n      iszero\n      tag_79\n      jumpi\n      returndatasize\n      0x00\n      dup1\n      returndatacopy\n      revert(0x00, returndatasize)\n    tag_79:\n      pop\n      pop\n      pop\n      pop\n      mload(0x40)\n      returndatasize\n      not(0x1f)\n      0x1f\n      dup3\n      add\n      and\n      dup3\n      add\n      dup1\n      0x40\n      mstore\n      pop\n      dup2\n      add\n      swap1\n      tag_80\n      swap2\n      swap1\n      tag_81\n      jump\t// in\n    tag_80:\n        /* \"contracts/Teste.sol\":3371:3424  uint256 tokenBalance = token.balanceOf(address(this)) */\n      swap1\n      pop\n        /* \"contracts/Teste.sol\":3454:3455  0 */\n      0x00\n        /* \"contracts/Teste.sol\":3439:3451  tokenBalance */\n      dup2\n        /* \"contracts/Teste.sol\":3439:3455  tokenBalance > 0 */\n      gt\n        /* \"contracts/Teste.sol\":3435:3602  if (tokenBalance > 0) {... */\n      iszero\n      tag_82\n      jumpi\n        /* \"contracts/Teste.sol\":3472:3481  bool sent */\n      0x00\n        /* \"contracts/Teste.sol\":3484:3489  token */\n      0x01\n      0x00\n      swap1\n      sload\n      swap1\n      0x0100\n      exp\n      swap1\n      div\n      0xffffffffffffffffffffffffffffffffffffffff\n      and\n        /* \"contracts/Teste.sol\":3484:3498  token.transfer */\n      0xffffffffffffffffffffffffffffffffffffffff\n      and\n      0xa9059cbb\n        /* \"contracts/Teste.sol\":3499:3509  msg.sender */\n      caller\n        /* \"contracts/Teste.sol\":3511:3523  tokenBalance */\n      dup5\n        /* \"contracts/Teste.sol\":3484:3524  token.transfer(msg.sender, tokenBalance) */\n      mload(0x40)\n      dup4\n      0xffffffff\n      and\n      0xe0\n      shl\n      dup2\n      mstore\n      0x04\n      add\n      tag_83\n      swap3\n      swap2\n      swap1\n      tag_84\n      jump\t// in\n    tag_83:\n      0x20\n      mload(0x40)\n      dup1\n      dup4\n      sub\n      dup2\n      0x00\n      dup8\n      gas\n      call\n      iszero\n      dup1\n      iszero\n      tag_86\n      jumpi\n      returndatasize\n      0x00\n      dup1\n      returndatacopy\n      revert(0x00, returndatasize)\n    tag_86:\n      pop\n      pop\n      pop\n      pop\n      mload(0x40)\n      returndatasize\n      not(0x1f)\n      0x1f\n      dup3\n      add\n      and\n      dup3\n      add\n      dup1\n      0x40\n      mstore\n      pop\n      dup2\n      add\n      swap1\n      tag_87\n      swap2\n      swap1\n      tag_88\n      jump\t// in\n    tag_87:\n        /* \"contracts/Teste.sol\":3472:3524  bool sent = token.transfer(msg.sender, tokenBalance) */\n      swap1\n      pop\n        /* \"contracts/Teste.sol\":3547:3551  sent */\n      dup1\n        /* \"contracts/Teste.sol\":3539:3590  require(sent, \"Failed to send tokens to the owner\") */\n      tag_89\n      jumpi\n      mload(0x40)\n      0x08c379a000000000000000000000000000000000000000000000000000000000\n      dup2\n      mstore\n      0x04\n      add\n      tag_90\n      swap1\n      tag_91\n      jump\t// in\n    tag_90:\n      mload(0x40)\n      dup1\n      swap2\n      sub\n      swap1\n      revert\n    tag_89:\n        /* \"contracts/Teste.sol\":3457:3602  {... */\n      pop\n        /* \"contracts/Teste.sol\":3435:3602  if (tokenBalance > 0) {... */\n    tag_82:\n        /* \"contracts/Teste.sol\":3360:3609  {... */\n      pop\n        /* \"contracts/Teste.sol\":3315:3609  function withdrawTokens() external onlyOwner {... */\n      jump\t// out\n        /* \"@openzeppelin/contracts/access/Ownable.sol\":1638:1723  function owner() public view virtual returns (address) {... */\n    tag_29:\n        /* \"@openzeppelin/contracts/access/Ownable.sol\":1684:1691  address */\n      0x00\n        /* \"@openzeppelin/contracts/access/Ownable.sol\":1710:1716  _owner */\n      dup1\n      0x00\n      swap1\n      sload\n      swap1\n      0x0100\n      exp\n      swap1\n      div\n      0xffffffffffffffffffffffffffffffffffffffff\n      and\n        /* \"@openzeppelin/contracts/access/Ownable.sol\":1703:1716  return _owner */\n      swap1\n      pop\n        /* \"@openzeppelin/contracts/access/Ownable.sol\":1638:1723  function owner() public view virtual returns (address) {... */\n      swap1\n      jump\t// out\n        /* \"contracts/Teste.sol\":3135:3240  function updateExchangeRate(uint256 newRate) external onlyOwner {... */\n    tag_36:\n        /* \"@openzeppelin/contracts/access/Ownable.sol\":1531:1544  _checkOwner() */\n      tag_94\n        /* \"@openzeppelin/contracts/access/Ownable.sol\":1531:1542  _checkOwner */\n      tag_56\n        /* \"@openzeppelin/contracts/access/Ownable.sol\":1531:1544  _checkOwner() */\n      jump\t// in\n    tag_94:\n        /* \"contracts/Teste.sol\":3225:3232  newRate */\n      dup1\n        /* \"contracts/Teste.sol\":3210:3222  exchangeRate */\n      0x02\n        /* \"contracts/Teste.sol\":3210:3232  exchangeRate = newRate */\n      dup2\n      swap1\n      sstore\n      pop\n        /* \"contracts/Teste.sol\":3135:3240  function updateExchangeRate(uint256 newRate) external onlyOwner {... */\n      pop\n      jump\t// out\n        /* \"contracts/Teste.sol\":845:1593  function buyTokens() public payable returns (uint256 tokenAmount) {... */\n    tag_38:\n        /* \"contracts/Teste.sol\":890:909  uint256 tokenAmount */\n      0x00\n        /* \"contracts/Teste.sol\":942:943  0 */\n      dup1\n        /* \"contracts/Teste.sol\":930:939  msg.value */\n      callvalue\n        /* \"contracts/Teste.sol\":930:943  msg.value > 0 */\n      gt\n        /* \"contracts/Teste.sol\":922:977  require(msg.value > 0, \"Send Ether to buy some tokens\") */\n      tag_97\n      jumpi\n      mload(0x40)\n      0x08c379a000000000000000000000000000000000000000000000000000000000\n      dup2\n      mstore\n      0x04\n      add\n      tag_98\n      swap1\n      tag_99\n      jump\t// in\n    tag_98:\n      mload(0x40)\n      dup1\n      swap2\n      sub\n      swap1\n      revert\n    tag_97:\n        /* \"contracts/Teste.sol\":990:1009  uint256 amountToBuy */\n      0x00\n        /* \"contracts/Teste.sol\":1041:1045  1e18 */\n      0x0de0b6b3a7640000\n        /* \"contracts/Teste.sol\":1025:1037  exchangeRate */\n      sload(0x02)\n        /* \"contracts/Teste.sol\":1013:1022  msg.value */\n      callvalue\n        /* \"contracts/Teste.sol\":1013:1037  msg.value * exchangeRate */\n      tag_100\n      swap2\n      swap1\n      tag_101\n      jump\t// in\n    tag_100:\n        /* \"contracts/Teste.sol\":1012:1045  (msg.value * exchangeRate) / 1e18 */\n      tag_102\n      swap2\n      swap1\n      tag_103\n      jump\t// in\n    tag_102:\n        /* \"contracts/Teste.sol\":990:1045  uint256 amountToBuy = (msg.value * exchangeRate) / 1e18 */\n      swap1\n      pop\n        /* \"contracts/Teste.sol\":1137:1158  uint256 vendorBalance */\n      0x00\n        /* \"contracts/Teste.sol\":1161:1166  token */\n      0x01\n      0x00\n      swap1\n      sload\n      swap1\n      0x0100\n      exp\n      swap1\n      div\n      0xffffffffffffffffffffffffffffffffffffffff\n      and\n        /* \"contracts/Teste.sol\":1161:1176  token.balanceOf */\n      0xffffffffffffffffffffffffffffffffffffffff\n      and\n      0x70a08231\n        /* \"contracts/Teste.sol\":1185:1189  this */\n      address\n        /* \"contracts/Teste.sol\":1161:1191  token.balanceOf(address(this)) */\n      mload(0x40)\n      dup3\n      0xffffffff\n      and\n      0xe0\n      shl\n      dup2\n      mstore\n      0x04\n      add\n      tag_104\n      swap2\n      swap1\n      tag_31\n      jump\t// in\n    tag_104:\n      0x20\n      mload(0x40)\n      dup1\n      dup4\n      sub\n      dup2\n      dup7\n      gas\n      staticcall\n      iszero\n      dup1\n      iszero\n      tag_106\n      jumpi\n      returndatasize\n      0x00\n      dup1\n      returndatacopy\n      revert(0x00, returndatasize)\n    tag_106:\n      pop\n      pop\n      pop\n      pop\n      mload(0x40)\n      returndatasize\n      not(0x1f)\n      0x1f\n      dup3\n      add\n      and\n      dup3\n      add\n      dup1\n      0x40\n      mstore\n      pop\n      dup2\n      add\n      swap1\n      tag_107\n      swap2\n      swap1\n      tag_81\n      jump\t// in\n    tag_107:\n        /* \"contracts/Teste.sol\":1137:1191  uint256 vendorBalance = token.balanceOf(address(this)) */\n      swap1\n      pop\n        /* \"contracts/Teste.sol\":1227:1238  amountToBuy */\n      dup2\n        /* \"contracts/Teste.sol\":1210:1223  vendorBalance */\n      dup2\n        /* \"contracts/Teste.sol\":1210:1238  vendorBalance >= amountToBuy */\n      lt\n      iszero\n        /* \"contracts/Teste.sol\":1202:1295  require(vendorBalance >= amountToBuy, \"Vendor contract has not enough tokens in its balance\") */\n      tag_108\n      jumpi\n      mload(0x40)\n      0x08c379a000000000000000000000000000000000000000000000000000000000\n      dup2\n      mstore\n      0x04\n      add\n      tag_109\n      swap1\n      tag_110\n      jump\t// in\n    tag_109:\n      mload(0x40)\n      dup1\n      swap2\n      sub\n      swap1\n      revert\n    tag_108:\n        /* \"contracts/Teste.sol\":1353:1362  bool sent */\n      0x00\n        /* \"contracts/Teste.sol\":1365:1370  token */\n      0x01\n      0x00\n      swap1\n      sload\n      swap1\n      0x0100\n      exp\n      swap1\n      div\n      0xffffffffffffffffffffffffffffffffffffffff\n      and\n        /* \"contracts/Teste.sol\":1365:1379  token.transfer */\n      0xffffffffffffffffffffffffffffffffffffffff\n      and\n      0xa9059cbb\n        /* \"contracts/Teste.sol\":1380:1390  msg.sender */\n      caller\n        /* \"contracts/Teste.sol\":1392:1403  amountToBuy */\n      dup6\n        /* \"contracts/Teste.sol\":1365:1404  token.transfer(msg.sender, amountToBuy) */\n      mload(0x40)\n      dup4\n      0xffffffff\n      and\n      0xe0\n      shl\n      dup2\n      mstore\n      0x04\n      add\n      tag_111\n      swap3\n      swap2\n      swap1\n      tag_84\n      jump\t// in\n    tag_111:\n      0x20\n      mload(0x40)\n      dup1\n      dup4\n      sub\n      dup2\n      0x00\n      dup8\n      gas\n      call\n      iszero\n      dup1\n      iszero\n      tag_113\n      jumpi\n      returndatasize\n      0x00\n      dup1\n      returndatacopy\n      revert(0x00, returndatasize)\n    tag_113:\n      pop\n      pop\n      pop\n      pop\n      mload(0x40)\n      returndatasize\n      not(0x1f)\n      0x1f\n      dup3\n      add\n      and\n      dup3\n      add\n      dup1\n      0x40\n      mstore\n      pop\n      dup2\n      add\n      swap1\n      tag_114\n      swap2\n      swap1\n      tag_88\n      jump\t// in\n    tag_114:\n        /* \"contracts/Teste.sol\":1353:1404  bool sent = token.transfer(msg.sender, amountToBuy) */\n      swap1\n      pop\n        /* \"contracts/Teste.sol\":1423:1427  sent */\n      dup1\n        /* \"contracts/Teste.sol\":1415:1464  require(sent, \"Failed to transfer token to user\") */\n      tag_115\n      jumpi\n      mload(0x40)\n      0x08c379a000000000000000000000000000000000000000000000000000000000\n      dup2\n      mstore\n      0x04\n      add\n      tag_116\n      swap1\n      tag_117\n      jump\t// in\n    tag_116:\n      mload(0x40)\n      dup1\n      swap2\n      sub\n      swap1\n      revert\n    tag_115:\n        /* \"contracts/Teste.sol\":1519:1529  msg.sender */\n      caller\n        /* \"contracts/Teste.sol\":1509:1554  BuyTokens(msg.sender, msg.value, amountToBuy) */\n      0xffffffffffffffffffffffffffffffffffffffff\n      and\n      0x0a37b72bb67eee30e09084cf386f8a17817c57f620c3ab95fb25d6a20356ec77\n        /* \"contracts/Teste.sol\":1531:1540  msg.value */\n      callvalue\n        /* \"contracts/Teste.sol\":1542:1553  amountToBuy */\n      dup6\n        /* \"contracts/Teste.sol\":1509:1554  BuyTokens(msg.sender, msg.value, amountToBuy) */\n      mload(0x40)\n      tag_118\n      swap3\n      swap2\n      swap1\n      tag_119\n      jump\t// in\n    tag_118:\n      mload(0x40)\n      dup1\n      swap2\n      sub\n      swap1\n      log2\n        /* \"contracts/Teste.sol\":1574:1585  amountToBuy */\n      dup3\n        /* \"contracts/Teste.sol\":1567:1585  return amountToBuy */\n      swap4\n      pop\n      pop\n      pop\n      pop\n        /* \"contracts/Teste.sol\":845:1593  function buyTokens() public payable returns (uint256 tokenAmount) {... */\n      swap1\n      jump\t// out\n        /* \"@openzeppelin/contracts/access/Ownable.sol\":2543:2758  function transferOwnership(address newOwner) public virtual onlyOwner {... */\n    tag_44:\n        /* \"@openzeppelin/contracts/access/Ownable.sol\":1531:1544  _checkOwner() */\n      tag_121\n        /* \"@openzeppelin/contracts/access/Ownable.sol\":1531:1542  _checkOwner */\n      tag_56\n        /* \"@openzeppelin/contracts/access/Ownable.sol\":1531:1544  _checkOwner() */\n      jump\t// in\n    tag_121:\n        /* \"@openzeppelin/contracts/access/Ownable.sol\":2647:2648  0 */\n      0x00\n        /* \"@openzeppelin/contracts/access/Ownable.sol\":2627:2649  newOwner == address(0) */\n      0xffffffffffffffffffffffffffffffffffffffff\n      and\n        /* \"@openzeppelin/contracts/access/Ownable.sol\":2627:2635  newOwner */\n      dup2\n        /* \"@openzeppelin/contracts/access/Ownable.sol\":2627:2649  newOwner == address(0) */\n      0xffffffffffffffffffffffffffffffffffffffff\n      and\n      sub\n        /* \"@openzeppelin/contracts/access/Ownable.sol\":2623:2714  if (newOwner == address(0)) {... */\n      tag_123\n      jumpi\n        /* \"@openzeppelin/contracts/access/Ownable.sol\":2700:2701  0 */\n      0x00\n        /* \"@openzeppelin/contracts/access/Ownable.sol\":2672:2703  OwnableInvalidOwner(address(0)) */\n      mload(0x40)\n      0x1e4fbdf700000000000000000000000000000000000000000000000000000000\n      dup2\n      mstore\n      0x04\n      add\n      tag_124\n      swap2\n      swap1\n      tag_31\n      jump\t// in\n    tag_124:\n      mload(0x40)\n      dup1\n      swap2\n      sub\n      swap1\n      revert\n        /* \"@openzeppelin/contracts/access/Ownable.sol\":2623:2714  if (newOwner == address(0)) {... */\n    tag_123:\n        /* \"@openzeppelin/contracts/access/Ownable.sol\":2723:2751  _transferOwnership(newOwner) */\n      tag_125\n        /* \"@openzeppelin/contracts/access/Ownable.sol\":2742:2750  newOwner */\n      dup2\n        /* \"@openzeppelin/contracts/access/Ownable.sol\":2723:2741  _transferOwnership */\n      tag_73\n        /* \"@openzeppelin/contracts/access/Ownable.sol\":2723:2751  _transferOwnership(newOwner) */\n      jump\t// in\n    tag_125:\n        /* \"@openzeppelin/contracts/access/Ownable.sol\":2543:2758  function transferOwnership(address newOwner) public virtual onlyOwner {... */\n      pop\n      jump\t// out\n        /* \"contracts/Teste.sol\":237:256  IERC20 public token */\n    tag_47:\n      0x01\n      0x00\n      swap1\n      sload\n      swap1\n      0x0100\n      exp\n      swap1\n      div\n      0xffffffffffffffffffffffffffffffffffffffff\n      and\n      dup2\n      jump\t// out\n        /* \"contracts/Teste.sol\":1670:2669  function swapTokens(uint256 amountOfToken) external {... */\n    tag_53:\n        /* \"contracts/Teste.sol\":1757:1758  0 */\n      0x00\n        /* \"contracts/Teste.sol\":1741:1754  amountOfToken */\n      dup2\n        /* \"contracts/Teste.sol\":1741:1758  amountOfToken > 0 */\n      gt\n        /* \"contracts/Teste.sol\":1733:1805  require(amountOfToken > 0, \"Amount of tokens must be greater than zero\") */\n      tag_127\n      jumpi\n      mload(0x40)\n      0x08c379a000000000000000000000000000000000000000000000000000000000\n      dup2\n      mstore\n      0x04\n      add\n      tag_128\n      swap1\n      tag_129\n      jump\t// in\n    tag_128:\n      mload(0x40)\n      dup1\n      swap2\n      sub\n      swap1\n      revert\n    tag_127:\n        /* \"contracts/Teste.sol\":1877:1898  uint256 amountInEther */\n      0x00\n        /* \"contracts/Teste.sol\":1926:1938  exchangeRate */\n      sload(0x02)\n        /* \"contracts/Teste.sol\":1918:1922  1e18 */\n      0x0de0b6b3a7640000\n        /* \"contracts/Teste.sol\":1902:1915  amountOfToken */\n      dup4\n        /* \"contracts/Teste.sol\":1902:1922  amountOfToken * 1e18 */\n      tag_130\n      swap2\n      swap1\n      tag_101\n      jump\t// in\n    tag_130:\n        /* \"contracts/Teste.sol\":1901:1938  (amountOfToken * 1e18) / exchangeRate */\n      tag_131\n      swap2\n      swap1\n      tag_103\n      jump\t// in\n    tag_131:\n        /* \"contracts/Teste.sol\":1877:1938  uint256 amountInEther = (amountOfToken * 1e18) / exchangeRate */\n      swap1\n      pop\n        /* \"contracts/Teste.sol\":2029:2052  uint256 contractBalance */\n      0x00\n        /* \"contracts/Teste.sol\":2055:2076  address(this).balance */\n      selfbalance\n        /* \"contracts/Teste.sol\":2029:2076  uint256 contractBalance = address(this).balance */\n      swap1\n      pop\n        /* \"contracts/Teste.sol\":2114:2127  amountInEther */\n      dup2\n        /* \"contracts/Teste.sol\":2095:2110  contractBalance */\n      dup2\n        /* \"contracts/Teste.sol\":2095:2127  contractBalance >= amountInEther */\n      lt\n      iszero\n        /* \"contracts/Teste.sol\":2087:2174  require(contractBalance >= amountInEther, \"Vendor contract does not have enough Ether\") */\n      tag_132\n      jumpi\n      mload(0x40)\n      0x08c379a000000000000000000000000000000000000000000000000000000000\n      dup2\n      mstore\n      0x04\n      add\n      tag_133\n      swap1\n      tag_134\n      jump\t// in\n    tag_133:\n      mload(0x40)\n      dup1\n      swap2\n      sub\n      swap1\n      revert\n    tag_132:\n        /* \"contracts/Teste.sol\":2252:2265  bool received */\n      0x00\n        /* \"contracts/Teste.sol\":2268:2273  token */\n      0x01\n      0x00\n      swap1\n      sload\n      swap1\n      0x0100\n      exp\n      swap1\n      div\n      0xffffffffffffffffffffffffffffffffffffffff\n      and\n        /* \"contracts/Teste.sol\":2268:2286  token.transferFrom */\n      0xffffffffffffffffffffffffffffffffffffffff\n      and\n      0x23b872dd\n        /* \"contracts/Teste.sol\":2287:2297  msg.sender */\n      caller\n        /* \"contracts/Teste.sol\":2307:2311  this */\n      address\n        /* \"contracts/Teste.sol\":2314:2327  amountOfToken */\n      dup8\n        /* \"contracts/Teste.sol\":2268:2328  token.transferFrom(msg.sender, address(this), amountOfToken) */\n      mload(0x40)\n      dup5\n      0xffffffff\n      and\n      0xe0\n      shl\n      dup2\n      mstore\n      0x04\n      add\n      tag_135\n      swap4\n      swap3\n      swap2\n      swap1\n      tag_136\n      jump\t// in\n    tag_135:\n      0x20\n      mload(0x40)\n      dup1\n      dup4\n      sub\n      dup2\n      0x00\n      dup8\n      gas\n      call\n      iszero\n      dup1\n      iszero\n      tag_138\n      jumpi\n      returndatasize\n      0x00\n      dup1\n      returndatacopy\n      revert(0x00, returndatasize)\n    tag_138:\n      pop\n      pop\n      pop\n      pop\n      mload(0x40)\n      returndatasize\n      not(0x1f)\n      0x1f\n      dup3\n      add\n      and\n      dup3\n      add\n      dup1\n      0x40\n      mstore\n      pop\n      dup2\n      add\n      swap1\n      tag_139\n      swap2\n      swap1\n      tag_88\n      jump\t// in\n    tag_139:\n        /* \"contracts/Teste.sol\":2252:2328  bool received = token.transferFrom(msg.sender, address(this), amountOfToken) */\n      swap1\n      pop\n        /* \"contracts/Teste.sol\":2347:2355  received */\n      dup1\n        /* \"contracts/Teste.sol\":2339:2401  require(received, \"Failed to transfer tokens to the contract\") */\n      tag_140\n      jumpi\n      mload(0x40)\n      0x08c379a000000000000000000000000000000000000000000000000000000000\n      dup2\n      mstore\n      0x04\n      add\n      tag_141\n      swap1\n      tag_142\n      jump\t// in\n    tag_141:\n      mload(0x40)\n      dup1\n      swap2\n      sub\n      swap1\n      revert\n    tag_140:\n        /* \"contracts/Teste.sol\":2454:2463  bool sent */\n      0x00\n        /* \"contracts/Teste.sol\":2469:2479  msg.sender */\n      caller\n        /* \"contracts/Teste.sol\":2469:2484  msg.sender.call */\n      0xffffffffffffffffffffffffffffffffffffffff\n      and\n        /* \"contracts/Teste.sol\":2492:2505  amountInEther */\n      dup5\n        /* \"contracts/Teste.sol\":2469:2510  msg.sender.call{value: amountInEther}(\"\") */\n      mload(0x40)\n      tag_143\n      swap1\n      tag_62\n      jump\t// in\n    tag_143:\n      0x00\n      mload(0x40)\n      dup1\n      dup4\n      sub\n      dup2\n      dup6\n      dup8\n      gas\n      call\n      swap3\n      pop\n      pop\n      pop\n      returndatasize\n      dup1\n      0x00\n      dup2\n      eq\n      tag_146\n      jumpi\n      mload(0x40)\n      swap2\n      pop\n      and(add(returndatasize, 0x3f), not(0x1f))\n      dup3\n      add\n      0x40\n      mstore\n      returndatasize\n      dup3\n      mstore\n      returndatasize\n      0x00\n      0x20\n      dup5\n      add\n      returndatacopy\n      jump(tag_145)\n    tag_146:\n      0x60\n      swap2\n      pop\n    tag_145:\n      pop\n        /* \"contracts/Teste.sol\":2453:2510  (bool sent, ) = msg.sender.call{value: amountInEther}(\"\") */\n      pop\n      swap1\n      pop\n        /* \"contracts/Teste.sol\":2529:2533  sent */\n      dup1\n        /* \"contracts/Teste.sol\":2521:2570  require(sent, \"Failed to send Ether to the user\") */\n      tag_147\n      jumpi\n      mload(0x40)\n      0x08c379a000000000000000000000000000000000000000000000000000000000\n      dup2\n      mstore\n      0x04\n      add\n      tag_148\n      swap1\n      tag_149\n      jump\t// in\n    tag_148:\n      mload(0x40)\n      dup1\n      swap2\n      sub\n      swap1\n      revert\n    tag_147:\n        /* \"contracts/Teste.sol\":2620:2630  msg.sender */\n      caller\n        /* \"contracts/Teste.sol\":2615:2661  Swap(msg.sender, amountOfToken, amountInEther) */\n      0xffffffffffffffffffffffffffffffffffffffff\n      and\n      0x77f92a1b6a1a11de8ca49515ad4c1fad45632dd3442167d74b90b304a3c7a758\n        /* \"contracts/Teste.sol\":2632:2645  amountOfToken */\n      dup7\n        /* \"contracts/Teste.sol\":2647:2660  amountInEther */\n      dup7\n        /* \"contracts/Teste.sol\":2615:2661  Swap(msg.sender, amountOfToken, amountInEther) */\n      mload(0x40)\n      tag_150\n      swap3\n      swap2\n      swap1\n      tag_119\n      jump\t// in\n    tag_150:\n      mload(0x40)\n      dup1\n      swap2\n      sub\n      swap1\n      log2\n        /* \"contracts/Teste.sol\":1722:2669  {... */\n      pop\n      pop\n      pop\n      pop\n        /* \"contracts/Teste.sol\":1670:2669  function swapTokens(uint256 amountOfToken) external {... */\n      pop\n      jump\t// out\n        /* \"@openzeppelin/contracts/access/Ownable.sol\":1796:1958  function _checkOwner() internal view virtual {... */\n    tag_56:\n        /* \"@openzeppelin/contracts/access/Ownable.sol\":1866:1878  _msgSender() */\n      tag_152\n        /* \"@openzeppelin/contracts/access/Ownable.sol\":1866:1876  _msgSender */\n      tag_153\n        /* \"@openzeppelin/contracts/access/Ownable.sol\":1866:1878  _msgSender() */\n      jump\t// in\n    tag_152:\n        /* \"@openzeppelin/contracts/access/Ownable.sol\":1855:1878  owner() != _msgSender() */\n      0xffffffffffffffffffffffffffffffffffffffff\n      and\n        /* \"@openzeppelin/contracts/access/Ownable.sol\":1855:1862  owner() */\n      tag_154\n        /* \"@openzeppelin/contracts/access/Ownable.sol\":1855:1860  owner */\n      tag_29\n        /* \"@openzeppelin/contracts/access/Ownable.sol\":1855:1862  owner() */\n      jump\t// in\n    tag_154:\n        /* \"@openzeppelin/contracts/access/Ownable.sol\":1855:1878  owner() != _msgSender() */\n      0xffffffffffffffffffffffffffffffffffffffff\n      and\n      eq\n        /* \"@openzeppelin/contracts/access/Ownable.sol\":1851:1952  if (owner() != _msgSender()) {... */\n      tag_155\n      jumpi\n        /* \"@openzeppelin/contracts/access/Ownable.sol\":1928:1940  _msgSender() */\n      tag_156\n        /* \"@openzeppelin/contracts/access/Ownable.sol\":1928:1938  _msgSender */\n      tag_153\n        /* \"@openzeppelin/contracts/access/Ownable.sol\":1928:1940  _msgSender() */\n      jump\t// in\n    tag_156:\n        /* \"@openzeppelin/contracts/access/Ownable.sol\":1901:1941  OwnableUnauthorizedAccount(_msgSender()) */\n      mload(0x40)\n      0x118cdaa700000000000000000000000000000000000000000000000000000000\n      dup2\n      mstore\n      0x04\n      add\n      tag_157\n      swap2\n      swap1\n      tag_31\n      jump\t// in\n    tag_157:\n      mload(0x40)\n      dup1\n      swap2\n      sub\n      swap1\n      revert\n        /* \"@openzeppelin/contracts/access/Ownable.sol\":1851:1952  if (owner() != _msgSender()) {... */\n    tag_155:\n        /* \"@openzeppelin/contracts/access/Ownable.sol\":1796:1958  function _checkOwner() internal view virtual {... */\n      jump\t// out\n        /* \"@openzeppelin/contracts/access/Ownable.sol\":2912:3099  function _transferOwnership(address newOwner) internal virtual {... */\n    tag_73:\n        /* \"@openzeppelin/contracts/access/Ownable.sol\":2985:3001  address oldOwner */\n      0x00\n        /* \"@openzeppelin/contracts/access/Ownable.sol\":3004:3010  _owner */\n      dup1\n      0x00\n      swap1\n      sload\n      swap1\n      0x0100\n      exp\n      swap1\n      div\n      0xffffffffffffffffffffffffffffffffffffffff\n      and\n        /* \"@openzeppelin/contracts/access/Ownable.sol\":2985:3010  address oldOwner = _owner */\n      swap1\n      pop\n        /* \"@openzeppelin/contracts/access/Ownable.sol\":3029:3037  newOwner */\n      dup2\n        /* \"@openzeppelin/contracts/access/Ownable.sol\":3020:3026  _owner */\n      0x00\n      dup1\n        /* \"@openzeppelin/contracts/access/Ownable.sol\":3020:3037  _owner = newOwner */\n      0x0100\n      exp\n      dup2\n      sload\n      dup2\n      0xffffffffffffffffffffffffffffffffffffffff\n      mul\n      not\n      and\n      swap1\n      dup4\n      0xffffffffffffffffffffffffffffffffffffffff\n      and\n      mul\n      or\n      swap1\n      sstore\n      pop\n        /* \"@openzeppelin/contracts/access/Ownable.sol\":3083:3091  newOwner */\n      dup2\n        /* \"@openzeppelin/contracts/access/Ownable.sol\":3052:3092  OwnershipTransferred(oldOwner, newOwner) */\n      0xffffffffffffffffffffffffffffffffffffffff\n      and\n        /* \"@openzeppelin/contracts/access/Ownable.sol\":3073:3081  oldOwner */\n      dup2\n        /* \"@openzeppelin/contracts/access/Ownable.sol\":3052:3092  OwnershipTransferred(oldOwner, newOwner) */\n      0xffffffffffffffffffffffffffffffffffffffff\n      and\n      0x8be0079c531659141344cd1fd0a4f28419497f9722a3daafe3b4186f6b6457e0\n      mload(0x40)\n      mload(0x40)\n      dup1\n      swap2\n      sub\n      swap1\n      log3\n        /* \"@openzeppelin/contracts/access/Ownable.sol\":2975:3099  {... */\n      pop\n        /* \"@openzeppelin/contracts/access/Ownable.sol\":2912:3099  function _transferOwnership(address newOwner) internal virtual {... */\n      pop\n      jump\t// out\n        /* \"@openzeppelin/contracts/utils/Context.sol\":656:752  function _msgSender() internal view virtual returns (address) {... */\n    tag_153:\n        /* \"@openzeppelin/contracts/utils/Context.sol\":709:716  address */\n      0x00\n        /* \"@openzeppelin/contracts/utils/Context.sol\":735:745  msg.sender */\n      caller\n        /* \"@openzeppelin/contracts/utils/Context.sol\":728:745  return msg.sender */\n      swap1\n      pop\n        /* \"@openzeppelin/contracts/utils/Context.sol\":656:752  function _msgSender() internal view virtual returns (address) {... */\n      swap1\n      jump\t// out\n        /* \"#utility.yul\":7:84   */\n    tag_160:\n        /* \"#utility.yul\":44:51   */\n      0x00\n        /* \"#utility.yul\":73:78   */\n      dup2\n        /* \"#utility.yul\":62:78   */\n      swap1\n      pop\n        /* \"#utility.yul\":7:84   */\n      swap2\n      swap1\n      pop\n      jump\t// out\n        /* \"#utility.yul\":90:208   */\n    tag_161:\n        /* \"#utility.yul\":177:201   */\n      tag_210\n        /* \"#utility.yul\":195:200   */\n      dup2\n        /* \"#utility.yul\":177:201   */\n      tag_160\n      jump\t// in\n    tag_210:\n        /* \"#utility.yul\":172:175   */\n      dup3\n        /* \"#utility.yul\":165:202   */\n      mstore\n        /* \"#utility.yul\":90:208   */\n      pop\n      pop\n      jump\t// out\n        /* \"#utility.yul\":214:436   */\n    tag_17:\n        /* \"#utility.yul\":307:311   */\n      0x00\n        /* \"#utility.yul\":345:347   */\n      0x20\n        /* \"#utility.yul\":334:343   */\n      dup3\n        /* \"#utility.yul\":330:348   */\n      add\n        /* \"#utility.yul\":322:348   */\n      swap1\n      pop\n        /* \"#utility.yul\":358:429   */\n      tag_212\n        /* \"#utility.yul\":426:427   */\n      0x00\n        /* \"#utility.yul\":415:424   */\n      dup4\n        /* \"#utility.yul\":411:428   */\n      add\n        /* \"#utility.yul\":402:408   */\n      dup5\n        /* \"#utility.yul\":358:429   */\n      tag_161\n      jump\t// in\n    tag_212:\n        /* \"#utility.yul\":214:436   */\n      swap3\n      swap2\n      pop\n      pop\n      jump\t// out\n        /* \"#utility.yul\":442:568   */\n    tag_162:\n        /* \"#utility.yul\":479:486   */\n      0x00\n        /* \"#utility.yul\":519:561   */\n      0xffffffffffffffffffffffffffffffffffffffff\n        /* \"#utility.yul\":512:517   */\n      dup3\n        /* \"#utility.yul\":508:562   */\n      and\n        /* \"#utility.yul\":497:562   */\n      swap1\n      pop\n        /* \"#utility.yul\":442:568   */\n      swap2\n      swap1\n      pop\n      jump\t// out\n        /* \"#utility.yul\":574:670   */\n    tag_163:\n        /* \"#utility.yul\":611:618   */\n      0x00\n        /* \"#utility.yul\":640:664   */\n      tag_215\n        /* \"#utility.yul\":658:663   */\n      dup3\n        /* \"#utility.yul\":640:664   */\n      tag_162\n      jump\t// in\n    tag_215:\n        /* \"#utility.yul\":629:664   */\n      swap1\n      pop\n        /* \"#utility.yul\":574:670   */\n      swap2\n      swap1\n      pop\n      jump\t// out\n        /* \"#utility.yul\":676:794   */\n    tag_164:\n        /* \"#utility.yul\":763:787   */\n      tag_217\n        /* \"#utility.yul\":781:786   */\n      dup2\n        /* \"#utility.yul\":763:787   */\n      tag_163\n      jump\t// in\n    tag_217:\n        /* \"#utility.yul\":758:761   */\n      dup3\n        /* \"#utility.yul\":751:788   */\n      mstore\n        /* \"#utility.yul\":676:794   */\n      pop\n      pop\n      jump\t// out\n        /* \"#utility.yul\":800:1022   */\n    tag_31:\n        /* \"#utility.yul\":893:897   */\n      0x00\n        /* \"#utility.yul\":931:933   */\n      0x20\n        /* \"#utility.yul\":920:929   */\n      dup3\n        /* \"#utility.yul\":916:934   */\n      add\n        /* \"#utility.yul\":908:934   */\n      swap1\n      pop\n        /* \"#utility.yul\":944:1015   */\n      tag_219\n        /* \"#utility.yul\":1012:1013   */\n      0x00\n        /* \"#utility.yul\":1001:1010   */\n      dup4\n        /* \"#utility.yul\":997:1014   */\n      add\n        /* \"#utility.yul\":988:994   */\n      dup5\n        /* \"#utility.yul\":944:1015   */\n      tag_164\n      jump\t// in\n    tag_219:\n        /* \"#utility.yul\":800:1022   */\n      swap3\n      swap2\n      pop\n      pop\n      jump\t// out\n        /* \"#utility.yul\":1109:1226   */\n    tag_166:\n        /* \"#utility.yul\":1218:1219   */\n      0x00\n        /* \"#utility.yul\":1215:1216   */\n      dup1\n        /* \"#utility.yul\":1208:1220   */\n      revert\n        /* \"#utility.yul\":1355:1477   */\n    tag_168:\n        /* \"#utility.yul\":1428:1452   */\n      tag_224\n        /* \"#utility.yul\":1446:1451   */\n      dup2\n        /* \"#utility.yul\":1428:1452   */\n      tag_160\n      jump\t// in\n    tag_224:\n        /* \"#utility.yul\":1421:1426   */\n      dup2\n        /* \"#utility.yul\":1418:1453   */\n      eq\n        /* \"#utility.yul\":1408:1471   */\n      tag_225\n      jumpi\n        /* \"#utility.yul\":1467:1468   */\n      0x00\n        /* \"#utility.yul\":1464:1465   */\n      dup1\n        /* \"#utility.yul\":1457:1469   */\n      revert\n        /* \"#utility.yul\":1408:1471   */\n    tag_225:\n        /* \"#utility.yul\":1355:1477   */\n      pop\n      jump\t// out\n        /* \"#utility.yul\":1483:1622   */\n    tag_169:\n        /* \"#utility.yul\":1529:1534   */\n      0x00\n        /* \"#utility.yul\":1567:1573   */\n      dup2\n        /* \"#utility.yul\":1554:1574   */\n      calldataload\n        /* \"#utility.yul\":1545:1574   */\n      swap1\n      pop\n        /* \"#utility.yul\":1583:1616   */\n      tag_227\n        /* \"#utility.yul\":1610:1615   */\n      dup2\n        /* \"#utility.yul\":1583:1616   */\n      tag_168\n      jump\t// in\n    tag_227:\n        /* \"#utility.yul\":1483:1622   */\n      swap3\n      swap2\n      pop\n      pop\n      jump\t// out\n        /* \"#utility.yul\":1628:1957   */\n    tag_35:\n        /* \"#utility.yul\":1687:1693   */\n      0x00\n        /* \"#utility.yul\":1736:1738   */\n      0x20\n        /* \"#utility.yul\":1724:1733   */\n      dup3\n        /* \"#utility.yul\":1715:1722   */\n      dup5\n        /* \"#utility.yul\":1711:1734   */\n      sub\n        /* \"#utility.yul\":1707:1739   */\n      slt\n        /* \"#utility.yul\":1704:1823   */\n      iszero\n      tag_229\n      jumpi\n        /* \"#utility.yul\":1742:1821   */\n      tag_230\n      tag_166\n      jump\t// in\n    tag_230:\n        /* \"#utility.yul\":1704:1823   */\n    tag_229:\n        /* \"#utility.yul\":1862:1863   */\n      0x00\n        /* \"#utility.yul\":1887:1940   */\n      tag_231\n        /* \"#utility.yul\":1932:1939   */\n      dup5\n        /* \"#utility.yul\":1923:1929   */\n      dup3\n        /* \"#utility.yul\":1912:1921   */\n      dup6\n        /* \"#utility.yul\":1908:1930   */\n      add\n        /* \"#utility.yul\":1887:1940   */\n      tag_169\n      jump\t// in\n    tag_231:\n        /* \"#utility.yul\":1877:1940   */\n      swap2\n      pop\n        /* \"#utility.yul\":1833:1950   */\n      pop\n        /* \"#utility.yul\":1628:1957   */\n      swap3\n      swap2\n      pop\n      pop\n      jump\t// out\n        /* \"#utility.yul\":1963:2085   */\n    tag_170:\n        /* \"#utility.yul\":2036:2060   */\n      tag_233\n        /* \"#utility.yul\":2054:2059   */\n      dup2\n        /* \"#utility.yul\":2036:2060   */\n      tag_163\n      jump\t// in\n    tag_233:\n        /* \"#utility.yul\":2029:2034   */\n      dup2\n        /* \"#utility.yul\":2026:2061   */\n      eq\n        /* \"#utility.yul\":2016:2079   */\n      tag_234\n      jumpi\n        /* \"#utility.yul\":2075:2076   */\n      0x00\n        /* \"#utility.yul\":2072:2073   */\n      dup1\n        /* \"#utility.yul\":2065:2077   */\n      revert\n        /* \"#utility.yul\":2016:2079   */\n    tag_234:\n        /* \"#utility.yul\":1963:2085   */\n      pop\n      jump\t// out\n        /* \"#utility.yul\":2091:2230   */\n    tag_171:\n        /* \"#utility.yul\":2137:2142   */\n      0x00\n        /* \"#utility.yul\":2175:2181   */\n      dup2\n        /* \"#utility.yul\":2162:2182   */\n      calldataload\n        /* \"#utility.yul\":2153:2182   */\n      swap1\n      pop\n        /* \"#utility.yul\":2191:2224   */\n      tag_236\n        /* \"#utility.yul\":2218:2223   */\n      dup2\n        /* \"#utility.yul\":2191:2224   */\n      tag_170\n      jump\t// in\n    tag_236:\n        /* \"#utility.yul\":2091:2230   */\n      swap3\n      swap2\n      pop\n      pop\n      jump\t// out\n        /* \"#utility.yul\":2236:2565   */\n    tag_43:\n        /* \"#utility.yul\":2295:2301   */\n      0x00\n        /* \"#utility.yul\":2344:2346   */\n      0x20\n        /* \"#utility.yul\":2332:2341   */\n      dup3\n        /* \"#utility.yul\":2323:2330   */\n      dup5\n        /* \"#utility.yul\":2319:2342   */\n      sub\n        /* \"#utility.yul\":2315:2347   */\n      slt\n        /* \"#utility.yul\":2312:2431   */\n      iszero\n      tag_238\n      jumpi\n        /* \"#utility.yul\":2350:2429   */\n      tag_239\n      tag_166\n      jump\t// in\n    tag_239:\n        /* \"#utility.yul\":2312:2431   */\n    tag_238:\n        /* \"#utility.yul\":2470:2471   */\n      0x00\n        /* \"#utility.yul\":2495:2548   */\n      tag_240\n        /* \"#utility.yul\":2540:2547   */\n      dup5\n        /* \"#utility.yul\":2531:2537   */\n      dup3\n        /* \"#utility.yul\":2520:2529   */\n      dup6\n        /* \"#utility.yul\":2516:2538   */\n      add\n        /* \"#utility.yul\":2495:2548   */\n      tag_171\n      jump\t// in\n    tag_240:\n        /* \"#utility.yul\":2485:2548   */\n      swap2\n      pop\n        /* \"#utility.yul\":2441:2558   */\n      pop\n        /* \"#utility.yul\":2236:2565   */\n      swap3\n      swap2\n      pop\n      pop\n      jump\t// out\n        /* \"#utility.yul\":2571:2631   */\n    tag_172:\n        /* \"#utility.yul\":2599:2602   */\n      0x00\n        /* \"#utility.yul\":2620:2625   */\n      dup2\n        /* \"#utility.yul\":2613:2625   */\n      swap1\n      pop\n        /* \"#utility.yul\":2571:2631   */\n      swap2\n      swap1\n      pop\n      jump\t// out\n        /* \"#utility.yul\":2637:2779   */\n    tag_173:\n        /* \"#utility.yul\":2687:2696   */\n      0x00\n        /* \"#utility.yul\":2720:2773   */\n      tag_243\n        /* \"#utility.yul\":2738:2772   */\n      tag_244\n        /* \"#utility.yul\":2747:2771   */\n      tag_245\n        /* \"#utility.yul\":2765:2770   */\n      dup5\n        /* \"#utility.yul\":2747:2771   */\n      tag_162\n      jump\t// in\n    tag_245:\n        /* \"#utility.yul\":2738:2772   */\n      tag_172\n      jump\t// in\n    tag_244:\n        /* \"#utility.yul\":2720:2773   */\n      tag_162\n      jump\t// in\n    tag_243:\n        /* \"#utility.yul\":2707:2773   */\n      swap1\n      pop\n        /* \"#utility.yul\":2637:2779   */\n      swap2\n      swap1\n      pop\n      jump\t// out\n        /* \"#utility.yul\":2785:2911   */\n    tag_174:\n        /* \"#utility.yul\":2835:2844   */\n      0x00\n        /* \"#utility.yul\":2868:2905   */\n      tag_247\n        /* \"#utility.yul\":2899:2904   */\n      dup3\n        /* \"#utility.yul\":2868:2905   */\n      tag_173\n      jump\t// in\n    tag_247:\n        /* \"#utility.yul\":2855:2905   */\n      swap1\n      pop\n        /* \"#utility.yul\":2785:2911   */\n      swap2\n      swap1\n      pop\n      jump\t// out\n        /* \"#utility.yul\":2917:3057   */\n    tag_175:\n        /* \"#utility.yul\":2981:2990   */\n      0x00\n        /* \"#utility.yul\":3014:3051   */\n      tag_249\n        /* \"#utility.yul\":3045:3050   */\n      dup3\n        /* \"#utility.yul\":3014:3051   */\n      tag_174\n      jump\t// in\n    tag_249:\n        /* \"#utility.yul\":3001:3051   */\n      swap1\n      pop\n        /* \"#utility.yul\":2917:3057   */\n      swap2\n      swap1\n      pop\n      jump\t// out\n        /* \"#utility.yul\":3063:3222   */\n    tag_176:\n        /* \"#utility.yul\":3164:3215   */\n      tag_251\n        /* \"#utility.yul\":3209:3214   */\n      dup2\n        /* \"#utility.yul\":3164:3215   */\n      tag_175\n      jump\t// in\n    tag_251:\n        /* \"#utility.yul\":3159:3162   */\n      dup3\n        /* \"#utility.yul\":3152:3216   */\n      mstore\n        /* \"#utility.yul\":3063:3222   */\n      pop\n      pop\n      jump\t// out\n        /* \"#utility.yul\":3228:3478   */\n    tag_49:\n        /* \"#utility.yul\":3335:3339   */\n      0x00\n        /* \"#utility.yul\":3373:3375   */\n      0x20\n        /* \"#utility.yul\":3362:3371   */\n      dup3\n        /* \"#utility.yul\":3358:3376   */\n      add\n        /* \"#utility.yul\":3350:3376   */\n      swap1\n      pop\n        /* \"#utility.yul\":3386:3471   */\n      tag_253\n        /* \"#utility.yul\":3468:3469   */\n      0x00\n        /* \"#utility.yul\":3457:3466   */\n      dup4\n        /* \"#utility.yul\":3453:3470   */\n      add\n        /* \"#utility.yul\":3444:3450   */\n      dup5\n        /* \"#utility.yul\":3386:3471   */\n      tag_176\n      jump\t// in\n    tag_253:\n        /* \"#utility.yul\":3228:3478   */\n      swap3\n      swap2\n      pop\n      pop\n      jump\t// out\n        /* \"#utility.yul\":3484:3653   */\n    tag_177:\n        /* \"#utility.yul\":3568:3579   */\n      0x00\n        /* \"#utility.yul\":3602:3608   */\n      dup3\n        /* \"#utility.yul\":3597:3600   */\n      dup3\n        /* \"#utility.yul\":3590:3609   */\n      mstore\n        /* \"#utility.yul\":3642:3646   */\n      0x20\n        /* \"#utility.yul\":3637:3640   */\n      dup3\n        /* \"#utility.yul\":3633:3647   */\n      add\n        /* \"#utility.yul\":3618:3647   */\n      swap1\n      pop\n        /* \"#utility.yul\":3484:3653   */\n      swap3\n      swap2\n      pop\n      pop\n      jump\t// out\n        /* \"#utility.yul\":3659:3831   */\n    tag_178:\n        /* \"#utility.yul\":3799:3823   */\n      0x4e6f2062616c616e636520746f20776974686472617700000000000000000000\n        /* \"#utility.yul\":3795:3796   */\n      0x00\n        /* \"#utility.yul\":3787:3793   */\n      dup3\n        /* \"#utility.yul\":3783:3797   */\n      add\n        /* \"#utility.yul\":3776:3824   */\n      mstore\n        /* \"#utility.yul\":3659:3831   */\n      pop\n      jump\t// out\n        /* \"#utility.yul\":3837:4203   */\n    tag_179:\n        /* \"#utility.yul\":3979:3982   */\n      0x00\n        /* \"#utility.yul\":4000:4067   */\n      tag_257\n        /* \"#utility.yul\":4064:4066   */\n      0x16\n        /* \"#utility.yul\":4059:4062   */\n      dup4\n        /* \"#utility.yul\":4000:4067   */\n      tag_177\n      jump\t// in\n    tag_257:\n        /* \"#utility.yul\":3993:4067   */\n      swap2\n      pop\n        /* \"#utility.yul\":4076:4169   */\n      tag_258\n        /* \"#utility.yul\":4165:4168   */\n      dup3\n        /* \"#utility.yul\":4076:4169   */\n      tag_178\n      jump\t// in\n    tag_258:\n        /* \"#utility.yul\":4194:4196   */\n      0x20\n        /* \"#utility.yul\":4189:4192   */\n      dup3\n        /* \"#utility.yul\":4185:4197   */\n      add\n        /* \"#utility.yul\":4178:4197   */\n      swap1\n      pop\n        /* \"#utility.yul\":3837:4203   */\n      swap2\n      swap1\n      pop\n      jump\t// out\n        /* \"#utility.yul\":4209:4628   */\n    tag_60:\n        /* \"#utility.yul\":4375:4379   */\n      0x00\n        /* \"#utility.yul\":4413:4415   */\n      0x20\n        /* \"#utility.yul\":4402:4411   */\n      dup3\n        /* \"#utility.yul\":4398:4416   */\n      add\n        /* \"#utility.yul\":4390:4416   */\n      swap1\n      pop\n        /* \"#utility.yul\":4462:4471   */\n      dup2\n        /* \"#utility.yul\":4456:4460   */\n      dup2\n        /* \"#utility.yul\":4452:4472   */\n      sub\n        /* \"#utility.yul\":4448:4449   */\n      0x00\n        /* \"#utility.yul\":4437:4446   */\n      dup4\n        /* \"#utility.yul\":4433:4450   */\n      add\n        /* \"#utility.yul\":4426:4473   */\n      mstore\n        /* \"#utility.yul\":4490:4621   */\n      tag_260\n        /* \"#utility.yul\":4616:4620   */\n      dup2\n        /* \"#utility.yul\":4490:4621   */\n      tag_179\n      jump\t// in\n    tag_260:\n        /* \"#utility.yul\":4482:4621   */\n      swap1\n      pop\n        /* \"#utility.yul\":4209:4628   */\n      swap2\n      swap1\n      pop\n      jump\t// out\n        /* \"#utility.yul\":4634:4781   */\n    tag_180:\n        /* \"#utility.yul\":4735:4746   */\n      0x00\n        /* \"#utility.yul\":4772:4775   */\n      dup2\n        /* \"#utility.yul\":4757:4775   */\n      swap1\n      pop\n        /* \"#utility.yul\":4634:4781   */\n      swap3\n      swap2\n      pop\n      pop\n      jump\t// out\n        /* \"#utility.yul\":4787:4901   */\n    tag_181:\n      pop\n      jump\t// out\n        /* \"#utility.yul\":4907:5305   */\n    tag_182:\n        /* \"#utility.yul\":5066:5069   */\n      0x00\n        /* \"#utility.yul\":5087:5170   */\n      tag_264\n        /* \"#utility.yul\":5168:5169   */\n      0x00\n        /* \"#utility.yul\":5163:5166   */\n      dup4\n        /* \"#utility.yul\":5087:5170   */\n      tag_180\n      jump\t// in\n    tag_264:\n        /* \"#utility.yul\":5080:5170   */\n      swap2\n      pop\n        /* \"#utility.yul\":5179:5272   */\n      tag_265\n        /* \"#utility.yul\":5268:5271   */\n      dup3\n        /* \"#utility.yul\":5179:5272   */\n      tag_181\n      jump\t// in\n    tag_265:\n        /* \"#utility.yul\":5297:5298   */\n      0x00\n        /* \"#utility.yul\":5292:5295   */\n      dup3\n        /* \"#utility.yul\":5288:5299   */\n      add\n        /* \"#utility.yul\":5281:5299   */\n      swap1\n      pop\n        /* \"#utility.yul\":4907:5305   */\n      swap2\n      swap1\n      pop\n      jump\t// out\n        /* \"#utility.yul\":5311:5690   */\n    tag_62:\n        /* \"#utility.yul\":5495:5498   */\n      0x00\n        /* \"#utility.yul\":5517:5664   */\n      tag_267\n        /* \"#utility.yul\":5660:5663   */\n      dup3\n        /* \"#utility.yul\":5517:5664   */\n      tag_182\n      jump\t// in\n    tag_267:\n        /* \"#utility.yul\":5510:5664   */\n      swap2\n      pop\n        /* \"#utility.yul\":5681:5684   */\n      dup2\n        /* \"#utility.yul\":5674:5684   */\n      swap1\n      pop\n        /* \"#utility.yul\":5311:5690   */\n      swap2\n      swap1\n      pop\n      jump\t// out\n        /* \"#utility.yul\":5696:5916   */\n    tag_183:\n        /* \"#utility.yul\":5836:5870   */\n      0x4661696c656420746f2073656e6420457468657220746f20746865206f776e65\n        /* \"#utility.yul\":5832:5833   */\n      0x00\n        /* \"#utility.yul\":5824:5830   */\n      dup3\n        /* \"#utility.yul\":5820:5834   */\n      add\n        /* \"#utility.yul\":5813:5871   */\n      mstore\n        /* \"#utility.yul\":5905:5908   */\n      0x7200000000000000000000000000000000000000000000000000000000000000\n        /* \"#utility.yul\":5900:5902   */\n      0x20\n        /* \"#utility.yul\":5892:5898   */\n      dup3\n        /* \"#utility.yul\":5888:5903   */\n      add\n        /* \"#utility.yul\":5881:5909   */\n      mstore\n        /* \"#utility.yul\":5696:5916   */\n      pop\n      jump\t// out\n        /* \"#utility.yul\":5922:6288   */\n    tag_184:\n        /* \"#utility.yul\":6064:6067   */\n      0x00\n        /* \"#utility.yul\":6085:6152   */\n      tag_270\n        /* \"#utility.yul\":6149:6151   */\n      0x21\n        /* \"#utility.yul\":6144:6147   */\n      dup4\n        /* \"#utility.yul\":6085:6152   */\n      tag_177\n      jump\t// in\n    tag_270:\n        /* \"#utility.yul\":6078:6152   */\n      swap2\n      pop\n        /* \"#utility.yul\":6161:6254   */\n      tag_271\n        /* \"#utility.yul\":6250:6253   */\n      dup3\n        /* \"#utility.yul\":6161:6254   */\n      tag_183\n      jump\t// in\n    tag_271:\n        /* \"#utility.yul\":6279:6281   */\n      0x40\n        /* \"#utility.yul\":6274:6277   */\n      dup3\n        /* \"#utility.yul\":6270:6282   */\n      add\n        /* \"#utility.yul\":6263:6282   */\n      swap1\n      pop\n        /* \"#utility.yul\":5922:6288   */\n      swap2\n      swap1\n      pop\n      jump\t// out\n        /* \"#utility.yul\":6294:6713   */\n    tag_68:\n        /* \"#utility.yul\":6460:6464   */\n      0x00\n        /* \"#utility.yul\":6498:6500   */\n      0x20\n        /* \"#utility.yul\":6487:6496   */\n      dup3\n        /* \"#utility.yul\":6483:6501   */\n      add\n        /* \"#utility.yul\":6475:6501   */\n      swap1\n      pop\n        /* \"#utility.yul\":6547:6556   */\n      dup2\n        /* \"#utility.yul\":6541:6545   */\n      dup2\n        /* \"#utility.yul\":6537:6557   */\n      sub\n        /* \"#utility.yul\":6533:6534   */\n      0x00\n        /* \"#utility.yul\":6522:6531   */\n      dup4\n        /* \"#utility.yul\":6518:6535   */\n      add\n        /* \"#utility.yul\":6511:6558   */\n      mstore\n        /* \"#utility.yul\":6575:6706   */\n      tag_273\n        /* \"#utility.yul\":6701:6705   */\n      dup2\n        /* \"#utility.yul\":6575:6706   */\n      tag_184\n      jump\t// in\n    tag_273:\n        /* \"#utility.yul\":6567:6706   */\n      swap1\n      pop\n        /* \"#utility.yul\":6294:6713   */\n      swap2\n      swap1\n      pop\n      jump\t// out\n        /* \"#utility.yul\":6719:6862   */\n    tag_185:\n        /* \"#utility.yul\":6776:6781   */\n      0x00\n        /* \"#utility.yul\":6807:6813   */\n      dup2\n        /* \"#utility.yul\":6801:6814   */\n      mload\n        /* \"#utility.yul\":6792:6814   */\n      swap1\n      pop\n        /* \"#utility.yul\":6823:6856   */\n      tag_275\n        /* \"#utility.yul\":6850:6855   */\n      dup2\n        /* \"#utility.yul\":6823:6856   */\n      tag_168\n      jump\t// in\n    tag_275:\n        /* \"#utility.yul\":6719:6862   */\n      swap3\n      swap2\n      pop\n      pop\n      jump\t// out\n        /* \"#utility.yul\":6868:7219   */\n    tag_81:\n        /* \"#utility.yul\":6938:6944   */\n      0x00\n        /* \"#utility.yul\":6987:6989   */\n      0x20\n        /* \"#utility.yul\":6975:6984   */\n      dup3\n        /* \"#utility.yul\":6966:6973   */\n      dup5\n        /* \"#utility.yul\":6962:6985   */\n      sub\n        /* \"#utility.yul\":6958:6990   */\n      slt\n        /* \"#utility.yul\":6955:7074   */\n      iszero\n      tag_277\n      jumpi\n        /* \"#utility.yul\":6993:7072   */\n      tag_278\n      tag_166\n      jump\t// in\n    tag_278:\n        /* \"#utility.yul\":6955:7074   */\n    tag_277:\n        /* \"#utility.yul\":7113:7114   */\n      0x00\n        /* \"#utility.yul\":7138:7202   */\n      tag_279\n        /* \"#utility.yul\":7194:7201   */\n      dup5\n        /* \"#utility.yul\":7185:7191   */\n      dup3\n        /* \"#utility.yul\":7174:7183   */\n      dup6\n        /* \"#utility.yul\":7170:7192   */\n      add\n        /* \"#utility.yul\":7138:7202   */\n      tag_185\n      jump\t// in\n    tag_279:\n        /* \"#utility.yul\":7128:7202   */\n      swap2\n      pop\n        /* \"#utility.yul\":7084:7212   */\n      pop\n        /* \"#utility.yul\":6868:7219   */\n      swap3\n      swap2\n      pop\n      pop\n      jump\t// out\n        /* \"#utility.yul\":7225:7557   */\n    tag_84:\n        /* \"#utility.yul\":7346:7350   */\n      0x00\n        /* \"#utility.yul\":7384:7386   */\n      0x40\n        /* \"#utility.yul\":7373:7382   */\n      dup3\n        /* \"#utility.yul\":7369:7387   */\n      add\n        /* \"#utility.yul\":7361:7387   */\n      swap1\n      pop\n        /* \"#utility.yul\":7397:7468   */\n      tag_281\n        /* \"#utility.yul\":7465:7466   */\n      0x00\n        /* \"#utility.yul\":7454:7463   */\n      dup4\n        /* \"#utility.yul\":7450:7467   */\n      add\n        /* \"#utility.yul\":7441:7447   */\n      dup6\n        /* \"#utility.yul\":7397:7468   */\n      tag_164\n      jump\t// in\n    tag_281:\n        /* \"#utility.yul\":7478:7550   */\n      tag_282\n        /* \"#utility.yul\":7546:7548   */\n      0x20\n        /* \"#utility.yul\":7535:7544   */\n      dup4\n        /* \"#utility.yul\":7531:7549   */\n      add\n        /* \"#utility.yul\":7522:7528   */\n      dup5\n        /* \"#utility.yul\":7478:7550   */\n      tag_161\n      jump\t// in\n    tag_282:\n        /* \"#utility.yul\":7225:7557   */\n      swap4\n      swap3\n      pop\n      pop\n      pop\n      jump\t// out\n        /* \"#utility.yul\":7563:7653   */\n    tag_186:\n        /* \"#utility.yul\":7597:7604   */\n      0x00\n        /* \"#utility.yul\":7640:7645   */\n      dup2\n        /* \"#utility.yul\":7633:7646   */\n      iszero\n        /* \"#utility.yul\":7626:7647   */\n      iszero\n        /* \"#utility.yul\":7615:7647   */\n      swap1\n      pop\n        /* \"#utility.yul\":7563:7653   */\n      swap2\n      swap1\n      pop\n      jump\t// out\n        /* \"#utility.yul\":7659:7775   */\n    tag_187:\n        /* \"#utility.yul\":7729:7750   */\n      tag_285\n        /* \"#utility.yul\":7744:7749   */\n      dup2\n        /* \"#utility.yul\":7729:7750   */\n      tag_186\n      jump\t// in\n    tag_285:\n        /* \"#utility.yul\":7722:7727   */\n      dup2\n        /* \"#utility.yul\":7719:7751   */\n      eq\n        /* \"#utility.yul\":7709:7769   */\n      tag_286\n      jumpi\n        /* \"#utility.yul\":7765:7766   */\n      0x00\n        /* \"#utility.yul\":7762:7763   */\n      dup1\n        /* \"#utility.yul\":7755:7767   */\n      revert\n        /* \"#utility.yul\":7709:7769   */\n    tag_286:\n        /* \"#utility.yul\":7659:7775   */\n      pop\n      jump\t// out\n        /* \"#utility.yul\":7781:7918   */\n    tag_188:\n        /* \"#utility.yul\":7835:7840   */\n      0x00\n        /* \"#utility.yul\":7866:7872   */\n      dup2\n        /* \"#utility.yul\":7860:7873   */\n      mload\n        /* \"#utility.yul\":7851:7873   */\n      swap1\n      pop\n        /* \"#utility.yul\":7882:7912   */\n      tag_288\n        /* \"#utility.yul\":7906:7911   */\n      dup2\n        /* \"#utility.yul\":7882:7912   */\n      tag_187\n      jump\t// in\n    tag_288:\n        /* \"#utility.yul\":7781:7918   */\n      swap3\n      swap2\n      pop\n      pop\n      jump\t// out\n        /* \"#utility.yul\":7924:8269   */\n    tag_88:\n        /* \"#utility.yul\":7991:7997   */\n      0x00\n        /* \"#utility.yul\":8040:8042   */\n      0x20\n        /* \"#utility.yul\":8028:8037   */\n      dup3\n        /* \"#utility.yul\":8019:8026   */\n      dup5\n        /* \"#utility.yul\":8015:8038   */\n      sub\n        /* \"#utility.yul\":8011:8043   */\n      slt\n        /* \"#utility.yul\":8008:8127   */\n      iszero\n      tag_290\n      jumpi\n        /* \"#utility.yul\":8046:8125   */\n      tag_291\n      tag_166\n      jump\t// in\n    tag_291:\n        /* \"#utility.yul\":8008:8127   */\n    tag_290:\n        /* \"#utility.yul\":8166:8167   */\n      0x00\n        /* \"#utility.yul\":8191:8252   */\n      tag_292\n        /* \"#utility.yul\":8244:8251   */\n      dup5\n        /* \"#utility.yul\":8235:8241   */\n      dup3\n        /* \"#utility.yul\":8224:8233   */\n      dup6\n        /* \"#utility.yul\":8220:8242   */\n      add\n        /* \"#utility.yul\":8191:8252   */\n      tag_188\n      jump\t// in\n    tag_292:\n        /* \"#utility.yul\":8181:8252   */\n      swap2\n      pop\n        /* \"#utility.yul\":8137:8262   */\n      pop\n        /* \"#utility.yul\":7924:8269   */\n      swap3\n      swap2\n      pop\n      pop\n      jump\t// out\n        /* \"#utility.yul\":8275:8496   */\n    tag_189:\n        /* \"#utility.yul\":8415:8449   */\n      0x4661696c656420746f2073656e6420746f6b656e7320746f20746865206f776e\n        /* \"#utility.yul\":8411:8412   */\n      0x00\n        /* \"#utility.yul\":8403:8409   */\n      dup3\n        /* \"#utility.yul\":8399:8413   */\n      add\n        /* \"#utility.yul\":8392:8450   */\n      mstore\n        /* \"#utility.yul\":8484:8488   */\n      0x6572000000000000000000000000000000000000000000000000000000000000\n        /* \"#utility.yul\":8479:8481   */\n      0x20\n        /* \"#utility.yul\":8471:8477   */\n      dup3\n        /* \"#utility.yul\":8467:8482   */\n      add\n        /* \"#utility.yul\":8460:8489   */\n      mstore\n        /* \"#utility.yul\":8275:8496   */\n      pop\n      jump\t// out\n        /* \"#utility.yul\":8502:8868   */\n    tag_190:\n        /* \"#utility.yul\":8644:8647   */\n      0x00\n        /* \"#utility.yul\":8665:8732   */\n      tag_295\n        /* \"#utility.yul\":8729:8731   */\n      0x22\n        /* \"#utility.yul\":8724:8727   */\n      dup4\n        /* \"#utility.yul\":8665:8732   */\n      tag_177\n      jump\t// in\n    tag_295:\n        /* \"#utility.yul\":8658:8732   */\n      swap2\n      pop\n        /* \"#utility.yul\":8741:8834   */\n      tag_296\n        /* \"#utility.yul\":8830:8833   */\n      dup3\n        /* \"#utility.yul\":8741:8834   */\n      tag_189\n      jump\t// in\n    tag_296:\n        /* \"#utility.yul\":8859:8861   */\n      0x40\n        /* \"#utility.yul\":8854:8857   */\n      dup3\n        /* \"#utility.yul\":8850:8862   */\n      add\n        /* \"#utility.yul\":8843:8862   */\n      swap1\n      pop\n        /* \"#utility.yul\":8502:8868   */\n      swap2\n      swap1\n      pop\n      jump\t// out\n        /* \"#utility.yul\":8874:9293   */\n    tag_91:\n        /* \"#utility.yul\":9040:9044   */\n      0x00\n        /* \"#utility.yul\":9078:9080   */\n      0x20\n        /* \"#utility.yul\":9067:9076   */\n      dup3\n        /* \"#utility.yul\":9063:9081   */\n      add\n        /* \"#utility.yul\":9055:9081   */\n      swap1\n      pop\n        /* \"#utility.yul\":9127:9136   */\n      dup2\n        /* \"#utility.yul\":9121:9125   */\n      dup2\n        /* \"#utility.yul\":9117:9137   */\n      sub\n        /* \"#utility.yul\":9113:9114   */\n      0x00\n        /* \"#utility.yul\":9102:9111   */\n      dup4\n        /* \"#utility.yul\":9098:9115   */\n      add\n        /* \"#utility.yul\":9091:9138   */\n      mstore\n        /* \"#utility.yul\":9155:9286   */\n      tag_298\n        /* \"#utility.yul\":9281:9285   */\n      dup2\n        /* \"#utility.yul\":9155:9286   */\n      tag_190\n      jump\t// in\n    tag_298:\n        /* \"#utility.yul\":9147:9286   */\n      swap1\n      pop\n        /* \"#utility.yul\":8874:9293   */\n      swap2\n      swap1\n      pop\n      jump\t// out\n        /* \"#utility.yul\":9299:9478   */\n    tag_191:\n        /* \"#utility.yul\":9439:9470   */\n      0x53656e6420457468657220746f2062757920736f6d6520746f6b656e73000000\n        /* \"#utility.yul\":9435:9436   */\n      0x00\n        /* \"#utility.yul\":9427:9433   */\n      dup3\n        /* \"#utility.yul\":9423:9437   */\n      add\n        /* \"#utility.yul\":9416:9471   */\n      mstore\n        /* \"#utility.yul\":9299:9478   */\n      pop\n      jump\t// out\n        /* \"#utility.yul\":9484:9850   */\n    tag_192:\n        /* \"#utility.yul\":9626:9629   */\n      0x00\n        /* \"#utility.yul\":9647:9714   */\n      tag_301\n        /* \"#utility.yul\":9711:9713   */\n      0x1d\n        /* \"#utility.yul\":9706:9709   */\n      dup4\n        /* \"#utility.yul\":9647:9714   */\n      tag_177\n      jump\t// in\n    tag_301:\n        /* \"#utility.yul\":9640:9714   */\n      swap2\n      pop\n        /* \"#utility.yul\":9723:9816   */\n      tag_302\n        /* \"#utility.yul\":9812:9815   */\n      dup3\n        /* \"#utility.yul\":9723:9816   */\n      tag_191\n      jump\t// in\n    tag_302:\n        /* \"#utility.yul\":9841:9843   */\n      0x20\n        /* \"#utility.yul\":9836:9839   */\n      dup3\n        /* \"#utility.yul\":9832:9844   */\n      add\n        /* \"#utility.yul\":9825:9844   */\n      swap1\n      pop\n        /* \"#utility.yul\":9484:9850   */\n      swap2\n      swap1\n      pop\n      jump\t// out\n        /* \"#utility.yul\":9856:10275   */\n    tag_99:\n        /* \"#utility.yul\":10022:10026   */\n      0x00\n        /* \"#utility.yul\":10060:10062   */\n      0x20\n        /* \"#utility.yul\":10049:10058   */\n      dup3\n        /* \"#utility.yul\":10045:10063   */\n      add\n        /* \"#utility.yul\":10037:10063   */\n      swap1\n      pop\n        /* \"#utility.yul\":10109:10118   */\n      dup2\n        /* \"#utility.yul\":10103:10107   */\n      dup2\n        /* \"#utility.yul\":10099:10119   */\n      sub\n        /* \"#utility.yul\":10095:10096   */\n      0x00\n        /* \"#utility.yul\":10084:10093   */\n      dup4\n        /* \"#utility.yul\":10080:10097   */\n      add\n        /* \"#utility.yul\":10073:10120   */\n      mstore\n        /* \"#utility.yul\":10137:10268   */\n      tag_304\n        /* \"#utility.yul\":10263:10267   */\n      dup2\n        /* \"#utility.yul\":10137:10268   */\n      tag_192\n      jump\t// in\n    tag_304:\n        /* \"#utility.yul\":10129:10268   */\n      swap1\n      pop\n        /* \"#utility.yul\":9856:10275   */\n      swap2\n      swap1\n      pop\n      jump\t// out\n        /* \"#utility.yul\":10281:10461   */\n    tag_193:\n        /* \"#utility.yul\":10329:10406   */\n      0x4e487b7100000000000000000000000000000000000000000000000000000000\n        /* \"#utility.yul\":10326:10327   */\n      0x00\n        /* \"#utility.yul\":10319:10407   */\n      mstore\n        /* \"#utility.yul\":10426:10430   */\n      0x11\n        /* \"#utility.yul\":10423:10424   */\n      0x04\n        /* \"#utility.yul\":10416:10431   */\n      mstore\n        /* \"#utility.yul\":10450:10454   */\n      0x24\n        /* \"#utility.yul\":10447:10448   */\n      0x00\n        /* \"#utility.yul\":10440:10455   */\n      revert\n        /* \"#utility.yul\":10467:10877   */\n    tag_101:\n        /* \"#utility.yul\":10507:10514   */\n      0x00\n        /* \"#utility.yul\":10530:10550   */\n      tag_307\n        /* \"#utility.yul\":10548:10549   */\n      dup3\n        /* \"#utility.yul\":10530:10550   */\n      tag_160\n      jump\t// in\n    tag_307:\n        /* \"#utility.yul\":10525:10550   */\n      swap2\n      pop\n        /* \"#utility.yul\":10564:10584   */\n      tag_308\n        /* \"#utility.yul\":10582:10583   */\n      dup4\n        /* \"#utility.yul\":10564:10584   */\n      tag_160\n      jump\t// in\n    tag_308:\n        /* \"#utility.yul\":10559:10584   */\n      swap3\n      pop\n        /* \"#utility.yul\":10619:10620   */\n      dup3\n        /* \"#utility.yul\":10616:10617   */\n      dup3\n        /* \"#utility.yul\":10612:10621   */\n      mul\n        /* \"#utility.yul\":10641:10671   */\n      tag_309\n        /* \"#utility.yul\":10659:10670   */\n      dup2\n        /* \"#utility.yul\":10641:10671   */\n      tag_160\n      jump\t// in\n    tag_309:\n        /* \"#utility.yul\":10630:10671   */\n      swap2\n      pop\n        /* \"#utility.yul\":10820:10821   */\n      dup3\n        /* \"#utility.yul\":10811:10818   */\n      dup3\n        /* \"#utility.yul\":10807:10822   */\n      div\n        /* \"#utility.yul\":10804:10805   */\n      dup5\n        /* \"#utility.yul\":10801:10823   */\n      eq\n        /* \"#utility.yul\":10781:10782   */\n      dup4\n        /* \"#utility.yul\":10774:10783   */\n      iszero\n        /* \"#utility.yul\":10754:10837   */\n      or\n        /* \"#utility.yul\":10731:10870   */\n      tag_310\n      jumpi\n        /* \"#utility.yul\":10850:10868   */\n      tag_311\n      tag_193\n      jump\t// in\n    tag_311:\n        /* \"#utility.yul\":10731:10870   */\n    tag_310:\n        /* \"#utility.yul\":10515:10877   */\n      pop\n        /* \"#utility.yul\":10467:10877   */\n      swap3\n      swap2\n      pop\n      pop\n      jump\t// out\n        /* \"#utility.yul\":10883:11063   */\n    tag_194:\n        /* \"#utility.yul\":10931:11008   */\n      0x4e487b7100000000000000000000000000000000000000000000000000000000\n        /* \"#utility.yul\":10928:10929   */\n      0x00\n        /* \"#utility.yul\":10921:11009   */\n      mstore\n        /* \"#utility.yul\":11028:11032   */\n      0x12\n        /* \"#utility.yul\":11025:11026   */\n      0x04\n        /* \"#utility.yul\":11018:11033   */\n      mstore\n        /* \"#utility.yul\":11052:11056   */\n      0x24\n        /* \"#utility.yul\":11049:11050   */\n      0x00\n        /* \"#utility.yul\":11042:11057   */\n      revert\n        /* \"#utility.yul\":11069:11254   */\n    tag_103:\n        /* \"#utility.yul\":11109:11110   */\n      0x00\n        /* \"#utility.yul\":11126:11146   */\n      tag_314\n        /* \"#utility.yul\":11144:11145   */\n      dup3\n        /* \"#utility.yul\":11126:11146   */\n      tag_160\n      jump\t// in\n    tag_314:\n        /* \"#utility.yul\":11121:11146   */\n      swap2\n      pop\n        /* \"#utility.yul\":11160:11180   */\n      tag_315\n        /* \"#utility.yul\":11178:11179   */\n      dup4\n        /* \"#utility.yul\":11160:11180   */\n      tag_160\n      jump\t// in\n    tag_315:\n        /* \"#utility.yul\":11155:11180   */\n      swap3\n      pop\n        /* \"#utility.yul\":11199:11200   */\n      dup3\n        /* \"#utility.yul\":11189:11224   */\n      tag_316\n      jumpi\n        /* \"#utility.yul\":11204:11222   */\n      tag_317\n      tag_194\n      jump\t// in\n    tag_317:\n        /* \"#utility.yul\":11189:11224   */\n    tag_316:\n        /* \"#utility.yul\":11246:11247   */\n      dup3\n        /* \"#utility.yul\":11243:11244   */\n      dup3\n        /* \"#utility.yul\":11239:11248   */\n      div\n        /* \"#utility.yul\":11234:11248   */\n      swap1\n      pop\n        /* \"#utility.yul\":11069:11254   */\n      swap3\n      swap2\n      pop\n      pop\n      jump\t// out\n        /* \"#utility.yul\":11260:11499   */\n    tag_195:\n        /* \"#utility.yul\":11400:11434   */\n      0x56656e646f7220636f6e747261637420686173206e6f7420656e6f7567682074\n        /* \"#utility.yul\":11396:11397   */\n      0x00\n        /* \"#utility.yul\":11388:11394   */\n      dup3\n        /* \"#utility.yul\":11384:11398   */\n      add\n        /* \"#utility.yul\":11377:11435   */\n      mstore\n        /* \"#utility.yul\":11469:11491   */\n      0x6f6b656e7320696e206974732062616c616e6365000000000000000000000000\n        /* \"#utility.yul\":11464:11466   */\n      0x20\n        /* \"#utility.yul\":11456:11462   */\n      dup3\n        /* \"#utility.yul\":11452:11467   */\n      add\n        /* \"#utility.yul\":11445:11492   */\n      mstore\n        /* \"#utility.yul\":11260:11499   */\n      pop\n      jump\t// out\n        /* \"#utility.yul\":11505:11871   */\n    tag_196:\n        /* \"#utility.yul\":11647:11650   */\n      0x00\n        /* \"#utility.yul\":11668:11735   */\n      tag_320\n        /* \"#utility.yul\":11732:11734   */\n      0x34\n        /* \"#utility.yul\":11727:11730   */\n      dup4\n        /* \"#utility.yul\":11668:11735   */\n      tag_177\n      jump\t// in\n    tag_320:\n        /* \"#utility.yul\":11661:11735   */\n      swap2\n      pop\n        /* \"#utility.yul\":11744:11837   */\n      tag_321\n        /* \"#utility.yul\":11833:11836   */\n      dup3\n        /* \"#utility.yul\":11744:11837   */\n      tag_195\n      jump\t// in\n    tag_321:\n        /* \"#utility.yul\":11862:11864   */\n      0x40\n        /* \"#utility.yul\":11857:11860   */\n      dup3\n        /* \"#utility.yul\":11853:11865   */\n      add\n        /* \"#utility.yul\":11846:11865   */\n      swap1\n      pop\n        /* \"#utility.yul\":11505:11871   */\n      swap2\n      swap1\n      pop\n      jump\t// out\n        /* \"#utility.yul\":11877:12296   */\n    tag_110:\n        /* \"#utility.yul\":12043:12047   */\n      0x00\n        /* \"#utility.yul\":12081:12083   */\n      0x20\n        /* \"#utility.yul\":12070:12079   */\n      dup3\n        /* \"#utility.yul\":12066:12084   */\n      add\n        /* \"#utility.yul\":12058:12084   */\n      swap1\n      pop\n        /* \"#utility.yul\":12130:12139   */\n      dup2\n        /* \"#utility.yul\":12124:12128   */\n      dup2\n        /* \"#utility.yul\":12120:12140   */\n      sub\n        /* \"#utility.yul\":12116:12117   */\n      0x00\n        /* \"#utility.yul\":12105:12114   */\n      dup4\n        /* \"#utility.yul\":12101:12118   */\n      add\n        /* \"#utility.yul\":12094:12141   */\n      mstore\n        /* \"#utility.yul\":12158:12289   */\n      tag_323\n        /* \"#utility.yul\":12284:12288   */\n      dup2\n        /* \"#utility.yul\":12158:12289   */\n      tag_196\n      jump\t// in\n    tag_323:\n        /* \"#utility.yul\":12150:12289   */\n      swap1\n      pop\n        /* \"#utility.yul\":11877:12296   */\n      swap2\n      swap1\n      pop\n      jump\t// out\n        /* \"#utility.yul\":12302:12484   */\n    tag_197:\n        /* \"#utility.yul\":12442:12476   */\n      0x4661696c656420746f207472616e7366657220746f6b656e20746f2075736572\n        /* \"#utility.yul\":12438:12439   */\n      0x00\n        /* \"#utility.yul\":12430:12436   */\n      dup3\n        /* \"#utility.yul\":12426:12440   */\n      add\n        /* \"#utility.yul\":12419:12477   */\n      mstore\n        /* \"#utility.yul\":12302:12484   */\n      pop\n      jump\t// out\n        /* \"#utility.yul\":12490:12856   */\n    tag_198:\n        /* \"#utility.yul\":12632:12635   */\n      0x00\n        /* \"#utility.yul\":12653:12720   */\n      tag_326\n        /* \"#utility.yul\":12717:12719   */\n      0x20\n        /* \"#utility.yul\":12712:12715   */\n      dup4\n        /* \"#utility.yul\":12653:12720   */\n      tag_177\n      jump\t// in\n    tag_326:\n        /* \"#utility.yul\":12646:12720   */\n      swap2\n      pop\n        /* \"#utility.yul\":12729:12822   */\n      tag_327\n        /* \"#utility.yul\":12818:12821   */\n      dup3\n        /* \"#utility.yul\":12729:12822   */\n      tag_197\n      jump\t// in\n    tag_327:\n        /* \"#utility.yul\":12847:12849   */\n      0x20\n        /* \"#utility.yul\":12842:12845   */\n      dup3\n        /* \"#utility.yul\":12838:12850   */\n      add\n        /* \"#utility.yul\":12831:12850   */\n      swap1\n      pop\n        /* \"#utility.yul\":12490:12856   */\n      swap2\n      swap1\n      pop\n      jump\t// out\n        /* \"#utility.yul\":12862:13281   */\n    tag_117:\n        /* \"#utility.yul\":13028:13032   */\n      0x00\n        /* \"#utility.yul\":13066:13068   */\n      0x20\n        /* \"#utility.yul\":13055:13064   */\n      dup3\n        /* \"#utility.yul\":13051:13069   */\n      add\n        /* \"#utility.yul\":13043:13069   */\n      swap1\n      pop\n        /* \"#utility.yul\":13115:13124   */\n      dup2\n        /* \"#utility.yul\":13109:13113   */\n      dup2\n        /* \"#utility.yul\":13105:13125   */\n      sub\n        /* \"#utility.yul\":13101:13102   */\n      0x00\n        /* \"#utility.yul\":13090:13099   */\n      dup4\n        /* \"#utility.yul\":13086:13103   */\n      add\n        /* \"#utility.yul\":13079:13126   */\n      mstore\n        /* \"#utility.yul\":13143:13274   */\n      tag_329\n        /* \"#utility.yul\":13269:13273   */\n      dup2\n        /* \"#utility.yul\":13143:13274   */\n      tag_198\n      jump\t// in\n    tag_329:\n        /* \"#utility.yul\":13135:13274   */\n      swap1\n      pop\n        /* \"#utility.yul\":12862:13281   */\n      swap2\n      swap1\n      pop\n      jump\t// out\n        /* \"#utility.yul\":13287:13619   */\n    tag_119:\n        /* \"#utility.yul\":13408:13412   */\n      0x00\n        /* \"#utility.yul\":13446:13448   */\n      0x40\n        /* \"#utility.yul\":13435:13444   */\n      dup3\n        /* \"#utility.yul\":13431:13449   */\n      add\n        /* \"#utility.yul\":13423:13449   */\n      swap1\n      pop\n        /* \"#utility.yul\":13459:13530   */\n      tag_331\n        /* \"#utility.yul\":13527:13528   */\n      0x00\n        /* \"#utility.yul\":13516:13525   */\n      dup4\n        /* \"#utility.yul\":13512:13529   */\n      add\n        /* \"#utility.yul\":13503:13509   */\n      dup6\n        /* \"#utility.yul\":13459:13530   */\n      tag_161\n      jump\t// in\n    tag_331:\n        /* \"#utility.yul\":13540:13612   */\n      tag_332\n        /* \"#utility.yul\":13608:13610   */\n      0x20\n        /* \"#utility.yul\":13597:13606   */\n      dup4\n        /* \"#utility.yul\":13593:13611   */\n      add\n        /* \"#utility.yul\":13584:13590   */\n      dup5\n        /* \"#utility.yul\":13540:13612   */\n      tag_161\n      jump\t// in\n    tag_332:\n        /* \"#utility.yul\":13287:13619   */\n      swap4\n      swap3\n      pop\n      pop\n      pop\n      jump\t// out\n        /* \"#utility.yul\":13625:13854   */\n    tag_199:\n        /* \"#utility.yul\":13765:13799   */\n      0x416d6f756e74206f6620746f6b656e73206d7573742062652067726561746572\n        /* \"#utility.yul\":13761:13762   */\n      0x00\n        /* \"#utility.yul\":13753:13759   */\n      dup3\n        /* \"#utility.yul\":13749:13763   */\n      add\n        /* \"#utility.yul\":13742:13800   */\n      mstore\n        /* \"#utility.yul\":13834:13846   */\n      0x207468616e207a65726f00000000000000000000000000000000000000000000\n        /* \"#utility.yul\":13829:13831   */\n      0x20\n        /* \"#utility.yul\":13821:13827   */\n      dup3\n        /* \"#utility.yul\":13817:13832   */\n      add\n        /* \"#utility.yul\":13810:13847   */\n      mstore\n        /* \"#utility.yul\":13625:13854   */\n      pop\n      jump\t// out\n        /* \"#utility.yul\":13860:14226   */\n    tag_200:\n        /* \"#utility.yul\":14002:14005   */\n      0x00\n        /* \"#utility.yul\":14023:14090   */\n      tag_335\n        /* \"#utility.yul\":14087:14089   */\n      0x2a\n        /* \"#utility.yul\":14082:14085   */\n      dup4\n        /* \"#utility.yul\":14023:14090   */\n      tag_177\n      jump\t// in\n    tag_335:\n        /* \"#utility.yul\":14016:14090   */\n      swap2\n      pop\n        /* \"#utility.yul\":14099:14192   */\n      tag_336\n        /* \"#utility.yul\":14188:14191   */\n      dup3\n        /* \"#utility.yul\":14099:14192   */\n      tag_199\n      jump\t// in\n    tag_336:\n        /* \"#utility.yul\":14217:14219   */\n      0x40\n        /* \"#utility.yul\":14212:14215   */\n      dup3\n        /* \"#utility.yul\":14208:14220   */\n      add\n        /* \"#utility.yul\":14201:14220   */\n      swap1\n      pop\n        /* \"#utility.yul\":13860:14226   */\n      swap2\n      swap1\n      pop\n      jump\t// out\n        /* \"#utility.yul\":14232:14651   */\n    tag_129:\n        /* \"#utility.yul\":14398:14402   */\n      0x00\n        /* \"#utility.yul\":14436:14438   */\n      0x20\n        /* \"#utility.yul\":14425:14434   */\n      dup3\n        /* \"#utility.yul\":14421:14439   */\n      add\n        /* \"#utility.yul\":14413:14439   */\n      swap1\n      pop\n        /* \"#utility.yul\":14485:14494   */\n      dup2\n        /* \"#utility.yul\":14479:14483   */\n      dup2\n        /* \"#utility.yul\":14475:14495   */\n      sub\n        /* \"#utility.yul\":14471:14472   */\n      0x00\n        /* \"#utility.yul\":14460:14469   */\n      dup4\n        /* \"#utility.yul\":14456:14473   */\n      add\n        /* \"#utility.yul\":14449:14496   */\n      mstore\n        /* \"#utility.yul\":14513:14644   */\n      tag_338\n        /* \"#utility.yul\":14639:14643   */\n      dup2\n        /* \"#utility.yul\":14513:14644   */\n      tag_200\n      jump\t// in\n    tag_338:\n        /* \"#utility.yul\":14505:14644   */\n      swap1\n      pop\n        /* \"#utility.yul\":14232:14651   */\n      swap2\n      swap1\n      pop\n      jump\t// out\n        /* \"#utility.yul\":14657:14886   */\n    tag_201:\n        /* \"#utility.yul\":14797:14831   */\n      0x56656e646f7220636f6e747261637420646f6573206e6f74206861766520656e\n        /* \"#utility.yul\":14793:14794   */\n      0x00\n        /* \"#utility.yul\":14785:14791   */\n      dup3\n        /* \"#utility.yul\":14781:14795   */\n      add\n        /* \"#utility.yul\":14774:14832   */\n      mstore\n        /* \"#utility.yul\":14866:14878   */\n      0x6f75676820457468657200000000000000000000000000000000000000000000\n        /* \"#utility.yul\":14861:14863   */\n      0x20\n        /* \"#utility.yul\":14853:14859   */\n      dup3\n        /* \"#utility.yul\":14849:14864   */\n      add\n        /* \"#utility.yul\":14842:14879   */\n      mstore\n        /* \"#utility.yul\":14657:14886   */\n      pop\n      jump\t// out\n        /* \"#utility.yul\":14892:15258   */\n    tag_202:\n        /* \"#utility.yul\":15034:15037   */\n      0x00\n        /* \"#utility.yul\":15055:15122   */\n      tag_341\n        /* \"#utility.yul\":15119:15121   */\n      0x2a\n        /* \"#utility.yul\":15114:15117   */\n      dup4\n        /* \"#utility.yul\":15055:15122   */\n      tag_177\n      jump\t// in\n    tag_341:\n        /* \"#utility.yul\":15048:15122   */\n      swap2\n      pop\n        /* \"#utility.yul\":15131:15224   */\n      tag_342\n        /* \"#utility.yul\":15220:15223   */\n      dup3\n        /* \"#utility.yul\":15131:15224   */\n      tag_201\n      jump\t// in\n    tag_342:\n        /* \"#utility.yul\":15249:15251   */\n      0x40\n        /* \"#utility.yul\":15244:15247   */\n      dup3\n        /* \"#utility.yul\":15240:15252   */\n      add\n        /* \"#utility.yul\":15233:15252   */\n      swap1\n      pop\n        /* \"#utility.yul\":14892:15258   */\n      swap2\n      swap1\n      pop\n      jump\t// out\n        /* \"#utility.yul\":15264:15683   */\n    tag_134:\n        /* \"#utility.yul\":15430:15434   */\n      0x00\n        /* \"#utility.yul\":15468:15470   */\n      0x20\n        /* \"#utility.yul\":15457:15466   */\n      dup3\n        /* \"#utility.yul\":15453:15471   */\n      add\n        /* \"#utility.yul\":15445:15471   */\n      swap1\n      pop\n        /* \"#utility.yul\":15517:15526   */\n      dup2\n        /* \"#utility.yul\":15511:15515   */\n      dup2\n        /* \"#utility.yul\":15507:15527   */\n      sub\n        /* \"#utility.yul\":15503:15504   */\n      0x00\n        /* \"#utility.yul\":15492:15501   */\n      dup4\n        /* \"#utility.yul\":15488:15505   */\n      add\n        /* \"#utility.yul\":15481:15528   */\n      mstore\n        /* \"#utility.yul\":15545:15676   */\n      tag_344\n        /* \"#utility.yul\":15671:15675   */\n      dup2\n        /* \"#utility.yul\":15545:15676   */\n      tag_202\n      jump\t// in\n    tag_344:\n        /* \"#utility.yul\":15537:15676   */\n      swap1\n      pop\n        /* \"#utility.yul\":15264:15683   */\n      swap2\n      swap1\n      pop\n      jump\t// out\n        /* \"#utility.yul\":15689:16131   */\n    tag_136:\n        /* \"#utility.yul\":15838:15842   */\n      0x00\n        /* \"#utility.yul\":15876:15878   */\n      0x60\n        /* \"#utility.yul\":15865:15874   */\n      dup3\n        /* \"#utility.yul\":15861:15879   */\n      add\n        /* \"#utility.yul\":15853:15879   */\n      swap1\n      pop\n        /* \"#utility.yul\":15889:15960   */\n      tag_346\n        /* \"#utility.yul\":15957:15958   */\n      0x00\n        /* \"#utility.yul\":15946:15955   */\n      dup4\n        /* \"#utility.yul\":15942:15959   */\n      add\n        /* \"#utility.yul\":15933:15939   */\n      dup7\n        /* \"#utility.yul\":15889:15960   */\n      tag_164\n      jump\t// in\n    tag_346:\n        /* \"#utility.yul\":15970:16042   */\n      tag_347\n        /* \"#utility.yul\":16038:16040   */\n      0x20\n        /* \"#utility.yul\":16027:16036   */\n      dup4\n        /* \"#utility.yul\":16023:16041   */\n      add\n        /* \"#utility.yul\":16014:16020   */\n      dup6\n        /* \"#utility.yul\":15970:16042   */\n      tag_164\n      jump\t// in\n    tag_347:\n        /* \"#utility.yul\":16052:16124   */\n      tag_348\n        /* \"#utility.yul\":16120:16122   */\n      0x40\n        /* \"#utility.yul\":16109:16118   */\n      dup4\n        /* \"#utility.yul\":16105:16123   */\n      add\n        /* \"#utility.yul\":16096:16102   */\n      dup5\n        /* \"#utility.yul\":16052:16124   */\n      tag_161\n      jump\t// in\n    tag_348:\n        /* \"#utility.yul\":15689:16131   */\n      swap5\n      swap4\n      pop\n      pop\n      pop\n      pop\n      jump\t// out\n        /* \"#utility.yul\":16137:16365   */\n    tag_203:\n        /* \"#utility.yul\":16277:16311   */\n      0x4661696c656420746f207472616e7366657220746f6b656e7320746f20746865\n        /* \"#utility.yul\":16273:16274   */\n      0x00\n        /* \"#utility.yul\":16265:16271   */\n      dup3\n        /* \"#utility.yul\":16261:16275   */\n      add\n        /* \"#utility.yul\":16254:16312   */\n      mstore\n        /* \"#utility.yul\":16346:16357   */\n      0x20636f6e74726163740000000000000000000000000000000000000000000000\n        /* \"#utility.yul\":16341:16343   */\n      0x20\n        /* \"#utility.yul\":16333:16339   */\n      dup3\n        /* \"#utility.yul\":16329:16344   */\n      add\n        /* \"#utility.yul\":16322:16358   */\n      mstore\n        /* \"#utility.yul\":16137:16365   */\n      pop\n      jump\t// out\n        /* \"#utility.yul\":16371:16737   */\n    tag_204:\n        /* \"#utility.yul\":16513:16516   */\n      0x00\n        /* \"#utility.yul\":16534:16601   */\n      tag_351\n        /* \"#utility.yul\":16598:16600   */\n      0x29\n        /* \"#utility.yul\":16593:16596   */\n      dup4\n        /* \"#utility.yul\":16534:16601   */\n      tag_177\n      jump\t// in\n    tag_351:\n        /* \"#utility.yul\":16527:16601   */\n      swap2\n      pop\n        /* \"#utility.yul\":16610:16703   */\n      tag_352\n        /* \"#utility.yul\":16699:16702   */\n      dup3\n        /* \"#utility.yul\":16610:16703   */\n      tag_203\n      jump\t// in\n    tag_352:\n        /* \"#utility.yul\":16728:16730   */\n      0x40\n        /* \"#utility.yul\":16723:16726   */\n      dup3\n        /* \"#utility.yul\":16719:16731   */\n      add\n        /* \"#utility.yul\":16712:16731   */\n      swap1\n      pop\n        /* \"#utility.yul\":16371:16737   */\n      swap2\n      swap1\n      pop\n      jump\t// out\n        /* \"#utility.yul\":16743:17162   */\n    tag_142:\n        /* \"#utility.yul\":16909:16913   */\n      0x00\n        /* \"#utility.yul\":16947:16949   */\n      0x20\n        /* \"#utility.yul\":16936:16945   */\n      dup3\n        /* \"#utility.yul\":16932:16950   */\n      add\n        /* \"#utility.yul\":16924:16950   */\n      swap1\n      pop\n        /* \"#utility.yul\":16996:17005   */\n      dup2\n        /* \"#utility.yul\":16990:16994   */\n      dup2\n        /* \"#utility.yul\":16986:17006   */\n      sub\n        /* \"#utility.yul\":16982:16983   */\n      0x00\n        /* \"#utility.yul\":16971:16980   */\n      dup4\n        /* \"#utility.yul\":16967:16984   */\n      add\n        /* \"#utility.yul\":16960:17007   */\n      mstore\n        /* \"#utility.yul\":17024:17155   */\n      tag_354\n        /* \"#utility.yul\":17150:17154   */\n      dup2\n        /* \"#utility.yul\":17024:17155   */\n      tag_204\n      jump\t// in\n    tag_354:\n        /* \"#utility.yul\":17016:17155   */\n      swap1\n      pop\n        /* \"#utility.yul\":16743:17162   */\n      swap2\n      swap1\n      pop\n      jump\t// out\n        /* \"#utility.yul\":17168:17350   */\n    tag_205:\n        /* \"#utility.yul\":17308:17342   */\n      0x4661696c656420746f2073656e6420457468657220746f207468652075736572\n        /* \"#utility.yul\":17304:17305   */\n      0x00\n        /* \"#utility.yul\":17296:17302   */\n      dup3\n        /* \"#utility.yul\":17292:17306   */\n      add\n        /* \"#utility.yul\":17285:17343   */\n      mstore\n        /* \"#utility.yul\":17168:17350   */\n      pop\n      jump\t// out\n        /* \"#utility.yul\":17356:17722   */\n    tag_206:\n        /* \"#utility.yul\":17498:17501   */\n      0x00\n        /* \"#utility.yul\":17519:17586   */\n      tag_357\n        /* \"#utility.yul\":17583:17585   */\n      0x20\n        /* \"#utility.yul\":17578:17581   */\n      dup4\n        /* \"#utility.yul\":17519:17586   */\n      tag_177\n      jump\t// in\n    tag_357:\n        /* \"#utility.yul\":17512:17586   */\n      swap2\n      pop\n        /* \"#utility.yul\":17595:17688   */\n      tag_358\n        /* \"#utility.yul\":17684:17687   */\n      dup3\n        /* \"#utility.yul\":17595:17688   */\n      tag_205\n      jump\t// in\n    tag_358:\n        /* \"#utility.yul\":17713:17715   */\n      0x20\n        /* \"#utility.yul\":17708:17711   */\n      dup3\n        /* \"#utility.yul\":17704:17716   */\n      add\n        /* \"#utility.yul\":17697:17716   */\n      swap1\n      pop\n        /* \"#utility.yul\":17356:17722   */\n      swap2\n      swap1\n      pop\n      jump\t// out\n        /* \"#utility.yul\":17728:18147   */\n    tag_149:\n        /* \"#utility.yul\":17894:17898   */\n      0x00\n        /* \"#utility.yul\":17932:17934   */\n      0x20\n        /* \"#utility.yul\":17921:17930   */\n      dup3\n        /* \"#utility.yul\":17917:17935   */\n      add\n        /* \"#utility.yul\":17909:17935   */\n      swap1\n      pop\n        /* \"#utility.yul\":17981:17990   */\n      dup2\n        /* \"#utility.yul\":17975:17979   */\n      dup2\n        /* \"#utility.yul\":17971:17991   */\n      sub\n        /* \"#utility.yul\":17967:17968   */\n      0x00\n        /* \"#utility.yul\":17956:17965   */\n      dup4\n        /* \"#utility.yul\":17952:17969   */\n      add\n        /* \"#utility.yul\":17945:17992   */\n      mstore\n        /* \"#utility.yul\":18009:18140   */\n      tag_360\n        /* \"#utility.yul\":18135:18139   */\n      dup2\n        /* \"#utility.yul\":18009:18140   */\n      tag_206\n      jump\t// in\n    tag_360:\n        /* \"#utility.yul\":18001:18140   */\n      swap1\n      pop\n        /* \"#utility.yul\":17728:18147   */\n      swap2\n      swap1\n      pop\n      jump\t// out\n\n    auxdata: 0xa26469706673582212201e4f66853c0c48724d07b56b625320bfefacd0c938aed1e5d7b53abc6711ba8964736f6c634300081a0033\n}\n",
				"bytecode": {
					"linkReferences": {},
					"object": "6080604052670de0b6b3a764000060025534801561001b575f80fd5b5060405161175f38038061175f833981810160405281019061003d9190610223565b335f73ffffffffffffffffffffffffffffffffffffffff168173ffffffffffffffffffffffffffffffffffffffff16036100ae575f6040517f1e4fbdf70000000000000000000000000000000000000000000000000000000081526004016100a5919061025d565b60405180910390fd5b6100bd8161010460201b60201c565b508060015f6101000a81548173ffffffffffffffffffffffffffffffffffffffff021916908373ffffffffffffffffffffffffffffffffffffffff16021790555050610276565b5f805f9054906101000a900473ffffffffffffffffffffffffffffffffffffffff169050815f806101000a81548173ffffffffffffffffffffffffffffffffffffffff021916908373ffffffffffffffffffffffffffffffffffffffff1602179055508173ffffffffffffffffffffffffffffffffffffffff168173ffffffffffffffffffffffffffffffffffffffff167f8be0079c531659141344cd1fd0a4f28419497f9722a3daafe3b4186f6b6457e060405160405180910390a35050565b5f80fd5b5f73ffffffffffffffffffffffffffffffffffffffff82169050919050565b5f6101f2826101c9565b9050919050565b610202816101e8565b811461020c575f80fd5b50565b5f8151905061021d816101f9565b92915050565b5f60208284031215610238576102376101c5565b5b5f6102458482850161020f565b91505092915050565b610257816101e8565b82525050565b5f6020820190506102705f83018461024e565b92915050565b6114dc806102835f395ff3fe608060405260043610610090575f3560e01c8063b9e205ae11610058578063b9e205ae1461012a578063d0febe4c14610152578063f2fde38b14610170578063fc0c546a14610198578063fe784eaa146101c257610090565b80633ba0b9a9146100945780633ccfd60b146100be578063715018a6146100d45780638d8f2adb146100ea5780638da5cb5b14610100575b5f80fd5b34801561009f575f80fd5b506100a86101ea565b6040516100b59190610be1565b60405180910390f35b3480156100c9575f80fd5b506100d26101f0565b005b3480156100df575f80fd5b506100e86102ea565b005b3480156100f5575f80fd5b506100fe6102fd565b005b34801561010b575f80fd5b5061011461048d565b6040516101219190610c39565b60405180910390f35b348015610135575f80fd5b50610150600480360381019061014b9190610c80565b6104b4565b005b61015a6104c6565b6040516101679190610be1565b60405180910390f35b34801561017b575f80fd5b5061019660048036038101906101919190610cd5565b610744565b005b3480156101a3575f80fd5b506101ac6107c8565b6040516101b99190610d5b565b60405180910390f35b3480156101cd575f80fd5b506101e860048036038101906101e39190610c80565b6107ed565b005b60025481565b6101f8610a7a565b5f4790505f811161023e576040517f08c379a000000000000000000000000000000000000000000000000000000000815260040161023590610dce565b60405180910390fd5b5f3373ffffffffffffffffffffffffffffffffffffffff168260405161026390610e19565b5f6040518083038185875af1925050503d805f811461029d576040519150601f19603f3d011682016040523d82523d5f602084013e6102a2565b606091505b50509050806102e6576040517f08c379a00000000000000000000000000000000000000000000000000000000081526004016102dd90610e9d565b60405180910390fd5b5050565b6102f2610a7a565b6102fb5f610b01565b565b610305610a7a565b5f60015f9054906101000a900473ffffffffffffffffffffffffffffffffffffffff1673ffffffffffffffffffffffffffffffffffffffff166370a08231306040518263ffffffff1660e01b81526004016103609190610c39565b602060405180830381865afa15801561037b573d5f803e3d5ffd5b505050506040513d601f19601f8201168201806040525081019061039f9190610ecf565b90505f81111561048a575f60015f9054906101000a900473ffffffffffffffffffffffffffffffffffffffff1673ffffffffffffffffffffffffffffffffffffffff1663a9059cbb33846040518363ffffffff1660e01b8152600401610406929190610efa565b6020604051808303815f875af1158015610422573d5f803e3d5ffd5b505050506040513d601f19601f820116820180604052508101906104469190610f56565b905080610488576040517f08c379a000000000000000000000000000000000000000000000000000000000815260040161047f90610ff1565b60405180910390fd5b505b50565b5f805f9054906101000a900473ffffffffffffffffffffffffffffffffffffffff16905090565b6104bc610a7a565b8060028190555050565b5f803411610509576040517f08c379a000000000000000000000000000000000000000000000000000000000815260040161050090611059565b60405180910390fd5b5f670de0b6b3a76400006002543461052191906110a4565b61052b9190611112565b90505f60015f9054906101000a900473ffffffffffffffffffffffffffffffffffffffff1673ffffffffffffffffffffffffffffffffffffffff166370a08231306040518263ffffffff1660e01b81526004016105889190610c39565b602060405180830381865afa1580156105a3573d5f803e3d5ffd5b505050506040513d601f19601f820116820180604052508101906105c79190610ecf565b90508181101561060c576040517f08c379a0000000000000000000000000000000000000000000000000000000008152600401610603906111b2565b60405180910390fd5b5f60015f9054906101000a900473ffffffffffffffffffffffffffffffffffffffff1673ffffffffffffffffffffffffffffffffffffffff1663a9059cbb33856040518363ffffffff1660e01b8152600401610669929190610efa565b6020604051808303815f875af1158015610685573d5f803e3d5ffd5b505050506040513d601f19601f820116820180604052508101906106a99190610f56565b9050806106eb576040517f08c379a00000000000000000000000000000000000000000000000000000000081526004016106e29061121a565b60405180910390fd5b3373ffffffffffffffffffffffffffffffffffffffff167f0a37b72bb67eee30e09084cf386f8a17817c57f620c3ab95fb25d6a20356ec773485604051610733929190611238565b60405180910390a282935050505090565b61074c610a7a565b5f73ffffffffffffffffffffffffffffffffffffffff168173ffffffffffffffffffffffffffffffffffffffff16036107bc575f6040517f1e4fbdf70000000000000000000000000000000000000000000000000000000081526004016107b39190610c39565b60405180910390fd5b6107c581610b01565b50565b60015f9054906101000a900473ffffffffffffffffffffffffffffffffffffffff1681565b5f811161082f576040517f08c379a0000000000000000000000000000000000000000000000000000000008152600401610826906112cf565b60405180910390fd5b5f600254670de0b6b3a76400008361084791906110a4565b6108519190611112565b90505f4790508181101561089a576040517f08c379a00000000000000000000000000000000000000000000000000000000081526004016108919061135d565b60405180910390fd5b5f60015f9054906101000a900473ffffffffffffffffffffffffffffffffffffffff1673ffffffffffffffffffffffffffffffffffffffff166323b872dd3330876040518463ffffffff1660e01b81526004016108f99392919061137b565b6020604051808303815f875af1158015610915573d5f803e3d5ffd5b505050506040513d601f19601f820116820180604052508101906109399190610f56565b90508061097b576040517f08c379a000000000000000000000000000000000000000000000000000000000815260040161097290611420565b60405180910390fd5b5f3373ffffffffffffffffffffffffffffffffffffffff16846040516109a090610e19565b5f6040518083038185875af1925050503d805f81146109da576040519150601f19603f3d011682016040523d82523d5f602084013e6109df565b606091505b5050905080610a23576040517f08c379a0000000000000000000000000000000000000000000000000000000008152600401610a1a90611488565b60405180910390fd5b3373ffffffffffffffffffffffffffffffffffffffff167f77f92a1b6a1a11de8ca49515ad4c1fad45632dd3442167d74b90b304a3c7a7588686604051610a6b929190611238565b60405180910390a25050505050565b610a82610bc2565b73ffffffffffffffffffffffffffffffffffffffff16610aa061048d565b73ffffffffffffffffffffffffffffffffffffffff1614610aff57610ac3610bc2565b6040517f118cdaa7000000000000000000000000000000000000000000000000000000008152600401610af69190610c39565b60405180910390fd5b565b5f805f9054906101000a900473ffffffffffffffffffffffffffffffffffffffff169050815f806101000a81548173ffffffffffffffffffffffffffffffffffffffff021916908373ffffffffffffffffffffffffffffffffffffffff1602179055508173ffffffffffffffffffffffffffffffffffffffff168173ffffffffffffffffffffffffffffffffffffffff167f8be0079c531659141344cd1fd0a4f28419497f9722a3daafe3b4186f6b6457e060405160405180910390a35050565b5f33905090565b5f819050919050565b610bdb81610bc9565b82525050565b5f602082019050610bf45f830184610bd2565b92915050565b5f73ffffffffffffffffffffffffffffffffffffffff82169050919050565b5f610c2382610bfa565b9050919050565b610c3381610c19565b82525050565b5f602082019050610c4c5f830184610c2a565b92915050565b5f80fd5b610c5f81610bc9565b8114610c69575f80fd5b50565b5f81359050610c7a81610c56565b92915050565b5f60208284031215610c9557610c94610c52565b5b5f610ca284828501610c6c565b91505092915050565b610cb481610c19565b8114610cbe575f80fd5b50565b5f81359050610ccf81610cab565b92915050565b5f60208284031215610cea57610ce9610c52565b5b5f610cf784828501610cc1565b91505092915050565b5f819050919050565b5f610d23610d1e610d1984610bfa565b610d00565b610bfa565b9050919050565b5f610d3482610d09565b9050919050565b5f610d4582610d2a565b9050919050565b610d5581610d3b565b82525050565b5f602082019050610d6e5f830184610d4c565b92915050565b5f82825260208201905092915050565b7f4e6f2062616c616e636520746f207769746864726177000000000000000000005f82015250565b5f610db8601683610d74565b9150610dc382610d84565b602082019050919050565b5f6020820190508181035f830152610de581610dac565b9050919050565b5f81905092915050565b50565b5f610e045f83610dec565b9150610e0f82610df6565b5f82019050919050565b5f610e2382610df9565b9150819050919050565b7f4661696c656420746f2073656e6420457468657220746f20746865206f776e655f8201527f7200000000000000000000000000000000000000000000000000000000000000602082015250565b5f610e87602183610d74565b9150610e9282610e2d565b604082019050919050565b5f6020820190508181035f830152610eb481610e7b565b9050919050565b5f81519050610ec981610c56565b92915050565b5f60208284031215610ee457610ee3610c52565b5b5f610ef184828501610ebb565b91505092915050565b5f604082019050610f0d5f830185610c2a565b610f1a6020830184610bd2565b9392505050565b5f8115159050919050565b610f3581610f21565b8114610f3f575f80fd5b50565b5f81519050610f5081610f2c565b92915050565b5f60208284031215610f6b57610f6a610c52565b5b5f610f7884828501610f42565b91505092915050565b7f4661696c656420746f2073656e6420746f6b656e7320746f20746865206f776e5f8201527f6572000000000000000000000000000000000000000000000000000000000000602082015250565b5f610fdb602283610d74565b9150610fe682610f81565b604082019050919050565b5f6020820190508181035f83015261100881610fcf565b9050919050565b7f53656e6420457468657220746f2062757920736f6d6520746f6b656e730000005f82015250565b5f611043601d83610d74565b915061104e8261100f565b602082019050919050565b5f6020820190508181035f83015261107081611037565b9050919050565b7f4e487b71000000000000000000000000000000000000000000000000000000005f52601160045260245ffd5b5f6110ae82610bc9565b91506110b983610bc9565b92508282026110c781610bc9565b915082820484148315176110de576110dd611077565b5b5092915050565b7f4e487b71000000000000000000000000000000000000000000000000000000005f52601260045260245ffd5b5f61111c82610bc9565b915061112783610bc9565b925082611137576111366110e5565b5b828204905092915050565b7f56656e646f7220636f6e747261637420686173206e6f7420656e6f75676820745f8201527f6f6b656e7320696e206974732062616c616e6365000000000000000000000000602082015250565b5f61119c603483610d74565b91506111a782611142565b604082019050919050565b5f6020820190508181035f8301526111c981611190565b9050919050565b7f4661696c656420746f207472616e7366657220746f6b656e20746f20757365725f82015250565b5f611204602083610d74565b915061120f826111d0565b602082019050919050565b5f6020820190508181035f830152611231816111f8565b9050919050565b5f60408201905061124b5f830185610bd2565b6112586020830184610bd2565b9392505050565b7f416d6f756e74206f6620746f6b656e73206d75737420626520677265617465725f8201527f207468616e207a65726f00000000000000000000000000000000000000000000602082015250565b5f6112b9602a83610d74565b91506112c48261125f565b604082019050919050565b5f6020820190508181035f8301526112e6816112ad565b9050919050565b7f56656e646f7220636f6e747261637420646f6573206e6f74206861766520656e5f8201527f6f75676820457468657200000000000000000000000000000000000000000000602082015250565b5f611347602a83610d74565b9150611352826112ed565b604082019050919050565b5f6020820190508181035f8301526113748161133b565b9050919050565b5f60608201905061138e5f830186610c2a565b61139b6020830185610c2a565b6113a86040830184610bd2565b949350505050565b7f4661696c656420746f207472616e7366657220746f6b656e7320746f207468655f8201527f20636f6e74726163740000000000000000000000000000000000000000000000602082015250565b5f61140a602983610d74565b9150611415826113b0565b604082019050919050565b5f6020820190508181035f830152611437816113fe565b9050919050565b7f4661696c656420746f2073656e6420457468657220746f2074686520757365725f82015250565b5f611472602083610d74565b915061147d8261143e565b602082019050919050565b5f6020820190508181035f83015261149f81611466565b905091905056fea26469706673582212201e4f66853c0c48724d07b56b625320bfefacd0c938aed1e5d7b53abc6711ba8964736f6c634300081a0033",
					"opcodes": "PUSH1 0x80 PUSH1 0x40 MSTORE PUSH8 0xDE0B6B3A7640000 PUSH1 0x2 SSTORE CALLVALUE DUP1 ISZERO PUSH2 0x1B JUMPI PUSH0 DUP1 REVERT JUMPDEST POP PUSH1 0x40 MLOAD PUSH2 0x175F CODESIZE SUB DUP1 PUSH2 0x175F DUP4 CODECOPY DUP2 DUP2 ADD PUSH1 0x40 MSTORE DUP2 ADD SWAP1 PUSH2 0x3D SWAP2 SWAP1 PUSH2 0x223 JUMP JUMPDEST CALLER PUSH0 PUSH20 0xFFFFFFFFFFFFFFFFFFFFFFFFFFFFFFFFFFFFFFFF AND DUP2 PUSH20 0xFFFFFFFFFFFFFFFFFFFFFFFFFFFFFFFFFFFFFFFF AND SUB PUSH2 0xAE JUMPI PUSH0 PUSH1 0x40 MLOAD PUSH32 0x1E4FBDF700000000000000000000000000000000000000000000000000000000 DUP2 MSTORE PUSH1 0x4 ADD PUSH2 0xA5 SWAP2 SWAP1 PUSH2 0x25D JUMP JUMPDEST PUSH1 0x40 MLOAD DUP1 SWAP2 SUB SWAP1 REVERT JUMPDEST PUSH2 0xBD DUP2 PUSH2 0x104 PUSH1 0x20 SHL PUSH1 0x20 SHR JUMP JUMPDEST POP DUP1 PUSH1 0x1 PUSH0 PUSH2 0x100 EXP DUP2 SLOAD DUP2 PUSH20 0xFFFFFFFFFFFFFFFFFFFFFFFFFFFFFFFFFFFFFFFF MUL NOT AND SWAP1 DUP4 PUSH20 0xFFFFFFFFFFFFFFFFFFFFFFFFFFFFFFFFFFFFFFFF AND MUL OR SWAP1 SSTORE POP POP PUSH2 0x276 JUMP JUMPDEST PUSH0 DUP1 PUSH0 SWAP1 SLOAD SWAP1 PUSH2 0x100 EXP SWAP1 DIV PUSH20 0xFFFFFFFFFFFFFFFFFFFFFFFFFFFFFFFFFFFFFFFF AND SWAP1 POP DUP2 PUSH0 DUP1 PUSH2 0x100 EXP DUP2 SLOAD DUP2 PUSH20 0xFFFFFFFFFFFFFFFFFFFFFFFFFFFFFFFFFFFFFFFF MUL NOT AND SWAP1 DUP4 PUSH20 0xFFFFFFFFFFFFFFFFFFFFFFFFFFFFFFFFFFFFFFFF AND MUL OR SWAP1 SSTORE POP DUP2 PUSH20 0xFFFFFFFFFFFFFFFFFFFFFFFFFFFFFFFFFFFFFFFF AND DUP2 PUSH20 0xFFFFFFFFFFFFFFFFFFFFFFFFFFFFFFFFFFFFFFFF AND PUSH32 0x8BE0079C531659141344CD1FD0A4F28419497F9722A3DAAFE3B4186F6B6457E0 PUSH1 0x40 MLOAD PUSH1 0x40 MLOAD DUP1 SWAP2 SUB SWAP1 LOG3 POP POP JUMP JUMPDEST PUSH0 DUP1 REVERT JUMPDEST PUSH0 PUSH20 0xFFFFFFFFFFFFFFFFFFFFFFFFFFFFFFFFFFFFFFFF DUP3 AND SWAP1 POP SWAP2 SWAP1 POP JUMP JUMPDEST PUSH0 PUSH2 0x1F2 DUP3 PUSH2 0x1C9 JUMP JUMPDEST SWAP1 POP SWAP2 SWAP1 POP JUMP JUMPDEST PUSH2 0x202 DUP2 PUSH2 0x1E8 JUMP JUMPDEST DUP2 EQ PUSH2 0x20C JUMPI PUSH0 DUP1 REVERT JUMPDEST POP JUMP JUMPDEST PUSH0 DUP2 MLOAD SWAP1 POP PUSH2 0x21D DUP2 PUSH2 0x1F9 JUMP JUMPDEST SWAP3 SWAP2 POP POP JUMP JUMPDEST PUSH0 PUSH1 0x20 DUP3 DUP5 SUB SLT ISZERO PUSH2 0x238 JUMPI PUSH2 0x237 PUSH2 0x1C5 JUMP JUMPDEST JUMPDEST PUSH0 PUSH2 0x245 DUP5 DUP3 DUP6 ADD PUSH2 0x20F JUMP JUMPDEST SWAP2 POP POP SWAP3 SWAP2 POP POP JUMP JUMPDEST PUSH2 0x257 DUP2 PUSH2 0x1E8 JUMP JUMPDEST DUP3 MSTORE POP POP JUMP JUMPDEST PUSH0 PUSH1 0x20 DUP3 ADD SWAP1 POP PUSH2 0x270 PUSH0 DUP4 ADD DUP5 PUSH2 0x24E JUMP JUMPDEST SWAP3 SWAP2 POP POP JUMP JUMPDEST PUSH2 0x14DC DUP1 PUSH2 0x283 PUSH0 CODECOPY PUSH0 RETURN INVALID PUSH1 0x80 PUSH1 0x40 MSTORE PUSH1 0x4 CALLDATASIZE LT PUSH2 0x90 JUMPI PUSH0 CALLDATALOAD PUSH1 0xE0 SHR DUP1 PUSH4 0xB9E205AE GT PUSH2 0x58 JUMPI DUP1 PUSH4 0xB9E205AE EQ PUSH2 0x12A JUMPI DUP1 PUSH4 0xD0FEBE4C EQ PUSH2 0x152 JUMPI DUP1 PUSH4 0xF2FDE38B EQ PUSH2 0x170 JUMPI DUP1 PUSH4 0xFC0C546A EQ PUSH2 0x198 JUMPI DUP1 PUSH4 0xFE784EAA EQ PUSH2 0x1C2 JUMPI PUSH2 0x90 JUMP JUMPDEST DUP1 PUSH4 0x3BA0B9A9 EQ PUSH2 0x94 JUMPI DUP1 PUSH4 0x3CCFD60B EQ PUSH2 0xBE JUMPI DUP1 PUSH4 0x715018A6 EQ PUSH2 0xD4 JUMPI DUP1 PUSH4 0x8D8F2ADB EQ PUSH2 0xEA JUMPI DUP1 PUSH4 0x8DA5CB5B EQ PUSH2 0x100 JUMPI JUMPDEST PUSH0 DUP1 REVERT JUMPDEST CALLVALUE DUP1 ISZERO PUSH2 0x9F JUMPI PUSH0 DUP1 REVERT JUMPDEST POP PUSH2 0xA8 PUSH2 0x1EA JUMP JUMPDEST PUSH1 0x40 MLOAD PUSH2 0xB5 SWAP2 SWAP1 PUSH2 0xBE1 JUMP JUMPDEST PUSH1 0x40 MLOAD DUP1 SWAP2 SUB SWAP1 RETURN JUMPDEST CALLVALUE DUP1 ISZERO PUSH2 0xC9 JUMPI PUSH0 DUP1 REVERT JUMPDEST POP PUSH2 0xD2 PUSH2 0x1F0 JUMP JUMPDEST STOP JUMPDEST CALLVALUE DUP1 ISZERO PUSH2 0xDF JUMPI PUSH0 DUP1 REVERT JUMPDEST POP PUSH2 0xE8 PUSH2 0x2EA JUMP JUMPDEST STOP JUMPDEST CALLVALUE DUP1 ISZERO PUSH2 0xF5 JUMPI PUSH0 DUP1 REVERT JUMPDEST POP PUSH2 0xFE PUSH2 0x2FD JUMP JUMPDEST STOP JUMPDEST CALLVALUE DUP1 ISZERO PUSH2 0x10B JUMPI PUSH0 DUP1 REVERT JUMPDEST POP PUSH2 0x114 PUSH2 0x48D JUMP JUMPDEST PUSH1 0x40 MLOAD PUSH2 0x121 SWAP2 SWAP1 PUSH2 0xC39 JUMP JUMPDEST PUSH1 0x40 MLOAD DUP1 SWAP2 SUB SWAP1 RETURN JUMPDEST CALLVALUE DUP1 ISZERO PUSH2 0x135 JUMPI PUSH0 DUP1 REVERT JUMPDEST POP PUSH2 0x150 PUSH1 0x4 DUP1 CALLDATASIZE SUB DUP2 ADD SWAP1 PUSH2 0x14B SWAP2 SWAP1 PUSH2 0xC80 JUMP JUMPDEST PUSH2 0x4B4 JUMP JUMPDEST STOP JUMPDEST PUSH2 0x15A PUSH2 0x4C6 JUMP JUMPDEST PUSH1 0x40 MLOAD PUSH2 0x167 SWAP2 SWAP1 PUSH2 0xBE1 JUMP JUMPDEST PUSH1 0x40 MLOAD DUP1 SWAP2 SUB SWAP1 RETURN JUMPDEST CALLVALUE DUP1 ISZERO PUSH2 0x17B JUMPI PUSH0 DUP1 REVERT JUMPDEST POP PUSH2 0x196 PUSH1 0x4 DUP1 CALLDATASIZE SUB DUP2 ADD SWAP1 PUSH2 0x191 SWAP2 SWAP1 PUSH2 0xCD5 JUMP JUMPDEST PUSH2 0x744 JUMP JUMPDEST STOP JUMPDEST CALLVALUE DUP1 ISZERO PUSH2 0x1A3 JUMPI PUSH0 DUP1 REVERT JUMPDEST POP PUSH2 0x1AC PUSH2 0x7C8 JUMP JUMPDEST PUSH1 0x40 MLOAD PUSH2 0x1B9 SWAP2 SWAP1 PUSH2 0xD5B JUMP JUMPDEST PUSH1 0x40 MLOAD DUP1 SWAP2 SUB SWAP1 RETURN JUMPDEST CALLVALUE DUP1 ISZERO PUSH2 0x1CD JUMPI PUSH0 DUP1 REVERT JUMPDEST POP PUSH2 0x1E8 PUSH1 0x4 DUP1 CALLDATASIZE SUB DUP2 ADD SWAP1 PUSH2 0x1E3 SWAP2 SWAP1 PUSH2 0xC80 JUMP JUMPDEST PUSH2 0x7ED JUMP JUMPDEST STOP JUMPDEST PUSH1 0x2 SLOAD DUP2 JUMP JUMPDEST PUSH2 0x1F8 PUSH2 0xA7A JUMP JUMPDEST PUSH0 SELFBALANCE SWAP1 POP PUSH0 DUP2 GT PUSH2 0x23E JUMPI PUSH1 0x40 MLOAD PUSH32 0x8C379A000000000000000000000000000000000000000000000000000000000 DUP2 MSTORE PUSH1 0x4 ADD PUSH2 0x235 SWAP1 PUSH2 0xDCE JUMP JUMPDEST PUSH1 0x40 MLOAD DUP1 SWAP2 SUB SWAP1 REVERT JUMPDEST PUSH0 CALLER PUSH20 0xFFFFFFFFFFFFFFFFFFFFFFFFFFFFFFFFFFFFFFFF AND DUP3 PUSH1 0x40 MLOAD PUSH2 0x263 SWAP1 PUSH2 0xE19 JUMP JUMPDEST PUSH0 PUSH1 0x40 MLOAD DUP1 DUP4 SUB DUP2 DUP6 DUP8 GAS CALL SWAP3 POP POP POP RETURNDATASIZE DUP1 PUSH0 DUP2 EQ PUSH2 0x29D JUMPI PUSH1 0x40 MLOAD SWAP2 POP PUSH1 0x1F NOT PUSH1 0x3F RETURNDATASIZE ADD AND DUP3 ADD PUSH1 0x40 MSTORE RETURNDATASIZE DUP3 MSTORE RETURNDATASIZE PUSH0 PUSH1 0x20 DUP5 ADD RETURNDATACOPY PUSH2 0x2A2 JUMP JUMPDEST PUSH1 0x60 SWAP2 POP JUMPDEST POP POP SWAP1 POP DUP1 PUSH2 0x2E6 JUMPI PUSH1 0x40 MLOAD PUSH32 0x8C379A000000000000000000000000000000000000000000000000000000000 DUP2 MSTORE PUSH1 0x4 ADD PUSH2 0x2DD SWAP1 PUSH2 0xE9D JUMP JUMPDEST PUSH1 0x40 MLOAD DUP1 SWAP2 SUB SWAP1 REVERT JUMPDEST POP POP JUMP JUMPDEST PUSH2 0x2F2 PUSH2 0xA7A JUMP JUMPDEST PUSH2 0x2FB PUSH0 PUSH2 0xB01 JUMP JUMPDEST JUMP JUMPDEST PUSH2 0x305 PUSH2 0xA7A JUMP JUMPDEST PUSH0 PUSH1 0x1 PUSH0 SWAP1 SLOAD SWAP1 PUSH2 0x100 EXP SWAP1 DIV PUSH20 0xFFFFFFFFFFFFFFFFFFFFFFFFFFFFFFFFFFFFFFFF AND PUSH20 0xFFFFFFFFFFFFFFFFFFFFFFFFFFFFFFFFFFFFFFFF AND PUSH4 0x70A08231 ADDRESS PUSH1 0x40 MLOAD DUP3 PUSH4 0xFFFFFFFF AND PUSH1 0xE0 SHL DUP2 MSTORE PUSH1 0x4 ADD PUSH2 0x360 SWAP2 SWAP1 PUSH2 0xC39 JUMP JUMPDEST PUSH1 0x20 PUSH1 0x40 MLOAD DUP1 DUP4 SUB DUP2 DUP7 GAS STATICCALL ISZERO DUP1 ISZERO PUSH2 0x37B JUMPI RETURNDATASIZE PUSH0 DUP1 RETURNDATACOPY RETURNDATASIZE PUSH0 REVERT JUMPDEST POP POP POP POP PUSH1 0x40 MLOAD RETURNDATASIZE PUSH1 0x1F NOT PUSH1 0x1F DUP3 ADD AND DUP3 ADD DUP1 PUSH1 0x40 MSTORE POP DUP2 ADD SWAP1 PUSH2 0x39F SWAP2 SWAP1 PUSH2 0xECF JUMP JUMPDEST SWAP1 POP PUSH0 DUP2 GT ISZERO PUSH2 0x48A JUMPI PUSH0 PUSH1 0x1 PUSH0 SWAP1 SLOAD SWAP1 PUSH2 0x100 EXP SWAP1 DIV PUSH20 0xFFFFFFFFFFFFFFFFFFFFFFFFFFFFFFFFFFFFFFFF AND PUSH20 0xFFFFFFFFFFFFFFFFFFFFFFFFFFFFFFFFFFFFFFFF AND PUSH4 0xA9059CBB CALLER DUP5 PUSH1 0x40 MLOAD DUP4 PUSH4 0xFFFFFFFF AND PUSH1 0xE0 SHL DUP2 MSTORE PUSH1 0x4 ADD PUSH2 0x406 SWAP3 SWAP2 SWAP1 PUSH2 0xEFA JUMP JUMPDEST PUSH1 0x20 PUSH1 0x40 MLOAD DUP1 DUP4 SUB DUP2 PUSH0 DUP8 GAS CALL ISZERO DUP1 ISZERO PUSH2 0x422 JUMPI RETURNDATASIZE PUSH0 DUP1 RETURNDATACOPY RETURNDATASIZE PUSH0 REVERT JUMPDEST POP POP POP POP PUSH1 0x40 MLOAD RETURNDATASIZE PUSH1 0x1F NOT PUSH1 0x1F DUP3 ADD AND DUP3 ADD DUP1 PUSH1 0x40 MSTORE POP DUP2 ADD SWAP1 PUSH2 0x446 SWAP2 SWAP1 PUSH2 0xF56 JUMP JUMPDEST SWAP1 POP DUP1 PUSH2 0x488 JUMPI PUSH1 0x40 MLOAD PUSH32 0x8C379A000000000000000000000000000000000000000000000000000000000 DUP2 MSTORE PUSH1 0x4 ADD PUSH2 0x47F SWAP1 PUSH2 0xFF1 JUMP JUMPDEST PUSH1 0x40 MLOAD DUP1 SWAP2 SUB SWAP1 REVERT JUMPDEST POP JUMPDEST POP JUMP JUMPDEST PUSH0 DUP1 PUSH0 SWAP1 SLOAD SWAP1 PUSH2 0x100 EXP SWAP1 DIV PUSH20 0xFFFFFFFFFFFFFFFFFFFFFFFFFFFFFFFFFFFFFFFF AND SWAP1 POP SWAP1 JUMP JUMPDEST PUSH2 0x4BC PUSH2 0xA7A JUMP JUMPDEST DUP1 PUSH1 0x2 DUP2 SWAP1 SSTORE POP POP JUMP JUMPDEST PUSH0 DUP1 CALLVALUE GT PUSH2 0x509 JUMPI PUSH1 0x40 MLOAD PUSH32 0x8C379A000000000000000000000000000000000000000000000000000000000 DUP2 MSTORE PUSH1 0x4 ADD PUSH2 0x500 SWAP1 PUSH2 0x1059 JUMP JUMPDEST PUSH1 0x40 MLOAD DUP1 SWAP2 SUB SWAP1 REVERT JUMPDEST PUSH0 PUSH8 0xDE0B6B3A7640000 PUSH1 0x2 SLOAD CALLVALUE PUSH2 0x521 SWAP2 SWAP1 PUSH2 0x10A4 JUMP JUMPDEST PUSH2 0x52B SWAP2 SWAP1 PUSH2 0x1112 JUMP JUMPDEST SWAP1 POP PUSH0 PUSH1 0x1 PUSH0 SWAP1 SLOAD SWAP1 PUSH2 0x100 EXP SWAP1 DIV PUSH20 0xFFFFFFFFFFFFFFFFFFFFFFFFFFFFFFFFFFFFFFFF AND PUSH20 0xFFFFFFFFFFFFFFFFFFFFFFFFFFFFFFFFFFFFFFFF AND PUSH4 0x70A08231 ADDRESS PUSH1 0x40 MLOAD DUP3 PUSH4 0xFFFFFFFF AND PUSH1 0xE0 SHL DUP2 MSTORE PUSH1 0x4 ADD PUSH2 0x588 SWAP2 SWAP1 PUSH2 0xC39 JUMP JUMPDEST PUSH1 0x20 PUSH1 0x40 MLOAD DUP1 DUP4 SUB DUP2 DUP7 GAS STATICCALL ISZERO DUP1 ISZERO PUSH2 0x5A3 JUMPI RETURNDATASIZE PUSH0 DUP1 RETURNDATACOPY RETURNDATASIZE PUSH0 REVERT JUMPDEST POP POP POP POP PUSH1 0x40 MLOAD RETURNDATASIZE PUSH1 0x1F NOT PUSH1 0x1F DUP3 ADD AND DUP3 ADD DUP1 PUSH1 0x40 MSTORE POP DUP2 ADD SWAP1 PUSH2 0x5C7 SWAP2 SWAP1 PUSH2 0xECF JUMP JUMPDEST SWAP1 POP DUP2 DUP2 LT ISZERO PUSH2 0x60C JUMPI PUSH1 0x40 MLOAD PUSH32 0x8C379A000000000000000000000000000000000000000000000000000000000 DUP2 MSTORE PUSH1 0x4 ADD PUSH2 0x603 SWAP1 PUSH2 0x11B2 JUMP JUMPDEST PUSH1 0x40 MLOAD DUP1 SWAP2 SUB SWAP1 REVERT JUMPDEST PUSH0 PUSH1 0x1 PUSH0 SWAP1 SLOAD SWAP1 PUSH2 0x100 EXP SWAP1 DIV PUSH20 0xFFFFFFFFFFFFFFFFFFFFFFFFFFFFFFFFFFFFFFFF AND PUSH20 0xFFFFFFFFFFFFFFFFFFFFFFFFFFFFFFFFFFFFFFFF AND PUSH4 0xA9059CBB CALLER DUP6 PUSH1 0x40 MLOAD DUP4 PUSH4 0xFFFFFFFF AND PUSH1 0xE0 SHL DUP2 MSTORE PUSH1 0x4 ADD PUSH2 0x669 SWAP3 SWAP2 SWAP1 PUSH2 0xEFA JUMP JUMPDEST PUSH1 0x20 PUSH1 0x40 MLOAD DUP1 DUP4 SUB DUP2 PUSH0 DUP8 GAS CALL ISZERO DUP1 ISZERO PUSH2 0x685 JUMPI RETURNDATASIZE PUSH0 DUP1 RETURNDATACOPY RETURNDATASIZE PUSH0 REVERT JUMPDEST POP POP POP POP PUSH1 0x40 MLOAD RETURNDATASIZE PUSH1 0x1F NOT PUSH1 0x1F DUP3 ADD AND DUP3 ADD DUP1 PUSH1 0x40 MSTORE POP DUP2 ADD SWAP1 PUSH2 0x6A9 SWAP2 SWAP1 PUSH2 0xF56 JUMP JUMPDEST SWAP1 POP DUP1 PUSH2 0x6EB JUMPI PUSH1 0x40 MLOAD PUSH32 0x8C379A000000000000000000000000000000000000000000000000000000000 DUP2 MSTORE PUSH1 0x4 ADD PUSH2 0x6E2 SWAP1 PUSH2 0x121A JUMP JUMPDEST PUSH1 0x40 MLOAD DUP1 SWAP2 SUB SWAP1 REVERT JUMPDEST CALLER PUSH20 0xFFFFFFFFFFFFFFFFFFFFFFFFFFFFFFFFFFFFFFFF AND PUSH32 0xA37B72BB67EEE30E09084CF386F8A17817C57F620C3AB95FB25D6A20356EC77 CALLVALUE DUP6 PUSH1 0x40 MLOAD PUSH2 0x733 SWAP3 SWAP2 SWAP1 PUSH2 0x1238 JUMP JUMPDEST PUSH1 0x40 MLOAD DUP1 SWAP2 SUB SWAP1 LOG2 DUP3 SWAP4 POP POP POP POP SWAP1 JUMP JUMPDEST PUSH2 0x74C PUSH2 0xA7A JUMP JUMPDEST PUSH0 PUSH20 0xFFFFFFFFFFFFFFFFFFFFFFFFFFFFFFFFFFFFFFFF AND DUP2 PUSH20 0xFFFFFFFFFFFFFFFFFFFFFFFFFFFFFFFFFFFFFFFF AND SUB PUSH2 0x7BC JUMPI PUSH0 PUSH1 0x40 MLOAD PUSH32 0x1E4FBDF700000000000000000000000000000000000000000000000000000000 DUP2 MSTORE PUSH1 0x4 ADD PUSH2 0x7B3 SWAP2 SWAP1 PUSH2 0xC39 JUMP JUMPDEST PUSH1 0x40 MLOAD DUP1 SWAP2 SUB SWAP1 REVERT JUMPDEST PUSH2 0x7C5 DUP2 PUSH2 0xB01 JUMP JUMPDEST POP JUMP JUMPDEST PUSH1 0x1 PUSH0 SWAP1 SLOAD SWAP1 PUSH2 0x100 EXP SWAP1 DIV PUSH20 0xFFFFFFFFFFFFFFFFFFFFFFFFFFFFFFFFFFFFFFFF AND DUP2 JUMP JUMPDEST PUSH0 DUP2 GT PUSH2 0x82F JUMPI PUSH1 0x40 MLOAD PUSH32 0x8C379A000000000000000000000000000000000000000000000000000000000 DUP2 MSTORE PUSH1 0x4 ADD PUSH2 0x826 SWAP1 PUSH2 0x12CF JUMP JUMPDEST PUSH1 0x40 MLOAD DUP1 SWAP2 SUB SWAP1 REVERT JUMPDEST PUSH0 PUSH1 0x2 SLOAD PUSH8 0xDE0B6B3A7640000 DUP4 PUSH2 0x847 SWAP2 SWAP1 PUSH2 0x10A4 JUMP JUMPDEST PUSH2 0x851 SWAP2 SWAP1 PUSH2 0x1112 JUMP JUMPDEST SWAP1 POP PUSH0 SELFBALANCE SWAP1 POP DUP2 DUP2 LT ISZERO PUSH2 0x89A JUMPI PUSH1 0x40 MLOAD PUSH32 0x8C379A000000000000000000000000000000000000000000000000000000000 DUP2 MSTORE PUSH1 0x4 ADD PUSH2 0x891 SWAP1 PUSH2 0x135D JUMP JUMPDEST PUSH1 0x40 MLOAD DUP1 SWAP2 SUB SWAP1 REVERT JUMPDEST PUSH0 PUSH1 0x1 PUSH0 SWAP1 SLOAD SWAP1 PUSH2 0x100 EXP SWAP1 DIV PUSH20 0xFFFFFFFFFFFFFFFFFFFFFFFFFFFFFFFFFFFFFFFF AND PUSH20 0xFFFFFFFFFFFFFFFFFFFFFFFFFFFFFFFFFFFFFFFF AND PUSH4 0x23B872DD CALLER ADDRESS DUP8 PUSH1 0x40 MLOAD DUP5 PUSH4 0xFFFFFFFF AND PUSH1 0xE0 SHL DUP2 MSTORE PUSH1 0x4 ADD PUSH2 0x8F9 SWAP4 SWAP3 SWAP2 SWAP1 PUSH2 0x137B JUMP JUMPDEST PUSH1 0x20 PUSH1 0x40 MLOAD DUP1 DUP4 SUB DUP2 PUSH0 DUP8 GAS CALL ISZERO DUP1 ISZERO PUSH2 0x915 JUMPI RETURNDATASIZE PUSH0 DUP1 RETURNDATACOPY RETURNDATASIZE PUSH0 REVERT JUMPDEST POP POP POP POP PUSH1 0x40 MLOAD RETURNDATASIZE PUSH1 0x1F NOT PUSH1 0x1F DUP3 ADD AND DUP3 ADD DUP1 PUSH1 0x40 MSTORE POP DUP2 ADD SWAP1 PUSH2 0x939 SWAP2 SWAP1 PUSH2 0xF56 JUMP JUMPDEST SWAP1 POP DUP1 PUSH2 0x97B JUMPI PUSH1 0x40 MLOAD PUSH32 0x8C379A000000000000000000000000000000000000000000000000000000000 DUP2 MSTORE PUSH1 0x4 ADD PUSH2 0x972 SWAP1 PUSH2 0x1420 JUMP JUMPDEST PUSH1 0x40 MLOAD DUP1 SWAP2 SUB SWAP1 REVERT JUMPDEST PUSH0 CALLER PUSH20 0xFFFFFFFFFFFFFFFFFFFFFFFFFFFFFFFFFFFFFFFF AND DUP5 PUSH1 0x40 MLOAD PUSH2 0x9A0 SWAP1 PUSH2 0xE19 JUMP JUMPDEST PUSH0 PUSH1 0x40 MLOAD DUP1 DUP4 SUB DUP2 DUP6 DUP8 GAS CALL SWAP3 POP POP POP RETURNDATASIZE DUP1 PUSH0 DUP2 EQ PUSH2 0x9DA JUMPI PUSH1 0x40 MLOAD SWAP2 POP PUSH1 0x1F NOT PUSH1 0x3F RETURNDATASIZE ADD AND DUP3 ADD PUSH1 0x40 MSTORE RETURNDATASIZE DUP3 MSTORE RETURNDATASIZE PUSH0 PUSH1 0x20 DUP5 ADD RETURNDATACOPY PUSH2 0x9DF JUMP JUMPDEST PUSH1 0x60 SWAP2 POP JUMPDEST POP POP SWAP1 POP DUP1 PUSH2 0xA23 JUMPI PUSH1 0x40 MLOAD PUSH32 0x8C379A000000000000000000000000000000000000000000000000000000000 DUP2 MSTORE PUSH1 0x4 ADD PUSH2 0xA1A SWAP1 PUSH2 0x1488 JUMP JUMPDEST PUSH1 0x40 MLOAD DUP1 SWAP2 SUB SWAP1 REVERT JUMPDEST CALLER PUSH20 0xFFFFFFFFFFFFFFFFFFFFFFFFFFFFFFFFFFFFFFFF AND PUSH32 0x77F92A1B6A1A11DE8CA49515AD4C1FAD45632DD3442167D74B90B304A3C7A758 DUP7 DUP7 PUSH1 0x40 MLOAD PUSH2 0xA6B SWAP3 SWAP2 SWAP1 PUSH2 0x1238 JUMP JUMPDEST PUSH1 0x40 MLOAD DUP1 SWAP2 SUB SWAP1 LOG2 POP POP POP POP POP JUMP JUMPDEST PUSH2 0xA82 PUSH2 0xBC2 JUMP JUMPDEST PUSH20 0xFFFFFFFFFFFFFFFFFFFFFFFFFFFFFFFFFFFFFFFF AND PUSH2 0xAA0 PUSH2 0x48D JUMP JUMPDEST PUSH20 0xFFFFFFFFFFFFFFFFFFFFFFFFFFFFFFFFFFFFFFFF AND EQ PUSH2 0xAFF JUMPI PUSH2 0xAC3 PUSH2 0xBC2 JUMP JUMPDEST PUSH1 0x40 MLOAD PUSH32 0x118CDAA700000000000000000000000000000000000000000000000000000000 DUP2 MSTORE PUSH1 0x4 ADD PUSH2 0xAF6 SWAP2 SWAP1 PUSH2 0xC39 JUMP JUMPDEST PUSH1 0x40 MLOAD DUP1 SWAP2 SUB SWAP1 REVERT JUMPDEST JUMP JUMPDEST PUSH0 DUP1 PUSH0 SWAP1 SLOAD SWAP1 PUSH2 0x100 EXP SWAP1 DIV PUSH20 0xFFFFFFFFFFFFFFFFFFFFFFFFFFFFFFFFFFFFFFFF AND SWAP1 POP DUP2 PUSH0 DUP1 PUSH2 0x100 EXP DUP2 SLOAD DUP2 PUSH20 0xFFFFFFFFFFFFFFFFFFFFFFFFFFFFFFFFFFFFFFFF MUL NOT AND SWAP1 DUP4 PUSH20 0xFFFFFFFFFFFFFFFFFFFFFFFFFFFFFFFFFFFFFFFF AND MUL OR SWAP1 SSTORE POP DUP2 PUSH20 0xFFFFFFFFFFFFFFFFFFFFFFFFFFFFFFFFFFFFFFFF AND DUP2 PUSH20 0xFFFFFFFFFFFFFFFFFFFFFFFFFFFFFFFFFFFFFFFF AND PUSH32 0x8BE0079C531659141344CD1FD0A4F28419497F9722A3DAAFE3B4186F6B6457E0 PUSH1 0x40 MLOAD PUSH1 0x40 MLOAD DUP1 SWAP2 SUB SWAP1 LOG3 POP POP JUMP JUMPDEST PUSH0 CALLER SWAP1 POP SWAP1 JUMP JUMPDEST PUSH0 DUP2 SWAP1 POP SWAP2 SWAP1 POP JUMP JUMPDEST PUSH2 0xBDB DUP2 PUSH2 0xBC9 JUMP JUMPDEST DUP3 MSTORE POP POP JUMP JUMPDEST PUSH0 PUSH1 0x20 DUP3 ADD SWAP1 POP PUSH2 0xBF4 PUSH0 DUP4 ADD DUP5 PUSH2 0xBD2 JUMP JUMPDEST SWAP3 SWAP2 POP POP JUMP JUMPDEST PUSH0 PUSH20 0xFFFFFFFFFFFFFFFFFFFFFFFFFFFFFFFFFFFFFFFF DUP3 AND SWAP1 POP SWAP2 SWAP1 POP JUMP JUMPDEST PUSH0 PUSH2 0xC23 DUP3 PUSH2 0xBFA JUMP JUMPDEST SWAP1 POP SWAP2 SWAP1 POP JUMP JUMPDEST PUSH2 0xC33 DUP2 PUSH2 0xC19 JUMP JUMPDEST DUP3 MSTORE POP POP JUMP JUMPDEST PUSH0 PUSH1 0x20 DUP3 ADD SWAP1 POP PUSH2 0xC4C PUSH0 DUP4 ADD DUP5 PUSH2 0xC2A JUMP JUMPDEST SWAP3 SWAP2 POP POP JUMP JUMPDEST PUSH0 DUP1 REVERT JUMPDEST PUSH2 0xC5F DUP2 PUSH2 0xBC9 JUMP JUMPDEST DUP2 EQ PUSH2 0xC69 JUMPI PUSH0 DUP1 REVERT JUMPDEST POP JUMP JUMPDEST PUSH0 DUP2 CALLDATALOAD SWAP1 POP PUSH2 0xC7A DUP2 PUSH2 0xC56 JUMP JUMPDEST SWAP3 SWAP2 POP POP JUMP JUMPDEST PUSH0 PUSH1 0x20 DUP3 DUP5 SUB SLT ISZERO PUSH2 0xC95 JUMPI PUSH2 0xC94 PUSH2 0xC52 JUMP JUMPDEST JUMPDEST PUSH0 PUSH2 0xCA2 DUP5 DUP3 DUP6 ADD PUSH2 0xC6C JUMP JUMPDEST SWAP2 POP POP SWAP3 SWAP2 POP POP JUMP JUMPDEST PUSH2 0xCB4 DUP2 PUSH2 0xC19 JUMP JUMPDEST DUP2 EQ PUSH2 0xCBE JUMPI PUSH0 DUP1 REVERT JUMPDEST POP JUMP JUMPDEST PUSH0 DUP2 CALLDATALOAD SWAP1 POP PUSH2 0xCCF DUP2 PUSH2 0xCAB JUMP JUMPDEST SWAP3 SWAP2 POP POP JUMP JUMPDEST PUSH0 PUSH1 0x20 DUP3 DUP5 SUB SLT ISZERO PUSH2 0xCEA JUMPI PUSH2 0xCE9 PUSH2 0xC52 JUMP JUMPDEST JUMPDEST PUSH0 PUSH2 0xCF7 DUP5 DUP3 DUP6 ADD PUSH2 0xCC1 JUMP JUMPDEST SWAP2 POP POP SWAP3 SWAP2 POP POP JUMP JUMPDEST PUSH0 DUP2 SWAP1 POP SWAP2 SWAP1 POP JUMP JUMPDEST PUSH0 PUSH2 0xD23 PUSH2 0xD1E PUSH2 0xD19 DUP5 PUSH2 0xBFA JUMP JUMPDEST PUSH2 0xD00 JUMP JUMPDEST PUSH2 0xBFA JUMP JUMPDEST SWAP1 POP SWAP2 SWAP1 POP JUMP JUMPDEST PUSH0 PUSH2 0xD34 DUP3 PUSH2 0xD09 JUMP JUMPDEST SWAP1 POP SWAP2 SWAP1 POP JUMP JUMPDEST PUSH0 PUSH2 0xD45 DUP3 PUSH2 0xD2A JUMP JUMPDEST SWAP1 POP SWAP2 SWAP1 POP JUMP JUMPDEST PUSH2 0xD55 DUP2 PUSH2 0xD3B JUMP JUMPDEST DUP3 MSTORE POP POP JUMP JUMPDEST PUSH0 PUSH1 0x20 DUP3 ADD SWAP1 POP PUSH2 0xD6E PUSH0 DUP4 ADD DUP5 PUSH2 0xD4C JUMP JUMPDEST SWAP3 SWAP2 POP POP JUMP JUMPDEST PUSH0 DUP3 DUP3 MSTORE PUSH1 0x20 DUP3 ADD SWAP1 POP SWAP3 SWAP2 POP POP JUMP JUMPDEST PUSH32 0x4E6F2062616C616E636520746F20776974686472617700000000000000000000 PUSH0 DUP3 ADD MSTORE POP JUMP JUMPDEST PUSH0 PUSH2 0xDB8 PUSH1 0x16 DUP4 PUSH2 0xD74 JUMP JUMPDEST SWAP2 POP PUSH2 0xDC3 DUP3 PUSH2 0xD84 JUMP JUMPDEST PUSH1 0x20 DUP3 ADD SWAP1 POP SWAP2 SWAP1 POP JUMP JUMPDEST PUSH0 PUSH1 0x20 DUP3 ADD SWAP1 POP DUP2 DUP2 SUB PUSH0 DUP4 ADD MSTORE PUSH2 0xDE5 DUP2 PUSH2 0xDAC JUMP JUMPDEST SWAP1 POP SWAP2 SWAP1 POP JUMP JUMPDEST PUSH0 DUP2 SWAP1 POP SWAP3 SWAP2 POP POP JUMP JUMPDEST POP JUMP JUMPDEST PUSH0 PUSH2 0xE04 PUSH0 DUP4 PUSH2 0xDEC JUMP JUMPDEST SWAP2 POP PUSH2 0xE0F DUP3 PUSH2 0xDF6 JUMP JUMPDEST PUSH0 DUP3 ADD SWAP1 POP SWAP2 SWAP1 POP JUMP JUMPDEST PUSH0 PUSH2 0xE23 DUP3 PUSH2 0xDF9 JUMP JUMPDEST SWAP2 POP DUP2 SWAP1 POP SWAP2 SWAP1 POP JUMP JUMPDEST PUSH32 0x4661696C656420746F2073656E6420457468657220746F20746865206F776E65 PUSH0 DUP3 ADD MSTORE PUSH32 0x7200000000000000000000000000000000000000000000000000000000000000 PUSH1 0x20 DUP3 ADD MSTORE POP JUMP JUMPDEST PUSH0 PUSH2 0xE87 PUSH1 0x21 DUP4 PUSH2 0xD74 JUMP JUMPDEST SWAP2 POP PUSH2 0xE92 DUP3 PUSH2 0xE2D JUMP JUMPDEST PUSH1 0x40 DUP3 ADD SWAP1 POP SWAP2 SWAP1 POP JUMP JUMPDEST PUSH0 PUSH1 0x20 DUP3 ADD SWAP1 POP DUP2 DUP2 SUB PUSH0 DUP4 ADD MSTORE PUSH2 0xEB4 DUP2 PUSH2 0xE7B JUMP JUMPDEST SWAP1 POP SWAP2 SWAP1 POP JUMP JUMPDEST PUSH0 DUP2 MLOAD SWAP1 POP PUSH2 0xEC9 DUP2 PUSH2 0xC56 JUMP JUMPDEST SWAP3 SWAP2 POP POP JUMP JUMPDEST PUSH0 PUSH1 0x20 DUP3 DUP5 SUB SLT ISZERO PUSH2 0xEE4 JUMPI PUSH2 0xEE3 PUSH2 0xC52 JUMP JUMPDEST JUMPDEST PUSH0 PUSH2 0xEF1 DUP5 DUP3 DUP6 ADD PUSH2 0xEBB JUMP JUMPDEST SWAP2 POP POP SWAP3 SWAP2 POP POP JUMP JUMPDEST PUSH0 PUSH1 0x40 DUP3 ADD SWAP1 POP PUSH2 0xF0D PUSH0 DUP4 ADD DUP6 PUSH2 0xC2A JUMP JUMPDEST PUSH2 0xF1A PUSH1 0x20 DUP4 ADD DUP5 PUSH2 0xBD2 JUMP JUMPDEST SWAP4 SWAP3 POP POP POP JUMP JUMPDEST PUSH0 DUP2 ISZERO ISZERO SWAP1 POP SWAP2 SWAP1 POP JUMP JUMPDEST PUSH2 0xF35 DUP2 PUSH2 0xF21 JUMP JUMPDEST DUP2 EQ PUSH2 0xF3F JUMPI PUSH0 DUP1 REVERT JUMPDEST POP JUMP JUMPDEST PUSH0 DUP2 MLOAD SWAP1 POP PUSH2 0xF50 DUP2 PUSH2 0xF2C JUMP JUMPDEST SWAP3 SWAP2 POP POP JUMP JUMPDEST PUSH0 PUSH1 0x20 DUP3 DUP5 SUB SLT ISZERO PUSH2 0xF6B JUMPI PUSH2 0xF6A PUSH2 0xC52 JUMP JUMPDEST JUMPDEST PUSH0 PUSH2 0xF78 DUP5 DUP3 DUP6 ADD PUSH2 0xF42 JUMP JUMPDEST SWAP2 POP POP SWAP3 SWAP2 POP POP JUMP JUMPDEST PUSH32 0x4661696C656420746F2073656E6420746F6B656E7320746F20746865206F776E PUSH0 DUP3 ADD MSTORE PUSH32 0x6572000000000000000000000000000000000000000000000000000000000000 PUSH1 0x20 DUP3 ADD MSTORE POP JUMP JUMPDEST PUSH0 PUSH2 0xFDB PUSH1 0x22 DUP4 PUSH2 0xD74 JUMP JUMPDEST SWAP2 POP PUSH2 0xFE6 DUP3 PUSH2 0xF81 JUMP JUMPDEST PUSH1 0x40 DUP3 ADD SWAP1 POP SWAP2 SWAP1 POP JUMP JUMPDEST PUSH0 PUSH1 0x20 DUP3 ADD SWAP1 POP DUP2 DUP2 SUB PUSH0 DUP4 ADD MSTORE PUSH2 0x1008 DUP2 PUSH2 0xFCF JUMP JUMPDEST SWAP1 POP SWAP2 SWAP1 POP JUMP JUMPDEST PUSH32 0x53656E6420457468657220746F2062757920736F6D6520746F6B656E73000000 PUSH0 DUP3 ADD MSTORE POP JUMP JUMPDEST PUSH0 PUSH2 0x1043 PUSH1 0x1D DUP4 PUSH2 0xD74 JUMP JUMPDEST SWAP2 POP PUSH2 0x104E DUP3 PUSH2 0x100F JUMP JUMPDEST PUSH1 0x20 DUP3 ADD SWAP1 POP SWAP2 SWAP1 POP JUMP JUMPDEST PUSH0 PUSH1 0x20 DUP3 ADD SWAP1 POP DUP2 DUP2 SUB PUSH0 DUP4 ADD MSTORE PUSH2 0x1070 DUP2 PUSH2 0x1037 JUMP JUMPDEST SWAP1 POP SWAP2 SWAP1 POP JUMP JUMPDEST PUSH32 0x4E487B7100000000000000000000000000000000000000000000000000000000 PUSH0 MSTORE PUSH1 0x11 PUSH1 0x4 MSTORE PUSH1 0x24 PUSH0 REVERT JUMPDEST PUSH0 PUSH2 0x10AE DUP3 PUSH2 0xBC9 JUMP JUMPDEST SWAP2 POP PUSH2 0x10B9 DUP4 PUSH2 0xBC9 JUMP JUMPDEST SWAP3 POP DUP3 DUP3 MUL PUSH2 0x10C7 DUP2 PUSH2 0xBC9 JUMP JUMPDEST SWAP2 POP DUP3 DUP3 DIV DUP5 EQ DUP4 ISZERO OR PUSH2 0x10DE JUMPI PUSH2 0x10DD PUSH2 0x1077 JUMP JUMPDEST JUMPDEST POP SWAP3 SWAP2 POP POP JUMP JUMPDEST PUSH32 0x4E487B7100000000000000000000000000000000000000000000000000000000 PUSH0 MSTORE PUSH1 0x12 PUSH1 0x4 MSTORE PUSH1 0x24 PUSH0 REVERT JUMPDEST PUSH0 PUSH2 0x111C DUP3 PUSH2 0xBC9 JUMP JUMPDEST SWAP2 POP PUSH2 0x1127 DUP4 PUSH2 0xBC9 JUMP JUMPDEST SWAP3 POP DUP3 PUSH2 0x1137 JUMPI PUSH2 0x1136 PUSH2 0x10E5 JUMP JUMPDEST JUMPDEST DUP3 DUP3 DIV SWAP1 POP SWAP3 SWAP2 POP POP JUMP JUMPDEST PUSH32 0x56656E646F7220636F6E747261637420686173206E6F7420656E6F7567682074 PUSH0 DUP3 ADD MSTORE PUSH32 0x6F6B656E7320696E206974732062616C616E6365000000000000000000000000 PUSH1 0x20 DUP3 ADD MSTORE POP JUMP JUMPDEST PUSH0 PUSH2 0x119C PUSH1 0x34 DUP4 PUSH2 0xD74 JUMP JUMPDEST SWAP2 POP PUSH2 0x11A7 DUP3 PUSH2 0x1142 JUMP JUMPDEST PUSH1 0x40 DUP3 ADD SWAP1 POP SWAP2 SWAP1 POP JUMP JUMPDEST PUSH0 PUSH1 0x20 DUP3 ADD SWAP1 POP DUP2 DUP2 SUB PUSH0 DUP4 ADD MSTORE PUSH2 0x11C9 DUP2 PUSH2 0x1190 JUMP JUMPDEST SWAP1 POP SWAP2 SWAP1 POP JUMP JUMPDEST PUSH32 0x4661696C656420746F207472616E7366657220746F6B656E20746F2075736572 PUSH0 DUP3 ADD MSTORE POP JUMP JUMPDEST PUSH0 PUSH2 0x1204 PUSH1 0x20 DUP4 PUSH2 0xD74 JUMP JUMPDEST SWAP2 POP PUSH2 0x120F DUP3 PUSH2 0x11D0 JUMP JUMPDEST PUSH1 0x20 DUP3 ADD SWAP1 POP SWAP2 SWAP1 POP JUMP JUMPDEST PUSH0 PUSH1 0x20 DUP3 ADD SWAP1 POP DUP2 DUP2 SUB PUSH0 DUP4 ADD MSTORE PUSH2 0x1231 DUP2 PUSH2 0x11F8 JUMP JUMPDEST SWAP1 POP SWAP2 SWAP1 POP JUMP JUMPDEST PUSH0 PUSH1 0x40 DUP3 ADD SWAP1 POP PUSH2 0x124B PUSH0 DUP4 ADD DUP6 PUSH2 0xBD2 JUMP JUMPDEST PUSH2 0x1258 PUSH1 0x20 DUP4 ADD DUP5 PUSH2 0xBD2 JUMP JUMPDEST SWAP4 SWAP3 POP POP POP JUMP JUMPDEST PUSH32 0x416D6F756E74206F6620746F6B656E73206D7573742062652067726561746572 PUSH0 DUP3 ADD MSTORE PUSH32 0x207468616E207A65726F00000000000000000000000000000000000000000000 PUSH1 0x20 DUP3 ADD MSTORE POP JUMP JUMPDEST PUSH0 PUSH2 0x12B9 PUSH1 0x2A DUP4 PUSH2 0xD74 JUMP JUMPDEST SWAP2 POP PUSH2 0x12C4 DUP3 PUSH2 0x125F JUMP JUMPDEST PUSH1 0x40 DUP3 ADD SWAP1 POP SWAP2 SWAP1 POP JUMP JUMPDEST PUSH0 PUSH1 0x20 DUP3 ADD SWAP1 POP DUP2 DUP2 SUB PUSH0 DUP4 ADD MSTORE PUSH2 0x12E6 DUP2 PUSH2 0x12AD JUMP JUMPDEST SWAP1 POP SWAP2 SWAP1 POP JUMP JUMPDEST PUSH32 0x56656E646F7220636F6E747261637420646F6573206E6F74206861766520656E PUSH0 DUP3 ADD MSTORE PUSH32 0x6F75676820457468657200000000000000000000000000000000000000000000 PUSH1 0x20 DUP3 ADD MSTORE POP JUMP JUMPDEST PUSH0 PUSH2 0x1347 PUSH1 0x2A DUP4 PUSH2 0xD74 JUMP JUMPDEST SWAP2 POP PUSH2 0x1352 DUP3 PUSH2 0x12ED JUMP JUMPDEST PUSH1 0x40 DUP3 ADD SWAP1 POP SWAP2 SWAP1 POP JUMP JUMPDEST PUSH0 PUSH1 0x20 DUP3 ADD SWAP1 POP DUP2 DUP2 SUB PUSH0 DUP4 ADD MSTORE PUSH2 0x1374 DUP2 PUSH2 0x133B JUMP JUMPDEST SWAP1 POP SWAP2 SWAP1 POP JUMP JUMPDEST PUSH0 PUSH1 0x60 DUP3 ADD SWAP1 POP PUSH2 0x138E PUSH0 DUP4 ADD DUP7 PUSH2 0xC2A JUMP JUMPDEST PUSH2 0x139B PUSH1 0x20 DUP4 ADD DUP6 PUSH2 0xC2A JUMP JUMPDEST PUSH2 0x13A8 PUSH1 0x40 DUP4 ADD DUP5 PUSH2 0xBD2 JUMP JUMPDEST SWAP5 SWAP4 POP POP POP POP JUMP JUMPDEST PUSH32 0x4661696C656420746F207472616E7366657220746F6B656E7320746F20746865 PUSH0 DUP3 ADD MSTORE PUSH32 0x20636F6E74726163740000000000000000000000000000000000000000000000 PUSH1 0x20 DUP3 ADD MSTORE POP JUMP JUMPDEST PUSH0 PUSH2 0x140A PUSH1 0x29 DUP4 PUSH2 0xD74 JUMP JUMPDEST SWAP2 POP PUSH2 0x1415 DUP3 PUSH2 0x13B0 JUMP JUMPDEST PUSH1 0x40 DUP3 ADD SWAP1 POP SWAP2 SWAP1 POP JUMP JUMPDEST PUSH0 PUSH1 0x20 DUP3 ADD SWAP1 POP DUP2 DUP2 SUB PUSH0 DUP4 ADD MSTORE PUSH2 0x1437 DUP2 PUSH2 0x13FE JUMP JUMPDEST SWAP1 POP SWAP2 SWAP1 POP JUMP JUMPDEST PUSH32 0x4661696C656420746F2073656E6420457468657220746F207468652075736572 PUSH0 DUP3 ADD MSTORE POP JUMP JUMPDEST PUSH0 PUSH2 0x1472 PUSH1 0x20 DUP4 PUSH2 0xD74 JUMP JUMPDEST SWAP2 POP PUSH2 0x147D DUP3 PUSH2 0x143E JUMP JUMPDEST PUSH1 0x20 DUP3 ADD SWAP1 POP SWAP2 SWAP1 POP JUMP JUMPDEST PUSH0 PUSH1 0x20 DUP3 ADD SWAP1 POP DUP2 DUP2 SUB PUSH0 DUP4 ADD MSTORE PUSH2 0x149F DUP2 PUSH2 0x1466 JUMP JUMPDEST SWAP1 POP SWAP2 SWAP1 POP JUMP INVALID LOG2 PUSH5 0x6970667358 0x22 SLT KECCAK256 0x1E 0x4F PUSH7 0x853C0C48724D07 0xB5 PUSH12 0x625320BFEFACD0C938AED1E5 0xD7 0xB5 GASPRICE 0xBC PUSH8 0x11BA8964736F6C63 NUMBER STOP ADDMOD BYTE STOP CALLER "
				},
				"gasEstimates": {
					"creation": {
						"codeDepositCost": "1068000",
						"executionCost": "infinite",
						"totalCost": "infinite"
					},
					"external": {
						"buyTokens()": "infinite",
						"exchangeRate()": "2426",
						"owner()": "2604",
						"renounceOwnership()": "infinite",
						"swapTokens(uint256)": "infinite",
						"token()": "infinite",
						"transferOwnership(address)": "infinite",
						"updateExchangeRate(uint256)": "infinite",
						"withdraw()": "infinite",
						"withdrawTokens()": "infinite"
					}
				},
				"methodIdentifiers": {
					"buyTokens()": "d0febe4c",
					"exchangeRate()": "3ba0b9a9",
					"owner()": "8da5cb5b",
					"renounceOwnership()": "715018a6",
					"swapTokens(uint256)": "fe784eaa",
					"token()": "fc0c546a",
					"transferOwnership(address)": "f2fde38b",
					"updateExchangeRate(uint256)": "b9e205ae",
					"withdraw()": "3ccfd60b",
					"withdrawTokens()": "8d8f2adb"
				}
			},
			"storageLayout": {
				"storage": [
					{
						"astId": 8,
						"contract": "contracts/Teste.sol:Teste",
						"label": "_owner",
						"offset": 0,
						"slot": "0",
						"type": "t_address"
					},
					{
						"astId": 264,
						"contract": "contracts/Teste.sol:Teste",
						"label": "token",
						"offset": 0,
						"slot": "1",
						"type": "t_contract(IERC20)225"
					},
					{
						"astId": 267,
						"contract": "contracts/Teste.sol:Teste",
						"label": "exchangeRate",
						"offset": 0,
						"slot": "2",
						"type": "t_uint256"
					}
				],
				"types": {
					"t_address": {
						"encoding": "inplace",
						"label": "address",
						"numberOfBytes": "20"
					},
					"t_contract(IERC20)225": {
						"encoding": "inplace",
						"label": "contract IERC20",
						"numberOfBytes": "20"
					},
					"t_uint256": {
						"encoding": "inplace",
						"label": "uint256",
						"numberOfBytes": "32"
					}
				}
			},
			"userdoc": {
				"kind": "user",
				"methods": {
					"buyTokens()": {
						"notice": "Allow users to buy tokens with Ether"
					},
					"swapTokens(uint256)": {
						"notice": "Allow users to swap tokens for Ether"
					},
					"updateExchangeRate(uint256)": {
						"notice": "Allow the owner to update the exchange rate"
					},
					"withdraw()": {
						"notice": "Allow the owner of the contract to withdraw Ether"
					},
					"withdrawTokens()": {
						"notice": "Allow the owner to withdraw tokens"
					}
				},
				"version": 1
			}
		}
	}
}