{
	"data": {
		"bytecode": {
			"linkReferences": {},
			"object": "608060405234801561000f575f80fd5b5060405161125538038061125583398181016040528101906100319190610293565b335f73ffffffffffffffffffffffffffffffffffffffff168173ffffffffffffffffffffffffffffffffffffffff16036100a2575f6040517f1e4fbdf700000000000000000000000000000000000000000000000000000000815260040161009991906102f2565b60405180910390fd5b6100b18161014160201b60201c565b508260015f6101000a81548173ffffffffffffffffffffffffffffffffffffffff021916908373ffffffffffffffffffffffffffffffffffffffff1602179055508160025f6101000a81548173ffffffffffffffffffffffffffffffffffffffff021916908373ffffffffffffffffffffffffffffffffffffffff1602179055508060038190555050505061030b565b5f805f9054906101000a900473ffffffffffffffffffffffffffffffffffffffff169050815f806101000a81548173ffffffffffffffffffffffffffffffffffffffff021916908373ffffffffffffffffffffffffffffffffffffffff1602179055508173ffffffffffffffffffffffffffffffffffffffff168173ffffffffffffffffffffffffffffffffffffffff167f8be0079c531659141344cd1fd0a4f28419497f9722a3daafe3b4186f6b6457e060405160405180910390a35050565b5f80fd5b5f73ffffffffffffffffffffffffffffffffffffffff82169050919050565b5f61022f82610206565b9050919050565b61023f81610225565b8114610249575f80fd5b50565b5f8151905061025a81610236565b92915050565b5f819050919050565b61027281610260565b811461027c575f80fd5b50565b5f8151905061028d81610269565b92915050565b5f805f606084860312156102aa576102a9610202565b5b5f6102b78682870161024c565b93505060206102c88682870161024c565b92505060406102d98682870161027f565b9150509250925092565b6102ec81610225565b82525050565b5f6020820190506103055f8301846102e3565b92915050565b610f3d806103185f395ff3fe608060405234801561000f575f80fd5b5060043610610086575f3560e01c80638da5cb5b116100595780638da5cb5b146100da578063b7d19fc4146100f8578063f2fde38b14610116578063fe784eaa1461013257610086565b806316dc165b1461008a5780633ba0b9a9146100a8578063715018a6146100c65780638d8f2adb146100d0575b5f80fd5b61009261014e565b60405161009f91906109fe565b60405180910390f35b6100b0610173565b6040516100bd9190610a2f565b60405180910390f35b6100ce610179565b005b6100d861018c565b005b6100e261041c565b6040516100ef9190610a68565b60405180910390f35b610100610443565b60405161010d91906109fe565b60405180910390f35b610130600480360381019061012b9190610aaf565b610468565b005b61014c60048036038101906101479190610b04565b6104ec565b005b60015f9054906101000a900473ffffffffffffffffffffffffffffffffffffffff1681565b60035481565b610181610835565b61018a5f6108bc565b565b610194610835565b5f60015f9054906101000a900473ffffffffffffffffffffffffffffffffffffffff1673ffffffffffffffffffffffffffffffffffffffff166370a08231306040518263ffffffff1660e01b81526004016101ef9190610a68565b602060405180830381865afa15801561020a573d5f803e3d5ffd5b505050506040513d601f19601f8201168201806040525081019061022e9190610b43565b90505f60025f9054906101000a900473ffffffffffffffffffffffffffffffffffffffff1673ffffffffffffffffffffffffffffffffffffffff166370a08231306040518263ffffffff1660e01b815260040161028b9190610a68565b602060405180830381865afa1580156102a6573d5f803e3d5ffd5b505050506040513d601f19601f820116820180604052508101906102ca9190610b43565b90505f8211156103725760015f9054906101000a900473ffffffffffffffffffffffffffffffffffffffff1673ffffffffffffffffffffffffffffffffffffffff1663a9059cbb33846040518363ffffffff1660e01b8152600401610330929190610b6e565b6020604051808303815f875af115801561034c573d5f803e3d5ffd5b505050506040513d601f19601f820116820180604052508101906103709190610bca565b505b5f8111156104185760025f9054906101000a900473ffffffffffffffffffffffffffffffffffffffff1673ffffffffffffffffffffffffffffffffffffffff1663a9059cbb33836040518363ffffffff1660e01b81526004016103d6929190610b6e565b6020604051808303815f875af11580156103f2573d5f803e3d5ffd5b505050506040513d601f19601f820116820180604052508101906104169190610bca565b505b5050565b5f805f9054906101000a900473ffffffffffffffffffffffffffffffffffffffff16905090565b60025f9054906101000a900473ffffffffffffffffffffffffffffffffffffffff1681565b610470610835565b5f73ffffffffffffffffffffffffffffffffffffffff168173ffffffffffffffffffffffffffffffffffffffff16036104e0575f6040517f1e4fbdf70000000000000000000000000000000000000000000000000000000081526004016104d79190610a68565b60405180910390fd5b6104e9816108bc565b50565b5f811161052e576040517f08c379a000000000000000000000000000000000000000000000000000000000815260040161052590610c75565b60405180910390fd5b5f6003548261053d9190610cc0565b90505f60025f9054906101000a900473ffffffffffffffffffffffffffffffffffffffff1673ffffffffffffffffffffffffffffffffffffffff166370a08231306040518263ffffffff1660e01b815260040161059a9190610a68565b602060405180830381865afa1580156105b5573d5f803e3d5ffd5b505050506040513d601f19601f820116820180604052508101906105d99190610b43565b90508181101561061e576040517f08c379a000000000000000000000000000000000000000000000000000000000815260040161061590610d71565b60405180910390fd5b5f60015f9054906101000a900473ffffffffffffffffffffffffffffffffffffffff1673ffffffffffffffffffffffffffffffffffffffff166323b872dd3330876040518463ffffffff1660e01b815260040161067d93929190610d8f565b6020604051808303815f875af1158015610699573d5f803e3d5ffd5b505050506040513d601f19601f820116820180604052508101906106bd9190610bca565b9050806106ff576040517f08c379a00000000000000000000000000000000000000000000000000000000081526004016106f690610e34565b60405180910390fd5b5f60025f9054906101000a900473ffffffffffffffffffffffffffffffffffffffff1673ffffffffffffffffffffffffffffffffffffffff1663a9059cbb33866040518363ffffffff1660e01b815260040161075c929190610b6e565b6020604051808303815f875af1158015610778573d5f803e3d5ffd5b505050506040513d601f19601f8201168201806040525081019061079c9190610bca565b9050806107de576040517f08c379a00000000000000000000000000000000000000000000000000000000081526004016107d590610ec2565b60405180910390fd5b3373ffffffffffffffffffffffffffffffffffffffff167f77f92a1b6a1a11de8ca49515ad4c1fad45632dd3442167d74b90b304a3c7a7588686604051610826929190610ee0565b60405180910390a25050505050565b61083d61097d565b73ffffffffffffffffffffffffffffffffffffffff1661085b61041c565b73ffffffffffffffffffffffffffffffffffffffff16146108ba5761087e61097d565b6040517f118cdaa70000000000000000000000000000000000000000000000000000000081526004016108b19190610a68565b60405180910390fd5b565b5f805f9054906101000a900473ffffffffffffffffffffffffffffffffffffffff169050815f806101000a81548173ffffffffffffffffffffffffffffffffffffffff021916908373ffffffffffffffffffffffffffffffffffffffff1602179055508173ffffffffffffffffffffffffffffffffffffffff168173ffffffffffffffffffffffffffffffffffffffff167f8be0079c531659141344cd1fd0a4f28419497f9722a3daafe3b4186f6b6457e060405160405180910390a35050565b5f33905090565b5f73ffffffffffffffffffffffffffffffffffffffff82169050919050565b5f819050919050565b5f6109c66109c16109bc84610984565b6109a3565b610984565b9050919050565b5f6109d7826109ac565b9050919050565b5f6109e8826109cd565b9050919050565b6109f8816109de565b82525050565b5f602082019050610a115f8301846109ef565b92915050565b5f819050919050565b610a2981610a17565b82525050565b5f602082019050610a425f830184610a20565b92915050565b5f610a5282610984565b9050919050565b610a6281610a48565b82525050565b5f602082019050610a7b5f830184610a59565b92915050565b5f80fd5b610a8e81610a48565b8114610a98575f80fd5b50565b5f81359050610aa981610a85565b92915050565b5f60208284031215610ac457610ac3610a81565b5b5f610ad184828501610a9b565b91505092915050565b610ae381610a17565b8114610aed575f80fd5b50565b5f81359050610afe81610ada565b92915050565b5f60208284031215610b1957610b18610a81565b5b5f610b2684828501610af0565b91505092915050565b5f81519050610b3d81610ada565b92915050565b5f60208284031215610b5857610b57610a81565b5b5f610b6584828501610b2f565b91505092915050565b5f604082019050610b815f830185610a59565b610b8e6020830184610a20565b9392505050565b5f8115159050919050565b610ba981610b95565b8114610bb3575f80fd5b50565b5f81519050610bc481610ba0565b92915050565b5f60208284031215610bdf57610bde610a81565b5b5f610bec84828501610bb6565b91505092915050565b5f82825260208201905092915050565b7f41207175616e746964616465206465766520736572206d61696f7220717565205f8201527f7a65726f00000000000000000000000000000000000000000000000000000000602082015250565b5f610c5f602483610bf5565b9150610c6a82610c05565b604082019050919050565b5f6020820190508181035f830152610c8c81610c53565b9050919050565b7f4e487b71000000000000000000000000000000000000000000000000000000005f52601160045260245ffd5b5f610cca82610a17565b9150610cd583610a17565b9250828202610ce381610a17565b91508282048414831517610cfa57610cf9610c93565b5b5092915050565b7f4f20636f6e747261746f206e616f2074656d20546f6b656e59207375666963695f8201527f656e746500000000000000000000000000000000000000000000000000000000602082015250565b5f610d5b602483610bf5565b9150610d6682610d01565b604082019050919050565b5f6020820190508181035f830152610d8881610d4f565b9050919050565b5f606082019050610da25f830186610a59565b610daf6020830185610a59565b610dbc6040830184610a20565b949350505050565b7f46616c686120616f207472616e73666572697220546f6b656e582070617261205f8201527f6f20636f6e747261746f00000000000000000000000000000000000000000000602082015250565b5f610e1e602a83610bf5565b9150610e2982610dc4565b604082019050919050565b5f6020820190508181035f830152610e4b81610e12565b9050919050565b7f46616c686120616f207472616e73666572697220546f6b656e592070617261205f8201527f6f207573756172696f0000000000000000000000000000000000000000000000602082015250565b5f610eac602983610bf5565b9150610eb782610e52565b604082019050919050565b5f6020820190508181035f830152610ed981610ea0565b9050919050565b5f604082019050610ef35f830185610a20565b610f006020830184610a20565b939250505056fea26469706673582212204432c87247a6fe208014630c5b687eb5676e40df40c3c45d02e9bcdd52e0401864736f6c634300081a0033",
			"opcodes": "PUSH1 0x80 PUSH1 0x40 MSTORE CALLVALUE DUP1 ISZERO PUSH2 0xF JUMPI PUSH0 DUP1 REVERT JUMPDEST POP PUSH1 0x40 MLOAD PUSH2 0x1255 CODESIZE SUB DUP1 PUSH2 0x1255 DUP4 CODECOPY DUP2 DUP2 ADD PUSH1 0x40 MSTORE DUP2 ADD SWAP1 PUSH2 0x31 SWAP2 SWAP1 PUSH2 0x293 JUMP JUMPDEST CALLER PUSH0 PUSH20 0xFFFFFFFFFFFFFFFFFFFFFFFFFFFFFFFFFFFFFFFF AND DUP2 PUSH20 0xFFFFFFFFFFFFFFFFFFFFFFFFFFFFFFFFFFFFFFFF AND SUB PUSH2 0xA2 JUMPI PUSH0 PUSH1 0x40 MLOAD PUSH32 0x1E4FBDF700000000000000000000000000000000000000000000000000000000 DUP2 MSTORE PUSH1 0x4 ADD PUSH2 0x99 SWAP2 SWAP1 PUSH2 0x2F2 JUMP JUMPDEST PUSH1 0x40 MLOAD DUP1 SWAP2 SUB SWAP1 REVERT JUMPDEST PUSH2 0xB1 DUP2 PUSH2 0x141 PUSH1 0x20 SHL PUSH1 0x20 SHR JUMP JUMPDEST POP DUP3 PUSH1 0x1 PUSH0 PUSH2 0x100 EXP DUP2 SLOAD DUP2 PUSH20 0xFFFFFFFFFFFFFFFFFFFFFFFFFFFFFFFFFFFFFFFF MUL NOT AND SWAP1 DUP4 PUSH20 0xFFFFFFFFFFFFFFFFFFFFFFFFFFFFFFFFFFFFFFFF AND MUL OR SWAP1 SSTORE POP DUP2 PUSH1 0x2 PUSH0 PUSH2 0x100 EXP DUP2 SLOAD DUP2 PUSH20 0xFFFFFFFFFFFFFFFFFFFFFFFFFFFFFFFFFFFFFFFF MUL NOT AND SWAP1 DUP4 PUSH20 0xFFFFFFFFFFFFFFFFFFFFFFFFFFFFFFFFFFFFFFFF AND MUL OR SWAP1 SSTORE POP DUP1 PUSH1 0x3 DUP2 SWAP1 SSTORE POP POP POP POP PUSH2 0x30B JUMP JUMPDEST PUSH0 DUP1 PUSH0 SWAP1 SLOAD SWAP1 PUSH2 0x100 EXP SWAP1 DIV PUSH20 0xFFFFFFFFFFFFFFFFFFFFFFFFFFFFFFFFFFFFFFFF AND SWAP1 POP DUP2 PUSH0 DUP1 PUSH2 0x100 EXP DUP2 SLOAD DUP2 PUSH20 0xFFFFFFFFFFFFFFFFFFFFFFFFFFFFFFFFFFFFFFFF MUL NOT AND SWAP1 DUP4 PUSH20 0xFFFFFFFFFFFFFFFFFFFFFFFFFFFFFFFFFFFFFFFF AND MUL OR SWAP1 SSTORE POP DUP2 PUSH20 0xFFFFFFFFFFFFFFFFFFFFFFFFFFFFFFFFFFFFFFFF AND DUP2 PUSH20 0xFFFFFFFFFFFFFFFFFFFFFFFFFFFFFFFFFFFFFFFF AND PUSH32 0x8BE0079C531659141344CD1FD0A4F28419497F9722A3DAAFE3B4186F6B6457E0 PUSH1 0x40 MLOAD PUSH1 0x40 MLOAD DUP1 SWAP2 SUB SWAP1 LOG3 POP POP JUMP JUMPDEST PUSH0 DUP1 REVERT JUMPDEST PUSH0 PUSH20 0xFFFFFFFFFFFFFFFFFFFFFFFFFFFFFFFFFFFFFFFF DUP3 AND SWAP1 POP SWAP2 SWAP1 POP JUMP JUMPDEST PUSH0 PUSH2 0x22F DUP3 PUSH2 0x206 JUMP JUMPDEST SWAP1 POP SWAP2 SWAP1 POP JUMP JUMPDEST PUSH2 0x23F DUP2 PUSH2 0x225 JUMP JUMPDEST DUP2 EQ PUSH2 0x249 JUMPI PUSH0 DUP1 REVERT JUMPDEST POP JUMP JUMPDEST PUSH0 DUP2 MLOAD SWAP1 POP PUSH2 0x25A DUP2 PUSH2 0x236 JUMP JUMPDEST SWAP3 SWAP2 POP POP JUMP JUMPDEST PUSH0 DUP2 SWAP1 POP SWAP2 SWAP1 POP JUMP JUMPDEST PUSH2 0x272 DUP2 PUSH2 0x260 JUMP JUMPDEST DUP2 EQ PUSH2 0x27C JUMPI PUSH0 DUP1 REVERT JUMPDEST POP JUMP JUMPDEST PUSH0 DUP2 MLOAD SWAP1 POP PUSH2 0x28D DUP2 PUSH2 0x269 JUMP JUMPDEST SWAP3 SWAP2 POP POP JUMP JUMPDEST PUSH0 DUP1 PUSH0 PUSH1 0x60 DUP5 DUP7 SUB SLT ISZERO PUSH2 0x2AA JUMPI PUSH2 0x2A9 PUSH2 0x202 JUMP JUMPDEST JUMPDEST PUSH0 PUSH2 0x2B7 DUP7 DUP3 DUP8 ADD PUSH2 0x24C JUMP JUMPDEST SWAP4 POP POP PUSH1 0x20 PUSH2 0x2C8 DUP7 DUP3 DUP8 ADD PUSH2 0x24C JUMP JUMPDEST SWAP3 POP POP PUSH1 0x40 PUSH2 0x2D9 DUP7 DUP3 DUP8 ADD PUSH2 0x27F JUMP JUMPDEST SWAP2 POP POP SWAP3 POP SWAP3 POP SWAP3 JUMP JUMPDEST PUSH2 0x2EC DUP2 PUSH2 0x225 JUMP JUMPDEST DUP3 MSTORE POP POP JUMP JUMPDEST PUSH0 PUSH1 0x20 DUP3 ADD SWAP1 POP PUSH2 0x305 PUSH0 DUP4 ADD DUP5 PUSH2 0x2E3 JUMP JUMPDEST SWAP3 SWAP2 POP POP JUMP JUMPDEST PUSH2 0xF3D DUP1 PUSH2 0x318 PUSH0 CODECOPY PUSH0 RETURN INVALID PUSH1 0x80 PUSH1 0x40 MSTORE CALLVALUE DUP1 ISZERO PUSH2 0xF JUMPI PUSH0 DUP1 REVERT JUMPDEST POP PUSH1 0x4 CALLDATASIZE LT PUSH2 0x86 JUMPI PUSH0 CALLDATALOAD PUSH1 0xE0 SHR DUP1 PUSH4 0x8DA5CB5B GT PUSH2 0x59 JUMPI DUP1 PUSH4 0x8DA5CB5B EQ PUSH2 0xDA JUMPI DUP1 PUSH4 0xB7D19FC4 EQ PUSH2 0xF8 JUMPI DUP1 PUSH4 0xF2FDE38B EQ PUSH2 0x116 JUMPI DUP1 PUSH4 0xFE784EAA EQ PUSH2 0x132 JUMPI PUSH2 0x86 JUMP JUMPDEST DUP1 PUSH4 0x16DC165B EQ PUSH2 0x8A JUMPI DUP1 PUSH4 0x3BA0B9A9 EQ PUSH2 0xA8 JUMPI DUP1 PUSH4 0x715018A6 EQ PUSH2 0xC6 JUMPI DUP1 PUSH4 0x8D8F2ADB EQ PUSH2 0xD0 JUMPI JUMPDEST PUSH0 DUP1 REVERT JUMPDEST PUSH2 0x92 PUSH2 0x14E JUMP JUMPDEST PUSH1 0x40 MLOAD PUSH2 0x9F SWAP2 SWAP1 PUSH2 0x9FE JUMP JUMPDEST PUSH1 0x40 MLOAD DUP1 SWAP2 SUB SWAP1 RETURN JUMPDEST PUSH2 0xB0 PUSH2 0x173 JUMP JUMPDEST PUSH1 0x40 MLOAD PUSH2 0xBD SWAP2 SWAP1 PUSH2 0xA2F JUMP JUMPDEST PUSH1 0x40 MLOAD DUP1 SWAP2 SUB SWAP1 RETURN JUMPDEST PUSH2 0xCE PUSH2 0x179 JUMP JUMPDEST STOP JUMPDEST PUSH2 0xD8 PUSH2 0x18C JUMP JUMPDEST STOP JUMPDEST PUSH2 0xE2 PUSH2 0x41C JUMP JUMPDEST PUSH1 0x40 MLOAD PUSH2 0xEF SWAP2 SWAP1 PUSH2 0xA68 JUMP JUMPDEST PUSH1 0x40 MLOAD DUP1 SWAP2 SUB SWAP1 RETURN JUMPDEST PUSH2 0x100 PUSH2 0x443 JUMP JUMPDEST PUSH1 0x40 MLOAD PUSH2 0x10D SWAP2 SWAP1 PUSH2 0x9FE JUMP JUMPDEST PUSH1 0x40 MLOAD DUP1 SWAP2 SUB SWAP1 RETURN JUMPDEST PUSH2 0x130 PUSH1 0x4 DUP1 CALLDATASIZE SUB DUP2 ADD SWAP1 PUSH2 0x12B SWAP2 SWAP1 PUSH2 0xAAF JUMP JUMPDEST PUSH2 0x468 JUMP JUMPDEST STOP JUMPDEST PUSH2 0x14C PUSH1 0x4 DUP1 CALLDATASIZE SUB DUP2 ADD SWAP1 PUSH2 0x147 SWAP2 SWAP1 PUSH2 0xB04 JUMP JUMPDEST PUSH2 0x4EC JUMP JUMPDEST STOP JUMPDEST PUSH1 0x1 PUSH0 SWAP1 SLOAD SWAP1 PUSH2 0x100 EXP SWAP1 DIV PUSH20 0xFFFFFFFFFFFFFFFFFFFFFFFFFFFFFFFFFFFFFFFF AND DUP2 JUMP JUMPDEST PUSH1 0x3 SLOAD DUP2 JUMP JUMPDEST PUSH2 0x181 PUSH2 0x835 JUMP JUMPDEST PUSH2 0x18A PUSH0 PUSH2 0x8BC JUMP JUMPDEST JUMP JUMPDEST PUSH2 0x194 PUSH2 0x835 JUMP JUMPDEST PUSH0 PUSH1 0x1 PUSH0 SWAP1 SLOAD SWAP1 PUSH2 0x100 EXP SWAP1 DIV PUSH20 0xFFFFFFFFFFFFFFFFFFFFFFFFFFFFFFFFFFFFFFFF AND PUSH20 0xFFFFFFFFFFFFFFFFFFFFFFFFFFFFFFFFFFFFFFFF AND PUSH4 0x70A08231 ADDRESS PUSH1 0x40 MLOAD DUP3 PUSH4 0xFFFFFFFF AND PUSH1 0xE0 SHL DUP2 MSTORE PUSH1 0x4 ADD PUSH2 0x1EF SWAP2 SWAP1 PUSH2 0xA68 JUMP JUMPDEST PUSH1 0x20 PUSH1 0x40 MLOAD DUP1 DUP4 SUB DUP2 DUP7 GAS STATICCALL ISZERO DUP1 ISZERO PUSH2 0x20A JUMPI RETURNDATASIZE PUSH0 DUP1 RETURNDATACOPY RETURNDATASIZE PUSH0 REVERT JUMPDEST POP POP POP POP PUSH1 0x40 MLOAD RETURNDATASIZE PUSH1 0x1F NOT PUSH1 0x1F DUP3 ADD AND DUP3 ADD DUP1 PUSH1 0x40 MSTORE POP DUP2 ADD SWAP1 PUSH2 0x22E SWAP2 SWAP1 PUSH2 0xB43 JUMP JUMPDEST SWAP1 POP PUSH0 PUSH1 0x2 PUSH0 SWAP1 SLOAD SWAP1 PUSH2 0x100 EXP SWAP1 DIV PUSH20 0xFFFFFFFFFFFFFFFFFFFFFFFFFFFFFFFFFFFFFFFF AND PUSH20 0xFFFFFFFFFFFFFFFFFFFFFFFFFFFFFFFFFFFFFFFF AND PUSH4 0x70A08231 ADDRESS PUSH1 0x40 MLOAD DUP3 PUSH4 0xFFFFFFFF AND PUSH1 0xE0 SHL DUP2 MSTORE PUSH1 0x4 ADD PUSH2 0x28B SWAP2 SWAP1 PUSH2 0xA68 JUMP JUMPDEST PUSH1 0x20 PUSH1 0x40 MLOAD DUP1 DUP4 SUB DUP2 DUP7 GAS STATICCALL ISZERO DUP1 ISZERO PUSH2 0x2A6 JUMPI RETURNDATASIZE PUSH0 DUP1 RETURNDATACOPY RETURNDATASIZE PUSH0 REVERT JUMPDEST POP POP POP POP PUSH1 0x40 MLOAD RETURNDATASIZE PUSH1 0x1F NOT PUSH1 0x1F DUP3 ADD AND DUP3 ADD DUP1 PUSH1 0x40 MSTORE POP DUP2 ADD SWAP1 PUSH2 0x2CA SWAP2 SWAP1 PUSH2 0xB43 JUMP JUMPDEST SWAP1 POP PUSH0 DUP3 GT ISZERO PUSH2 0x372 JUMPI PUSH1 0x1 PUSH0 SWAP1 SLOAD SWAP1 PUSH2 0x100 EXP SWAP1 DIV PUSH20 0xFFFFFFFFFFFFFFFFFFFFFFFFFFFFFFFFFFFFFFFF AND PUSH20 0xFFFFFFFFFFFFFFFFFFFFFFFFFFFFFFFFFFFFFFFF AND PUSH4 0xA9059CBB CALLER DUP5 PUSH1 0x40 MLOAD DUP4 PUSH4 0xFFFFFFFF AND PUSH1 0xE0 SHL DUP2 MSTORE PUSH1 0x4 ADD PUSH2 0x330 SWAP3 SWAP2 SWAP1 PUSH2 0xB6E JUMP JUMPDEST PUSH1 0x20 PUSH1 0x40 MLOAD DUP1 DUP4 SUB DUP2 PUSH0 DUP8 GAS CALL ISZERO DUP1 ISZERO PUSH2 0x34C JUMPI RETURNDATASIZE PUSH0 DUP1 RETURNDATACOPY RETURNDATASIZE PUSH0 REVERT JUMPDEST POP POP POP POP PUSH1 0x40 MLOAD RETURNDATASIZE PUSH1 0x1F NOT PUSH1 0x1F DUP3 ADD AND DUP3 ADD DUP1 PUSH1 0x40 MSTORE POP DUP2 ADD SWAP1 PUSH2 0x370 SWAP2 SWAP1 PUSH2 0xBCA JUMP JUMPDEST POP JUMPDEST PUSH0 DUP2 GT ISZERO PUSH2 0x418 JUMPI PUSH1 0x2 PUSH0 SWAP1 SLOAD SWAP1 PUSH2 0x100 EXP SWAP1 DIV PUSH20 0xFFFFFFFFFFFFFFFFFFFFFFFFFFFFFFFFFFFFFFFF AND PUSH20 0xFFFFFFFFFFFFFFFFFFFFFFFFFFFFFFFFFFFFFFFF AND PUSH4 0xA9059CBB CALLER DUP4 PUSH1 0x40 MLOAD DUP4 PUSH4 0xFFFFFFFF AND PUSH1 0xE0 SHL DUP2 MSTORE PUSH1 0x4 ADD PUSH2 0x3D6 SWAP3 SWAP2 SWAP1 PUSH2 0xB6E JUMP JUMPDEST PUSH1 0x20 PUSH1 0x40 MLOAD DUP1 DUP4 SUB DUP2 PUSH0 DUP8 GAS CALL ISZERO DUP1 ISZERO PUSH2 0x3F2 JUMPI RETURNDATASIZE PUSH0 DUP1 RETURNDATACOPY RETURNDATASIZE PUSH0 REVERT JUMPDEST POP POP POP POP PUSH1 0x40 MLOAD RETURNDATASIZE PUSH1 0x1F NOT PUSH1 0x1F DUP3 ADD AND DUP3 ADD DUP1 PUSH1 0x40 MSTORE POP DUP2 ADD SWAP1 PUSH2 0x416 SWAP2 SWAP1 PUSH2 0xBCA JUMP JUMPDEST POP JUMPDEST POP POP JUMP JUMPDEST PUSH0 DUP1 PUSH0 SWAP1 SLOAD SWAP1 PUSH2 0x100 EXP SWAP1 DIV PUSH20 0xFFFFFFFFFFFFFFFFFFFFFFFFFFFFFFFFFFFFFFFF AND SWAP1 POP SWAP1 JUMP JUMPDEST PUSH1 0x2 PUSH0 SWAP1 SLOAD SWAP1 PUSH2 0x100 EXP SWAP1 DIV PUSH20 0xFFFFFFFFFFFFFFFFFFFFFFFFFFFFFFFFFFFFFFFF AND DUP2 JUMP JUMPDEST PUSH2 0x470 PUSH2 0x835 JUMP JUMPDEST PUSH0 PUSH20 0xFFFFFFFFFFFFFFFFFFFFFFFFFFFFFFFFFFFFFFFF AND DUP2 PUSH20 0xFFFFFFFFFFFFFFFFFFFFFFFFFFFFFFFFFFFFFFFF AND SUB PUSH2 0x4E0 JUMPI PUSH0 PUSH1 0x40 MLOAD PUSH32 0x1E4FBDF700000000000000000000000000000000000000000000000000000000 DUP2 MSTORE PUSH1 0x4 ADD PUSH2 0x4D7 SWAP2 SWAP1 PUSH2 0xA68 JUMP JUMPDEST PUSH1 0x40 MLOAD DUP1 SWAP2 SUB SWAP1 REVERT JUMPDEST PUSH2 0x4E9 DUP2 PUSH2 0x8BC JUMP JUMPDEST POP JUMP JUMPDEST PUSH0 DUP2 GT PUSH2 0x52E JUMPI PUSH1 0x40 MLOAD PUSH32 0x8C379A000000000000000000000000000000000000000000000000000000000 DUP2 MSTORE PUSH1 0x4 ADD PUSH2 0x525 SWAP1 PUSH2 0xC75 JUMP JUMPDEST PUSH1 0x40 MLOAD DUP1 SWAP2 SUB SWAP1 REVERT JUMPDEST PUSH0 PUSH1 0x3 SLOAD DUP3 PUSH2 0x53D SWAP2 SWAP1 PUSH2 0xCC0 JUMP JUMPDEST SWAP1 POP PUSH0 PUSH1 0x2 PUSH0 SWAP1 SLOAD SWAP1 PUSH2 0x100 EXP SWAP1 DIV PUSH20 0xFFFFFFFFFFFFFFFFFFFFFFFFFFFFFFFFFFFFFFFF AND PUSH20 0xFFFFFFFFFFFFFFFFFFFFFFFFFFFFFFFFFFFFFFFF AND PUSH4 0x70A08231 ADDRESS PUSH1 0x40 MLOAD DUP3 PUSH4 0xFFFFFFFF AND PUSH1 0xE0 SHL DUP2 MSTORE PUSH1 0x4 ADD PUSH2 0x59A SWAP2 SWAP1 PUSH2 0xA68 JUMP JUMPDEST PUSH1 0x20 PUSH1 0x40 MLOAD DUP1 DUP4 SUB DUP2 DUP7 GAS STATICCALL ISZERO DUP1 ISZERO PUSH2 0x5B5 JUMPI RETURNDATASIZE PUSH0 DUP1 RETURNDATACOPY RETURNDATASIZE PUSH0 REVERT JUMPDEST POP POP POP POP PUSH1 0x40 MLOAD RETURNDATASIZE PUSH1 0x1F NOT PUSH1 0x1F DUP3 ADD AND DUP3 ADD DUP1 PUSH1 0x40 MSTORE POP DUP2 ADD SWAP1 PUSH2 0x5D9 SWAP2 SWAP1 PUSH2 0xB43 JUMP JUMPDEST SWAP1 POP DUP2 DUP2 LT ISZERO PUSH2 0x61E JUMPI PUSH1 0x40 MLOAD PUSH32 0x8C379A000000000000000000000000000000000000000000000000000000000 DUP2 MSTORE PUSH1 0x4 ADD PUSH2 0x615 SWAP1 PUSH2 0xD71 JUMP JUMPDEST PUSH1 0x40 MLOAD DUP1 SWAP2 SUB SWAP1 REVERT JUMPDEST PUSH0 PUSH1 0x1 PUSH0 SWAP1 SLOAD SWAP1 PUSH2 0x100 EXP SWAP1 DIV PUSH20 0xFFFFFFFFFFFFFFFFFFFFFFFFFFFFFFFFFFFFFFFF AND PUSH20 0xFFFFFFFFFFFFFFFFFFFFFFFFFFFFFFFFFFFFFFFF AND PUSH4 0x23B872DD CALLER ADDRESS DUP8 PUSH1 0x40 MLOAD DUP5 PUSH4 0xFFFFFFFF AND PUSH1 0xE0 SHL DUP2 MSTORE PUSH1 0x4 ADD PUSH2 0x67D SWAP4 SWAP3 SWAP2 SWAP1 PUSH2 0xD8F JUMP JUMPDEST PUSH1 0x20 PUSH1 0x40 MLOAD DUP1 DUP4 SUB DUP2 PUSH0 DUP8 GAS CALL ISZERO DUP1 ISZERO PUSH2 0x699 JUMPI RETURNDATASIZE PUSH0 DUP1 RETURNDATACOPY RETURNDATASIZE PUSH0 REVERT JUMPDEST POP POP POP POP PUSH1 0x40 MLOAD RETURNDATASIZE PUSH1 0x1F NOT PUSH1 0x1F DUP3 ADD AND DUP3 ADD DUP1 PUSH1 0x40 MSTORE POP DUP2 ADD SWAP1 PUSH2 0x6BD SWAP2 SWAP1 PUSH2 0xBCA JUMP JUMPDEST SWAP1 POP DUP1 PUSH2 0x6FF JUMPI PUSH1 0x40 MLOAD PUSH32 0x8C379A000000000000000000000000000000000000000000000000000000000 DUP2 MSTORE PUSH1 0x4 ADD PUSH2 0x6F6 SWAP1 PUSH2 0xE34 JUMP JUMPDEST PUSH1 0x40 MLOAD DUP1 SWAP2 SUB SWAP1 REVERT JUMPDEST PUSH0 PUSH1 0x2 PUSH0 SWAP1 SLOAD SWAP1 PUSH2 0x100 EXP SWAP1 DIV PUSH20 0xFFFFFFFFFFFFFFFFFFFFFFFFFFFFFFFFFFFFFFFF AND PUSH20 0xFFFFFFFFFFFFFFFFFFFFFFFFFFFFFFFFFFFFFFFF AND PUSH4 0xA9059CBB CALLER DUP7 PUSH1 0x40 MLOAD DUP4 PUSH4 0xFFFFFFFF AND PUSH1 0xE0 SHL DUP2 MSTORE PUSH1 0x4 ADD PUSH2 0x75C SWAP3 SWAP2 SWAP1 PUSH2 0xB6E JUMP JUMPDEST PUSH1 0x20 PUSH1 0x40 MLOAD DUP1 DUP4 SUB DUP2 PUSH0 DUP8 GAS CALL ISZERO DUP1 ISZERO PUSH2 0x778 JUMPI RETURNDATASIZE PUSH0 DUP1 RETURNDATACOPY RETURNDATASIZE PUSH0 REVERT JUMPDEST POP POP POP POP PUSH1 0x40 MLOAD RETURNDATASIZE PUSH1 0x1F NOT PUSH1 0x1F DUP3 ADD AND DUP3 ADD DUP1 PUSH1 0x40 MSTORE POP DUP2 ADD SWAP1 PUSH2 0x79C SWAP2 SWAP1 PUSH2 0xBCA JUMP JUMPDEST SWAP1 POP DUP1 PUSH2 0x7DE JUMPI PUSH1 0x40 MLOAD PUSH32 0x8C379A000000000000000000000000000000000000000000000000000000000 DUP2 MSTORE PUSH1 0x4 ADD PUSH2 0x7D5 SWAP1 PUSH2 0xEC2 JUMP JUMPDEST PUSH1 0x40 MLOAD DUP1 SWAP2 SUB SWAP1 REVERT JUMPDEST CALLER PUSH20 0xFFFFFFFFFFFFFFFFFFFFFFFFFFFFFFFFFFFFFFFF AND PUSH32 0x77F92A1B6A1A11DE8CA49515AD4C1FAD45632DD3442167D74B90B304A3C7A758 DUP7 DUP7 PUSH1 0x40 MLOAD PUSH2 0x826 SWAP3 SWAP2 SWAP1 PUSH2 0xEE0 JUMP JUMPDEST PUSH1 0x40 MLOAD DUP1 SWAP2 SUB SWAP1 LOG2 POP POP POP POP POP JUMP JUMPDEST PUSH2 0x83D PUSH2 0x97D JUMP JUMPDEST PUSH20 0xFFFFFFFFFFFFFFFFFFFFFFFFFFFFFFFFFFFFFFFF AND PUSH2 0x85B PUSH2 0x41C JUMP JUMPDEST PUSH20 0xFFFFFFFFFFFFFFFFFFFFFFFFFFFFFFFFFFFFFFFF AND EQ PUSH2 0x8BA JUMPI PUSH2 0x87E PUSH2 0x97D JUMP JUMPDEST PUSH1 0x40 MLOAD PUSH32 0x118CDAA700000000000000000000000000000000000000000000000000000000 DUP2 MSTORE PUSH1 0x4 ADD PUSH2 0x8B1 SWAP2 SWAP1 PUSH2 0xA68 JUMP JUMPDEST PUSH1 0x40 MLOAD DUP1 SWAP2 SUB SWAP1 REVERT JUMPDEST JUMP JUMPDEST PUSH0 DUP1 PUSH0 SWAP1 SLOAD SWAP1 PUSH2 0x100 EXP SWAP1 DIV PUSH20 0xFFFFFFFFFFFFFFFFFFFFFFFFFFFFFFFFFFFFFFFF AND SWAP1 POP DUP2 PUSH0 DUP1 PUSH2 0x100 EXP DUP2 SLOAD DUP2 PUSH20 0xFFFFFFFFFFFFFFFFFFFFFFFFFFFFFFFFFFFFFFFF MUL NOT AND SWAP1 DUP4 PUSH20 0xFFFFFFFFFFFFFFFFFFFFFFFFFFFFFFFFFFFFFFFF AND MUL OR SWAP1 SSTORE POP DUP2 PUSH20 0xFFFFFFFFFFFFFFFFFFFFFFFFFFFFFFFFFFFFFFFF AND DUP2 PUSH20 0xFFFFFFFFFFFFFFFFFFFFFFFFFFFFFFFFFFFFFFFF AND PUSH32 0x8BE0079C531659141344CD1FD0A4F28419497F9722A3DAAFE3B4186F6B6457E0 PUSH1 0x40 MLOAD PUSH1 0x40 MLOAD DUP1 SWAP2 SUB SWAP1 LOG3 POP POP JUMP JUMPDEST PUSH0 CALLER SWAP1 POP SWAP1 JUMP JUMPDEST PUSH0 PUSH20 0xFFFFFFFFFFFFFFFFFFFFFFFFFFFFFFFFFFFFFFFF DUP3 AND SWAP1 POP SWAP2 SWAP1 POP JUMP JUMPDEST PUSH0 DUP2 SWAP1 POP SWAP2 SWAP1 POP JUMP JUMPDEST PUSH0 PUSH2 0x9C6 PUSH2 0x9C1 PUSH2 0x9BC DUP5 PUSH2 0x984 JUMP JUMPDEST PUSH2 0x9A3 JUMP JUMPDEST PUSH2 0x984 JUMP JUMPDEST SWAP1 POP SWAP2 SWAP1 POP JUMP JUMPDEST PUSH0 PUSH2 0x9D7 DUP3 PUSH2 0x9AC JUMP JUMPDEST SWAP1 POP SWAP2 SWAP1 POP JUMP JUMPDEST PUSH0 PUSH2 0x9E8 DUP3 PUSH2 0x9CD JUMP JUMPDEST SWAP1 POP SWAP2 SWAP1 POP JUMP JUMPDEST PUSH2 0x9F8 DUP2 PUSH2 0x9DE JUMP JUMPDEST DUP3 MSTORE POP POP JUMP JUMPDEST PUSH0 PUSH1 0x20 DUP3 ADD SWAP1 POP PUSH2 0xA11 PUSH0 DUP4 ADD DUP5 PUSH2 0x9EF JUMP JUMPDEST SWAP3 SWAP2 POP POP JUMP JUMPDEST PUSH0 DUP2 SWAP1 POP SWAP2 SWAP1 POP JUMP JUMPDEST PUSH2 0xA29 DUP2 PUSH2 0xA17 JUMP JUMPDEST DUP3 MSTORE POP POP JUMP JUMPDEST PUSH0 PUSH1 0x20 DUP3 ADD SWAP1 POP PUSH2 0xA42 PUSH0 DUP4 ADD DUP5 PUSH2 0xA20 JUMP JUMPDEST SWAP3 SWAP2 POP POP JUMP JUMPDEST PUSH0 PUSH2 0xA52 DUP3 PUSH2 0x984 JUMP JUMPDEST SWAP1 POP SWAP2 SWAP1 POP JUMP JUMPDEST PUSH2 0xA62 DUP2 PUSH2 0xA48 JUMP JUMPDEST DUP3 MSTORE POP POP JUMP JUMPDEST PUSH0 PUSH1 0x20 DUP3 ADD SWAP1 POP PUSH2 0xA7B PUSH0 DUP4 ADD DUP5 PUSH2 0xA59 JUMP JUMPDEST SWAP3 SWAP2 POP POP JUMP JUMPDEST PUSH0 DUP1 REVERT JUMPDEST PUSH2 0xA8E DUP2 PUSH2 0xA48 JUMP JUMPDEST DUP2 EQ PUSH2 0xA98 JUMPI PUSH0 DUP1 REVERT JUMPDEST POP JUMP JUMPDEST PUSH0 DUP2 CALLDATALOAD SWAP1 POP PUSH2 0xAA9 DUP2 PUSH2 0xA85 JUMP JUMPDEST SWAP3 SWAP2 POP POP JUMP JUMPDEST PUSH0 PUSH1 0x20 DUP3 DUP5 SUB SLT ISZERO PUSH2 0xAC4 JUMPI PUSH2 0xAC3 PUSH2 0xA81 JUMP JUMPDEST JUMPDEST PUSH0 PUSH2 0xAD1 DUP5 DUP3 DUP6 ADD PUSH2 0xA9B JUMP JUMPDEST SWAP2 POP POP SWAP3 SWAP2 POP POP JUMP JUMPDEST PUSH2 0xAE3 DUP2 PUSH2 0xA17 JUMP JUMPDEST DUP2 EQ PUSH2 0xAED JUMPI PUSH0 DUP1 REVERT JUMPDEST POP JUMP JUMPDEST PUSH0 DUP2 CALLDATALOAD SWAP1 POP PUSH2 0xAFE DUP2 PUSH2 0xADA JUMP JUMPDEST SWAP3 SWAP2 POP POP JUMP JUMPDEST PUSH0 PUSH1 0x20 DUP3 DUP5 SUB SLT ISZERO PUSH2 0xB19 JUMPI PUSH2 0xB18 PUSH2 0xA81 JUMP JUMPDEST JUMPDEST PUSH0 PUSH2 0xB26 DUP5 DUP3 DUP6 ADD PUSH2 0xAF0 JUMP JUMPDEST SWAP2 POP POP SWAP3 SWAP2 POP POP JUMP JUMPDEST PUSH0 DUP2 MLOAD SWAP1 POP PUSH2 0xB3D DUP2 PUSH2 0xADA JUMP JUMPDEST SWAP3 SWAP2 POP POP JUMP JUMPDEST PUSH0 PUSH1 0x20 DUP3 DUP5 SUB SLT ISZERO PUSH2 0xB58 JUMPI PUSH2 0xB57 PUSH2 0xA81 JUMP JUMPDEST JUMPDEST PUSH0 PUSH2 0xB65 DUP5 DUP3 DUP6 ADD PUSH2 0xB2F JUMP JUMPDEST SWAP2 POP POP SWAP3 SWAP2 POP POP JUMP JUMPDEST PUSH0 PUSH1 0x40 DUP3 ADD SWAP1 POP PUSH2 0xB81 PUSH0 DUP4 ADD DUP6 PUSH2 0xA59 JUMP JUMPDEST PUSH2 0xB8E PUSH1 0x20 DUP4 ADD DUP5 PUSH2 0xA20 JUMP JUMPDEST SWAP4 SWAP3 POP POP POP JUMP JUMPDEST PUSH0 DUP2 ISZERO ISZERO SWAP1 POP SWAP2 SWAP1 POP JUMP JUMPDEST PUSH2 0xBA9 DUP2 PUSH2 0xB95 JUMP JUMPDEST DUP2 EQ PUSH2 0xBB3 JUMPI PUSH0 DUP1 REVERT JUMPDEST POP JUMP JUMPDEST PUSH0 DUP2 MLOAD SWAP1 POP PUSH2 0xBC4 DUP2 PUSH2 0xBA0 JUMP JUMPDEST SWAP3 SWAP2 POP POP JUMP JUMPDEST PUSH0 PUSH1 0x20 DUP3 DUP5 SUB SLT ISZERO PUSH2 0xBDF JUMPI PUSH2 0xBDE PUSH2 0xA81 JUMP JUMPDEST JUMPDEST PUSH0 PUSH2 0xBEC DUP5 DUP3 DUP6 ADD PUSH2 0xBB6 JUMP JUMPDEST SWAP2 POP POP SWAP3 SWAP2 POP POP JUMP JUMPDEST PUSH0 DUP3 DUP3 MSTORE PUSH1 0x20 DUP3 ADD SWAP1 POP SWAP3 SWAP2 POP POP JUMP JUMPDEST PUSH32 0x41207175616E746964616465206465766520736572206D61696F722071756520 PUSH0 DUP3 ADD MSTORE PUSH32 0x7A65726F00000000000000000000000000000000000000000000000000000000 PUSH1 0x20 DUP3 ADD MSTORE POP JUMP JUMPDEST PUSH0 PUSH2 0xC5F PUSH1 0x24 DUP4 PUSH2 0xBF5 JUMP JUMPDEST SWAP2 POP PUSH2 0xC6A DUP3 PUSH2 0xC05 JUMP JUMPDEST PUSH1 0x40 DUP3 ADD SWAP1 POP SWAP2 SWAP1 POP JUMP JUMPDEST PUSH0 PUSH1 0x20 DUP3 ADD SWAP1 POP DUP2 DUP2 SUB PUSH0 DUP4 ADD MSTORE PUSH2 0xC8C DUP2 PUSH2 0xC53 JUMP JUMPDEST SWAP1 POP SWAP2 SWAP1 POP JUMP JUMPDEST PUSH32 0x4E487B7100000000000000000000000000000000000000000000000000000000 PUSH0 MSTORE PUSH1 0x11 PUSH1 0x4 MSTORE PUSH1 0x24 PUSH0 REVERT JUMPDEST PUSH0 PUSH2 0xCCA DUP3 PUSH2 0xA17 JUMP JUMPDEST SWAP2 POP PUSH2 0xCD5 DUP4 PUSH2 0xA17 JUMP JUMPDEST SWAP3 POP DUP3 DUP3 MUL PUSH2 0xCE3 DUP2 PUSH2 0xA17 JUMP JUMPDEST SWAP2 POP DUP3 DUP3 DIV DUP5 EQ DUP4 ISZERO OR PUSH2 0xCFA JUMPI PUSH2 0xCF9 PUSH2 0xC93 JUMP JUMPDEST JUMPDEST POP SWAP3 SWAP2 POP POP JUMP JUMPDEST PUSH32 0x4F20636F6E747261746F206E616F2074656D20546F6B656E5920737566696369 PUSH0 DUP3 ADD MSTORE PUSH32 0x656E746500000000000000000000000000000000000000000000000000000000 PUSH1 0x20 DUP3 ADD MSTORE POP JUMP JUMPDEST PUSH0 PUSH2 0xD5B PUSH1 0x24 DUP4 PUSH2 0xBF5 JUMP JUMPDEST SWAP2 POP PUSH2 0xD66 DUP3 PUSH2 0xD01 JUMP JUMPDEST PUSH1 0x40 DUP3 ADD SWAP1 POP SWAP2 SWAP1 POP JUMP JUMPDEST PUSH0 PUSH1 0x20 DUP3 ADD SWAP1 POP DUP2 DUP2 SUB PUSH0 DUP4 ADD MSTORE PUSH2 0xD88 DUP2 PUSH2 0xD4F JUMP JUMPDEST SWAP1 POP SWAP2 SWAP1 POP JUMP JUMPDEST PUSH0 PUSH1 0x60 DUP3 ADD SWAP1 POP PUSH2 0xDA2 PUSH0 DUP4 ADD DUP7 PUSH2 0xA59 JUMP JUMPDEST PUSH2 0xDAF PUSH1 0x20 DUP4 ADD DUP6 PUSH2 0xA59 JUMP JUMPDEST PUSH2 0xDBC PUSH1 0x40 DUP4 ADD DUP5 PUSH2 0xA20 JUMP JUMPDEST SWAP5 SWAP4 POP POP POP POP JUMP JUMPDEST PUSH32 0x46616C686120616F207472616E73666572697220546F6B656E58207061726120 PUSH0 DUP3 ADD MSTORE PUSH32 0x6F20636F6E747261746F00000000000000000000000000000000000000000000 PUSH1 0x20 DUP3 ADD MSTORE POP JUMP JUMPDEST PUSH0 PUSH2 0xE1E PUSH1 0x2A DUP4 PUSH2 0xBF5 JUMP JUMPDEST SWAP2 POP PUSH2 0xE29 DUP3 PUSH2 0xDC4 JUMP JUMPDEST PUSH1 0x40 DUP3 ADD SWAP1 POP SWAP2 SWAP1 POP JUMP JUMPDEST PUSH0 PUSH1 0x20 DUP3 ADD SWAP1 POP DUP2 DUP2 SUB PUSH0 DUP4 ADD MSTORE PUSH2 0xE4B DUP2 PUSH2 0xE12 JUMP JUMPDEST SWAP1 POP SWAP2 SWAP1 POP JUMP JUMPDEST PUSH32 0x46616C686120616F207472616E73666572697220546F6B656E59207061726120 PUSH0 DUP3 ADD MSTORE PUSH32 0x6F207573756172696F0000000000000000000000000000000000000000000000 PUSH1 0x20 DUP3 ADD MSTORE POP JUMP JUMPDEST PUSH0 PUSH2 0xEAC PUSH1 0x29 DUP4 PUSH2 0xBF5 JUMP JUMPDEST SWAP2 POP PUSH2 0xEB7 DUP3 PUSH2 0xE52 JUMP JUMPDEST PUSH1 0x40 DUP3 ADD SWAP1 POP SWAP2 SWAP1 POP JUMP JUMPDEST PUSH0 PUSH1 0x20 DUP3 ADD SWAP1 POP DUP2 DUP2 SUB PUSH0 DUP4 ADD MSTORE PUSH2 0xED9 DUP2 PUSH2 0xEA0 JUMP JUMPDEST SWAP1 POP SWAP2 SWAP1 POP JUMP JUMPDEST PUSH0 PUSH1 0x40 DUP3 ADD SWAP1 POP PUSH2 0xEF3 PUSH0 DUP4 ADD DUP6 PUSH2 0xA20 JUMP JUMPDEST PUSH2 0xF00 PUSH1 0x20 DUP4 ADD DUP5 PUSH2 0xA20 JUMP JUMPDEST SWAP4 SWAP3 POP POP POP JUMP INVALID LOG2 PUSH5 0x6970667358 0x22 SLT KECCAK256 PREVRANDAO ORIGIN 0xC8 PUSH19 0x47A6FE208014630C5B687EB5676E40DF40C3C4 TSTORE MUL 0xE9 0xBC 0xDD MSTORE 0xE0 BLOCKHASH XOR PUSH5 0x736F6C6343 STOP ADDMOD BYTE STOP CALLER "
		},
		"gasEstimates": {
			"creation": {
				"codeDepositCost": "780200",
				"executionCost": "infinite",
				"totalCost": "infinite"
			},
			"external": {
				"exchangeRate()": "2448",
				"owner()": "2515",
				"renounceOwnership()": "infinite",
				"swapTokens(uint256)": "infinite",
				"tokenX()": "infinite",
				"tokenY()": "infinite",
				"transferOwnership(address)": "infinite",
				"withdrawTokens()": "infinite"
			}
		},
		"methodIdentifiers": {
			"exchangeRate()": "3ba0b9a9",
			"owner()": "8da5cb5b",
			"renounceOwnership()": "715018a6",
			"swapTokens(uint256)": "fe784eaa",
			"tokenX()": "16dc165b",
			"tokenY()": "b7d19fc4",
			"transferOwnership(address)": "f2fde38b",
			"withdrawTokens()": "8d8f2adb"
		}
	},
	"abi": [
		{
			"inputs": [
				{
					"internalType": "address",
					"name": "_tokenXAddress",
					"type": "address"
				},
				{
					"internalType": "address",
					"name": "_tokenYAddress",
					"type": "address"
				},
				{
					"internalType": "uint256",
					"name": "_exchangeRate",
					"type": "uint256"
				}
			],
			"stateMutability": "nonpayable",
			"type": "constructor"
		},
		{
			"inputs": [
				{
					"internalType": "address",
					"name": "owner",
					"type": "address"
				}
			],
			"name": "OwnableInvalidOwner",
			"type": "error"
		},
		{
			"inputs": [
				{
					"internalType": "address",
					"name": "account",
					"type": "address"
				}
			],
			"name": "OwnableUnauthorizedAccount",
			"type": "error"
		},
		{
			"anonymous": false,
			"inputs": [
				{
					"indexed": true,
					"internalType": "address",
					"name": "previousOwner",
					"type": "address"
				},
				{
					"indexed": true,
					"internalType": "address",
					"name": "newOwner",
					"type": "address"
				}
			],
			"name": "OwnershipTransferred",
			"type": "event"
		},
		{
			"anonymous": false,
			"inputs": [
				{
					"indexed": true,
					"internalType": "address",
					"name": "user",
					"type": "address"
				},
				{
					"indexed": false,
					"internalType": "uint256",
					"name": "amountOfTokenX",
					"type": "uint256"
				},
				{
					"indexed": false,
					"internalType": "uint256",
					"name": "amountOfTokenY",
					"type": "uint256"
				}
			],
			"name": "Swap",
			"type": "event"
		},
		{
			"inputs": [],
			"name": "exchangeRate",
			"outputs": [
				{
					"internalType": "uint256",
					"name": "",
					"type": "uint256"
				}
			],
			"stateMutability": "view",
			"type": "function"
		},
		{
			"inputs": [],
			"name": "owner",
			"outputs": [
				{
					"internalType": "address",
					"name": "",
					"type": "address"
				}
			],
			"stateMutability": "view",
			"type": "function"
		},
		{
			"inputs": [],
			"name": "renounceOwnership",
			"outputs": [],
			"stateMutability": "nonpayable",
			"type": "function"
		},
		{
			"inputs": [
				{
					"internalType": "uint256",
					"name": "amountOfTokenX",
					"type": "uint256"
				}
			],
			"name": "swapTokens",
			"outputs": [],
			"stateMutability": "nonpayable",
			"type": "function"
		},
		{
			"inputs": [],
			"name": "tokenX",
			"outputs": [
				{
					"internalType": "contract IERC20",
					"name": "",
					"type": "address"
				}
			],
			"stateMutability": "view",
			"type": "function"
		},
		{
			"inputs": [],
			"name": "tokenY",
			"outputs": [
				{
					"internalType": "contract IERC20",
					"name": "",
					"type": "address"
				}
			],
			"stateMutability": "view",
			"type": "function"
		},
		{
			"inputs": [
				{
					"internalType": "address",
					"name": "newOwner",
					"type": "address"
				}
			],
			"name": "transferOwnership",
			"outputs": [],
			"stateMutability": "nonpayable",
			"type": "function"
		},
		{
			"inputs": [],
			"name": "withdrawTokens",
			"outputs": [],
			"stateMutability": "nonpayable",
			"type": "function"
		}
	]
}