{
	"data": {
		"bytecode": {
			"linkReferences": {},
			"object": "60806040526064600255683635c9adc5dea0000060035569010f0cf064dd592000006004556002600555348015610034575f80fd5b50604051611d14380380611d148339818101604052810190610056919061023c565b335f73ffffffffffffffffffffffffffffffffffffffff168173ffffffffffffffffffffffffffffffffffffffff16036100c7575f6040517f1e4fbdf70000000000000000000000000000000000000000000000000000000081526004016100be9190610276565b60405180910390fd5b6100d68161011d60201b60201c565b508060015f6101000a81548173ffffffffffffffffffffffffffffffffffffffff021916908373ffffffffffffffffffffffffffffffffffffffff1602179055505061028f565b5f805f9054906101000a900473ffffffffffffffffffffffffffffffffffffffff169050815f806101000a81548173ffffffffffffffffffffffffffffffffffffffff021916908373ffffffffffffffffffffffffffffffffffffffff1602179055508173ffffffffffffffffffffffffffffffffffffffff168173ffffffffffffffffffffffffffffffffffffffff167f8be0079c531659141344cd1fd0a4f28419497f9722a3daafe3b4186f6b6457e060405160405180910390a35050565b5f80fd5b5f73ffffffffffffffffffffffffffffffffffffffff82169050919050565b5f61020b826101e2565b9050919050565b61021b81610201565b8114610225575f80fd5b50565b5f8151905061023681610212565b92915050565b5f60208284031215610251576102506101de565b5b5f61025e84828501610228565b91505092915050565b61027081610201565b82525050565b5f6020820190506102895f830184610267565b92915050565b611a788061029c5f395ff3fe6080604052600436106100e7575f3560e01c80635771520711610089578063cb23284211610058578063cb2328421461029b578063d0febe4c146102c5578063dbb84f11146102e3578063f2fde38b1461030b576100e7565b806357715207146101f55780636c11bcd31461021f578063715018a61461025b5780638da5cb5b14610271576100e7565b806323a1baaa116100c557806323a1baaa14610165578063315a095d1461018f5780633ccfd60b146101b7578063453989b2146101cd576100e7565b80630a431e52146100eb5780631369bfee146101155780631b326fad1461013d575b5f80fd5b3480156100f6575f80fd5b506100ff610333565b60405161010c9190610f6b565b60405180910390f35b348015610120575f80fd5b5061013b60048036038101906101369190610fb2565b610339565b005b348015610148575f80fd5b50610163600480360381019061015e9190610fb2565b61034b565b005b348015610170575f80fd5b5061017961035d565b6040516101869190610f6b565b60405180910390f35b34801561019a575f80fd5b506101b560048036038101906101b09190610fb2565b610363565b005b3480156101c2575f80fd5b506101cb61052e565b005b3480156101d8575f80fd5b506101f360048036038101906101ee9190610fb2565b610628565b005b348015610200575f80fd5b5061020961063a565b6040516102169190610f6b565b60405180910390f35b34801561022a575f80fd5b5061024560048036038101906102409190610fb2565b610640565b6040516102529190610f6b565b60405180910390f35b348015610266575f80fd5b5061026f6109a6565b005b34801561027c575f80fd5b506102856109b9565b604051610292919061101c565b60405180910390f35b3480156102a6575f80fd5b506102af6109e0565b6040516102bc9190610f6b565b60405180910390f35b6102cd6109e6565b6040516102da9190610f6b565b60405180910390f35b3480156102ee575f80fd5b5061030960048036038101906103049190610fb2565b610d6e565b005b348015610316575f80fd5b50610331600480360381019061032c919061105f565b610d80565b005b60055481565b610341610e04565b8060058190555050565b610353610e04565b8060038190555050565b60045481565b61036b610e04565b5f60015f9054906101000a900473ffffffffffffffffffffffffffffffffffffffff1673ffffffffffffffffffffffffffffffffffffffff166370a08231306040518263ffffffff1660e01b81526004016103c6919061101c565b602060405180830381865afa1580156103e1573d5f803e3d5ffd5b505050506040513d601f19601f82011682018060405250810190610405919061109e565b90508181101561044a576040517f08c379a000000000000000000000000000000000000000000000000000000000815260040161044190611149565b60405180910390fd5b5f60015f9054906101000a900473ffffffffffffffffffffffffffffffffffffffff1673ffffffffffffffffffffffffffffffffffffffff1663a9059cbb33856040518363ffffffff1660e01b81526004016104a7929190611167565b6020604051808303815f875af11580156104c3573d5f803e3d5ffd5b505050506040513d601f19601f820116820180604052508101906104e791906111c3565b905080610529576040517f08c379a00000000000000000000000000000000000000000000000000000000081526004016105209061125e565b60405180910390fd5b505050565b610536610e04565b5f4790505f811161057c576040517f08c379a0000000000000000000000000000000000000000000000000000000008152600401610573906112ec565b60405180910390fd5b5f3373ffffffffffffffffffffffffffffffffffffffff16826040516105a190611337565b5f6040518083038185875af1925050503d805f81146105db576040519150601f19603f3d011682016040523d82523d5f602084013e6105e0565b606091505b5050905080610624576040517f08c379a000000000000000000000000000000000000000000000000000000000815260040161061b906113bb565b60405180910390fd5b5050565b610630610e04565b8060028190555050565b60035481565b5f808211610683576040517f08c379a000000000000000000000000000000000000000000000000000000000815260040161067a90611423565b60405180910390fd5b8160015f9054906101000a900473ffffffffffffffffffffffffffffffffffffffff1673ffffffffffffffffffffffffffffffffffffffff166370a08231336040518263ffffffff1660e01b81526004016106de919061101c565b602060405180830381865afa1580156106f9573d5f803e3d5ffd5b505050506040513d601f19601f8201168201806040525081019061071d919061109e565b101561075e576040517f08c379a00000000000000000000000000000000000000000000000000000000081526004016107559061148b565b60405180910390fd5b5f6064600554606461077091906114d6565b6002548561077e9190611509565b6107889190611509565b6107929190611577565b9050804710156107d7576040517f08c379a00000000000000000000000000000000000000000000000000000000081526004016107ce90611617565b60405180910390fd5b5f60015f9054906101000a900473ffffffffffffffffffffffffffffffffffffffff1673ffffffffffffffffffffffffffffffffffffffff166323b872dd3330876040518463ffffffff1660e01b815260040161083693929190611635565b6020604051808303815f875af1158015610852573d5f803e3d5ffd5b505050506040513d601f19601f8201168201806040525081019061087691906111c3565b9050806108b8576040517f08c379a00000000000000000000000000000000000000000000000000000000081526004016108af906116da565b60405180910390fd5b5f3373ffffffffffffffffffffffffffffffffffffffff16836040516108dd90611337565b5f6040518083038185875af1925050503d805f8114610917576040519150601f19603f3d011682016040523d82523d5f602084013e61091c565b606091505b5050905080610960576040517f08c379a000000000000000000000000000000000000000000000000000000000815260040161095790611742565b60405180910390fd5b7fa24838acd4af5195a2396965dae5abf54e84e8c19f5698bb966ae64e29994ee533868560405161099393929190611760565b60405180910390a1829350505050919050565b6109ae610e04565b6109b75f610e8b565b565b5f805f9054906101000a900473ffffffffffffffffffffffffffffffffffffffff16905090565b60025481565b5f803411610a29576040517f08c379a0000000000000000000000000000000000000000000000000000000008152600401610a20906117df565b60405180910390fd5b5f60025434610a389190611509565b9050600354811115610a7f576040517f08c379a0000000000000000000000000000000000000000000000000000000008152600401610a769061186d565b60405180910390fd5b5f60015f9054906101000a900473ffffffffffffffffffffffffffffffffffffffff1673ffffffffffffffffffffffffffffffffffffffff166370a08231306040518263ffffffff1660e01b8152600401610ada919061101c565b602060405180830381865afa158015610af5573d5f803e3d5ffd5b505050506040513d601f19601f82011682018060405250810190610b19919061109e565b905081811015610b5e576040517f08c379a0000000000000000000000000000000000000000000000000000000008152600401610b55906118fb565b60405180910390fd5b5f60015f9054906101000a900473ffffffffffffffffffffffffffffffffffffffff1673ffffffffffffffffffffffffffffffffffffffff166370a08231336040518263ffffffff1660e01b8152600401610bb9919061101c565b602060405180830381865afa158015610bd4573d5f803e3d5ffd5b505050506040513d601f19601f82011682018060405250810190610bf8919061109e565b90506004548382610c099190611919565b1115610c4a576040517f08c379a0000000000000000000000000000000000000000000000000000000008152600401610c41906119bc565b60405180910390fd5b5f60015f9054906101000a900473ffffffffffffffffffffffffffffffffffffffff1673ffffffffffffffffffffffffffffffffffffffff1663a9059cbb33866040518363ffffffff1660e01b8152600401610ca7929190611167565b6020604051808303815f875af1158015610cc3573d5f803e3d5ffd5b505050506040513d601f19601f82011682018060405250810190610ce791906111c3565b905080610d29576040517f08c379a0000000000000000000000000000000000000000000000000000000008152600401610d2090611a24565b60405180910390fd5b7f0a37b72bb67eee30e09084cf386f8a17817c57f620c3ab95fb25d6a20356ec77333486604051610d5c93929190611760565b60405180910390a18394505050505090565b610d76610e04565b8060048190555050565b610d88610e04565b5f73ffffffffffffffffffffffffffffffffffffffff168173ffffffffffffffffffffffffffffffffffffffff1603610df8575f6040517f1e4fbdf7000000000000000000000000000000000000000000000000000000008152600401610def919061101c565b60405180910390fd5b610e0181610e8b565b50565b610e0c610f4c565b73ffffffffffffffffffffffffffffffffffffffff16610e2a6109b9565b73ffffffffffffffffffffffffffffffffffffffff1614610e8957610e4d610f4c565b6040517f118cdaa7000000000000000000000000000000000000000000000000000000008152600401610e80919061101c565b60405180910390fd5b565b5f805f9054906101000a900473ffffffffffffffffffffffffffffffffffffffff169050815f806101000a81548173ffffffffffffffffffffffffffffffffffffffff021916908373ffffffffffffffffffffffffffffffffffffffff1602179055508173ffffffffffffffffffffffffffffffffffffffff168173ffffffffffffffffffffffffffffffffffffffff167f8be0079c531659141344cd1fd0a4f28419497f9722a3daafe3b4186f6b6457e060405160405180910390a35050565b5f33905090565b5f819050919050565b610f6581610f53565b82525050565b5f602082019050610f7e5f830184610f5c565b92915050565b5f80fd5b610f9181610f53565b8114610f9b575f80fd5b50565b5f81359050610fac81610f88565b92915050565b5f60208284031215610fc757610fc6610f84565b5b5f610fd484828501610f9e565b91505092915050565b5f73ffffffffffffffffffffffffffffffffffffffff82169050919050565b5f61100682610fdd565b9050919050565b61101681610ffc565b82525050565b5f60208201905061102f5f83018461100d565b92915050565b61103e81610ffc565b8114611048575f80fd5b50565b5f8135905061105981611035565b92915050565b5f6020828403121561107457611073610f84565b5b5f6110818482850161104b565b91505092915050565b5f8151905061109881610f88565b92915050565b5f602082840312156110b3576110b2610f84565b5b5f6110c08482850161108a565b91505092915050565b5f82825260208201905092915050565b7f56656e646f7220636f6e747261637420686173206e6f7420656e6f75676820745f8201527f6f6b656e7320746f207769746864726177000000000000000000000000000000602082015250565b5f6111336031836110c9565b915061113e826110d9565b604082019050919050565b5f6020820190508181035f83015261116081611127565b9050919050565b5f60408201905061117a5f83018561100d565b6111876020830184610f5c565b9392505050565b5f8115159050919050565b6111a28161118e565b81146111ac575f80fd5b50565b5f815190506111bd81611199565b92915050565b5f602082840312156111d8576111d7610f84565b5b5f6111e5848285016111af565b91505092915050565b7f4661696c656420746f207472616e7366657220746f6b656e7320746f207468655f8201527f206f776e65720000000000000000000000000000000000000000000000000000602082015250565b5f6112486026836110c9565b9150611253826111ee565b604082019050919050565b5f6020820190508181035f8301526112758161123c565b9050919050565b7f4f776e657220686173206e6f742062616c616e636520746f20776974686472615f8201527f7700000000000000000000000000000000000000000000000000000000000000602082015250565b5f6112d66021836110c9565b91506112e18261127c565b604082019050919050565b5f6020820190508181035f830152611303816112ca565b9050919050565b5f81905092915050565b50565b5f6113225f8361130a565b915061132d82611314565b5f82019050919050565b5f61134182611317565b9150819050919050565b7f4661696c656420746f2073656e6420757365722062616c616e6365206261636b5f8201527f20746f20746865206f776e657200000000000000000000000000000000000000602082015250565b5f6113a5602d836110c9565b91506113b08261134b565b604082019050919050565b5f6020820190508181035f8301526113d281611399565b9050919050565b7f5370656369667920616d6f756e74206f6620746f6b656e7320746f2073656c6c5f82015250565b5f61140d6020836110c9565b9150611418826113d9565b602082019050919050565b5f6020820190508181035f83015261143a81611401565b9050919050565b7f496e73756666696369656e7420746f6b656e2062616c616e63650000000000005f82015250565b5f611475601a836110c9565b915061148082611441565b602082019050919050565b5f6020820190508181035f8301526114a281611469565b9050919050565b7f4e487b71000000000000000000000000000000000000000000000000000000005f52601160045260245ffd5b5f6114e082610f53565b91506114eb83610f53565b9250828203905081811115611503576115026114a9565b5b92915050565b5f61151382610f53565b915061151e83610f53565b925082820261152c81610f53565b91508282048414831517611543576115426114a9565b5b5092915050565b7f4e487b71000000000000000000000000000000000000000000000000000000005f52601260045260245ffd5b5f61158182610f53565b915061158c83610f53565b92508261159c5761159b61154a565b5b828204905092915050565b7f496e73756666696369656e7420436f696e2062616c616e636520696e20636f6e5f8201527f7472616374000000000000000000000000000000000000000000000000000000602082015250565b5f6116016025836110c9565b915061160c826115a7565b604082019050919050565b5f6020820190508181035f83015261162e816115f5565b9050919050565b5f6060820190506116485f83018661100d565b611655602083018561100d565b6116626040830184610f5c565b949350505050565b7f4661696c656420746f207472616e7366657220746f6b656e20746f20636f6e745f8201527f7261637400000000000000000000000000000000000000000000000000000000602082015250565b5f6116c46024836110c9565b91506116cf8261166a565b604082019050919050565b5f6020820190508181035f8301526116f1816116b8565b9050919050565b7f4661696c656420746f2073656e6420436f696e20746f207573657200000000005f82015250565b5f61172c601b836110c9565b9150611737826116f8565b602082019050919050565b5f6020820190508181035f83015261175981611720565b9050919050565b5f6060820190506117735f83018661100d565b6117806020830185610f5c565b61178d6040830184610f5c565b949350505050565b7f53656e6420436f696e20746f2062757920736f6d6520746f6b656e73000000005f82015250565b5f6117c9601c836110c9565b91506117d482611795565b602082019050919050565b5f6020820190508181035f8301526117f6816117bd565b9050919050565b7f45786365656473206d6178696d756d20746f6b656e73207065722070757263685f8201527f6173650000000000000000000000000000000000000000000000000000000000602082015250565b5f6118576023836110c9565b9150611862826117fd565b604082019050919050565b5f6020820190508181035f8301526118848161184b565b9050919050565b7f56656e646f7220636f6e747261637420686173206e6f7420656e6f75676820745f8201527f6f6b656e7320696e206974732062616c616e6365000000000000000000000000602082015250565b5f6118e56034836110c9565b91506118f08261188b565b604082019050919050565b5f6020820190508181035f830152611912816118d9565b9050919050565b5f61192382610f53565b915061192e83610f53565b9250828201905080821115611946576119456114a9565b5b92915050565b7f45786365656473206d6178696d756d20746f6b656e73207065722061646472655f8201527f7373000000000000000000000000000000000000000000000000000000000000602082015250565b5f6119a66022836110c9565b91506119b18261194c565b604082019050919050565b5f6020820190508181035f8301526119d38161199a565b9050919050565b7f4661696c656420746f207472616e7366657220746f6b656e20746f20757365725f82015250565b5f611a0e6020836110c9565b9150611a19826119da565b602082019050919050565b5f6020820190508181035f830152611a3b81611a02565b905091905056fea2646970667358221220ebc683cd9f03c6187840e8214466414940ccb719c26fe8a3d1e7577dbd42da5d64736f6c634300081a0033",
			"opcodes": "PUSH1 0x80 PUSH1 0x40 MSTORE PUSH1 0x64 PUSH1 0x2 SSTORE PUSH9 0x3635C9ADC5DEA00000 PUSH1 0x3 SSTORE PUSH10 0x10F0CF064DD59200000 PUSH1 0x4 SSTORE PUSH1 0x2 PUSH1 0x5 SSTORE CALLVALUE DUP1 ISZERO PUSH2 0x34 JUMPI PUSH0 DUP1 REVERT JUMPDEST POP PUSH1 0x40 MLOAD PUSH2 0x1D14 CODESIZE SUB DUP1 PUSH2 0x1D14 DUP4 CODECOPY DUP2 DUP2 ADD PUSH1 0x40 MSTORE DUP2 ADD SWAP1 PUSH2 0x56 SWAP2 SWAP1 PUSH2 0x23C JUMP JUMPDEST CALLER PUSH0 PUSH20 0xFFFFFFFFFFFFFFFFFFFFFFFFFFFFFFFFFFFFFFFF AND DUP2 PUSH20 0xFFFFFFFFFFFFFFFFFFFFFFFFFFFFFFFFFFFFFFFF AND SUB PUSH2 0xC7 JUMPI PUSH0 PUSH1 0x40 MLOAD PUSH32 0x1E4FBDF700000000000000000000000000000000000000000000000000000000 DUP2 MSTORE PUSH1 0x4 ADD PUSH2 0xBE SWAP2 SWAP1 PUSH2 0x276 JUMP JUMPDEST PUSH1 0x40 MLOAD DUP1 SWAP2 SUB SWAP1 REVERT JUMPDEST PUSH2 0xD6 DUP2 PUSH2 0x11D PUSH1 0x20 SHL PUSH1 0x20 SHR JUMP JUMPDEST POP DUP1 PUSH1 0x1 PUSH0 PUSH2 0x100 EXP DUP2 SLOAD DUP2 PUSH20 0xFFFFFFFFFFFFFFFFFFFFFFFFFFFFFFFFFFFFFFFF MUL NOT AND SWAP1 DUP4 PUSH20 0xFFFFFFFFFFFFFFFFFFFFFFFFFFFFFFFFFFFFFFFF AND MUL OR SWAP1 SSTORE POP POP PUSH2 0x28F JUMP JUMPDEST PUSH0 DUP1 PUSH0 SWAP1 SLOAD SWAP1 PUSH2 0x100 EXP SWAP1 DIV PUSH20 0xFFFFFFFFFFFFFFFFFFFFFFFFFFFFFFFFFFFFFFFF AND SWAP1 POP DUP2 PUSH0 DUP1 PUSH2 0x100 EXP DUP2 SLOAD DUP2 PUSH20 0xFFFFFFFFFFFFFFFFFFFFFFFFFFFFFFFFFFFFFFFF MUL NOT AND SWAP1 DUP4 PUSH20 0xFFFFFFFFFFFFFFFFFFFFFFFFFFFFFFFFFFFFFFFF AND MUL OR SWAP1 SSTORE POP DUP2 PUSH20 0xFFFFFFFFFFFFFFFFFFFFFFFFFFFFFFFFFFFFFFFF AND DUP2 PUSH20 0xFFFFFFFFFFFFFFFFFFFFFFFFFFFFFFFFFFFFFFFF AND PUSH32 0x8BE0079C531659141344CD1FD0A4F28419497F9722A3DAAFE3B4186F6B6457E0 PUSH1 0x40 MLOAD PUSH1 0x40 MLOAD DUP1 SWAP2 SUB SWAP1 LOG3 POP POP JUMP JUMPDEST PUSH0 DUP1 REVERT JUMPDEST PUSH0 PUSH20 0xFFFFFFFFFFFFFFFFFFFFFFFFFFFFFFFFFFFFFFFF DUP3 AND SWAP1 POP SWAP2 SWAP1 POP JUMP JUMPDEST PUSH0 PUSH2 0x20B DUP3 PUSH2 0x1E2 JUMP JUMPDEST SWAP1 POP SWAP2 SWAP1 POP JUMP JUMPDEST PUSH2 0x21B DUP2 PUSH2 0x201 JUMP JUMPDEST DUP2 EQ PUSH2 0x225 JUMPI PUSH0 DUP1 REVERT JUMPDEST POP JUMP JUMPDEST PUSH0 DUP2 MLOAD SWAP1 POP PUSH2 0x236 DUP2 PUSH2 0x212 JUMP JUMPDEST SWAP3 SWAP2 POP POP JUMP JUMPDEST PUSH0 PUSH1 0x20 DUP3 DUP5 SUB SLT ISZERO PUSH2 0x251 JUMPI PUSH2 0x250 PUSH2 0x1DE JUMP JUMPDEST JUMPDEST PUSH0 PUSH2 0x25E DUP5 DUP3 DUP6 ADD PUSH2 0x228 JUMP JUMPDEST SWAP2 POP POP SWAP3 SWAP2 POP POP JUMP JUMPDEST PUSH2 0x270 DUP2 PUSH2 0x201 JUMP JUMPDEST DUP3 MSTORE POP POP JUMP JUMPDEST PUSH0 PUSH1 0x20 DUP3 ADD SWAP1 POP PUSH2 0x289 PUSH0 DUP4 ADD DUP5 PUSH2 0x267 JUMP JUMPDEST SWAP3 SWAP2 POP POP JUMP JUMPDEST PUSH2 0x1A78 DUP1 PUSH2 0x29C PUSH0 CODECOPY PUSH0 RETURN INVALID PUSH1 0x80 PUSH1 0x40 MSTORE PUSH1 0x4 CALLDATASIZE LT PUSH2 0xE7 JUMPI PUSH0 CALLDATALOAD PUSH1 0xE0 SHR DUP1 PUSH4 0x57715207 GT PUSH2 0x89 JUMPI DUP1 PUSH4 0xCB232842 GT PUSH2 0x58 JUMPI DUP1 PUSH4 0xCB232842 EQ PUSH2 0x29B JUMPI DUP1 PUSH4 0xD0FEBE4C EQ PUSH2 0x2C5 JUMPI DUP1 PUSH4 0xDBB84F11 EQ PUSH2 0x2E3 JUMPI DUP1 PUSH4 0xF2FDE38B EQ PUSH2 0x30B JUMPI PUSH2 0xE7 JUMP JUMPDEST DUP1 PUSH4 0x57715207 EQ PUSH2 0x1F5 JUMPI DUP1 PUSH4 0x6C11BCD3 EQ PUSH2 0x21F JUMPI DUP1 PUSH4 0x715018A6 EQ PUSH2 0x25B JUMPI DUP1 PUSH4 0x8DA5CB5B EQ PUSH2 0x271 JUMPI PUSH2 0xE7 JUMP JUMPDEST DUP1 PUSH4 0x23A1BAAA GT PUSH2 0xC5 JUMPI DUP1 PUSH4 0x23A1BAAA EQ PUSH2 0x165 JUMPI DUP1 PUSH4 0x315A095D EQ PUSH2 0x18F JUMPI DUP1 PUSH4 0x3CCFD60B EQ PUSH2 0x1B7 JUMPI DUP1 PUSH4 0x453989B2 EQ PUSH2 0x1CD JUMPI PUSH2 0xE7 JUMP JUMPDEST DUP1 PUSH4 0xA431E52 EQ PUSH2 0xEB JUMPI DUP1 PUSH4 0x1369BFEE EQ PUSH2 0x115 JUMPI DUP1 PUSH4 0x1B326FAD EQ PUSH2 0x13D JUMPI JUMPDEST PUSH0 DUP1 REVERT JUMPDEST CALLVALUE DUP1 ISZERO PUSH2 0xF6 JUMPI PUSH0 DUP1 REVERT JUMPDEST POP PUSH2 0xFF PUSH2 0x333 JUMP JUMPDEST PUSH1 0x40 MLOAD PUSH2 0x10C SWAP2 SWAP1 PUSH2 0xF6B JUMP JUMPDEST PUSH1 0x40 MLOAD DUP1 SWAP2 SUB SWAP1 RETURN JUMPDEST CALLVALUE DUP1 ISZERO PUSH2 0x120 JUMPI PUSH0 DUP1 REVERT JUMPDEST POP PUSH2 0x13B PUSH1 0x4 DUP1 CALLDATASIZE SUB DUP2 ADD SWAP1 PUSH2 0x136 SWAP2 SWAP1 PUSH2 0xFB2 JUMP JUMPDEST PUSH2 0x339 JUMP JUMPDEST STOP JUMPDEST CALLVALUE DUP1 ISZERO PUSH2 0x148 JUMPI PUSH0 DUP1 REVERT JUMPDEST POP PUSH2 0x163 PUSH1 0x4 DUP1 CALLDATASIZE SUB DUP2 ADD SWAP1 PUSH2 0x15E SWAP2 SWAP1 PUSH2 0xFB2 JUMP JUMPDEST PUSH2 0x34B JUMP JUMPDEST STOP JUMPDEST CALLVALUE DUP1 ISZERO PUSH2 0x170 JUMPI PUSH0 DUP1 REVERT JUMPDEST POP PUSH2 0x179 PUSH2 0x35D JUMP JUMPDEST PUSH1 0x40 MLOAD PUSH2 0x186 SWAP2 SWAP1 PUSH2 0xF6B JUMP JUMPDEST PUSH1 0x40 MLOAD DUP1 SWAP2 SUB SWAP1 RETURN JUMPDEST CALLVALUE DUP1 ISZERO PUSH2 0x19A JUMPI PUSH0 DUP1 REVERT JUMPDEST POP PUSH2 0x1B5 PUSH1 0x4 DUP1 CALLDATASIZE SUB DUP2 ADD SWAP1 PUSH2 0x1B0 SWAP2 SWAP1 PUSH2 0xFB2 JUMP JUMPDEST PUSH2 0x363 JUMP JUMPDEST STOP JUMPDEST CALLVALUE DUP1 ISZERO PUSH2 0x1C2 JUMPI PUSH0 DUP1 REVERT JUMPDEST POP PUSH2 0x1CB PUSH2 0x52E JUMP JUMPDEST STOP JUMPDEST CALLVALUE DUP1 ISZERO PUSH2 0x1D8 JUMPI PUSH0 DUP1 REVERT JUMPDEST POP PUSH2 0x1F3 PUSH1 0x4 DUP1 CALLDATASIZE SUB DUP2 ADD SWAP1 PUSH2 0x1EE SWAP2 SWAP1 PUSH2 0xFB2 JUMP JUMPDEST PUSH2 0x628 JUMP JUMPDEST STOP JUMPDEST CALLVALUE DUP1 ISZERO PUSH2 0x200 JUMPI PUSH0 DUP1 REVERT JUMPDEST POP PUSH2 0x209 PUSH2 0x63A JUMP JUMPDEST PUSH1 0x40 MLOAD PUSH2 0x216 SWAP2 SWAP1 PUSH2 0xF6B JUMP JUMPDEST PUSH1 0x40 MLOAD DUP1 SWAP2 SUB SWAP1 RETURN JUMPDEST CALLVALUE DUP1 ISZERO PUSH2 0x22A JUMPI PUSH0 DUP1 REVERT JUMPDEST POP PUSH2 0x245 PUSH1 0x4 DUP1 CALLDATASIZE SUB DUP2 ADD SWAP1 PUSH2 0x240 SWAP2 SWAP1 PUSH2 0xFB2 JUMP JUMPDEST PUSH2 0x640 JUMP JUMPDEST PUSH1 0x40 MLOAD PUSH2 0x252 SWAP2 SWAP1 PUSH2 0xF6B JUMP JUMPDEST PUSH1 0x40 MLOAD DUP1 SWAP2 SUB SWAP1 RETURN JUMPDEST CALLVALUE DUP1 ISZERO PUSH2 0x266 JUMPI PUSH0 DUP1 REVERT JUMPDEST POP PUSH2 0x26F PUSH2 0x9A6 JUMP JUMPDEST STOP JUMPDEST CALLVALUE DUP1 ISZERO PUSH2 0x27C JUMPI PUSH0 DUP1 REVERT JUMPDEST POP PUSH2 0x285 PUSH2 0x9B9 JUMP JUMPDEST PUSH1 0x40 MLOAD PUSH2 0x292 SWAP2 SWAP1 PUSH2 0x101C JUMP JUMPDEST PUSH1 0x40 MLOAD DUP1 SWAP2 SUB SWAP1 RETURN JUMPDEST CALLVALUE DUP1 ISZERO PUSH2 0x2A6 JUMPI PUSH0 DUP1 REVERT JUMPDEST POP PUSH2 0x2AF PUSH2 0x9E0 JUMP JUMPDEST PUSH1 0x40 MLOAD PUSH2 0x2BC SWAP2 SWAP1 PUSH2 0xF6B JUMP JUMPDEST PUSH1 0x40 MLOAD DUP1 SWAP2 SUB SWAP1 RETURN JUMPDEST PUSH2 0x2CD PUSH2 0x9E6 JUMP JUMPDEST PUSH1 0x40 MLOAD PUSH2 0x2DA SWAP2 SWAP1 PUSH2 0xF6B JUMP JUMPDEST PUSH1 0x40 MLOAD DUP1 SWAP2 SUB SWAP1 RETURN JUMPDEST CALLVALUE DUP1 ISZERO PUSH2 0x2EE JUMPI PUSH0 DUP1 REVERT JUMPDEST POP PUSH2 0x309 PUSH1 0x4 DUP1 CALLDATASIZE SUB DUP2 ADD SWAP1 PUSH2 0x304 SWAP2 SWAP1 PUSH2 0xFB2 JUMP JUMPDEST PUSH2 0xD6E JUMP JUMPDEST STOP JUMPDEST CALLVALUE DUP1 ISZERO PUSH2 0x316 JUMPI PUSH0 DUP1 REVERT JUMPDEST POP PUSH2 0x331 PUSH1 0x4 DUP1 CALLDATASIZE SUB DUP2 ADD SWAP1 PUSH2 0x32C SWAP2 SWAP1 PUSH2 0x105F JUMP JUMPDEST PUSH2 0xD80 JUMP JUMPDEST STOP JUMPDEST PUSH1 0x5 SLOAD DUP2 JUMP JUMPDEST PUSH2 0x341 PUSH2 0xE04 JUMP JUMPDEST DUP1 PUSH1 0x5 DUP2 SWAP1 SSTORE POP POP JUMP JUMPDEST PUSH2 0x353 PUSH2 0xE04 JUMP JUMPDEST DUP1 PUSH1 0x3 DUP2 SWAP1 SSTORE POP POP JUMP JUMPDEST PUSH1 0x4 SLOAD DUP2 JUMP JUMPDEST PUSH2 0x36B PUSH2 0xE04 JUMP JUMPDEST PUSH0 PUSH1 0x1 PUSH0 SWAP1 SLOAD SWAP1 PUSH2 0x100 EXP SWAP1 DIV PUSH20 0xFFFFFFFFFFFFFFFFFFFFFFFFFFFFFFFFFFFFFFFF AND PUSH20 0xFFFFFFFFFFFFFFFFFFFFFFFFFFFFFFFFFFFFFFFF AND PUSH4 0x70A08231 ADDRESS PUSH1 0x40 MLOAD DUP3 PUSH4 0xFFFFFFFF AND PUSH1 0xE0 SHL DUP2 MSTORE PUSH1 0x4 ADD PUSH2 0x3C6 SWAP2 SWAP1 PUSH2 0x101C JUMP JUMPDEST PUSH1 0x20 PUSH1 0x40 MLOAD DUP1 DUP4 SUB DUP2 DUP7 GAS STATICCALL ISZERO DUP1 ISZERO PUSH2 0x3E1 JUMPI RETURNDATASIZE PUSH0 DUP1 RETURNDATACOPY RETURNDATASIZE PUSH0 REVERT JUMPDEST POP POP POP POP PUSH1 0x40 MLOAD RETURNDATASIZE PUSH1 0x1F NOT PUSH1 0x1F DUP3 ADD AND DUP3 ADD DUP1 PUSH1 0x40 MSTORE POP DUP2 ADD SWAP1 PUSH2 0x405 SWAP2 SWAP1 PUSH2 0x109E JUMP JUMPDEST SWAP1 POP DUP2 DUP2 LT ISZERO PUSH2 0x44A JUMPI PUSH1 0x40 MLOAD PUSH32 0x8C379A000000000000000000000000000000000000000000000000000000000 DUP2 MSTORE PUSH1 0x4 ADD PUSH2 0x441 SWAP1 PUSH2 0x1149 JUMP JUMPDEST PUSH1 0x40 MLOAD DUP1 SWAP2 SUB SWAP1 REVERT JUMPDEST PUSH0 PUSH1 0x1 PUSH0 SWAP1 SLOAD SWAP1 PUSH2 0x100 EXP SWAP1 DIV PUSH20 0xFFFFFFFFFFFFFFFFFFFFFFFFFFFFFFFFFFFFFFFF AND PUSH20 0xFFFFFFFFFFFFFFFFFFFFFFFFFFFFFFFFFFFFFFFF AND PUSH4 0xA9059CBB CALLER DUP6 PUSH1 0x40 MLOAD DUP4 PUSH4 0xFFFFFFFF AND PUSH1 0xE0 SHL DUP2 MSTORE PUSH1 0x4 ADD PUSH2 0x4A7 SWAP3 SWAP2 SWAP1 PUSH2 0x1167 JUMP JUMPDEST PUSH1 0x20 PUSH1 0x40 MLOAD DUP1 DUP4 SUB DUP2 PUSH0 DUP8 GAS CALL ISZERO DUP1 ISZERO PUSH2 0x4C3 JUMPI RETURNDATASIZE PUSH0 DUP1 RETURNDATACOPY RETURNDATASIZE PUSH0 REVERT JUMPDEST POP POP POP POP PUSH1 0x40 MLOAD RETURNDATASIZE PUSH1 0x1F NOT PUSH1 0x1F DUP3 ADD AND DUP3 ADD DUP1 PUSH1 0x40 MSTORE POP DUP2 ADD SWAP1 PUSH2 0x4E7 SWAP2 SWAP1 PUSH2 0x11C3 JUMP JUMPDEST SWAP1 POP DUP1 PUSH2 0x529 JUMPI PUSH1 0x40 MLOAD PUSH32 0x8C379A000000000000000000000000000000000000000000000000000000000 DUP2 MSTORE PUSH1 0x4 ADD PUSH2 0x520 SWAP1 PUSH2 0x125E JUMP JUMPDEST PUSH1 0x40 MLOAD DUP1 SWAP2 SUB SWAP1 REVERT JUMPDEST POP POP POP JUMP JUMPDEST PUSH2 0x536 PUSH2 0xE04 JUMP JUMPDEST PUSH0 SELFBALANCE SWAP1 POP PUSH0 DUP2 GT PUSH2 0x57C JUMPI PUSH1 0x40 MLOAD PUSH32 0x8C379A000000000000000000000000000000000000000000000000000000000 DUP2 MSTORE PUSH1 0x4 ADD PUSH2 0x573 SWAP1 PUSH2 0x12EC JUMP JUMPDEST PUSH1 0x40 MLOAD DUP1 SWAP2 SUB SWAP1 REVERT JUMPDEST PUSH0 CALLER PUSH20 0xFFFFFFFFFFFFFFFFFFFFFFFFFFFFFFFFFFFFFFFF AND DUP3 PUSH1 0x40 MLOAD PUSH2 0x5A1 SWAP1 PUSH2 0x1337 JUMP JUMPDEST PUSH0 PUSH1 0x40 MLOAD DUP1 DUP4 SUB DUP2 DUP6 DUP8 GAS CALL SWAP3 POP POP POP RETURNDATASIZE DUP1 PUSH0 DUP2 EQ PUSH2 0x5DB JUMPI PUSH1 0x40 MLOAD SWAP2 POP PUSH1 0x1F NOT PUSH1 0x3F RETURNDATASIZE ADD AND DUP3 ADD PUSH1 0x40 MSTORE RETURNDATASIZE DUP3 MSTORE RETURNDATASIZE PUSH0 PUSH1 0x20 DUP5 ADD RETURNDATACOPY PUSH2 0x5E0 JUMP JUMPDEST PUSH1 0x60 SWAP2 POP JUMPDEST POP POP SWAP1 POP DUP1 PUSH2 0x624 JUMPI PUSH1 0x40 MLOAD PUSH32 0x8C379A000000000000000000000000000000000000000000000000000000000 DUP2 MSTORE PUSH1 0x4 ADD PUSH2 0x61B SWAP1 PUSH2 0x13BB JUMP JUMPDEST PUSH1 0x40 MLOAD DUP1 SWAP2 SUB SWAP1 REVERT JUMPDEST POP POP JUMP JUMPDEST PUSH2 0x630 PUSH2 0xE04 JUMP JUMPDEST DUP1 PUSH1 0x2 DUP2 SWAP1 SSTORE POP POP JUMP JUMPDEST PUSH1 0x3 SLOAD DUP2 JUMP JUMPDEST PUSH0 DUP1 DUP3 GT PUSH2 0x683 JUMPI PUSH1 0x40 MLOAD PUSH32 0x8C379A000000000000000000000000000000000000000000000000000000000 DUP2 MSTORE PUSH1 0x4 ADD PUSH2 0x67A SWAP1 PUSH2 0x1423 JUMP JUMPDEST PUSH1 0x40 MLOAD DUP1 SWAP2 SUB SWAP1 REVERT JUMPDEST DUP2 PUSH1 0x1 PUSH0 SWAP1 SLOAD SWAP1 PUSH2 0x100 EXP SWAP1 DIV PUSH20 0xFFFFFFFFFFFFFFFFFFFFFFFFFFFFFFFFFFFFFFFF AND PUSH20 0xFFFFFFFFFFFFFFFFFFFFFFFFFFFFFFFFFFFFFFFF AND PUSH4 0x70A08231 CALLER PUSH1 0x40 MLOAD DUP3 PUSH4 0xFFFFFFFF AND PUSH1 0xE0 SHL DUP2 MSTORE PUSH1 0x4 ADD PUSH2 0x6DE SWAP2 SWAP1 PUSH2 0x101C JUMP JUMPDEST PUSH1 0x20 PUSH1 0x40 MLOAD DUP1 DUP4 SUB DUP2 DUP7 GAS STATICCALL ISZERO DUP1 ISZERO PUSH2 0x6F9 JUMPI RETURNDATASIZE PUSH0 DUP1 RETURNDATACOPY RETURNDATASIZE PUSH0 REVERT JUMPDEST POP POP POP POP PUSH1 0x40 MLOAD RETURNDATASIZE PUSH1 0x1F NOT PUSH1 0x1F DUP3 ADD AND DUP3 ADD DUP1 PUSH1 0x40 MSTORE POP DUP2 ADD SWAP1 PUSH2 0x71D SWAP2 SWAP1 PUSH2 0x109E JUMP JUMPDEST LT ISZERO PUSH2 0x75E JUMPI PUSH1 0x40 MLOAD PUSH32 0x8C379A000000000000000000000000000000000000000000000000000000000 DUP2 MSTORE PUSH1 0x4 ADD PUSH2 0x755 SWAP1 PUSH2 0x148B JUMP JUMPDEST PUSH1 0x40 MLOAD DUP1 SWAP2 SUB SWAP1 REVERT JUMPDEST PUSH0 PUSH1 0x64 PUSH1 0x5 SLOAD PUSH1 0x64 PUSH2 0x770 SWAP2 SWAP1 PUSH2 0x14D6 JUMP JUMPDEST PUSH1 0x2 SLOAD DUP6 PUSH2 0x77E SWAP2 SWAP1 PUSH2 0x1509 JUMP JUMPDEST PUSH2 0x788 SWAP2 SWAP1 PUSH2 0x1509 JUMP JUMPDEST PUSH2 0x792 SWAP2 SWAP1 PUSH2 0x1577 JUMP JUMPDEST SWAP1 POP DUP1 SELFBALANCE LT ISZERO PUSH2 0x7D7 JUMPI PUSH1 0x40 MLOAD PUSH32 0x8C379A000000000000000000000000000000000000000000000000000000000 DUP2 MSTORE PUSH1 0x4 ADD PUSH2 0x7CE SWAP1 PUSH2 0x1617 JUMP JUMPDEST PUSH1 0x40 MLOAD DUP1 SWAP2 SUB SWAP1 REVERT JUMPDEST PUSH0 PUSH1 0x1 PUSH0 SWAP1 SLOAD SWAP1 PUSH2 0x100 EXP SWAP1 DIV PUSH20 0xFFFFFFFFFFFFFFFFFFFFFFFFFFFFFFFFFFFFFFFF AND PUSH20 0xFFFFFFFFFFFFFFFFFFFFFFFFFFFFFFFFFFFFFFFF AND PUSH4 0x23B872DD CALLER ADDRESS DUP8 PUSH1 0x40 MLOAD DUP5 PUSH4 0xFFFFFFFF AND PUSH1 0xE0 SHL DUP2 MSTORE PUSH1 0x4 ADD PUSH2 0x836 SWAP4 SWAP3 SWAP2 SWAP1 PUSH2 0x1635 JUMP JUMPDEST PUSH1 0x20 PUSH1 0x40 MLOAD DUP1 DUP4 SUB DUP2 PUSH0 DUP8 GAS CALL ISZERO DUP1 ISZERO PUSH2 0x852 JUMPI RETURNDATASIZE PUSH0 DUP1 RETURNDATACOPY RETURNDATASIZE PUSH0 REVERT JUMPDEST POP POP POP POP PUSH1 0x40 MLOAD RETURNDATASIZE PUSH1 0x1F NOT PUSH1 0x1F DUP3 ADD AND DUP3 ADD DUP1 PUSH1 0x40 MSTORE POP DUP2 ADD SWAP1 PUSH2 0x876 SWAP2 SWAP1 PUSH2 0x11C3 JUMP JUMPDEST SWAP1 POP DUP1 PUSH2 0x8B8 JUMPI PUSH1 0x40 MLOAD PUSH32 0x8C379A000000000000000000000000000000000000000000000000000000000 DUP2 MSTORE PUSH1 0x4 ADD PUSH2 0x8AF SWAP1 PUSH2 0x16DA JUMP JUMPDEST PUSH1 0x40 MLOAD DUP1 SWAP2 SUB SWAP1 REVERT JUMPDEST PUSH0 CALLER PUSH20 0xFFFFFFFFFFFFFFFFFFFFFFFFFFFFFFFFFFFFFFFF AND DUP4 PUSH1 0x40 MLOAD PUSH2 0x8DD SWAP1 PUSH2 0x1337 JUMP JUMPDEST PUSH0 PUSH1 0x40 MLOAD DUP1 DUP4 SUB DUP2 DUP6 DUP8 GAS CALL SWAP3 POP POP POP RETURNDATASIZE DUP1 PUSH0 DUP2 EQ PUSH2 0x917 JUMPI PUSH1 0x40 MLOAD SWAP2 POP PUSH1 0x1F NOT PUSH1 0x3F RETURNDATASIZE ADD AND DUP3 ADD PUSH1 0x40 MSTORE RETURNDATASIZE DUP3 MSTORE RETURNDATASIZE PUSH0 PUSH1 0x20 DUP5 ADD RETURNDATACOPY PUSH2 0x91C JUMP JUMPDEST PUSH1 0x60 SWAP2 POP JUMPDEST POP POP SWAP1 POP DUP1 PUSH2 0x960 JUMPI PUSH1 0x40 MLOAD PUSH32 0x8C379A000000000000000000000000000000000000000000000000000000000 DUP2 MSTORE PUSH1 0x4 ADD PUSH2 0x957 SWAP1 PUSH2 0x1742 JUMP JUMPDEST PUSH1 0x40 MLOAD DUP1 SWAP2 SUB SWAP1 REVERT JUMPDEST PUSH32 0xA24838ACD4AF5195A2396965DAE5ABF54E84E8C19F5698BB966AE64E29994EE5 CALLER DUP7 DUP6 PUSH1 0x40 MLOAD PUSH2 0x993 SWAP4 SWAP3 SWAP2 SWAP1 PUSH2 0x1760 JUMP JUMPDEST PUSH1 0x40 MLOAD DUP1 SWAP2 SUB SWAP1 LOG1 DUP3 SWAP4 POP POP POP POP SWAP2 SWAP1 POP JUMP JUMPDEST PUSH2 0x9AE PUSH2 0xE04 JUMP JUMPDEST PUSH2 0x9B7 PUSH0 PUSH2 0xE8B JUMP JUMPDEST JUMP JUMPDEST PUSH0 DUP1 PUSH0 SWAP1 SLOAD SWAP1 PUSH2 0x100 EXP SWAP1 DIV PUSH20 0xFFFFFFFFFFFFFFFFFFFFFFFFFFFFFFFFFFFFFFFF AND SWAP1 POP SWAP1 JUMP JUMPDEST PUSH1 0x2 SLOAD DUP2 JUMP JUMPDEST PUSH0 DUP1 CALLVALUE GT PUSH2 0xA29 JUMPI PUSH1 0x40 MLOAD PUSH32 0x8C379A000000000000000000000000000000000000000000000000000000000 DUP2 MSTORE PUSH1 0x4 ADD PUSH2 0xA20 SWAP1 PUSH2 0x17DF JUMP JUMPDEST PUSH1 0x40 MLOAD DUP1 SWAP2 SUB SWAP1 REVERT JUMPDEST PUSH0 PUSH1 0x2 SLOAD CALLVALUE PUSH2 0xA38 SWAP2 SWAP1 PUSH2 0x1509 JUMP JUMPDEST SWAP1 POP PUSH1 0x3 SLOAD DUP2 GT ISZERO PUSH2 0xA7F JUMPI PUSH1 0x40 MLOAD PUSH32 0x8C379A000000000000000000000000000000000000000000000000000000000 DUP2 MSTORE PUSH1 0x4 ADD PUSH2 0xA76 SWAP1 PUSH2 0x186D JUMP JUMPDEST PUSH1 0x40 MLOAD DUP1 SWAP2 SUB SWAP1 REVERT JUMPDEST PUSH0 PUSH1 0x1 PUSH0 SWAP1 SLOAD SWAP1 PUSH2 0x100 EXP SWAP1 DIV PUSH20 0xFFFFFFFFFFFFFFFFFFFFFFFFFFFFFFFFFFFFFFFF AND PUSH20 0xFFFFFFFFFFFFFFFFFFFFFFFFFFFFFFFFFFFFFFFF AND PUSH4 0x70A08231 ADDRESS PUSH1 0x40 MLOAD DUP3 PUSH4 0xFFFFFFFF AND PUSH1 0xE0 SHL DUP2 MSTORE PUSH1 0x4 ADD PUSH2 0xADA SWAP2 SWAP1 PUSH2 0x101C JUMP JUMPDEST PUSH1 0x20 PUSH1 0x40 MLOAD DUP1 DUP4 SUB DUP2 DUP7 GAS STATICCALL ISZERO DUP1 ISZERO PUSH2 0xAF5 JUMPI RETURNDATASIZE PUSH0 DUP1 RETURNDATACOPY RETURNDATASIZE PUSH0 REVERT JUMPDEST POP POP POP POP PUSH1 0x40 MLOAD RETURNDATASIZE PUSH1 0x1F NOT PUSH1 0x1F DUP3 ADD AND DUP3 ADD DUP1 PUSH1 0x40 MSTORE POP DUP2 ADD SWAP1 PUSH2 0xB19 SWAP2 SWAP1 PUSH2 0x109E JUMP JUMPDEST SWAP1 POP DUP2 DUP2 LT ISZERO PUSH2 0xB5E JUMPI PUSH1 0x40 MLOAD PUSH32 0x8C379A000000000000000000000000000000000000000000000000000000000 DUP2 MSTORE PUSH1 0x4 ADD PUSH2 0xB55 SWAP1 PUSH2 0x18FB JUMP JUMPDEST PUSH1 0x40 MLOAD DUP1 SWAP2 SUB SWAP1 REVERT JUMPDEST PUSH0 PUSH1 0x1 PUSH0 SWAP1 SLOAD SWAP1 PUSH2 0x100 EXP SWAP1 DIV PUSH20 0xFFFFFFFFFFFFFFFFFFFFFFFFFFFFFFFFFFFFFFFF AND PUSH20 0xFFFFFFFFFFFFFFFFFFFFFFFFFFFFFFFFFFFFFFFF AND PUSH4 0x70A08231 CALLER PUSH1 0x40 MLOAD DUP3 PUSH4 0xFFFFFFFF AND PUSH1 0xE0 SHL DUP2 MSTORE PUSH1 0x4 ADD PUSH2 0xBB9 SWAP2 SWAP1 PUSH2 0x101C JUMP JUMPDEST PUSH1 0x20 PUSH1 0x40 MLOAD DUP1 DUP4 SUB DUP2 DUP7 GAS STATICCALL ISZERO DUP1 ISZERO PUSH2 0xBD4 JUMPI RETURNDATASIZE PUSH0 DUP1 RETURNDATACOPY RETURNDATASIZE PUSH0 REVERT JUMPDEST POP POP POP POP PUSH1 0x40 MLOAD RETURNDATASIZE PUSH1 0x1F NOT PUSH1 0x1F DUP3 ADD AND DUP3 ADD DUP1 PUSH1 0x40 MSTORE POP DUP2 ADD SWAP1 PUSH2 0xBF8 SWAP2 SWAP1 PUSH2 0x109E JUMP JUMPDEST SWAP1 POP PUSH1 0x4 SLOAD DUP4 DUP3 PUSH2 0xC09 SWAP2 SWAP1 PUSH2 0x1919 JUMP JUMPDEST GT ISZERO PUSH2 0xC4A JUMPI PUSH1 0x40 MLOAD PUSH32 0x8C379A000000000000000000000000000000000000000000000000000000000 DUP2 MSTORE PUSH1 0x4 ADD PUSH2 0xC41 SWAP1 PUSH2 0x19BC JUMP JUMPDEST PUSH1 0x40 MLOAD DUP1 SWAP2 SUB SWAP1 REVERT JUMPDEST PUSH0 PUSH1 0x1 PUSH0 SWAP1 SLOAD SWAP1 PUSH2 0x100 EXP SWAP1 DIV PUSH20 0xFFFFFFFFFFFFFFFFFFFFFFFFFFFFFFFFFFFFFFFF AND PUSH20 0xFFFFFFFFFFFFFFFFFFFFFFFFFFFFFFFFFFFFFFFF AND PUSH4 0xA9059CBB CALLER DUP7 PUSH1 0x40 MLOAD DUP4 PUSH4 0xFFFFFFFF AND PUSH1 0xE0 SHL DUP2 MSTORE PUSH1 0x4 ADD PUSH2 0xCA7 SWAP3 SWAP2 SWAP1 PUSH2 0x1167 JUMP JUMPDEST PUSH1 0x20 PUSH1 0x40 MLOAD DUP1 DUP4 SUB DUP2 PUSH0 DUP8 GAS CALL ISZERO DUP1 ISZERO PUSH2 0xCC3 JUMPI RETURNDATASIZE PUSH0 DUP1 RETURNDATACOPY RETURNDATASIZE PUSH0 REVERT JUMPDEST POP POP POP POP PUSH1 0x40 MLOAD RETURNDATASIZE PUSH1 0x1F NOT PUSH1 0x1F DUP3 ADD AND DUP3 ADD DUP1 PUSH1 0x40 MSTORE POP DUP2 ADD SWAP1 PUSH2 0xCE7 SWAP2 SWAP1 PUSH2 0x11C3 JUMP JUMPDEST SWAP1 POP DUP1 PUSH2 0xD29 JUMPI PUSH1 0x40 MLOAD PUSH32 0x8C379A000000000000000000000000000000000000000000000000000000000 DUP2 MSTORE PUSH1 0x4 ADD PUSH2 0xD20 SWAP1 PUSH2 0x1A24 JUMP JUMPDEST PUSH1 0x40 MLOAD DUP1 SWAP2 SUB SWAP1 REVERT JUMPDEST PUSH32 0xA37B72BB67EEE30E09084CF386F8A17817C57F620C3AB95FB25D6A20356EC77 CALLER CALLVALUE DUP7 PUSH1 0x40 MLOAD PUSH2 0xD5C SWAP4 SWAP3 SWAP2 SWAP1 PUSH2 0x1760 JUMP JUMPDEST PUSH1 0x40 MLOAD DUP1 SWAP2 SUB SWAP1 LOG1 DUP4 SWAP5 POP POP POP POP POP SWAP1 JUMP JUMPDEST PUSH2 0xD76 PUSH2 0xE04 JUMP JUMPDEST DUP1 PUSH1 0x4 DUP2 SWAP1 SSTORE POP POP JUMP JUMPDEST PUSH2 0xD88 PUSH2 0xE04 JUMP JUMPDEST PUSH0 PUSH20 0xFFFFFFFFFFFFFFFFFFFFFFFFFFFFFFFFFFFFFFFF AND DUP2 PUSH20 0xFFFFFFFFFFFFFFFFFFFFFFFFFFFFFFFFFFFFFFFF AND SUB PUSH2 0xDF8 JUMPI PUSH0 PUSH1 0x40 MLOAD PUSH32 0x1E4FBDF700000000000000000000000000000000000000000000000000000000 DUP2 MSTORE PUSH1 0x4 ADD PUSH2 0xDEF SWAP2 SWAP1 PUSH2 0x101C JUMP JUMPDEST PUSH1 0x40 MLOAD DUP1 SWAP2 SUB SWAP1 REVERT JUMPDEST PUSH2 0xE01 DUP2 PUSH2 0xE8B JUMP JUMPDEST POP JUMP JUMPDEST PUSH2 0xE0C PUSH2 0xF4C JUMP JUMPDEST PUSH20 0xFFFFFFFFFFFFFFFFFFFFFFFFFFFFFFFFFFFFFFFF AND PUSH2 0xE2A PUSH2 0x9B9 JUMP JUMPDEST PUSH20 0xFFFFFFFFFFFFFFFFFFFFFFFFFFFFFFFFFFFFFFFF AND EQ PUSH2 0xE89 JUMPI PUSH2 0xE4D PUSH2 0xF4C JUMP JUMPDEST PUSH1 0x40 MLOAD PUSH32 0x118CDAA700000000000000000000000000000000000000000000000000000000 DUP2 MSTORE PUSH1 0x4 ADD PUSH2 0xE80 SWAP2 SWAP1 PUSH2 0x101C JUMP JUMPDEST PUSH1 0x40 MLOAD DUP1 SWAP2 SUB SWAP1 REVERT JUMPDEST JUMP JUMPDEST PUSH0 DUP1 PUSH0 SWAP1 SLOAD SWAP1 PUSH2 0x100 EXP SWAP1 DIV PUSH20 0xFFFFFFFFFFFFFFFFFFFFFFFFFFFFFFFFFFFFFFFF AND SWAP1 POP DUP2 PUSH0 DUP1 PUSH2 0x100 EXP DUP2 SLOAD DUP2 PUSH20 0xFFFFFFFFFFFFFFFFFFFFFFFFFFFFFFFFFFFFFFFF MUL NOT AND SWAP1 DUP4 PUSH20 0xFFFFFFFFFFFFFFFFFFFFFFFFFFFFFFFFFFFFFFFF AND MUL OR SWAP1 SSTORE POP DUP2 PUSH20 0xFFFFFFFFFFFFFFFFFFFFFFFFFFFFFFFFFFFFFFFF AND DUP2 PUSH20 0xFFFFFFFFFFFFFFFFFFFFFFFFFFFFFFFFFFFFFFFF AND PUSH32 0x8BE0079C531659141344CD1FD0A4F28419497F9722A3DAAFE3B4186F6B6457E0 PUSH1 0x40 MLOAD PUSH1 0x40 MLOAD DUP1 SWAP2 SUB SWAP1 LOG3 POP POP JUMP JUMPDEST PUSH0 CALLER SWAP1 POP SWAP1 JUMP JUMPDEST PUSH0 DUP2 SWAP1 POP SWAP2 SWAP1 POP JUMP JUMPDEST PUSH2 0xF65 DUP2 PUSH2 0xF53 JUMP JUMPDEST DUP3 MSTORE POP POP JUMP JUMPDEST PUSH0 PUSH1 0x20 DUP3 ADD SWAP1 POP PUSH2 0xF7E PUSH0 DUP4 ADD DUP5 PUSH2 0xF5C JUMP JUMPDEST SWAP3 SWAP2 POP POP JUMP JUMPDEST PUSH0 DUP1 REVERT JUMPDEST PUSH2 0xF91 DUP2 PUSH2 0xF53 JUMP JUMPDEST DUP2 EQ PUSH2 0xF9B JUMPI PUSH0 DUP1 REVERT JUMPDEST POP JUMP JUMPDEST PUSH0 DUP2 CALLDATALOAD SWAP1 POP PUSH2 0xFAC DUP2 PUSH2 0xF88 JUMP JUMPDEST SWAP3 SWAP2 POP POP JUMP JUMPDEST PUSH0 PUSH1 0x20 DUP3 DUP5 SUB SLT ISZERO PUSH2 0xFC7 JUMPI PUSH2 0xFC6 PUSH2 0xF84 JUMP JUMPDEST JUMPDEST PUSH0 PUSH2 0xFD4 DUP5 DUP3 DUP6 ADD PUSH2 0xF9E JUMP JUMPDEST SWAP2 POP POP SWAP3 SWAP2 POP POP JUMP JUMPDEST PUSH0 PUSH20 0xFFFFFFFFFFFFFFFFFFFFFFFFFFFFFFFFFFFFFFFF DUP3 AND SWAP1 POP SWAP2 SWAP1 POP JUMP JUMPDEST PUSH0 PUSH2 0x1006 DUP3 PUSH2 0xFDD JUMP JUMPDEST SWAP1 POP SWAP2 SWAP1 POP JUMP JUMPDEST PUSH2 0x1016 DUP2 PUSH2 0xFFC JUMP JUMPDEST DUP3 MSTORE POP POP JUMP JUMPDEST PUSH0 PUSH1 0x20 DUP3 ADD SWAP1 POP PUSH2 0x102F PUSH0 DUP4 ADD DUP5 PUSH2 0x100D JUMP JUMPDEST SWAP3 SWAP2 POP POP JUMP JUMPDEST PUSH2 0x103E DUP2 PUSH2 0xFFC JUMP JUMPDEST DUP2 EQ PUSH2 0x1048 JUMPI PUSH0 DUP1 REVERT JUMPDEST POP JUMP JUMPDEST PUSH0 DUP2 CALLDATALOAD SWAP1 POP PUSH2 0x1059 DUP2 PUSH2 0x1035 JUMP JUMPDEST SWAP3 SWAP2 POP POP JUMP JUMPDEST PUSH0 PUSH1 0x20 DUP3 DUP5 SUB SLT ISZERO PUSH2 0x1074 JUMPI PUSH2 0x1073 PUSH2 0xF84 JUMP JUMPDEST JUMPDEST PUSH0 PUSH2 0x1081 DUP5 DUP3 DUP6 ADD PUSH2 0x104B JUMP JUMPDEST SWAP2 POP POP SWAP3 SWAP2 POP POP JUMP JUMPDEST PUSH0 DUP2 MLOAD SWAP1 POP PUSH2 0x1098 DUP2 PUSH2 0xF88 JUMP JUMPDEST SWAP3 SWAP2 POP POP JUMP JUMPDEST PUSH0 PUSH1 0x20 DUP3 DUP5 SUB SLT ISZERO PUSH2 0x10B3 JUMPI PUSH2 0x10B2 PUSH2 0xF84 JUMP JUMPDEST JUMPDEST PUSH0 PUSH2 0x10C0 DUP5 DUP3 DUP6 ADD PUSH2 0x108A JUMP JUMPDEST SWAP2 POP POP SWAP3 SWAP2 POP POP JUMP JUMPDEST PUSH0 DUP3 DUP3 MSTORE PUSH1 0x20 DUP3 ADD SWAP1 POP SWAP3 SWAP2 POP POP JUMP JUMPDEST PUSH32 0x56656E646F7220636F6E747261637420686173206E6F7420656E6F7567682074 PUSH0 DUP3 ADD MSTORE PUSH32 0x6F6B656E7320746F207769746864726177000000000000000000000000000000 PUSH1 0x20 DUP3 ADD MSTORE POP JUMP JUMPDEST PUSH0 PUSH2 0x1133 PUSH1 0x31 DUP4 PUSH2 0x10C9 JUMP JUMPDEST SWAP2 POP PUSH2 0x113E DUP3 PUSH2 0x10D9 JUMP JUMPDEST PUSH1 0x40 DUP3 ADD SWAP1 POP SWAP2 SWAP1 POP JUMP JUMPDEST PUSH0 PUSH1 0x20 DUP3 ADD SWAP1 POP DUP2 DUP2 SUB PUSH0 DUP4 ADD MSTORE PUSH2 0x1160 DUP2 PUSH2 0x1127 JUMP JUMPDEST SWAP1 POP SWAP2 SWAP1 POP JUMP JUMPDEST PUSH0 PUSH1 0x40 DUP3 ADD SWAP1 POP PUSH2 0x117A PUSH0 DUP4 ADD DUP6 PUSH2 0x100D JUMP JUMPDEST PUSH2 0x1187 PUSH1 0x20 DUP4 ADD DUP5 PUSH2 0xF5C JUMP JUMPDEST SWAP4 SWAP3 POP POP POP JUMP JUMPDEST PUSH0 DUP2 ISZERO ISZERO SWAP1 POP SWAP2 SWAP1 POP JUMP JUMPDEST PUSH2 0x11A2 DUP2 PUSH2 0x118E JUMP JUMPDEST DUP2 EQ PUSH2 0x11AC JUMPI PUSH0 DUP1 REVERT JUMPDEST POP JUMP JUMPDEST PUSH0 DUP2 MLOAD SWAP1 POP PUSH2 0x11BD DUP2 PUSH2 0x1199 JUMP JUMPDEST SWAP3 SWAP2 POP POP JUMP JUMPDEST PUSH0 PUSH1 0x20 DUP3 DUP5 SUB SLT ISZERO PUSH2 0x11D8 JUMPI PUSH2 0x11D7 PUSH2 0xF84 JUMP JUMPDEST JUMPDEST PUSH0 PUSH2 0x11E5 DUP5 DUP3 DUP6 ADD PUSH2 0x11AF JUMP JUMPDEST SWAP2 POP POP SWAP3 SWAP2 POP POP JUMP JUMPDEST PUSH32 0x4661696C656420746F207472616E7366657220746F6B656E7320746F20746865 PUSH0 DUP3 ADD MSTORE PUSH32 0x206F776E65720000000000000000000000000000000000000000000000000000 PUSH1 0x20 DUP3 ADD MSTORE POP JUMP JUMPDEST PUSH0 PUSH2 0x1248 PUSH1 0x26 DUP4 PUSH2 0x10C9 JUMP JUMPDEST SWAP2 POP PUSH2 0x1253 DUP3 PUSH2 0x11EE JUMP JUMPDEST PUSH1 0x40 DUP3 ADD SWAP1 POP SWAP2 SWAP1 POP JUMP JUMPDEST PUSH0 PUSH1 0x20 DUP3 ADD SWAP1 POP DUP2 DUP2 SUB PUSH0 DUP4 ADD MSTORE PUSH2 0x1275 DUP2 PUSH2 0x123C JUMP JUMPDEST SWAP1 POP SWAP2 SWAP1 POP JUMP JUMPDEST PUSH32 0x4F776E657220686173206E6F742062616C616E636520746F2077697468647261 PUSH0 DUP3 ADD MSTORE PUSH32 0x7700000000000000000000000000000000000000000000000000000000000000 PUSH1 0x20 DUP3 ADD MSTORE POP JUMP JUMPDEST PUSH0 PUSH2 0x12D6 PUSH1 0x21 DUP4 PUSH2 0x10C9 JUMP JUMPDEST SWAP2 POP PUSH2 0x12E1 DUP3 PUSH2 0x127C JUMP JUMPDEST PUSH1 0x40 DUP3 ADD SWAP1 POP SWAP2 SWAP1 POP JUMP JUMPDEST PUSH0 PUSH1 0x20 DUP3 ADD SWAP1 POP DUP2 DUP2 SUB PUSH0 DUP4 ADD MSTORE PUSH2 0x1303 DUP2 PUSH2 0x12CA JUMP JUMPDEST SWAP1 POP SWAP2 SWAP1 POP JUMP JUMPDEST PUSH0 DUP2 SWAP1 POP SWAP3 SWAP2 POP POP JUMP JUMPDEST POP JUMP JUMPDEST PUSH0 PUSH2 0x1322 PUSH0 DUP4 PUSH2 0x130A JUMP JUMPDEST SWAP2 POP PUSH2 0x132D DUP3 PUSH2 0x1314 JUMP JUMPDEST PUSH0 DUP3 ADD SWAP1 POP SWAP2 SWAP1 POP JUMP JUMPDEST PUSH0 PUSH2 0x1341 DUP3 PUSH2 0x1317 JUMP JUMPDEST SWAP2 POP DUP2 SWAP1 POP SWAP2 SWAP1 POP JUMP JUMPDEST PUSH32 0x4661696C656420746F2073656E6420757365722062616C616E6365206261636B PUSH0 DUP3 ADD MSTORE PUSH32 0x20746F20746865206F776E657200000000000000000000000000000000000000 PUSH1 0x20 DUP3 ADD MSTORE POP JUMP JUMPDEST PUSH0 PUSH2 0x13A5 PUSH1 0x2D DUP4 PUSH2 0x10C9 JUMP JUMPDEST SWAP2 POP PUSH2 0x13B0 DUP3 PUSH2 0x134B JUMP JUMPDEST PUSH1 0x40 DUP3 ADD SWAP1 POP SWAP2 SWAP1 POP JUMP JUMPDEST PUSH0 PUSH1 0x20 DUP3 ADD SWAP1 POP DUP2 DUP2 SUB PUSH0 DUP4 ADD MSTORE PUSH2 0x13D2 DUP2 PUSH2 0x1399 JUMP JUMPDEST SWAP1 POP SWAP2 SWAP1 POP JUMP JUMPDEST PUSH32 0x5370656369667920616D6F756E74206F6620746F6B656E7320746F2073656C6C PUSH0 DUP3 ADD MSTORE POP JUMP JUMPDEST PUSH0 PUSH2 0x140D PUSH1 0x20 DUP4 PUSH2 0x10C9 JUMP JUMPDEST SWAP2 POP PUSH2 0x1418 DUP3 PUSH2 0x13D9 JUMP JUMPDEST PUSH1 0x20 DUP3 ADD SWAP1 POP SWAP2 SWAP1 POP JUMP JUMPDEST PUSH0 PUSH1 0x20 DUP3 ADD SWAP1 POP DUP2 DUP2 SUB PUSH0 DUP4 ADD MSTORE PUSH2 0x143A DUP2 PUSH2 0x1401 JUMP JUMPDEST SWAP1 POP SWAP2 SWAP1 POP JUMP JUMPDEST PUSH32 0x496E73756666696369656E7420746F6B656E2062616C616E6365000000000000 PUSH0 DUP3 ADD MSTORE POP JUMP JUMPDEST PUSH0 PUSH2 0x1475 PUSH1 0x1A DUP4 PUSH2 0x10C9 JUMP JUMPDEST SWAP2 POP PUSH2 0x1480 DUP3 PUSH2 0x1441 JUMP JUMPDEST PUSH1 0x20 DUP3 ADD SWAP1 POP SWAP2 SWAP1 POP JUMP JUMPDEST PUSH0 PUSH1 0x20 DUP3 ADD SWAP1 POP DUP2 DUP2 SUB PUSH0 DUP4 ADD MSTORE PUSH2 0x14A2 DUP2 PUSH2 0x1469 JUMP JUMPDEST SWAP1 POP SWAP2 SWAP1 POP JUMP JUMPDEST PUSH32 0x4E487B7100000000000000000000000000000000000000000000000000000000 PUSH0 MSTORE PUSH1 0x11 PUSH1 0x4 MSTORE PUSH1 0x24 PUSH0 REVERT JUMPDEST PUSH0 PUSH2 0x14E0 DUP3 PUSH2 0xF53 JUMP JUMPDEST SWAP2 POP PUSH2 0x14EB DUP4 PUSH2 0xF53 JUMP JUMPDEST SWAP3 POP DUP3 DUP3 SUB SWAP1 POP DUP2 DUP2 GT ISZERO PUSH2 0x1503 JUMPI PUSH2 0x1502 PUSH2 0x14A9 JUMP JUMPDEST JUMPDEST SWAP3 SWAP2 POP POP JUMP JUMPDEST PUSH0 PUSH2 0x1513 DUP3 PUSH2 0xF53 JUMP JUMPDEST SWAP2 POP PUSH2 0x151E DUP4 PUSH2 0xF53 JUMP JUMPDEST SWAP3 POP DUP3 DUP3 MUL PUSH2 0x152C DUP2 PUSH2 0xF53 JUMP JUMPDEST SWAP2 POP DUP3 DUP3 DIV DUP5 EQ DUP4 ISZERO OR PUSH2 0x1543 JUMPI PUSH2 0x1542 PUSH2 0x14A9 JUMP JUMPDEST JUMPDEST POP SWAP3 SWAP2 POP POP JUMP JUMPDEST PUSH32 0x4E487B7100000000000000000000000000000000000000000000000000000000 PUSH0 MSTORE PUSH1 0x12 PUSH1 0x4 MSTORE PUSH1 0x24 PUSH0 REVERT JUMPDEST PUSH0 PUSH2 0x1581 DUP3 PUSH2 0xF53 JUMP JUMPDEST SWAP2 POP PUSH2 0x158C DUP4 PUSH2 0xF53 JUMP JUMPDEST SWAP3 POP DUP3 PUSH2 0x159C JUMPI PUSH2 0x159B PUSH2 0x154A JUMP JUMPDEST JUMPDEST DUP3 DUP3 DIV SWAP1 POP SWAP3 SWAP2 POP POP JUMP JUMPDEST PUSH32 0x496E73756666696369656E7420436F696E2062616C616E636520696E20636F6E PUSH0 DUP3 ADD MSTORE PUSH32 0x7472616374000000000000000000000000000000000000000000000000000000 PUSH1 0x20 DUP3 ADD MSTORE POP JUMP JUMPDEST PUSH0 PUSH2 0x1601 PUSH1 0x25 DUP4 PUSH2 0x10C9 JUMP JUMPDEST SWAP2 POP PUSH2 0x160C DUP3 PUSH2 0x15A7 JUMP JUMPDEST PUSH1 0x40 DUP3 ADD SWAP1 POP SWAP2 SWAP1 POP JUMP JUMPDEST PUSH0 PUSH1 0x20 DUP3 ADD SWAP1 POP DUP2 DUP2 SUB PUSH0 DUP4 ADD MSTORE PUSH2 0x162E DUP2 PUSH2 0x15F5 JUMP JUMPDEST SWAP1 POP SWAP2 SWAP1 POP JUMP JUMPDEST PUSH0 PUSH1 0x60 DUP3 ADD SWAP1 POP PUSH2 0x1648 PUSH0 DUP4 ADD DUP7 PUSH2 0x100D JUMP JUMPDEST PUSH2 0x1655 PUSH1 0x20 DUP4 ADD DUP6 PUSH2 0x100D JUMP JUMPDEST PUSH2 0x1662 PUSH1 0x40 DUP4 ADD DUP5 PUSH2 0xF5C JUMP JUMPDEST SWAP5 SWAP4 POP POP POP POP JUMP JUMPDEST PUSH32 0x4661696C656420746F207472616E7366657220746F6B656E20746F20636F6E74 PUSH0 DUP3 ADD MSTORE PUSH32 0x7261637400000000000000000000000000000000000000000000000000000000 PUSH1 0x20 DUP3 ADD MSTORE POP JUMP JUMPDEST PUSH0 PUSH2 0x16C4 PUSH1 0x24 DUP4 PUSH2 0x10C9 JUMP JUMPDEST SWAP2 POP PUSH2 0x16CF DUP3 PUSH2 0x166A JUMP JUMPDEST PUSH1 0x40 DUP3 ADD SWAP1 POP SWAP2 SWAP1 POP JUMP JUMPDEST PUSH0 PUSH1 0x20 DUP3 ADD SWAP1 POP DUP2 DUP2 SUB PUSH0 DUP4 ADD MSTORE PUSH2 0x16F1 DUP2 PUSH2 0x16B8 JUMP JUMPDEST SWAP1 POP SWAP2 SWAP1 POP JUMP JUMPDEST PUSH32 0x4661696C656420746F2073656E6420436F696E20746F20757365720000000000 PUSH0 DUP3 ADD MSTORE POP JUMP JUMPDEST PUSH0 PUSH2 0x172C PUSH1 0x1B DUP4 PUSH2 0x10C9 JUMP JUMPDEST SWAP2 POP PUSH2 0x1737 DUP3 PUSH2 0x16F8 JUMP JUMPDEST PUSH1 0x20 DUP3 ADD SWAP1 POP SWAP2 SWAP1 POP JUMP JUMPDEST PUSH0 PUSH1 0x20 DUP3 ADD SWAP1 POP DUP2 DUP2 SUB PUSH0 DUP4 ADD MSTORE PUSH2 0x1759 DUP2 PUSH2 0x1720 JUMP JUMPDEST SWAP1 POP SWAP2 SWAP1 POP JUMP JUMPDEST PUSH0 PUSH1 0x60 DUP3 ADD SWAP1 POP PUSH2 0x1773 PUSH0 DUP4 ADD DUP7 PUSH2 0x100D JUMP JUMPDEST PUSH2 0x1780 PUSH1 0x20 DUP4 ADD DUP6 PUSH2 0xF5C JUMP JUMPDEST PUSH2 0x178D PUSH1 0x40 DUP4 ADD DUP5 PUSH2 0xF5C JUMP JUMPDEST SWAP5 SWAP4 POP POP POP POP JUMP JUMPDEST PUSH32 0x53656E6420436F696E20746F2062757920736F6D6520746F6B656E7300000000 PUSH0 DUP3 ADD MSTORE POP JUMP JUMPDEST PUSH0 PUSH2 0x17C9 PUSH1 0x1C DUP4 PUSH2 0x10C9 JUMP JUMPDEST SWAP2 POP PUSH2 0x17D4 DUP3 PUSH2 0x1795 JUMP JUMPDEST PUSH1 0x20 DUP3 ADD SWAP1 POP SWAP2 SWAP1 POP JUMP JUMPDEST PUSH0 PUSH1 0x20 DUP3 ADD SWAP1 POP DUP2 DUP2 SUB PUSH0 DUP4 ADD MSTORE PUSH2 0x17F6 DUP2 PUSH2 0x17BD JUMP JUMPDEST SWAP1 POP SWAP2 SWAP1 POP JUMP JUMPDEST PUSH32 0x45786365656473206D6178696D756D20746F6B656E7320706572207075726368 PUSH0 DUP3 ADD MSTORE PUSH32 0x6173650000000000000000000000000000000000000000000000000000000000 PUSH1 0x20 DUP3 ADD MSTORE POP JUMP JUMPDEST PUSH0 PUSH2 0x1857 PUSH1 0x23 DUP4 PUSH2 0x10C9 JUMP JUMPDEST SWAP2 POP PUSH2 0x1862 DUP3 PUSH2 0x17FD JUMP JUMPDEST PUSH1 0x40 DUP3 ADD SWAP1 POP SWAP2 SWAP1 POP JUMP JUMPDEST PUSH0 PUSH1 0x20 DUP3 ADD SWAP1 POP DUP2 DUP2 SUB PUSH0 DUP4 ADD MSTORE PUSH2 0x1884 DUP2 PUSH2 0x184B JUMP JUMPDEST SWAP1 POP SWAP2 SWAP1 POP JUMP JUMPDEST PUSH32 0x56656E646F7220636F6E747261637420686173206E6F7420656E6F7567682074 PUSH0 DUP3 ADD MSTORE PUSH32 0x6F6B656E7320696E206974732062616C616E6365000000000000000000000000 PUSH1 0x20 DUP3 ADD MSTORE POP JUMP JUMPDEST PUSH0 PUSH2 0x18E5 PUSH1 0x34 DUP4 PUSH2 0x10C9 JUMP JUMPDEST SWAP2 POP PUSH2 0x18F0 DUP3 PUSH2 0x188B JUMP JUMPDEST PUSH1 0x40 DUP3 ADD SWAP1 POP SWAP2 SWAP1 POP JUMP JUMPDEST PUSH0 PUSH1 0x20 DUP3 ADD SWAP1 POP DUP2 DUP2 SUB PUSH0 DUP4 ADD MSTORE PUSH2 0x1912 DUP2 PUSH2 0x18D9 JUMP JUMPDEST SWAP1 POP SWAP2 SWAP1 POP JUMP JUMPDEST PUSH0 PUSH2 0x1923 DUP3 PUSH2 0xF53 JUMP JUMPDEST SWAP2 POP PUSH2 0x192E DUP4 PUSH2 0xF53 JUMP JUMPDEST SWAP3 POP DUP3 DUP3 ADD SWAP1 POP DUP1 DUP3 GT ISZERO PUSH2 0x1946 JUMPI PUSH2 0x1945 PUSH2 0x14A9 JUMP JUMPDEST JUMPDEST SWAP3 SWAP2 POP POP JUMP JUMPDEST PUSH32 0x45786365656473206D6178696D756D20746F6B656E7320706572206164647265 PUSH0 DUP3 ADD MSTORE PUSH32 0x7373000000000000000000000000000000000000000000000000000000000000 PUSH1 0x20 DUP3 ADD MSTORE POP JUMP JUMPDEST PUSH0 PUSH2 0x19A6 PUSH1 0x22 DUP4 PUSH2 0x10C9 JUMP JUMPDEST SWAP2 POP PUSH2 0x19B1 DUP3 PUSH2 0x194C JUMP JUMPDEST PUSH1 0x40 DUP3 ADD SWAP1 POP SWAP2 SWAP1 POP JUMP JUMPDEST PUSH0 PUSH1 0x20 DUP3 ADD SWAP1 POP DUP2 DUP2 SUB PUSH0 DUP4 ADD MSTORE PUSH2 0x19D3 DUP2 PUSH2 0x199A JUMP JUMPDEST SWAP1 POP SWAP2 SWAP1 POP JUMP JUMPDEST PUSH32 0x4661696C656420746F207472616E7366657220746F6B656E20746F2075736572 PUSH0 DUP3 ADD MSTORE POP JUMP JUMPDEST PUSH0 PUSH2 0x1A0E PUSH1 0x20 DUP4 PUSH2 0x10C9 JUMP JUMPDEST SWAP2 POP PUSH2 0x1A19 DUP3 PUSH2 0x19DA JUMP JUMPDEST PUSH1 0x20 DUP3 ADD SWAP1 POP SWAP2 SWAP1 POP JUMP JUMPDEST PUSH0 PUSH1 0x20 DUP3 ADD SWAP1 POP DUP2 DUP2 SUB PUSH0 DUP4 ADD MSTORE PUSH2 0x1A3B DUP2 PUSH2 0x1A02 JUMP JUMPDEST SWAP1 POP SWAP2 SWAP1 POP JUMP INVALID LOG2 PUSH5 0x6970667358 0x22 SLT KECCAK256 0xEB 0xC6 DUP4 0xCD SWAP16 SUB 0xC6 XOR PUSH25 0x40E8214466414940CCB719C26FE8A3D1E7577DBD42DA5D6473 PUSH16 0x6C634300081A00330000000000000000 "
		},
		"gasEstimates": {
			"creation": {
				"codeDepositCost": "1355200",
				"executionCost": "infinite",
				"totalCost": "infinite"
			},
			"external": {
				"buyTokens()": "infinite",
				"maxTokensPerAddress()": "2448",
				"maxTokensPerPurchase()": "2448",
				"owner()": "2604",
				"renounceOwnership()": "infinite",
				"sellDiscountPercent()": "2449",
				"sellTokens(uint256)": "infinite",
				"setMaxTokensPerAddress(uint256)": "infinite",
				"setMaxTokensPerPurchase(uint256)": "infinite",
				"setSellDiscountPercent(uint256)": "infinite",
				"setTokensPerCoin(uint256)": "infinite",
				"tokensPerCoin()": "2447",
				"transferOwnership(address)": "infinite",
				"withdraw()": "infinite",
				"withdrawTokens(uint256)": "infinite"
			}
		},
		"methodIdentifiers": {
			"buyTokens()": "d0febe4c",
			"maxTokensPerAddress()": "23a1baaa",
			"maxTokensPerPurchase()": "57715207",
			"owner()": "8da5cb5b",
			"renounceOwnership()": "715018a6",
			"sellDiscountPercent()": "0a431e52",
			"sellTokens(uint256)": "6c11bcd3",
			"setMaxTokensPerAddress(uint256)": "dbb84f11",
			"setMaxTokensPerPurchase(uint256)": "1b326fad",
			"setSellDiscountPercent(uint256)": "1369bfee",
			"setTokensPerCoin(uint256)": "453989b2",
			"tokensPerCoin()": "cb232842",
			"transferOwnership(address)": "f2fde38b",
			"withdraw()": "3ccfd60b",
			"withdrawTokens(uint256)": "315a095d"
		}
	},
	"abi": [
		{
			"inputs": [
				{
					"internalType": "address",
					"name": "tokenAddress",
					"type": "address"
				}
			],
			"stateMutability": "nonpayable",
			"type": "constructor"
		},
		{
			"inputs": [
				{
					"internalType": "address",
					"name": "owner",
					"type": "address"
				}
			],
			"name": "OwnableInvalidOwner",
			"type": "error"
		},
		{
			"inputs": [
				{
					"internalType": "address",
					"name": "account",
					"type": "address"
				}
			],
			"name": "OwnableUnauthorizedAccount",
			"type": "error"
		},
		{
			"anonymous": false,
			"inputs": [
				{
					"indexed": false,
					"internalType": "address",
					"name": "buyer",
					"type": "address"
				},
				{
					"indexed": false,
					"internalType": "uint256",
					"name": "amountOfCoin",
					"type": "uint256"
				},
				{
					"indexed": false,
					"internalType": "uint256",
					"name": "amountOfTokens",
					"type": "uint256"
				}
			],
			"name": "BuyTokens",
			"type": "event"
		},
		{
			"anonymous": false,
			"inputs": [
				{
					"indexed": true,
					"internalType": "address",
					"name": "previousOwner",
					"type": "address"
				},
				{
					"indexed": true,
					"internalType": "address",
					"name": "newOwner",
					"type": "address"
				}
			],
			"name": "OwnershipTransferred",
			"type": "event"
		},
		{
			"anonymous": false,
			"inputs": [
				{
					"indexed": false,
					"internalType": "address",
					"name": "seller",
					"type": "address"
				},
				{
					"indexed": false,
					"internalType": "uint256",
					"name": "amountOfTokens",
					"type": "uint256"
				},
				{
					"indexed": false,
					"internalType": "uint256",
					"name": "amountOfCoin",
					"type": "uint256"
				}
			],
			"name": "SellTokens",
			"type": "event"
		},
		{
			"inputs": [],
			"name": "buyTokens",
			"outputs": [
				{
					"internalType": "uint256",
					"name": "tokenAmount",
					"type": "uint256"
				}
			],
			"stateMutability": "payable",
			"type": "function"
		},
		{
			"inputs": [],
			"name": "maxTokensPerAddress",
			"outputs": [
				{
					"internalType": "uint256",
					"name": "",
					"type": "uint256"
				}
			],
			"stateMutability": "view",
			"type": "function"
		},
		{
			"inputs": [],
			"name": "maxTokensPerPurchase",
			"outputs": [
				{
					"internalType": "uint256",
					"name": "",
					"type": "uint256"
				}
			],
			"stateMutability": "view",
			"type": "function"
		},
		{
			"inputs": [],
			"name": "owner",
			"outputs": [
				{
					"internalType": "address",
					"name": "",
					"type": "address"
				}
			],
			"stateMutability": "view",
			"type": "function"
		},
		{
			"inputs": [],
			"name": "renounceOwnership",
			"outputs": [],
			"stateMutability": "nonpayable",
			"type": "function"
		},
		{
			"inputs": [],
			"name": "sellDiscountPercent",
			"outputs": [
				{
					"internalType": "uint256",
					"name": "",
					"type": "uint256"
				}
			],
			"stateMutability": "view",
			"type": "function"
		},
		{
			"inputs": [
				{
					"internalType": "uint256",
					"name": "tokenAmount",
					"type": "uint256"
				}
			],
			"name": "sellTokens",
			"outputs": [
				{
					"internalType": "uint256",
					"name": "coinAmount",
					"type": "uint256"
				}
			],
			"stateMutability": "nonpayable",
			"type": "function"
		},
		{
			"inputs": [
				{
					"internalType": "uint256",
					"name": "newLimit",
					"type": "uint256"
				}
			],
			"name": "setMaxTokensPerAddress",
			"outputs": [],
			"stateMutability": "nonpayable",
			"type": "function"
		},
		{
			"inputs": [
				{
					"internalType": "uint256",
					"name": "newLimit",
					"type": "uint256"
				}
			],
			"name": "setMaxTokensPerPurchase",
			"outputs": [],
			"stateMutability": "nonpayable",
			"type": "function"
		},
		{
			"inputs": [
				{
					"internalType": "uint256",
					"name": "newDiscount",
					"type": "uint256"
				}
			],
			"name": "setSellDiscountPercent",
			"outputs": [],
			"stateMutability": "nonpayable",
			"type": "function"
		},
		{
			"inputs": [
				{
					"internalType": "uint256",
					"name": "newRate",
					"type": "uint256"
				}
			],
			"name": "setTokensPerCoin",
			"outputs": [],
			"stateMutability": "nonpayable",
			"type": "function"
		},
		{
			"inputs": [],
			"name": "tokensPerCoin",
			"outputs": [
				{
					"internalType": "uint256",
					"name": "",
					"type": "uint256"
				}
			],
			"stateMutability": "view",
			"type": "function"
		},
		{
			"inputs": [
				{
					"internalType": "address",
					"name": "newOwner",
					"type": "address"
				}
			],
			"name": "transferOwnership",
			"outputs": [],
			"stateMutability": "nonpayable",
			"type": "function"
		},
		{
			"inputs": [],
			"name": "withdraw",
			"outputs": [],
			"stateMutability": "nonpayable",
			"type": "function"
		},
		{
			"inputs": [
				{
					"internalType": "uint256",
					"name": "amount",
					"type": "uint256"
				}
			],
			"name": "withdrawTokens",
			"outputs": [],
			"stateMutability": "nonpayable",
			"type": "function"
		}
	]
}